S01C00006275696C642F64656275672F67656E657261746F722E7333379C
S3150800000000100020751200083BA900083BA900084B
S315080000103BA900083BA900083BA900083BA9000822
S315080000203BA900083BA900083BA900082D170108B1
S315080000303BA9000860360108D1160108F325010816
S315080000403BA900083BA900083BA900083BA90008F2
S315080000503BA900083BA900083BA900083BA90008E2
S315080000603BA900083BA900083BA900083BA90008D2
S315080000703BA900083BA900083BA900083BA90008C2
S315080000803BA900083BA900083BA900083BA90008B2
S315080000903BA900083BA900083BA900083BA90008A2
S315080000A03BA900083BA900083BA900083BA9000892
S315080000B03BA900083BA900083BA900083BA9000882
S315080000C03BA900083BA900083BA900083BA9000872
S315080000D03BA900083BA900083BA900083BA9000862
S315080000E03BA900083BA900083BA900083BA9000852
S315080000F03BA900083BA900083BA900083BA9000842
S315080001003BA900083BA900083BA900083BA9000831
S315080001103BA900083BA900083BA900083BA9000821
S315080001203BA900083BA900083BA900083BA9000811
S315080001303BA900083BA900083BA900083BA9000801
S315080001403BA90008293800083BA900083BA9000874
S315080001503BA900083BA900083BA900083BA90008E1
S315080001603BA900083BA900083BA900083BA90008D1
S31508000170F0B5114A114C124E00F00105E3695F070C
S3150800018013D40DB9334213D103EA00078F4207D1BE
S315080001900B4A1A40002A0CBF00206FF00100F0BD80
S315080001A0013AEBD16FF00200F9E74FF0FF30F6E7BE
S315080001B06FF00100F3E700BF809698000000035037
S315080001C0020001000B4B70B5D96911F480310DD1CD
S315080001D001244FF48072084E084DF46020462C64C2
S315080001E01A61FFF7C5FF3464EC6070BD6FF001005B
S315080001F0FBE700BF00000350001003500020035027
S315080002004FF4803238B50E4B0E4C9A66E56941F6C6
S31508000210713315400122E3630B4B0021DA60022398
S31508000220606121202361FFF7A3FF10B92120FFF7A2
S315080002309FFF0122054BDA600DB10023E36338BD49
S315080002400090005000000350001003500020035097
S3150800025070B5134C6061E3695B071ED40E4656F809
S31508000260043B8D18A361AE420BD104230021212043
S315080002702361FFF77DFF58B9BDE870402120FFF7DD
S3150800028077BF08210846FFF773FF10B104232361DF
S3150800029070BD56F8043BA361E5E74FF0FF30F7E77A
S315080002A0000003502DE9F84315464FF48032184BE9
S315080002B089469A6603F51C33DF690646174041F6F8
S315080002C07132DA63012203F58053DFF84C80DA6075
S315080002D055B9284601220F4BDA601FB10022A3F553
S315080002E00053DA63BDE8F88306F5005404EA080407
S315080002F0A41BAC4228BF2C46494622463046FFF787
S31508000300A7FF0028E6D12644A1442D1BE0E700BF3D
S31108000310009000500020035000E0FFFFA2
S3150800032001292DE9F04F4AD889B30FF2D40BDBE93E
S3150800033000AB0FF2D409D9E9008935A7D7E90067D8
S3150800034035A5D5E9004536A3D3E900239FED1E5B05
S315080003509FED1F6B9FED207B9FED214B80ED045B8E
S3150800036080ED004B80ED024B80ED066B80ED087B3F
S31508000370C0E90AABC0E90C89C0E90E67C0E91045B7
S31508000380C0E91223C0F8D0100020BDE8F08F9FED19
S31508000390165B0FF2940BDBE900AB0FF29409D9E96F
S315080003A0008925A7D7E9006725A5D5E9004526A32D
S315080003B0D3E900239FED0E6B9FED0F7BCCE76FF023
S315080003C07400E2E7AFF30080D89E05C15D9DBBCB04
S315080003D007D57C362A299A6217DD70305A01599159
S315080003E0000000000000000008C9BCF367E6096ABF
S315080003F03BA7CA8485AE67BB2BF894FE72F36E3CA6
S3150800040039590EF7D8EC2F15310BC0FF672633671D
S3150800041011155868874AB48EA78FF9640D2E0CDB20
S31508000420A44FFABE1D48B547F1361D5F3AF54FA5EC
S31508000430D182E6AD7F520E511F6C3E2B8C68059B10
S315080004406BBD41FBABD9831F79217E1319CDE05BC8
S315080004500348044B834202D0034B03B11847704745
S31508000460EC380020EC38002000000000064B074955
S31508000470C91A891048BF0131491003D0044B0BB182
S3150800048001481847704700BFEC380020EC380020B8
S315080004900000000010B5064C237843B9FFF7D8FFD3
S315080004A0044B13B10448AFF300800123237010BD39
S315080004B0F029002000000000704C010808B5054B23
S315080004C01BB105490548AFF30080BDE80840FFF7B2
S315080004D0CDBF00BF0000000068100020704C010866
S315080004E0A3F5803A704700BF174B002B08BF134B84
S315080004F09D46FFF7F5FF00218B460F461348144A21
S31508000500121A10F0CAFD0E4B002B00D098470D4B5F
S31508000510002B00D098470020002104000D000D484C
S31508000520002802D00C48AFF3008009F071FA2000C9
S31508000530290010F0C6FA09F0D5F900BF0000080036
S31508000540000000000000000000100020001000203D
S31508000550BC2B00200000000000000000012903BF9A
S31508000560034B00201B78A62008BF1370704700BFF6
S31508000570112A0020022938B514461D460FD120221B
S315080005800021084810F089FD3CB1202D2A46214655
S3150800059028BF2022034810F064FC002038BDA6209E
S315080005A0FCE700BFF1290020104608B56AB163B11F
S315080005B002290CD1202B28BF20231A46029B054965
S315080005C01A6010F04EFC002008BD2F20FCE7A6207C
S315080005D0FAE700BFF1290020012905D102B11278F6
S315080005E0024B00201A707047A6207047112A002077
S315080005F02DE9F0431D46002389B0074608460E46F6
S315080006001446CDE9053300F06BFC18B9D82009B0BB
S31508000610BDE8F083304605A900F0CCFC0028F6D1E9
S31508000620204600F05DFC0028F0D0204606A900F020
S31508000630C1FC0028EBD1DDE90596079007A9184803
S3150800064000F0B8FC044600BB079919EB01081ED157
S315080006500EB110F013FC02200AF0DDF8A0B1079BDA
S31508000660022100931F203B46CDE901960D4A0AF068
S31508000670C5F86B689E4210D832464146286810F085
S31508000680F2FC6B689E42E4D86E602046BFE7022003
S315080006900AF0C1F80028ECD0E1E71924F5E700BF15
S315080006A02172080060330108014800F091BD00BFBF
S315080006B000720800002307B50348019301AB00F058
S315080006C0A1FC03B05DF804FB00720800014800F0C5
S315080006D051BD00BF0C72080010B506480C4600F064
S315080006E03DFC40F20123984202BF4FF6F173002009
S315080006F0238010BD0C720800014800F069BD00BFD8
S315080007000D720800002307B50348019301AB00F0FA
S3150800071079FC03B05DF804FB0D720800014800F08F
S3150800072029BD00BF0B72080010B506480C4600F03C
S3150800073015FC40F20123984202BF48F2010300204B
S31508000740238010BD0B720800014800F041BD00BFB0
S315080007500E720800002307B50348019301AB00F0A9
S3150800076051FC03B05DF804FB0E720800014800F066
S315080007702FBD00BF10720800002307B50348019378
S3150800078001AB00F03FFC03B05DF804FB10720800F3
S31508000790014800F01DBD00BF11720800002307B50F
S315080007A00348019301AB00F02DFC03B05DF804FB90
S315080007B011720800014800F00BBD00BF1272080054
S315080007C0002307B50348019301AB00F01BFC03B0F7
S315080007D05DF804FB12720800014800F0CBBC00BFAC
S315080007E01872080010B505480C4600F0B7FB40F231
S315080007F00123984204BF0020208010BD187208000B
S31508000800014800F0E5BC00BF0F72080073B500266A
S3150800081001AB0E480C461546019600F0F3FB40F274
S31508000820012398420BD164B10C2D0CD920462A46D7
S31508000830074910F03CFB30462C4404F8016C02B022
S3150800084070BD0B20FBE71920F9E700BF0F720800FF
S315080008507E330108014800F0BBBC00BF04720800E3
S31508000860014800F0CFBB00BF04720800014800F041
S31508000870C9BC00BF1F72080007B5002000900348D6
S3150800088000F016FC03B05DF804FB00BF1F720800F9
S31508000890014800F06FBC00BF0772080037B5124860
S315080008A00D4600F05BFB40F201239842044604D152
S315080008B04FF470632B80002014E098B92B88B3F5A9
S315080008C0805FF8D3012009F0A6FF50B14FF4C27338
S315080008D02F220121CDE900322046044B044A09F0B3
S315080008E08DFF2F2003B030BD077208008B33010837
S315080008F0AB330108014800F055BC00BF0872080078
S3150800090010B506480C4600F055FB40F20123984204
S3150800091002BF4FF47A730020236010BD08720800E6
S31508000920014800F055BC00BF09720800014800F0F4
S3150800093069BB00BF09720800014800F049BC00BF46
S315080009400A720800014800F05DBB00BF0A72080081
S315080009500B46024A02490348FFF74ABE27720800B7
S3150800096026720800BC3301080B46024A02490348AE
S31508000970FFF73EBE2572080024720800D833010826
S315080009800B46024A02490348FFF732BE23720800A3
S3150800099022720800FE330108022307B5D1E90012C6
S315080009A001A8019307F084FD18B90199024800F0DF
S315080009B0F9FB03B05DF804FB207208001FB502209E
S315080009C003900698009003A807F08AFD18B90399C2
S315080009D0024800F0E7FB05B05DF804FB207208004A
S315080009E0002370B5154886B00D461646049300F0E8
S315080009F077FA08B3114804A900F0DCFAD0B9049BC9
S31508000A003246002B08BF0223294605A8059307F09E
S31508000A10CFFD0446022009F0FEFE50B10294736829
S31508000A20022101936B681F200093054A049B09F075
S31508000A30E5FE204606B070BDD824EBE72072080014
S31508000A4017340108014800F0ADBB00BF2172080049
S31508000A50014800F0AFBA00BF21720800014800F053
S31508000A60B7BB00BF29720800014800F0CBBA00BF27
S31508000A7029720800014800F0C5BB00BF05720800CE
S31508000A8007B500200090034800F012FB03B05DF89C
S31508000A9004FB00BF05720800014800F053BB00BF05
S31508000AA028720800014800F02DBA00BF2872080015
S31508000AB0032307B5D1E9001201A8019300F084F9D0
S31508000AC018B90199024800F06DFB03B05DF804FB04
S31508000AD030720800014800F06DBA00BF3072080095
S31508000AE04A6808B5102A01D02F2008BD09680248AF
S31508000AF000F088FBF9E700BF177208001FB500234E
S31508000B004A680C460F2A03930FD90093102203ABA9
S31508000B100968074800F0CCFA63680F2B01D810F073
S31508000B20ADF91023636004B010BD1920FBE700BFC0
S31508000B301772080000200A4B10B5186032B9094C24
S31508000B402146BDE81040084800F02CBBA1F500512D
S31508000B508C18064809F0AEFE204608F0C7FCEFE7F9
S31508000B608010002000E00F08217208009410002071
S31508000B7000232DE9F04F85B080460F462C4803A97F
S31508000B801546039300F016FA002838D1294E039922
S31508000B9033681BB9284809F070FE80BBD5E90014F4
S31508000BA03368039A02EB030B14F003031BD10A46BE
S31508000BB023465946204809F066FE00BB4046316880
S31508000BC000F0F0FAD8B93846696800F0EBFAB0B91F
S31508000BD032686B680020134413F03F021CBF403391
S31508000BE09B1A33600BE004F1040AAAEB030A504689
S31508000BF0019100F0C9F80199814618B9AC2005B0F1
S31508000C00BDE8F08F224610F02CF9AAEB0402FF216A
S31508000C1009EB040010F041FA53464A46594606487D
S31508000C2009F031FE0446484600F0BEF82046C4E7FF
S31508000C3021720800801000209410002008B50A468A
S31508000C4002480349FFF794FF08BD00BF2272080057
S31508000C502372080008B50A4602480349FFF788FFC9
S31508000C6008BD00BF247208002572080008B50A46A8
S31508000C7002480349FFF77CFF08BD00BF267208003B
S31508000C80277208001FB513460022039203AA019291
S31508000C90202200920A46014604480EF0E2F800288F
S31508000CA014BFAC20002005B05DF804FB0900000263
S31508000CB0014B09F0F4BC00BFC3A5000830B4084BCB
S31508000CC0D3E8EF2F541CC3E8E54F002DF8D1002ACE
S31508000CD002DC30BC00F03CB8002030BC704700BFD6
S31508000CE0841000202D2828BF002010B4074C04EBE0
S31508000CF08000074CD4E8AF4F1CB1A4465DF8044BFE
S31508000D0060475DF8044B09F091BD00BF62340108E5
S31508000D1088100020024BD3E88F0FC0B2704700BF7F
S31508000D20082F0020024608B5064BD3E8AF3F3BB96B
S31508000D30054B06491B68D86809F0FCF910F09EF8BF
S31508000D4008BD00BF8C100020AC2E00201635010807
S31508000D5008B50A4BD3E8EF2F511CC3E8E01F00285B
S31508000D60F8D1002A07DD064B06481B68D96809F042
S31508000D70F3F910F083F8002008BD00BF8C1000209E
S31508000D80AC2E00205E35010838B504460548FFF745
S31508000D90C9FF204609F00CF90546214609F044FD2D
S31508000DA0284638BD9135010810B504460548FFF7B1
S31508000DB0B9FF2046002109F038FD2046BDE810405D
S31508000DC009F0FEB89D35010870B5044688B000687C
S31508000DD00D46164609F02BFD23684FF4007107935C
S31508000DE001230B4A02A8CDE902230A4B3246CDE974
S31508000DF0041300232946069301AB0DF0CDFF0146E7
S31508000E0018B1054808F028FEAC2008B070BD00BF30
S31508000E10002480000010C004A8350108014B1960A1
S31508000E20704700BF90100020014B1960704700BF43
S31508000E3090100020014B0360704700BF1836010868
S31508000E4010B50446034B082103600BF094FC2046BA
S31508000E5010BD00BF183601080448054B054A036053
S31508000E600023054943600FF056BE00BF94100020CA
S31508000E7018360108682D0020350E000837B50E4DC6
S31508000E802C686CB9032322462146009301200B4B9C
S31508000E9012F024F9234622462146286011F065FE01
S31508000EA0286808B90FF0EAFF4FF0FF3103B0BDE834
S31508000EB0304011F0AEBF00BFEC1000209C1000209F
S31508000EC0064B10B5186808B90FF0D8FF0023BDE81F
S31508000ED010401A46194611F048BE00BFEC10002013
S31508000EE007B5014606486A4601AB006801F064FB8F
S31508000EF009F0EEFCB0FA80F0400903B05DF804FB97
S31508000F00882E00207FB5002304460D468DF807304D
S31508000F1009F0EAFCD0B1104E2146306803AB02AAAC
S31508000F2001F04AFB09F0D4FC70B9039B012B10D1E0
S31508000F30214630680DF1070201F0B8FA09F0C8FC3D
S31508000F4010B99DF807302B7004B070BD40F201202F
S31508000F50FAE72F20F8E700BF882E00207FB5002388
S31508000F6004460D46ADF8063009F0BEFCD0B1104E69
S31508000F702146306803AB02AA01F01EFB09F0A8FC63
S31508000F8070B9039B022B10D1214630680DF1060279
S31508000F9001F08CFA09F09CFC10B9BDF806302B80DC
S31508000FA004B070BD40F20120FAE72F20F8E700BF31
S31508000FB0882E00207FB5002304460D46039309F0CA
S31508000FC093FCC0B10E4E2146306802AB01AA01F06F
S31508000FD0F3FA09F07DFC60B9029B042B0ED1214679
S31508000FE0306803AA01F062FA09F072FC08B9039B9B
S31508000FF02B6004B070BD40F20120FAE72F20F8E715
S31508001000882E00202DE9F0431D46002385B02B606D
S3150800101007460E46914609F067FC00283ED0DFF8E1
S315080010208C803946D8F8000003AB02AA01F0C4FA4E
S3150800103009F04EFC0446B8B9039B93B3C6B14B45B9
S3150800104031D232463946D8F8000001F02FFA09F0B5
S315080010503FFCD8B9039B012B03D13378003B18BF5B
S31508001060012300222B60F254204605B0BDE8F08328
S31508001070012B01D02B60F7E73946D8F800000DF1AF
S31508001080070201F013FA09F023FC08B10446EBE75E
S315080010909DF8073003B103982860E5E740F201247C
S315080010A0E2E71E24E0E71924DEE700BF882E0020C9
S315080010B02DE9F04F1D46002385B02B60074688466C
S315080010C01646DDF838A009F00FFCA0B3DFF870B0BB
S315080010D03946DBF8000003AB02AA01F06DFA09F005
S315080010E0F7FB0446A8B9B8F1000F12D0039BDBF84A
S315080010F00000A3EB0A09B1450FD8534642463946C4
S31508001100CDF8009001F012FA09F0E2FBB0B9C5F883
S315080011100090204605B0BDE8F08F53464246394652
S31508001120009601F003FA09F0D3FB04460028F0D133
S3150800113019242E60EDE740F20124EAE70446E8E7C1
S31508001140882E002013B504468DF8071009F0CCFB4D
S3150800115058B107480123214600680DF1070201F03E
S31508001160F9FA09F0B5FB02B010BD2F20FBE700BF66
S31508001170882E002013B50446ADF8061009F0B4FB16
S3150800118058B107480223214600680DF1060201F00E
S31508001190E1FA09F09DFB02B010BD2F20FBE700BF66
S315080011A0882E002013B50446019109F09DFB58B11D
S315080011B004230648214600680DEB030201F0CAFA2B
S315080011C009F086FB02B010BD2F20FBE7882E002011
S315080011D010B5044609F088FB68B179B10848012AB8
S315080011E01346006838BF01230A46214601F0B2FAC1
S315080011F009F06EFB10BD40F20120FBE72F20F9E74E
S31508001200882E002010B5044609F06EFB58B101B9C6
S3150800121062B90748134600680A46214601F09AFA59
S3150800122009F056FB10BD40F20120FBE72F20F9E735
S31508001230882E0020BFF34F8F0549064BCA6802F473
S31508001240E0621343CB60BFF34F8F00BFFDE700BFDB
S3150800125000ED00E00400FA050348044A0449121A9E
S31508001260921009F06BBB00BF700100081C03000850
S31508001270BC2B002008B5154B83F30A8800F030F81C
S31508001280FFF7EAFF124B13498B4212D30020124B89
S3150800129012498B4218D3FFF727F9186850F82240ED
S315080012A0586840F82240013298688242F5D30C33D8
S315080012B0EAE70022F8E71C6844F8220001325C6875
S315080012C0A242F8D30833E4E70022F8E7000000203A
S315080012D0784C0108844C0108844C0108844C0108A8
S315080012E04FF48041124B134A70B59A60D3F88820A0
S315080012F0114D42F47002C3F88820104A05F50054CF
S3150800130091664FF0FF3222660D4A62660222C3F8E2
S31508001310D020BFF34F8FBFF36F8F4FF440360020B6
S3150800132003F050FC0020E66003F03EFC2E6170BD21
S3150800133000ED00E000000008008000440090005026
S31508001340F7FF37002DE9F04F144606460D469B4633
S31508001350C36B87B001225B6902A960689847F36B83
S3150800136001225B6903A92846984702A809F0E4FE0A
S31508001370074648B10023A37563754FF0FF33A36092
S31508001380002007B0BDE8F08F03A809F0E2FE0123AC
S31508001390A375237E04EBC303DD611F846368AB4238
S315080013A00ED1206003A809F0F6FE4FF0FF33207532
S315080013B0A360237D043B022B26D80023A375DFE711
S315080013C023681A1A53425341A37503A809F0E3FE8A
S315080013D0237D834218BFA77503A809F0BEFE0746FA
S315080013E002A809F0BAFE874218BF002303A818BF4F
S315080013F0A37509F0BAFE074602A809F0B6FE8742A9
S315080014001CBF0023A375D4E703A809F0A6FE80B184
S31508001410F36B022228465B6904A9984704A809F0D9
S31508001420ABFE0346207D032839D8DFE800F03838BC
S31508001430040903A8F3E7CC22237E04EBC3031A842A
S3150800144001F0D0FA109B187003A8277E09F079FEE0
S3150800145004EBC70787F82200237E03A804EBC3031F
S31508001460B3F8209093F8227009F077FE804603A817
S3150800147009F07BFE8246B8F1000F15D0F36B022205
S3150800148028465B6904A9984704A809F03AFE6075DE
S31508001490637D6BB90023A3754FF0000838E0227E00
S315080014A004EBC2021384CBE703A809F015FEEEE7A6
S315080014B094F81680B8F1000FEED0B9F1000F09D1F3
S315080014C0DFB10123627EE375002A44D19F4218D119
S315080014D0677614E0736C05EB0A02594285EA020046
S315080014E008421CBF0021A175591E0A409B1A99453E
S315080014F0D0D8A37D002BE3D1CEE7E37D43B94FF0E7
S3150800150000084B4652462946304609F057FBA0606C
S31508001510A27D12B123694B4423611449237E0978BD
S3150800152099421ED901332376BBF1000F1BD0D2B1E5
S31508001530E37DC3B1B8F1000F15D1032F13D0A1680D
S315080015404B1C10D0109B2246009330460123FFF710
S31508001550F9FEA07507E0012FDAD0032F08BFA3769E
S31508001560CDE70023A375A07D0BE700BFD0360108A1
S315080015702DE9F04F0E46984600238BB004464FF0EF
S31508001580FF31104617468DF8133001F015FAB6F5F7
S31508001590801F3BD3B21C53D1E56A6B1C57D120463A
S315080015A0616A09F051FA0546B31C18BF0123DFF832
S315080015B010910193636A626C0293236805A902FB82
S315080015C0053AE36B05225B695046984705A809F07A
S315080015D04EFE09F071FE504609F079FE4FF0000BF9
S315080015E0824601464B1C05D0636C81EA0A025B42BF
S315080015F0134232D02946204609F026FA029BAB420E
S315080016004DD0BBF1000F4DD10546D3E7314605AAAB
S3150800161004F1080009F0E2FC0146481C10D03846DF
S3150800162001F0CAF90122394620460DF1130309F0E3
S3150800163017FB28B19DF8133088F80030002003E026
S31508001640237C002BA8D12D200BB0BDE8F08F236892
S31508001650ED1A636CB5FBF3F5A6E7484601F0ACF95D
S315080016600DF1130349462046019A09F0F9FA034693
S3150800167090B1B21C03D0D9F80020B2420CD19DF823
S31508001680132003930D4B88F8002049461A683846FC
S315080016900FF0E7FB039B9B46D9F80810A2E7BBF1BE
S315080016A0000FD0D0B6F5801FC8D2314698F8003062
S315080016B07A6804F1080001F0C5F8BFE7CC360108DE
S315080016C0241100202DE9F3410446174698460E4694
S315080016D0194D816AE36A8B422AD04B1C18E02846CA
S315080016E001F06AF90122294620460DF1070309F09F
S315080016F0B7FA30B14346294620469DF80720B84731
S31508001700B0B1A9684A1C05D0012E0AD0E36A9942ED
S31508001710E5D10DE06968204609F023FA012E014655
S31508001720D8D16B6881EA0302636C5B421A42D1D056
S3150800173002B0BDE8F08100BFF81000202DE9F041A5
S31508001740036B9046826B07689A4288BF8363426C34
S31508001750436A90B002FB0377C36B0E46052201A9C4
S315080017605B6904463846984701A809F080FD0128B8
S315080017700146307057D0656CE26B2368606AD2F810
S3150800178014C005FB0030052206A9E04706A809F0A3
S315080017906EFD01284FF0000523D0D4E90A32012155
S315080017A09342CDE90B458DF834800E958DF83C10A3
S315080017B02AD11946204609F0D4F9236B626C1433F2
S315080017C09B1AE06223630C9B53B99DF83C303BB1EE
S315080017D0626A616C2368E06B01FB023109F0FFFC69
S315080017E00C9DE36B05225B6901A93846984701A859
S315080017F009F03DFD30702846236BA26B9A4288BFDC
S31508001800A36310B0BDE8F081237C33B91C490BAA49
S3150800181004F1080001F064F8D5E72046194A0BAB35
S31508001820FFF750FFCFE7237C23BB2246164904F176
S31508001830080001F055F8616A204609F026F9616A40
S31508001840421C204609F0EFF8054620B9236B626C66
S315080018501344143B23632046A16A09F082F92368DE
S31508001860A062C01A636CB0FBF3F06062204609F010
S31508001870BBF9B6E700232046044AFFF723FFDAE759
S31508001880B11F00082D1F0008E9AC000885AC000848
S3150800189073B50D46D11E4A421C461B7E4A419A42E2
S315080018A026D129682368994222D3636899421FD8AA
S315080018B0114E0DF107033246FFF75AFEC0B972689A
S315080018C06B689A4214D19DF80730DA1E5342534189
S315080018D0227E93420CD1636901336361D4E9032301
S315080018E0934205D22968A26842F82310013323617E
S315080018F0012002B070BD00BF501100202DE9F04F45
S315080019009A468BB09DF85030DFF850B10293DBF859
S315080019101030804653450D461646C0F09980D1468C
S31508001920DBF804300193B9F1000F00F08D80D8F888
S315080019303C3001225B6907A90198984707A809F076
S3150800194008FCDBF80030984240F0858007A809F0CB
S315080019500CFC0428074614D107A809F00DFC019BC6
S31508001960029A04463B44002A3FD1864212D91446BD
S31508001970361A4046019909F0F4F8A9EB04090190D2
S31508001980D1E7D8F83C3002225B69019808A9984744
S3150800199008A8E2E7841B544528BF5446032C03EBEA
S315080019A00607AAEB040A4FEA94021CD9D8F83C3079
S315080019B0294638465B69984724F0030304F0030672
S315080019C01F441D44002ED4D0D8F83C3001225B6950
S315080019D008A9384698473246284608A935440FF0DC
S315080019E040FA0026C5E72646ECE7074600F003025C
S315080019F0039203442A1804920593049BDD1B059B56
S31508001A00D81B039B9F420FD1002FB2D0D8F83C3089
S31508001A10012208A95B6998473A46284608A90FF0A3
S31508001A2012FB78B93D44A4E7D8F83C30012208A94E
S31508001A305B6998470422284608A90FF004FB08B9F1
S31508001A40043FDAE74FF0360948460BB0BDE8F08F99
S31508001A504FF06309F8E74FF06F09F5E77C110020AE
S31508001A602DE9F0410F4616469846044688B060B3FD
S31508001A7090F83450FDB1012108F0ABFF00210E9B10
S31508001A80CDE90511CDE902379DF83C30CDF8048043
S31508001A908DF81C30237C04968BB90D4901AA04F1F4
S31508001AA0080000F01DFFDDE90553E06B002E08BFB6
S31508001AB01D4609F027F9284608B0BDE8F0812046FA
S31508001AC0044A01ABFFF7FEFDEDE70546F3E700BF65
S31508001AD0B3AC0008911800082DE9F04F99B00F46ED
S31508001AE009920A69416C0E931439D31DB3FBF1F3BD
S31508001AF0013302EBC302036B04469342C0F0B38181
S31508001B000023DFF824940D93E36A484619460793A1
S31508001B1000F052FFD7E9033604930E9B022B4ED1F1
S31508001B20CC2E40F08A81099B002B42D039462046AC
S31508001B3009F046F9656C079A6B1E13401490ED1A66
S31508001B40E36B01225B6916A97868984716A809F01D
S31508001B5004FB00280CBF04230823782E06933DD9DE
S31508001B60012300254FF0080A05933B6805990E984E
S31508001B70C9F80030C9F8106009F011FB4FEA9A035A
S31508001B8010930023DDF81CB089F814000B930F930B
S31508001B9008930C93616C4A1E0BEA02028B1A002EFC
S31508001BA038D05544AB4240D8236B5B1A13442363A1
S31508001BB0ABE0049B1B68149308230693D0E7656C77
S31508001BC0079A6B1E1340782EA5EB030516D8FB7DE6
S31508001BD07BB9099B002BB3D104230693331DAB4273
S31508001BE010D9A6B1082DBBD804250023AA4605930B
S31508001BF0BBE7099B002BA3D10823EEE7099B002B23
S31508001C009ED1D9E7002505954FF0040AADE70425CE
S31508001C100596F9E75345C7D3B0460BEB0A0303937A
S31508001C20089B002B18BF032313E0A3EB0A039E426D
S31508001C30B0460BEB0A0228BF98469E420392EFD99C
S31508001C400123D9F8102089F81730964271D1C9F8BE
S31508001C5004B0089399F81730002B6CD099F818201F
S31508001C600899D31C09EBC3030132C3F804B0A3F8DF
S31508001C700880997289F81820B8F1000F14D00E9BC5
S31508001C80022B5BD10B9B7BB90F9B4344032B0BD9D0
S31508001C90E36B01229B69039814A998470546002817
S31508001CA040F0E38001230B93089B16A80193059B3C
S31508001CB0009399F814204346396800F033FEE36B25
S31508001CC058469B69109A16A99847051E0D9B18BF7A
S31508001CD05B4652460D9359464346204608F06EFF2A
S31508001CE0236B08F10302A3EB0A0322F003029B1AF3
S31508001CF0C9F808002363002D40F0B7800F9BDDF874
S31508001D000CB04344A6EB08060F935946204608F044
S31508001D1028FF00258346002E7FF43CAF824A3968A7
S31508001D20936804F10800E36252680E9B00F08AFD8E
S31508001D3084E002238DE7C9F804B09DE7099B002BD0
S31508001D4030D1049BB8F1030F43440A9327D9DDE940
S31508001D500301E36B4FEA98029B69984705460028FA
S31508001D6065D118F003025FD0049B28F003052B44C5
S31508001D700493039B1D444FF0FF33049915A815934C
S31508001D800FF06FF8E36B28469B69012215A998475F
S31508001D9005460A9B0493002D86D0039B99E7424685
S31508001DA0039DE8E7039B0A9307F120031193FB7D44
S31508001DB078689BB100233D7E0C9AD9B28D4211D921
S31508001DC0119903F1010C31F83310914226D906997D
S31508001DD007EBC303D8690A44104403E00C9B069A30
S31508001DE013441844E36B01225B6915A99847159BB0
S31508001DF0012213930C9B0A9804330C93E36B13A9E3
S31508001E009B699847039B0A9A43449B1A042B0546E9
S31508001E1007D978B9134604330A93C8E76346521AB2
S31508001E20CBE70A9B0393B6E70A9B04933CE70A9B16
S31508001E300493B2E70A9B0393AFE77026304619B0BE
S31508001E40BDE8F08F4FF0000A4FE03A69616CD31D88
S31508001E501439B3FBF1F3013302EBC302236B93424C
S31508001E60BFF452AE5DE01C26E8E73D2D59D104F1DA
S31508001E70080303932368079A606CA2EB030ABAFB6C
S31508001E80F0FA00FB0A3009F022FAE16A8046204699
S31508001E9008F067FEA26A8242D7D0626CD9F8083089
S31508001EA0511E0B40216B2668891A0B4423630D9B30
S31508001EB0E0629E1BB6FBF2F6B245C3D1079BB3EBB5
S31508001EC0080A12D0E36B4FEA9A0241469B69984783
S31508001ED08346E36A079A5344E362236B03989B1A83
S31508001EE04344236309F04BF8DA462368616CE06BD8
S31508001EF001FB063109F060F9204608F075FD204619
S31508001F0008F072FE2063BAF1000F9ED03A69616C40
S31508001F10D31D1439B3FBF1F3013302EBC30290422C
S31508001F20A8D22E468AE700BF24110020032A2DE9ED
S31508001F30F34106460D4617461C4606D1237A012B61
S31508001F4023D0012002B0BDE8F081DFF8608009687F
S31508001F5042460DF10703FFF70BFB60600028EDD141
S31508001F609DF80720237A032AE8D0D8F804106A686F
S31508001F709142E3D1012B2969D4F80CC007D17269C3
S31508001F800CEB0103934202D92074207CDAE708316E
S31508001F906144E1603B46012229463046FFF79CFD35
S31508001FA060600028CAD00020CCE700BF501100208E
S31508001FB02DE9F341089C032A1746266806D1237A99
S31508001FC0012B24D0012002B0BDE8F081DFF8908013
S31508001FD0304642460DF10703FFF7CAFA606000284B
S31508001FE0EDD12568D8F80400A96AD5F844C0484058
S31508001FF0CCF100031840227AE1D1012A09D1E2681E
S31508002000D8F8103013447269934202D92074207CA0
S31508002010D9E72868EB6A1B1A081AB3FBFCF3B0FB6E
S31508002020FCF083420BD1706CF36A421E1340326B8C
S31508002030121A13442846336308F093FDE862D8F869
S315080020401020E36808321344E36001223B46044942
S315080020502068FFF741FD60600028B0D00020B2E795
S31508002060501100202DE9F04F4FF0FF334FF6FF7265
S315080020700025044600F10806C0E909238BB0C362AF
S315080020800562056330460F4608F079FF204608F0DA
S31508002090ABFC20BB2046394608F026FD204608F052
S315080020A0A3FC20BB5E200BB0BDE8F08FE26B236873
S315080020B0606CD2F814C000FB0530052205A9E0477C
S315080020C005A809F0D4F8012828D12946204608F0A1
S315080020D0DCFC421C2946204608F0A5FC0135E369CC
S315080020E09D42E3D3204608F07FFC0028D2D0002585
S315080020F04FF0FF394FF6FF73CA46A846C4E908539E
S31508002100E369984514D3A5EB0905012D36D84FF692
S31508002110FF72636A934246D16720C4E709F0D1F893
S315080021200028DBD02946204608F0AFFC0246D1E756
S315080021302368E26B606C576900FB0830052205A925
S31508002140B84705A809F093F8834605A809F066F884
S315080021500746584609F0B0F868B1574538BFC4F87D
S315080021602480B94528BFB946BD4238BF3D46BA4660
S31508002170236A0133236208F10108C1E74FF6FF73AA
S3150800218000256362E3699D42C1D2676C2068E36BF0
S31508002190052207FB05005B6905A9984705A809F00C
S315080021A03DF80135EEE7E26B676C2068694607FB88
S315080021B0030055690522A847684609F02FF8626AA0
S315080021C02368606C504D00FB023009F080F84FF030
S315080021D0FF33A062E3622A466FF00101204605AB91
S315080021E0FFF7C6F900284FD1AD6829462046E562B3
S315080021F008F0D6FB206320B92046E16A08F0B1FC56
S31508002200E0622946204608F0ACFC0546A36A9D42D2
S315080022103CD16569626CE91C143AB1FBF2F14FF0E6
S31508002220000805EBC1050335B5FBF2F5C1460235D5
S31508002230E36999453CD3A8455AD22046616A08F015
S3150800224003FC0027064604F1400AB84512D8626C1A
S315080022502368694602FB0639E36B05225B69484633
S315080022609847684608F0DAFF534602464946E06B47
S3150800227009F02FF83146204608F0E6FB0137AF4251
S315080022800646E2D364200EE7A56AAEE7294620464D
S3150800229008F086FB236B294603440746236320463A
S315080022A008F05FFC0546002FB0D1C4E90B07ADE77F
S315080022B0636C2768052203FB0977E36B05A95B694D
S315080022C03846984705A808F0D2FF08F0F5FF60B130
S315080022D0384608F0FCFF0146204608F061FB636CAF
S315080022E0143B984208BF08F1010809F101099FE764
S315080022F0304608F044FE002320461946034AFFF7F5
S31508002300E1F90020CFE600BF501100204FAC0008CD
S315080023102DE9F0410025634B0E46D3F800800446AC
S315080023201D6018B921252846BDE8F08190F834705B
S3150800233007B30A6803689A4240F0AA804A68436865
S315080023409A4240F0A5808A6883689A4240F0A08045
S31508002350CA68C3689A4240F09B800A6943699A42F0
S3150800236040F096808A69C36B9A4240F091804B6927
S315080023708361D8E768223946856B0EF08EFED6E96A
S315080023800212336804F1080023607368A56363606A
S31508002390336963617369A36108F003FEB36904F1E5
S315080023A04000E3639B68984720B9676C17B1636878
S315080023B0B3FBF7F794F84330E761002BB2D000235C
S315080023C0656C2366002D6BD0002F69D02368B3FB9C
S315080023D0F5F205FB1233002B5CD16768B7FBF5F6FF
S315080023E005FB1676002E55D1204608F0C9FAA369D2
S315080023F0043303449F424FD340F634726369CC3B9F
S3150800240093424BD8B5F5805F4AD30321204608F09E
S31508002410E0FAD4E90001E36B1B6898470546E36BCD
S315080024200220DB6898472DB184F83460E06B08F029
S3150800243069FC78E741462046FFF714FE64280546FE
S3150800244004D141462046FFF70DFE0546636C143B52
S31508002450D5B9226A204602FB03F608F091FAA36969
S31508002460043303449E4203D284F834505A25DDE7E8
S315080024700123D4E900010C4A84F834301368013387
S31508002480136008F028FED1E7002384F83430CDE73E
S315080024905D2548E7592546E75A2544E75F2542E77B
S315080024A05B2540E7F4100020F01000202DE9FF41DD
S315080024B00C4616461F46054680B390F834307BB363
S315080024C0B1F5801F2ED2DFF86080012108F081FA6D
S315080024D02146424628460DF10F03FFF749F8044600
S315080024E070B99DF80F30012B11D1D8F81030BB42C6
S315080024F012D10246009031462846FFF7FFF90446F6
S31508002500E86B08F0FFFB204604B0BDE8F081022B1B
S3150800251014BF2D246024F3E76324F1E72124F2E7AE
S315080025201124F0E72924EEE77C1100202DE9F04379
S3150800253085B00C4617461E460546DDF8308098B32A
S3150800254090F8343093B3B1F5801F31D2DFF8649038
S31508002550012108F03EFA21464A4628460DF10F03A6
S31508002560FFF706F8044688B99DF80F30012B14D1F9
S31508002570D9F8102006EB08039A4213D30090434675
S31508002580324639462846FFF7B9F90446E86B08F09B
S31508002590B9FB204605B0BDE8F083022B14BF2D24F5
S315080025A06024F3E76324F1E72124F2E71124F0E736
S315080025B02924EEE77C1100202DE9F3411F4600236C
S315080025C00C46164605463B6050B390F834304BB37C
S315080025D0B1F5801F28D2DFF85480012108F0F9F9F7
S315080025E02146424628460DF10703FEF7C1FF044679
S315080025F0A0B99DF80730032B10D0022B0AD101236E
S31508002600336004233B60E86B08F07CFB204602B08D
S31508002610BDE8F081D8F810303060F3E72D24F2E7F2
S315080026202124F3E71124F1E72924EFE77C110020A0
S3150800263073B50446056B08F0A3F9636E03449D421F
S315080026408CBF00230123854294BF00252D1A207CC8
S3150800265084F85030656584F85800A8B100230C4EFC
S315080026601A4619462046009608F077FC00230546C8
S315080026701A4619462046009608F078FCE36828446E
S31508002680984294BF0020C01AE06502B070BD00BF32
S31508002690FFFF0F002DE9F3471E4643690446B34280
S315080026A0884617469DF828904ED300258DF8075082
S315080026B0204608F065F9D4F830A082450AD2236A84
S315080026C0B5EB430F06D2002220460DF10701FFF7AE
S315080026D035F8B8B39DF80730012B05D100222046FE
S315080026E00DF10701FFF72AF8B9F1030F06D03146B5
S315080026F0204608F030F9256B854227D3144D4FF054
S31508002700FF31284600F058F94B4629460022204654
S31508002710C5E90376C5F80080FFF7DEF9236E05469E
S3150800272063B12046FFF784FF94F8503013B994F844
S3150800273058301BB1236E04F150009847284602B062
S31508002740BDE8F0870135B3E76225F7E71C25F5E70D
S31508002750501100202DE9FF410F4690461E460546BA
S3150800276098B390F8343093B3B1F5801F31D21A4C30
S31508002770022108F02EF92246394628460DF10F03A4
S31508002780FEF7F6FE024678B1012342460093394623
S3150800279033462846FFF77EFF0446E86B08F0B2FA90
S315080027A0204604B0BDE8F0819DF80F30012BEBD12F
S315080027B02169B142E8D10093414633462846FFF7DE
S315080027C09DF804460028DFD1E7E72124E8E711242D
S315080027D0E6E72924E4E700BF7C11002030B50C4663
S315080027E0054685B028B390F8343023B3B1F5801F79
S315080027F023D2022108F0EDF80DF10F0321462846F1
S315080028000F4AFEF7B5FE034688B99DF80F20032A3E
S315080028100DD003222146009202462846FFF73AFFCA
S315080028200446E86B08F06EFA204605B030BD2D2444
S31508002830F7E72124F8E71124F6E72924F4E700BF8F
S315080028407C1100202DE9F043466886B30568984652
S315080028504FF0000CA946AE4655F83C400CF1010C69
S31508002860C4F31307013401D0B94217D066450EF1F7
S31508002870080EF1D12F46002403E0A64207F1080707
S3150800288012D055F8343001340133F6D1C1F31301AF
S3150800289041EA0851C7E90012BDE8F08341EA085148
S315080028A0CEE90012BDE8F083B8F1030F03D1012386
S315080028B00372BDE8F083002303E09E4209F108098C
S315080028C0F5D055F833400133C4F30754032CF4D13B
S315080028D0C1F3130343EA0853C9E90032BDE8F0839C
S315080028E02DE9F0410646406882B0C0B10F469046D1
S315080028F00024336853F8345003EBC403C5F3075276
S31508002900C5F31301013504F1010406D05B683046AE
S31508002910CDF80080B84710B170688442E9D302B098
S31508002920BDE8F08173B504462248012A00EAC111C0
S315080029309DF8185023F07C4007D9961E012E28D9F9
S31508002940073303F07F03194308E09DF81C300A4358
S31508002950DB0603F0C053134343F060410023C4E988
S3150800296000108DF80730B5B1202221460DF1070079
S3150800297008F0C9FC1A220DF10700211D08F0C3FC56
S31508002980082063689DF8072043EA8263636002B003
S3150800299070BD1143E2E71B220DF10700214608F03E
S315080029A0B2FC23689DF80720042043EAC26323602B
S315080029B0EDE700BF80FFFF0738B5094B0D461A68DB
S315080029C0002104460EF069FB00234FF0FF322383F3
S315080029D0C4E900252361A260E382A37638BD00BF5F
S315080029E0CC3601080138C0B205289ABF014B185CDD
S315080029F001207047D13601082DE9F04107461546F2
S31508002A0000240E46596888B0490A012922464FEA29
S31508002A10510104F10104F8D8DC78997824031B885D
S31508002A20C90201F4006104F480540C43C3F30A0399
S31508002A305203234492B24FF000089C18274B6FEAC2
S31508002A400444039325F07843ED4302A90DF10700EA
S31508002A501B2202938DF8078008F055FC9DF8072085
S31508002A60029B02A943EAC2630DF107001B2225F067
S31508002A707845049302958DF8078008F044FC9DF884
S31508002A800720029B6FEA144443EAC26305934FF09A
S31508002A90FF330794069307A9BB69012206F11000C4
S31508002AA09847BB6905A90446012206F1080098471C
S31508002AB0BB69404518BF044604A90122301D984742
S31508002AC00122404518BF0446BB69304603A998470A
S31508002AD0404508BF204608B0BDE8F08101009AB21B
S31508002AE0044BD3F88420D206FBD4D3F88400C0F371
S31508002AF0811070470040005038B5174B0546D3F88B
S31508002B0028310C4603F00703013B052B20D8DFE8E4
S31508002B1003F003131B0F0B170EF0B0FB052305B1CB
S31508002B20286004B1236038BD0EF0A8FB0623F6E73B
S31508002B300EF0E4FB0723F2E70EF0DAFB0323EEE7D9
S31508002B400EF0D6FB0423EAE70EF0CEFB0223E6E7F7
S31508002B5000231846E3E700BF00800050002337B57E
S31508002B600193164B0546D3F820320C4603F00703AB
S31508002B70042B21D8DFE803F0030B11161B000123F1
S31508002B800DB1019A2A6004B1236003B030BD00215B
S31508002B9001A8FFF7B1FF1223F2E70EF0AFFB0723F8
S31508002BA00190EDE70FF051FC0A230190E8E70EF0DB
S31508002BB0EDFB09230190E3E70023E1E700800050DD
S31508002BC038B5104B0546D3F880300C4603F003039E
S31508002BD0022B0BD0032B0DD0012B0FD10EF054FB7B
S31508002BE00E2305B1286004B1236038BD0EF086FBBC
S31508002BF00723F6E70EF042FB0623F2E70023184602
S31508002C00EFE700BF0080005038B5104B0546D3F8F3
S31508002C1000310C4603F00303022B0BD0032B0DD017
S31508002C20012B0FD10EF064FB032305B1286004B114
S31508002C30236038BD0EF0AAFB0923F6E70FF003FC64
S31508002C400823F2E701230020EFE700BF00800050C9
S31508002C5038B5184B0546D3F820010C4600F0070096
S31508002C60062823D8DFE800F0040A0E16121A1E00FA
S31508002C70012305B1286004B1236038BD0EF0FEFAC1
S31508002C800523F6E70EF034FB0323F2E70EF036FBD6
S31508002C900723EEE70EF028FB0223EAE70EF0EEFA2A
S31508002CA00623E6E70EF024FB0423E2E70023184692
S31508002CB0DFE700BF0080005038B5104B0546D3F853
S31508002CC040310C4603F00303022B0BD0032B0DD027
S31508002CD0012B0FD10FF0B9FB0A2305B1286004B107
S31508002CE0236038BD0EF052FB0923F6E70FF0B0FB60
S31508002CF00C23F2E701230020EFE700BF0080005015
S31508002D00002337B50193164B0546D3F860320C46B7
S31508002D1003F00703013B032B1FD8DFE803F0020E7D
S31508002D201914002101A8FFF793FF10230DB1019A8A
S31508002D302A6004B1236003B030BD002101A8FFF763
S31508002D40BBFF1123F2E70EF0D9FA07230190EDE74E
S31508002D500EF0CAFA02230190E8E70023E6E700BF6F
S31508002D6000800050002337B50193164B0546D3F86B
S31508002D7094320C4603F00703013B032B1FD8DFE808
S31508002D8003F0020E1914002101A8FFF761FF1023B2
S31508002D900DB1019A2A6004B1236003B030BD002149
S31508002DA001A8FFF789FF1123F2E70EF0A7FA072318
S31508002DB00190EDE70EF098FA02230190E8E7002368
S31508002DC0E6E700BF0080005038B5104B0546D3F83B
S31508002DD060310C4603F00303022B0BD0032B0DD0F6
S31508002DE0012B0FD10FF031FB0A2305B1286004B17E
S31508002DF0236038BD0EF0CAFA0923F6E70FF028FB60
S31508002E000C23F2E701230020EFE700BF0080005003
S31508002E1073B50D460021114B0191D3F88041064642
S31508002E2004F00304022C13D0032C0CD0012C13D16C
S31508002E3001A8FFF70DFF10240EB1019B336005B101
S31508002E402C6002B070BD0EF059FA07240190F3E722
S31508002E500EF04AFA0190EFE70C46EDE700800050C5
S31508002E6038B5104B0546D3F840320C4603F0030339
S31508002E70022B0BD0032B0DD0012B0FD10FF0E5FA47
S31508002E800A2305B1286004B1236038BD0EF07EFA26
S31508002E900923F6E70FF0DCFA0C23F2E701230020FA
S31508002EA0EFE700BF0080005038B5144B0546D3F84D
S31508002EB000020C4600F0070004281BD8DFE800F0E3
S31508002EC003090D111500012305B1286004B123601B
S31508002ED038BD0FF0BAFA0A23F6E70EF057FA0923B7
S31508002EE0F2E70FF0B5FA0C23EEE70EF0E7F90F2339
S31508002EF0800AE9E700231846E6E700BF008000508D
S31508002F0038B5144B0546D3F808020C4600F00700FE
S31508002F1004281BD8DFE800F003090D11150001236A
S31508002F2005B1286004B1236038BD0FF08EFA0A2374
S31508002F30F6E70EF02BFA0923F2E70FF089FA0C23CD
S31508002F40EEE70EF0BBF90F23800AE9E700231846DF
S31508002F50E6E700BF00800050B0F5207F1FD009D8F3
S31508002F60B0F5007F15D003D868B1B0F5C07F0AD098
S31508002F7000200CE0B0F5607FFAD10B4BD3F8800047
S31508002F80C0F3011003E0084B186FC0F3033001309B
S31508002F907047054BD3F89000C0F30460F7E7024B7F
S31508002FA0186FC0F38020F2E70080005002464FF405
S31508002FB08030104B10B598660020FFF7CDFF5043C0
S31508002FC041F671320C4BDC69DA635A6804F48034D2
S31508002FD022F4401259B90949884294BF00200120B9
S31508002FE0000502435A600CB10022DA6310BD044999
S31508002FF0F2E700BF0090005000000350005A62023A
S31508003000002D3101430905D0012B0CD0022B084BAA
S3150800301018BF002300F01F0039B103F580530122C1
S3150800302082401A607047034BF4E703F50053F6E74E
S3150800303068800050648000501FB50021B0F5807F7D
S315080030400446CDE9001100F02B8100F294805D283A
S3150800305000F28C801F2805D8002840F089800EF0E1
S315080030602DF9F7E0A0F120043D2C00F2818001A3A0
S3150800307053F824F05F300008633200085F30000818
S31508003080633200088332000883320008833200085E
S31508003090833200088332000863320008973200083A
S315080030A0A7310008E1310008C3320008A73100083B
S315080030B06332000863320008633200087131000881
S315080030C0713100087131000871310008713100084A
S315080030D07131000871310008713100086332000847
S315080030E0633200086332000807320008D732000846
S315080030F06332000871310008713100087131000827
S315080031007131000871310008713100087131000809
S3150800311071310008713100087131000871310008F9
S315080031207131000871310008833200085F300008E9
S315080031305F3000085F300008CD320008A73100086C
S31508003140A7310008E132000825320008D13100080D
S315080031508D3200087131000871310008713100089C
S3150800316071310008713100084732000880286FD095
S31508003170009804B010BDB0F5D06F00F0A28034D826
S31508003180B0F5607F78D019D8B0F5007F64D004D840
S31508003190B0F5C07F3FF463AFEAE7B0F5207F60D0B3
S315080031A0B0F5407FE4D10EF089F802464FF420705E
S315080031B0FFF7D2FEB2FBF0F252085BE0B0F5B06F53
S315080031C069D00AD8B0F5806F5BD0B0F5A06FCFD1C3
S315080031D000216846FFF7C2FCCAE7B0F5C06FC7D141
S315080031E000216846FFF768FDC2E7B0F5106F6DD09D
S315080031F00ED8B0F5086F78D0BAD8B0F5E06F6AD0B7
S31508003200B0F5F06FB4D100216846FFF7DDFDAFE7F2
S31508003210B0F5406F3AD013D8B0F5206F60D0B0F54E
S31508003220286FA5D10021334B0391D3F8703203F0F0
S315080032300303012B02D103A8FFF73EFD039B39E0E8
S31508003240B0F5486F94D100216846FFF78BFD8FE7EC
S315080032500EF01AF800908BE70EF016F80246204694
S3150800326004E00EF02BF802464FF42070FFF774FEC8
S31508003270B2FBF0F200927BE701A8FFF7A1FC019AE6
S31508003280EDE700216846FFF7E3FC71E70021684691
S31508003290FFF732FC6CE700216846FFF7B9FD67E7E0
S315080032A04FF0E02302911B695B0705D50EF006F87F
S315080032B00290029B00935BE703A902A8FFF7FCFCB8
S315080032C0F7E700216846FFF7EFFD51E7002168465A
S315080032D0FFF716FE4CE700216846FFF7C1FD47E7F2
S315080032E000216846FFF70CFD42E76846FFF78CFCAD
S315080032F03EE700BF0080005008B58020FFF79CFE1F
S31508003300034B98429EBF4FF48032024B1A6708BDA2
S31508003310005A620200A00050B0F5207F10B50C4696
S315080033205DD008D8B0F5007F4ED003D8C0B1B0F54F
S31508003330C07F15D010BDB0F5607FFBD12C4B4C1E5D
S31508003340D3F8FC202B4912F0807F4FEA041427D1CA
S31508003350D1F8803023F030032343C1F88030E9E701
S3150800336007F0EFFF07F0FBFF4FF48031224B214AAD
S315080033701967136F013C23F4704343EA0433136758
S315080033800DF09CFF0446FFF7ABFBC0F10201204697
S3150800339007F0DFFF00F04AF8BDE81040FFF7ACBFC2
S315080033A0D3F8FC2022F08072C3F8FC20D1F88020E4
S315080033B022F030022243C1F88020D3F8FC2042F0E4
S315080033C08072C3F8FC20B5E70A4A4C1ED2F8903042
S315080033D023F0F85343EA0463C2F89030AAE7054A93
S315080033E04C1E136F23F4806343EA84231367A1E713
S315080033F000ED00E0008000500090005008B5012163
S31508003400022000F057F84FF42070FFF7A5FD054B92
S31508003410187007F096FF07F0A2FF4FF48032024BB0
S315080034201A6708BD122A00200090005008B54FF40C
S31508003430C070FFF701FEBDE808400449884294BF02
S31508003440012102214FF42070FFF766BF80F0FA02CF
S3150800345038B504460DF032FF0546FFF741FBC0F1CB
S315080034600201284607F075FF0121002000F062F8E6
S315080034702CB1FFF7DBFFBDE83840FFF73DBF034B34
S315080034804FF420701978FFF747FFF4E7122A002057
S31508003490024A536B0342FCD1704700BF00400950F3
S315080034A0034A0179D36E23F030030B43D366704782
S315080034B000400050F8B504461C4BD3F88420D106CA
S315080034C0FBD4D3F88430C3F381139C422CD00DF07F
S315080034D0DBFE012C064602D1214607F03AFF0EF024
S315080034E096FF4FF00072124B07465A66204607F0C1
S315080034F03BFF4FF480630D4D621E93402B676B6E46
S315080035009A0103D4D5F884309B060AD538460EF0BE
S3150800351079FF022C08D13046BDE8F840002107F0B3
S3150800352018BFD5F88430EAE7F8BD00BF0040005060
S315080035300060005010B50C4608B90DF0A5FE074B03
S3150800354021461B783BB1064B984204D80120BDE8BA
S315080035501040FFF7AFBF0220F9E700BF132A00208B
S31508003560005A62024FF0004238B5244B244C5A6682
S315080035704AF6CD33656C014605F00105236428BB80
S315080035800120FFF785FF6368DB0715D51D4B5860DB
S3150800359008461D4B226BD2070CD4984208D1072443
S315080035A015B1174B194A1A6407F0DFFE204638BDD5
S315080035B00130EFE79842F2D00024F1E70132236B9D
S315080035C013F0080305D08A42F8D1E8E700220E492D
S315080035D0F5E78A42E3D020210A4A91620121A2F541
S315080035E0805251600649084A886A800603D4934285
S315080035F0D5D00133F8E79342DDE700BF00900050CD
S31508003600004009500060095040420F003254FFFF45
S315080036104FF0004238B5164B01465A664AF6CD3386
S31508003620144C154A656C236443780B205B0043F001
S315080036300103D363FFF72CFF63688A7823F4F873D2
S3150800364043EA02136360CA784B7943EA0223A3600C
S315080036500A798B7943EA022323610878FFF782FF08
S31508003660EB0744BF054B236407F07FFE012038BDF6
S315080036700090005000400950004000503254FFFFAF
S315080036804FF00042124B70B55D6E03F580535A66D3
S315080036904AF6CD3304460F4980204E6C0B64FFF77B
S315080036A0F7FE0B6A23F00F030F2C94BF234343F056
S315080036B00F030B62F30744BF074B0B64002DA2BF31
S315080036C04FF00042054B5A6607F04FFE70BD00BF2B
S315080036D000800050004009503254FFFF00A00050FF
S315080036E04FF48032054B9A6641F6713203F51C3366
S315080036F0DA63012203F50053DA6070470090005040
S3150800370041F671320121064BDA6303F50052D160A6
S315080037100022DA634FF48032A3F518339A667047AD
S3150800372000000350044B1868421C02BF034AD2F833
S3150800373094001860704700BF7C2D002000400050A0
S315080037404FF48032064B5A6603F5E6239B69C3F3AA
S315080037508512827003F03F021B0B4270037070479C
S31508003760009000500120034B9B680A3303F01F03A7
S31508003770984070470080E00F274B2DE9F0411B6801
S315080037800DF086FE0128074620D90EF03FFF051EDC
S3150800379003DA01242046BDE8F081204B1B78002B74
S315080037A038D14FF050081E4C04EB0800A465C4F845
S315080037B05C800EF065FF206680B90124012FE9D9E7
S315080037C028460EF039FF0028E4DAE2E7134B1B78A7
S315080037D003F0FF05002BE4D00024DBE70024114E9C
S315080037E0214606F110033246012034607460B36046
S315080037F0C6F80C800EF0F4FF30660028DDD00321F1
S31508003800412008F0DCFB412001F0CEF90122034BF0
S315080038101A70D3E70024D3E7802D0020142A00204D
S315080038200C120020A811002008B54FF098435B6CD5
S31508003830D90208D50DF02CFE0238012803D8094B09
S31508003840186E0FF04CF84FF098435A6CD202FCD51C
S315080038505B6D054A03F4702313604120BDE80840F8
S3150800386001F0B0B9A8110020802D00202DE9FF47EE
S315080038704FF000080E4617460446CDF8008000288B
S3150800388059D022B90025284604B0BDE8F08700299A
S3150800389051D032F0030902F0030A1FD04FF0E0635B
S315080038A0C0E9003801230191C0F808800293C0F8E6
S315080038B0208049F0005301A903930EF02AFE4946D9
S315080038C020460EF000FE20460DF084FD054628B180
S315080038D04A46414630460DF0E0FBD4E7BAF1000F00
S315080038E0D0D04FF000084FF0E063C4E90038012358
S315080038F0CDF804D00293114B204601A9C4F80880DC
S31508003900C4F8208003930EF004FE042120460EF02E
S31508003910DAFD20460DF05EFD054608B13A46D8E7C1
S31508003920009A4E44EB00013522FA03F3AA4506F83D
S31508003930013BF7D1A6E72125A5E700BF0400002033
S315080039402DE9F041904602780C46022A8AB032D018
S31508003950032A35D0012A38D114271D4A00F10C054F
S31508003960226000229E01C4E90122226231462046D5
S315080039700EF0A9FD0123204647F0005704A946F09A
S315080039800056CDF80480029303960495059306978E
S3150800399007950893099707F0FEFE204601A907F048
S315080039A0FAFE204607A90EF0B4FD20460DF012FDDA
S315080039B00AB0BDE8F0812027064A00F10C05CFE7DA
S315080039C02027054A00F10C05CAE72120F0E700BFC9
S315080039D000020103000301030004010310B591B1BD
S315080039E088B10023C0E90133084B00F10C0203F14A
S315080039F0200153F8044B8B4242F8044BF9D10123BA
S31508003A000370002010BD2120FCE700BF1C37010809
S31508003A1010B591B188B10023C0E90133084B00F114
S31508003A200C0203F1200153F8044B8B4242F8044B75
S31508003A30F9D102230370002010BD2120FCE700BF46
S31508003A40D736010810B591B188B10023C0E9013312
S31508003A50084B00F10C0203F1200153F8044B8B428A
S31508003A6042F8044BF9D103230370002010BD21202E
S31508003A70FCE700BFF83601082DE9F04F0D469146E0
S31508003A8004468BB000285ED000295CD0002A5AD0A4
S31508003A900278022A0CD0032A4DD0012A53D11426C3
S31508003AA02B4900F10C0B00F104082C34374607E0CB
S31508003AB020261C27274900F10C0B00F104082C349A
S31508003AC09F4240D8D8F80420002A3ED1D8F80030C2
S31508003AD0284603F03F0AC5E90012AA602A62514641
S31508003AE00EF0F1FC2846D8F800100EF0ECFC012286
S31508003AF04AF00053284601A946F0005647F00057F9
S31508003B00CDF804B002920396049405920693CDF874
S31508003B101C900892099707F03EFE284604A907F06C
S31508003B203AFE284607A90EF0F4FC28460DF052FC8A
S31508003B300BB0BDE8F08F2026074900F10C0B00F109
S31508003B4004082C34B2E72120F2E70F20F0E700BF83
S31508003B500002030300030303000403032DE9F043F3
S31508003B6087B00D4691461E460446DDF83880002883
S31508003B7036D0B8F1000F33D002B98BBB6B1EDBB25F
S31508003B80022B2DD8174AD75C0F9B9F4228D80023B3
S31508003B90280200F1407000F580703146C4E901330F
S31508003BA02060236220460EF08EFC012369462046DB
S31508003BB046F0005647F00057CDF80090019302965C
S31508003BC0CDF80C800493059707F0E5FD204603A978
S31508003BD00EF09FFC20460DF0FDFB07B0BDE8F08314
S31508003BE02120FAE719370108F0B50F4616461D4693
S31508003BF0044693B010B9212013B0F0BD0029FAD0BD
S31508003C00002AF8D0002BF6D0002331461A4638464B
S31508003C1007F060FC0028EFD1304602A907F007FC40
S31508003C200028E9D138683449029A88426B695ED11E
S31508003C309342E0D32B68002BDDD14FF06062384603
S31508003C40C4E90023A360236201A907F09EFC0028AB
S31508003C50D2D10199204621F4F06101910EF033FC8E
S31508003C606946284607F091FC0028C5D120460099E8
S31508003C700EF029FC384609A907F02EFD0028BBD10D
S31508003C80204609A907F087FD38460CA907F02FFD3D
S31508003C900028B1D120460CA907F07DFDEB684BB191
S31508003CA0284606A907F018FD0028A5D1204606A92A
S31508003CB007F071FD304603A907F019FD00289BD1CE
S31508003CC0204603A907F067FD28460FA907F00FFD50
S31508003CD0002891D120460FA90EF01BFC032520468B
S31508003CE00DF078FB012887D1013DF8D184E7B3EBC5
S31508003CF0420F9FD27FE700BF200000B070B50E4686
S31508003D00154604468AB000285CD000295AD0002AF5
S31508003D1058D0012329461A46304607F0DBFB00280F
S31508003D204ED1B36813F4C04F4CD0AB6803F4C0430C
S31508003D30B3F5005F46D1254BA060C4E90030206288
S31508003D4007A9304607F021FC002839D120460799F3
S31508003D500EF0B9FB012302934FF00053204601A948
S31508003D60039307F018FD304604A907F0C0FC38BBDA
S31508003D70204604A907F00FFDEB681BBBAB6803F4EC
S31508003D80C043B3F5005F1DD16946284607F072FBAC
S31508003D90B0B9009B6A699A4216D32A6943F0005360
S31508003DA007920122204607A90892032509930EF0D7
S31508003DB0B0FB20460DF00EFB012801D1013DF8D1DC
S31508003DC00AB070BD2120FBE71D20F9E700000102BB
S31508003DD02DE9F04391B00D46DDE918760446DDF885
S31508003DE0688000286ED000296CD0B8F1000F69D021
S31508003DF00FB9002E66D1296801F07041B1F1404F24
S31508003E005BD0002B5BD1531E022B5BD8120202F14A
S31508003E10C06202F5807200232846C4E90133226095
S31508003E2023620DA907F0B1FB002843D120460D995E
S31508003E300EF049FB314620460EF045FB284601A9FF
S31508003E4007F04AFC002835D1204601A907F0A3FC53
S31508003E50284604A907F04BFC60BB4FF00109204631
S31508003E6004A907F098FC46F00056204607A90797CC
S31508003E70CDF82090099607F08EFC2B680A9703F078
S31508003E807043B3F1404FCDF82C900C9603D12046E1
S31508003E900AA907F080FC0123CDF834800E931B9BFA
S31508003EA0204643F000530DA90F930EF032FB20462F
S31508003EB00DF090FA11B0BDE8F083034AABE74FF076
S31508003EC0C062A8E72120F5E7000002062DE9F041C7
S31508003ED08CB00D46DDE912860446149F002869D089
S31508003EE0002967D0B8F1000F01D1002E62D1002F4A
S31508003EF060D0A96889045DD5296801F07041B1F1DF
S31508003F00404F4DD0002B4DD1531E022B52D82A4B71
S31508003F1003EB022200232846C4E901332260236208
S31508003F2009A907F032FB002837D1204609990EF077
S31508003F30CAFA314620460EF0C6FA6946284607F000
S31508003F40CBFB50BB6946204607F025FC284603A94B
S31508003F5007F0CDFB08BB204603A907F01CFC01238C
S31508003F6046F00056CDF818800793089609970A93E5
S31508003F70159B43F000530B932B6803F07043B3F182
S31508003F80404F11D109A9204607F005FC06A920468D
S31508003F9007F001FC20460DF01DFA0CB0BDE8F081D3
S31508003FA0064AB7E7064AB5E706A9204607F0F3FB2F
S31508003FB009A9ECE72120F0E7000101060000030645
S31508003FC00000010610F1860F1BD010F1850F08DAE4
S31508003FD010F1930F18D010F1870F07D04FF0FF306C
S31508003FE07047003818BF012040427047094B994274
S31508003FF00DD0043399420CBF6FF073006FF06D005B
S3150800400070476FF0710070476FF06F0070476FF080
S315080040107200704705000002012910B50CDC084C37
S31508004020084B00290CBF2146194600F031FD2146F0
S31508004030BDE81040FFF7C6BF6FF0730010BD00BFA4
S31508004040090000020800000208B507F055FFBDE8A0
S3150800405008400149FFF7B6BF09000002002307B56B
S315080040602022019301AB07F063FF034903B05DF813
S3150800407004EBFFF7A7BF00BF0900000210B5044C08
S31508004080214600F005FD2146BDE81040FFF79ABF1E
S315080040900500000208B507F02FFFBDE808400149F2
S315080040A0FFF790BF05000002002307B5142201930D
S315080040B001AB07F03DFF034903B05DF804EBFFF7DA
S315080040C081BF00BF0500000238B5134DFFF754FB4A
S315080040D0124B134A1349144803F0BAFD2B7803F020
S315080040E0FF04BBB90DF0D4F9012802D90EF08EFAF7
S315080040F004462B782BB90D4B0D481B6898470123AE
S315080041002B700DF0C5F9012804D92046BDE83840C2
S315080041100EF092BA38BD00BF152A0020D9B700089C
S31508004120BBB70008F3B70008FDB70008C02D00208C
S315080041309C200020012300F01F02A0F50620094953
S31508004140A0F550604009934051F820201A4341F8E1
S315080041502020054951F8202022EA030241F82020B0
S31508004160704700BF84120020701200200121A0F5BC
S3150800417006230E4AA3F550635B0900F01F00814031
S3150800418052F82300014342F823100949D1E90030C7
S31508004190034488680344C868096903445B1802BF76
S315080041A0C2E90033C2E90233136170477012002076
S315080041B0841200202DE9F04FA9B003921F46044649
S315080041C00822DDF8CC80CDE90401414021FA02F34A
S315080041D04B40980702F1080218BF9B00202A1C448E
S315080041E0F4D18123B4FBF3F303EBC313E41A7A4B3C
S315080041F004F506241B7804F55064002B39D105F024
S315080042006BF90546002840F0DB800146402208A8E5
S315080042100CF043FF4022294618A80CF03EFF6F4ECB
S31508004220DFF8D091B3460BF10F0ACDF800A01022A3
S3150800423008A95B46D9F8000006F08FFE0022014661
S31508004240103608AD914242D1CDF800A05B46102247
S31508004250D9F8000018A906F089FE4FF0000A83462F
S3150800426018ADD3453DD15E4B9E42DBD101225A4B58
S315080042701A704FF0810A0026DFF87CB1A4F50625EE
S31508004280A5F550635B095BF8232004F01F01CA40BB
S31508004290D2073BD4534A52F82330CB40DB0727D505
S315080042A08123002E08BF2646A5F6FF44B4FBF3F388
S315080042B003EBC313E41A04F50624BAF1010A04F55C
S315080042C05064DBD1039BABB1A6B134461AE055F86E
S315080042D0040BCDE90612FFF72DFF079A069901325E
S315080042E0B0E755F8040BFFF741FF0AF1010AB8E7F2
S315080042F0039B23B96FF08B0029B0BDE8F08F002E21
S3150800430018BF3446349B00201C60F5E7329B13B176
S315080043100023329A1360B8F1000F02D00023C8F8C0
S3150800432000301023DFF8CC9000933A46002321464C
S31508004330D9F80000FEF7FAF8002839D132993A6818
S31508004340294BD9B99A4206D02146D9F80000FEF77A
S3150800435045FA0028CED1D7E90223DDE904108342C5
S3150800436008BF8A422FD08123A5F6FF45B5FBF3F394
S3150800437003EBC313ED1A05F506249EE710203299C0
S315080043809A420860E0D1B8F1000FE4D043462146CE
S31508004390D9F8000018AAFEF70FF948B9329AD8F8E2
S315080043A00030126893420BD39B1AC8F80030D2E744
S315080043B00E4B9842C8D06328C6D00D4B9842CAD037
S315080043C06FF0910098E7039B002B9BD07B68012B2D
S315080043D098D16FF084008FE7162A0020006D080038
S315080043E00071080070120020105D175EFFDF00F0F4
S315080043F0FEDF00F0882E00208412002070B5124DD2
S315080044002B7803F0FF04CBB90DF042F8012802D946
S315080044100EF0FCF804462B784BB90C48436D43F074
S31508004420010343650A4B1B68984701232B700DF05F
S315080044302FF8012802D920460EF0FEF8BDE8704094
S31508004440044B02481B681847172A002098120020B8
S31508004450C02D0020B82D0020034B1B781BB1034B41
S3150800446003481B6818477047172A0020B42D0020F8
S31508004470981200202DE9F04F87B082468946984663
S315080044801646DDF840B02AB1002B53D040F26C73C3
S315080044909A4252D8BBF1010F52D8002406F11007F0
S315080044A039460120059408F003F8054600284AD045
S315080044B021463A460CF0F1FDFFF7A0FF05ABCDE922
S315080044C0014300942B46012250464946FFF772FEE7
S315080044D0044690B110F18C0F08BF6FF08D043A4670
S315080044E0002128460CF0D9FD284607F0C3FFFFF740
S315080044F0B3FF204607B0BDE8F08F144BC5E902A903
S315080045002B60C5F804B02EB13246414605F11000BD
S315080045100CF0A7FC059E0E483B462A463146006825
S31508004520FEF718F918B93046FFF704FED7E76FF01B
S315080045309104D4E76FF08604DBE76FF09104D8E7BF
S315080045406FF08504D5E76FF08C04D2E7105D175E2F
S31508004550882E00202DE9F0478CB08146DDE91478D5
S315080045600C4616461D466BB1B8F1000F49D0002F10
S3150800457047D0B7F1005F44D3C3F1005303F50033C6
S315080045809F423ED84FF0000A1022002108A80CF0DE
S3150800459084FDCDE905AAFFF731FF07AB029305AB0A
S315080045A0019306AB214600935246484608ABFFF7EF
S315080045B001FE0446D0B9059B3DB1B3421CD853EA67
S315080045C0060504D06FF0860410E0B342FAD3069BC2
S315080045D00D48C8F8005000953A46079900683344D4
S315080045E0FDF7A4FF002818BF6FF09104FFF734FF0A
S315080045F020460CB0BDE8F0879B1B9D4228BF1D4690
S31508004600E5E76FF08604F3E7882E002070B50026EC
S315080046100C4605468CB01022002108A80CF03DFD7A
S31508004620CDE90566FFF7EAFE07AB029305AB0193F2
S3150800463006AB214600933246284608ABFFF7BAFD7B
S315080046400446D8B9099B012B1DD0079D114B294655
S315080046501868FEF7C3F8C8B90122A5F506230E495E
S31508004660A3F550635B0905F01F00824051F823004B
S315080046704240284641F82320FFF778FDFFF7ECFE75
S3150800468020460CB070BD6FF08404F7E76FF0910414
S31508004690F4E700BF882E002084120020F8B51346E0
S315080046A042880C460732072A4FEAD20101D0A142B6
S315080046B04DD1D0E9016705882022184600210CF063
S315080046C0ECFC360A0346002E44D1002C3FD041F2BA
S315080046D00102954205D0B5F5885F02D0B5F5905F21
S315080046E002D15C60002011E0B5F5105F07D1182CE7
S315080046F003D0202C01D0102C29D11C60F1E705F439
S315080047004F42B2F5824F02D06FF08500F8BDEAB28B
S31508004710122AF9D1202CF7D1104A25F0FF05B5F554
S31508004720E24F02600CD0B5F5824F10D14FF400521B
S3150800473017F4705F09D017F4864F04D09A60E3E740
S315080047404FF48042F4E742F480629A60CAE76FF059
S315080047508600DBE76FF08B00D8E700BF20000080FB
S315080047602DE9F04F99460388164603F44F42B3B035
S31508004770B2F5824F0F46DDF8F88002D06FF085005B
S3150800478002E021B96FF0860033B0BDE8F08F002E45
S31508004790F8D0B8F1000FF5D0DAB2122AEED123F02C
S315080047A0FF03B3F5E24F34D14388C8F800305BBB4A
S315080047B0F300C8F80030B3F5807FDFD10023184630
S315080047C04F49BC19314411F8015D14F8012D104305
S315080047D0521B0CBF4FF0FF350025A74203EA05031D
S315080047E043EA0203EFD10028CCD0002BCADA3C9B5F
S315080047F09E4200F282803246394648460CF031FB2A
S315080048003D9B00201E60BFE7DA1DB6EBD20FD2D063
S31508004810B8E7B3F5824F6DD10B78042BB2D12822B5
S31508004820002118A80CF039FC18A80DF042FE8246A3
S3150800483000285CD101463C22229023A80CF02DFCCE
S3150800484001232022514668468DF888300CF025FC55
S3150800485020224FF0400B741E7B1C514605940DEB2D
S315080048600200E400049322AD0CF017FC6408202231
S3150800487051460DEB0B000C95CDF834B00CF00DFC41
S31508004880B4F5C07FCDE9145BC8F800403FF476AFB5
S3150800489028D8E02C03D0B4F5807F7FF473AF194B8A
S315080048A00734009308934FF4005302934FF4804360
S315080048B0E4086A460A93640010AB08A918A811947C
S315080048C0FFF792F9D8F800300733DB085A0033B1FE
S315080048D00021531E013B297005F10105FAD2002873
S315080048E085D04FE7B4F5047F3FF448AF4AE76FF049
S315080048F0920049E76FF0960046E76FF0890043E7B4
S315080049003C37010820000080038810B503F44F42A5
S31508004910B2F5824F21F0FF0221F4FF71134C21F00A
S31508004920010109D0A1421AD0114B9A4214BF6FF067
S3150800493085006FF0860010BDA142DBB20FD00C498E
S315080049408A420CD0122B0DD14388B3F5807F09D14A
S31508004950B2F1062F0CBF00206FF08500EBE76FF071
S315080049608600E8E76FF08500E5E700BF000200066D
S3150800497000130006154A20F4FF7323F0010393423F
S315080049800ED0134B20F0FF029A4209D0114920F4A9
S315080049907F7323F003038B4202D00F4B9A420FD149
S315080049A010F0FF0011D00D4B40F00070984209D06E
S315080049B00133984208D0043BC31A584258417047FD
S315080049C00020704702207047032070470002000647
S315080049D0001300060004000600090006080000028D
S315080049E02DE9F0478CB01746DDE914A498460E4623
S315080049F009B9002A46D1B8F1000F10D1BAF1000F53
S31508004A0040D1002C3ED0214B984218D00133984211
S31508004A1015D0043B984212D06FF0850013E08CB392
S31508004A201A4B984212D00133984213D0043B98424D
S31508004A30F2D114234FF001099A4523600ED20023C0
S31508004A406FF0890023600CB0BDE8F0871C234FF097
S31508004A500209F1E720234FF00309EDE702A80DF05C
S31508004A6028FD054610B16FF09200ECE73B4632464A
S31508004A704946CDE9008A02A8FFF770F80028E2D077
S31508004A802560F0E76FF08600DDE700BF080000024A
S31508004A9030B50D4604468BB030B3031D6C22002199
S31508004AA018460CF0FAFA134A954211D0013295428B
S31508004AB014D0043A95421AD1012269462270FEF7AB
S31508004AC08DFF002814BF6FF0920000200BB030BD98
S31508004AD0022269462270FEF79BFFF2E70322694627
S31508004AE02270FEF7AFFFECE76FF08600EEE76FF097
S31508004AF08500EBE70800000207B5094B18689A8895
S31508004B009B7900906846ADF804208DF80630FEF7CC
S31508004B107FFD0C20FEF7B4FD002003B05DF804FB12
S31508004B205C37010813B50024064A6846536F43F0FC
S31508004B300103536700948DF80440FEF7B1FC204644
S31508004B4002B010BD004000500028ACBF00F1604024
S31508004B50064B4FEA0111C9B2ABBF00F5614000F040
S31508004B600F0080F800131954704700BF14ED00E0D9
S31508004B7008B50DF055FC0B4B1A7872B901221A705C
S31508004B800DF049FC6FF0040210460132052152B2BD
S31508004B90FFF7DAFF4C2AF7D108BDBDE808400DF04B
S31508004BA03ABC00BF182A0020002807DB0123410968
S31508004BB0034A00F01F00834042F82130704700BFC7
S31508004BC000E100E0002808DB01224309034900F060
S31508004BD01F008240603341F82320704700E100E05F
S31508004BE073B50DF014FC0D4D0D4B2E781C680DF0A9
S31508004BF009FC0DF043FD38B1FF2E05D000202978B9
S31508004C0001AA05F093FE019C2CB90DF000FC054B9A
S31508004C101C680DF0F7FB204602B070BD092F002076
S31508004C20FC1200200013002010B504460DF0EFFB1F
S31508004C30024B1C600DF0E6FB002010BD001300209F
S31508004C4013B5002301241A4619461846009403F0A2
S31508004C5071FB002300941A461946184603F09CFB7C
S31508004C600248FFF7E1FF002002B010BD982D002092
S31508004C7007B5684600F030F8DDE900010022034B6D
S31508004C8003B05DF804EB07F029BE00BF041300204B
S31508004C9007B5009313460A460146034807F007FA84
S31508004CA003B05DF804FB00BF0413002013460A4650
S31508004CB00146014807F0E6BA0413002007B5009339
S31508004CC013460A460146034807F0D6FB03B05DF8CB
S31508004CD004FB00BF041300200249034A0160521A6C
S31508004CE042607047F03800200000022000487047F4
S31508004CF004130020002307B50193054B1B680DF02C
S31508004D007DFE019B002BFCD003B05DF804FB00BFC1
S31508004D10A82D0020EFF305830F2B84BF034A9B5C65
S31508004D204FF0E023D3F80C3D704700BFF0E300E0F6
S31508004D3030B5074C256824686A40D2B2891A101A19
S31508004D40090A41EA1021634023EA0100C0B230BDD6
S31508004D50D01E0020044B1B68584043085B42404263
S31508004D601843C017704700BFD01E0020054B0131FD
S31508004D701B680132434022EA030208400243501EE0
S31508004D8000B27047D01E00202DE9F04F834699B037
S31508004D900F46184600211646049308F022FA002802
S31508004DA000F0878100240125774B30461493049937
S31508004DB015ABCDE90B45CDE90D45CDE90F45CDE957
S31508004DC01145139308F096F9A04228DABBF1000FB3
S31508004DD005D1E7B90024204619B0BDE8F08F214671
S31508004DE0584608F0FCF804460028F2D00BA808F04C
S31508004DF04BF80DA808F048F80FA808F045F811A8D0
S31508004E0008F042F80C2115A801F0B0FAE3E731469C
S31508004E10384608F0AFF804460028E7D1DAE7314605
S31508004E200BA808F0A7F804460028DFD104990DA8B6
S31508004E3008F0A0F804460028D8D1F1880FA8023156
S31508004E40ADF83850ADF8305008F02CF80446002874
S31508004E50CCD101460FA808F0C2F804460028C5D1EF
S31508004E60F18811A8023108F01DF804460028BDD1C2
S31508004E700DA808F0F3F800F01F001F2873D0C0F142
S31508004E801F0319460BA8019308F00EF904460028DB
S31508004E90ACD101990DA808F007F904460028A5D158
S31508004EA0BDF83250BDF83A800DA8A5EB080A4FEABE
S31508004EB04A19494608F0F8F80446002896D14FEAF8
S31508004EC08A0A0DA90BA808F044F900284DDA4946C4
S31508004ED00DA808F006F90446002887D108F1FF3323
S31508004EE002939B0005F1FF3A069305F1804508F108
S31508004EF08043023B013D9B00A5EB08050993AB00E7
S31508004F000393029B9A4541D8BBF1000F0DD0584632
S31508004F100FA908F02FF8002840F0C780049AB38834
S31508004F20928813FB02F3ABF80430002F3FF45EAF10
S31508004F3001990BA808F0D5F8002840F0B680B38888
S31508004F400BA93846ADF8303008F014F801460028A9
S31508004F5040F0AD80384608F044F900287FF446AFA3
S31508004F600123BB8042E701949AE70F9A0BA952F8EE
S31508004F700A300846013342F80A300DAA08F016FA34
S31508004F80044600289DD031E7010003000D9B069AD0
S31508004F9005931344DDF82C900893059B4FEA8A087D
S31508004FA09A5859F82A10A8F104030F9D0793039BF2
S31508004FB091421D4474D20798002359F8000004F062
S31508004FC001FB002914BF4FF0FF330346BAF1010F66
S31508004FD02B600EBF002309EB080353F8083C099A17
S31508004FE01593079B59F80330169359F80830179309
S31508004FF02B6801332B60059B134498462B680021C8
S31508005000013B2B6011A807F0EAFF00284DD1029B4F
S31508005010002B48D0D8F80020119B11A91A60089ACD
S31508005020084612685A602A6808F048FA00283CD1EF
S3150800503013A911A808F08DF80028DFDC2A680DA945
S3150800504011A808F03BFA80BB039B11A84FEAC308D6
S31508005050414608F029F840BB0BA9084611AA08F0F2
S31508005060A5F9014618BB0BA808F0BBF8002812DA08
S315080050700DA911A807F07EFFB8B9414611A808F096
S3150800508013F890B90BA9084611AA08F08CF960B96B
S315080050902B68013B2B60039B0AF1FF3A043B2FE781
S315080050A04FF0FF3392E7029AB6E704469EE60C46AF
S315080050B09CE66FF00B048EE6044B1B6858404308C9
S315080050C05B4240421843C017704700BFD01E0020FD
S315080050D010B50B4C226823684240594081EA020009
S315080050E0C00FFFF7E9FF2368521A434022EA03027A
S315080050F008401043C00FBDE81040FFF7DDBF00BFF2
S31508005100D01E0020F8B50D46014628681746FFF759
S31508005110DFFF0124C143074B1E68BC4202D346EA9F
S315080051200100F8BD55F82400FFF7C6FF0134064311
S31508005130F3E700BFD01E00202DE9F04707460F4BC6
S3150800514088461E6819681D68541E631C02D13046BD
S31508005150BDE8F08758F824A057F8249050464946E9
S31508005160FFF7B6FF514605434846FFF7B1FF20EA69
S3150800517005031E430543013CE7E700BFD01E002098
S315080051808842F0B504D00025084F0438AA4200D159
S31508005190F0BD3E6850F8044F5E4024EA060451F814
S315080051A0256001351E4034430460EFE7D01E002019
S315080051B02DE9F04F1C4685B0DFF88490039106462A
S315080051C021461046D9F80030D9F8003008F0C6FB59
S315080051D0C51D272D90468CBF4FF01E0A4FF0FA0AC0
S315080051E0EB0825F0070502932D1A0F9B214600931D
S315080051F030460E9B029A08F0AEFD0746C0B92A460D
S315080052002146304608F023FCBAF1010A14D022469A
S3150800521031460398FFF776FF2246834641463046D5
S31508005220FFF78AFFD9F800200BEA00039A42DCD080
S31508005230384605B0BDE8F08F6FF00D07F8E700BFF8
S31508005240D01E002070B50C460646114620461A4662
S3150800525008F0C8F80546A0B9B36C33B9214620460C
S31508005260321DBDE8704008F05AB9B4F90430002B75
S3150800527009DB204607F0F2FEF36BB0EB430F09D9C2
S31508005280184D284670BD0146204607F0AAFF00289B
S31508005290EFD0F5E72046B36C984705460028F0D1CD
S315080052A00436B4F90430002B04DA0021204607F04E
S315080052B098FF68B93146204607F04BFF0028E0DB27
S315080052C032462146204607F0ECFF0028F2D006E0D9
S315080052D032462146204608F066F80028E1D0054601
S315080052E0CFE700BF80B0FFFFF0B514461F4605465E
S315080052F085B002A80E4607F0C2FD23460221009794
S315080053002A1D02A808F0B9F9044648BB06F110029E
S315080053101146284602ABFFF795FF044600BB06F187
S3150800532008073A463946284602ABFFF78BFF04467C
S31508005330B0B902AB1A4619462846FFF783FF04465A
S3150800534070B932463146284602ABFFF77BFF044662
S3150800535030B93A463946284602ABFFF773FF04468A
S3150800536002A807F091FD034814F10E0F18BF204656
S3150800537005B0F0BD00B3FFFF0246044803780BB939
S31508005380184670479342FCD00C30F7E7843701087B
S315080053902DE9F14F9A461B6904460E4691460A9D29
S315080053A01BB9724801B0BDE8F08F02F11007002161
S315080053B0384607F016FF30B95146304601B0BDE809
S315080053C0F04F08F0ACBF0AF110080021404607F07C
S315080053D008FF08B94946F0E70121404607F001FFF2
S315080053E00028DED13B463A4629462046FFF72AFFE3
S315080053F00028D7D105F108083B462A4641462046EB
S31508005400FFF720FF0028CDD153462A4629462046D5
S31508005410FFF718FF0028C5D14246414620460AF143
S315080054200803FFF70FFF0028BCD14B462A4629463A
S31508005430204608F067FD0028B4D109F1080B5B4641
S3150800544042464146204608F05DFD0028AAD10021C3
S31508005450284607F0C6FE014690B9404607F0C1FE49
S3150800546040B92B464A463146204601B0BDE8F04FC2
S3150800547008F0C5BD304601B0BDE8F04F08F065BF7D
S315080054802B463A46204606F11001FFF7DBFE0028B8
S3150800549088D105F110072B462A4639462046FFF7DC
S315080054A0D1FE00287FF47EAF05F1180A2B463A464E
S315080054B051462046FFF7C6FE00287FF473AF4B46D9
S315080054C03A4639462046FFF7BDFE00287FF46AAF04
S315080054D03946284607F04EFD00287FF463AF294673
S315080054E0204608F07DFD00287FF45CAF434642461F
S315080054F031462046FFF7A6FE00287FF453AF2B4619
