S01C00006275696C642F64656275672F67656E657261746F722E7333379C
S31508000000000400206923000865B7000865B70008E2
S3150800001065B7000865B7000865B7000865B7000842
S3150800002065B7000865B7000865B70008091B010829
S3150800003065B7000888400108AD1A0108232A010897
S3150800004065B7000865B7000865B7000865B7000812
S3150800005065B7000865B7000865B7000865B7000802
S3150800006065B7000865B7000865B7000865B70008F2
S3150800007065B7000865B7000865B7000865B70008E2
S3150800008065B7000865B7000865B7000865B70008D2
S3150800009065B7000865B7000865B7000865B70008C2
S315080000A065B7000865B7000865B7000865B70008B2
S315080000B065B7000865B7000865B7000865B70008A2
S315080000C065B7000865B7000865B7000865B7000892
S315080000D065B7000865B7000865B7000865B7000882
S315080000E065B7000865B7000865B7000865B7000872
S315080000F065B7000865B7000865B7000865B7000862
S3150800010065B7000865B7000865B7000865B7000851
S3150800011065B7000865B7000865B7000865B7000841
S3150800012065B7000865B7000865B7000865B7000831
S3150800013065B7000865B7000865B7000865B7000821
S3150800014065B70008D18D000865B7000865B70008CF
S3150800015065B7000865B7000865B7000865B7000801
S3150800016065B7000865B7000865B7000865B70008F1
S31508000170F0B5114A114C124E00F00105E3695F070C
S3150800018013D40DB9334213D103EA00078F4207D1BE
S315080001900B4A1A40002A0CBF00206FF00100F0BD80
S315080001A0013AEBD16FF00200F9E74FF0FF30F6E7BE
S315080001B06FF00100F3E700BF809698000000035037
S315080001C0020001000B4B70B5D96911F480310DD1CD
S315080001D001244FF48072084E084DF46020462C64C2
S315080001E01A61FFF7C5FF3464EC6070BD6FF001005B
S315080001F0FBE700BF00000350001003500020035027
S315080002004FF4803238B50E4B0E4C9A66E56941F6C6
S31508000210713315400122E3630B4B0021DA60022398
S31508000220606121202361FFF7A3FF10B92120FFF7A2
S315080002309FFF0122054BDA600DB10023E36338BD49
S315080002400090005000000350001003500020035097
S3150800025070B5134C6061E3695B071ED40E4656F809
S31508000260043B8D18A361AE420BD104230021212043
S315080002702361FFF77DFF58B9BDE870402120FFF7DD
S3150800028077BF08210846FFF773FF10B104232361DF
S3150800029070BD56F8043BA361E5E74FF0FF30F7E77A
S315080002A0000003502DE9F84315464FF48032184BE9
S315080002B089469A6603F51C33DF690646174041F6F8
S315080002C07132DA63012203F58053DFF84C80DA6075
S315080002D055B9284601220F4BDA601FB10022A3F553
S315080002E00053DA63BDE8F88306F5005404EA080407
S315080002F0A41BAC4228BF2C46494622463046FFF787
S31508000300A7FF0028E6D12644A1442D1BE0E700BF3D
S31108000310009000500020035000E0FFFFA2
S3150800032001292DE9F04F4AD889B30FF2D40BDBE93E
S3150800033000AB0FF2D409D9E9008935A7D7E90067D8
S3150800034035A5D5E9004536A3D3E900239FED1E5B05
S315080003509FED1F6B9FED207B9FED214B80ED045B8E
S3150800036080ED004B80ED024B80ED066B80ED087B3F
S31508000370C0E90AABC0E90C89C0E90E67C0E91045B7
S31508000380C0E91223C0F8D0100020BDE8F08F9FED19
S31508000390165B0FF2940BDBE900AB0FF29409D9E96F
S315080003A0008925A7D7E9006725A5D5E9004526A32D
S315080003B0D3E900239FED0E6B9FED0F7BCCE76FF023
S315080003C07400E2E7AFF30080D89E05C15D9DBBCB04
S315080003D007D57C362A299A6217DD70305A01599159
S315080003E0000000000000000008C9BCF367E6096ABF
S315080003F03BA7CA8485AE67BB2BF894FE72F36E3CA6
S3150800040039590EF7D8EC2F15310BC0FF672633671D
S3150800041011155868874AB48EA78FF9640D2E0CDB20
S31508000420A44FFABE1D48B547F1361D5F3AF54FA5EC
S31508000430D182E6AD7F520E511F6C3E2B8C68059B10
S315080004406BBD41FBABD9831F79217E1319CDE05BC8
S315080004500348044B834202D0034B03B11847704745
S31508000460202D0020202D002000000000064B074903
S31508000470C91A891048BF0131491003D0044B0BB182
S3150800048001481847704700BF202D0020202D002066
S315080004900000000010B5064C237843B9FFF7D8FFD3
S315080004A0044B13B10448AFF300800123237010BD39
S315080004B0F01D002000000000F052010808B5054BA9
S315080004C01BB105490548AFF30080BDE80840FFF7B2
S315080004D0CDBF00BF0000000068040020F0520108EC
S315080004E0A3F5803A704700BF174B002B08BF134B84
S315080004F09D46FFF7F5FF00218B460F461348144A21
S31508000500121A11F011F80E4B002B00D098470D4B1C
S31508000510002B00D098470020002104000D000D484C
S31508000520002802D00C48AFF3008009F075FC2000C3
S3150800053029000CF08FFB09F0D9FB00BF000008006A
S315080005400000000000000000000400200004002055
S31508000550BC1F0020000000000000000030B589B074
S3150800056004460AF0C4F901230E4A0025CDE9022300
S315080005700D4B01A805934FF47053CDE9065401932A
S315080005800AF0A8F9019B04930CF0DBFB000240F08B
S3150800059001000390694602A8009507F035F809B0EE
S315080005A030BD00BF1271000109060006F0B589B01A
S315080005B00C46154606460AF09AF90123114A002701
S315080005C0CDE90223104B01A805934FF47053CDE9EA
S315080005D0067601930AF07EF9019B04930CF0B1FBB1
S315080005E0000240F0010021466B462A46039002A805
S315080005F0009706F0FDFE044602A80FF061FB2046B0
S3150800060009B0F0BD127100010906000610B50A4BC3
S3150800061086B0144602930023059103901A46CDE945
S315080006200033214405A80CF09BFF002814BFAC201A
S31508000630002006B010BD00BF11A900082DE9F04141
S31508000640CEB0549D1C462B6806460F469046002B96
S3150800065055D06B68B3F5007F51D302A810F0D7F9CF
S315080006606368E3B12468274B2278002A08BF1C4632
S3150800067000217C2207A8069110F056FF8021234608
S31508000680CDE90078204A06A809F072FF06A902A853
S3150800069010F0D6F928B1AC204EB0BDE8F081194C5F
S315080006A0E6E7092102A810F0C7F93068FFF756FFF8
S315080006B026A80EF00DFD316826A806F0A5F8044612
S315080006C00028E8D126A902A810F0B8F90094234614
S315080006D0D5E9001202A808F005FB04460028DAD17D
S315080006E0286810F08EFE6B680130984201D910F028
S315080006F00CFE686002A810F08EF92046CCE72F2081
S31508000700CAE700BF083A0108163A0108F0B50C46D0
S31508000710002197B00646154607A83C22069110F018
S3150800072003FF402305AACDE9013206AF00970593DA
S315080007300E49D4E9002330680FF054F9044698B9F5
S31508000740059E6B689E420DD832463946286810F0D9
S31508000750D1FE6B689E4201D910F0D7FD20466E6027
S3150800076017B0F0BD1920FBE7AC20F9E7090600062B
S31508000770044808B500680BF0ACFD002814BFAE208D
S31508000780002008BD5C22002008B5034B18680BF052
S315080007908FFD002008BD00BF5C22002038B5044646
S315080007A00D4620460AF0C3F86B7C002857D0052B67
S315080007B059D0032B17D0042B38D0012B4DD1022248
S315080007C0214628460AF071F9002833D129462846D9
S315080007D00AF0AFF970BB95F82430002B0CBF032341
S315080007E005236B74DDE795F825209AB1214628463E
S315080007F02A7F0AF05AF9E8B9294628460AF0DAF9AA
S31508000800C0B995F8253073B90223AA691A442A6231
S315080008100423E6E72B7D013BDBB2022B9CBF134A80
S31508000820D25CAA61F0E72B7F0233EEE795F8243015
S315080008300BB1232038BDAA690AB91820FAE7214660
S3150800084028460AF032F90028F4D1294628460AF043
S31508000850D9F90028EED10523C3E70320EAE7052BDB
S3150800086001D00D20E6E70020E4E700BF303A010892
S31508000870004870476C210020024A0349034810F0DB
S3150800088091BB00BF68210020DFAC00086C21002066
S315080008900023F0B590F8C12087B00446019322B131
S315080008A0A0F8C03017480AF02DFF0025164F04F1AE
S315080008B0B806304601ABC5F180027919FFF758FF33
S315080008C0C0B1DDB1114B04AA0493802302A92046C6
S315080008D0CDE9027505930AF019FADDE9041280F0EC
S315080008E0010084F8C1003046FFF74EFF30B1002002
S315080008F007B0F0BD019B01901D44DAE794F8C000EB
S31508000900F6E700BFF8050020711E0020F11D002043
S31508000910836810B504460BB92F2010BD1A491A6B07
S31508000920D1E900138B4298BF002302F1040288BF65
S315080009305B1A9A4204D00023134819460AF0E0FAD3
S31508000940A36812491A6BD1E900138B4298BF00239A
S3150800095002F1080288BF5B1A9A4204D000230B48AA
S3150800096019460AF0CDFAD4E90312A06801F078F91D
S315080009700028D2D1237E2BB16169A06801F0F8F86E
S315080009800028CAD10020C8E7B8050020880500203D
S315080009902DE9F341054608460C4609F0D5FF0646FB
S315080009A078B1254809F0C3FF58B186423246224934
S315080009B028BF024620460AF05CF810B102B0BDE82E
S315080009C0F0811E4F1C4E27E03368013AC6E9023310
S315080009D0D7F80031C7F8042157F82300013303F08C
S315080009E03F030190C7F800312846CB69124A01A98E
S315080009F098470028E2D1204609F0A6FF80463046EF
S31508000A0009F095FF80454246314628BF02462046F2
S31508000A100AF02FF80028D1D1204609F095FF296859
S31508000A2018B1D7F80421002ACED12846CB6802B0DF
S31508000A30BDE8F041184700BF880500208004002063
S31508000A4070B504460D460E4E284609F070FF28B9C3
S31508000A5023682046BDE870409B68184731462846FB
S31508000A60FFF79CFE0D28EFD048B9236820469B69FE
S31508000A700349984718B902480AF065FAE4E770BDD1
S31508000A80B805002091F8273070B506460C464D8A01
S31508000A902BB10A7D194829460AF078FA30BBB5F514
S31508000AA0827F0AD8B5F5807F0BD9A5F58175022D09
S31508000AB009D8DFE805F00C0A0F0040F23B139D4207
S31508000AC011D0A62012E0E36AF36000200EE0E36A84
S31508000AD03361FAE794F8243083F00103337603B1DF
S31508000AE0E36A7361F1E7B2680AB92F2070BDA38D76
S31508000AF0002B08BF4FF400731363E6E78004002059
S31508000B0008B503480A7D498A0AF040FA08BD00BFBD
S31508000B108004002070B586680C460EB92F2070BD7B
S31508000B2091F8263003B9B43694F82730257D33B1C9
S31508000B302A46618A17480AF029FA0028EFD1032DB8
S31508000B4026D8DFE805F016020E1133689B6894F87C
S31508000B502420618A5AB904F12C023046BDE8704057
S31508000B60184733681B69F2E733689B69EFE7002289
S31508000B70F3E73368618ADD6A94F8243033B9E26AA8
S31508000B803046AC46A369BDE8704060470022F7E7E7
S31508000B902620C4E7800400200A46498A10B5B1F524
S31508000BA0A27F15D008D840F2051399421AD0B1F59C
S31508000BB0A17F0DD0A6200AE040F2A1139942F9D1EF
S31508000BC0806838B10368DC6A9369D26AA04710BDA9
S31508000BD0806808B92F20FAE703682C321B69BDE83C
S31508000BE010401847127D02480AF0D0F9EFE700BF17
S31508000BF0800400202DE9F04100251746526894B07C
S31508000C00052A88461E468DF805508DF806508DF83B
S31508000C10075040F2A78001233968023A02A80AF071
S31508000C2086F90DF1050102A809F05DFF04460028C2
S31508000C3040F094800DF1060102A809F054FF04461D
S31508000C40002840F08B800DF1070102A809F04BFF40
S31508000C500446002840F082807B683168802B7CD867
S31508000C6073687F2B7CD903467622083107A80AF0D9
S31508000C705EF99DF80630013B042B6CD8DFE803F0DB
S31508000C8003325D64550001238DF83430514BCDF89D
S31508000C9038800C930023CDE90F3311938DF8483033
S31508000CA0B8F1000F1BD0D8F8305000232A1D19467A
S31508000CB049480AF025F948480AF045F9002305F19C
S31508000CC00802194645480AF01BF90022444BC3F8A6
S31508000CD0042107AA02A90CA80AF07DF909E04FF435
S31508000CE00075E2E73C480AF0FDF83C480AF0FAF8D5
S31508000CF00020099A079B9A4288BFD41AE5B204468F
S31508000D0000230822316807A80AF011F900211C22DD
S31508000D100DA80C9110F008FC022107A809F021FE85
S31508000D2010B3002014B0BDE8F08101238DF83430EB
S31508000D302C4BCDF838800C93CBE70323CDF83880BD
S31508000D408DF83430284BF6E70423CDF838808DF833
S31508000D503430264BEFE72A20CBE7C2240025CFE71D
S31508000D601924FBE71924CBE79DF8061007A841F0DC
S31508000D70800109F0F6FD0028D3D19DF8071007A8D1
S31508000D8009F0EFFD0028CCD1214607A809F00EFE90
S31508000D900028C6D1294607A809F0E3FD0028C0D1D6
S31508000DA0726805F10A03934201D910F0AEFA0835C4
S31508000DB02946306873600CAA00F0FAFF0028B0D103
S31508000DC09DF80600BDF830203368023818BF0120A8
S31508000DD05A53A7E7503A0108B805002088050020AD
S31508000DE080040020783A0108A03A0108C83A0108A8
S31508000DF0002208B5114606480AF0B4F8002205484C
S31508000E0011460AF0AFF80022034BC3E9402208BD99
S31508000E10B8050020880500208004002002490A68D9
S31508000E2002604A6842607047303D010810B440F2DB
S31508000E306314A142034612D0B1F5B27F07D2B1F5C9
S31508000E40827F20D0B1F5B17F18D0A62009E040F204
S31508000E5097108142F9D102B11268DA6211E01AB923
S31508000E602F205DF8044B704711680A4BA1F57A727A
S31508000E709A42F5D85DF8044B00F0D2BD02B112686B
S31508000E809A620020EDE7002AEAD011685DF8044B63
S31508000E9000F06EBEB88201002DE9F0470024054631
S31508000EA08EB08846174621460D2205A80DF1280959
S31508000EB01E46049410F038FB21460D224846099434
S31508000EC010F032FB1122284602AB04A9CDE90244F0
S31508000ED000F05CFD044600285DD1029B0A2B51D127
S31508000EE09DF814302D2B2FD00025049B0A2203A928
S31508000EF009A809938DF8285008F07CFF039BA8F8E9
S31508000F0000004B4541D1BDF814300A2203A909A8AF
S31508000F10ADF824308DF8265008F06CFF3870039F22
S31508000F200DF126039F4230D1BDF816300A2203A9D7
S31508000F3009A8ADF824308DF8265008F05BFF039B0E
S31508000F403070BB4221D125E09DF817302D2BCBD12F
S31508000F500823029306AB01930DF1150311210F4ADD
S31508000F60009309A804AB09F003FBDDF808A009A95A
S31508000F70524604A810F0BCF95246284604A900F0C7
S31508000F80FFFC40B9029B072BAED8054804A908F018
S31508000F9067FF2F2420460EB0BDE8F087E83A01081F
S31508000FA0F53A01080023F0B587B001930C46D1E95C
S31508000FB0001201AB00F0F6FC40F20123984225D15D
S31508000FC002AD2A46144B03F110072E4618685968D5
S31508000FD0083303C6BB423546F7D163680F2B02D8E0
S31508000FE0192007B0F0BD256806AE134603CBB342F9
S31508000FF0286069601A4605F10805F6D110230193A1
S31508001000019B6268934204D910F07FF90028E8D161
S31508001010F6E700206360E4E7383D0108F0B5B1F56E
S31508001020AA7F99B0154606461A461E9C3CD8B1F5C5
S31508001030A07F09D840F2051399426DD040F21113EA
S31508001040994262D0A62065E06FF4A073194413296B
S31508001050F8D801A353F821F05311000845100008E9
S315080010606D11000845100008731100087911000871
S315080010707F11000885110008451000084510000872
S3150800108045100008451000084510000845100008DE
S315080010904510000845100008451000088B11000887
S315080010A0911100089B110008B1F5C17F00F09280EC
S315080010B010D840F26513994200F08280B1F5B37FEB
S315080010C000F08380B1F5B27FBCD12346294600F0F3
S315080010D0C3FC1EE040F29513994200F0898040F265
S315080010E0B113994200F0938040F293139942A9D123
S315080010F0CDE90B5205B9EAB933683046D3F88030E2
S315080011000BA9984730B90C9B21E02346294600F0E5
S3150800111041FD48B319B0F0BD00F1340738460392D3
S3150800112010F06FF9039A0130CDE906050597089284
S3150800113015B90AB110F0E9F807AB00933046728B7F
S31508001140318B05AB00F0D0FC0028E3D1089B236067
S315080011500AE003681B6B2946304698470028D9D110
S31508001160284610F04EF920600020D3E703689B6BF1
S31508001170F1E703681B6CEEE703685B6CEBE7036853
S315080011809B6CE8E70368DB6CE5E703685B6DE2E701
S315080011902346294600F0FAFBBBE721230E93036892
S315080011A00FAF03921B6E0D970DA99847039A002857
S315080011B0B0D1134620212A4638460AF03EFAD2E72D
S315080011C02346294600F054FCA3E72346294600F0A7
S315080011D0EDFC9EE7CDE909530DB9002BAAD133687A
S315080011E03046DB6F09A99847002893D10A9BAEE7DA
S315080011F0CDE90D520DB9002A9CD133683046D3F893
S3150800120084300DA99847002884D10E9B9FE7CDE925
S315080012100F520DB9002A8DD133683046D3F88C3079
S315080012200FA9984700287FF475AF109B8FE700BF7A
S31508001230F0B54B680646602B0C461546A5B029D96D
S3150800124000278222394603A8029710F06DF901ABF0
S315080012508622304602A9019700F00AFC40F20123D3
S31508001260984210D184220C4902A8019210F040F845
S315080012702268019902A800F0B1FD286063689842C7
S3150800128005D910F042F80028F2D025B0F0BD60600C
S315080012900020FAE71920F8E7143B010870B5002684
S315080012A0044696B02A220D460BA831460A9610F037
S315080012B03BF901AB2E2220460AA9019600F0CCFB89
S315080012C040F20123984227D118230193174B0AAC01
S315080012D003F11806224618685968083303C2B34250
S315080012E01446F7D100241C22214603A8029410F0C4
S315080012F01BF9019902AA0AA800F070FD6B68064658
S31508001300984210D8024602A928680FF0F1FF6B68C8
S315080013109E4205D90FF0F9FF0028E3D016B070BD3C
S3150800132020466E60FAE71920F8E700BF993B0108E6
S3150800133070B5B1F5B27F054616461C4692B000F068
S315080013401D8121D840F21113994271D06FF4A07310
S3150800135019448BB2132B30D813292ED8DFE811F095
S315080013606F002D007C002D0089009600A300B000B8
S315080013702D002D002D002D002D002D002D002D00F7
S315080013802D00BD00D900EA0040F29513994200F0FD
S315080013904481B1F5CB7F22D240F28113994200F005
S315080013A01F81B1F5C17F0AD240F26513994200F058
S315080013B0F080B1F5B37F00F0F380A620A0E000F03E
S315080013C0228140F293139942F7D13146224609A861
S315080013D009F09AFF284609A900F0D2FC90E0B1F579
S315080013E0D17F00F03B8111D8B1F5CB7F00F01F818A
S315080013F040F2A1139942E0D1002A40F022818022CE
S315080014003146343010F090F8002079E040F2B113FC
S315080014109942D2D1002AF7D0002CF5D0314622467F
S3150800142009A809F071FF284609A900F0EFFB67E053
S315080014302246314612B0BDE8704000F0A5BB02B1A5
S315080014403CB900228D49284612B0BDE8704000F02C
S31508001450C1B922463146F6E702B13CB900228749AE
S31508001460284612B0BDE8704000F0DCB92246314685
S31508001470F6E702B13CB900228049284612B0BDE819
S31508001480704000F0F7B922463146F6E702B13CB99A
S3150800149000227A49284612B0BDE8704000F0FCB92F
S315080014A022463146F6E702B13CB90022734928467E
S315080014B012B0BDE8704000F001BA22463146F6E7A0
S315080014C002B13CB900226D49284612B0BDE8704009
S315080014D000F006BA22463146F6E702B194B9002171
S315080014E01C220AA8099110F01FF82021644AAB8B28
S315080014F009A809F03DF809A90246284600F016FA97
S3150800150012B070BD2246314612B0BDE8704000F0F8
S315080015100DBA02B13CB908225A49284612B0BDE8AC
S31508001520704000F02DBA102C01D92F20E8E722468A
S315080015303146F2E702B1C4B9102105A809F05BFFEC
S315080015400028DDD1022310210093212309AA05A82A
S315080015500AF033F80028D3D109A80FF052FF09A9D9
S315080015600246284600F018FACAE7102CDDD80223EE
S31508001570214600933046212309AAE9E7002AD4D058
S31508001580002BD2D01A46314612B0BDE8704000F0A2
S315080015905DBA2246314612B0BDE8704000F062BA24
S315080015A002B1B4B90023CDE90933CDF82B30AB6AC3
S315080015B009A80293EB8B01936B6A00936A8B298BBC
S315080015C02B6A09F05CFE0B22284609A900F0E8FA06
S315080015D096E72246314612B0BDE8704000F0E0BA00
S315080015E002B154B9002305AACDE909238DF81430B0
S315080015F0284609A909F0DAFE82E72246314609A8F3
S3150800160009F082FEF4E73146224609A809F07CFE75
S31508001610284609A900F0C0FB72E73146224609A808
S3150800162009F072FE284609A900F09EFB68E73146D4
S31508001630224609A809F068FE284609A900F042FAD8
S315080016405EE77F2C3FF671AF2246314634300FF005
S315080016504FFE00232C4484F83430D5E6002A3FF4A4
S3150800166064AF002C3FF461AF3146224609A809F061
S315080016704BFE284609A900F0B1FA41E7E6430108FE
S31508001680B23B0108B53B0108012903BF034B002003
S315080016901B78A62008BF1370704700BF111F0020D3
S315080016A0022938B514461D460FD1202200210848C4
S315080016B00FF03AFF3CB1202D2A46214628BF2022AA
S315080016C003480FF015FE002038BDA620FCE700BF32
S315080016D0F11E0020104608B56AB163B102290CD183
S315080016E0202B28BF20231A46029B05491A600FF0B3
S315080016F0FFFD002008BD2F20FCE7A620FAE700BF63
S31508001700F11E0020012905D102B11278024B0020F2
S315080017101A707047A6207047111F00202DE9F04364
S315080017201D46002389B0074608460E461446CDE9ED
S31508001730053300F061FC18B9D82009B0BDE8F0837C
S31508001740304605A900F0C2FC0028F6D1204600F074
S3150800175053FC0028F0D0204606A900F0B7FC002864
S31508001760EBD1DDE90596079007A9184800F0AEFC0D
S31508001770044600BB079919EB01081ED10EB10FF0FC
S31508001780C4FD022009F06DFFA0B1079B022100935A
S315080017901F203B46CDE901960D4A09F055FF6B68B7
S315080017A09E4210D83246414628680FF0A3FE6B6861
S315080017B09E42E4D86E602046BFE7022009F051FF3A
S315080017C00028ECD0E1E71924F5E700BF21720800EC
S315080017D0803D0108014800F087BD00BF007208007F
S315080017E0002307B50348019301AB00F097FC03B04B
S315080017F05DF804FB00720800014800F047BD00BF11
S315080018000C72080010B506480C4600F033FC40F28E
S315080018100123984202BF4FF6F1730020238010BDC2
S315080018200C720800014800F05FBD00BF0D72080089
S31508001830002307B50348019301AB00F06FFC03B022
S315080018405DF804FB0D720800014800F01FBD00BFDB
S315080018500B72080010B506480C4600F00BFC40F267
S315080018600123984202BF48F201030020238010BDDD
S315080018700B720800014800F037BD00BF0E72080061
S31508001880002307B50348019301AB00F047FC03B0FA
S315080018905DF804FB0E720800014800F025BD00BF84
S315080018A010720800002307B50348019301AB00F046
S315080018B035FC03B05DF804FB10720800014800F01F
S315080018C013BD00BF11720800002307B50348019332
S315080018D001AB00F023FC03B05DF804FB11720800AD
S315080018E0014800F001BD00BF12720800002307B5C9
S315080018F00348019301AB00F011FC03B05DF804FB4B
S3150800190012720800014800F0C1BC00BF1872080036
S3150800191010B505480C4600F0ADFB40F2012398428D
S3150800192004BF0020208010BD18720800014800F08E
S31508001930DBBC00BF0F72080073B5002601AB0E486A
S315080019400C461546019600F0E9FB40F20123984241
S315080019500BD164B10C2D0CD920462A4607490FF045
S31508001960EDFC30462C4404F8016C02B070BD0B2027
S31508001970FBE71920F9E700BF0F7208009E3D010832
S31508001980014800F0B1BC00BF04720800014800F02D
S31508001990C5BB00BF04720800014800F0BFBC00BF09
S315080019A01F72080007B500200090034800F00CFCE1
S315080019B003B05DF804FB00BF1F720800014800F081
S315080019C065BC00BF0772080037B512480D4600F01F
S315080019D051FB40F201239842044604D14FF4706348
S315080019E02B80002014E098B92B88B3F5805FF8D3D4
S315080019F0012009F036FE50B140F28B132F22012147
S31508001A00CDE900322046044B044A09F01DFE2F207A
S31508001A1003B030BD07720800AB3D0108CB3D010895
S31508001A20014800F04BBC00BF0872080010B5064814
S31508001A300C4600F04BFB40F20123984202BF4FF4DC
S31508001A407A730020236010BD08720800014800F070
S31508001A504BBC00BF09720800014800F05FBB00BF1D
S31508001A6009720800014800F03FBC00BF0A7208006E
S31508001A70014800F053BB00BF0A7208000B46024A31
S31508001A8002490348FFF74ABE277208002672080073
S31508001A90DC3D01080B46024A02490348FFF73EBEF1
S31508001AA02572080024720800F83D01080B46024A10
S31508001AB002490348FFF732BE237208002272080063
S31508001AC01E3E0108022307B5D1E9001201A80193B9
S31508001AD0FEF79CFD18B90199024800F0EFFB03B028
S31508001AE05DF804FB207208001FB5022003900698D3
S31508001AF0009003A8FEF7A2FD18B90399024800F062
S31508001B00DDFB05B05DF804FB20720800002370B504
S31508001B10154886B00D461646049300F06DFA08B3CC
S31508001B20114804A900F0D2FAD0B9049B3246002B1A
S31508001B3008BF0223294605A80593FEF7E7FD0446D4
S31508001B40022009F08EFD50B10294736802210193B8
S31508001B506B681F200093054A049B09F075FD204613
S31508001B6006B070BDD824EBE720720800373E01089E
S31508001B70014800F0A3BB00BF21720800014800F02D
S31508001B80A5BA00BF21720800014800F0ADBB00BF2E
S31508001B9029720800014800F0C1BA00BF297208007E
S31508001BA0014800F0BBBB00BF0572080007B500205E
S31508001BB00090034800F008FB03B05DF804FB00BF83
S31508001BC005720800014800F049BB00BF28720800EA
S31508001BD0014800F023BA00BF28720800032307B59E
S31508001BE0D1E9001201A8019300F086F918B9019904
S31508001BF0024800F063FB03B05DF804FB307208008E
S31508001C00014800F063BA00BF307208004A6808B598
S31508001C10102A01D02F2008BD0968024800F07EFB73
S31508001C20F9E700BF177208001FB500234A680C467B
S31508001C300F2A03930FD90093102203AB09680748AC
S31508001C4000F0C2FA63680F2B01D80FF05EFB102371
S31508001C50636004B010BD1920FBE700BF17720800C7
S31508001C6000200A4B10B5186032B9094C2146BDE868
S31508001C701040084800F022BBA1F500518C18064810
S31508001C8009F042FD204607F035FEEFE7E80500209B
S31508001C9000E00F0821720800F805002000232DE94E
S31508001CA0F04F85B080460F462C4803A91546039386
S31508001CB000F00CFA002838D1294E039933681BB96D
S31508001CC0284809F006FD80BBD5E900143368039A55
S31508001CD002EB030B14F003031BD10A4623465946AD
S31508001CE0204809F0FCFC00BB4046316800F0E6FAE3
S31508001CF0D8B93846696800F0E1FAB0B932686B6855
S31508001D000020134413F03F021CBF40339B1A336074
S31508001D100BE004F1040AAAEB030A5046019100F00D
S31508001D20CBF80199814618B9AC2005B0BDE8F08F0B
S31508001D3022460FF0DDFAAAEB0402FF2109EB0400A4
S31508001D400FF0F2FB53464A465946064809F0C7FCC7
S31508001D500446484600F0C0F82046C4E72172080049
S31508001D60E8050020F805002008B50A460248034998
S31508001D70FFF794FF08BD00BF22720800237208000F
S31508001D8008B50A4602480349FFF788FF08BD00BFA1
S31508001D90247208002572080008B50A460248034955
S31508001DA0FFF77CFF08BD00BF2672080027720800EF
S31508001DB01FB513460022039203AA0192202200921D
S31508001DC00A46014604480DF057FD002814BFAC200A
S31508001DD0002005B05DF804FB09000002014B09F07C
S31508001DE084BB00BF0FB4000838B5094BD3E8EF2F02
S31508001DF0541CC3E8E54F002DF8D1002A04DC00F096
S31508001E003FF808B10FF081FA4FF0000038BD00BF67
S31508001E10EC0500202D2828BF002010B4074C04EB41
S31508001E208000074CD4E8AF4F1CB1A4465DF8044BBC
S31508001E3060475DF8044B09F01FBC00BF823E0108ED
S31508001E40F0050020024BD3E88F0FC0B2704700BFE1
S31508001E500C230020024608B5064BD3E8AF3F3BB932
S31508001E60054B06491B68D86808F068FB0FF04DFA61
S31508001E7008BD00BFF4050020B0220020363F010847
S31508001E8008B50A4BD3E8EF2F511CC3E8E01F00281A
S31508001E90F8D1002A07DD064B06481B68D96808F002
S31508001EA05FFB0FF032FA002008BD00BFF4050020E2
S31508001EB0B02200207E3F010838B504460548FFF7E2
S31508001EC0C9FF204608F078FA0546214609F0D2FBF4
S31508001ED0284638BDB13F010810B504460548FFF746
S31508001EE0B9FF2046002109F0C6FB2046BDE8104090
S31508001EF008F06ABABD3F010870B5044688B00068A4
S31508001F000D46164609F0B9FB23684FF4007107938E
S31508001F1001230B4A02A8CDE902230A4B3246CDE932
S31508001F20041300232946069301AB05F061FA01461E
S31508001F3018B1054807F094FFAC2008B070BD00BF83
S31508001F40002480000010C004C83F0108014B03604C
S31508001F50704700BF3C40010810B50446034B0821F2
S31508001F6003600AF0A6FD204610BD00BF3C400108EC
S31508001F700448054B054A03600023054943600FF0F2
S31508001F8011B800BFF80500203C4001086821002070
S31508001F904D1F000837B50E4D2C686CB90323224631
S31508001FA02146009301200B4B11F028FB23462246BD
S31508001FB02146286011F069F8286808B90FF0A5F9D4
S31508001FC04FF0FF3103B0BDE8304011F0B2B900BFA1
S31508001FD05006002000060020064B10B5186808B900
S31508001FE00FF093F90023BDE810401A46194611F080
S31508001FF04CB800BF5006002007B5014606486A4699
S3150800200001AB006801F050FB09F08AFBB0FA80F0DA
S31508002010400903B05DF804FB8C2200207FB500233D
S3150800202004460D468DF8073009F086FBD0B1104EF0
S315080020302146306803AB02AA01F036FB09F070FBB3
S3150800204070B9039B012B10D1214630680DF10702A8
S3150800205001F0A4FA09F064FB10B99DF807302B705B
S3150800206004B070BD40F20120FAE72F20F8E700BF60
S315080020708C2200207FB5002304460D46ADF80630B5
S3150800208009F05AFBD0B1104E2146306803AB02AABC
S3150800209001F00AFB09F044FB70B9039B022B10D12F
S315080020A0214630680DF1060201F078FA09F038FB8E
S315080020B010B9BDF806302B8004B070BD40F201207F
S315080020C0FAE72F20F8E700BF8C2200207FB500230F
S315080020D004460D46039309F02FFBC0B10E4E214668
S315080020E0306802AB01AA01F0DFFA09F019FB60B902
S315080020F0029B042B0ED12146306803AA01F04EFA42
S3150800210009F00EFB08B9039B2B6004B070BD40F2C2
S315080021100120FAE72F20F8E78C2200202DE9F0436A
S315080021201D46002385B02B6007460E46914609F0EA
S3150800213003FB00283ED0DFF88C803946D8F800002B
S3150800214003AB02AA01F0B0FA09F0EAFA0446B8B9F4
S31508002150039B93B3C6B14B4531D232463946D8F8BC
S31508002160000001F01BFA09F0DBFAD8B9039B012B32
S3150800217003D13378003B18BF012300222B60F254A9
S31508002180204605B0BDE8F083012B01D02B60F7E7A8
S315080021903946D8F800000DF1070201F0FFF909F0F9
S315080021A0BFFA08B10446EBE79DF8073003B1039878
S315080021B02860E5E740F20124E2E71E24E0E7192457
S315080021C0DEE700BF8C2200202DE9F04F1D460023D4
S315080021D085B02B60074688461646DDF838A009F014
S315080021E0ABFAA0B3DFF870B03946DBF8000003ABF2
S315080021F002AA01F059FA09F093FA0446A8B9B8F107
S31508002200000F12D0039BDBF80000A3EB0A09B145C7
S315080022100FD8534642463946CDF8009001F0FEF9EC
S3150800222009F07EFAB0B9C5F80090204605B0BDE8B9
S31508002230F08F534642463946009601F0EFF909F009
S315080022406FFA04460028F0D119242E60EDE740F213
S315080022500124EAE70446E8E78C22002013B5044681
S315080022608DF8071009F068FA58B107480123214686
S3150800227000680DF1070201F0E7FA09F051FA02B019
S3150800228010BD2F20FBE700BF8C22002013B50446A3
S31508002290ADF8061009F050FA58B10748022321464E
S315080022A000680DF1060201F0CFFA09F039FA02B01A
S315080022B010BD2F20FBE700BF8C22002013B5044673
S315080022C0019109F039FA58B10423064821460068F5
S315080022D00DEB030201F0B8FA09F022FA02B010BDBC
S315080022E02F20FBE78C22002010B5044609F024FABB
S315080022F068B179B10848012A1346006838BF012336
S315080023000A46214601F0A0FA09F00AFA10BD40F281
S315080023100120FBE72F20F9E78C22002010B50446A0
S3150800232009F00AFA58B101B962B9074813460068B4
S315080023300A46214601F088FA09F0F2F910BD40F282
S315080023400120FBE72F20F9E78C2200200348044AE6
S315080023500449121A921009F006BA00BF7001000863
S315080023601C030008BC1F002008B5154B83F30A8818
S3150800237000F030F8FFF7EAFF124B13498B4212D3ED
S315080023800020124B12498B4218D3FEF7ADF8186895
S3150800239050F82240586840F8224001329868824234
S315080023A0F5D30C33EAE70022F8E71C6844F8220064
S315080023B001325C68A242F8D30833E4E70022F8E762
S315080023C000000020F85201080453010804530108CC
S315080023D0045301084FF48041124B134A70B59A60B2
S315080023E0D3F88820114D42F47002C3F88820104AA9
S315080023F005F5005491664FF0FF3222660D4A626673
S315080024000222C3F8D020BFF34F8FBFF36F8F4FF46C
S315080024104036002002F09EFA0020E66002F08CFAB0
S315080024202E6170BD00ED00E0000000080080004449
S3150800243000900050F7FF3700002307B50193054BBE
S315080024401B6810F06BFD019B002BFCD003B05DF8F8
S3150800245004FB00BF40220020EFF305830F2B84BF47
S31508002460034A9B5C4FF0E023D3F80C3D704700BF4E
S31508002470F0E300E0BFF34F8F0549064BCA6802F444
S31508002480E0621343CB60BFF34F8F00BFFDE700BF89
S3150800249000ED00E00400FA052DE9F04F1446054664
S315080024A00E469B46C36B87B001225B6902A960682A
S315080024B09847EB6B01225B6903A93046984702A847
S315080024C009F0D0FD074648B10023A37563754FF0A0
S315080024D0FF33A360002007B0BDE8F08F03A809F01A
S315080024E0CEFD0123A375237E04EBC303DE611F849F
S315080024F06368B3420ED1206003A809F0E2FD4FF0ED
S31508002500FF332075A360237D043B022B26D80023C6
S31508002510A375DFE723681A1A53425341A37503A824
S3150800252009F0CFFD237D834218BFA77503A809F0DC
S31508002530AAFD074602A809F0A6FD874218BF002390
S3150800254003A818BFA37509F0A6FD074602A809F057
S31508002550A2FD87421CBF0023A375D4E703A809F090
S3150800256092FD80B1EB6B022230465B6904A998475D
S3150800257004A809F097FD0346207D032839D8DFE82B
S3150800258000F03838040903A8F3E7CC22237E04EBCD
S31508002590C3031A8401F0A0FA109B187003A8277EBB
S315080025A009F065FD04EBC70787F82200237E03A818
S315080025B004EBC303B3F8209093F8227009F063FD87
S315080025C0804603A809F067FD8246B8F1000F15D0CA
S315080025D0EB6B022230465B6904A9984704A809F008
S315080025E026FD6075637D6BB90023A3754FF000085F
S315080025F038E0227E04EBC2021384CBE703A809F075
S3150800260001FDEEE794F81680B8F1000FEED0B9F1A7
S31508002610000F09D1DFB10123E375637E002B4FD18B
S31508002620012F42D1677614E06B6C06EB0A02594219
S3150800263086EA020008421CBF0021A175591E0A40FD
S315080026409B1A9945D0D8A37D002BE3D1CEE7E37D2D
S3150800265043B94FF000084B4652463146284609F022
S3150800266043FAA060A27D12B123694B4423611A493B
S31508002670237E097899422AD901332376BBF1000FC4
S3150800268027D032B3E37D23B3B8F1000F21D1032F4E
S315080026901FD0A1684B1C1CD0109B224600932846CD
S315080026A00123FFF7F9FEA07513E095F8343063B9F6
S315080026B0EB6A0133CFD1032FCDD10123A376C8E727
S315080026C0012FCFD0032FC4D1F7E79846C3E70023DD
S315080026D0A375A07DFFE600BF0C4101082DE9F04F68
S315080026E00E46984600238BB004464FF0FF3110463D
S315080026F017468DF8133001F0D9F9B6F5801F3BD38C
S31508002700B21C53D1E56A6B1C57D12046616A09F0A1
S3150800271031F90546B31C18BF0123DFF81091019360
S31508002720636A626C0293236805A902FB053AE36BA8
S3150800273005225B695046984705A809F02EFD09F061
S3150800274051FD504609F059FD4FF0000B82460146EF
S315080027504B1C05D0636C81EA0A025B42134232D0F5
S315080027602946204609F006F9029BAB424DD0BBF13B
S31508002770000F4DD10546D3E7314605AA04F10800F6
S3150800278009F0C2FB0146481C10D0384601F08EF904
S315080027900122394620460DF1130309F0F7F928B14D
S315080027A09DF8133088F80030002003E0237C002BC6
S315080027B0A8D12D200BB0BDE8F08F2368ED1A636C05
S315080027C0B5FBF3F5A6E7484601F070F90DF11303DA
S315080027D049462046019A09F0D9F9034690B1B21C38
S315080027E003D0D9F80020B2420CD19DF813200393E8
S315080027F00D4B88F8002049461A6838460EF078FDD1
S31508002800039B9B46D9F80810A2E7BBF1000FD0D06E
S31508002810B6F5801FC8D2314698F800307A6804F1B8
S31508002820080001F089F8BFE7084101082C120020CA
S315080028302DE9F3410446174698460E46194D816A16
S31508002840E36A8B422AD04B1C18E0284601F02EF981
S315080028500122294620460DF1070309F097F930B100
S315080028604346294620469DF80720B847B0B1A968CF
S315080028704A1C05D0012E0AD0E36A9942E5D10DE03B
S315080028806968204609F003F9012E0146D8D16B681C
S3150800289081EA0302636C5B421A42D1D002B0BDE8FA
S315080028A0F08100BF001200202DE9F0474FF0FF33FA
S315080028B04FF6FF720025044600F10806C0E9092311
S315080028C08AB0C3620562056330460F4609F0EDFA21
S315080028D0204608F0CFFF28BB2046394609F09AF86B
S315080028E0204608F0C7FF28BB5E200AB0BDE8F0877F
S315080028F0E26B2368606CD2F814C000FB0530052231
S3150800290005A9E04705A809F048FC012840F083809E
S315080029102946204609F04FF8421C2946204608F069
S31508002920C8FF0135E3699D42E2D3204608F0A2FFBD
S315080029300028D1D0204608F0CDFF4FF6FF72636A13
S31508002940934200F0B080E26B676C2068694607FB2B
S31508002950030055690522A847684609F0F5FB626A2F
S315080029602368606C514D00FB023009F046FC4FF0BD
S31508002970FF33A062E3622A466FF00101204605ABE9
S31508002980FFF7ACFE002850D1AD6829462046E5621F
S3150800299008F04CFF206320B92046E16A09F077F871
S315080029A0E0622946204609F072F80546A36A9D4268
S315080029B03DD1204608F0F8FE00278046B946E3696F
S315080029C0994546D3B84563D92046616A08F0D2FFCF
S315080029D00026054604F1400ABE4212D3626C2368FB
S315080029E0694602FB0539E36B05225B694846984749
S315080029F0684609F0A9FB534602464946E06B09F0CA
S31508002A00FEFB2946204608F0B5FF0136B0450546C7
S31508002A10E2D1642069E709F0EAFB002881D029465B
S31508002A20204608F0C8FF024677E7A56AADE72946BB
S31508002A30204608F0FBFE236B29460344074623631A
S31508002A40204609F024F80546002FAFD1C4E90B0744
S31508002A50ACE7636C2568052203FB0955E36B05A9FA
S31508002A605B692846984705A809F097FB09F0BAFB61
S31508002A7058B1284609F0C1FB0146204608F0D6FEA3
S31508002A80636C143B984208BF013709F1010996E7C0
S31508002A90304609F00AFA002320461946044AFFF789
S31508002AA0C7FE002021E767201FE700BF5812002055
S31508002AB07BBB00082DE9F041036B9046826B0768E3
S31508002AC09A4288BF8363426C436A90B002FB0377DD
S31508002AD0C36B0E46052201A95B690446384698472A
S31508002AE001A809F05AFB01280146307057D0656CD9
S31508002AF0E26B2368606AD2F814C005FB0030052231
S31508002B0006A9E04706A809F048FB01284FF000058A
S31508002B1023D0D4E90A3201219342CDE90B458DF839
S31508002B2034800E958DF83C102AD11946204608F0B7
S31508002B30AEFF236B626C14339B1AE06223630C9B13
S31508002B4053B99DF83C303BB1626A616C2368E06B0F
S31508002B5001FB023109F0D9FA0C9DE36B05225B698A
S31508002B6001A93846984701A809F017FB307028468E
S31508002B70236BA26B9A4288BFA36310B0BDE8F081AD
S31508002B80237C33B91C490BAA04F1080000F022FF84
S31508002B90D5E72046194A0BABFFF74AFECFE7237C59
S31508002BA023BB2246164904F1080000F013FF616AA8
S31508002BB0204608F000FF616A421C204608F079FEAC
S31508002BC0054620B9236B626C1344143B23632046E5
S31508002BD0A16A08F05CFF2368A062C01A636CB0FBA8
S31508002BE0F3F06062204608F095FFB6E7002320461A
S31508002BF0044AFFF71DFEDAE74D330008C93200081C
S31508002C0015BC0008B1BB000873B50D46D11E4A4273
S31508002C101C461B7E4A419A4226D129682368994256
S31508002C2022D3636899421FD8114E0DF10703324625
S31508002C30FFF754FDC0B972686B689A4214D19DF8C3
S31508002C400730DA1E53425341227E93420CD1636900
S31508002C5001336361D4E90323934205D22968A26844
S31508002C6042F8231001332361012002B070BD00BF72
S31508002C70581200202DE9F04F9A468BB09DF8503037
S31508002C80DFF850B10293DBF81030804653450D4605
S31508002C901646C0F09980D146DBF804300193B9F1A5
S31508002CA0000F00F08D80D8F83C3001225B6907A937
S31508002CB00198984707A809F0E2F9DBF8003098422E
S31508002CC040F0858007A809F0E6F90428074614D1DC
S31508002CD007A809F0E7F9019B029A04463B44002A33
S31508002CE03FD1864212D91446361A4046019908F051
S31508002CF0CEFEA9EB04090190D1E7D8F83C300222B0
S31508002D005B69019808A9984708A8E2E7841B544517
S31508002D1028BF5446032C03EB0607AAEB040A4FEA1E
S31508002D2094021CD9D8F83C30294638465B6998473E
S31508002D3024F0030304F003061F441D44002ED4D0D8
S31508002D40D8F83C3001225B6908A9384698473246CC
S31508002D50284608A935440EF0CBFA0026C5E72646CC
S31508002D60ECE7074600F00302039203442A1804928C
S31508002D700593049BDD1B059BD81B039B9F420FD124
S31508002D80002FB2D0D8F83C30012208A95B699847D1
S31508002D903A46284608A90EF09DFB78B93D44A4E7B3
S31508002DA0D8F83C30012208A95B69984704222846CE
S31508002DB008A90EF08FFB08B9043FDAE74FF0360989
S31508002DC048460BB0BDE8F08F4FF06309F8E74FF0BF
S31508002DD06F09F5E7841200202DE9F0410F461646E3
S31508002DE09846044688B060B390F83450FDB1012186
S31508002DF008F035FD00210E9BCDE90511CDE9023716
S31508002E009DF83C30CDF804808DF81C30237C049660
S31508002E108BB90D4901AA04F1080000F0DBFDDDE9D4
S31508002E200553E06B002E08BF1D4608F001FF284633
S31508002E3008B0BDE8F0812046044A01ABFFF7F8FC6C
S31508002E40EDE70546F3E700BFDFBB0008092C0008DD
S31508002E502DE9F04F99B00F4609920A69416C0E9315
S31508002E601439D31DB3FBF1F3013302EBC302036B31
S31508002E7004469342C0F0BC810023DFF844940D93C6
S31508002E80E36A48461946079300F010FED7E9033669
S31508002E9004930E9B022B4ED1CC2E40F08A81099BBF
S31508002EA0002B42D03946204608F020FF656C079A69
S31508002EB06B1E13401490ED1AE36B01225B6916A989
S31508002EC07868984716A809F0DEF800280CBF04238E
S31508002ED00823782E06933DD9012300254FF0080ACA
S31508002EE005933B6805990E98C9F80030C9F8106033
S31508002EF009F0EBF84FEA9A0310930023DDF81CB0AB
S31508002F0089F814000B930F9308930C93616C4A1E6F
S31508002F100BEA02028B1A002E38D05544AB4240D831
S31508002F20236B5B1A13442363ABE0049B1B6814935F
S31508002F3008230693D0E7656C079A6B1E1340782E14
S31508002F40A5EB030516D8FB7D7BB9099B002BB3D1EE
S31508002F5004230693331DAB4210D9A6B1082DBBD85E
S31508002F6004250023AA460593BBE7099B002BA3D19A
S31508002F700823EEE7099B002B9ED1D9E70025059586
S31508002F804FF0040AADE704250596F9E75345C7D37C
S31508002F90B0460BEB0A030393089B002B18BF0323C9
S31508002FA013E0A3EB0A039E42B0460BEB0A0228BFC6
S31508002FB098469E420392EFD90123D9F8102089F842
S31508002FC01730964271D1C9F804B0089399F81730AA
S31508002FD0002B6CD099F818200899D31C09EBC30369
S31508002FE00132C3F804B0A3F80880997289F818204A
S31508002FF0B8F1000F14D00E9B022B5BD10B9B7BB94B
S315080030000F9B4344032B0BD9E36B01229B6903985F
S3150800301014A998470546002840F0EC8001230B9335
S31508003020089B16A80193059B009399F8142043461C
S31508003030396800F0F1FCE36B58469B69109A16A9AB
S315080030409847051E0D9B18BF5B4652460D93594679
S315080030504346204608F048FD236B08F10302A3EB1C
S315080030600A0322F003029B1AC9F808002363002DFD
S3150800307040F0C0800F9BDDF80CB04344A6EB080671
S315080030800F935946204608F002FD00258346002E78
S315080030907FF43CAF8A4A3968936804F10800E36212
S315080030A052680E9B00F048FC84E002238DE7C9F8BD
S315080030B004B09DE7099B002B30D1049BB8F1030FA0
S315080030C043440A9327D9DDE90301E36B4FEA9802E3
S315080030D09B6998470546002865D118F003025FD01A
S315080030E0049B28F003052B440493039B1D444FF0CF
S315080030F0FF33049915A815930EF0FAF8E36B2846E2
S315080031009B69012215A9984705460A9B0493002D39
S3150800311086D0039B99E74246039DE8E7039B0A93FB
S3150800312007F120031193FB7D78689BB100233D7E50
S315080031300C9AD9B28D4211D9119903F1010C31F8C3
S315080031403310914226D9069907EBC303D8690A4476
S31508003150104403E00C9B069A13441844E36B0122BF
S315080031605B6915A99847159B012213930C9B0A982E
S3150800317004330C93E36B13A99B699847039B0A9A3C
S3150800318043449B1A042B054607D978B913460433DA
S315080031900A93C8E76346521ACBE70A9B0393B6E736
S315080031A00A9B04933CE70A9B0493B2E70A9B0393A2
S315080031B0AFE77026304619B0BDE8F08F002657E015
S315080031C004F1080008F071FE3346314620463D4AB0
S315080031D0FFF72EFB3A69616CD31D1439B3FBF1F383
S315080031E0013302EBC302236B9342BFF449AE65E099
S315080031F01C26DFE73D2D61D104F1080303932368FC
S31508003200079A606CD61AB6FBF0F600FB063008F093
S31508003210F4FFE16A8246204608F039FCA26A824237
S31508003220D8D0626CD9F80830511E0B40216BE06289
S31508003230891A0B4423630D992368CB1AB3FBF2F85A
S315080032404645BBD1079BB3EB0A0611D0E36BB20820
S3150800325051469B6998478346E36A079A3344E36273
S31508003260236B03989B1A5344236308F01EFE5E469D
S315080032702368616CE06B01FB083108F033FF2046D8
S3150800328008F0F8FA204608F025FB626A2368606CA5
S3150800329000FB023008F0B1FFA062204608F03AFCB5
S315080032A02063002E8CD03A69616CD31D1439B3FBA8
S315080032B0F1F3013302EBC3029042A0D22E4679E71E
S315080032C02C1200207BBB0008032A2DE9F341064691
S315080032D00D4617461C4606D1237A012B23D001201A
S315080032E002B0BDE8F081DFF86080096842460DF15A
S315080032F00703FFF7F3F960600028EDD19DF8072072
S31508003300237A032AE8D0D8F804106A689142E3D1F0
S31508003310012B2969D4F80CC007D172690CEB01039B
S31508003320934202D92074207CDAE708316144E160CF
S315080033303B46012229463046FFF78AFD6060002891
S31508003340CAD00020CCE700BF581200202DE9F3416F
S31508003350089C032A1746266806D1237A012B24D00F
S31508003360012002B0BDE8F081DFF890803046424681
S315080033700DF10703FFF7B2F960600028EDD1256863
S31508003380D8F80400A96AD5F844C04840CCF100032F
S315080033901840227AE1D1012A09D1E268D8F810301A
S315080033A013447269934202D92074207CD9E72868AD
S315080033B0EB6A1B1A081AB3FBFCF3B0FBFCF083425A
S315080033C00BD1706CF36A421E1340326B121A134407
S315080033D02846336308F05BFBE862D8F81020E368F8
S315080033E008321344E36001223B4604492068FFF78C
S315080033F02FFD60600028B0D00020B2E758120020E8
S315080034002DE9F0410025634B0E46D3F800800446AB
S315080034101D6018B921252846BDE8F08190F834705A
S3150800342007B30A6803689A4240F0AA804A68436864
S315080034309A4240F0A5808A6883689A4240F0A08044
S31508003440CA68C3689A4240F09B800A6943699A42EF
S3150800345040F096808A69C36B9A4240F091804B6926
S315080034608361D8E768223946856B0EF05DF8D6E9A0
S315080034700212336804F1080023607368A563636069
S31508003480336963617369A36108F021FDB36904F1C7
S315080034904000E3639B68984720B9676C17B1636877
S315080034A0B3FBF7F794F84330E761002BB2D000235B
S315080034B0656C2366002D6BD0002F69D02368B3FB9B
S315080034C0F5F205FB1233002B5CD16768B7FBF5F6FE
S315080034D005FB1676002E55D1204608F097F9A36904
S315080034E0043303449F424FD340F634726369CC3B9E
S315080034F093424BD8B5F5805F4AD30321204608F09E
S31508003500AEF9D4E90001E36B1B6898470546E36BFF
S315080035100220DB6898472DB184F83460E06B08F028
S3150800352087FB78E741462046FFF7BEF9642805463B
S3150800353004D141462046FFF7B7F90546636C143BAC
S31508003540D5B9226A204602FB03F608F05FF9A3699B
S31508003550043303449E4203D284F834505A25DDE7E7
S315080035600123D4E900010C4A84F834301368013386
S31508003570136008F046FDD1E7002384F83430CDE720
S315080035805D2548E7592546E75A2544E75F2542E77A
S315080035905B2540E7FC110020F81100202DE9FF41CA
S315080035A00C4616461F46054680B390F834307BB362
S315080035B0B1F5801F2ED2DFF86080012108F04FF99F
S315080035C02146424628460DF10F03FFF787F80446C1
S315080035D070B99DF80F30012B11D1D8F81030BB42C5
S315080035E012D10246009031462846FFF743FB0446AF
S315080035F0E86B08F01DFB204604B0BDE8F081022BFD
S3150800360014BF2D246024F3E76324F1E72124F2E7AD
S315080036101124F0E72924EEE7841200202DE9F0436F
S3150800362085B00C4617461E460546DDF8308098B329
S3150800363090F8343093B3B1F5801F31D2DFF8649037
S31508003640012108F00CF921464A4628460DF10F03D8
S31508003650FFF744F8044688B99DF80F30012B14D1BA
S31508003660D9F8102006EB08039A4213D30090434674
S31508003670324639462846FFF7FDFA0446E86B08F055
S31508003680D7FA204605B0BDE8F083022B14BF2D24D7
S315080036906024F3E76324F1E72124F2E71124F0E735
S315080036A02924EEE7841200202DE9F3411F46002362
S315080036B00C46164605463B6050B390F834304BB37B
S315080036C0B1F5801F28D2DFF85480012108F0C7F829
S315080036D02146424628460DF10703FEF7FFFF04463A
S315080036E0A0B99DF80730032B10D0022B0AD101236D
S315080036F0336004233B60E86B08F09AFA204602B070
S31508003700BDE8F081D8F810303060F3E72D24F2E7F1
S315080037102124F3E71124F1E72924EFE78412002096
S3150800372073B50446416908F056F8626E236B024485
S3150800373093422CBF00220122834294BF00231B1A06
S31508003740207C84F85020636584F85800A8B10023CB
S315080037500B4E1A4619462046009608F094FB00239D
S3150800376005461A4619462046009608F095FBE36872
S315080037702844984294BF0020C01AE06502B070BD84
S31508003780FFFF0F002DE9F3471E4643690446B3427F
S31508003790884617469DF828904FD300258DF8075080
S315080037A02046616908F017F8D4F830A082450AD295
S315080037B0236AB5EB430F06D2002220460DF1070116
S315080037C0FFF778F9B8B39DF80730012B05D1002229
S315080037D020460DF10701FFF76DF9B9F1030F06D081
S315080037E03146204607F0F7FF256B854227D3154D4E
S315080037F04FF0FF31284600F059F94B46294600227A
S315080038002046C5E90376C5F80080FFF721FB236E3D
S31508003810054663B12046FFF783FF94F8503013B985
S3150800382094F858301BB1236E04F150009847284687
S3150800383002B0BDE8F0870135B2E76225F7E71C2537
S31508003840F5E700BF581200202DE9FF410F469046C4
S315080038501E46054698B390F8343093B3B1F5801FE9
S3150800386031D21A4C022107F0FAFF22463946284679
S315080038700DF10F03FEF732FF024678B101234246E7
S315080038800093394633462846FFF77CFF0446E86B23
S3150800389008F0CEF9204604B0BDE8F0819DF80F3057
S315080038A0012BEBD12169B142E8D100934146334659
S315080038B02846FFF7DFF904460028DFD1E7E7212489
S315080038C0E8E71124E6E72924E4E700BF841200208C
S315080038D030B50C46054685B028B390F8343023B386
S315080038E0B1F5801F23D2022107F0B9FF0DF10F03AE
S315080038F0214628460F4AFEF7F1FE034688B99DF889
S315080039000F20032A0DD0032221460092024628469C
S31508003910FFF738FF0446E86B08F08AF9204605B039
S3150800392030BD2D24F7E72124F8E71124F6E72924EA
S31508003930F4E700BF841200202DE9F043466886B3F9
S31508003940056898464FF0000CA946AE4655F83C4027
S315080039500CF1010CC4F31307013401D0B94217D096
S3150800396066450EF1080EF1D12F46002403E0A64263
S3150800397007F1080712D055F8343001340133F6D16F
S31508003980C1F3130141EA0851C7E90012BDE8F08303
S3150800399041EA0851CEE90012BDE8F083B8F1030FF9
S315080039A003D101230372BDE8F083002303E09E429E
S315080039B009F10809F5D055F833400133C4F3075423
S315080039C0032CF4D1C1F3130343EA0853C9E90032BF
S315080039D0BDE8F0832DE9F0410646406882B0C0B1E3
S315080039E00F4690460024336853F8345003EBC4035B
S315080039F0C5F30752C5F31301013504F1010406D0D6
S31508003A005B683046CDF80080B84710B170688442CC
S31508003A10E9D302B0BDE8F08173B504462248012A0D
S31508003A2000EAC1119DF8185023F07C4007D9961E6C
S31508003A30012E28D9073303F07F03194308E09DF8C0
S31508003A401C300A43DB0603F0C053134343F06041BE
S31508003A500023C4E900108DF80730B5B120222146AD
S31508003A600DF1070008F0E5FB1A220DF10700211DEC
S31508003A7008F0DFFB082063689DF8072043EA8263A5
S31508003A80636002B070BD1143E2E71B220DF1070027
S31508003A90214608F0CEFB23689DF80720042043EA58
S31508003AA0C2632360EDE700BF80FFFF0738B5094B07
S31508003AB00D461A68002104460DF036FD00234FF026
S31508003AC0FF322383C4E900252361A260E382A3763B
S31508003AD038BD00BF084101080138C0B205289ABFA1
S31508003AE0014B185C012070470D4101082DE9F04192
S31508003AF00746154600240E46596888B0490A012922
S31508003B0022464FEA510104F10104F8D8DC78997885
S31508003B1024031B88C90201F4006104F480540C4391
S31508003B20C3F30A035203234492B24FF000089C18C9
S31508003B30274B6FEA0444039325F07843ED4302A923
S31508003B400DF107001B2202938DF8078008F071FB20
S31508003B509DF80720029B02A943EAC2630DF10700FC
S31508003B601B2225F07845049302958DF8078008F006
S31508003B7060FB9DF80720029B6FEA144443EAC26380
S31508003B8005934FF0FF330794069307A9BB690122F3
S31508003B9006F110009847BB6905A90446012206F1FB
S31508003BA008009847BB69404518BF044604A9012286
S31508003BB0301D98470122404518BF0446BB69304668
S31508003BC003A99847404508BF204608B0BDE8F081DC
S31508003BD001009AB2044BD3F88420D206FBD4D3F85A
S31508003BE08400C0F3811070470040005038B5174B69
S31508003BF00546D3F828310C4603F00703013B052B8D
S31508003C0020D8DFE803F003131B0F0B170DF07EFD1A
S31508003C10052305B1286004B1236038BD0DF076FD93
S31508003C200623F6E70DF0B2FD0723F2E70DF0A8FD2F
S31508003C300323EEE70DF0A4FD0423EAE70DF09CFD4F
S31508003C400223E6E700231846E3E700BF008000509A
S31508003C50002337B50193164B0546D3F820320C4698
S31508003C6003F00703042B21D8DFE803F0030B111632
S31508003C701B0001230DB1019A2A6004B1236003B029
S31508003C8030BD002101A8FFF7B1FF1223F2E70DF0BE
S31508003C907DFD07230190EDE70EF0A8FE0A230190AB
S31508003CA0E8E70DF0C7FD09230190E3E70023E1E704
S31508003CB00080005038B5104B0546D3F880300C46C6
S31508003CC003F00303022B0BD0032B0DD0012B0FD1CE
S31508003CD00DF022FD0E2305B1286004B1236038BD1E
S31508003CE00DF054FD0723F6E70DF010FD0623F2E765
S31508003CF000231846EFE700BF0080005038B5104B88
S31508003D000546D3F800310C4603F00303022B0BD00B
S31508003D10032B0DD0012B0FD10DF032FD032305B176
S31508003D20286004B1236038BD0DF084FD0923F6E749
S31508003D300EF05AFE0823F2E701230020EFE700BF42
S31508003D400080005038B5184B0546D3F820010C46BC
S31508003D5000F00700062823D8DFE800F0040A0E164C
S31508003D60121A1E00012305B1286004B1236038BD6C
S31508003D700DF0CCFC0523F6E70DF002FD0323F2E770
S31508003D800DF004FD0723EEE70DF0F6FC0223EAE743
S31508003D900DF0BCFC0623E6E70DF0F2FC0423E2E78F
S31508003DA000231846DFE700BF0080005038B5104BE7
S31508003DB00546D3F840310C4603F00303022B0BD01B
S31508003DC0032B0DD0012B0FD10EF010FE0A2305B1DF
S31508003DD0286004B1236038BD0DF02CFD0923F6E7F1
S31508003DE00EF007FE0C23F2E701230020EFE700BFE1
S31508003DF000800050002337B50193164B0546D3F8CB
S31508003E0060320C4603F00703013B032B1FD8DFE89B
S31508003E1003F0020E1914002101A8FFF793FF1023DF
S31508003E200DB1019A2A6004B1236003B030BD0021A8
S31508003E3001A8FFF7BBFF1123F2E70DF0A7FC072344
S31508003E400190EDE70DF098FC02230190E8E70023C6
S31508003E50E6E700BF00800050002337B50193164BF4
S31508003E600546D3F894320C4603F00703013B032BAF
S31508003E701FD8DFE803F0020E1914002101A8FFF786
S31508003E8061FF10230DB1019A2A6004B1236003B0C3
S31508003E9030BD002101A8FFF789FF1123F2E70DF0D5
S31508003EA075FC07230190EDE70DF066FC02230190EF
S31508003EB0E8E70023E6E700BF0080005038B5104B5E
S31508003EC00546D3F860310C4603F00303022B0BD0EA
S31508003ED0032B0DD0012B0FD10EF088FD0A2305B157
S31508003EE0286004B1236038BD0DF0A4FC0923F6E769
S31508003EF00EF07FFD0C23F2E701230020EFE700BF59
S31508003F000080005073B50D460021114B0191D3F87E
S31508003F108041064604F00304022C13D0032C0CD06F
S31508003F20012C13D101A8FFF70DFF10240EB1019B38
S31508003F30336005B12C6002B070BD0DF027FC072474
S31508003F400190F3E70DF018FC0190EFE70C46EDE75A
S31508003F500080005038B5104B0546D3F840320C4661
S31508003F6003F00303022B0BD0032B0DD0012B0FD12B
S31508003F700EF03CFD0A2305B1286004B1236038BD64
S31508003F800DF058FC0923F6E70EF033FD0C23F2E793
S31508003F9001230020EFE700BF0080005038B5144B1E
S31508003FA00546D3F800020C4600F0070004281BD883
S31508003FB0DFE800F003090D111500012305B128609B
S31508003FC004B1236038BD0EF011FD0A23F6E70DF0A3
S31508003FD031FC0923F2E70EF00CFD0C23EEE70DF099
S31508003FE0B5FB0F23800AE9E700231846E6E700BF7A
S31508003FF00080005038B5144B0546D3F808020C4625
S3150800400000F0070004281BD8DFE800F003090D11AB
S315080040101500012305B1286004B1236038BD0EF0F0
S31508004020E5FC0A23F6E70DF005FC0923F2E70EF096
S31508004030E0FC0C23EEE70DF089FB0F23800AE9E785
S3150800404000231846E6E700BF00800050B0F5207F41
S315080040501FD009D8B0F5007F15D003D868B1B0F5E0
S31508004060C07F0AD000200CE0B0F5607FFAD10B4B78
S31508004070D3F88000C0F3011003E0084B186FC0F3B3
S31508004080033001307047054BD3F89000C0F3046045
S31508004090F7E7024B186FC0F38020F2E70080005064
S315080040A002464FF48030104B10B598660020FFF793
S315080040B0CDFF504341F671320C4BDC69DA635A681E
S315080040C004F4803422F4401259B90949884294BF4D
S315080040D000200120000502435A600CB10022DA6371
S315080040E010BD0449F2E700BF0090005000000350DD
S315080040F0005A6202002D3101430905D0012B0CD06C
S31508004100022B084B18BF002300F01F0039B103F536
S315080041108053012282401A607047034BF4E703F587
S315080041200053F6E768800050648000501FB50021F0
S31508004130B0F5807F0446CDE9001100F02B8100F22E
S3150800414094805D2800F28C801F2805D8002840F04E
S3150800415089800DF0FBFAF7E0A0F120043D2C00F26F
S31508004160818001A353F824F05341000857430008FF
S31508004170534100085743000877430008774300086F
S315080041807743000877430008774300085743000839
S315080041908B4300089B420008D5420008B743000835
S315080041A09B42000857430008574300085743000836
S315080041B06542000865420008654200086542000835
S315080041C06542000865420008654200086542000825
S315080041D0574300085743000857430008FB420008A6
S315080041E0CB430008574300086542000865420008AB
S315080041F065420008654200086542000865420008F5
S3150800420065420008654200086542000865420008E4
S3150800421065420008654200086542000877430008C1
S31508004220534100085341000853410008C1430008A0
S315080042309B4200089B420008D54300081943000822
S31508004240C542000881430008654200086542000827
S315080042506542000865420008654200083B430008BD
S3150800426080286FD0009804B010BDB0F5D06F00F06C
S31508004270A28034D8B0F5607F78D019D8B0F5007F21
S3150800428064D004D8B0F5C07F3FF463AFEAE7B0F571
S31508004290207F60D0B0F5407FE4D10DF057FA024692
S315080042A04FF42070FFF7D2FEB2FBF0F252085BE043
S315080042B0B0F5B06F69D00AD8B0F5806F5BD0B0F5AD
S315080042C0A06FCFD100216846FFF7C2FCCAE7B0F558
S315080042D0C06FC7D100216846FFF768FDC2E7B0F591
S315080042E0106F6DD00ED8B0F5086F78D0BAD8B0F583
S315080042F0E06F6AD0B0F5F06FB4D100216846FFF7D9
S31508004300DDFDAFE7B0F5406F3AD013D8B0F5206FB2
S3150800431060D0B0F5286FA5D10021334B0391D3F8AF
S31508004320703203F00303012B02D103A8FFF73EFD09
S31508004330039B39E0B0F5486F94D100216846FFF732
S315080043408BFD8FE70DF0E8F900908BE70DF0E4F9A7
S315080043500246204604E00DF0F9F902464FF42070B3
S31508004360FFF774FEB2FBF0F200927BE701A8FFF7B5
S31508004370A1FC019AEDE700216846FFF7E3FC71E727
S3150800438000216846FFF732FC6CE700216846FFF714
S31508004390B9FD67E74FF0E02302911B695B0705D576
S315080043A00DF0D4F90290029B00935BE703A902A8DB
S315080043B0FFF7FCFCF7E700216846FFF7EFFD51E73A
S315080043C000216846FFF716FE4CE700216846FFF70E
S315080043D0C1FD47E700216846FFF70CFD42E768463E
S315080043E0FFF78CFC3EE700BF0080005008B5802030
S315080043F0FFF79CFE034B98429EBF4FF48032024B58
S315080044001A6708BD005A620200A00050B0F5207F66
S3150800441010B50C465DD008D8B0F5007F4ED003D84D
S31508004420C0B1B0F5C07F15D010BDB0F5607FFBD127
S315080044302C4B4C1ED3F8FC202B4912F0807F4FEAF8
S31508004440041427D1D1F8803023F030032343C1F870
S315080044508030E9E707F00BFF07F017FF4FF48031CC
S31508004460224B214A1967136F013C23F4704343EA30
S31508004470043313670DF06AF90446FFF7ABFBC0F186
S315080044800201204607F0FBFE00F04AF8BDE810409E
S31508004490FFF7ACBFD3F8FC2022F08072C3F8FC20EB
S315080044A0D1F8802022F030022243C1F88020D3F8C8
S315080044B0FC2042F08072C3F8FC20B5E70A4A4C1E7D
S315080044C0D2F8903023F0F85343EA0463C2F89030E8
S315080044D0AAE7054A4C1E136F23F4806343EA842334
S315080044E01367A1E700ED00E000800050009000503F
S315080044F008B50121022000F057F84FF42070FFF7A5
S31508004500A5FD054B187007F0B2FE07F0BEFE4FF486
S315080045108032024B1A6708BDB21F00200090005077
S3150800452008B54FF4C070FFF701FEBDE8084004491E
S31508004530884294BF012102214FF42070FFF766BF1D
S3150800454080F0FA0238B504460DF000F90546FFF783
S3150800455041FBC0F10201284607F091FE0121002027
S3150800456000F062F82CB1FFF7DBFFBDE83840FFF733
S315080045703DBF034B4FF420701978FFF747FFF4E768
S31508004580B21F0020024A536B0342FCD1704700BF9A
S3150800459000400950034A0179D36E23F030030B43D8
S315080045A0D366704700400050F8B504461C4BD3F854
S315080045B08420D106FBD4D3F88430C3F381139C42FC
S315080045C02CD00DF0A9F8012C064602D1214607F099
S315080045D056FE0FF01FF94FF00072124B07465A6647
S315080045E0204607F057FE4FF480630D4D621E934038
S315080045F02B676B6E9A0103D4D5F884309B060AD5CF
S3150800460038460FF002F9022C08D13046BDE8F840CA
S31508004610002107F034BED5F88430EAE7F8BD00BFBC
S31508004620004000500060005010B50C4608B90DF067
S3150800463073F8074B21461B783BB1064B984204D8C2
S315080046400120BDE81040FFF7AFBF0220F9E700BF21
S31508004650B31F0020005A62024FF0004238B5244BBF
S31508004660244C5A664AF6CD33656C014605F00105B9
S31508004670236428BB0120FFF785FF6368DB0715D590
S315080046801D4B586008461D4B226BD2070CD4984226
S3150800469008D1072415B1174B194A1A6407F0FBFD10
S315080046A0204638BD0130EFE79842F2D00024F1E702
S315080046B00132236B13F0080305D08A42F8D1E8E7E4
S315080046C000220E49F5E78A42E3D020210A4A916280
S315080046D00121A2F5805251600649084A886A800677
S315080046E003D49342D5D00133F8E79342DDE700BF00
S315080046F000900050004009500060095040420F00E9
S315080047003254FFFF4FF0004238B5164B01465A6641
S315080047104AF6CD33144C154A656C236443780B204E
S315080047205B0043F00103D363FFF72CFF63688A78C5
S3150800473023F4F87343EA02136360CA784B7943EAB1
S315080047400223A3600A798B7943EA02232361087856
S31508004750FFF782FFEB0744BF054B236407F09BFD79
S31508004760012038BD0090005000400950004000501C
S315080047703254FFFF4FF00042124B70B55D6E03F5E1
S3150800478080535A664AF6CD3304460F4980204E6C4C
S315080047900B64FFF7F7FE0B6A23F00F030F2C94BF89
S315080047A0234343F00F030B62F30744BF074B0B6425
S315080047B0002DA2BF4FF00042054B5A6607F06BFD6D
S315080047C070BD00BF00800050004009503254FFFF02
S315080047D000A000504FF48032054B9A6641F67132BC
S315080047E003F51C33DA63012203F50053DA607047D8
S315080047F0009000500B4B01219B6EDB035EBF4FF40C
S315080048008032094B9A6641F67132084BDA63084AD8
S31508004810D1600022DA634FF48032A3F518339A6622
S31508004820704700BF00800050009000500000035001
S3150800483000200350044B1868421C02BF034AD2F8F2
S3150800484094001860704700BF4822002000400050BE
S315080048504FF48032064B5A6603F5E6239B69C3F389
S315080048608512827003F03F021B0B4270037070477B
S31508004870009000500120034B9B680A3303F01F0386
S31508004880984070470080E00F07B5094B18689A886A
S315080048909B7900906846ADF804208DF80630FFF73E
S315080048A031FF0C20FFF766FF002003B05DF804FB1C
S315080048B01341010813B50024064A6846536F43F0AE
S315080048C00103536700948DF80440FFF763FE204602
S315080048D002B010BD004000500028ACBF00F1604097
S315080048E0064B4FEA0111C9B2ABBF00F5614000F0B3
S315080048F00F0080F800131954704700BF14ED00E04C
S3150800490008B50EF090FF0B4B1A7872B901221A708F
S315080049100EF084FF6FF0040210460132052152B2F0
S31508004920FFF7DAFF4C2AF7D108BDBDE808400EF0BC
S3150800493075BF00BFB41F0020002807DB012341090B
S31508004940034A00F01F00834042F82130704700BF39
S3150800495000E100E0002808DB01224309034900F0D2
S315080049601F008240603341F82320704700E100E0D1
S3150800497073B50EF058FF0D4D0D4B2E781C680EF0D2
S315080049804DFF0EF0E6F838B1FF2E05D00020297845
S3150800499001AA06F0E0FE019C2CB90EF044FF054B77
S315080049A01C680EF03BFF204602B070BD0D230020A8
S315080049B0B0120020B412002010B504460EF033FFE2
S315080049C0024B1C600EF02AFF002010BDB412002016
S315080049D013B5002301241A4619461846009404F014
S315080049E0FDFE002300941A461946184604F028FFCF
S315080049F00248FFF7E1FF002002B010BD6022002048
S31508004A0013B5094C684600F03FF8237853B9DDE939
S31508004A1000010222054B08F0FFF808B901232370AC
S31508004A2002B010BD1220FBE7B51F0020B812002007
S31508004A3007B5009313460A460146034807F0B9FC32
S31508004A4003B05DF804FB00BFB812002013460A46FF
S31508004A500146014807F09DBDB812002007B500932E
S31508004A6013460A460146034807F096FE03B05DF86A
S31508004A7004FB00BFB812002013460A460146014847
S31508004A8007F0B0BEB81200200249034A0160521A64
S31508004A9042607047202D00200000022008B50CF067
S31508004AA075FA034B1868BDE808400EF054B800BF05
S31508004AB0E012002030B5094D8BB001AC0FCD0FC404
S31508004AC00FCD0FC42B68002101AA054823600DF0FD
S31508004AD0EDFF044B18600BB030BD00BF2041010844
S31508004AE09D4A0008E012002010F1860F1DD010F133
S31508004AF0850F08DA10F1930F1AD010F1870F07D037
S31508004B004FF0FF307047003818BF01204042704709
S31508004B100A4B99420FD001F17E41083901298CBF11
S31508004B206FF06D006FF0730070476FF0710070479B
S31508004B306FF06F0070476FF0720070470500000253
S31508004B40012910B50CDC084C084B00290CBF21467E
S31508004B50194600F053FD2146BDE81040FFF7C4BFD3
S31508004B606FF0730010BD00BF0900000208000002C4
S31508004B7008B508F04FFCBDE808400149FFF7B4BF87
S31508004B8009000002002307B52022019301AB08F0B3
S31508004B905DFC034903B05DF804EBFFF7A5BF00BF52
S31508004BA00900000210B5044C214600F027FD2146F5
S31508004BB0BDE81040FFF798BF0500000208B508F0E9
S31508004BC029FCBDE808400149FFF78EBF0500000231
S31508004BD0002307B51422019301AB08F037FC0349FB
S31508004BE003B05DF804EBFFF77FBF00BF05000002C6
S31508004BF038B5134D04F094F8124B134A1349144868
S31508004C0003F0D8FD2B7803F0FF04BBB90CF02EFE99
S31508004C10012802D90DF012FF04462B782BB90D4B4B
S31508004C200D481B68984701232B700CF01FFE0128BE
S31508004C3004D92046BDE838400DF016BF38BD00BF80
S31508004C40B61F002009CD0008EBCC000823CD0008CC
S31508004C502DCD0008802200203C15002000F01F0200
S31508004C60A0F50620A0F55060812810D8012309492F
S31508004C704009934051F820201A4341F8202006495C
S31508004C8051F8202022EA030241F8202070474FF00D
S31508004C90FF307047F8120020E412002000F01F03CE
S31508004CA0A0F50620A0F55060812810B519D8012175
S31508004CB00D4A4009994052F820300B430B4942F8F7
S31508004CC02030D1E9004323448C682344CC68096921
S31508004CD023445B1804D1C2E90033C2E902331361E5
S31508004CE010BD4FF0FF30FBE7E4120020F812002059
S31508004CF02DE9F04FA7B003921F4604460822CDE9D6
S31508004D000401414021FA02F34B40980702F10802D8
S31508004D1018BF9B00202A1C44F4D18123B4FBF3F36B
S31508004D2003EBC313E41A7F4B04F506241B7804F53A
S31508004D305064002B39D104F0D3FD054600286FD105
S31508004D400146402206A80CF0EFFB2946402216A889
S31508004D500CF0EAFB744D754EA8461035AE4228BFD6
S31508004D602E467348013E009643461022006806A95F
S31508004D7007F089F84FF0000B81460DF1180AD9455E
S31508004D8041D16B48009643461022006816A907F0E1
S31508004D9083F84FF00008834616AEC34546D1654BE7
S31508004DA09D42D8D101225F4B1A704FF08108002628
S31508004DB0DFF894B1A4F50625A5F550635B095BF801
S31508004DC0232004F01F01CA40D20746D45A4A52F893
S31508004DD02330CB40DB0732D58123002E08BF264679
S31508004DE0A5F6FF44B4FBF3F303EBC313E41A04F587
S31508004DF00624B8F1010804F55064DBD1039B03B31C
S31508004E00FEB1344625E05AF8040BFFF727FF0130B8
S31508004E1009D10022434B1A70424B1B78002BC4D190
S31508004E206FF091000FE00BF1010BA8E756F8040BA1
S31508004E30FFF734FF0130EFD008F10108ADE7039B17
S31508004E4023B96FF08B0027B0BDE8F08F002E18BF8E
S31508004E503446329B00201C60F5E7309B13B10023D3
S31508004E60309A1360319B13B10023319A13604FF0C7
S31508004E70100ADFF8BC90CDF800A000233A46214678
S31508004E80D9F80000FEF7CAFB002838D130993A68ED
S31508004E902A4BE9B19A42C1F800A01CD02146D9F89C
S31508004EA00000FEF715FD0028CBD1D7E90223DDE97E
S31508004EB00410834208BF8A422AD08123A5F6FF45FB
S31508004EC0B5FBF3F303EBC313ED1A05F5062490E7D8
S31508004ED09A42EAD0E2E7319B002BE6D02146D9F880
S31508004EE0000016AAFEF7E0FB48B9319B309A1B680A
S31508004EF01268934294D39B1A319A1360D5E7104BE4
S31508004F009842CBD06328C9D00E4B9842CDD087E7BC
S31508004F10039B002B9DD07B68012B9AD16FF08400F0
S31508004F2091E700BFB71F0020006D0800816D0800DB
S31508004F308C220020906D0800E4120020105D175E98
S31508004F40FFDF00F0FEDF00F0F812002070B5124D0A
S31508004F502B7803F0FF04CBB90CF088FC012802D9A2
S31508004F600DF06CFD04462B784BB90C48436D43F0A5
S31508004F70010343650A4B1B68984701232B700CF005
S31508004F8075FC012802D920460DF06EFDBDE870407B
S31508004F90044B02481B681847B81F00200C13002052
S31508004FA08022002078220020034B1B781BB1034B7C
S31508004FB003481B6818477047B81F00207422002052
S31508004FC00C1300202DE9F04F87B082468946984693
S31508004FD01646DDF840B02AB1002B57D040F26C7364
S31508004FE09A4256D8BBF1010F56D8002406F110078D
S31508004FF039460120059407F0EBFB054600284ED0FC
S3150800500021463A460CF090FAFFF7A0FF05ABCDE92A
S31508005010014300942B46012250464946FFF768FE95
S31508005020044690B110F18C0F08BF6FF08D043A4614
S31508005030002128460CF078FA284607F0ABFBFFF764
S31508005040B3FF204607B0BDE8F08F164BC5E902A9A5
S315080050502B60C5F804B02EB13246414605F1100062
S315080050600CF046F9059E10483B462A46314600682C
S31508005070FEF7EAFB38B93046FFF7F0FD013008BF06
S315080050806FF08604D3E76FF09104D0E76FF08604DB
S31508005090D7E76FF09104D4E76FF08504D1E76FF096
S315080050A08C04CEE7105D175E8C2200202DE9F047B0
S315080050B08CB08146DDE914780C4616461D466BB160
S315080050C0B8F1000F49D0002F47D0B7F1005F44D39D
S315080050D0C3F1005303F500339F423ED84FF0000A50
S315080050E01022002108A80CF01FFACDE905AAFFF73F
S315080050F02DFF07AB029305AB019306AB2146009340
S315080051005246484608ABFFF7F3FD0446D0B9059B5F
S315080051103DB1B3421CD853EA060504D06FF08604A5
S3150800512010E0B342FAD3069B0D48C8F80050009524
S315080051303A46079900683344FEF770FA002818BF04
S315080051406FF09104FFF730FF20460CB0BDE8F087FA
S315080051509B1B9D4228BF1D46E5E76FF08604F3E7D3
S315080051608C22002070B500260C4605468CB010220D
S31508005170002108A80CF0D8F9CDE90566FFF7E6FE88
S3150800518007AB029305AB019306AB21460093324663
S31508005190284608ABFFF7ACFD044608BB099B012B64
S315080051A023D0079D144B29461868FEF791FBF8B9DA
S315080051B0A5F50623A3F55063812B05F01F020DD82C
S315080051C001210E485B09914050F823204A4040F8D7
S315080051D023202846FFF762FD013001D16FF08604CF
S315080051E0FFF7E2FE20460CB070BD6FF08404F7E7C7
S315080051F06FF09104F4E700BF8C220020F81200201B
S31508005200F8B5134642880C460732072A4FEAD201F8
S3150800521001D0A1424DD1D0E9016705882022184660
S3150800522000210CF081F9360A0346002E44D1002CE1
S315080052303FD041F20102954205D0B5F5885F02D00C
S31508005240B5F5905F02D15C60002011E0B5F5105FFE
S3150800525007D1182C03D0202C01D0102C29D11C6082
S31508005260F1E705F44F42B2F5824F02D06FF08500A0
S31508005270F8BDEAB2122AF9D1202CF7D1104A25F046
S31508005280FF05B5F5E24F02600CD0B5F5824F10D197
S315080052904FF4005217F4705F09D017F4864F04D004
S315080052A09A60E3E74FF48042F4E742F480629A603A
S315080052B0CAE76FF08600DBE76FF08B00D8E700BF20
S315080052C0200000802DE9F04F99460388164603F41E
S315080052D04F42B3B0B2F5824F0F46DDF8F88002D0E0
S315080052E06FF0850002E021B96FF0860033B0BDE8A3
S315080052F0F08F002EF8D0B8F1000FF5D0DAB2122AE6
S31508005300EED123F0FF03B3F5E24F34D14388C8F852
S3150800531000305BBBF300C8F80030B3F5807FDFD1FF
S31508005320002318464F49BC19314411F8015D14F899
S31508005330012D1043521B0CBF4FF0FF350025A74225
S3150800534003EA050343EA0203EFD10028CCD0002B79
S31508005350CADA3C9B9E4200F282803246394648466B
S315080053600BF0C6FF3D9B00201E60BFE7DA1DB6EBBB
S31508005370D20FD2D0B8E7B3F5824F6DD10B78042B94
S31508005380B2D12822002118A80CF0CEF818A80EF0E1
S315080053908BFA824600285CD101463C22229023A83B
S315080053A00CF0C2F801232022514668468DF8883051
S315080053B00CF0BAF820224FF0400B741E7B1C5146A5
S315080053C005940DEB0200E400049322AD0CF0ACF852
S315080053D06408202251460DEB0B000C95CDF834B02D
S315080053E00CF0A2F8B4F5C07FCDE9145BC8F800400C
S315080053F03FF476AF28D8E02C03D0B4F5807F7FF44D
S3150800540073AF194B0734009308934FF40053029374
S315080054104FF48043E4086A460A93640010AB08A96F
S3150800542018A8119403F0F4FED8F800300733DB0807
S315080054305A0033B10021531E013B297005F10105BD
S31508005440FAD2002885D04FE7B4F5047F3FF448AF79
S315080054504AE76FF0920049E76FF0960046E76FF06B
S31508005460890043E74441010820000080154A20F4DA
S31508005470FF7323F0010393420ED0134B20F0FF0273
S315080054809A4209D0114920F47F7323F003038B4213
S3150800549002D00F4B9A420FD110F0FF0011D00D4BDE
S315080054A040F00070984209D00133984208D0043B76
S315080054B0C31A584258417047002070470220704767
S315080054C003207047000200060013000600040006C9
S315080054D00009000608000002038830B503F44F44AB
S315080054E0B4F5824F21F0FF0421F4FF71154D21F028
S315080054F0010109D0A9421ED0134B9C4214BF6FF07C
