S01C00006275696C642F64656275672F67656E657261746F722E7333379C
S315080000000004002089110008E3A20008E3A2000802
S31508000010E3A20008E3A20008E3A20008E3A200089E
S31508000020E3A20008E3A20008E3A20008C915010834
S31508000030E3A20008183701086D150108AB25010869
S31508000040E3A20008E3A20008E3A20008E3A200086E
S31508000050E3A20008E3A20008E3A20008E3A200085E
S31508000060E3A20008E3A20008E3A20008E3A200084E
S31508000070E3A20008E3A20008E3A20008E3A200083E
S31508000080E3A20008E3A20008E3A20008E3A200082E
S31508000090E3A20008E3A20008E3A20008E3A200081E
S315080000A0E3A20008E3A20008E3A20008E3A200080E
S315080000B0E3A20008E3A20008E3A20008E3A20008FE
S315080000C0E3A20008E3A20008E3A20008E3A20008EE
S315080000D0E3A20008E3A20008E3A20008E3A20008DE
S315080000E0E3A20008E3A20008E3A20008E3A20008CE
S315080000F0E3A20008E3A20008E3A20008E3A20008BE
S31508000100E3A20008E3A20008E3A20008E3A20008AD
S31508000110E3A20008E3A20008E3A20008E3A200089D
S31508000120E3A20008E3A20008E3A20008E3A200088D
S31508000130E3A20008E3A20008E3A20008E3A200087D
S31508000140E3A20008E3A20008E3A20008E3A200086D
S31508000150E3A20008E3A20008E3A20008E3A200085D
S31508000160E3A20008E3A20008E3A20008E3A200084D
S31508000170E3A20008E3A20008E3A20008E3A200083D
S31508000180E3A20008F1360008E3A20008E3A200088B
S31508000190E3A20008E3A20008E3A20008E3A200081D
S315080001A0E3A20008E3A20008E3A20008E3A200080D
S309080001B0E3A20008B0
S315080001B4F0B5114A114C124E00F00105E3695F07C8
S315080001C413D40DB9334213D103EA00078F4207D17A
S315080001D40B4A1A40002A0CBF00206FF00100F0BD3C
S315080001E4013AEBD16FF00200F9E74FF0FF30F6E77A
S315080001F46FF00100F3E700BF8096980000000350F3
S31508000204020001000B4B70B5D96911F480310DD188
S3150800021401244FF48072084E084DF46020462C647D
S315080002241A61FFF7C5FF3464EC6070BD6FF0010016
S31508000234FBE700BF000003500010035000200350E2
S315080002444FF4803238B50E4B0E4C9A66E56941F682
S31508000254713315400122E3630B4B0021DA60022354
S31508000264606121202361FFF7A3FF10B92120FFF75E
S315080002749FFF0122054BDA600DB10023E36338BD05
S315080002840090005000000350001003500020035053
S3150800029470B5134C6061E3695B071ED40E4656F8C5
S315080002A4043B8D18A361AE420BD1042300212120FF
S315080002B42361FFF77DFF58B9BDE870402120FFF799
S315080002C477BF08210846FFF773FF10B1042323619B
S315080002D470BD56F8043BA361E5E74FF0FF30F7E736
S315080002E4000003502DE9F84315464FF48032184BA5
S315080002F489469A6603F51C33DF690646174041F6B4
S315080003047132DA63012203F58053DFF84C80DA6030
S3150800031455B9284601220F4BDA601FB10022A3F50E
S315080003240053DA63BDE8F88306F5005404EA0804C2
S31508000334A41BAC4228BF2C46494622463046FFF742
S31508000344A7FF0028E6D12644A1442D1BE0E700BFF9
S31108000354009000500020035000E0FFFF5E
S315080003600348044B834202D0034B03B11847704736
S31508000370F42C0020F42C002000000000064B07494E
S31508000380C91A891048BF0131491003D0044B0BB173
S3150800039001481847704700BFF42C0020F42C0020B1
S315080003A00000000010B5064C237843B9FFF7D8FFC4
S315080003B0044B13B10448AFF300800123237010BD2A
S315080003C0F41D002000000000044B010808B5054B89
S315080003D01BB105490548AFF30080BDE80840FFF7A3
S315080003E0CDBF00BF0000000068040020044B0108D0
S315080003F0A3F5803A704700BF174B002B08BF134B75
S315080004009D46FFF7F5FF00218B460F461348144A11
S31508000410121A10F090FD0E4B002B00D098470D4B8A
S31508000420002B00D098470020002104000D000D483D
S31508000430002802D00C48AFF3008008F0BBFF20006C
S3150800044029000CF0A5F908F01FFF00BF00000800FE
S315080004500000000000000000000400200004002046
S31508000460C01F00200000000000000000012903BF93
S31508000470034B00201B78A62008BF1370704700BFE7
S31508000480151E0020022938B514461D460FD1202214
S315080004900021084810F04FFD3CB1202D2A46214680
S315080004A028BF2022034810F02AFC002038BDA620C9
S315080004B0FCE700BFF51D0020104608B56AB163B118
S315080004C002290CD1202B28BF20231A46029B054956
S315080004D01A6010F014FC002008BD2F20FCE7A620A7
S315080004E0FAE700BFF51D0020012905D102B11278EF
S315080004F0024B00201A707047A6207047151E002070
S315080005002DE9F0431D46002389B0074608460E46E6
S315080005101446CDE9053300F06DFC18B9D82009B0AA
S31508000520BDE8F083304605A900F0CEFC0028F6D1D8
S31508000530204600F05FFC0028F0D0204606A900F00F
S31508000540C3FC0028EBD1DDE90596079007A91848F2
S3150800055000F0BAFC044600BB079919EB01081ED146
S315080005600EB110F0D9FB022009F027FEA0B1079BB7
S31508000570022100931F203B46CDE901960D4A09F05A
S315080005800FFE6B689E4210D832464146286810F026
S31508000590B8FC6B689E42E4D86E602046BFE702202E
S315080005A009F00BFE0028ECD0E1E71924F5E700BFB7
S315080005B02172080000340108014800F093BD00BF0D
S315080005C000720800002307B50348019301AB00F049
S315080005D0A3FC03B05DF804FB00720800014800F0B4
S315080005E053BD00BF0C72080010B506480C4600F053
S315080005F03FFC40F20123984202BF4FF6F1730020F8
S31508000600238010BD0C720800014800F06BBD00BFC6
S315080006100D720800002307B50348019301AB00F0EB
S315080006207BFC03B05DF804FB0D720800014800F07E
S315080006302BBD00BF0B72080010B506480C4600F02B
S3150800064017FC40F20123984202BF48F2010300203A
S31508000650238010BD0B720800014800F043BD00BF9F
S315080006600E720800002307B50348019301AB00F09A
S3150800067053FC03B05DF804FB0E720800014800F055
S3150800068031BD00BF10720800002307B50348019367
S3150800069001AB00F041FC03B05DF804FB10720800E2
S315080006A0014800F01FBD00BF11720800002307B5FE
S315080006B00348019301AB00F02FFC03B05DF804FB7F
S315080006C011720800014800F00DBD00BF1272080043
S315080006D0002307B50348019301AB00F01DFC03B0E6
S315080006E05DF804FB12720800014800F0CDBC00BF9B
S315080006F01872080010B505480C4600F0B9FB40F220
S315080007000123984204BF0020208010BD18720800FB
S31508000710014800F0E7BC00BF0F72080073B5002659
S3150800072001AB0E480C461546019600F0F5FB40F263
S31508000730012398420BD164B10C2D0CD920462A46C8
S31508000740074910F002FB30462C4404F8016C02B04D
S3150800075070BD0B20FBE71920F9E700BF0F720800F0
S315080007601E340108014800F0BDBC00BF0472080031
S31508000770014800F0D1BB00BF04720800014800F030
S31508000780CBBC00BF1F72080007B5002000900348C5
S3150800079000F018FC03B05DF804FB00BF1F720800E8
S315080007A0014800F071BC00BF0772080037B512484F
S315080007B00D4600F05DFB40F201239842044604D141
S315080007C04FF470632B80002014E098B92B88B3F59A
S315080007D0805FF8D3012009F0F0FC50B14FF4C273E2
S315080007E02F220121CDE900322046044B044A09F0A4
S315080007F0D7FC2F2003B030BD077208002B34010840
S315080008004B340108014800F057BC00BF08720800C5
S3150800081010B506480C4600F057FB40F201239842F3
S3150800082002BF4FF47A730020236010BD08720800D7
S31508000830014800F057BC00BF09720800014800F0E3
S315080008406BBB00BF09720800014800F04BBC00BF33
S315080008500A720800014800F05FBB00BF0A72080070
S315080008600B46024A02490348FFF74ABE27720800A8
S31508000870267208005C3401080B46024A02490348FE
S31508000880FFF73EBE25720800247208007834010876
S315080008900B46024A02490348FFF732BE2372080094
S315080008A0227208009E340108022307B5D1E9001216
S315080008B001A8019307F08AFA18B90199024800F0CD
S315080008C0FBFB03B05DF804FB207208001FB502208D
S315080008D003900698009003A807F090FA18B90399B0
S315080008E0024800F0E9FB05B05DF804FB2072080039
S315080008F0002370B5154886B00D461646049300F0D9
S3150800090079FA08B3114804A900F0DEFAD0B9049BB5
S315080009103246002B08BF0223294605A8059307F08F
S31508000920D5FA0446022009F048FC50B102947368CF
S31508000930022101936B681F200093054A049B09F066
S315080009402FFC204606B070BDD824EBE720720800BD
S31508000950B7340108014800F0AFBB00BF2172080098
S31508000960014800F0B1BA00BF21720800014800F042
S31508000970B9BB00BF29720800014800F0CDBA00BF14
S3150800098029720800014800F0C7BB00BF05720800BD
S3150800099007B500200090034800F014FB03B05DF88B
S315080009A004FB00BF05720800014800F055BB00BFF4
S315080009B028720800014800F02FBA00BF2872080004
S315080009C0032307B5D1E9001201A8019300F086F9BF
S315080009D018B90199024800F06FFB03B05DF804FBF3
S315080009E030720800014800F06FBA00BF3072080084
S315080009F04A6808B5102A01D02F2008BD09680248A0
S31508000A0000F08AFBF9E700BF177208001FB500233C
S31508000A104A680C460F2A03930FD90093102203AB9A
S31508000A200968074800F0CEFA63680F2B01D810F062
S31508000A3073F91023636004B010BD1920FBE700BFEB
S31508000A401772080000200A4B10B5186032B9094C15
S31508000A502146BDE81040084800F02EBBA1F500511C
S31508000A608C18064809F0FCFB204608F011FAEFE757
S31508000A708004002000E03108217208009404002058
S31508000A8000232DE9F04F85B080460F462C4803A970
S31508000A901546039300F018FA002838D1294E039911
S31508000AA033681BB9284809F0BEFB80BBD5E900149A
S31508000AB03368039A02EB030B14F003031BD10A46AF
S31508000AC023465946204809F0B4FB00BB4046316826
S31508000AD000F0F2FAD8B93846696800F0EDFAB0B90C
S31508000AE032686B680020134413F03F021CBF403382
S31508000AF09B1A33600BE004F1040AAAEB030A50467A
S31508000B00019100F0CBF80199814618B9AC2005B0DF
S31508000B10BDE8F08F224610F0F2F8AAEB0402FF2196
S31508000B2009EB040010F007FA53464A4659460648A8
S31508000B3009F07FFB0446484600F0C0F82046C4E7A3
S31508000B4021720800800400209404002008B50A4693
S31508000B5002480349FFF794FF08BD00BF2272080048
S31508000B602372080008B50A4602480349FFF788FFBA
S31508000B7008BD00BF247208002572080008B50A4699
S31508000B8002480349FFF77CFF08BD00BF267208002C
S31508000B90277208001FB513460022039203AA019282
S31508000BA0202200920A46014604480EF0DDF8002885
S31508000BB014BFAC20002005B05DF804FB0900000254
S31508000BC0014B09F03EBA00BF679F000838B5094BCC
S31508000BD0D3E8EF2F541CC3E8E54F002DF8D1002ABF
S31508000BE004DC00F03FF808B110F096F84FF000006A
S31508000BF038BD00BF840400202D2828BF002010B46B
S31508000C00074C04EB8000074CD4E8AF4F1CB1A44650
S31508000C105DF8044B60475DF8044B09F0D9BA00BF8C
S31508000C200235010888040020024BD3E88F0FC0B2B2
S31508000C30704700BF10230020024608B5064BD3E8CC
S31508000C40AF3F3BB9054B06491B68D86808F044FF17
S31508000C5010F062F808BD00BF8C040020B422002002
S31508000C60B635010808B50A4BD3E8EF2F511CC3E87F
S31508000C70E01F0028F8D1002A07DD064B06481B6846
S31508000C80D96808F03BFF10F047F8002008BD00BF00
S31508000C908C040020B4220020FE35010838B504462D
S31508000CA00548FFF7C9FF204608F054FE05462146C9
S31508000CB009F08CFA284638BD3136010810B50446C5
S31508000CC00548FFF7B9FF2046002109F080FA2046BB
S31508000CD0BDE8104008F046BE3D36010870B504462A
S31508000CE088B000680D46164609F073FA23684FF473
S31508000CF00071079301230B4A02A8CDE902230A4B88
S31508000D003246CDE9041300232946069301AB0DF0BC
S31508000D10B8FF014618B1054808F070FBAC2008B0CA
S31508000D2070BD00BF002480000010C00448360108CA
S31508000D30014B1960704700BF90040020014B1960F1
S31508000D40704700BF90040020014B0360704700BF46
S31508000D50C436010810B50446034B082103600BF09E
S31508000D6048FC204610BD00BFC43601080448054BA0
S31508000D70054A03600023054943600FF01ABE00BF09
S31508000D8094040020C43601086C210020490D00088F
S31508000D9037B50E4D2C686CB90323224621460093BD
S31508000DA001200B4B12F0EEF9234622462146286015
S31508000DB011F02FFF286808B90FF0AEFF4FF0FF318A
S31508000DC003B0BDE8304012F078B800BFEC0400204C
S31508000DD09C040020064B10B5186808B90FF09CFF54
S31508000DE00023BDE810401A46194611F012BF00BF8D
S31508000DF0EC04002007B5014606486A4601AB0068C0
S31508000E0001F068FB09F038FAB0FA80F0400903B03F
S31508000E105DF804FB902200207FB5002304460D46AA
S31508000E208DF8073009F034FAD0B1104E21463068F3
S31508000E3003AB02AA01F04EFB09F01EFA70B9039B38
S31508000E40012B10D1214630680DF1070201F0BCFADA
S31508000E5009F012FA10B99DF807302B7004B070BD6E
S31508000E6040F20120FAE72F20F8E700BF9022002081
S31508000E707FB5002304460D46ADF8063009F008FA9A
S31508000E80D0B1104E2146306803AB02AA01F022FB0E
S31508000E9009F0F2F970B9039B022B10D1214630688C
S31508000EA00DF1060201F090FA09F0E6F910B9BDF85D
S31508000EB006302B8004B070BD40F20120FAE72F20DF
S31508000EC0F8E700BF902200207FB5002304460D46B0
S31508000ED0039309F0DDF9C0B10E4E2146306802AB26
S31508000EE001AA01F0F7FA09F0C7F960B9029B042BC9
S31508000EF00ED12146306803AA01F066FA09F0BCF95A
S31508000F0008B9039B2B6004B070BD40F20120FAE7D4
S31508000F102F20F8E7902200202DE9F0431D460023F4
S31508000F2085B02B6007460E46914609F0B1F90028B0
S31508000F303ED0DFF88C803946D8F8000003AB02AA09
S31508000F4001F0C8FA09F098F90446B8B9039B93B3B7
S31508000F50C6B14B4531D232463946D8F8000001F0C1
S31508000F6033FA09F089F9D8B9039B012B03D13378F1
S31508000F70003B18BF012300222B60F254204605B01F
S31508000F80BDE8F083012B01D02B60F7E73946D8F886
S31508000F9000000DF1070201F017FA09F06DF908B122
S31508000FA00446EBE79DF8073003B103982860E5E7A8
S31508000FB040F20124E2E71E24E0E71924DEE700BF39
S31508000FC0902200202DE9F04F1D46002385B02B60A6
S31508000FD0074688461646DDF838A009F059F9A0B341
S31508000FE0DFF870B03946DBF8000003AB02AA01F05F
S31508000FF071FA09F041F90446A8B9B8F1000F12D000
S31508001000039BDBF80000A3EB0A09B1450FD853464A
S3150800101042463946CDF8009001F016FA09F02CF947
S31508001020B0B9C5F80090204605B0BDE8F08F534624
S3150800103042463946009601F007FA09F01DF90446BA
S315080010400028F0D119242E60EDE740F20124EAE7E2
S315080010500446E8E79022002013B504468DF80710E9
S3150800106009F016F958B107480123214600680DF121
S31508001070070201F0FDFA09F0FFF802B010BD2F20B3
S31508001080FBE700BF9022002013B50446ADF8061012
S3150800109009F0FEF858B107480223214600680DF109
S315080010A0060201F0E5FA09F0E7F802B010BD2F20B4
S315080010B0FBE700BF9022002013B50446019109F012
S315080010C0E7F858B104230648214600680DEB0302E9
S315080010D001F0CEFA09F0D0F802B010BD2F20FBE7D8
S315080010E09022002010B5044609F0D2F868B179B10B
S315080010F00848012A1346006838BF01230A462146D4
S3150800110001F0B6FA09F0B8F810BD40F20120FBE785
S315080011102F20F9E79022002010B5044609F0B8F808
S3150800112058B101B962B90748134600680A4621460C
S3150800113001F09EFA09F0A0F810BD40F20120FBE785
S315080011402F20F9E790220020BFF34F8F0549064B61
S31508001150CA6802F4E0621343CB60BFF34F8F00BF47
S31508001160FDE700BF00ED00E00400FA050348044A65
S315080011700449121A921009F0B5B800BFB401000864
S3150800118060030008C01F002008B5154B83F30A88C2
S3150800119000F030F8FFF7EAFF124B13498B4212D3DF
S315080011A00020124B12498B4218D3FFF725F918680D
S315080011B050F82240586840F8224001329868824226
S315080011C0F5D30C33EAE70022F8E71C6844F8220056
S315080011D001325C68A242F8D30833E4E70022F8E754
S315080011E0000000200C4B0108184B0108184B010899
S315080011F0184B01084FF48041144B154A70B59A6094
S31508001200D3F88820134D42F47002C3F88820124A96
S3150800121005F5005491664FF0FF3222666FF40032EE
S3150800122062660D22A2660222C3F8D020BFF34F8F52
S31508001230BFF36F8F4FF44036002003F08FFD002078
S31508001240E66003F07DFD2E6170BD00BF00ED00E095
S315080012500000000800800044009000502DE9F04F7F
S31508001260144605460E469B46C36B87B001225B694A
S3150800127002A960689847EB6B01225B6903A93046AF
S31508001280984702A809F034FC074648B10023A3751D
S3150800129063754FF0FF33A360002007B0BDE8F08FF9
S315080012A003A809F032FC0123A375237E04EBC303CC
S315080012B0DE611F846368B3420ED1206003A809F07B
S315080012C046FC4FF0FF332075A360237D043B022BB9
S315080012D026D80023A375DFE723681A1A5342534119
S315080012E0A37503A809F033FC237D834218BFA775AD
S315080012F003A809F00EFC074602A809F00AFC874273
S3150800130018BF002303A818BFA37509F00AFC0746EF
S3150800131002A809F006FC87421CBF0023A375D4E780
S3150800132003A809F0F6FB80B1EB6B022230465B6935
S3150800133004A9984704A809F0FBFB0346207D032867
S3150800134039D8DFE800F03838040903A8F3E7CC22D7
S31508001350237E04EBC3031A8401F0D2FA109B18709B
S3150800136003A8277E09F0C9FB04EBC70787F8220004
S31508001370237E03A804EBC303B3F8209093F82270E6
S3150800138009F0C7FB804603A809F0CBFB8246B8F1F3
S31508001390000F15D0EB6B022230465B6904A998470B
S315080013A004A809F08AFB6075637D6BB90023A375F1
S315080013B04FF0000838E0227E04EBC2021384CBE724
S315080013C003A809F065FBEEE794F81680B8F1000F5C
S315080013D0EED0B9F1000F09D1DFB10123E375637EC1
S315080013E0002B4FD1012F42D1677614E06B6C06EBC8
S315080013F00A02594286EA020008421CBF0021A1756A
S31508001400591E0A409B1A9945D0D8A37D002BE3D1D3
S31508001410CEE7E37D43B94FF000084B4652463146C6
S31508001420284609F0A7F8A060A27D12B123694B44AB
S3150800143023611A49237E097899422AD901332376EA
S31508001440BBF1000F27D032B3E37D23B3B8F1000F09
S3150800145021D1032F1FD0A1684B1C1CD0109B2246FC
S31508001460009328460123FFF7F9FEA07513E095F8C7
S31508001470343063B9EB6A0133CFD1032FCDD10123C1
S31508001480A376C8E7012FCFD0032FC4D1F7E7984634
S31508001490C3E70023A375A07DFFE600BF88370108D0
S315080014A02DE9F04F0E46984600238BB004464FF0C0
S315080014B0FF31104617468DF8133001F00BFAB6F5D2
S315080014C0801F3BD3B21C53D1E56A6B1C57D120460B
S315080014D0616A08F095FF0546B31C18BF0123DFF8BB
S315080014E010910193636A626C0293236805A902FB53
S315080014F0053AE36B05225B695046984705A809F04B
S3150800150092FB09F0B5FB504609F0BDFB4FF0000B06
S31508001510824601464B1C05D0636C81EA0A025B428F
S31508001520134232D02946204608F06AFF029BAB4296
S315080015304DD0BBF1000F4DD10546D3E7314605AA7C
S3150800154004F1080009F026FA0146481C10D038466E
S3150800155001F0C0F90122394620460DF1130309F0BE
S315080015605BF828B19DF8133088F80030002003E0B6
S31508001570237C002BA8D12D200BB0BDE8F08F236863
S31508001580ED1A636CB5FBF3F5A6E7484601F0A2F938
S315080015900DF1130349462046019A09F03DF8034622
S315080015A090B1B21C03D0D9F80020B2420CD19DF8F4
S315080015B0132003930D4B88F8002049461A683846CD
S315080015C00FF09DFB039B9B46D9F80810A2E7BBF1D9
S315080015D0000FD0D0B6F5801FC8D2314698F8003033
S315080015E07A6804F1080001F0BBF8BFE78437010800
S315080015F0240500202DE9F3410446174698460E4671
S31508001600194D816AE36A8B422AD04B1C18E028469A
S3150800161001F060F90122294620460DF1070308F07A
S31508001620FBFF30B14346294620469DF80720B847B8
S31508001630B0B1A9684A1C05D0012E0AD0E36A9942BE
S31508001640E5D10DE06968204608F067FF012E0146DE
S31508001650D8D16B6881EA0302636C5B421A42D1D027
S3150800166002B0BDE8F08100BFF80400202DE9F04F74
S315080016704FF0FF334FF6FF720025044600F10806C7
S31508001680C0E909238BB0C3620562056330460F467D
S3150800169009F051F9204608F083FE20BB204639465A
S315080016A008F0FEFE204608F07BFE20BB5E200BB04D
S315080016B0BDE8F08FE26B2368606CD2F814C000FBBB
S315080016C00530052205A9E04705A809F0ACFA012866
S315080016D028D12946204608F0B4FE421C2946204651
S315080016E008F07DFE0135E3699D42E3D3204608F004
S315080016F057FE0028D2D000254FF0FF394FF6FF736A
S31508001700CA46A846C4E90853E369984514D3A5EB25
S315080017100905012D36D84FF6FF72636A934246D102
S315080017206720C4E709F0A9FA0028DBD02946204635
S3150800173008F087FE0246D1E72368E26B606C5769BA
S3150800174000FB0830052205A9B84705A809F06BFA79
S31508001750834605A809F03EFA0746584609F088FA6E
S3150800176068B1574538BFC4F82480B94528BFB9467B
S31508001770BD4238BF3D46BA46236A0133236208F1A3
S315080017800108C1E74FF6FF7300256362E3699D42CE
S31508001790C1D2676C2068E36B052207FB05005B690D
S315080017A005A9984705A809F015FA0135EEE7E26B91
S315080017B0676C2068694607FB030055690522A84738
S315080017C0684609F007FA626A2368606C4B4D00FBAD
S315080017D0023009F058FA4FF0FF33A062E3622A4656
S315080017E06FF00101204605ABFFF75AFE002846D1E7
S315080017F0AD6829462046E56208F0AEFD206320B9AB
S315080018002046E16A08F089FEE0622946204608F08B
S3150800181084FE0546A36A9D4233D1204608F06FFD33
S3150800182000278046B946E36999453CD3B84559D956
S315080018302046616A08F0E4FD0026054604F1400AE0
S31508001840B74212D8626C2368694602FB0539E36B16
S3150800185005225B6948469847684609F0BBF953462E
S3150800186002464946E06B09F010FA2946204608F078
S31508001870C7FD0136B0450546E2D1642017E7A56ADB
S31508001880B7E72946204608F067FD236B2946034437
S3150800189007462363204608F040FE0546002FB9D1C7
S315080018A0C4E90B07B6E7636C2568052203FB0955EF
S315080018B0E36B05A95B692846984705A809F0B3F9BB
S315080018C009F0D6F958B1284609F0DDF9014620464F
S315080018D008F042FD636C143B984208BF013709F1D2
S315080018E00109A0E7304609F026F8002320461946E4
S315080018F0034AFFF77FFE0020D9E600BF5005002007
S3150800190007A600082DE9F041036B9046826B07682D
S315080019109A4288BF8363426C436A90B002FB03779E
S31508001920C36B0E46052201A95B69044638469847EB
S3150800193001A809F078F901280146307057D0656C7E
S31508001940E26B2368606AD2F814C005FB00300522F2
S3150800195006A9E04706A809F066F901284FF0000530
S3150800196023D0D4E90A3201219342CDE90B458DF8FB
S3150800197034800E958DF83C102AD11946204608F079
S31508001980CCFD236B626C14339B1AE06223630C9BB9
S3150800199053B99DF83C303BB1626A616C2368E06BD1
S315080019A001FB023109F0F7F80C9DE36B05225B6930
S315080019B001A93846984701A809F035F93070284634
S315080019C0236BA26B9A4288BFA36310B0BDE8F0816F
S315080019D0237C33B91C490BAA04F1080000F00EFF5A
S315080019E0D5E72046194A0BABFFF704FECFE7237C61
S315080019F023BB2246164904F1080000F0FFFE616A7F
S31508001A00204608F01EFD616A421C204608F0E7FCE5
S31508001A10054620B9236B626C1344143B23632046A6
S31508001A20A16A08F07AFD2368A062C01A636CB0FB4D
S31508001A30F3F06062204608F0B3FDB6E700232046BF
S31508001A40044AFFF7D7FDDAE779210008F5200008F0
S31508001A50A1A600083DA6000873B50D46D11E4A4248
S31508001A601C461B7E4A419A4226D129682368994218
S31508001A7022D3636899421FD8114E0DF107033246E7
S31508001A80FFF70EFDC0B972686B689A4214D19DF8CB
S31508001A900730DA1E53425341227E93420CD16369C2
S31508001AA001336361D4E90323934205D22968A26806
S31508001AB042F8231001332361012002B070BD00BF34
S31508001AC0500500202DE9F04F9A468BB09DF850300E
S31508001AD0DFF850B10293DBF81030804653450D46C7
S31508001AE01646C0F09980D146DBF804300193B9F167
S31508001AF0000F00F08D80D8F83C3001225B6907A9F9
S31508001B000198984707A809F000F8DBF800309842D2
S31508001B1040F0858007A809F004F80428074614D180
S31508001B2007A809F005F8019B029A04463B44002AD7
S31508001B303FD1864212D91446361A4046019908F012
S31508001B40ECFCA9EB04090190D1E7D8F83C30022255
S31508001B505B69019808A9984708A8E2E7841B5445D9
S31508001B6028BF5446032C03EB0607AAEB040A4FEAE0
S31508001B7094021CD9D8F83C30294638465B69984700
S31508001B8024F0030304F003061F441D44002ED4D09A
S31508001B90D8F83C3001225B6908A93846984732468E
S31508001BA0284608A935440FF0AAF80026C5E72646B0
S31508001BB0ECE7074600F00302039203442A1804924E
S31508001BC00593049BDD1B059BD81B039B9F420FD1E6
S31508001BD0002FB2D0D8F83C30012208A95B69984793
S31508001BE03A46284608A90FF07CF978B93D44A4E797
S31508001BF0D8F83C30012208A95B6998470422284690
S31508001C0008A90FF06EF908B9043FDAE74FF036096C
S31508001C1048460BB0BDE8F08F4FF06309F8E74FF080
S31508001C206F09F5E77C0500202DE9F0410F461646B9
S31508001C309846044688B060B390F83450FDB1012147
S31508001C4008F0A3FB00210E9BCDE90511CDE902376B
S31508001C509DF83C30CDF804808DF81C30237C049622
S31508001C608BB90D4901AA04F1080000F0C7FDDDE9AA
S31508001C700553E06B002E08BF1D4608F01FFD2846D9
S31508001C8008B0BDE8F0812046044A01ABFFF7B2FC74
S31508001C90EDE70546F3E700BF6BA60008591A0008EA
S31508001CA02DE9F04F99B00F4609920A69416C0E93D7
S31508001CB01439D31DB3FBF1F3013302EBC302036BF3
S31508001CC004469342C0F0B3810023DFF824940D93B1
S31508001CD0E36A48461946079300F0FCFDD7E9033640
S31508001CE004930E9B022B4ED1CC2E40F08A81099B81
S31508001CF0002B42D03946204608F03EFD656C079A0F
S31508001D006B1E13401490ED1AE36B01225B6916A94A
S31508001D107868984716A808F0FCFE00280CBF04232C
S31508001D200823782E06933DD9012300254FF0080A8B
S31508001D3005933B6805990E98C9F80030C9F81060F4
S31508001D4008F009FF4FEA9A0310930023DDF81CB048
S31508001D5089F814000B930F9308930C93616C4A1E31
S31508001D600BEA02028B1A002E38D05544AB4240D8F3
S31508001D70236B5B1A13442363ABE0049B1B68149321
S31508001D8008230693D0E7656C079A6B1E1340782ED6
S31508001D90A5EB030516D8FB7D7BB9099B002BB3D1B0
S31508001DA004230693331DAB4210D9A6B1082DBBD820
S31508001DB004250023AA460593BBE7099B002BA3D15C
S31508001DC00823EEE7099B002B9ED1D9E70025059548
S31508001DD04FF0040AADE704250596F9E75345C7D33E
S31508001DE0B0460BEB0A030393089B002B18BF03238B
S31508001DF013E0A3EB0A039E42B0460BEB0A0228BF88
S31508001E0098469E420392EFD90123D9F8102089F803
S31508001E101730964271D1C9F804B0089399F817306B
S31508001E20002B6CD099F818200899D31C09EBC3032A
S31508001E300132C3F804B0A3F80880997289F818200B
S31508001E40B8F1000F14D00E9B022B5BD10B9B7BB90C
S31508001E500F9B4344032B0BD9E36B01229B69039821
S31508001E6014A998470546002840F0E38001230B9300
S31508001E70089B16A80193059B009399F814204346DE
S31508001E80396800F0DDFCE36B58469B69109A16A981
S31508001E909847051E0D9B18BF5B4652460D9359463B
S31508001EA04346204608F066FB236B08F10302A3EBC2
S31508001EB00A0322F003029B1AC9F808002363002DBF
S31508001EC040F0B7800F9BDDF80CB04344A6EB08063C
S31508001ED00F935946204608F020FB00258346002E1E
S31508001EE07FF43CAF824A3968936804F10800E362DC
S31508001EF052680E9B00F034FC84E002238DE7C9F893
S31508001F0004B09DE7099B002B30D1049BB8F1030F61
S31508001F1043440A9327D9DDE90301E36B4FEA9802A4
S31508001F209B6998470546002865D118F003025FD0DB
S31508001F30049B28F003052B440493039B1D444FF090
S31508001F40FF33049915A815930EF0D9FEE36B2846BE
S31508001F509B69012215A9984705460A9B0493002DFB
S31508001F6086D0039B99E74246039DE8E7039B0A93BD
S31508001F7007F120031193FB7D78689BB100233D7E12
S31508001F800C9AD9B28D4211D9119903F1010C31F885
S31508001F903310914226D9069907EBC303D8690A4438
S31508001FA0104403E00C9B069A13441844E36B012281
S31508001FB05B6915A99847159B012213930C9B0A98F0
S31508001FC004330C93E36B13A99B699847039B0A9AFE
S31508001FD043449B1A042B054607D978B9134604339C
S31508001FE00A93C8E76346521ACBE70A9B0393B6E7F8
S31508001FF00A9B04933CE70A9B0493B2E70A9B039364
S31508002000AFE77026304619B0BDE8F08F4FF0000AEA
S315080020104FE03A69616CD31D1439B3FBF1F3013310
S3150800202002EBC302236B9342BFF452AE5DE01C265B
S31508002030E8E73D2D59D104F1080303932368079A6D
S31508002040606CA2EB030ABAFBF0FA00FB0A3008F050
S315080020501AFEE16A8046204608F05FFAA26A8242C2
S31508002060D7D0626CD9F80830511E0B40216B266810
S31508002070891A0B4423630D9BE0629E1BB6FBF2F69E
S31508002080B245C3D1079BB3EB080A12D0E36B4FEAFC
S315080020909A0241469B6998478346E36A079A5344DE
S315080020A0E362236B03989B1A4344236308F043FCBB
S315080020B0DA462368616CE06B01FB063108F058FDCF
S315080020C0204608F06DF9204608F06AFA2063BAF14E
S315080020D0000F9ED03A69616CD31D1439B3FBF1F336
S315080020E0013302EBC3029042A8D22E468AE700BF0C
S315080020F024050020032A2DE9F34106460D46174616
S315080021001C4606D1237A012B23D0012002B0BDE854
S31508002110F081DFF86080096842460DF10703FFF792
S31508002120BFF960600028EDD19DF80720237A032ABD
S31508002130E8D0D8F804106A689142E3D1012B2969DE
S31508002140D4F80CC007D172690CEB0103934202D98B
S315080021502074207CDAE708316144E1603B460122BD
S3150800216029463046FFF79CFD60600028CAD000204B
S31508002170CCE700BF500500202DE9F341089C032A4F
S315080021801746266806D1237A012B24D0012002B0EF
S31508002190BDE8F081DFF89080304642460DF107032E
S315080021A0FFF77EF960600028EDD12568D8F80400AD
S315080021B0A96AD5F844C04840CCF100031840227AF1
S315080021C0E1D1012A09D1E268D8F8103013447269BE
S315080021D0934202D92074207CD9E72868EB6A1B1A37
S315080021E0081AB3FBFCF3B0FBFCF083420BD1706C0E
S315080021F0F36A421E1340326B121A1344284633639D
S3150800220008F08BF9E862D8F81020E368083213441E
S31508002210E36001223B4604492068FFF741FD606000
S315080022200028B0D00020B2E7500500202DE9F04183
S315080022300025634B0E46D3F8008004461D6018B986
S3150800224021252846BDE8F08190F8347007B30A685E
S3150800225003689A4240F0AA804A6843689A4240F066
S31508002260A5808A6883689A4240F0A080CA68C368D5
S315080022709A4240F09B800A6943699A4240F09680E8
S315080022808A69C36B9A4240F091804B698361D8E7AB
S3150800229068223946856B0EF04EFED6E9021233687F
S315080022A004F1080023607368A5636360336963619A
S315080022B07369A36108F051FBB36904F14000E36355
S315080022C09B68984720B9676C17B16368B3FBF7F743
S315080022D094F84330E761002BB2D00023656C23667F
S315080022E0002D6BD0002F69D02368B3FBF5F205FBF0
S315080022F01233002B5CD16768B7FBF5F605FB16763B
S31508002300002E55D1204608F017F8A3690433034474
S315080023109F424FD340F634726369CC3B93424BD805
S31508002320B5F5805F4AD30321204608F02EF8D4E994
S315080023300001E36B1B6898470546E36B0220DB68E0
S3150800234098472DB184F83460E06B08F0B7F978E760
S3150800235041462046FFF78AF96428054604D14146D6
S315080023602046FFF783F90546636C143BD5B9226A04
S31508002370204602FB03F607F0DFFFA3690433034494
S315080023809E4203D284F834505A25DDE70123D4E966
S3150800239000010C4A84F8343013680133136008F0DE
S315080023A076FBD1E7002384F83430CDE75D2548E78E
S315080023B0592546E75A2544E75F2542E75B2540E766
S315080023C0F4040020F00400202DE9FF410C461646CF
S315080023D01F46054680B390F834307BB3B1F5801FAD
S315080023E02ED2DFF86080012107F0CFFF2146424652
S315080023F028460DF10F03FFF753F8044670B99DF808
S315080024000F30012B11D1D8F81030BB4212D1024639
S31508002410009031462846FFF755FB0446E86B08F05E
S315080024204DF9204604B0BDE8F081022B14BF2D24D7
S315080024306024F3E76324F1E72124F2E71124F0E7A7
S315080024402924EEE77C0500202DE9F04385B00C46EB
S3150800245017461E460546DDF8308098B390F83430A6
S3150800246093B3B1F5801F31D2DFF86490012107F0EC
S315080024708CFF21464A4628460DF10F03FFF710F850
S31508002480044688B99DF80F30012B14D1D9F81020CD
S3150800249006EB08039A4213D3009043463246394660
S315080024A02846FFF70FFB0446E86B08F007F92046B5
S315080024B005B0BDE8F083022B14BF2D246024F3E792
S315080024C06324F1E72124F2E71124F0E72924EEE753
S315080024D07C0500202DE9F3411F4600230C461646CD
S315080024E005463B6050B390F834304BB3B1F5801FC6
S315080024F028D2DFF85480012107F047FF21464246DB
S3150800250028460DF10703FEF7CBFF0446A0B99DF850
S315080025100730032B10D0022B0AD101233360042382
S315080025203B60E86B08F0CAF8204602B0BDE8F081C7
S31508002530D8F810303060F3E72D24F2E72124F3E7CA
S315080025401124F1E72924EFE77C05002073B504463A
S31508002550056B07F0F1FE636E03449D422CBF002312
S315080025600123854294BF00252D1A207C84F850301B
S31508002570656584F85800A8B100230C4E1A4619461A
S315080025802046009608F0C5F9002305461A4619465E
S315080025902046009608F0C6F9E3682844984294BF96
S315080025A00020C01AE06502B070BD00BFFFFF0F0033
S315080025B02DE9F3471E4643690446B3428846174643
S315080025C09DF828904ED300258DF80750204607F031
S315080025D0B3FED4F830A082450AD2236AB5EB430F7E
S315080025E006D2002220460DF10701FFF78BF9B8B392
S315080025F09DF80730012B05D1002220460DF1070171
S31508002600FFF780F9B9F1030F06D03146204607F0E7
S3150800261083FE256B854227D3144D4FF0FF3128469C
S3150800262000F058F94B46294600222046C5E90376AC
S31508002630C5F80080FFF734FB236E054663B12046D4
S31508002640FFF784FF94F8503013B994F858301BB14B
S31508002650236E04F150009847284602B0BDE8F0877B
S315080026600135B3E76225F7E71C25F5E75005002095
S315080026702DE9FF410F4690461E46054698B390F849
S31508002680343093B3B1F5801F31D21A4C022107F0CA
S315080026907CFE2246394628460DF10F03FEF700FF59
S315080026A0024678B101234246009339463346284606
S315080026B0FFF77EFF0446E86B08F000F8204604B0F2
S315080026C0BDE8F0819DF80F30012BEBD12169B142AD
S315080026D0E8D10093414633462846FFF7F3F9044606
S315080026E00028DFD1E7E72124E8E71124E6E72924D3
S315080026F0E4E700BF7C05002030B50C46054685B0EA
S3150800270028B390F8343023B3B1F5801F23D20221C1
S3150800271007F03BFE0DF10F03214628460F4AFEF748
S31508002720BFFE034688B99DF80F20032A0DD0032261
S315080027302146009202462846FFF73AFF0446E86B10
S3150800274007F0BCFF204605B030BD2D24F7E721244D
S31508002750F8E71124F6E72924F4E700BF7C050020F2
S315080027602DE9F043466886B3056898464FF0000C95
S31508002770A946AE4655F83C400CF1010CC4F31307C4
S31508002780013401D0B94217D066450EF1080EF1D1D1
S315080027902F46002403E0A64207F1080712D055F891
S315080027A0343001340133F6D1C1F3130141EA08513B
S315080027B0C7E90012BDE8F08341EA0851CEE90012E4
S315080027C0BDE8F083B8F1030F03D101230372BDE816
S315080027D0F083002303E09E4209F10809F5D055F875
S315080027E033400133C4F30754032CF4D1C1F3130364
S315080027F043EA0853C9E90032BDE8F0832DE9F04100
S315080028000646406882B0C0B10F4690460024336839
S3150800281053F8345003EBC403C5F30752C5F3130149
S31508002820013504F1010406D05B683046CDF8008016
S31508002830B84710B170688442E9D302B0BDE8F081A8
S3150800284073B504462248012A00EAC1119DF81850BA
S3150800285023F07C4007D9961E012E28D9073303F0AA
S315080028607F03194308E09DF81C300A43DB0603F092
S31508002870C053134343F060410023C4E900108DF8A8
S315080028800730B5B1202221460DF1070008F017FAE6
S315080028901A220DF10700211D08F011FA08206368B5
S315080028A09DF8072043EA8263636002B070BD114356
S315080028B0E2E71B220DF10700214608F000FA23681B
S315080028C09DF80720042043EAC2632360EDE700BFB2
S315080028D080FFFF0738B5094B0D461A6800210446E4
S315080028E00EF029FB00234FF0FF322383C4E90025AD
S315080028F02361A260E382A37638BD00BF843701084E
S315080029000138C0B205289ABF014B185C01207047F0
S31508002910893701082DE9F0410746154600240E4679
S31508002920596888B0490A012922464FEA510104F13B
S315080029300104F8D8DC78997824031B88C90201F4C5
S31508002940006104F480540C43C3F30A03520323447E
S3150800295092B24FF000089C18274B6FEA0444039381
S3150800296025F07843ED4302A90DF107001B220293D7
S315080029708DF8078008F0A3F99DF80720029B02A9A5
S3150800298043EAC2630DF107001B2225F0784504933C
S3150800299002958DF8078008F092F99DF80720029BAA
S315080029A06FEA144443EAC26305934FF0FF33079472
S315080029B0069307A9BB69012206F110009847BB696F
S315080029C005A90446012206F108009847BB69404557
S315080029D018BF044604A90122301D98470122404524
S315080029E018BF0446BB69304603A99847404508BF47
S315080029F0204608B0BDE8F08101009AB2044BD3F82E
S31508002A008420D206FBD4D3F88400C0F38110704723
S31508002A100040005038B5174B0546D3F828310C4608
S31508002A2003F00703013B052B20D8DFE803F0031367
S31508002A301B0F0B170EF070FB052305B1286004B1B8
S31508002A40236038BD0EF068FB0623F6E70EF0A4FBFC
S31508002A500723F2E70EF09AFB0323EEE70EF096FB48
S31508002A600423EAE70EF08EFB0223E6E70023184666
S31508002A70E3E700BF00800050002337B50193164BEB
S31508002A800546D3F820320C4603F00703042B21D859
S31508002A90DFE803F0030B11161B0001230DB1019AA1
S31508002AA02A6004B1236003B030BD002101A8FFF7F6
S31508002AB0B1FF1223F2E70EF06FFB07230190EDE753
S31508002AC00FF09FFC0A230190E8E70EF0ADFB0923FF
S31508002AD00190E3E70023E1E70080005038B5104B8A
S31508002AE00546D3F850320C4603F00303022B12D0E6
S31508002AF0032B08D0012B0AD00023184605B12860FD
S31508002B0004B1236038BD0FF07FFC0C23F6E70FF005
S31508002B1078FC0A23F2E70EF087FB0923EEE700BFED
S31508002B200080005038B5104B0546D3F880300C4667
S31508002B3003F00303022B0BD0032B0DD0012B0FD16F
S31508002B400EF0F0FA0E2305B1286004B1236038BDF3
S31508002B500EF022FB0723F6E70EF0DEFA0623F2E76D
S31508002B6000231846EFE700BF0080005038B5104B29
S31508002B700546D3F800310C4603F00303022B0BD0AD
S31508002B80032B0DD0012B0FD10EF000FB032305B14B
S31508002B90286004B1236038BD0EF046FB0923F6E72A
S31508002BA00FF02DFC0823F2E701230020EFE700BF12
S31508002BB00080005038B5184B0546D3F820010C465E
S31508002BC000F00700062823D8DFE800F0040A0E16EE
S31508002BD0121A1E00012305B1286004B1236038BD0E
S31508002BE00EF09AFA0523F6E70EF0D0FA0323F2E779
S31508002BF00EF0D2FA0723EEE70EF0C4FA0223EAE74C
S31508002C000EF08AFA0623E6E70EF0C0FA0423E2E796
S31508002C1000231846DFE700BF0080005038B5104B88
S31508002C200546D3F840310C4603F00303022B0BD0BC
S31508002C30032B0DD0012B0FD10FF0E3FB0A2305B1AF
S31508002C40286004B1236038BD0EF0EEFA0923F6E7D2
S31508002C500FF0DAFB0C23F2E701230020EFE700BFB1
S31508002C6000800050002337B50193164B0546D3F86C
S31508002C7060320C4603F00703013B032B1FD8DFE83D
S31508002C8003F0020E1914002101A8FFF793FF102381
S31508002C900DB1019A2A6004B1236003B030BD00214A
S31508002CA001A8FFF7BBFF1123F2E70EF075FA072319
S31508002CB00190EDE70EF066FA02230190E8E700239B
S31508002CC0E6E700BF00800050002337B50193164B96
S31508002CD00546D3F894320C4603F00703013B032B51
S31508002CE01FD8DFE803F0020E1914002101A8FFF728
S31508002CF061FF10230DB1019A2A6004B1236003B065
S31508002D0030BD002101A8FFF789FF1123F2E70EF075
S31508002D1043FA07230190EDE70EF034FA02230190F7
S31508002D20E8E70023E6E700BF0080005038B5104BFF
S31508002D300546D3F860310C4603F00303022B0BD08B
S31508002D40032B0DD0012B0FD10FF05BFB0A2305B126
S31508002D50286004B1236038BD0EF066FA0923F6E749
S31508002D600FF052FB0C23F2E701230020EFE700BF28
S31508002D700080005073B50D460021114B0191D3F820
S31508002D808041064604F00304022C13D0032C0CD011
S31508002D90012C13D101A8FFF70DFF10240EB1019BDA
S31508002DA0336005B12C6002B070BD0EF0F5F907244A
S31508002DB00190F3E70EF0E6F90190EFE70C46EDE730
S31508002DC00080005038B5104B0546D3F840320C4603
S31508002DD003F00303022B0BD0032B0DD0012B0FD1CD
S31508002DE00FF00FFB0A2305B1286004B1236038BD34
S31508002DF00EF01AFA0923F6E70FF006FB0C23F2E7A2
S31508002E0001230020EFE700BF0080005038B5144BBF
S31508002E100546D3F800020C4600F0070004281BD824
S31508002E20DFE800F003090D111500012305B128603C
S31508002E3004B1236038BD0FF0E4FA0A23F6E70EF072
S31508002E40F3F90923F2E70FF0DFFA0C23EEE70EF0A9
S31508002E5083F90F23800AE9E700231846E6E700BF4F
S31508002E600080005038B5144B0546D3F808020C46C6
S31508002E7000F0070004281BD8DFE800F003090D114D
S31508002E801500012305B1286004B1236038BD0FF091
S31508002E90B8FA0A23F6E70EF0C7F90923F2E70FF0A6
S31508002EA0B3FA0C23EEE70EF057F90F23800AE9E789
S31508002EB000231846E6E700BF00800050B0F5207FE3
S31508002EC01FD009D8B0F5007F15D003D868B1B0F582
S31508002ED0C07F0AD000200CE0B0F5607FFAD10B4B1A
S31508002EE0D3F88000C0F3011003E0084B186FC0F355
S31508002EF0033001307047054BD3F89000C0F30460E7
S31508002F00F7E7024B186FC0F38020F2E70080005005
S31508002F1002464FF48030104B10B598660020FFF734
S31508002F20CDFF504341F671320C4BDC69DA635A68BF
S31508002F3004F4803422F4401259B90949884294BFEE
S31508002F4000200120000502435A600CB10022DA6312
S31508002F5010BD0449F2E700BF00900050000003507E
S31508002F60005A6202002D31014209531E022B96BFF8
S31508002F70074B002303EB820300F01F0029B103F57A
S31508002F808053012282401A60704703F50053F8E720
S31508002F90608000501FB50021B0F5807F0446CDE95A
S31508002FA0001100F0CF803BD8002800F0A480A0F1E3
S31508002FB02004602C44D8602C42D8DFE804F09CA496
S31508002FC09CA4B4B4B4B4B4A4BE4AD46A4AA4A4A40F
S31508002FD04141414141414141A4A4A47CDEA441416F
S31508002FE041414141414141414141E3B49C9C9CD905
S31508002FF04A4A88E85FB94141414141939C41B4B48A
S31508003000B4B4B4B9B9A441A4A44141414141414130
S31508003010414141414141414141414141414198007C
S31508003020B0F5E06F00F0A98038D8B0F5607F75D0AC
S315080030301AD8B0F5007F61D005D8B0F5C07F5AD050
S31508003040009804B010BDB0F5207F5CD0B0F5407F85
S31508003050F6D10EF081F802464FF42070FFF72EFFE6
S31508003060B2FBF0F2520857E0B0F5B06F65D00AD857
S31508003070B0F5806F57D0B0F5A06FE1D10021684652
S31508003080FFF7FAFCDCE7B0F5C06F6CD0B0F5D06F8F
S31508003090D6D100216846FFF7B9FED1E7B0F5186F1B
S315080030A070D00DD8B0F5086F7FD0B0F5106F5FD02F
S315080030B0B0F5F06FC4D100216846FFF737FEBFE7C9
S315080030C0B0F5286F63D007D8B0F5206FB8D10021C6
S315080030D06846FFF7C7FDB3E7B0F5406F28D0B0F5EF
S315080030E0486FADD100216846FFF7EEFDA8E70EF060
S315080030F019F80090A4E70EF02FF8FAE70EF012F888
S315080031000246204604E00EF027F802464FF42070E7
S31508003110FFF7D4FEB2FBF0F2009291E701A8FFF7A1
S3150800312001FD019AEDE700216846FFF743FD87E7B1
S3150800313000216846FFF76EFC82E700216846FFF724
S3150800314019FE7DE74FF0E02302911B695B0705D561
S315080031500EF002F80290029B009371E703A902A8F9
S31508003160FFF75CFDF7E700216846FFF757FD67E7BD
S3150800317000216846FFF776FE62E700216846FFF7FA
S3150800318021FE5DE700216846FFF7A8FC58E7002105
S31508003190084B0391D3F8703203F00303012B02D1D5
S315080031A003A8FFF73BFD039BD6E76846FFF7DEFC5F
S315080031B046E700BF0080005008B58020FFF7EAFE0A
S315080031C0034B98429EBF4FF48032024B1A6708BDE4
S315080031D0005A620200A00050B0F5207F10B50C46D8
S315080031E05DD008D8B0F5007F4ED003D8C0B1B0F591
S315080031F0C07F15D010BDB0F5607FFBD12C4B4C1E9F
S31508003200D3F8FC202B4912F0807F4FEA041427D10B
S31508003210D1F8803023F030032343C1F88030E9E742
S3150800322007F06BFD07F077FD4FF48031224B214AFA
S315080032301967136F013C23F4704343EA0433136799
S315080032400DF08AFF0446FFF7D9FBC0F102012046BC
S3150800325007F05BFD00F04AF8BDE81040FFF7ACBF89
S31508003260D3F8FC2022F08072C3F8FC20D1F8802025
S3150800327022F030022243C1F88020D3F8FC2042F025
S315080032808072C3F8FC20B5E70A4A4C1ED2F8903083
S3150800329023F0F85343EA0463C2F89030AAE7054AD4
S315080032A04C1E136F23F4806343EA84231367A1E754
S315080032B000ED00E0008000500090005008B50121A4
S315080032C0022000F057F84FF42070FFF7F7FD054B82
S315080032D0187007F012FD07F01EFD4FF48032024BFE
S315080032E01A6708BD161E00200090005008B54FF456
S315080032F0C070FFF74FFEBDE808400449884294BFF6
S31508003300012102214FF42070FFF766BF80F0FA0210
S3150800331038B504460DF020FF0546FFF76FFBC0F1F0
S315080033200201284607F0F1FC0121002000F062F8AE
S315080033302CB1FFF7DBFFBDE83840FFF73DBF034B75
S315080033404FF420701978FFF747FFF4E7161E0020A0
S31508003350024A536B0342FCD1704700BF00800950F4
S31508003360034A0179D36E23F030030B43D3667047C3
S3150800337000400050F8B504461C4BD3F88420D1060B
S31508003380FBD4D3F88430C3F381139C422CD00DF0C0
S31508003390C9FE012C064602D1214607F0B6FC0FF0FD
S315080033A012F84FF00072124B07465A66204607F08D
S315080033B0B7FC4FF480630D4D621E93402B676B6E0E
S315080033C09A0103D4D5F884309B060AD538460EF000
S315080033D0F5FF022C08D13046BDE8F840002107F079
S315080033E094BCD5F88430EAE7F8BD00BF0040005029
S315080033F00060005010B50C4608B90DF093FE074B57
S3150800340021461B783BB1064B984204D80120BDE8FB
S315080034101040FFF7AFBF0220F9E700BF171E0020D4
S31508003420005A62024FF0004238B5244B244C5A66C3
S315080034304AF6CD33656C014605F00105236428BBC1
S315080034400120FFF785FF6368DB0715D51D4B58601C
S3150800345008461D4B226BD2070CD4984208D1072484
S3150800346015B1174B194A1A6407F05BFC204638BD9C
S315080034700130EFE79842F2D00024F1E70132236BDE
S3150800348013F0080305D08A42F8D1E8E700220E496E
S31508003490F5E78A42E3D020210A4A91620121A2F582
S315080034A0805251600649084A886A800603D49342C6
S315080034B0D5D00133F8E79342DDE700BF009000500E
S315080034C00080095000A0095040420F003254FFFF07
S315080034D04FF0004238B5164B01465A664AF6CD33C8
S315080034E0144C154A656C236443780B205B0043F043
S315080034F00103D363FFF72CFF63688A7823F4F87314
S3150800350043EA02136360CA784B7943EA0223A3604D
S315080035100A798B7943EA022323610878FFF782FF49
S31508003520EB0744BF054B236407F0FBFB012038BDBE
S315080035300090005000800950004000503254FFFFB0
S315080035404FF00042124B70B55D6E03F580535A6614
S315080035504AF6CD3304460F4980204E6C0B64FFF7BC
S31508003560F7FE0B6A23F00F030F2C94BF234343F097
S315080035700F030B62F30744BF074B0B64002DA2BF72
S315080035804FF00042054B5A6607F0CBFB70BD00BFF3
S3150800359000800050008009503254FFFF00A0005000
S315080035A04FF48032054B9A6641F6713203F51C33A7
S315080035B0DA63012203F50053DA6070470090005081
S315080035C041F671320121064BDA6303F50052D160E8
S315080035D00022DA634FF48032A3F518339A667047EF
S315080035E000000350044B1868421C02BF034AD2F875
S315080035F094001860704700BF8021002000400050EA
S315080036004FF48032084B5A6603F5EE239B69C3F3E1
S31508003610461203F00F010A434280C3F30342C3F381
S315080036200333427003707047009000500120034B2B
S315080036309B680A3303F01F03984070470080E00F29
S31508003640274B2DE9F0411B680DF070FE012807464F
S3150800365020D90EF0B7FF051E03DA01242046BDE87F
S31508003660F081204B1B78002B38D14FF050081E4CA8
S3150800367004EB0800A465C4F85C800FF04AF82066DD
S3150800368080B90124012FE9D928460EF0B1FF002898
S31508003690E4DAE2E7134B1B7803F0FF05002BE4D0CE
S315080036A00024DBE70024114E214606F110033246BA
S315080036B0012034607460B360C6F80C800FF0D9F846
S315080036C030660028DDD00321512008F0B6FB5120D2
S315080036D001F036FB0122034B1A70D3E70024D3E727
S315080036E084210020181E00200C060020A8050020B2
S315080036F008B54FF098435B6CD90208D50DF016FE55
S315080037000238012803D8094B186E0FF031F94FF02B
S3150800371098435A6CD202FCD55B6D054A03F47023B4
S3150800372013605120BDE8084001F018BBA805002029
S31508003730842100202DE9FF474FF000080E46174662
S315080037400446CDF80080002859D022B9002528461D
S3150800375004B0BDE8F087002951D032F0030902F021
S31508003760030A1FD04FF0E063C0E900380123019136
S31508003770C0F808800293C0F8208049F0005301A9D8
S3150800378003930EF0A2FE494620460EF078FE204628
S315080037900DF06EFD054628B14A46414630460DF005
S315080037A0CAFBD4E7BAF1000FD0D04FF000084FF0AB
S315080037B0E063C4E900380123CDF804D00293114B25
S315080037C0204601A9C4F80880C4F8208003930EF0A7
S315080037D07CFE042120460EF052FE20460DF048FDE0
S315080037E0054608B13A46D8E7009A4E44EB0001353B
S315080037F022FA03F3AA4506F8013BF7D1A6E72125E5
S31508003800A5E700BF040000202DE9F0410F46017826
S315080038100446013990468AB0042947D8DFE801F002
S315080038200332373C41004025142621490C34002236
S315080038305D43C7E901223A623846396029460EF0E7
S315080038401EFE0123384646F0005604A945F00055E9
S31508003850CDF804800293039504940593069607947D
S315080038600893099607F074FD384601A907F070FD1C
S31508003870384607A90EF029FE38460DF0F9FC0AB0BD
S31508003880BDE8F081402520260A490C34CFE74025BB
S31508003890202609490C34CAE78025402607491434EE
S315080038A0C5E78025402606491434C0E72120E6E707
S315080038B000020103000301030004010300050103DC
S315080038C00006010310B591B188B10023C0E90133A0
S315080038D0084B00F10C0203F1200153F8044B8B420C
S315080038E042F8044BF9D101230370002010BD2120B2
S315080038F0FCE700BF5838010810B591B188B100231C
S31508003900C0E90133084B00F10C0203F1200153F81A
S31508003910044B8B4242F8044BF9D102230370002072
S3150800392010BD2120FCE700BF8F37010810B591B103
S3150800393088B10023C0E90133084B00F10C0203F1FA
S31508003940200153F8044B8B4242F8044BF9D1032368
S315080039500370002010BD2120FCE700BFB037010826
S3150800396010B5A1B198B10023C0E90133C0E903330A
S31508003970084B00F1140203F1400153F8044B8B4243
S3150800398042F8044BF9D104230370002010BD21200E
S31508003990FCE700BFD137010810B5A1B198B10023E3
S315080039A0C0E90133C0E90333084B00F1140203F1FF
S315080039B0400153F8044B8B4242F8044BF9D10523D6
S315080039C00370002010BD2120FCE700BF1238010853
S315080039D02DE9F04F0D46904604468BB000287DD061
S315080039E000297BD0002A79D00278013A042A75D8B2
S315080039F0DFE802F0030C58606B001427394A00F11F
S31508003A000C0B00F1040A2C34B94608E020274FF0C5
S31508003A101C09354A00F10C0B00F1040A2C3440212C
S31508003A2099455BD80AF104030AEBD10653F8040B4F
S31508003A30002855D1B342F9D1DAF80030013901EA44
S31508003A400306C5E900203146A860286228460EF01C
S31508003A5016FD2846DAF800100EF011FD012249F08D
S31508003A600053284601A947F0005746F00056CDF8FE
S31508003A7004B002920397049405920696CDF81C802A
S31508003A800892099307F064FC284604A907F060FC2D
S31508003A90284607A90EF019FD28460DF0E9FB0BB0DC
S31508003AA0BDE8F08F2027114A00F10C0B00F1040A3B
S31508003AB02C34A9E740274FF030090D4A00F1140BC2
S31508003AC000F1040A54348021AAE74027094AB94676
S31508003AD000F1140B00F1040A5434F4E72120DEE760
S31508003AE00F20DCE7000203030003030300040303BB
S31508003AF000050303000603032DE9F04387B00D46CE
S31508003B0091461E460446DDF83880002836D0B8F1BE
S31508003B10000F33D002B98BBB6B1EDBB2042B2DD83A
S31508003B20174AD75C0F9B9F4228D80023280200F12A
S31508003B30407000F580703146C4E901332060236285
S31508003B4020460EF09CFC01236946204646F00056A6
S31508003B5047F00057CDF8009001930296CDF80C80F7
S31508003B600493059707F0F4FB204603A90EF0ADFC75
S31508003B7020460DF07DFB07B0BDE8F0832120FAE76B
S31508003B8053380108F0B50F4616461D46044693B04D
S31508003B9010B9212013B0F0BD0029FAD0002AF8D0B8
S31508003BA0002BF6D0002331461A46384607F0A7F907
S31508003BB00028EFD1304602A907F03DF90028E9D1DF
S31508003BC0EB68022B0AD039683F48029A81426B6932
S31508003BD002D01830814270D19A42DAD82B68002B6D
S31508003BE0D7D14FF060623846C4E90023A360236248
S31508003BF001A907F0DFF90028CCD10199204621F464
S31508003C00F06101910EF03BFC6946284607F0D2F9AF
S31508003C100028BFD1204600990EF031FC384609A984
S31508003C2000F054F80028B5D1204609A907F090FB02
S31508003C3038460CA907F0A5FA0028ABD120460CA9EE
S31508003C4007F086FBEB684BB1284606A900F03EF85C
S31508003C5000289FD1204606A907F07AFB304603A91B
S31508003C6007F08FFA002895D1B368DA040CD59B04BF
S31508003C7027D50621F36932691B6801FB03225B001D
S31508003C8043F0005303920593204603A907F060FB0F
S31508003C9028460FA907F075FA00287FF47BAF20465F
S31508003CA00FA90EF012FC032520460DF0E1FA0128B3
S31508003CB07FF470AF013DF7D16CE7B3EB420F8DD2BD
S31508003CC067E7292066E700BF200000B090B189B1F8
S31508003CD001234B60C368013B012B08D88269064B58
S31508003CE01AB10A6000208B607047044AF9E74FF062
S31508003CF00053F7E7212070470800002078380108AC
S31508003D0070B50E46154604468AB000285BD00029D1
S31508003D1059D0002A57D0012329461A46304607F0BB
S31508003D20EEF800284DD1B36813F4C04F4BD0AB68FA
S31508003D3003F4C043B3F5005F45D1254BA060C4E941
S31508003D400030206207A9304607F034F9002838D138
S31508003D50204607990EF093FB304601A9FFF7B6FFF8
S31508003D6078BB204607F0F4FA304604A907F009FAAA
S31508003D7038BB204604A907F0EBFAEB681BBBAB6817
S31508003D8003F4C043B3F5005F1DD16946284607F022
S31508003D907DF8B0B9009B6A699A4216D32A6943F03E
S31508003DA0005307920122204607A908920325099382
S31508003DB00EF08BFB20460DF05BFA012801D1013D80
S31508003DC0F8D10AB070BD2120FBE71D20F9E700BF36
S31508003DD0000001022DE9F04391B00D46DDE91876A1
S31508003DE00446DDF8688000286ED000296CD0B8F14A
S31508003DF0000F69D00FB9002E66D1296801F070410D
S31508003E00B1F1404F5BD0002B5BD1531E042B5BD81E
S31508003E10120202F1C06202F5807200232846C4E944
S31508003E200133226023620DA907F0C4F8002843D1A4
S31508003E3020460D990EF023FB314620460EF01FFB57
S31508003E40284601A9FFF742FF002835D1204601A9D7
S31508003E5007F07EFA284604A907F093F960BB4FF0ED
S31508003E600109204604A907F073FA46F000562046D1
S31508003E7007A90797CDF82090099607F069FA2B68E5
S31508003E800A9703F07043B3F1404FCDF82C900C9687
S31508003E9003D120460AA907F05BFA0123CDF834803E
S31508003EA00E931B9B204643F000530DA90F930EF06B
S31508003EB00CFB20460DF0DCF911B0BDE8F083034A8F
S31508003EC0ABE74FF0C062A8E72120F5E7000002063D
S31508003ED02DE9F0418CB00D46DDE912860446149FA3
S31508003EE0002869D0002967D0B8F1000F01D1002E4B
S31508003EF062D1002F60D0A96889045DD5296801F0D0
S31508003F007041B1F1404F4DD0002B4DD1531E042BBB
S31508003F1052D82A4B03EB022200232846C4E9013370
S31508003F202260236209A907F045F8002837D1204600
S31508003F3009990EF0A4FA314620460EF0A0FA694611
S31508003F402846FFF7C3FE50BB6946204607F000FA2D
S31508003F50284603A907F015F908BB204603A907F068
S31508003F60F7F9012346F00056CDF81880079308960E
S31508003F7009970A93159B43F000530B932B6803F09C
S31508003F807043B3F1404F11D109A9204607F0E0F973
S31508003F9006A9204607F0DCF920460DF069F90CB0B1
S31508003FA0BDE8F081064AB7E7064AB5E706A92046FE
S31508003FB007F0CEF909A9ECE72120F0E70001010690
S31508003FC0000003060000010610F1860F14D010F158
S31508003FD0850F07DA10F1930F11D0873007D04FF00D
S31508003FE0FF307047003818BF012040427047054B24
S31508003FF0194411F9050C70476FF0710070476FF09E
S315080040006F00704780380106012910B50CDC084C92
S31508004010084B00290CBF2146194607F065FE2146C4
S31508004020BDE81040FFF7D0BF6FF0740010BD00BFA9
S315080040300B0000020A00000208B507F095FEBDE86D
S3150800404008400149FFF7C0BF0B000002002307B56F
S315080040504022019301AB07F0A3FE034903B05DF8C4
S3150800406004EBFFF7B1BF00BF0B000002012910B532
S315080040700CDC084C084B00290CBF2146194607F0F2
S3150800408033FE2146BDE81040FFF79EBF6FF0730070
S3150800409010BD00BF090000020800000208B507F0BD
S315080040A063FEBDE808400149FFF78EBF090000021C
S315080040B0002307B52022019301AB07F071FE0349DF
S315080040C003B05DF804EBFFF77FBF00BF09000002ED
S315080040D010B5044C214607F007FE2146BDE81040FE
S315080040E0FFF772BF0500000208B507F03DFEBDE800
S315080040F008400149FFF768BF05000002002307B51D
S315080041001422019301AB07F04BFE034903B05DF897
S3150800411004EBFFF759BF00BF0500000238B5134D81
S31508004120FFF78EFA124B134A1349144803F01EFA86
S315080041302B7803F0FF04BBB90DF0F8F8012802D973
S315080041400EF040FA04462B782BB90D4B0D481B6828
S31508004150984701232B700DF0E9F8012804D9204669
S31508004160BDE838400EF044BA38BD00BF191E00201D
S315080041709BB300087DB30008B5B30008BFB30008B9
S31508004180C4210020A014002000F01F02A0F506207C
S31508004190A0F55060812810D80123094940099340A9
S315080041A051F820201A4341F82020064951F82020CA
S315080041B022EA030241F8202070474FF0FF3070478B
S315080041C0840600207006002000F01F03A0F50620D4
S315080041D0A0F55060812810B519D801210D4A40096B
S315080041E0994052F820300B430B4942F82030D1E968
S315080041F0004323448C682344CC68096923445B182C
S3150800420004D1C2E90033C2E90233136110BD4FF08D
S31508004210FF30FBE770060020840600202DE9F04FEA
S31508004220A7B003921F4604460822CDE9040141407F
S3150800423021FA02F34B40980702F1080218BF9B00C7
S31508004240202A1C44F4D18123B4FBF3F303EBC313F4
S31508004250E41A7F4B04F506241B7804F55064002BFA
S3150800426039D104F00BFE054600286FD101464022DD
S3150800427006A80CF060FE2946402216A80CF05BFE44
S31508004280744D754EA8461035AE4228BF2E46734863
S31508004290013E009643461022006806A906F039FB3F
S315080042A04FF0000B81460DF1180AD94541D16B48EC
S315080042B0009643461022006816A906F033FB4FF015
S315080042C00008834616AEC34546D1654B9D42D8D1F4
S315080042D001225F4B1A704FF081080026DFF894B16F
S315080042E0A4F50625A5F550635B095BF8232004F0C1
S315080042F01F01CA40D20746D45A4A52F82330CB4047
S31508004300DB0732D58123002E08BF2646A5F6FF44D3
S31508004310B4FBF3F303EBC313E41A04F50624B8F16C
S31508004320010804F55064DBD1039B03B3FEB13446A0
S3150800433025E05AF8040BFFF727FF013009D10022C0
S31508004340434B1A70424B1B78002BC4D16FF0910077
S315080043500FE00BF1010BA8E756F8040BFFF734FF43
S315080043600130EFD008F10108ADE7039B23B96FF0E0
S315080043708B0027B0BDE8F08F002E18BF3446329B5D
S3150800438000201C60F5E7309B13B10023309A1360B8
S31508004390319B13B10023319A13604FF0100ADFF8EE
S315080043A0BC90CDF800A000233A462146D9F8000073
S315080043B0FEF74AF8002838D130993A682A4BE9B10D
S315080043C09A42C1F800A01CD02146D9F80000FEF791
S315080043D093F90028CBD1D7E90223DDE904108342FB
S315080043E008BF8A422AD08123A5F6FF45B5FBF3F319
S315080043F003EBC313ED1A05F5062490E79A42EAD0B3
S31508004400E2E7319B002BE6D02146D9F8000016AA30
S31508004410FEF760F848B9319B309A1B6812689342D8
S3150800442094D39B1A319A1360D5E7104B9842CBD098
S315080044306328C9D00E4B9842CDD087E7039B002B43
S315080044409DD07B68012B9AD16FF0840091E700BF5D
S315080044501A1E0020006D0800816D080090220020B9
S31508004460906D080070060020105D175EFFDF00F0F3
S31508004470FEDF00F08406002070B5124D2B7803F09D
S31508004480FF04CBB90CF052FF012802D90EF09AF8B6
S3150800449004462B784BB90C48436D43F0010343653A
S315080044A00A4B1B68984701232B700CF03FFF012825
S315080044B002D920460EF09CF8BDE87040044B02482D
S315080044C01B6818471B1E002098060020C4210020E0
S315080044D0BC210020034B1B781BB1034B03481B6808
S315080044E0184770471B1E0020B82100209806002098
S315080044F02DE9F04F87B08246894698461646DDF87C
S3150800450040B02AB1002B57D040F26C739A4256D865
S31508004510BBF1010F56D8002406F1100739460120D1
S31508004520059407F003FF054600284ED021463A4673
S315080045300CF001FDFFF7A0FF05ABCDE901430094A0
S315080045402B46012250464946FFF768FE044690B1BD
S3150800455010F18C0F08BF6FF08D043A4600212846EB
S315080045600CF0E9FC284607F0C3FEFFF7B3FF204628
S3150800457007B0BDE8F08F164BC5E902A92B60C5F850
S3150800458004B02EB13246414605F110000CF0B7FBD7
S31508004590059E10483B462A4631460068FEF768F8ED
S315080045A038B93046FFF7F0FD013008BF6FF08604D2
S315080045B0D3E76FF09104D0E76FF08604D7E76FF082
S315080045C09104D4E76FF08504D1E76FF08C04CEE749
S315080045D0105D175E902200202DE9F0478CB08146C9
S315080045E0DDE914780C4616461D466BB1B8F1000F86
S315080045F049D0002F47D0B7F1005F44D3C3F1005329
S3150800460003F500239F423ED84FF0000A10220021EE
S3150800461008A80CF090FCCDE905AAFFF72DFF07AB1B
S31508004620029305AB019306AB2146009352464846D2
S3150800463008ABFFF7F3FD0446D0B9059B3DB1B3427D
S315080046401CD853EA060504D06FF0860410E0B3427E
S31508004650FAD3069B0D48C8F8005000953A460799C4
S3150800466000683344FDF7F0FE002818BF6FF0910488
S31508004670FFF730FF20460CB0BDE8F0879B1B9D4234
S3150800468028BF1D46E5E76FF08604F3E79022002071
S3150800469070B500260C4605468CB01022002108A8E5
S315080046A00CF049FCCDE90566FFF7E6FE07AB029379
S315080046B005AB019306AB214600933246284608AB64
S315080046C0FFF7ACFD044608BB099B012B23D0079DC9
S315080046D0144B29461868FEF70FF8F8B9A5F506230E
S315080046E0A3F55063812B05F01F020DD801210E4852
S315080046F05B09914050F823204A4040F82320284679
S31508004700FFF762FD013001D16FF08604FFF7E2FE84
S3150800471020460CB070BD6FF08404F7E76FF0910483
S31508004720F4E700BF90220020840600202DE9F0411E
S315080047300D4614461E46C4B010B96FF086000DE04B
S315080047400029FAD0002AF8D0002BF6D0038803F403
S315080047504F42B2F5824F04D06FF0850044B0BDE8F1
S31508004760F081DAB2122AF7D123F0FF03B3F5E24F4C
S3150800477027D143883360FBB9E3003360B3F5807F04
S31508004780EAD10023184642492E19214411F8014D51
S3150800479016F8012D1043121B0CBF4FF0FF340024EE
S315080047A0B54203EA040343EA0203EFD10028C4D062
S315080047B0002BC2DA0020D1E7DA1DB4EBD20FDDD028
S315080047C0BBE7B3F5824F60D10B78042BB5D128220D
S315080047D0002118A80CF0AFFB18A80DF046FE00281B
S315080047E050D100278422394623A822970CF0A3FB30
S315080047F001232022394668468DF888300CF09BFB49
S3150800480020224FF08808013C3946013505940DEB06
S315080048100200E400049564080CF08DFB22AD20220A
S31508004820394610A80C95CDF834800CF084FBE02CA2
S31508004830CDE91458346003D0B4F5807F7FF47DAF9A
S31508004840144B0734009308934FF4005302934FF424
S315080048508043E4086A460A93640010AB08A918A8BE
S315080048601194FFF78FF933680733DB085A0033B121
S315080048700021531E013B297005F10105FAD20028D3
S3150800488098D05AE76FF0920068E76FF0960065E7F0
S315080048908738010820000080F8B5134642880C4680
S315080048A00732072A4FEAD20101D0A1426DD1D0E9D9
S315080048B0016705882022184600210CF03CFB360AC1
S315080048C0034626B1012E11D06FF08B00F8BD002CDF
S315080048D05BD041F20102954205D0B5F5885F02D05A
S315080048E0B5F5905F1BD15C600020EFE7C660002C31
S315080048F04BD041F2010295420BD15C60B90707F033
S3150800490001021FD4002AEFD19A6842F080729A6099
S31508004910EAE7B5F5885FF0D0B5F5905FEDD0B5F567
S31508004920105F0AD1182C03D0202C01D0102C2CD1C2
S31508004930C3E90044002ED7D0E0E705F44F42B2F5AC
S31508004940824F02D06FF08500C0E7EAB2122AF9D189
S31508004950202CF7D10E4A25F0FF05B5F5E24F1A606F
S315080049600CD0B5F5824F10D14FF4005217F4705F92
S3150800497009D017F4864F04D09A60E3E74FF48042D3
S31508004980F4E742F480629A60D4E76FF086009DE708
S31508004990200000802DE9F041174600221C46436896
S315080049A08CB01B0A80460D46009204D0012B56D0C7
S315080049B06FF08B008EE0008820F0FF03B3F5824F7E
S315080049C015D1B8F802200732D208009206F056FD33
S315080049D0002800F0E1800B78042B05D1013FB7EBE6
S315080049E0420F05F1010503D06FF0860072E00097CB
S315080049F0009E224631464046FFF74EFF002869D101
S31508004A00FA1CC4E9030522F003026261002E00F0D5
S31508004A10A4802022002101A80CF08DFA31464046D8
S31508004A2001AAFFF739FF002840F097802368019A0A
S31508004A309A4240F092806368029A9A4240F08D80CA
S31508004A40A368039A9A4240F08880A369079A9A4213
S31508004A5040F08380E369089A9A423BD07DE0032FB1
S31508004A60C2D90B78012B40F09A80497800294BD09F
S31508004A70F73908299CD801A353F821F0E54A00081C
S31508004A80A14A0008B1490008DB4A0008B1490008F4
S31508004A90FF4A0008B1490008EF4A0008F74A00082B
S31508004AA04FF41056F8253F4F1C22002102A80CF09F
S31508004AB042FA03230197CDE90435039601AA09AD05
S31508004AC0134603CBAB42206061601A4604F1080422
S31508004AD0F6D100200CB0BDE8F08110274FF08076A3
S31508004AE0FA25E1E720274FF00076F725DCE7FE25D3
S31508004AF02C4F2D4ED8E7FF252A4F2C4ED4E74FF4DE
S31508004B001056FC25274FCFE72B2F7FF66DAF2022B7
S31508004B1020460CF010FA05F110032361AB070DD0FF
S31508004B2001AB05F128061A4628686968083503C2E4
S31508004B30B5421346F7D1286801AD10606B68103F7F
S31508004B402360AB6869466360EB682046A36001236F
S31508004B506761E36006F06FF928B12022002120463C
S31508004B600CF0E9F940E7B8F80030009E03F44F422C
S31508004B70B2F5824F0ED1DAB2122A0BD123F0FF0317
S31508004B80B3F5824F06D1730062691C339A42BFF4AB
S31508004B903DAFE2E73346F7E76FF085009AE76FF037
S31508004BA0910097E7200000800044000200440003BB
S31508004BB0038810B503F44F42B2F5824F21F0FF0285
S31508004BC021F4FF71134C21F0010109D0A1421AD03A
S31508004BD0114B9A4214BF6FF085006FF0860010BD26
S31508004BE0A142DBB20FD00C498A420CD0122B0DD150
S31508004BF04388B3F5807F09D1B2F1062F0CBF002098
S31508004C006FF08500EBE76FF08600E8E76FF0850048
S31508004C10E5E700BF0002000600130006184A20F464
S31508004C20FF7323F0010393420ED0164B20F0FF02C8
S31508004C309A4209D0144920F47F7323F003038B4268
S31508004C4002D0124B9A4217D110F0FF0017D040F04D
S31508004C50007000F17E40053806280DD8DFE800F020
S31508004C60040C0C0E06080A00012070470320704742
S31508004C7004207047052070470020704702207047BF
S31508004C8000020006001300060004000600090006DC
S31508004C9007B5094B18689A889B7900906846ADF85D
S31508004CA004208DF80630FEF713FC0C20FEF748FCAE
S31508004CB0002003B05DF804FBA738010813B50024EB
S31508004CC0064A6846536F43F00103536700948DF80C
S31508004CD00440FEF745FB204602B010BD00400050D8
S31508004CE00028ACBF00F16040064B4FEA0111C9B27B
S31508004CF0ABBF00F5614000F00F0080F800131954AF
S31508004D00704700BF14ED00E008B50DF065FB0B4BCE
S31508004D101A7872B901221A700DF059FB6FF0040265
S31508004D2010460132052152B2FFF7DAFF5D2AF7D1A4
S31508004D3008BDBDE808400DF04ABB00BF1C1E002098
S31508004D40002807DB01234109034A00F01F008340BE
S31508004D5042F82130704700BF00E100E0002808DB78
S31508004D6001224309034900F01F008240603341F8DD
S31508004D702320704700E100E073B50DF024FB0D4DCC
S31508004D800D4B2E781C680DF019FB0DF0A6FC38B1FA
S31508004D90FF2E05D00020297801AA05F09BFA019C70
S31508004DA02CB90DF010FB054B1C680DF007FB2046CF
S31508004DB002B070BD11230020FC0600200007002069
S31508004DC010B504460DF0FFFA024B1C600DF0F6FA1A
S31508004DD0002010BD0007002013B5002301241A4641
S31508004DE019461846009402F033FF002300941A4629
S31508004DF01946184602F05EFF0248FFF7E1FF002059
S31508004E0002B010BD9C21002007B5684600F030F8B6
S31508004E10DDE900010022034B03B05DF804EB07F05F
S31508004E209BBC00BF0407002007B5009313460A463B
S31508004E300146034807F079F803B05DF804FB00BFA4
S31508004E400407002013460A460146014807F058B9E8
S31508004E500407002007B5009313460A46014603488F
S31508004E6007F048FA03B05DF804FB00BF040700200A
S31508004E700249034A0160521A42607047F82C002022
S31508004E8000000820004870470407002008B50BF00A
S31508004E9084FD034B1868BDE808400DF020BC00BF30
S31508004EA02C07002030B5094D8BB001AC0FCD0FC4CF
S31508004EB00FCD0FC42B68002101AA054823600DF009
S31508004EC0B9FB044B18600BB030BD00BFB4380108FD
S31508004ED08D4E00082C070020002307B50193054BCB
S31508004EE01B680DF0DFFD019B002BFCD003B05DF8BD
S31508004EF004FB00BFAC210020EFF305830F2B84BF12
S31508004F00034A9B5C4FF0E023D3F80C3D704700BF83
S31508004F10F0E300E030B5074C256824686A40D2B251
S31508004F20891A101A090A41EA1021634023EA010086
S31508004F30C0B230BDD4120020044B1B685840430849
S31508004F405B4240421843C017704700BFD412002086
S31508004F50054B01311B680132434022EA030208402F
S31508004F600243501E00B27047D41200202DE9F04FBC
S31508004F70834699B00F46184600211646049308F052
S31508004F809DF8002800F0878100240125774B3046DC
S31508004F901493049915ABCDE90B45CDE90D45CDE93B
S31508004FA00F45CDE91145139308F011F8A04228DA08
S31508004FB0BBF1000F05D1E7B90024204619B0BDE8BA
S31508004FC0F08F2146584607F077FF04460028F2D0AE
S31508004FD00BA807F0C6FE0DA807F0C3FE0FA807F03A
S31508004FE0C0FE11A807F0BDFE0C2115A801F0B0FA05
S31508004FF0E3E73146384607F02AFF04460028E7D19A
S31508005000DAE731460BA807F022FF04460028DFD16D
S3150800501004990DA807F01BFF04460028D8D1F1888B
S315080050200FA80231ADF83850ADF8305007F0A7FE9A
S3150800503004460028CCD101460FA807F03DFF0446D8
S315080050400028C5D1F18811A8023107F098FE044658
S315080050500028BDD10DA807F06EFF00F01F001F281D
S3150800506073D0C0F11F0319460BA8019307F089FFF7
S3150800507004460028ACD101990DA807F082FF044622
S315080050800028A5D1BDF83250BDF83A800DA8A5EB89
S31508005090080A4FEA4A19494607F073FF04460028EA
S315080050A096D14FEA8A0A0DA90BA807F0BFFF002878
S315080050B04DDA49460DA807F081FF0446002887D136
S315080050C008F1FF3302939B0005F1FF3A069305F1B9
S315080050D0804508F18043023B013D9B00A5EB08058E
S315080050E00993AB000393029B9A4541D8BBF1000F85
S315080050F00DD058460FA907F0AAFE002840F0C78031
S31508005100049AB388928813FB02F3ABF80430002F95
S315080051103FF45EAF01990BA807F050FF002840F056
S31508005120B680B3880BA93846ADF8303007F08FFE45
S315080051300146002840F0AD80384607F0BFFF00283A
S315080051407FF446AF0123BB8042E701949AE70F9AA2
S315080051500BA952F80A300846013342F80A300DAA5C
S3150800516008F091F8044600289DD031E701000300B5
S315080051700D9B069A05931344DDF82C900893059B1E
S315080051804FEA8A089A5859F82A10A8F104030F9D7D
S315080051900793039B91421D4474D20798002359F83C
S315080051A0000003F0E1FE002914BF4FF0FF33034669
S315080051B0BAF1010F2B600EBF002309EB080353F861
S315080051C0083C099A1593079B59F80330169359F822
S315080051D0083017932B6801332B60059B13449846B8
S315080051E02B680021013B2B6011A807F065FE0028FB
S315080051F04DD1029B002B48D0D8F80020119B11A94D
S315080052001A60089A084612685A602A6808F0C3F8AD
S3150800521000283CD113A911A807F008FF0028DFDCF5
S315080052202A680DA911A808F0B6F880BB039B11A837
S315080052304FEAC308414607F0A4FE40BB0BA908463F
S3150800524011AA08F020F8014618BB0BA807F036FF8C
S31508005250002812DA0DA911A807F0F9FDB8B94146D8
S3150800526011A807F08EFE90B90BA9084611AA08F0F6
S3150800527007F860B92B68013B2B60039B0AF1FF3ADC
S31508005280043B2FE74FF0FF3392E7029AB6E704464E
S315080052909EE60C469CE66FF00B048EE6044B1B68F4
S315080052A0584043085B4240421843C017704700BF46
S315080052B0D412002010B50B4C22682368424059408E
S315080052C081EA0200C00FFFF7E9FF2368521A43403C
S315080052D022EA030208401043C00FBDE81040FFF75A
S315080052E0DDBF00BFD4120020F8B50D460146286878
S315080052F01746FFF7DFFF0124C143074B1E68BC4270
S3150800530002D346EA0100F8BD55F82400FFF7C6FFA8
S3150800531001340643F3E700BFD41200202DE9F04715
S3150800532007460F4B88461E6819681D68541E631C7D
S3150800533002D13046BDE8F08758F824A057F82490E3
S3150800534050464946FFF7B6FF514605434846FFF71C
S31508005350B1FF20EA05031E430543013CE7E700BF0A
S31508005360D41200208842F0B504D00025084F04382E
S31508005370AA4200D1F0BD3E6850F8044F5E4024EAC8
S31508005380060451F8256001351E4034430460EFE7F2
S31508005390D41200202DE9F04F1C4685B0DFF8849022
S315080053A00391064621461046D9F80030D9F8003050
S315080053B008F041FAC51D272D90468CBF4FF01E0AEE
S315080053C04FF0FA0AEB0825F0070502932D1A0F9BF2
S315080053D02146009330460E9B029A08F029FC0746A0
S315080053E0C0B92A462146304608F09EFABAF1010AA3
S315080053F014D0224631460398FFF776FF22468346A5
S3150800540041463046FFF78AFFD9F800200BEA000329
S315080054109A42DCD0384605B0BDE8F08F6FF00D072C
S31508005420F8E700BFD412002070B50C4606461146B0
S3150800543020461A4607F043FF0546A0B9B36C33B9B0
S3150800544021462046321DBDE8704007F0D5BFB4F9A5
S315080054500430002B09DB204607F06DFDF36BB0EB3B
S31508005460430F09D9184D284670BD0146204607F056
S3150800547025FE0028EFD0F5E72046B36C9847054689
S315080054800028F0D10436B4F90430002B04DA0021E0
S31508005490204607F013FE68B93146204607F0C6FDD8
S315080054A00028E0DB32462146204607F067FE002842
S315080054B0F2D006E032462146204607F0E1FE0028F3
S315080054C0E1D00546CFE700BF80B0FFFFF0B5144630
S315080054D01F46054685B002A80E4607F03DFC234642
S315080054E0022100972A1D02A808F034F8044648BB92
S315080054F006F110021146284602ABFFF795FF04464F
