S01C00006275696C642F64656275672F67656E657261746F722E7333379C
S3150800600008040020E1420108E5420108E5420108CA
S31508006010E5420108E5420108E5420108E5420108B2
S31508006020E5420108E5420108E5420108257D010827
S31508006030E5420108289F0108C97C01084B8D010823
S3150800604015680008E5420108E5420108E54201082D
S31508006050E5420108E5420108E5420108E542010872
S31508006060E5420108E5420108E5420108E542010862
S31508006070E5420108E5420108E5420108E542010852
S31508006080E5420108E5420108E5420108E542010842
S31508006090E5420108E5420108E5420108E542010832
S315080060A0E5420108E5420108E5420108E542010822
S315080060B0E5420108E5420108E5420108E542010812
S315080060C0E5420108E5420108E5420108E542010802
S315080060D0E5420108E5420108E5420108E5420108F2
S315080060E0E5420108E5420108E5420108E5420108E2
S315080060F0E5420108E5420108E5420108E5420108D2
S31508006100E5420108E5420108E5420108E5420108C1
S31508006110E5420108E5420108E5420108E5420108B1
S31508006120E5420108E5420108E5420108E5420108A1
S31508006130E5420108E5420108E5420108E542010891
S31508006140E54201085DC50008E5420108E542010887
S31508006150E5420108E5420108E5420108E542010871
S31508006160E5420108E5420108E5420108E542010861
S31508006170F0B5114A114C124E00F00105E3695F07AC
S3150800618013D40DB9334213D103EA00078F4207D15E
S315080061900B4A1A40002A0CBF00206FF00100F0BD20
S315080061A0013AEBD16FF00200F9E74FF0FF30F6E75E
S315080061B06FF00100F3E700BF8096980000000350D7
S315080061C0020001000B4B70B5D96911F480310DD16D
S315080061D001244FF48072084E084DF46020462C6462
S315080061E01A61FFF7C5FF3464EC6070BD6FF00100FB
S315080061F0FBE700BF000003500010035000200350C7
S315080062004FF4803238B50E4B0E4C9A66E56941F666
S31508006210713315400122E3630B4B0021DA60022338
S31508006220606121202361FFF7A3FF10B92120FFF742
S315080062309FFF0122054BDA600DB10023E36338BDE9
S315080062400090005000000350001003500020035037
S3150800625070B5134C6061E3695B071ED40E4656F8A9
S31508006260043B8D18A361AE420BD1042300212120E3
S315080062702361FFF77DFF58B9BDE870402120FFF77D
S3150800628077BF08210846FFF773FF10B1042323617F
S3150800629070BD56F8043BA361E5E74FF0FF30F7E71A
S315080062A0000003502DE9F84315464FF48032184B89
S315080062B089469A6603F51C33DF690646174041F698
S315080062C07132DA63012203F58053DFF84C80DA6015
S315080062D055B9284601220F4BDA601FB10022A3F5F3
S315080062E00053DA63BDE8F88306F5005404EA0804A7
S315080062F0A41BAC4228BF2C46494622463046FFF727
S31508006300A7FF0028E6D12644A1442D1BE0E700BFDD
S31108006310009000500020035000E0FFFF42
S3150800632001292DE9F04F4AD889B30FF2D40BDBE9DE
S3150800633000AB0FF2D409D9E9008935A7D7E9006778
S3150800634035A5D5E9004536A3D3E900239FED1E5BA5
S315080063509FED1F6B9FED207B9FED214B80ED045B2E
S3150800636080ED004B80ED024B80ED066B80ED087BDF
S31508006370C0E90AABC0E90C89C0E90E67C0E9104557
S31508006380C0E91223C0F8D0100020BDE8F08F9FEDB9
S31508006390165B0FF2940BDBE900AB0FF29409D9E90F
S315080063A0008925A7D7E9006725A5D5E9004526A3CD
S315080063B0D3E900239FED0E6B9FED0F7BCCE76FF0C3
S315080063C07400E2E7AFF30080D89E05C15D9DBBCBA4
S315080063D007D57C362A299A6217DD70305A015991F9
S315080063E0000000000000000008C9BCF367E6096A5F
S315080063F03BA7CA8485AE67BB2BF894FE72F36E3C46
S3150800640039590EF7D8EC2F15310BC0FF67263367BD
S3150800641011155868874AB48EA78FF9640D2E0CDBC0
S31508006420A44FFABE1D48B547F1361D5F3AF54FA58C
S31508006430D182E6AD7F520E511F6C3E2B8C68059BB0
S315080064406BBD41FBABD9831F79217E1319CDE05B68
S315080064500348044B834202D0034B03B118477047E5
S315080064601C2D00201C2D002000000000064B0749AB
S31508006470C91A891048BF0131491003D0044B0BB122
S3150800648001481847704700BF1C2D00201C2D00200E
S315080064900000000010B5064C237843B9FFF7D8FF73
S315080064A0044B13B10448AFF300800123237010BDD9
S315080064B0281E00200000000048B8010808B5054B52
S315080064C01BB105490548AFF30080BDE80840FFF752
S315080064D0CDBF00BF000000007004002048B80108C6
S315080064E0A3F5803A704700BF174B002B08BF134B24
S315080064F09D46FFF7F5FF00218B460F461348144AC1
S31508006500121A11F0BAF90E4B002B00D098470D4B12
S31508006510002B00D098470020002104000D000D48EC
S31508006520002802D00C48AFF3008009F055FE200081
S3150800653029000FF059FE09F0B9FD00BF0000080058
S3150800654000000000000000000804002008040020E5
S31508006550F81F002000000000000000004FF0006354
S315080065609B6A03F17842B2F5C04F03D21968064A0E
S31508006570914203D0002303708360704701220270A2
S315080065809A689B694260F7E707B0CD5E73B5464BDC
S3150800659004461A781AB102221A7002B070BDCDE903
S315080065A000220028F9D001261E7013F0D0FA3F4DBC
S315080065B03F4B18600AF08AFB2B785BB909F070FB31
S315080065C040B93C4808233C4A3C49006804F0F8FDB9
S315080065D000B92E703A4B5A6E62619B6E394AA361B6
S315080065E04FF480439366384B5968E161374999609F
S315080065F0196E2160596E6160D3F87011A160196C2B
S31508006600E160596C21613249086C1864496C596417
S31508006610012151661B6E9C042ED52E4AD368D807D5
S31508006620FCD42D4B1A68531C2BD04FF4801393407F
S315080066302A4A13660423294C684623664FF40073D6
S315080066402366082323664FF4805323664FF00063BE
S3150800665023664FF4002301A963660AF01BFB009B1F
S315080066602366019B63662B78002B96D0124B1A681B
S3150800667022665B68636690E7194AD368D907FCD433
S31508006680CFE7184B1B78002BD4D14FF400720D4B73
S315080066905A6603F5A6235B68002BCBD14FF480120C
S315080066A00E4B1A66C6E700BF2A1E00202B1E0020C6
S315080066B0A804002088220020AC04002000710800ED
S315080066C000800050009000500080004455CEAC0079
S315080066D000C0005400000440A82100200090004497
S315080066E000000450291E002070B5224D04462E785D
S315080066F0012E02D001232B7070BD0028FCD00AF0B1
S31508006700E7FA01300BD00AF0E3FA40F20113984297
S3150800671005D0194B194A5E66D368DE07FCD4226891
S31508006720174B1A6662685A66A268C3F87021E2684F
S315080067301A6422695A64E269D00744BF00229A6043
S31508006740104B1A68013207D10F4A127822B90F493D
S315080067504968C90748BF1A6062690D4B5A66A2693B
S315080067609A660AF0B4FA0B4B186813F0EBF9002393
S31508006770C1E700BF2A1E0020009000400000044028
S3150800678000800044A8210020291E002000C00550D2
S3150800679000800050A8040020F8B54FF00066B36AE0
S315080067A003F17842B2F5C04F26D21A68144B9A42C2
S315080067B022D1144D2C7814F0FD0402D00024204672
S315080067C0F8BD4FF480371048FFF7E0FE204607F083
S315080067D03DF90E4B2046DF6007F02AF90C4B1F6186
S315080067E0B36ADB69984704460748FFF77DFF002C24
S315080067F0E5D101232B70E1E74FF48174DFE700BF91
S3150800680007B0CD5E291E00208804002000A00044A1
S315080068100090004413B5204B1B7803B9FEE700230C
S315080068201E4CCDE900336A4608231D49206804F04A
S31508006830C7FCF8B91B4AD2F84031D2F840211F2BC1
S315080068404FF0010311D9203A9340019A1A43019255
S3150800685008236A461249206804F008FE124B134AB8
S315080068601A600FF00CF902B010BD9340009A1A4353
S315080068700092EDE72D28F1D10A4AD2F84031D2F834
S3150800688040211F2B4FF0010385BF203A93409340C8
S31508006890019398BF0093DBE72A1E00208822002078
S315080068A00071080000800044000000200B020FF071
S315080068B0002307B50193054B1B6812F0C3FC019B27
S315080068C0002BFCD003B05DF804FB00BFAC21002010
S315080068D0EFF305830F2B84BF034A9B5C4FF0E0233D
S315080068E0D3F80C3D704700BFF0E300E030B5074C25
S315080068F0256824686A40D2B2891A101A090A41EA38
S315080069001021634023EA0100C0B230BD58100020B0
S31508006910044B1B68584043085B4240421843C01763
S31508006920704700BF58100020054B01311B68013223
S31508006930434022EA030208400243501E00B2704751
S31508006940581000202DE9F04F834699B00F46184697
S315080069500021164604930AF045FE002800F08781B8
S3150800696000240125774B30461493049915ABCDE9DD
S315080069700B45CDE90D45CDE90F45CDE911451393F5
S315080069800AF0B9FDA04228DABBF1000F05D1E7B934
S315080069900024204619B0BDE8F08F214658460AF073
S315080069A01FFD04460028F2D00BA80AF06EFC0DA8BD
S315080069B00AF06BFC0FA80AF068FC11A80AF065FC3F
S315080069C00C2115A801F0A4FAE3E7314638460AF087
S315080069D0D2FC04460028E7D1DAE731460BA80AF0CC
S315080069E0CAFC04460028DFD104990DA80AF0C3FCA6
S315080069F004460028D8D1F1880FA80231ADF83850DE
S31508006A00ADF830500AF04FFC04460028CCD10146B8
S31508006A100FA80AF0E5FC04460028C5D1F18811A89C
S31508006A2002310AF040FC04460028BDD10DA80AF040
S31508006A3016FD00F01F001F2873D0C0F11F0319466A
S31508006A400BA801930AF031FD04460028ACD1019940
S31508006A500DA80AF02AFD04460028A5D1BDF8325033
S31508006A60BDF83A800DA8A5EB080A4FEA4A19494627
S31508006A700AF01BFD0446002896D14FEA8A0A0DA99A
S31508006A800BA80AF067FD00284DDA49460DA80AF05A
S31508006A9029FD0446002887D108F1FF3302939B009D
S31508006AA005F1FF3A069305F1804508F18043023B5C
S31508006AB0013D9B00A5EB08050993AB000393029BD8
S31508006AC09A4541D8BBF1000F0DD058460FA90AF0D8
S31508006AD052FC002840F0C780049AB388928813FBBA
S31508006AE002F3ABF80430002F3FF45EAF01990BA810
S31508006AF00AF0F8FC002840F0B680B3880BA938469F
S31508006B00ADF830300AF037FC0146002840F0AD8079
S31508006B1038460AF067FD00287FF446AF0123BB809C
S31508006B2042E701949AE70F9A0BA952F80A300846E9
S31508006B30013342F80A300DAA0AF039FE0446002845
S31508006B409DD031E7010003000D9B069A0593134477
S31508006B50DDF82C900893059B4FEA8A089A5859F84D
S31508006B602A10A8F104030F9D0793039B91421D4425
S31508006B7074D20798002359F8000009F007F900298C
S31508006B8014BF4FF0FF330346BAF1010F2B600EBF57
S31508006B90002309EB080353F8083C099A1593079B49
S31508006BA059F80330169359F8083017932B680133B0
S31508006BB02B60059B134498462B680021013B2B60EC
S31508006BC011A80AF00DFC00284DD1029B002B48D0D5
S31508006BD0D8F80020119B11A91A60089A084612686D
S31508006BE05A602A680AF06BFE00283CD113A911A83E
S31508006BF00AF0B0FC0028DFDC2A680DA911A80AF003
S31508006C005EFE80BB039B11A84FEAC30841460AF003
S31508006C104CFC40BB0BA9084611AA0AF0C8FD014660
S31508006C2018BB0BA80AF0DEFC002812DA0DA911A879
S31508006C300AF0A1FBB8B9414611A80AF036FC90B98A
S31508006C400BA9084611AA0AF0AFFD60B92B68013BEB
S31508006C502B60039B0AF1FF3A043B2FE74FF0FF3303
S31508006C6092E7029AB6E704469EE60C469CE66FF063
S31508006C700B048EE6044B1B68584043085B424042AF
S31508006C801843C017704700BF5810002010B50B4CAA
S31508006C90226823684240594081EA0200C00FFFF784
S31508006CA0E9FF2368521A434022EA030208401043C8
S31508006CB0C00FBDE81040FFF7DDBF00BF5810002029
S31508006CC0F8B50D46014628681746FFF7DFFF012489
S31508006CD0C143074B1E68BC4202D346EA0100F8BD11
S31508006CE055F82400FFF7C6FF01340643F3E700BF53
S31508006CF0581000202DE9F04707460F4B88461E68B6
S31508006D0019681D68541E631C02D13046BDE8F08719
S31508006D1058F824A057F8249050464946FFF7B6FF7E
S31508006D20514605434846FFF7B1FF20EA05031E43CF
S31508006D300543013CE7E700BF581000208842F0B53C
S31508006D4004D00025084F0438AA4200D1F0BD3E6899
S31508006D5050F8044F5E4024EA060451F825600135D0
S31508006D601E4034430460EFE7581000202DE9F04F29
S31508006D701C4685B0DFF884900391064621461046E6
S31508006D80D9F80030D9F800300AF0E9FFC51D272DDB
S31508006D9090468CBF4FF01E0A4FF0FA0AEB0825F012
S31508006DA0070502932D1A0F9B2146009330460E9B2A
S31508006DB0029A0BF0D1F90746C0B92A462146304651
S31508006DC00BF046F8BAF1010A14D022463146039868
S31508006DD0FFF776FF2246834641463046FFF78AFF8D
S31508006DE0D9F800200BEA00039A42DCD0384605B0F1
S31508006DF0BDE8F08F6FF00D07F8E700BF58100020C8
S31508006E0070B50C460646114620461A460AF0EBFCB3
S31508006E100546A0B9B36C33B921462046321DBDE8F4
S31508006E2070400AF07DBDB4F90430002B09DB20461A
S31508006E300AF015FBF36BB0EB430F09D9184D28463A
S31508006E4070BD014620460AF0CDFB0028EFD0F5E7D5
S31508006E502046B36C984705460028F0D10436B4F9A5
S31508006E600430002B04DA002120460AF0BBFB68B97F
S31508006E70314620460AF06EFB0028E0DB3246214602
S31508006E8020460AF00FFC0028F2D006E032462146DA
S31508006E9020460AF089FC0028E1D00546CFE700BF66
S31508006EA080B0FFFFF0B514461F46054685B002A818
S31508006EB00E460AF0E5F92346022100972A1D02A884
S31508006EC00AF0DCFD044648BB06F1100211462846C6
S31508006ED002ABFFF795FF044600BB06F108073A46E2
S31508006EE03946284602ABFFF78BFF0446B0B902AB1A
S31508006EF01A4619462846FFF783FF044670B93246F4
S31508006F003146284602ABFFF77BFF044630B93A46BE
S31508006F103946284602ABFFF773FF044602A80AF073
S31508006F20B4F9034814F10E0F18BF204605B0F0BD9A
S31508006F3000B3FFFF2DE9F14F9A461B6904460E463A
S31508006F4091460A9D1BB9724801B0BDE8F08F02F15F
S31508006F501007002138460AF045FB30B9514630463D
S31508006F6001B0BDE8F04F0BF0DBBB0AF110080021B9
S31508006F7040460AF037FB08B94946F0E70121404682
S31508006F800AF030FB0028DED13B463A462946204621
S31508006F90FFF736FF0028D7D105F108083B462A46F1
S31508006FA041462046FFF72CFF0028CDD153462A46F6
S31508006FB029462046FFF724FF0028C5D14246414608
S31508006FC020460AF10803FFF71BFF0028BCD14B46F1
S31508006FD02A46294620460BF096F90028B4D109F12D
S31508006FE0080B5B464246414620460BF08CF90028C2
S31508006FF0AAD1002128460AF0F5FA014690B940467A
S315080070000AF0F0FA40B92B464A463146204601B006
S31508007010BDE8F04F0BF0F4B9304601B0BDE8F04FCB
S315080070200BF094BB2B463A46204606F11001FFF7B3
S31508007030E7FE002888D105F110072B462A4639466F
S315080070402046FFF7DDFE00287FF47EAF05F1180A1B
S315080070502B463A4651462046FFF7D2FE00287FF4D3
S3150800706073AF4B463A4639462046FFF7C9FE002815
S315080070707FF46AAF394628460AF07DF900287FF47E
S3150800708063AF294620460BF0ACF900287FF45CAFC5
S315080070904346424631462046FFF7B2FE00287FF4B3
S315080070A053AF2B463246314620460BF02CF90028C2
S315080070B07FF44AAF53463246314620460BF023F951
S315080070C000287FF441AF33463A46394620460BF04E
S315080070D01AF900287FF438AF43463A46394620461F
S315080070E0FFF78EFE00287FF42FAF5B4652465146C7
S315080070F02046FFF785FE00287FF426AF53463A461A
S31508007100204606F1080101B0BDE8F04F0BF0FBB8C8
S3150800711080B0FFFF2DE9F047012A8246DDE90849DC
S315080071200E4690461F4644D804300AF09CF9054698
S3150800713050460BF06BFA012882463CD1002106F135
S3150800714010000AF04FFA48B9B9F1000F02D11B48EE
S31508007150BDE8F0872070C7F800A0F9E7B8F1000F7E
S3150800716017D16B0001334B453B60F0D82146042309
S315080071702A46304601F8013B0AF091F90028E7D182
S315080071802A46691C214406F10800BDE8F0470AF0C2
S3150800719086B96B1C4B453B60D9D8002106F108001F
S315080071A00AF03AF92146023001F8010B2A46304620
S315080071B0EBE70348CCE70348CAE700BF00B1FFFF87
S315080071C080B0FFFF80B1FFFF2DE9F84380460C46EB
S315080071D015461F4613B91D48BDE8F88304300AF062
S315080071E042F9064640460BF011FA012881462AD193
S315080071F02B7833B9012FEED12046BDE8F8430BF0C2
S31508007200A5BA06F10108B845E5D832462046691CF4
S315080072100AF02FF90028DFD1494604F110000AF0D8
S31508007220DFF80028D8D12B78042BD4D1730001338A
S31508007230BB42D0D1324605EB080104F10800BDE88F
S31508007240F8430AF016B90248C6E700BF80B0FFFF48
S3150800725080B1FFFF2DE9FF410E460546012106F1E3
S3150800726010000AF0BFF9044650B928460BF0CEF9CB
S3150800727001287AD1214630460AF0B4F9002801DA05
S315080072803B4C6EE006F10808214640460AF0AAF98A
S315080072900028F5DB2F1D394630460AF05BF9002831
S315080072A0EEDA394640460AF055F90028E8DA684623
S315080072B009F0E6FF02A809F0E3FF4346424669469D
S315080072C02846FFF79DFD0446002844D1334632463A
S315080072D0284602A9FFF794FD044600283BD1EB682F
S315080072E07BBB02A9032208460AF065FA044690BB4E
S315080072F0BDF90C30002B04DA002102A80AF072F955
S31508007300C8B902AA334611462846FFF779FD04464E
S3150800731008BB02AA1146284605F114030AF0D7FF4E
S315080073200446C0B9684602A90AF014F9104B041EAF
S3150800733018BF1C460FE002A93A4608460AF034FA76
S31508007340D4E702AA1146284605F10C030AF0BFFF46
S3150800735004460028D5D0684609F097FF02A809F028
S3150800736094FF204604B0BDE8F081024CF9E700BF5F
S3150800737080B3FFFF80B0FFFF38B505460BF046F92E
S3150800738001280C4601460DD120460AF02BF90028A3
S3150800739006DB204605F134010AF0DCF8002803DB99
S315080073A0024838BD0248FCE70020FAE780B3FFFF31
S315080073B080B0FFFF2DE9F04F0F46B5B011460646DF
S315080073C09A460292FFF7D8FF0446002840F09F81AC
S315080073D051463046FFF73EFF0446002840F09781A5
S315080073E030460BF013F9012840F09A81336C1821C6
S315080073F0013302204FEA53090EF0B4FC0546002873
S3150800740000F08C8105F118080BF009F940460BF0DD
S3150800741006F90DF14C0B0BEB0400083409F030FFAC
S31508007420202CF8D1514628460BF07AF9044698BB29
S315080074308246D1451ED1414630460AF0CDFE044665
S3150800744050BB43462A4641463046CDF800B0FFF7C2
S3150800745071FD044600BB414630460AF0BDFE0446AF
S31508007460D0B905F1100009F010FF05F1280009F060
S315080074700CFF11E0BAFBF9F1012318228B4009FB36
S3150800748011A1DBB202FB0352F9B11146304613AB28
S315080074900AF0B6FF044638B34FF0000A0BEB0A00B1
S315080074A00AF1080A09F0F1FEBAF1200FF6D1F4B193
S315080074B0B36D9D422DD028460BF0EEF840460BF0F2
S315080074C0EBF8284612F019FD23E003F0FE0101EB64
S315080074D05301104605EBC10103920BF021F9039AFB
S315080074E004460028D1D0D7E70AF1010AA1E705A882
S315080074F009F0C6FE06F1340B0BA809F0C1FE2146B9
S31508007500584609F089FF012811D0B36D9D4204D170
S31508007510844C38460BF0C0F8F9E028460BF0BCF866
S3150800752040460BF0B9F8284612F0E7FCF0E721468A
S31508007530029809F071FF0299824605A809F01BFF17
S31508007540044630B10BA809F0A0FE05A809F09DFE77
S31508007550AEE75946029A0BA80AF029F9044600280C
S31508007560F0D1BAFA8AFA4FEA5A1A52460BA905A86E
S3150800757009F0BDFE04460028E4D1014609F10102DE
S3150800758013A810F07AF913AB1A46A346D945029206
S315080075905DD0594605A8039309F03EFF029A09EB08
S315080075A00B0114780BF1010B044305A809F034FF0D
S315080075B0E4B2029A44EA4004039B02F8014BE5E769
S315080075C05C781A7884EA010E6FEA0E0000F0010072
S315080075D012FB00F20C4002EA0E0182EA0E0203F8E0
S315080075E0012F13F8012C214342EAC01203F8012C9B
S315080075F00CF1010CE345E3D20BA809F046FE05A8F9
S3150800760009F043FE05A80BF00AF800240BAB18197D
S31508007610083409F035FE202CF8D10BF1D0036B4461
S315080076202A463946304613F8843C0AF099FE044641
S31508007630002831D13E9B002B6DD0DDE93E2339462B
S315080076403046FFF72FFC002865D0044624E00021C9
S315080076504FF0010CCEE74B463A46394630460BF119
S31508007660FF3B0AF0CDFE0028EFD113AB2A46304681
S3150800767013F80B3005A90AF073FE0028E5D13A463F
S3150800768039463046CDF8009005ABFFF753FC002885
S31508007690DBD1BBF1000FDED105A80AF053FE4FF08F
S315080076A000090BAB03EB090009F1080909F0EDFD28
S315080076B0B9F1200FF5D1002C7FF4FAAE52463946BF
S315080076C030460AF0CDFD044600287FF4F1AE3E9B15
S315080076D04BB1DDE93E2339463046FFF7E3FB044666
S315080076E000287FF4E5AE394630460AF075FDB36DDD
S315080076F004469D4208D028460AF0CEFF40460AF0C6
S31508007700CBFF284612F0F9FB002C7FF402AF204687
S3150800771035B0BDE8F08F0DF12C09BAE7024CF8E652
S31508007720004CF4E780B0FFFF80B2FFFF30B4DDE91C
S31508007730024524B1CDE9024530BCFFF73BBE0148FE
S3150800774030BC704780B0FFFF73B505461E460AF089
S315080077505DFF01280C4601460ED1134620460096C9
S3150800776005F134020AF08AF9044B10F10E0F18BF1E
S315080077700346184602B070BD014BFAE700B3FFFF97
S3150800778080B0FFFF2DE9F0410D4601462846174611
S31508007790984600F047F80446B0B928460AF036FF7E
S315080077A0012805F1600612D142463946304609F0ED
S315080077B060FE044628B931462846FFF7DDFD044633
S315080077C010B1304609F061FD2046BDE8F081014C54
S315080077D0F7E700BF80B1FFFF70B5066C0D460736A8
S315080077E0B3EBD60F114604464FEAD60203D200235E
S315080077F00A482B6070BDB0F866302A604BB10AF0B3
S3150800780005FF012807D104F16000BDE8704009F0C2
S3150800781046BE0348EEE76FF06D00EBE700B1FFFFE9
S3150800782080B0FFFF38B504460D460AF039FF2046FA
S315080078300AF003FF032D257023D1144B144AA360C5
S31508007840A361A3632362A362124B626063624FF073
S315080078500113114A23636261104A114B6263114A8C
S31508007860E362E261201D09F0FAFDE06304F13400E9
S3150800787009F0F5FD206400200123C4E916006364BD
S3150800788038BD002308482370FAE700BF0100080046
S315080078900CA00108AC9F0108EC9F01088C9F010809
S315080078A02CA00108CC9F010880B1FFFF0538C0B2A3
S315080078B006289ABF024B53F820000020704700BFE5
S315080078C030A001080023F0B5044603600A276FF0CC
S315080078D067000C4E0B68934203D21D78303D092D84
S315080078E000D9F0BD2568B54209D87D43256013F84F
S315080078F0010B28443038206000200B60EAE76FF05F
S315080079006700EEE79999991970B5094C256815B974
S315080079106FF02D0009E0667C864207D1267C8E42F0
S3150800792004D10020156062681A6070BD1434EDE752
S3150800793074A9010830B5084B1C6814B96FF02D00FE
S3150800794006E01D7C854204D100205B680C6013604C
S3150800795030BD1433F0E700BF24A9010830B5084B41
S315080079601C6814B96FF02D0006E01D7C854204D111
S3150800797000205B680C60136030BD1433F0E700BF6D
S31508007980FCA801082DE9F04F0F460021054687B0EF
S315080079900846009390469B46134605AA109E09F092
S315080079A0E8FB28460FF0D6FE044638460FF0D2FE0E
S315080079B0059902290A4638BF02224B1C023A03EBF4
S315080079C0921323441844119B984207D96FF029084B
S315080079D0129B1860404607B0BDE8F08F39B1012008
S315080079E00EF0C0F9044618B9DFF8A080F2E70C4695
S315080079F0434620460599CDF800B005AA09F0B9FB1B
S31508007A00804618B1204612F078FAE3E728460FF0C8
S31508007A10A1FE2946024630460FF013FE28460FF00F
S31508007A2099FEA1464FF00A0A3518DDF814B0BBF1E5
S31508007A30000F18D138460FF08DFE39460246284603
S31508007A400FF0FFFD38460FF085FE02462B18581C2E
S31508007A50129B05F802B0821B1A60119B59469A1AA6
S31508007A600FF00BFFCEE75A46402A28BF4022494668
S31508007A70284603920FF0E5FD039AABEB0200154486
S31508007A800590914405F801ABCFE700BF80EEFFFFF4
S31508007A90F0B5054687B00E461822002168460FF055
S31508007AA0ECFE1DB9114C204607B0F0BD2B68002B23
S31508007AB0F8D1694630460BF089FA04460028F1D118
S31508007AC0BDF8007068460BF02CFD27F0FF03B3F5F0
S31508007AD0E24F07D047F201039F4205D1044B2B60C2
S31508007AE0AE60E0E7034BFAE7034CDCE780C1FFFF33
S31508007AF004AA010834AA010880C6FFFF2DE9F74F3A
S31508007B001646DDE90C89DDE90EAB04460D46109AEA
S31508007B10E1B92BB9036803BB164803B0BDE8F08F7B
S31508007B20002EF9D001680029F6D021684F69FFB107
S31508007B30CDE90FB2294632462046BC46CDE90D9A14
S31508007B40CDF8308003B0BDE8F04F6047002EE3D093
S31508007B5001680029E0D0002BE7D128460192FFF7FB
S31508007B60A5FE0AF01BFE019A03460028DDD1D3E7DD
S31508007B700148D2E780C1FFFF00C1FFFF00487047F8
S31508007B8080C6FFFF2DE9F04F04468BB00E46DDE9AF
S31508007B90149A0021174604A818229846169D0FF035
S31508007BA06CFE204604A90BF011FA38B10722194BCE
S31508007BB019490CF06EF80BB0BDE8F08F04A8BDF8B3
S31508007BC012B00BF0AEFC46F0C06143463A4620467A
S31508007BD0CDE901A5CDF8009041F4E0610BF03FFB3B
S31508007BE0034670B18533E1D143463A462046CDE98E
S31508007BF001A5CDF8009046F006210BF030FB0028D1
S31508007C00D4D1CDE900A54B46494658462A680CF01A
S31508007C1066F8D0E76990000870AA01082DE9F043D4
S31508007C201E469BB00746884614460021182204A81B
S31508007C300FF023FE0023F51DED0802936D0024B90D
S31508007C402A4C20461BB0BDE8F0834FF006294FF4B6
S31508007C50005144F4824404A8ADF810400AF08BFEA3
S31508007C604246394602ABCDF81C9000F005FD48B1F6
S31508007C7001F0FAF90546029800F00AFC04463DB3FD
S31508007C802C46DEE7402D03D9029800F001FCD7E721
S31508007C9003AB01934023DDE924120AAF0093304673
S31508007CA03B460CF070F80446029814B100F0F0FB5D
S31508007CB0C7E7039BAB42E8D1CDE90073DDE9222390
S31508007CC049460BF005FB50B9029800F0E1FB044663
S31508007CD0002CB6D0204601F0C7F90446B1E70722C2
S31508007CE0034B04490BF0D5FFC4E700BF80C1FFFF73
S31508007CF06990000870AA01082DE9F04105469CB074
S31508007D000021164605A818221F460FF0B6FDA868DA
S31508007D1005A90BF05BF938B10722144B14490BF08F
S31508007D20B8FF1CB0BDE8F081BDF8144005A804F4FE
S31508007D304F43B3F5824F18BF0024BDF816800BF0E9
S31508007D40F0FB4122A86804AB0BA90BF098F90028B0
S31508007D50E2D1239B04990393229B0096CDE90173F4
S31508007D60E2B243460BA8FFF759FFDAE76990000825
S31508007D7070AA010870B5002306460846BEB0CDE9CC
S31508007D8003334122806803AB05A90BF078F9044652
S31508007D9018B101F069F93EB070BD16ADA0223146A2
S31508007DA028460FF04EFC28460AF0E0FD0238314618
S31508007DB002284FF0A002284698BF179C0FF041FCF6
S31508007DC028460AF0D3FD0238022888BF00214FF062
S31508007DD0410398BF1799CDE900530022204604AB0A
S31508007DE06831FFF797F90028D5D1DDE903239A42D0
S31508007DF008D1294605A80FF016FD034B002818BF21
S31508007E001846C8E70048C6E780C1FFFF2DE9F041DC
S31508007E1090460027ACB004ADA02206460C4628467C
S31508007E20414603970FF00DFC28460AF09FFD0238DD
S31508007E300228404698BF059F0AF098FD072811D1E9
S31508007E4041222946D8F8080003AB0BF018F900BB05
S31508007E503068039A041B944214D26FF06B002CB05E
S31508007E60BDE8F08141230022CDE90053384603AB33
S31508007E7007F16801FFF74EF90028F0D13068A042F3
S31508007E80E7D2EAE7801A294630600FF0DAFB039852
S31508007E90E5E70148E3E700BF80C1FFFF73B5054684
S31508007EA010460C4616460AF061FD022809D13246EC
S31508007EB021462846FFF7AAFF00280DDB0346184689
S31508007EC00AE030460AF052FD07281BD100232A682B
S31508007ED00193944202D90C4802B070BD2146B0689D
S31508007EE001AB121B0BF0CBF80028F4D12868019AD5
S31508007EF02146801A28600FF0A6FC019B002B184625
S31508007F00DDDAE9E70148E7E780C1FFFF80C6FFFF42
S31508007F1010B50A46044619B1024B00211B6898475A
S31508007F2010BD00BFB4210020F8B50D4E0D4C0E4D06
S31508007F3033680E48984767782B680C489847336823
S31508007F400B489847022F08D12478E31F5C425C410E
S31508007F502B68074898472046F8BD0024F8E700BF75
S31508007F60BC2100205C100020B82100205C110020F4
S31508007F70C01100200E4B0340B3F1607F06D1B1F566
S31508007F80885F14BF6FF0860000207047B3F1707FDA
S31508007F900BD101F4E043B3F5005F06D111F4E06FAD
S31508007FA00CBF6FF08600002070476FF086007047A0
S31508007FB00000C07F8A42F8B507460C4600F01981D2
S31508007FC08F4922F4FF7323F001038B420ED08D4BA9
S31508007FD022F0FF01994209D08B4822F47F7323F0DF
S31508007FE00303834202D0894B994228D1884B24F057
S31508007FF0FF0199420FD114F0FF000BD0854B40F0DA
S315080080000070984240F0F78082EA0400FF288CBF8F
S3150800801000200120F8BD7B4B9942ECD0A3F588538C
S315080080209942E8D024F4FF7323F00103B3F1062F35
S31508008030E1D076488142DED073498B42DBD004F02A
S31508008040FE43B3F1A06F14D102F0FE43B3F1A06F63
S3150800805040F0D18082EA040333F47E1340F0CB80EB
S3150800806014F40040D6D0C4F30540C2F3054290424A
S31508008070CDE7B3F1407F40F0A88002F0FE43B3F1AC
S31508008080407F40F0B88082EA040535F47E1540F05A
S31508008090B28039462046FFF76DFF002840F0AB80D6
S315080080A05D4B12F47C1603EA020319D0B3F1607F24
S315080080B0C2F3054679D15949D3B243F000738B42CE
S315080080C077D003F17E43043B0F2B5CD8DFE803F03F
S315080080D05A5A5B716567696B65675B5B6567696B50
S315080080E0B3F1607F34D14D49D3B243F000738B426C
S315080080F044D003F17E43043B0F2BDCD801A151F891
S3150800810023F000BF8181000881810008B78000083C
S315080081107D810008FB810008458100084981000827
S315080081204D810008FB81000845810008B7800008DA
S31508008130B7800008FB8100084581000849810008CE
S315080081404D8100082026B6E73026B4E74026B2E778
S31508008150B3F1707F17D107F4E043B3F5005F03D19D
S315080081600126C7F302239E4007F4E043B3F5005FF8
S3150800817009D10125C7F302218D4004E010269AE7AC
S31508008180142698E7142514F47C1FC4F3054312D16A
S31508008190B54214BF002001203CE71C25F3E7202543
S315080081A0F1E73025EFE74025EDE7B3F1707FEAD137
S315080081B0DAE71025E7E712F47C1F01D1AB4218D0A5
S315080081C022047FF527AFB34221E7B3F1106F12D12E
S315080081D024F01F6020F4702068B902F0FE43B3F162
S315080081E0106F7FF417AF0E48104040F01060A042A1
S315080081F0CFE701200EE700200CE71C265BE700BF4F
S315080082000002000600130006000400060009000626
S3150800821000030006FF0000020000C07F0300000202
S315080082200000FFF610B5344B21F0FF02E8B19A4280
S3150800823036D003F580539A4232D0A3F588539A4232
S315080082402ED021F4FF7323F00103B3F1062F40D09B
S315080082502A4882423DD02A4A934221D0294B994244
S315080082600CBF00206FF0860010BD9A4203D111F0B2
S31508008270FF0318D1F8E7244B9A42F8D0A3F58853A0
S315080082809A42F4D021F4FF7323F00103B3F1062FC9
S31508008290EDD01A4CA242EAD0194A9342E4D1E6E755
S315080082A011F0FF0304D0194A43F00073934202D138
S315080082B06FF08600D8E7164A934208D003F17E434A
S315080082C0083B032B8CBF6FF085000020CCE700200D
S315080082D0CAE711F0FF03E6D1094B21F47F7121F0BB
S315080082E003019942E4D003F5A0639A4214BF002023
S315080082F06FF08600B8E700BF000300060009000615
S31508008300000400060008000600130006FF0000022D
S315080083100500000237B505460C46FFF705FE78B19D
S315080083200023224601932946074801AB0DF00EF8B3
S3150800833020B9019BA34218BF6FF0930003B030BD6C
S315080083406FF08800FAE700BF601000202DE9F04FB3
S31508008350456885B02D0A0446DDE90E6789469246CA
S315080083609B46DDF8408007D0114CA54218D06FF027
S31508008370860005B0BDE8F08FCDE90178009605F0D6
S3150800838033F910F1860FF4D15B465246494620462A
S31508008390CDE90F780E9605B0BDE8F04F0AF0A5BDF9
S315080083A0CDE90F780E9605B0BDE8F04F05F01CB97B
S315080083B0020080002DE9F843884617461C4600F05F
S315080083C021FD054688BBD8F80060B6F8009009F488
S315080083D0E043B3F5804FB36808BF27F0010737EAD3
S315080083E003031AD10CB3254B24F0FF029A421FD17E
S315080083F014F0FF0304D0224A43F00073934232D0AC
S3150800840022464846F168FFF7D5FD074668B9224671
S3150800841048463169FFF7CEFD70BB6FF0840500232F
S315080084203046C8F8003000F069FD2846BDE8F883F4
S31508008430144B9A42DCD0A3F588539A42D8D024F438
S31508008440FF7323F00103B3F1062FD1D00E498A42F8
S31508008450CED00E4A9342CBD004F0FE43B3F1407F10
S3150800846004D12304CCD56FF08605D8E7B3F1A06F05
S31508008470F7D0034B9C42C2E73D46D6E70003000609
S31508008480FF000002001300060009000600040006AB
S3150800849037B50446C0B101A900F0B4FC044698B942
S315080084A01C4B1D481B6898471C4D08BB0198037E4A
S315080084B0032B11D10BF061FA2B680446164898472E
S315080084C028B10CB96FF08F04204603B030BD002CDC
S315080084D008BF6FF08704F7E7022B15D1032303764D
S315080084E00379FF2B13D01BB140690BF087FA0446BA
S315080084F001980BF042FA2B68002818BF0446064874
S3150800850098470028E0D0DCE76FF09604F0E76FF0B4
S315080085108404EDE7BC21002024120020B8210020A5
S315080085202DE9F3410D46194600236F680B6038465E
S315080085301646D5F814800BF035FA044688B938463D
S315080085400BF032FA044660B9FFB277B9B8F1000FFA
S3150800855005D1AB6823F47F4323F0030363B16FF0BF
S315080085608604204602B0BDE8F081014668690BF032
S31508008570F3F90028EDD1F2E74FF6F8736A889A42C4
S3150800858027D8154B15481B682F79984710B16FF0F7
S315080085908F04E6E707B901A8314600F0F3FB104B54
S315080085A004461B680D48984710B1002CD9D1EEE750
S315080085B0002CD6D10FCDD6F800C066460FC695E872
S315080085C0030086E80300002FCBD1019BCCF81430BA
S315080085D0C7E76FF08504C4E7BC21002024120020F9
S315080085E0B8210020154B70B51B6805461448164679
S315080085F0984718B16FF08F04204670BD2B794BB998
S315080086006B69002433602B7E012B14D034606FF025
S31508008610960407E02846D5E908120BF00AFA04463C
S315080086200028EDD0074B06481B6898470028E3D07A
S31508008630002CE1D1DEE702232B76F3E7BC210020EC
S3150800864024120020B821002010B5044660B1074B5B
S3150800865007481B68984720460AF09BFCBDE810406F
S31508008660044B03481B68184710BD00BFBC210020F7
S3150800867024120020B82100202DE9F04105460020EB
S3150800868088B088461F461646CDE905001860002AB8
S3150800869056D0B2F1005F56D2294606AB05AAFFF7B7
S315080086A03FFF044698B90598436AABB10598324628
S315080086B043884146079307AB029300F124030193CD
S315080086C0436A0093036AFFF741FE0446A0B1DDE959
S315080086D00501FFF7B9FF29E06B681B0A05D01B4A9D
S315080086E0934202D06FF08604F1E731460AF0DAFBCE
S315080086F004460028DAD0EAE70598079B4288CAB9F3
S3150800870043804FF6F872934217D82B8813B1028824
S315080087109A42E7D16B8813B142889A42E2D13A4627
S315080087200699FFF75FFF04460028D0D1204608B017
S31508008730BDE8F0819A42D5D1E3E76FF08504C6E734
S315080087406FF08604F2E76FF08504EFE70200800019
S3150800875047F2010102888A4210D1104923F4FF72B8
S3150800876022F001028A4215D00D4A23F0FF039342F4
S3150800877014BF6FF086006FF08500704702F44F4211
S31508008780B2F5824F06D123F4FF7323F00103B3F148
S31508008790062FEDE76FF08500704700BF0002000660
S315080087A0001300062DE9F04117461C461F4A23F41C
S315080087B0FF7323F00103934205460E4698B00ED088
S315080087C01B4B24F0FF029A4209D01A4924F47F73FE
S315080087D023F003038B4202D0174B9A4222D1DDE9DC
S315080087E01E1207AB0193402314F0FF000DF1200879
S315080087F018BF40F00070009343460AF000FA70B9BB
S31508008800229B3A460493219B31460393209B284694
S315080088100293079BCDE9008323460AF06EFC18B045
S31508008820BDE8F0816FF08500F9E700BF0002000699
S3150800883000130006000400060009000644F20101C0
S31508008840028822F44050884210D1104923F4FF725E
S3150800885022F001028A4215D00D4A23F0FF03934203
S3150800886014BF6FF086006FF08500704702F44F4220
S31508008870B2F5824F06D123F4FF7323F00103B3F157
S31508008880062FEDE76FF08500704700BF000200066F
S3150800889000130006002307B51A46009102490AF09C
S315080088A065FD03B05DF804FB64AA010870B51C4EAB
S315080088B01C4C33681C4898472378580744BF23F054
S315080088C0040323702378990705D500F041FA237825
S315080088D023F002032370154D13482B689847336815
S315080088E01348984763781BB10023124A63605360A4
S315080088F0002308210F486370FFF70AFB2B680C4812
S31508008900984733680848984723780748DA0744BFE2
S3150800891023F0010323702B68BDE87040184700BF99
S31508008920BC2100205C100020C0110020B8210020C6
S315080089305C110020601000202DE9F041FFF7F4FAE1
S3150800894018B100242046BDE8F081344F34483B680E
S315080089509847044620B16FF08F04FFF7A7FFF1E7A9
S31508008960304D2B78D80706D40CF0E7FC04462B7854
S3150800897043F001032B702C4E29483368984710B1F1
S31508008980002CE8D0E9E7002CE7D13B682448984753
S3150800899004460028DFD12B78990706D400F0D0F9D1
S315080089A004462B7843F002032B7033681C4898471B
S315080089B00028E5D1002CD0D13B68194898470028F3
S315080089C0C9D13368164895F8008098470028C2D15F
S315080089D03B68164898470028BDD16B783BB918F014
S315080089E0010F04D0124B6C605C6002236B70336815
S315080089F00E4898470028AED13B6809489847002892
S31508008A00A9D12B7806485A075CBF43F004032B709C
S31508008A1033689847002894D09DE700BFBC21002002
S31508008A20C01100205C100020B82100205C11002035
S31508008A30601000202DE9F74300F4E040B0F5804FC0
S31508008A400D4616461F46DDF828902CD101F1680818
S31508008A50404609F08FFE88B94B4600224146284613
S31508008A60CDE90067FEF756FB0AF0E6F80446B0B112
S31508008A703A46002130460EF000FF10E0002301932D
S31508008A800D4B4146009305F1600205F11C0328468B
S31508008A9009F079FE0AF0D0F804460028DCD0204612
S31508008AA003B0BDE8F08349462846FEF795FE03B0B5
S31508008AB0BDE8F0430AF0C0B8CB3C0108F0B51D4646
S31508008AC00388174603F44F42B2F5824F18BF0023B6
S31508008AD00E46A1B04188D8B20BF0EDF80446F8B1BD
S31508008AE0684609F0CBFD21466846FEF79BFE04461C
S31508008AF070B903460C4A684618A9FEF725FE0446CF
S31508008B0030B93B46324629466846FEF765FE0446B6
S31508008B10684609F0F5FD20460AF08EF821B0F0BD4A
S31508008B206FF08500FAE700BFCB3C01080368114ADD
S31508008B3010B59342044609D8023A934215D88BB128
S31508008B40023A93420BD06FF088000DE003F17E43A2
S31508008B500A3B012BF7D808300BF06FF902E0083012
S31508008B600CF087FB0020206010BD08300CF07DFB60
S31508008B70F8E700BF0900000210B503680F4CA342CE
S31508008B8008D8023CA34215D8023CA3420BD06FF08A
S31508008B90880010BD03F17E430A3B012BF7D8083045
S31508008BA00BF050F902E0083004F09CF9BDE81040DB
S31508008BB00AF042B8083004F06FF9F7E70900000236
S31508008BC02DE9F04114461D460378344A43F00073F4
S31508008BD09342074688462C6037D003F17E43043B10
S31508008BE00F2B09D8DFE803F01C1C08312125292D95
S31508008BF0212508082125292D24B122462121404670
S31508008C000EF03BFE00263B68254A93422AD8023AD4
S31508008C1093423DD8023A93422FD06FF0880002E083
S31508008C20F4B96FF08900BDE8F081002CF9D01C2654
S31508008C300EE0002CF5D020260AE0002CF1D03026D4
S31508008C4006E0002CEDD0402602E0002CE9D01026E4
S31508008C502246212140460EF010FEB442D3D2E0E768
S31508008C601426F5E703F17E430A3B012BD5D8414686
S31508008C7007F108000BF037F904E0414607F1080050
S31508008C8004F03AF909F0D8FF0028CCD12E60CAE7DB
S31508008C90414607F1080004F009F9F3E7030000026A
S31508008CA00900000238B5074C074B20461B68984751
S31508008CB0064B204693F8F050054B1B689847284604
S31508008CC038BD00BFC0110020BC210020681000205C
S31508008CD0B821002000F14043052B70B505460E4625
S31508008CE00CD82822154C02FB0344237E022B02D102
S31508008CF06369834218D06FF08B001AE001210AF0ED
S31508008D002BFEB8B10D4B00221C46197E022902D152
S31508008D105969A94205D00132062A03F12803F4D17C
S31508008D20E9E7282303FB024420460AF008FE00B9B7
S31508008D30346070BD6FF08700FBE700BF6810002045
S31508008D400122024B002083F8F020704768100020AB
S31508008D502DE9F0410A4C002526464FF00108032765
S31508008D602046C4F81C80277601350AF012F9062D2C
S31508008D7004F12804F4D1002386F8F030BDE8F08128
S31508008D8068100020F8B506460F46FFF78BFF88B334
S31508008D9000241B4B22461D46197ED1B13CB9022937
S31508008DA005D1D96919B91979002918BF1C460132A4
S31508008DB0062A03F12803EFD114B96FF08C0006E0F8
S31508008DC020460AF0BCFD20460AF0E3F810B100245C
S31508008DD00EE01C46237E83B9012323763EB1651B2C
S31508008DE0ED1003F1CC335D4305F180453560002075
S31508008DF03C60F8BD6FF08800E9E76FF09600E6E79B
S31508008E006810002000232DE9F3410B6080460D46CB
S31508008E10FFF748FF002867D0354B36481B68984748
S31508008E20074628B16FF08F04204602B0BDE8F081EE
S31508008E3029464046FFF74EFF10F18C0F04462E4E8A
S31508008E4007D033682B4898470028EDD0002CEBD183
S31508008E50E8E729463846FFF795FF044618B1336810
S31508008E6024489847E0E701232F68CDE900006946C2
S31508008E703846C7F814807B6001AA0AF02CFE04461F
S31508008E8070B1DDE900010AF024FE28680AF081F8CD
S31508008E9014F18C0F08BF6FF0870400232B60D0E70E
S31508008EA0DDE9001238460AF010F80446DDE900014B
S31508008EB00AF00FFE002CE8D128688368D90444BF5D
S31508008EC043F48063836083689A0444BF43F4006371
S31508008ED08360037E012B04BF022303760AF02FFD6D
S31508008EE004460028ADD0D8E76FF088049CE700BF99
S31508008EF0BC21002024120020B82100200B4B10B5FD
S31508008F001B6804460A48984718B16FF08F04204634
S31508008F1010BD20460AF031FD064B04461B6804487E
S31508008F2098470028F3D0002CF1D1EEE7BC210020A9
S31508008F3024120020B821002037B5044630B1164B5C
S31508008F4016481B68984720B16FF08F04204603B077
S31508008F5030BD204601A9FFF7BDFE114D044640B1BC
S31508008F6010F18C0F2B680D4808BF6FF087049847DF
S31508008F70ECE70198C369012B0AD10AF00AF80446FE
S31508008F802B68064898470028E0D0002CDED1DBE79E
S31508008F900AF0F3FCF3E700BFBC21002024120020EE
S31508008FA0B821002030B40D4D2C681C606C685C60DC
S31508008FB000249C605468DC6014881C8254885C8297
S31508008FC094685C61D4689C61126930BCDA61196284
S31508008FD00A46014603F124000EF033BB68AA0108CD
S31508008FE02DE9F843232904460F4691469846089EDC
S31508008FF004D86FF098052846BDE8F8830822194971
S315080090000EF011FC05460028F3D1A368002BF0D119
S31508009010216A243F8F42C8F80010EAD3B1F5005FF1
S31508009020E7D271B9C9F80000E3687360238A338010
S31508009030638A73806369B360A369F360E369336124
S31508009040D9E701200CF08EFEC9F8000030B1D8F837
S31508009050002004F124010EF0F4FAE5E76FF08C0520
S31508009060C9E700BF68AA010800F19903142B1AD8AA
S31508009070DFE803F017171919191919171919191902
S315080090801319191B150B0F0D1100094870470948CC
S3150800909070470948704709487047094870470948A2
S315080090A07047094870470AF0D7BD0848704700BF9F
S315080090B000C3FFFF80C6FFFF80C5FFFF00C1FFFF9B
S315080090C080C0FFFF80C1FFFF00C2FFFF80C7FFFF10
S315080090D002460B462DE9F04FADF5437D0D90103253
S315080090E0B2AD00F150062C4610685168083203C428
S315080090F0B2422546F7D1194610AB01F180044868FB
S315080091000A6800BA083112BA43F8080F8C425A6046
S31508009110F5D1102512A88446D0E91C47D0E90216D5
S31508009120E30CFA0C4FEAC70E4FEAC4084EEA547E1F
S3150800913043EA473342EA443248EA5778A40982EABE
S315080091400E0244EA876483EA0803634082EA9712B8
S31508009150DCE91247DCE900EC14EB0E0447EB0C07DC
S315080091601B1942EB07024C084FEA112E77084FEA03
S31508009170162C47EAC1774CEA016C44EAC6744EEAF3
S31508009180066EC90984EA0E0441EA4661614087EA27
S315080091900C075B1887EAD61405F1010542EB0402B1
S315080091A00830502DC0E91E32B5D1BA9BBB9806933C
S315080091B0BE9BDDF8E4C20793BF9BDFF880E80893FF
S315080091C0BC9BDDE9C0AB0993BD9BDDE9B6890A9373
S315080091D0B29B0193B39B0293B49B0393B59B0493F1
S315080091E0B89B05930EAB069A940B950C44EA8047F8
S315080091F045EA8035840B44EA82466F40840CD505DF
S3150800920044EA823445EA50256F406640DEF800504D
S31508009210C40544EA52246640D3E90424AD18DEF8AE
S31508009220042042EB04047D19079A46EB0404099EC0
S315080092300A9F5640089A5740069A07401640079ACA
S315080092405640089AAD1987EA0207059A44EB0704BF
S3150800925015EB0A054BEB0404AA18059244EB0C021D
S315080092600B92019A170F029A47EA0217160F019AEC
S3150800927046EA0216029A9107019A41EA92014FEAD2
S31508009280827C029A4E404CEA920C87EA0C074FEA17
S31508009290426C019A4CEAD21C5106029A86EA0C06DE
S315080092A041EAD2117940491944EB0606019A039C12
S315080092B0049D1443029A039F1543019A04EA08047D
S315080092C002EA070C029A049F44EA0C04174005EACE
S315080092D0090511EB040A45EA070546EB050BDEE925
S315080092E00216079AD3E90654491946EB0404891865
S315080092F0089A069D42EB0404099A85EA02060A9A28
S3150800930080EA0205059A16400B9A1540099A5640B6
S315080093100A9A891985EA0205059A44EB0504950B0C
S315080093200B9A45EA8245970B059A47EA82474FEA20
S31508009330924C0B9A4CEA823C960C059A85EA0C05E7
S3150800934046EA82360B9A7740D605059A46EA5226A9
S315080093504FEAC25C0B9A7E404CEA522C85EA0C0511
S315080093604D1944EB06064FEA8B714FEA1B7415EB51
S31508009370080241EA9A014FEA1A7744EA0A144FEAC0
S315080093808A7C4CEA9B0C079247EA0B1746EB0902C4
S315080093904C404FEA4A6187EA0C07089241EADB111A
S315080093A0019A79404FEA4B6C4D194CEADA1C4AEAA5
S315080093B00201029A84EA0C0446EB04044BEA02060C
S315080093C0039A1140049A1640019A0AEA020C029A74
S315080093D041EA0C010BEA020715EB010846EA070603
S315080093E044EB0609D3E90856DEE90414099A491933
S315080093F044EB060489180A9A42EB0404DDE90525BC
S3150800940085EA02060B9A80EA0205079A1640089A28
S315080094101540069A45405640079A891944EB0504B3
S31508009420950B089A45EA8245970B079A47EA8247B9
S315080094304FEA924C089A4CEA823C960C079A85EABF
S315080094400C0546EA8236089A7740D605079A46EA10
S3150800945052264FEAC25C089A7E404CEA522C85EAAC
S315080094600C05039A4D1944EB06064FEA8971521901
S315080094704FEA197441EA980109924FEA1877049A53
S3150800948044EA08144FEA887C4CEA990C47EA09171B
S3150800949084EA01044FEA486142EB060287EA0C07B0
S315080094A041EAD91179400A924FEA496C019A4D1955
S315080094B04CEAD81C4AEA080184EA0C0401EA0201CB
S315080094C0029A46EB04040AEA080C4BEA09060BEA78
S315080094D0090741EA0C0116403E436A18039244EB19
S315080094E006020492069ADEE90616D3E90A544919D1
S315080094F046EB0404891840EB0404059A0798504083
S315080095000B9A089D099F6A40099D28400A9D2A4092
S31508009510059D68400B9D091882EA050244EB020482
S31508009520099A0A98920B42EA8042850B099845EAFD
S315080095308045860C0A9846EA8036800C40EA8730D1
S3150800954045400A987240C00540EA5720FE050A9F22
S31508009550684046EA572672408A18019944EB00008B
S31508009560891806910299039E41EB00010C91039913
S31508009570049F0D0F049945EA01150C0F039944EA57
S3150800958001140499890741EA9601B60746EA97063F
S315080095904C40039975407E0646EAD116490641EACB
S315080095A0D71169408A180399039D84EA060448EA94
S315080095B0010140EB040408EA050649EA070001EA46
S315080095C00A0109EA0705314300EA0B00521840EA86
S315080095D00500019244EB00020292D3E90C01DEE990
S315080095E008241218059844EB010112180B98099CD7
S315080095F040EB010107980A9D44400898069F684079
S31508009600069D2C400C9D2840079D6C40089D12190C
S3150800961080EA050041EB00010698850B0C9845EA9F
S315080096208045840B069844EA8044860C0C9846EAE2
S315080096308036800C40EA873044400C987540C60551
S3150800964046EA5726F8050C9F744040EA57206840BA
S315080096501018019A41EB04040299120F42EA01120A
S315080096604FEA117C0199019D4CEA011C0299029E60
S31508009670890741EA9501AD0745EA96058CEA010C8A
S3150800968001996A40750645EAD115490641EAD61197
S315080096901AEB000A81EA02014BEB040B039A09183C
S315080096A001988CEA050C44EB0C0C019D42EA000477
S315080096B00398049A2840049D04EA08043243354076
S315080096C002EA09022043091842EA05024CEB020C99
S315080096D00591DEE90A25D3E90E401219079C45EBE8
S315080096E000001219089C069D44EB0000099C099E7F
S315080096F065400A9C05EA0A0575407C400A9E04EA0C
S315080097000B047440521940EB04004FEA9B454FEA9C
S315080097109B3445EA8A354FEA9A3644EA8A444FEA40
S315080097209A4747EA8B376C4046EA8B464FEACA5552
S315080097307E4045EA5B254FEACB57754047EA5A27EC
S31508009740521984EA070440EB040018EB0204079454
S3150800975049EB000408944FEA1C754FEA8C7444EAF6
S3150800976091040E0F45EA01158F0747EA9C076540E5
S3150800977046EA0C164C067E4044EADC144FEA4C676F
S3150800978047EAD1177440A21885EA070540EB050594
S315080097900198039C40EA010602982640049C40EA88
S315080097A00C002040019C029F0C40344307EA0C073A
S315080097B012EB040840EA070045EB0009D3E9104517
S315080097C0DEE90C201219099C40EB050012190A9CC7
S315080097D0079E44EB0000069C84EA0A050C9C35406B
S315080097E0089E84EA0B043440069E75400C9E521966
S315080097F084EA060440EB0400079C089DA40B44EA8F
S315080098008544AE0B079D46EA8546AF0C089D079929
S3150800981047EA8537AD0C45EA813508996E40CD058E
S3150800982007997C4045EA5125CF050899754047EACE
S3150800983051277C401419039A40EB05051219099221
S31508009840049A4FEA197042EB05020A924FEA8972A6
S3150800985042EA98024FEA187640EA08104FEA8877F3
S3150800986047EA9907504046EA09164FEA48627E4099
S3150800987042EAD91272401419059A019942EA080671
S3150800988006EA010602994FEA49674CEA090247EADD
S31508009890D81702EA0102059980EA070045EB00009D
S315080098A001EA080535430CEA0907611942EA070285
S315080098B040EB0202D3E912450492DEE90E201419A0
S315080098C0069A40EB0505A4180C9A039142EB050588
S315080098D0079A09998AEA0200089A08400A998BEABF
S315080098E002020A4080EA0A00241882EA0B0245EBC3
S315080098F00205099A4033960B46EA81468A0B09996E
S315080099000EF1400E42EA81428F0C0A9947EA8137E6
S31508009910880C09997E4040EA81300A994240CF0571
S31508009920099947EA5127C8050A997A4040EA512019
S315080099307040241845EB0205039A0499120F42EA6F
S315080099400112080F039940EA011004998E0703993A
S3150800995046EA91068F070499704047EA91074E0632
S3150800996003997A4046EAD1164F060499704047EAA9
S31508009970D11703997A4048EA0107049949EA01068A
S31508009980059906EA0C0639400691039908EA010783
S31508009990049909EA01010B9106990F430B99D71906
S315080099A0019A46EA010640EB060612190692029A41
S315080099B042EB0500E219019245EB06020292AEAAB5
S315080099C09A427FF410AC059BCDE9C0ABCDE9B83C13
S315080099D0079BCDE9B689BE93089BCDE91076BF9360
S315080099E0099BCDE90E45BC930A9BB0ACBD93039B7E
S315080099F0B493049BB593069BCDE9BA30019BB29309
S31508009A00029BB3930D9B03F10802483352F8081FD3
S31508009A1054F8085F50686668491940EB06009A4290
S31508009A20C2E90010F2D10EA84FF43471FEF770FAAD
S31508009A3000200DF5437DBDE8F08F00BF90AA010810
S31508009A4070B5094D04462860084801600849094868
S31508009A500A60094A1360A0472B68084898472B688C
S31508009A600748BDE870401847C4210020C0210020DF
S31508009A70BC21002024120020B8210020C01100209B
S31508009A805C1100202DE9F04FCBB0029008460C4639
S31508009A9005250DF05FFE0023CDE9075309930593CD
S31508009AA0029B27181E68002E40F0F2802546B24613
S31508009AB04FF0010BDFF83C92BD4206D90998002801
S31508009AC037D148464BB0BDE8F08F2B78BBF1000F75
S31508009AD000F0F9803D2B40F0D980DFF81CA22A1B44
S31508009AE0DAF800603EB9214607A808F07FFE00288C
S31508009AF000F0E780F6E0DAF804309A4208D1214609
S31508009B00304603920DF0B1FD039A002800F0C68096
S31508009B100AF1100AE4E72378232B7AD100232A1BBB
S31508009B2002F1FF3B1BF00108069305D0DFF8C4914C
S31508009B30099810F0E2F9C4E7033AB2F5027F4FEA52
S31508009B405B0BF3D2594601200CF00CF9814600282C
S31508009B505CD0BBF1000F0ED14B4613F8014B05AA9A
S31508009B6009EB0B0106A8069307F0E3F890B14846FF
S31508009B7010F0C3F9DAE7013420460AF04DFA002856
S31508009B80F5DB09F8080008F10108C34504F10204E9
S31508009B90F2D1E1E7059AB2F5807FE8D81F2C06993D
S31508009BA007D8524BE340D80703D50B4650189842BE
S31508009BB026D10AA80DF045FD484610F09EF9DDE9C4
S31508009BC00821059B029800930AAB07F04BFA8146D9
S31508009BD0099810F092F900230993B9F1000F5AD0A9
S31508009BE02B46C9F80C401D460133AF421C4602D02D
S31508009BF06A78202AF7D04FF0010B4FF0000945E0AC
S31508009C0013F801CBBCF1000FD1D1B0E7DFF8EC9027
S31508009C108EE7BAF1000F62D10DF12808C346A542B6
S31508009C2004D8A8EB0B03F4680593C8E721785C29E8
S31508009C3026D1A21C954204F10109039213D948467C
S31508009C400AF0EAF9431C0ED0002848D0039A08F116
S31508009C50010CC1B2ACEB0B0CBCF5807F08F8011BFC
S31508009C603DD0541CDBE74D4539D96178204803912E
S31508009C700DF0AFFB98B34A46039908F1010CE9E7E2
S31508009C80224608F1010CE5E74FF0000B013513E712
S31508009C90DFF86C9015E7DFF8649012E70390DAF8BE
S31508009CA008000DF057FD0146089001200CF05AF8FF
S31508009CB0089ADAF8081009900DF0C3FC039B56467B
S31508009CC09B46DA466C1C2B782C2B03D115F8013CE5
S31508009CD05C2B01D1BD42D7D1A5427FF41CAF0998B0
S31508009CE010F00BF9DFF80C90EBE600BF00105850A7
S31508009CF010AD010880DCFFFF34AD010880D7FFFFF7
S31508009D0000D8FFFF2DE9F04F0746A1B00D46012008
S31508009D104B21144609930CF025F88046002800F0DC
S31508009D201F8100230B933B7A29460893FA682B195F
S31508009D300CA807930C930AF031FA041EC0F2F580BA
S31508009D4000F0FA80224629460CA807F0A3F8A14697
S31508009D50041EC0F2EA80302229460DEB020007F005
S31508009D60BDF8061EC0F2F380A1444E443246294689
S31508009D700CA807F08FF8041EC0F2D78031222946B6
S31508009D800CA807F0ABF8B0F10009C0F2DC80092393
S31508009D902946744A0CA807F008F90028C0F2D580AD
S31508009DA026444E4400EB06094A4629460CA807F005
S31508009DB071F8041EC0F2B980302229460DEB020064
S31508009DC007F08CF8061EC0F2C280A1444E44324603
S31508009DD029460CA807F05EF8B0F1000AC0F2B18077
S31508009DE0A02229460CA807F079F8B0F10009C0F2BC
S31508009DF0AA800C9A29463868521B08F061FE041E90
S31508009E00C0F293800C9B29461B1B7A680CA80C93FE
S31508009E100AF014F9A346041EC0F2878000222946D8
S31508009E200CA807F00AF90028C0F28F8056444E4461
S31508009E305E44264400EB06094A4629460CA807F064
S31508009E4029F8041E71DB302229460DEB020007F0C3
S31508009E5045F8061E7BDB0FAB019340230898A14407
S31508009E604E44009332466B440C9940F0007009F05A
S31508009E7031F9034600286CD12A9A0492099A03926A
S31508009E800EAA02924B22CDE9008210AA397A3868C6
S31508009E9008F05AFD0446002847D10121386808F021
S31508009EA04AFD00284AD10421386808F044FD0028F4
S31508009EB052D04FF004094846397A0BAB0AAAFDF787
S31508009EC023FD044688BB32460C9928460DF0BBFC98
S31508009ED0079BCDF808900D930E9BA919CDE9008331
S31508009EE0DDE90A230DA80AF00FF9041E1DDB0D98FB
S31508009EF03246801B294626440D900DF0A4FC3246B6
S31508009F0029460DA806F0C6FF041E0EDB3022294698
S31508009F100DA806F0E3FF071E20DB0D9A0021284650
S31508009F20521B0DF0AAFC34443C4440460FF0E5FFB2
S31508009F30204621B0BDE8F08F264648E74FF00109D4
S31508009F40B9E75446F1E74C46EFE70446EDE73446F1
S31508009F50EBE76FF06F04E8E7034CE6E73C46E4E717
S31508009F60024CE5E704AF010800DDFFFF80D7FFFFDD
S31508009F7070B5002686B005960A9E0C4600961546CC
S31508009F80FFF7C0FE00280ADB2A1A05ABCDE9015304
S31508009F9004490346009404482244FDF7F3FC06B03E
S31508009FA070BD00BF0EAF010831AF0108BFF34F8F78
S31508009FB00549064BCA6802F4E0621343CB60BFF357
S31508009FC04F8F00BFFDE700BF00ED00E00400FA0573
S31508009FD00348044A0449121A92100AF084B900BFC9
S31508009FE0706100081C630008F81F002008B5154BAF
S31508009FF083F30A8800F030F8FFF7EAFF124B13499B
S3150800A0008B4212D30020124B12498B4218D3FCF70D
S3150800A0106BFA186850F82240586840F82240013216
S3150800A02098688242F5D30C33EAE70022F8E71C6801
S3150800A03044F8220001325C68A242F8D30833E4E708
S3150800A0400022F8E70800002050B801085CB80108AB
S3150800A0505CB801085CB801084FF48041124B134AFA
S3150800A06070B59A60D3F88820114D42F47002C3F88F
S3150800A0708820104A05F5005491664FF0FF32226693
S3150800A0800D4A62660222C3F8D020BFF34F8FBFF392
S3150800A0906F8F4FF44036002003F0D8FC0020E660AE
S3150800A0A003F0C6FC2E6170BD00ED00E000600008FC
S3150800A0B00080004400900050F7FF37002DE9F04F6C
S3150800A0C0144605460E469B46C36B87B001225B695C
S3150800A0D002A960689847EB6B01225B6903A93046C1
S3150800A0E0984702A80AF06AFD074648B10023A375F7
S3150800A0F063754FF0FF33A360002007B0BDE8F08F0B
S3150800A10003A80AF068FD0123A375237E04EBC303A5
S3150800A110DE611F846368B3420ED1206003A80AF08B
S3150800A1207CFD4FF0FF332075A360237D043B022B93
S3150800A13026D80023A375DFE723681A1A534253412A
S3150800A140A37503A80AF069FD237D834218BFA77586
S3150800A15003A80AF044FD074602A80AF040FD874214
S3150800A16018BF002303A818BFA3750AF040FD0746C9
S3150800A17002A80AF03CFD87421CBF0023A375D4E75A
S3150800A18003A80AF02CFD80B1EB6B022230465B690E
S3150800A19004A9984704A80AF031FD0346207D032840
S3150800A1A039D8DFE800F03838040903A8F3E7CC22E9
S3150800A1B0237E04EBC3031A8401F0A0FA109B1870DF
S3150800A1C003A8277E0AF0FFFC04EBC70787F82200DE
S3150800A1D0237E03A804EBC303B3F8209093F82270F8
S3150800A1E00AF0FDFC804603A80AF001FD8246B8F194
S3150800A1F0000F15D0EB6B022230465B6904A998471D
S3150800A20004A80AF0C0FC6075637D6BB90023A375CA
S3150800A2104FF0000838E0227E04EBC2021384CBE735
S3150800A22003A80AF09BFCEEE794F81680B8F1000F35
S3150800A230EED0B9F1000F09D1DFB10123E375637ED2
S3150800A240002B4FD1012F42D1677614E06B6C06EBD9
S3150800A2500A02594286EA020008421CBF0021A1757B
S3150800A260591E0A409B1A9945D0D8A37D002BE3D1E5
S3150800A270CEE7E37D43B94FF000084B4652463146D8
S3150800A28028460AF0DDF9A060A27D12B123694B4485
S3150800A29023611A49237E097899422AD901332376FC
S3150800A2A0BBF1000F27D032B3E37D23B3B8F1000F1B
S3150800A2B021D1032F1FD0A1684B1C1CD0109B22460E
S3150800A2C0009328460123FFF7F9FEA07513E095F8D9
S3150800A2D0343063B9EB6A0133CFD1032FCDD10123D3
S3150800A2E0A376C8E7012FCFD0032FC4D1F7E7984646
S3150800A2F0C3E70023A375A07DFFE600BF78AF01087A
S3150800A3002DE9F04F0E46984600238BB004464FF0D1
S3150800A310FF31104617468DF8133001F0D9F9B6F516
S3150800A320801F3BD3B21C53D1E56A6B1C57D120461C
S3150800A330616A0AF0CBF80546B31C18BF0123DFF89B
S3150800A34010910193636A626C0293236805A902FB64
S3150800A350053AE36B05225B695046984705A80AF05B
S3150800A360C8FC0AF0EBFC50460AF0F3FC4FF0000B71
S3150800A370824601464B1C05D0636C81EA0A025B42A1
S3150800A380134232D0294620460AF0A0F8029BAB4277
S3150800A3904DD0BBF1000F4DD10546D3E7314605AA8E
S3150800A3A004F108000AF05CFB0146481C10D0384648
S3150800A3B001F08EF90122394620460DF113030AF001
S3150800A3C091F928B19DF8133088F80030002003E091
S3150800A3D0237C002BA8D12D200BB0BDE8F08F236875
S3150800A3E0ED1A636CB5FBF3F5A6E7484601F070F97C
S3150800A3F00DF1130349462046019A0AF073F90346FC
S3150800A40090B1B21C03D0D9F80020B2420CD19DF805
S3150800A410132003930D4B88F8002049461A683846DE
S3150800A4200DF00FF9039B9B46D9F80810A2E7BBF17C
S3150800A430000FD0D0B6F5801FC8D2314698F8003044
S3150800A4407A6804F1080001F089F8BFE774AF0108DB
S3150800A450BC1200202DE9F3410446174698460E46DD
S3150800A460194D816AE36A8B422AD04B1C18E02846AC
S3150800A47001F02EF90122294620460DF107030AF0BC
S3150800A48031F930B14346294620469DF80720B8479A
S3150800A490B0B1A9684A1C05D0012E0AD0E36A9942D0
S3150800A4A0E5D10DE0696820460AF09DF8012E0146BF
S3150800A4B0D8D16B6881EA0302636C5B421A42D1D039
S3150800A4C002B0BDE8F08100BF901200202DE9F047E8
S3150800A4D04FF0FF334FF6FF720025044600F10806D9
S3150800A4E0C0E909238AB0C3620562056330460F4690
S3150800A4F00AF087FA204609F069FF28BB2046394644
S3150800A5000AF034F8204609F061FF28BB5E200AB03D
S3150800A510BDE8F087E26B2368606CD2F814C000FBD4
S3150800A5200530052205A9E04705A80AF0E2FB01283F
S3150800A53040F083802946204609F0E9FF421C294657
S3150800A540204609F062FF0135E3699D42E2D32046C1
S3150800A55009F03CFF0028D1D0204609F067FF4FF6E6
S3150800A560FF72636A934200F0B080E26B676C206802
S3150800A570694607FB030055690522A84768460AF09D
S3150800A5808FFB626A2368606C514D00FB02300AF04B
S3150800A590E0FB4FF0FF33A062E3622A466FF0010149
S3150800A5A0204605ABFFF7ACFE002850D1AD6829461A
S3150800A5B02046E56209F0E6FE206320B92046E16AF6
S3150800A5C00AF011F8E062294620460AF00CF805461A
S3150800A5D0A36A9D423DD1204609F092FE0027804697
S3150800A5E0B946E369994546D3B84563D92046616AB1
S3150800A5F009F06CFF0026054604F1400ABE4212D354
S3150800A600626C2368694602FB0539E36B05225B69C0
S3150800A6104846984768460AF043FB53460246494669
S3150800A620E06B0AF098FB2946204609F04FFF0136F1
S3150800A630B0450546E2D1642069E70AF084FB0028A4
S3150800A64081D02946204609F062FF024677E7A56AC7
S3150800A650ADE72946204609F095FE236B29460344B3
S3150800A66007462363204609F0BEFF0546002FAFD1F3
S3150800A670C4E90B07ACE7636C2568052203FB09559B
S3150800A680E36B05A95B692846984705A80AF031FBDC
S3150800A6900AF054FB58B128460AF05BFB01462046EF
S3150800A6A009F070FE636C143B984208BF013709F144
S3150800A6B0010996E730460AF0A4F900232046194610
S3150800A6C0044AFFF7C7FE002021E767201FE700BFFF
S3150800A6D0E8120020D34601082DE9F041036B9046A5
S3150800A6E0826B07689A4288BF8363426C436A90B05C
S3150800A6F002FB0377C36B0E46052201A95B69044674
S3150800A7003846984701A80AF0F4FA0128014630703D
S3150800A71057D0656CE26B2368606AD2F814C005FBF3
S3150800A7200030052206A9E04706A80AF0E2FA012841
S3150800A7304FF0000523D0D4E90A3201219342CDE92E
S3150800A7400B458DF834800E958DF83C102AD11946A4
S3150800A750204609F048FF236B626C14339B1AE062AB
S3150800A76023630C9B53B99DF83C303BB1626A616C1C
S3150800A7702368E06B01FB02310AF073FA0C9DE36B68
S3150800A78005225B6901A93846984701A80AF0B1FA7B
S3150800A79030702846236BA26B9A4288BFA36310B019
S3150800A7A0BDE8F081237C33B91C490BAA04F10800E3
S3150800A7B000F022FFD5E72046194A0BABFFF74AFE01
S3150800A7C0CFE7237C23BB2246164904F1080000F094
S3150800A7D013FF616A204609F09AFE616A421C204608
S3150800A7E009F013FE054620B9236B626C1344143B2B
S3150800A7F023632046A16A09F0F6FE2368A062C01A00
S3150800A800636CB0FBF3F06062204609F02FFFB6E7F1
S3150800A81000232046044AFFF71DFEDAE771AF000859
S3150800A820EDAE00086D4701080947010873B50D46E6
S3150800A830D11E4A421C461B7E4A419A4226D12968A5
S3150800A8402368994222D3636899421FD8114E0DF1A5
S3150800A85007033246FFF754FDC0B972686B689A421F
S3150800A86014D19DF80730DA1E53425341227E934293
S3150800A8700CD1636901336361D4E90323934205D29A
S3150800A8802968A26842F8231001332361012002B027
S3150800A89070BD00BFE81200202DE9F04F9A468BB034
S3150800A8A09DF85030DFF850B10293DBF8103080463F
S3150800A8B053450D461646C0F09980D146DBF804305C
S3150800A8C00193B9F1000F00F08D80D8F83C300122D1
S3150800A8D05B6907A90198984707A80AF07CF9DBF88D
S3150800A8E00030984240F0858007A80AF080F90428CD
S3150800A8F0074614D107A80AF081F9019B029A044673
S3150800A9003B44002A3FD1864212D91446361A40469D
S3150800A910019909F068FEA9EB04090190D1E7D8F876
S3150800A9203C3002225B69019808A9984708A8E2E723
S3150800A930841B544528BF5446032C03EB0607AAEB91
S3150800A940040A4FEA94021CD9D8F83C3029463846FE
S3150800A9505B69984724F0030304F003061F441D446B
S3150800A960002ED4D0D8F83C3001225B6908A93846B5
S3150800A97098473246284608A935440CF062FE002658
S3150800A980C5E72646ECE7074600F0030203920344B0
S3150800A9902A1804920593049BDD1B059BD81B039B71
S3150800A9A09F420FD1002FB2D0D8F83C30012208A917
S3150800A9B05B6998473A46284608A90CF034FF78B9E7
S3150800A9C03D44A4E7D8F83C30012208A95B699847BA
S3150800A9D00422284608A90CF026FF08B9043FDAE73E
S3150800A9E04FF0360948460BB0BDE8F08F4FF06309C3
S3150800A9F0F8E74FF06F09F5E7141300202DE9F04149
S3150800AA000F4616469846044688B060B390F8345008
S3150800AA10FDB1012109F0CFFC00210E9BCDE90511FE
S3150800AA20CDE902379DF83C30CDF804808DF81C300E
S3150800AA30237C04968BB90D4901AA04F1080000F09D
S3150800AA40DBFDDDE90553E06B002E08BF1D4609F066
S3150800AA509BFE284608B0BDE8F0812046044A01ABB3
S3150800AA60FFF7F8FCEDE70546F3E700BF37470108AF
S3150800AA702DA800082DE9F04F99B00F4609920A69EA
S3150800AA80416C0E931439D31DB3FBF1F3013302EB7A
S3150800AA90C302036B04469342C0F0BC810023DFF86F
S3150800AAA044940D93E36A48461946079300F010FE4E
S3150800AAB0D7E9033604930E9B022B4ED1CC2E40F0D9
S3150800AAC08A81099B002B42D03946204609F0BAFEF6
S3150800AAD0656C079A6B1E13401490ED1AE36B0122FE
S3150800AAE05B6916A97868984716A80AF078F80028C6
S3150800AAF00CBF04230823782E06933DD9012300258D
S3150800AB004FF0080A05933B6805990E98C9F8003076
S3150800AB10C9F810600AF085F84FEA9A0310930023E3
S3150800AB20DDF81CB089F814000B930F9308930C9367
S3150800AB30616C4A1E0BEA02028B1A002E38D0554465
S3150800AB40AB4240D8236B5B1A13442363ABE0049BE8
S3150800AB501B68149308230693D0E7656C079A6B1E47
S3150800AB601340782EA5EB030516D8FB7D7BB9099B08
S3150800AB70002BB3D104230693331DAB4210D9A6B1DB
S3150800AB80082DBBD804250023AA460593BBE7099BD5
S3150800AB90002BA3D10823EEE7099B002B9ED1D9E70A
S3150800ABA0002505954FF0040AADE704250596F9E753
S3150800ABB05345C7D3B0460BEB0A030393089B002BF8
S3150800ABC018BF032313E0A3EB0A039E42B0460BEB20
S3150800ABD00A0228BF98469E420392EFD90123D9F864
S3150800ABE0102089F81730964271D1C9F804B0089335
S3150800ABF099F81730002B6CD099F818200899D31CAF
S3150800AC0009EBC3030132C3F804B0A3F808809972AC
S3150800AC1089F81820B8F1000F14D00E9B022B5BD1CF
S3150800AC200B9B7BB90F9B4344032B0BD9E36B012288
S3150800AC309B69039814A998470546002840F0EC80BC
S3150800AC4001230B93089B16A80193059B009399F87B
S3150800AC5014204346396800F0F1FCE36B58469B69BB
S3150800AC60109A16A99847051E0D9B18BF5B465246B3
S3150800AC700D9359464346204609F0E2FC236B08F13A
S3150800AC800302A3EB0A0322F003029B1AC9F8080081
S3150800AC902363002D40F0C0800F9BDDF80CB04344C1
S3150800ACA0A6EB08060F935946204609F09CFC00259A
S3150800ACB08346002E7FF43CAF8A4A3968936804F1CC
S3150800ACC00800E36252680E9B00F048FC84E0022309
S3150800ACD08DE7C9F804B09DE7099B002B30D1049B8A
S3150800ACE0B8F1030F43440A9327D9DDE90301E36B5F
S3150800ACF04FEA98029B6998470546002865D118F0DF
S3150800AD0003025FD0049B28F003052B440493039B9E
S3150800AD101D444FF0FF33049915A815930CF091FCC8
S3150800AD20E36B28469B69012215A9984705460A9BA5
S3150800AD300493002D86D0039B99E74246039DE8E7D6
S3150800AD40039B0A9307F120031193FB7D78689BB157
S3150800AD5000233D7E0C9AD9B28D4211D9119903F17F
S3150800AD60010C31F83310914226D9069907EBC30333
S3150800AD70D8690A44104403E00C9B069A1344184405
S3150800AD80E36B01225B6915A99847159B012213936A
S3150800AD900C9B0A9804330C93E36B13A99B69984799
S3150800ADA0039B0A9A43449B1A042B054607D978B98C
S3150800ADB0134604330A93C8E76346521ACBE70A9B3D
S3150800ADC00393B6E70A9B04933CE70A9B0493B2E70E
S3150800ADD00A9B0393AFE77026304619B0BDE8F08F9B
S3150800ADE0002657E004F1080009F00BFE3346314609
S3150800ADF020463D4AFFF72EFB3A69616CD31D14398C
S3150800AE00B3FBF1F3013302EBC302236B9342BFF4A6
S3150800AE1049AE65E01C26DFE73D2D61D104F1080344
S3150800AE2003932368079A606CD61AB6FBF0F600FB04
S3150800AE30063009F08EFFE16A8246204609F0D3FB08
S3150800AE40A26A8242D8D0626CD9F80830511E0B40EB
S3150800AE50216BE062891A0B4423630D992368CB1A88
S3150800AE60B3FBF2F84645BBD1079BB3EB0A0611D0F4
S3150800AE70E36BB20851469B6998478346E36A079A8B
S3150800AE803344E362236B03989B1A5344236309F004
S3150800AE90B8FD5E462368616CE06B01FB083109F07A
S3150800AEA0CDFE204609F092FA204609F0BFFA626AFA
S3150800AEB02368606C00FB023009F04BFFA062204655
S3150800AEC009F0D4FB2063002E8CD03A69616CD31D3F
S3150800AED01439B3FBF1F3013302EBC3029042A0D25B
S3150800AEE02E4679E7BC120020D3460108032A2DE92D
S3150800AEF0F34106460D4617461C4606D1237A012B12
S3150800AF0023D0012002B0BDE8F081DFF8608009682F
S3150800AF1042460DF10703FFF7F3F960600028EDD10B
S3150800AF209DF80720237A032AE8D0D8F804106A681F
S3150800AF309142E3D1012B2969D4F80CC007D1726973
S3150800AF400CEB0103934202D92074207CDAE708311E
S3150800AF506144E1603B46012229463046FFF78AFDF7
S3150800AF6060600028CAD00020CCE700BFE8120020A5
S3150800AF702DE9F341089C032A1746266806D1237A49
S3150800AF80012B24D0012002B0BDE8F081DFF89080C3
S3150800AF90304642460DF10703FFF7B2F96060002814
S3150800AFA0EDD12568D8F80400A96AD5F844C0484008
S3150800AFB0CCF100031840227AE1D1012A09D1E268CE
S3150800AFC0D8F8103013447269934202D92074207C51
S3150800AFD0D9E72868EB6A1B1A081AB3FBFCF3B0FB1F
S3150800AFE0FCF083420BD1706CF36A421E1340326B3D
S3150800AFF0121A13442846336309F0F5FAE862D8F8BA
S3150800B0001020E36808321344E36001223B460449F2
S3150800B0102068FFF72FFD60600028B0D00020B2E757
S3150800B020E81200202DE9F0410025634B0E46D3F8BF
S3150800B030008004461D6018B921252846BDE8F08120
S3150800B04090F8347007B30A6803689A4240F0AA80F9
S3150800B0504A6843689A4240F0A5808A6883689A429B
S3150800B06040F0A080CA68C3689A4240F09B800A698B
S3150800B07043699A4240F096808A69C36B9A4240F0C7
S3150800B08091804B698361D8E768223946856B0CF055
S3150800B090F4FBD6E90212336804F1080023607368EA
S3150800B0A0A5636360336963617369A36109F0BBFCD7
S3150800B0B0B36904F14000E3639B68984720B9676C5D
S3150800B0C017B16368B3FBF7F794F84330E761002BD1
S3150800B0D0B2D00023656C2366002D6BD0002F69D093
S3150800B0E02368B3FBF5F205FB1233002B5CD16768C6
S3150800B0F0B7FBF5F605FB1676002E55D1204609F066
S3150800B10031F9A369043303449F424FD340F634729E
S3150800B1106369CC3B93424BD8B5F5805F4AD303218C
S3150800B120204609F048F9D4E90001E36B1B68984703
S3150800B1300546E36B0220DB6898472DB184F8346036
S3150800B140E06B09F021FB78E741462046FFF7BEF998
S3150800B1506428054604D141462046FFF7B7F9054657
S3150800B160636C143BD5B9226A204602FB03F609F044
S3150800B170F9F8A369043303449E4203D284F8345091
S3150800B1805A25DDE70123D4E900010C4A84F8343056
S3150800B19013680133136009F0E0FCD1E7002384F853
S3150800B1A03430CDE75D2548E7592546E75A2544E773
S3150800B1B05F2542E75B2540E78C12002088120020B5
S3150800B1C02DE9FF410C4616461F46054680B390F802
S3150800B1D034307BB3B1F5801F2ED2DFF860800121B1
S3150800B1E009F0E9F82146424628460DF10F03FFF714
S3150800B1F087F8044670B99DF80F30012B11D1D8F89D
S3150800B2001030BB4212D10246009031462846FFF75D
S3150800B21043FB0446E86B09F0B7FA204604B0BDE8DC
S3150800B220F081022B14BF2D246024F3E76324F1E791
S3150800B2302124F2E71124F0E72924EEE7141300206D
S3150800B2402DE9F04385B00C4617461E460546DDF83F
S3150800B250308098B390F8343093B3B1F5801F31D26B
S3150800B260DFF86490012109F0A6F821464A462846E7
S3150800B2700DF10F03FFF744F8044688B99DF80F301F
S3150800B280012B14D1D9F8102006EB08039A4213D3E0
S3150800B29000904346324639462846FFF7FDFA0446EB
S3150800B2A0E86B09F071FA204605B0BDE8F083022B79
S3150800B2B014BF2D246024F3E76324F1E72124F2E781
S3150800B2C01124F0E72924EEE7141300202DE9F341B1
S3150800B2D01F4600230C46164605463B6050B390F8B9
S3150800B2E034304BB3B1F5801F28D2DFF854800121E2
S3150800B2F009F061F82146424628460DF10703FEF794
S3150800B300FFFF0446A0B99DF80730032B10D0022B87
S3150800B3100AD10123336004233B60E86B09F034FA51
S3150800B320204602B0BDE8F081D8F810303060F3E767
S3150800B3302D24F2E72124F3E71124F1E72924EFE786
S3150800B3401413002073B50446416908F0F0FF626ED5
S3150800B350236B024493422CBF00220122834294BFEE
S3150800B36000231B1A207C84F85020636584F8580053
S3150800B370A8B100230B4E1A4619462046009609F036
S3150800B3802EFB002305461A4619462046009609F064
S3150800B3902FFBE3682844984294BF0020C01AE06552
S3150800B3A002B070BDFFFF0F002DE9F3471E46436943
S3150800B3B00446B342884617469DF828904FD3002581
S3150800B3C08DF807502046616908F0B1FFD4F830A01F
S3150800B3D082450AD2236AB5EB430F06D200222046DD
S3150800B3E00DF10701FFF778F9B8B39DF80730012B7F
S3150800B3F005D1002220460DF10701FFF76DF9B9F1D5
S3150800B400030F06D03146204608F091FF256B85428A
S3150800B41027D3154D4FF0FF31284600F059F94B4612
S3150800B420294600222046C5E90376C5F80080FFF7BD
S3150800B43021FB236E054663B12046FFF783FF94F888
S3150800B440503013B994F858301BB1236E04F15000EC
S3150800B4509847284602B0BDE8F0870135B2E762256D
S3150800B460F7E71C25F5E700BFE81200202DE9FF41A4
S3150800B4700F4690461E46054698B390F8343093B367
S3150800B480B1F5801F31D21A4C022108F094FF2246EA
S3150800B490394628460DF10F03FEF732FF024678B10A
S3150800B4A0012342460093394633462846FFF77CFF78
S3150800B4B00446E86B09F068F9204604B0BDE8F08157
S3150800B4C09DF80F30012BEBD12169B142E8D10093E9
S3150800B4D0414633462846FFF7DFF904460028DFD100
S3150800B4E0E7E72124E8E71124E6E72924E4E700BF93
S3150800B4F01413002030B50C46054685B028B390F8DD
