S01C00006275696C642F64656275672F67656E657261746F722E7333379C
S315080060000804002015450108194501081945010825
S3150800601019450108194501081945010819450108D6
S31508006020194501081945010819450108117E010895
S3150800603019450108489F0108B57D01081F8E01080A
S31508006040116800081945010819450108194501088C
S315080060501945010819450108194501081945010896
S315080060601945010819450108194501081945010886
S315080060701945010819450108194501081945010876
S315080060801945010819450108194501081945010866
S315080060901945010819450108194501081945010856
S315080060A01945010819450108194501081945010846
S315080060B01945010819450108194501081945010836
S315080060C01945010819450108194501081945010826
S315080060D01945010819450108194501081945010816
S315080060E01945010819450108194501081945010806
S315080060F019450108194501081945010819450108F6
S3150800610019450108194501081945010819450108E5
S3150800611019450108194501081945010819450108D5
S3150800612019450108194501081945010819450108C5
S3150800613019450108194501081945010819450108B5
S315080061401945010899C400081945010819450108A7
S315080061501945010819450108194501081945010895
S315080061601945010819450108194501081945010885
S31508006170F0B5114A114C124E00F00105E3695F07AC
S3150800618013D40DB9334213D103EA00078F4207D15E
S315080061900B4A1A40002A14BF6FF001000020F0BD18
S315080061A0013AEBD16FF00200F9E74FF0FF30F6E75E
S315080061B06FF00100F3E700BF8096980000000350D7
S315080061C0020001000B4B70B5D96911F480310DD16D
S315080061D001244FF48072084E084DF46020462C6462
S315080061E01A61FFF7C5FF3464EC6070BD6FF00100FB
S315080061F0FBE700BF000003500010035000200350C7
S315080062004FF4803238B50E4B0E4C9A66E56941F666
S31508006210713315400122E3630B4B0021DA60022338
S31508006220606121202361FFF7A3FF10B92120FFF742
S315080062309FFF0122054BDA600DB10023E36338BDE9
S315080062400090005000000350001003500020035037
S3150800625070B5134C6061E3695B071ED40E4656F8A9
S31508006260043B8D18A361AE420BD1042300212120E3
S315080062702361FFF77DFF58B9BDE870402120FFF77D
S3150800628077BF08210846FFF773FF10B1042323617F
S3150800629070BD56F8043BA361E5E74FF0FF30F7E71A
S315080062A0000003502DE9F84316464FF48032184B88
S315080062B089469A6603F51C33DA69074602F480387C
S315080062C041F67132DA63012203F58053114DDA6023
S315080062D066B930460122104BDA60B8F1000F03D0D8
S315080062E00022A3F50053DA63BDE8F88307F50054E6
S315080062F02C40E41BB44228BF344649462246384659
S31508006300FFF7A6FF0028E5D12744A144361BDFE79F
S311080063100090005000E0FFFF0020035042
S3150800632001292DE9F04F4AD889B30FF2D40BDBE9DE
S3150800633000AB0FF2D409D9E9008935A7D7E9006778
S3150800634035A5D5E9004536A3D3E900239FED1E5BA5
S315080063509FED1F6B9FED207B9FED214B80ED045B2E
S3150800636080ED004B80ED024B80ED066B80ED087BDF
S31508006370C0E90AABC0E90C89C0E90E67C0E9104557
S31508006380C0E91223C0F8D0100020BDE8F08F9FEDB9
S31508006390165B0FF2940BDBE900AB0FF29409D9E90F
S315080063A0008925A7D7E9006725A5D5E9004526A3CD
S315080063B0D3E900239FED0E6B9FED0F7BCCE76FF0C3
S315080063C07400E2E7AFF30080D89E05C15D9DBBCBA4
S315080063D007D57C362A299A6217DD70305A015991F9
S315080063E0000000000000000008C9BCF367E6096A5F
S315080063F03BA7CA8485AE67BB2BF894FE72F36E3C46
S3150800640039590EF7D8EC2F15310BC0FF67263367BD
S3150800641011155868874AB48EA78FF9640D2E0CDBC0
S31508006420A44FFABE1D48B547F1361D5F3AF54FA58C
S31508006430D182E6AD7F520E511F6C3E2B8C68059BB0
S315080064406BBD41FBABD9831F79217E1319CDE05B68
S315080064500348044B834202D0034B03B118477047E5
S31508006460482D0020482D002000000000064B074953
S31508006470C91A891048BF0131491003D0044B0BB122
S3150800648001481847704700BF482D0020482D0020B6
S315080064900000000010B5064C237843B9FFF7D8FF73
S315080064A0044B13B10448AFF300800123237010BDD9
S315080064B0B81E00200000000030B9010808B5054BD9
S315080064C01BB105490548AFF30080BDE80840FFF752
S315080064D0CDBF00BF000000007004002030B90108DD
S315080064E0A3F5803A704700BF174B002B08BF134B24
S315080064F09D46FFF7F5FF00218B460F461348144AC1
S31508006500121A10F068FC0E4B002B00D098470D4B62
S31508006510002B00D098470020002104000D000D48EC
S31508006520002802D00C48AFF3008009F097F9200044
S3150800653029000FF03BFF08F071FF00BF00000800BC
S3150800654000000000000000000804002008040020E5
S315080065508820002000000000000000004FF00063C3
S315080065609B6A03F17842B2F5C04F03D21968064A0E
S31508006570914203D0002303708360704701220270A2
S315080065809A689B694260F7E707B0CD5E73B5464BDC
S3150800659004461A781AB102221A7002B070BDCDE903
S315080065A000220028F9D001261E7013F010FB3F4D7B
S315080065B03F4B18600AF030FC2B785BB908F0F0FC0A
S315080065C040B93C4808233C4A3C49006804F09EFD13
S315080065D000B92E703A4B5A6E62619B6E394AA361B6
S315080065E04FF480439366384B5968E161374999609F
S315080065F0196E2160596E6160D3F87011A160196C2B
S31508006600E160596C21613249086C1864496C596417
S31508006610012151661B6E9C042ED52E4AD368D807D5
S31508006620FCD42D4B1A68531C2BD04FF4801393407F
S315080066302A4A13660423294C684623664FF40073D6
S315080066402366082323664FF4805323664FF00063BE
S3150800665023664FF4002301A963660AF0C3FB009B77
S315080066602366019B63662B78002B96D0124B1A681B
S3150800667022665B68636690E7194AD368D907FCD433
S31508006680CFE7184B1B78002BD4D14FF400720D4B73
S315080066905A6603F5A6235B68002BCBD14FF480120C
S315080066A00E4B1A66C6E700BFBA1E0020BB1E0020A6
S315080066B0A8040020B0220020AC04002000710800C5
S315080066C000800050009000500080004455CEAC0079
S315080066D000C0005400000440382200200090004406
S315080066E000000450B91E002070B5224D04462E78CD
S315080066F0012E02D001232B7070BD0028FCD00AF0B1
S315080067008DFB01300BD00AF089FB40F20113984249
S3150800671005D0194B194A5E66D368DE07FCD4226891
S31508006720174B1A6662685A66A268C3F87021E2684F
S315080067301A6422695A64E269D00744BF00229A6043
S31508006740104B1A68013207D10F4A127822B90F493D
S315080067504968C90748BF1A6062690D4B5A66A2693B
S315080067609A660AF05AFB0B4B186813F02BFA0023AB
S31508006770C1E700BFBA1E0020009000400000044098
S315080067800080004438220020B91E002000C00550B1
S3150800679000800050A8040020F8B54FF00066B36AE0
S315080067A003F17842B2F5C04F23D21A68134B9A42C6
S315080067B01FD1134D2C7814F0FD041DD14FF48037EA
S315080067C01048FFF7E3FE204607F0A6F80E4B2046D2
S315080067D0DF6007F093F80D4B1F61B36ADB699847D2
S315080067E004460848FFF780FF0CB901232B702046A2
S315080067F0F8BD4FF48174FAE70024F8E707B0CD5ED8
S31508006800B91E00208804002000A00044009000441F
S3150800681013B5204B1B7803B9FEE700231E4CCDE9C0
S3150800682000336A4608231D49206804F06FFCF8B94E
S315080068301B4AD2F84031D2F840211F2B4FF00103F2
S3150800684011D9203A9340019A1A43019208236A46BD
S315080068501249206804F0B4FD124B134A1A600FF06F
S31508006860FDF902B010BD9340009A1A430092EDE775
S315080068702D28F1D10A4AD2F84031D2F840211F2BEF
S315080068804FF0010385BF203A93409340019398BF88
S315080068900093DBE7BA1E0020B02200200071080032
S315080068A000800044000000200B020FF0002307B50B
S315080068B00193054B1B6812F01FFD019B002BFCD0B2
S315080068C003B05DF804FB00BF3C220020EFF305830C
S315080068D00F2B84BF034A9B5C4FF0E023D3F80C3D93
S315080068E0704700BFF0E300E030B5074C2568246820
S315080068F06A40D2B2891A101A090A41EA102163407D
S3150800690023EA0100C0B230BD58100020044B1B68B2
S31508006910584043085B4240421843C017704700BFBF
S3150800692058100020054B01311B680132434022EA0A
S31508006930030208400243501E00B270475810002058
S315080069402DE9F04F99B0CDE90210002118460192C1
S3150800695005930AF0F4FE002800F0E7814FF00109DC
S315080069608E4B05991493019815ABADF83090ADF898
S315080069703890CDF84090CDF8489013930AF068FE09
S3150800698001301ED1039B33B9029B9BB900231846DD
S3150800699019B0BDE8F08F002103980AF0CAFD002857
S315080069A0F2D00024A046A2462746264600946FF059
S315080069B00F03D5E0DDE901100AF085FD0028F0D1C6
S315080069C0E4E7002501990BA80B95ADF832500AF0BB
S315080069D07AFD0B9E0446BDF83270002840F09E8171
S315080069E00D90ADF83A0005990DA80AF06CFDDDF892
S315080069F034A00546BDF83A80002840F09481019BF2
S31508006A000F90D9880FA80231ADF83890ADF83090BC
S31508006A100AF0F1FC044618B10F9B2C460093C6E712
S31508006A2001460FA80AF085FD0F9B00930028BED1EA
S31508006A30019B1190D98811A802310AF0DCFC119C3F
S31508006A4083460028B3D10DA80AF0B2FD00F01F0056
S31508006A501F2870D0C0F11F0319460BA804930AF02B
S31508006A60CFFD0B9EBDF832700028A0D104990DA861
S31508006A700AF0C6FDDDF834A0BDF83A80002896D1A4
S31508006A80C1463D46A7EB080B4FEA4B1319460DA81E
S31508006A90CDF834A0ADF83A8007930AF0B1FDDDF8D9
S31508006AA034A0BDF83A80002881D1009B03EB8B0BFC
S31508006AB00DA90BA80B96ADF83270CDF834A0ADF839
S31508006AC03A800AF0F4FD00283ADA09F1FF3307990B
S31508006AD00DA806930AF0B3FD09F1FF330AEB830309
S31508006AE0079309F18043023B0AEB830305F1FF3B59
S31508006AF005F180450893013D009BA5EB090503EBCD
S31508006B008505069B9B454BD8039B73B118460FA971
S31508006B100AF0D9FC00287FF44AAF019B059A9B88A6
S31508006B20928813FB02F3039A9380029B002B40F092
S31508006B30D880002314E0C1463D46CDF810B0A1E741
S31508006B40DBF800300BA90133CBF8003008460DAA54
S31508006B500AF0E4FE0B9E0346BDF832700028A7D063
S31508006B600BA801930B96ADF832700AF036FC0DA807
S31508006B70CDF834A0ADF83A800AF02FFC009B0FA898
S31508006B800F930AF02AFC11A811940AF026FC0C218E
S31508006B9015A801F0E7F9019BF9E600BF010003001B
S31508006BA0079B56F82B101A684FEA8B09A9F10400BF
S31508006BB03318914209934AD20023305808F066FAEE
S31508006BC0002914BF4FF0FF330346BBF1010F2B60BA
S31508006BD00EBF0023B14459F8083C1593099B1B685E
S31508006BE0169306EB8B031B6817932B6801332B60F0
S31508006BF02B680021013B2B6011A811940AF099FC1F
S31508006C00119C00287FF4D3AE069B1BB3089B1B6818
S31508006C102360079B11A91B68084663602A680AF067
S31508006C2006FF119C00287FF4C2AE13A911A80AF02A
S31508006C303EFD0028DCDC2A680DA911A8CDF834A091
S31508006C40ADF83A800AF0F3FE30B1119CAFE64FF08A
S31508006C50FF33BAE7069BDBE76FF00709009B11A82D
S31508006C6009FB03F909EBC50949460AF0C9FC119C59
S31508006C7000287FF49CAE0BA9084611AA0B96ADF81E
S31508006C8032700AF04BFE0B9E0346BDF832700028A0
S31508006C907FF466AF01460BA80AF051FD00281CDAFE
S31508006CA00DA911A80AF00FFC0028CED1494611A853
S31508006CB00AF0A6FC119C00287FF479AE0BA90846B9
S31508006CC011AA0AF028FE0B9E0346BDF8327000286A
S31508006CD07FF446AF2B68013B2B600BF1FF3B043D6D
S31508006CE00FE704990BA80B96ADF832700AF0A7FCCB
S31508006CF0019B0BA99B880298ADF830300AF0E3FB9C
S31508006D00014600287FF453AE02980AF018FD0028C1
S31508006D107FF40FAF0123029A93800AE72C46A84610
S31508006D20AA46009543E6009441E66FF00B032EE66B
S31508006D30044B1B68584043085B4240421843C0173F
S31508006D40704700BF5810002010B50B4C2268236806
S31508006D504240594081EA0200C00FFFF7E9FF236865
S31508006D60521A434022EA030208401043C00FBDE806
S31508006D701040FFF7DDBF00BF58100020F8B50D46DC
S31508006D80014628681746FFF7DFFF0124C143074B72
S31508006D901E68BC4202D346EA0100F8BD55F8240035
S31508006DA0FFF7C6FF01340643F3E700BF581000207B
S31508006DB02DE9F04707460F4B88461E6819681D6877
S31508006DC0541E631C02D13046BDE8F08758F824A04B
S31508006DD057F8249050464946FFF7B6FF51460543F3
S31508006DE04846FFF7B1FF20EA05031E430543013C69
S31508006DF0E7E700BF581000208842F0B504D0002508
S31508006E00084F0438AA4200D1F0BD3E6850F8044F36
S31508006E105E4024EA060451F8256001351E403443D5
S31508006E200460EFE7581000202DE9F04F1C4685B0A6
S31508006E30DFF884900391064621461046D9F80030BB
S31508006E40D9F800300BF09AF8C51D282D904634BFA6
S31508006E504FF0FA0A4FF01E0AEB0825F007050293D1
S31508006E602D1A0F9B2146009330460E9B029A0BF073
S31508006E7081FA0746C0B92A46214630460BF0F7F88C
S31508006E80BAF1010A14D0224631460398FFF776FF75
S31508006E902246834641463046FFF78AFFD9F8002046
S31508006EA00BEA00039A42DCD0384605B0BDE8F08FFD
S31508006EB06FF00D07F8E700BF5810002070B50C46B4
S31508006EC00646114620461A460AF044FD0546A0B96C
S31508006ED0B36C33B921462046321DBDE870400AF02E
S31508006EE0D8BDB4F90430002B09DB20460AF060FB54
S31508006EF0F36BB0EB430F09D9184D284670BD014610
S31508006F0020460AF01CFC0028EFD0F5E72046B36CB3
S31508006F10984705460028F0D10436B4F90430002B0A
S31508006F2004DA002120460AF00AFC68B931462046F0
S31508006F300AF0BDFB0028E0DB3246214620460AF06F
S31508006F4063FC0028F2D006E03246214620460AF0C5
S31508006F50E2FC0028E1D00546CFE700BF80B0FFFF7E
S31508006F60F0B514461F46054685B002A80E460AF037
S31508006F702FFA2346022100972A1D02A80AF036FE98
S31508006F80044648BB06F110021146284602ABFFF735
S31508006F9095FF044600BB06F108073A4639462846D7
S31508006FA002ABFFF78BFF0446B0B902AB1A46194687
S31508006FB02846FFF783FF044670B93246314628460D
S31508006FC002ABFFF77BFF044630B93A4639462846F6
S31508006FD002ABFFF773FF044602A80AF0FEF903485E
S31508006FE014F10E0F18BF204605B0F0BD00B3FFFF21
S31508006FF02DE9F14F9A461B6904460E4691460A9DAD
S315080070001BB9724801B0BDE8F08F02F110070021E4
S3150800701038460AF094FB30B95146304601B0BDE80F
S31508007020F04F0BF08BBC0AF11008002140460AF01D
S3150800703086FB08B94946F0E7012140460AF07FFB7E
S315080070400028DED13B463A4629462046FFF736FF5A
S315080070500028D7D105F108083B462A46414620466E
S31508007060FFF72CFF0028CDD153462A46294620464D
S31508007070FFF724FF0028C5D14246414620460AF1BB
S315080070800803FFF71BFF0028BCD14B462A462946B2
S3150800709020460BF049FA0028B4D109F1080B5B46E3
S315080070A04246414620460BF03FFA0028AAD1002165
S315080070B028460AF044FB014690B940460AF03FFBD1
S315080070C040B92B464A463146204601B0BDE8F04F46
S315080070D00BF0A4BA304601B0BDE8F04F0BF044BC43
S315080070E02B463A46204606F11001FFF7E7FE002830
S315080070F088D105F110072B462A4639462046FFF760
S31508007100DDFE00287FF47EAF05F1180A2B463A46C5
S3150800711051462046FFF7D2FE00287FF473AF4B4650
S315080071203A4639462046FFF7C9FE00287FF46AAF7B
S31508007130394628460AF0C7F900287FF463AF29467E
S3150800714020460BF05CFA00287FF45CAF43464246C3
S3150800715031462046FFF7B2FE00287FF453AF2B4690
S315080071603246314620460BF0DFF900287FF44AAF55
S3150800717053463246314620460BF0D6F900287FF4AE
S3150800718041AF33463A46394620460BF0CDF900283A
S315080071907FF438AF43463A4639462046FFF78EFE17
S315080071A000287FF42FAF5B46524651462046FFF72C
S315080071B085FE00287FF426AF53463A46204606F158
S315080071C0080101B0BDE8F04F0BF0AEB980B0FFFF83
S315080071D02DE9F047012A8246DDE908490E46904620
S315080071E01F4644D804300AF0E7F9054650460BF026
S315080071F01BFB012882463CD1002106F110000AF04B
S315080072009EFA48B9B9F1000F02D11B48BDE8F087CC
S315080072102070C7F800A0F9E7B8F1000F17D16B0086
S3150800722001334B453B60F0D8214604232A463046B5
S3150800723001F8013B0AF0DEF90028E7D12A46691C65
S31508007240214406F10800BDE8F0470AF0D3B96B1CE3
S315080072504B453B60D9D8002106F108000AF085F9AC
S315080072602146023001F8010B2A463046EBE703486F
S31508007270CCE70348CAE700BF00B1FFFF80B0FFFFB5
S3150800728080B1FFFF2DE9F84380460C4615461F4698
S3150800729013B91D48BDE8F88304300AF08DF906468F
S315080072A040460BF0C1FA012881462AD12B7833B91A
S315080072B0012FEED12046BDE8F8430BF055BB06F189
S315080072C00108B845E5D832462046691C0AF07AF91D
S315080072D00028DFD1494604F110000AF02AF90028EF
S315080072E0D8D12B78042BD4D173000133BB42D0D12B
S315080072F0324605EB080104F10800BDE8F8430AF038
S3150800730061B90248C6E700BF80B0FFFF80B1FFFF42
S315080073102DE9FF410E460546012106F110000AF047
S315080073200EFA044650B928460BF07EFA01287AD19F
S31508007330214630460AF003FA002801DA3B4C6EE093
S3150800734006F10808214640460AF0F9F90028F5DB57
S315080073502F1D394630460AF0AAF90028EEDA3946D2
S3150800736040460AF0A4F90028E8DA68460AF030F838
S3150800737002A80AF02DF84346424669462846FFF712
S315080073809DFD0446002844D133463246284602A9C4
S31508007390FFF794FD044600283BD1EB687BBB02A9A6
S315080073A0032208460AF0BEFA044690BBBDF90C3023
S315080073B0002B04DA002102A80AF0C1F9C8B902AA0A
S315080073C0334611462846FFF779FD044608BB02AA4C
S315080073D01146284605F114030BF08AF80446C0B98D
S315080073E0684602A90AF063F9104B041E18BF1C462A
S315080073F00FE002A93A4608460AF08DFAD4E702AA2F
S315080074001146284605F10C030BF072F804460028CD
S31508007410D5D0684609F0E1FF02A809F0DEFF20464C
S3150800742004B0BDE8F081024CF9E700BF80B3FFFF66
S3150800743080B0FFFF38B505460BF0F6F901280C4673
S3150800744001460DD120460AF07AF9002806DB2046C7
S3150800745005F134010AF02BF9002803DB024838BD90
S315080074600248FCE70020FAE780B3FFFF80B0FFFF81
S315080074702DE9F04F8846B5B01146054691469B461C
S31508007480FFF7D8FF0446002840F09380594628465F
S31508007490FFF73EFF0446002840F08B8028460BF095
S315080074A0C3F9012840F07A81182102202F6C0EF0CA
S315080074B047FD013706467F08002800F06D8106F172
S315080074C0180A0BF0BAF950460BF0B7F913AB1819AE
S315080074D0083409F07DFF202CF8D1594630460BF0C8
S315080074E02DFA0446B0BB83465F451ED15146284651
S315080074F00AF083FF044668BB13AB00933246534633
S3150800750051462846FFF774FD044618BB51462846DF
S315080075100AF073FF0446E8B906F1100009F05DFFAA
S3150800752006F1280009F059FF14E0BBFBF7F3012226
S3150800753002FA03F1182207FB13B3C9B202FB016270
S31508007540002B3AD01146284613AB0BF067F80446D1
S3150800755000283FD04FF0000A13AB03EB0A000AF1EC
S31508007560080A09F03AFFBAF1200FF5D17CB905A847
S3150800757009F02EFF05F1340A0BA809F029FF214668
S31508007580504609F0F2FF012827D0A4F59F44AB6DB9
S315080075909E420AD04EB130460BF08CF906F118001F
S315080075A00BF088F9304612F0B8FC14B140460BF0DF
S315080075B081F9204635B0BDE8F08F182349081046F2
S315080075C003FB016102920BF0B9F9029A04460028FE
S315080075D0B8D0BFE70BF1010B86E72146484609F00C
S315080075E0C4FFB0FA80F349465B0905A8029309F07F
S315080075F06AFF0446002851D14A4651460BA80AF0AC
S315080076008DF90446002849D1029A0BA905A809F064
S3150800761016FF0446002841D101467A1C13A80DF12D
S315080076204C090FF0D8FBA2464B465745039363D047
S31508007630514605A809F099FF039B07EB0A0193F841
S3150800764000B00AF1010A4BEA000B05A809F08DFF04
S315080076505FFA8BFB039B4BEA400B03F801BBE4E79D
S3150800766099F8010099F800E080EA0201CB4303F09B
S31508007670010B43F300030EEA0303104001EA030279
S31508007680594009F8011F19F8013C024343EACB1394
S3150800769009F8013C0CF1010CE245E1D20DF12C0987
S315080076A0484609F09AFE05A809F097FE002C7FF4D3
S315080076B06EAF05A80BF0C1F809EB0400083409F011
S315080076C087FE202CF8D107F1D0036B443246414699
S315080076D0284613F8843C0AF054FF044670BB3E9BC8
S315080076E0002B4AD0DDE93E2341462846FFF738FC01
S315080076F0002842D0044621E000224FF0010CCBE7D7
S315080077005346424641462846013F0AF087FF00286D
S31508007710F0D1324628461BF8073005A90AF031FF92
S315080077200028E7D1424641462846CDF800A005ABD9
S31508007730FFF75EFC0028DDD1002FE1D105A80AF08D
S3150800774012FF002709EB0700083709F046FE202F2D
S31508007750F8D1002C7FF41BAF41462846029A0AF05E
S3150800776090FE044600287FF412AF3E9B53B941466B
S3150800777028460AF042FE044609E70DF12C0A0DF1E7
S315080077804C0BD9E74146DDE93E232846FFF7E8FBDF
S3150800779004460028EBD0FAE6014CF8E6014C08E767
S315080077A080B2FFFF80B0FFFF30B4DDE9024524B1A7
S315080077B0CDE9024530BCFFF75BBE014830BC7047D7
S315080077C080B0FFFF73B505461E460BF02DF801285D
S315080077D00C4601460ED113462046009605F13402A2
S315080077E00AF004FA044B10F10E0F18BF03461846A8
S315080077F002B070BD014BFAE700B3FFFF80B0FFFF90
S315080078002DE9F0410D46014628461746984600F0F0
S3150800781047F80446B0B928460BF006F8012805F1E2
S31508007820600612D142463946304609F0CBFE044678
S3150800783028B931462846FFF7FDFD044610B1304603
S3150800784009F0CBFD2046BDE8F081014CF7E700BF03
S3150800785080B1FFFF70B5066C0D460736B3EBD60F41
S31508007860114604464FEAD60203D200230A482B6083
S3150800787070BDB0F866302A604BB10AF0D5FF012812
S3150800788007D104F16000BDE8704009F0B3BE0348B3
S31508007890EEE76FF06D00EBE700B1FFFF80B0FFFF8A
S315080078A038B504460D460BF009F820460AF0D3FF12
S315080078B0032D257023D1144B144AA360A361A36337
S315080078C02362A362124B626063624FF00113114A8E
S315080078D023636261104A114B6263114AE362E261F3
S315080078E0201D09F065FEE06304F1340009F060FE2E
S315080078F0206400200123C4E91600636438BD002310
S3150800790008482370FAE700BF010008006CAC0108BC
S315080079100CAC01084CAC0108ECAB01088CAC0108B6
S315080079202CAC010880B1FFFF0538C0B206289ABF03
S31508007930024B53F820000020704700BF90AC0108A6
S315080079400023F0B5044603600A276FF067000C4E63
S315080079500B68934203D21D78303D092D00D9F0BD3E
S315080079602568B54209D87D43256013F8010B2844DC
S315080079703038206000200B60EAE76FF06700EEE71A
S315080079809999991970B5094C256815B96FF02D00A4
S3150800799009E0667C864207D1267C8E4204D1002007
S315080079A0156062681A6070BD1434EDE734AD0108DD
S315080079B030B5084B1C6814B96FF02D0006E01D7C25
S315080079C0854204D100205B680C60136030BD143317
S315080079D0F0E700BFE4AC010830B5084B1C6814B9E1
S315080079E06FF02D0006E01D7C854204D100205B68FF
S315080079F00C60136030BD1433F0E700BFBCAC01085F
S31508007A002DE9F04F0F460021054687B0084600933A
S31508007A1090469B46134605AA109E09F052FC284636
S31508007A200FF04DFA044638460FF049FA059902292F
S31508007A300A4638BF02224B1C023A03EB9213234430
S31508007A401844119B984207D96FF02908129B1860B1
S31508007A50404607B0BDE8F08F39B101200EF070FA44
S31508007A60044618B9DFF8A080F2E70C4643462046DC
S31508007A700599CDF800B005AA09F023FC804618B18F
S31508007A80204612F04AFAE3E728460FF018FA294684
S31508007A90024630460FF006FA28460FF010FAA146BD
S31508007AA04FF00A0A3518DDF814B0BBF1000F18D1EB
S31508007AB038460FF004FA3946024628460FF0F2F91E
S31508007AC038460FF0FCF902462B18581C129B05F88D
S31508007AD002B0821B1A60119B59469A1A0FF07BF95D
S31508007AE0CEE75A46402A28BF4022494628460392EE
S31508007AF00FF0D8F9039AABEB0200154405909144B0
S31508007B0005F801ABCFE700BF80EEFFFFF0B50546ED
S31508007B1087B00E461822002168460FF05CF91DB999
S31508007B20114C204607B0F0BD2B68002BF8D16946EA
S31508007B3030460BF065FB04460028F1D1BDF800700D
S31508007B4068460BF014FE27F0FF03B3F5E24F07D0A3
S31508007B5047F201039F4205D1044B2B60AE60E0E774
S31508007B60034BFAE7034CDCE780C1FFFFACAD010825
S31508007B70DCAD010880C6FFFF2DE9F74F1646DDE9A3
S31508007B800C89DDE90EAB04460D46109A01B923B1FE
S31508007B901EB9124803B0BDE8F08F21680029F8D055
S31508007BA04BB928460192FFF7BFFE0AF005FF019A76
S31508007BB003460028EDD021684F696FB1CDE90FB2B1
S31508007BC0294632462046BC46CDE90D9ACDF8308086
S31508007BD003B0BDE8F04F60470148DBE780C1FFFF0F
S31508007BE000C1FFFF0048704780C6FFFF2DE9F04F30
S31508007BF004468BB00E46DDE9149A0021174604A800
S31508007C0018229846169D0FF0E6F8204604A90BF0B0
S31508007C10F7FA38B10722194B19490CF059F90BB084
S31508007C20BDE8F08F04A8BDF812B00BF0A0FD46F031
S31508007C30C06143463A462046CDE901A5CDF80090F5
S31508007C4041F4E0610BF022FC034670B18533E1D1C3
S31508007C5043463A462046CDE901A5CDF8009046F0C0
S31508007C6006210BF013FC0028D4D1CDE900A54B461C
S31508007C70494658462A680CF051F9D0E7918F000812
S31508007C8042AE01082DE9F0471E469AB0804689465D
S31508007C9014460021182204A80FF09DF80023F51DAC
S31508007CA0ED0802936D00002C4CD04FF400534FF0B2
S31508007CB0062A0AAF384644F482440A93ADF81040BF
S31508007CC00AF06AFF0A9B4A460693414602AB04A895
S31508007CD0CDF81CA000F074FC18B101F059F904465F
S31508007CE002E0402D0DD9194C029800F073FB0346AB
S31508007CF054BB10B101F04CF9034618461AB0BDE85A
S31508007D00F08703AB01934023DDE924120093304644
S31508007D103B460CF057F904460028E5D1039BAB42D5
S31508007D20E1D1CDE90073DDE92223514602980BF033
S31508007D30E6FB04460028D7D00722054B05490CF078
S31508007D40C7F8CCE7014BD8E72346D6E780C1FFFF43
S31508007D50918F000842AE01082DE9F04105469CB016
S31508007D600021164605A818221F460FF034F8A86801
S31508007D7005A90BF045FA38B10722144B14490CF043
S31508007D80A7F81CB0BDE8F081BDF8144005A804F4B6
S31508007D904F43B3F5824F18BF0024BDF816800BF089
S31508007DA0E6FC4122A86804AB0BA90BF07FFA002871
S31508007DB0E2D1239B04990393229B0096CDE9017394
S31508007DC0E2B243460BA8FFF75DFFDAE7918F00089A
S31508007DD042AE010870B5002306460846BEB0CDE996
S31508007DE003334122806803AB05A90BF05FFA04460A
S31508007DF018B101F0CDF83EB070BD16ADA0223146DF
S31508007E0028460FF04FF828460AF0C1FE02383146D8
S31508007E1002284FF0A002284698BF179C0FF042F898
S31508007E2028460AF0B4FE0238022888BF00214FF01F
S31508007E30410398BF1799CDE900530022204604ABA9
S31508007E406831FFF7C5F90028D5D1DDE903239A4241
S31508007E5008D1294605A80EF095FF034B002818BF40
S31508007E601846C8E70048C6E780C1FFFF2DE9F0417C
S31508007E7090460027ACB004ADA02206460C4628461C
S31508007E80414603970FF00EF828460AF080FE02389E
S31508007E900228404698BF059F0AF079FE072811D1A7
S31508007EA041222946D8F8080003AB0BF0FFF900BBBE
S31508007EB03068039A041B944214D26FF06B002CB0FE
S31508007EC0BDE8F08141230022CDE90053384603ABD3
S31508007ED007F16801FFF77CF90028F0D13068A04265
S31508007EE0E7D2EAE7801A294630600EF0DBFF0398EE
S31508007EF0E5E70148E3E700BF80C1FFFF73B5054624
S31508007F0010460C4616460AF042FE022806D13246AC
S31508007F1021462846FFF7AAFF02B070BD30460AF090
S31508007F2036FE072817D100232A680193944201D9FF
S31508007F300A48F1E72146B06801AB121B0BF0B6F907
S31508007F400028F5D12868019A2146801A28600EF083
S31508007F5029FF0198E0E70248DEE700BF80C1FFFF7E
S31508007F6080C6FFFF10B50A46044619B1024B002128
S31508007F701B68984710BD00BF0CAE0108F8B50D4E3A
S31508007F800D4C0E4D33680E48984767782B680C4899
S31508007F90984733680B489847022F08D12478E31F7F
S31508007FA05C425C412B68074898472046F8BD002488
S31508007FB0F8E700BF442200205C1000204022002081
S31508007FC05C110020C01100200E4B0340B3F1607F06
S31508007FD006D1B1F5885F0CBF00206FF086007047A8
S31508007FE0B3F1707F0BD101F4E043B3F5005F06D11E
S31508007FF011F4E06F14BF00206FF0860070476FF031
S31508008000860070470000C07F8A42F8B506460D46CE
S3150800801000F0CD806A4B22F4FF7121F001019942EC
S3150800802010D0684922F0FF038B420BD022F47F70F0
S3150800803020F00300A1F57061884203D001F5A06124
S315080080408B4227D15E4B25F4FF7121F0010199423D
S3150800805010D05C4925F0FF038B420BD025F47F70C6
S3150800806020F00300A1F57061884203D001F5A061F4
S315080080708B420FD115F0FF000BD0534B40F0007028
S31508008080984240F0968082EA0500FF288CBF0020BF
S315080080900120F8BD05F0FE43B3F1A06F11D102F03F
S315080080A0FE43B3F1A06F72D182EA050333F47E135F
S315080080B06DD128046BD5C5F30540C2F3054290423D
S315080080C0E4E7B3F1407F62D102F0FE43B3F1407FAB
S315080080D05DD182EA050030F47E1458D1314628462F
S315080080E0FFF772FF002864D1384912F47C1701EAB9
S315080080F0020116D0B1F1607FC2F3054336D1D1B281
S3150800810041F0007101F17E410339102901D8304848
S31508008110445C15F47C1F2FD19C4214BF002001201B
S31508008120B7E7B1F1607F0AD1D3B243F0007303F128
S315080081307E43033B102B40D82649CB5CDFE7B1F1E1
S31508008140707F17D106F4E043B3F5005F33D10123FE
S31508008150C6F302218B4006F4E041B1F5005FD8D1A1
S315080081600120C6F3022600FA06F4D2E7B1F1707FC1
S31508008170CFD1F0E73B46CCE71FB9C5F30541A1428D
S3150800818015D0290403D5C5F3054098427EE725F4A2
S315080081907F03B3F1106F0CD102F0FE43B3F1106FF9
S315080081A007D10D48104040F01060A842B5E70120FD
S315080081B06FE700206DE73B46CDE73B469FE700BFEC
S315080081C00002000600130006FF0000020000C07F40
S315080081D010AE010810AE01080000FFF610B521F038
S315080081E0FF02F0B1324C21F4875323F01F03A34258
S315080081F02ED0304B9A422BD021F4FF7323F0010383
S31508008200B3F1062F24D004F5C064A24220D0A4F509
S31508008210A064A3421CD0284B994235D06FF0860043
S3150800822042E0244B21F4FF7424F001049C420FD051
S3150800823003F588539A420BD021F47F7424F0030483
S31508008240A3F570639C4203D003F5A0639A422BD131
S3150800825011F0FF0310D0194A43F000739342DDD0A2
S31508008260174A934221D003F17E43083B042B34BFBF
S3150800827000206FF0850017E0B0B10E4B21F4FF70B7
S3150800828020F001009842C9D00E4B9A42C6D06FF32F
S315080082900901A3F570639942C0D003F5A0639A4219
S315080082A00CBF6FF08600002010BD0020FCE700BF61
S315080082B0000300060002000600080006FF00000290
S315080082C0050000020013000637B505460C46FFF701
S315080082D055FE78B10023224601932946074801AB8B
S315080082E00DF021F920B9019BA34218BF6FF0930046
S315080082F003B030BD6FF08800FAE700BF60100020B9
S315080083002DE9F843884617461C4600F013FD054636
S31508008310002844D1D8F80060B6F8009009F4E04384
S31508008320B3F5804FB36808BF27F0010737EA0303A0
S315080083302DD1A4B3244B24F4FF7222F001029A42F1
S3150800834010D0224A24F0FF0393420BD024F47F7105
S3150800835021F00301A2F57062914203D002F5A062F2
S3150800836093421FD114F0FF0304D0194A43F0007357
S3150800837093421ED022464846F168FFF745FE074657
S3150800838068B9224648463169FFF73EFED0B96FF014
S31508008390840500233046C8F8003000F043FD28461F
S315080083A0BDE8F88304F0FE43B3F1407F04D123040B
S315080083B0E0D56FF08605ECE7B3F1A06FF7D0044B74
S315080083C09C42D6E73D46EAE700020006001300068F
S315080083D0FF00000237B5044620B301A900F0AAFC45
S315080083E00446F8B91D4B1E481B6898471D4D58B1E1
S315080083F0002401980BF0E4FB2B68002818BF0446FC
S315080084001748984770B10AE00198037E032B11D1EB
S315080084100BF0D6FB2B6804461148984728B10CB9CF
S315080084206FF08F04204603B030BD002C08BF6FF0F4
S315080084308704F7E7022B0BD1032303760379FF2B77
S3150800844009D0002BD4D040690BF0FBFB0446D0E7DB
S315080084506FF09604CDE76FF08404CAE74422002043
S3150800846024120020402200202DE9F3410D4619462A
S3150800847000236F680B6038461646D5F814800BF053
S31508008480B4FB044688B938460BF0B1FB044660B91C
S31508008490FFB277B9B8F1000F05D1AB6823F47F4373
S315080084A023F0030363B16FF08604204602B0BDE8EB
S315080084B0F081014668690BF072FB0028EDD1F2E7FE
S315080084C04FF6F8736A889A4227D8154B15481B68E1
S315080084D02F79984710B16FF08F04E6E707B901A81E
S315080084E0314600F0E7FB104B04461B680D489847D9
S315080084F010B1002CD9D1EEE7002CD6D10FCDD6F885
S3150800850000C066460FC695E8030086E80300002FFC
S31508008510CBD1019BCCF81430C7E76FF08504C4E7CC
S31508008520442200202412002040220020154B70B55A
S315080085301B68054614481646984718B16FF08F040D
S31508008540204670BD2B794BB96B69002433602B7EAE
S31508008550012B14D034606FF0960407E02846D5E95D
S3150800856008120BF089FB04460028EDD0074B064895
S315080085701B6898470028E3D0002CE1D1DEE70223E8
S315080085802B76F3E744220020241200204022002004
S3150800859010B5044660B1074B07481B689847204644
S315080085A00AF011FEBDE81040044B03481B68184743
S315080085B010BD00BF442200202412002040220020C3
S315080085C02DE9F04F064600208BB00F469946144613
S315080085D0CDE907001860002A7BD0B2F1005F7BD294
S315080085E007AA314608ABFFF73FFF024688B9079846
S315080085F0436AABB1079DA8466A686B88120A099355
S3150800860058F824AF2B6A18D035498A4250D06FF0F3
S315080086108602DDE907010592FFF7BAFF059A43E0EE
S3150800862073681B0A02D02E4A9342F0D121460AF0FB
S3150800863055FD02460028DDD0EBE70DF1240B224656
S3150800864039462846CDE9018BCDF800A0059304F0FC
S315080086504DFF10F1860F0246059B09D12246394681
S315080086602846CDE9018BCDF800A00AF05AFD02464E
S315080086700798002ACDD14288099B22BB43804FF632
S31508008680F872934222D8338813B102889A42BED12F
S31508008690738813B142889A42B9D14A460899FFF7B6
S315080086A045FF02460028B4D110460BB0BDE8F08F4E
S315080086B009AACDE90182394622462846CDF800A006
S315080086C004F014FFD3E79A42A1D1D8E76FF08502E8
S315080086D09FE76FF08602E7E76FF08502E4E700BFE1
S315080086E00200800047F2010102888A4211D10F4A2E
S315080086F023F4FF7121F00101914214D023F0FF0306
S3150800870002F5885293420CBF6FF085006FF0860021
S31508008710704702F44F42B2F5824F04D16FF3080353
S31508008720B3F1062FEFE76FF08500704700020006E9
S315080087302DE9F04117461C4623F4FF721F4B22F021
S3150800874001029A4205460E4698B010D01C4A24F0FB
S31508008750FF0393420BD024F47F7121F00301A2F5A5
S315080087607062914203D002F5A062934222D1DDE9FC
S315080087701E1207AB0193402314F0FF000DF12008E9
S3150800878018BF40F00070009343460AF041FB70B9E9
S31508008790229B3A460493219B31460393209B284605
S315080087A00293079BCDE9008323460AF0BBFD18B068
S315080087B0BDE8F0816FF08500F9E700BF000200060A
S315080087C00013000644F20101028822F44050884250
S315080087D011D10F4A23F4FF7121F00101914214D0FF
S315080087E023F0FF0302F5885293420CBF6FF0850011
S315080087F06FF08600704702F44F42B2F5824F04D1FB
S315080088006FF30803B3F1062FEFE76FF085007047A3
S3150800881000020006002307B51A46009102490AF02D
S31508008820C6FE03B05DF804FB24AE010870B51B4E06
S315080088301B4C33681B4898472378580744BF03F0F6
S31508008840FB032370990705D500F01AFA237823F05D
S3150800885002032370144D13482B689847336813484E
S31508008860984763781BB10023114A6360536000235D
S3150800887008210F486370FFF775FB2B680B4898476C
S3150800888033680848984723780648DA0744BF23F030
S31508008890010323702B68BDE8704018474422002066
S315080088A05C100020C0110020402200205C1100202E
S315080088B0601000202DE9F041FFF760FB18B1002495
S315080088C02046BDE8F081344F34483B689847044653
S315080088D020B16FF08F04FFF7A9FFF1E7304D2B7831
S315080088E0D80706D40CF016FE04462B7843F001038D
S315080088F02B702C4E29483368984710B1002CE8D0C5
S31508008900E9E7002CE7D13B68244898470446002845
S31508008910DFD12B78990706D400F0AAF904462B78FC
S3150800892043F002032B7033681C4898470028E5D1AA
S31508008930002CD0D13B68194898470028C9D133681C
S31508008940164895F8008098470028C2D13B68164813
S3150800895098470028BDD16B783BB918F0010F04D0B1
S31508008960124B6C605C6002236B7033680E48984744
S315080089700028AED13B68094898470028A9D12B782A
S3150800898006485A075CBF43F004032B7033689847C0
S31508008990002894D09DE700BF44220020C011002083
S315080089A05C100020402200205C110020601000208E
S315080089B02DE9F74300F4E040B0F5804F0D46164622
S315080089C01F46DDF828902CD101F16808404609F0C9
S315080089D0DFFF88B94B46002241462846CDE90067A5
S315080089E0FEF7F6FB0AF03BFA0446B0B13A46002118
S315080089F030460EF0F0F910E0002301930D4B414686
S31508008A00009305F1600205F11C03284609F0C9FF29
S31508008A100AF025FA04460028DCD0204603B0BDE853
S31508008A20F08349462846FEF715FF03B0BDE8F04334
S31508008A300AF015BA093F0108F0B51D46038817461E
S31508008A4003F44F42B2F5824F18BF00230E46A1B079
S31508008A504188D8B20BF04EFA0446F8B1684609F0D8
S31508008A601BFF21466846FEF71BFF044670B90346FE
S31508008A700C4A684618A9FEF7A5FE044630B93B46D7
S31508008A80324629466846FEF7E5FE0446684609F07A
S31508008A9045FF20460AF0E3F921B0F0BD6FF08500E6
S31508008AA0FAE700BF093F01080368114A10B5934267
S31508008AB0044609D8023A934215D88BB1023A934232
S31508008AC00BD06FF088000DE003F17E430A3B012BC3
S31508008AD0F7D808300BF0D1FA02E008300CF0B6FCF3
S31508008AE00020206010BD08300CF0ACFCF8E700BF91
S31508008AF00900000210B503680F4CA34208D8023CCF
S31508008B00A34215D8023CA3420BD06FF0880010BDD3
S31508008B1003F17E430A3B012BF7D808300BF0B2FA73
S31508008B2002E0083004F070F9BDE810400AF097B981
S31508008B30083004F043F9F7E7090000022DE9F0418F
S31508008B401D460478064644F0007404F17E44033C4E
S31508008B50102C98BF1C4B0F4690468CBF00241C5DFA
S31508008B602A601AB1212138460EF035F9444528D82D
S31508008B703268164B9A4208D8023B9A421BD8023BE7
S31508008B809A420DD06FF0880013E002F17E420A3A4D
S31508008B90012AF7D8394606F108000BF0C4FA04E0B2
S31508008BA0394606F1080004F039F90AF058F900B90F
S31508008BB02C60BDE8F081394606F1080004F008F992
S31508008BC0F3E76FF08900F4E728AE01080900000210
S31508008BD0064B10B51B6806489847064B044893F899
S31508008BE0F040054B1B689847204610BD44220020DC
S31508008BF0C0110020681000204022002000F14043E8
S31508008C00052B70B505460E460CD82822174C02FBD4
S31508008C100344237E022B02D1636983421ED06FF080
S31508008C208B0021E001210AF0BAFF70B10F4B002238
S31508008C301C46197E022902D15969A9420BD0013274
S31508008C40062A03F12803F4D1E9E76FF087000BE061
S31508008C506FF0960008E0282303FB024420460AF03A
S31508008C6091FF0028F4D1346070BD00BF6810002061
S31508008C700122024B002083F8F0207047681000207C
S31508008C802DE9F0410A4C002526464FF00108032736
S31508008C902046C4F81C80277601350AF094FA062D7A
S31508008CA004F12804F4D1002386F8F030BDE8F081F9
S31508008CB068100020F8B506460F46FFF789FF88B307
S31508008CC000241B4B22461D46197ED1B13CB9022908
S31508008CD005D1D96919B91979002918BF1C46013275
S31508008CE0062A03F12803EFD114B96FF08C0006E0C9
S31508008CF020460AF047FF20460AF065FA10B100241C
S31508008D000EE01C46237E83B9012323763EB1651BFC
S31508008D10ED1003F1CC335D4305F180453560002045
S31508008D203C60F8BD6FF08800E9E76FF09600E6E76B
S31508008D306810002000232DE9F3410B6007460D4615
S31508008D40FFF746FF002864D0334B34481B68984722
S31508008D50064628B16FF08F04204602B0BDE8F081C0
S31508008D6029463846FFF74AFF10F18C0F0446DFF80C
S31508008D70B08008D0D8F80030284898470028EBD0AB
S31508008D80002CE9D1E6E729463046FFF793FF04466B
S31508008D9020B1D8F8003021489847DDE701232E682E
S31508008DA0CDE90000694630467761736001AA0AF08A
S31508008DB0B5FF044628B9DDE9001230460AF0A1F9E4
S31508008DC00446DDE900010AF0A7FF28684CB10AF05D
S31508008DD0FAF914F18C0F08BF6FF0870400232B6093
S31508008DE0C8E78368D90444BF43F4806383609A0460
S31508008DF044BF43F400638360037E012B04BF022350
S31508008E0003760AF0BFFE04460028B3D06FF0960436
S31508008E10E4E76FF088049FE744220020241200202C
S31508008E20402200200B4B10B51B6804460A48984799
S31508008E3018B16FF08F04204610BD20460AF0C0FE18
S31508008E40064B04461B68044898470028F3D0002CB4
S31508008E50F1D1EEE74422002024120020402200200F
S31508008E6037B5044630B1164B16481B68984720B1EB
S31508008E706FF08F04204603B030BD204601A9FFF7E6
S31508008E80BDFE114D044640B110F18C0F2B680D48FC
S31508008E9008BF6FF087049847ECE70198C369012B70
S31508008EA00AD10AF090F904462B6806489847002824
S31508008EB0E0D0002CDED1DBE70AF082FEF3E700BF44
S31508008EC044220020241200204022002030B40D4DF8
S31508008ED02C681C606C685C6000249C605468DC60CC
S31508008EE014881C8254885C8294685C61D4689C618E
S31508008EF0126930BCDA6119620A46014603F1240098
S31508008F000DF0D0BF39AE01082DE9F84323290446F0
S31508008F100F4691469846089E04D86FF0980528464D
S31508008F20BDE8F883082219490DF02CFF05460028EC
S31508008F30F3D1A368002BF0D1216A243F8F42C8F8E9
S31508008F400010EAD3B1F5005FE7D271B9C9F800009D
S31508008F50E3687360238A3380638A73806369B360C6
S31508008F60A369F360E3693361D9E701200CF0E8FFF0
S31508008F70C9F8000030B1D8F8002004F124010DF03A
S31508008F8091FFE5E76FF08C05C9E700BF39AE010828
S31508008F9000F19903142B1AD8DFE803F017171919EB
S31508008FA019191917191919191319191B150B0F0D51
S31508008FB01100094870470948704709487047094829
S31508008FC070470948704709487047094870470AF0CA
S31508008FD062BF0848704700BF00C3FFFF80C6FFFF97
S31508008FE080C5FFFF00C1FFFF80C0FFFF80C1FFFFF4
S31508008FF000C2FFFF80C7FFFF02460B462DE9F04F70
S31508009000ADF5437D0D901032B2AD00F150062C46F9
S3150800901010685168083203C4B2422546F7D119468A
S3150800902010AB01F1800448680A6800BA083112BA20
S3150800903043F8080F8C425A60F5D1102512A88446C9
S31508009040D0E91C47D0E90216E30CFA0C4FEAC4082B
S315080090504FEAC70E4EEA547E43EA473342EA4432A1
S3150800906048EA5778A40982EA0E0244EA876483EA42
S315080090700803634082EA9712DCE91247DCE900EC50
S3150800908014EB0E0447EB0C071B1942EB07024C08BE
S315080090904FEA112E77084FEA162C47EAC1774CEAB1
S315080090A0016C44EAC6744EEA066EC90984EA0E04DF
S315080090B041EA4661614087EA0C075B1887EAD614DD
S315080090C005F1010542EB04020830502DC0E91E32B5
S315080090D0B5D1BE990EAB0791D3F8C412D3F8C822FE
S315080090E00891D3F8B812DFF8B0E80991D3F8BC12A2
S315080090F0D3F8CCB20A91D3F89012D3F8ACC2019146
S31508009100D3F8941200930291D3F898120692039119
S31508009110D3F89C12D3E9AC240491D3F8A812D3E966
S31508009120A8890591A00B40EA82464FEA923A950C27
S31508009130A00C45EA843540EA82304AEA844A009B14
S315080091408AEA050A4640D505E00545EA542540EA77
S3150800915052208AEA050A4640DEE90057D3E9041098
S315080091606D1847EB00001AEB0505079946EB00005A
S31508009170099E0A9F4E40089916404F400799274076
S315080091804E400899059B4F400699AD1940EB0700DC
S315080091906D184BEB0000E918059140EB0C010691A0
S315080091A00199019B0F0F029947EA01170E0F0199C2
S315080091B046EA01164FEA817C02994CEA910C890726
S315080091C041EA93014E405906029B87EA0C0741EA99
S315080091D0D3114FEA436C019B79404CEAD31C4919D9
S315080091E086EA0C0640EB06060398049D1843029B84
S315080091F0039F1D43019B00EA080003EA070C029B34
S31508009200049F40EA0C001F4005EA0905009B11EB84
S31508009210000A45EA070546EB050BDEE90210D3E925
S315080092200656079B491940EB0600C918089B43EBED
S315080092300000099B82EA03060A9B84EA0305059B4C
S315080092401E40069B1D40099B5E400A9B891985EABC
S315080092500305059B40EB05009D0B069B45EA8345E8
S315080092609F0B059B47EA83474FEA934C069B4CEABC
S31508009270833C9E0C059B85EA0C0546EA83364FEA35
S31508009280C35C069B77404CEA532CDE05059B85EAB2
S315080092900C0546EA53264D1986EA070640EB0606EC
S315080092A04FEA8B714FEA1B7015EB080341EA9A01E6
S315080092B04FEA1A7740EA0A104FEA8A7C4CEA9B0C76
S315080092C0079347EA0B1746EB090348404FEA4A61FA
S315080092D087EA0C07089341EADB11019B79404FEABC
S315080092E04B6C4D194CEADA1C4AEA0301029B80EAE8
S315080092F00C0046EB00064BEA0300039B1940049B4F
S315080093001840019B0AEA030C029B41EA0C010BEA8E
S315080093100307009B15EB010840EA070046EB000926
S31508009320D3E90856099BDEE90410491940EB060003
S31508009330C9180A9B43EB0000059B82EA0306069BB5
S3150800934084EA0305079B1E40089B56401D40079B61
S31508009350891985EA040540EB05009D0B089B45EA3B
S3150800936083459F0B079B47EA83474FEA934C089B25
S315080093704CEA833C9E0C079B85EA0C0546EA833635
S315080093804FEAC35C089B77404CEA532CDE05079BE3
S3150800939085EA0C0546EA5326039B4D1986EA070615
S315080093A040EB06064FEA89715B194FEA1970099373
S315080093B041EA9801049B4FEA187740EA08104FEAF9
S315080093C0887C4CEA990C47EA091780EA01004FEABB
S315080093D0486143EB060387EA0C0741EAD91104936F
S315080093E07940019B4FEA496C4D194CEAD81C4AEA68
S315080093F0080180EA0C0001EA0301029B46EB00061D
S315080094000AEA080C4BEA09000BEA090741EA0C01CB
S31508009410184038436F1846EB00030393009BDEE9B8
S315080094200616D3E90A504919059B46EB0000891828
S31508009430079A44EB000083EA0204069B089A5A40FE
S31508009440099B1C40049B1A40059B5C40069B091916
S3150800945082EA0302099B40EB02009A0B049B42EA4C
S3150800946083429D0B099B45EA83459E0C049B46EA6D
S3150800947083369C0C099B724044EA8334DE05049BC0
S31508009480654046EA5326DC05099B724044EA5324A4
S31508009490019B8A1884EA050440EB04049B180B9385
S315080094A0029B4FEA177543EB04030C93039BBE0715
S315080094B0180F990741EA970140EA071046EA93060A
S315080094C045EA031548407906754041EAD3115E0618
S315080094D046EAD71669408A1880EA060048EA07016C
S315080094E044EB000408EA070649EA030001EA0A0110
S315080094F009EA0305314300EA0B00531840EA050060
S31508009500019344EB00030293009BDEE90824D3E9A8
S315080095100C01059B121844EB0101D218069B099809
S3150800952043EB0101079B83EA0004089B0498584013
S315080095300B9B1C400C9B1840079B5C40089B121910
S3150800954080EA03000B9B41EB0001980B0C9B40EA59
S3150800955083409D0B0B9B45EA83459E0C0C9B46EA74
S3150800956083369C0C0B9B704044EA8334DE050C9BC7
S31508009570654046EA5326DC050B9B704044EA5324B3
S31508009580101884EA050441EB04041AEB0003069359
S31508009590019B4BEB040B1A0F029B42EA03124FEA9C
S315080095A0137C019B4CEA031C9D07029B45EA930525
S315080095B09907019B6A4041EA93018CEA010C590616
S315080095C0029B41EAD3115D06019B514045EAD3153A
S315080095D009188CEA050C44EB0C0C47EA0304DDE990
S315080095E002231A43019B04EA080407EA03002043FE
S315080095F0DDE902531D400B180593009B02EA090298
S31508009600D3E90E4042EA0502079B4CEB020CDEE961
S315080096100A25121945EB0000D218089B0B9943EB53
S315080096200000099B83EA0105049B0C9983EA01045F
S31508009630069B04EA0B041D40099B5D40049B5219D6
S3150800964084EA0304069B40EB04004FEA9B454FEA75
S315080096509B3445EA83359E0B44EA83444FEA934A92
S315080096604AEA8B3A6C4046EA8B46DD0586EA0A06E4
S3150800967045EA5B254FEACB5A4AEA532A75405219FE
S3150800968084EA0A0440EB040018EB0203079349EB4B
S3150800969000030893059B4FEA1C751E0F9C074FEAAB
S315080096A08C7848EA930845EA031544EA9C0446EA96
S315080096B00C1685EA080566404FEA4C685C0605996B
S315080096C048EAD31844EADC14019B6640B21843EA18
S315080096D00106029B85EA080440EB040443EA0C00F1
S315080096E0039B3E401840019B03EA0105029B354354
S315080096F003EA0C08009B40EA080012EB050844EB55
S315080097000009D3E91040099BDEE90C25121945EB3F
S315080097100000D218049B069943EB00000B9B83EAD2
S3150800972001050C9B83EA0B04079B1D40089B1C4004
S315080097300B9B5D400C9B521984EA0304079B40EB84
S3150800974004009C0B089B44EA83449E0B079B46EA4D
S3150800975083464FEA934A089B4AEA833A9D0C079B3D
S3150800976084EA0A0445EA83354FEAC35A089B6E40E1
S315080097704AEA532ADD05079B84EA0A0445EA532583
S31508009780141985EA060540EB05053B190993039B61
S315080097904FEA19704FEA897243EB050342EA9802C9
S315080097A04FEA187640EA08104FEA887747EA990799
S315080097B050400A9346EA0916059B4FEA48627E40DE
S315080097C042EAD912724043EA0806019B141906EACE
S315080097D00306029B4FEA49674CEA090247EAD8178B
S315080097E002EA0302059B80EA070045EB000003EA4C
S315080097F0080535430CEA0907631942EA0702039389
S3150800980040EB02030493009BDEE90E20D3E91245E0
S315080098100B9B121940EB0506D5180C9B079A43EBD0
S315080098200606089B81EA02008BEA0302099B0EF1F1
S31508009830400E18400A9B48401A40099B2D184FEACB
S3150800984093340A9B82EA0B0246EB020644EA8344F7
S315080098509A0B099B42EA83429F0C0A9B47EA833785
S31508009860980C099B7C4040EA83304240D8050A9B05
S3150800987040EA5320DF05099B604047EA5327039BCC
S315080098802D1882EA070246EB02061A0F049B42EAE3
S3150800989003121C0F039B44EA03149F07049B47EA21
S315080098A093079807039B7A4040EA93005F06049B58
S315080098B0444047EAD3175806039B7A4040EAD31038
S315080098C048EA030A049B444049EA0300059B00EA68
S315080098D00C000AEA030A039B08EA0307049B4AEA00
S315080098E0070709EA03031843019BD71944EB000A43
S315080098F05A19029B43EB0604EB19019346EB0A033C
S315080099000293009B403300930099AEAB8B427FF4E1
S3150800991009AC069B0EA8C0E9B23B059BC0E9AC247E
S31508009920C0E9AA3C079B0D9AC0F8C032089BC0E95B
S31508009930A889C0F8C432099BC0E9027AC0F8B832CF
S315080099400A9BC0E90056C0F8BC32039BB0ADC0F80C
S315080099509832049B4832C0F89C32019BC0F890327A
S31508009960029BC0F894320D9B083353F8081F55F82C
S31508009970087F5C686E68C91944EB06049A42C3E915
S315080099800014F2D14FF43471FEF7ECFA00200DF50D
S31508009990437DBDE8F08F00BF60AE010870B5094D84
S315080099A00446286008480160084909480A60094AC7
S315080099B01360A0472B68084898472B680748BDE8F6
S315080099C0704018474C2200204822002044220020DC
S315080099D02412002040220020C01100205C11002023
S315080099E02DE9F04FCDB0049008460C460DF067FA05
S315080099F0231805220293002309AEC6E90023B360A3
S31508009A000793049B0DF11C0BD3F80080B8F1000FE7
S31508009A1040F01D8125464FF0010A8F4FCDF80C8086
S31508009A20029B9D4206D9B06800285BD138464DB0E6
S31508009A30BDE8F08FBAF1000F36D02B783D2B40F0F9
S31508009A400481DFF828922A1BD9F80080B8F1000FA4
S31508009A5006D12146304608F0D7FF10B37E4FE5E71A
S31508009A60D9F804309A4206D12146404603920DF0B1
S31508009A70C7F9039A10B109F11009E5E70390D9F877
S31508009A8008000DF01CFA0146706001200CF058FA27
S31508009A907268D9F80810B0600DF004FA039BC8463E
S31508009AA09A466C1CCDF80CA02B782C2B03D115F8F4
S31508009AB0013C5C2B03D1029B9D4240F0C480A54229
S31508009AC003D1B06810F029FAC8E72378232B74D19C
S31508009AD000222B1B03F1FF3A1AF00109089204D061
S31508009AE05D4FB06810F019FAA0E7033BB3F5027FA3
S31508009AF04FEA5A0AF4D2514601200CF021FA0746D9
S31508009B00002858D0013420460AF0A0FB431C4ED04A
S31508009B1007F8090009F10109CA4504F10204F2D857
S31508009B203B4613F8014B5A4607EB0A0108A8089367
S31508009B3007F0A5F900283AD1DBF80020B2F5807FB6
S31508009B4035D81F2C089907D8444BE340D80703D5C6
S31508009B500B465018984225D10CA80DF0A3F93846A3
S31508009B6010F0DBF9DBF8003004980093D6E9012100
S31508009B700CAB07F020FB0746B06810F0CEF90023BF
S31508009B80B360002F65D02B46FC601D46029A013350
S31508009B9095421C4602D06A78202AF6D04FF0010A70
S31508009BA0002752E013F801CBBCF1000FD2D138469A
S31508009BB010F0B3F994E72A4F93E7039B002B80D163
S31508009BC00DF13009A54207D80CABA9EB0303D8F869
S31508009BD00C40CBF80030C5E794F800A0BAF15C0F4A
S31508009BE02DD1A21C954204F10107059217D93846D2
S31508009BF00AF02CFB431C12D000283FF462AF059AEA
S31508009C0009F1010C5FFA80FA0CABACEB030CBCF55E
S31508009C10807F09F801AB3FF454AF541CD2E7BD422C
S31508009C207FF64FAF94F801A00E4851460DF0DBF8C9
S31508009C3000283FF446AF3A4609F1010CE4E722460C
S31508009C4009F1010CE0E74FF0000A0135E8E6064F96
S31508009C50ECE6034FEAE600BF80DCFFFF0010585031
S31508009C6080D7FFFF5EA8010800D8FFFFE0B0010813
S31508009C702DE9F04F0746A1B00D4601204B211446A9
S31508009C8009930CF05DF98046002800F01C8100233A
S31508009C900B933B7A29460893FA682B190CA8079365
S31508009CA00C930AF095FB041EC0F2F480264643D0B6
S31508009CB0224629460CA807F090F9041EC0F2EA804D
S31508009CC0302229460DEB020007F0ABF90028C0F256
S31508009CD0EF8034440619324629460CA807F07DF968
S31508009CE0041EC0F2D780312229460CA807F099F93C
S31508009CF0B0F10009C0F2DA8009232946734A0CA894
S31508009D0007F0F8F90028C0F2D38026444E4400EB49
S31508009D1006094A4629460CA807F05FF9041EC0F250
S31508009D20B980302229460DEB020007F07AF9061EA3
S31508009D30C0F2C080A1444E44324629460CA807F01A
S31508009D404CF9B0F1000AC0F2AF80A02229460CA84F
S31508009D5007F067F9B0F10009C0F2A8800C9A294605
S31508009D603868521B08F0BFFF041EC0F293800C9B94
S31508009D7029461B1B7A680CA80C930AF079FAA346A5
S31508009D80041EC0F28780002229460CA807F0FCF9B9
S31508009D900028C0F28D8056444E445E44264400EBAB
S31508009DA006094A4629460CA807F017F9041E71DB6E
S31508009DB0302229460DEB020007F033F9061E79DB3F
S31508009DC00FAB019340230898A1444E4400933246B2
S31508009DD06B440C9940F0007009F091FA034600288C
S31508009DE06AD12A9A0492099A03920EAA02924B22DF
S31508009DF0CDE9008210AA397A386808F0B6FE04461A
S31508009E00002847D10121386808F0A6FE002848D165
S31508009E100421386808F0A0FE002850D04FF0040945
S31508009E204846397A0BAB0AAAFDF7ACFD044688BB4F
S31508009E3032460C9928460CF0B5FF079BCDF80890DA
S31508009E400D930E9BA919CDE90083DDE90A230DA818
S31508009E500AF074FA041E1DDB0D983246801B29464B
S31508009E6026440D900CF09EFF324629460DA807F0B1
S31508009E70B4F8041E0EDB302229460DA807F0D1F8E7
S31508009E80071E1EDB0D9A00212846521B0CF0A3FF65
S31508009E9034443C44404610F040F8204621B0BDE822
S31508009EA0F08F4FF00109BBE75446F3E74C46F1E75C
S31508009EB00446EFE73446EDE76FF06F04EAE7044C33
S31508009EC0E8E73C46E6E7034CE7E700BF7FA801085A
S31508009ED000DDFFFF80D7FFFF70B5002686B0059628
S31508009EE00A9E0C4600961546FFF7C2FE00280ADBB6
S31508009EF02A1A05ABCDE901530449034600940448E0
S31508009F002244FDF77DFD06B070BD00BF89A8010893
S31508009F10ACA80108BFF34F8F0549064BCA6802F47F
S31508009F20E0621343CB60BFF34F8F00BFFDE700BF6E
S31508009F3000ED00E00400FA050348044A0449121A31
S31508009F4092100AF0EABA00BF706100081C630008A4
S31508009F508820002008B5154B83F30A8800F030F8EE
S31508009F60FFF7EAFF124B13498B4212D30020124B1C
S31508009F7012498B4218D3FCF7B7FA186850F82240F2
S31508009F80586840F82240013298688242F5D30C336B
S31508009F90EAE70022F8E71C6844F8220001325C6808
S31508009FA0A242F8D30833E4E70022F8E708000020C5
S31508009FB038B9010844B9010844B9010844B9010887
S31508009FC04FF48041124B134A70B59A60D3F8882033
S31508009FD0114D42F47002C3F88820104A05F5005462
S31508009FE091664FF0FF3222660D4A62660222C3F876
S31508009FF0D020BFF34F8FBFF36F8F4FF4403600204A
S3150800A00003F08AFC0020E66003F078FC2E6170BD40
S3150800A01000ED00E000600008008000440090005059
S3150800A020F7FF37002DE9F04F144606460F4689B06C
S3150800A0300393C36B01225B6904A960689847F36BB5
S3150800A04001225B6905A93846984704A80AF0C7FEA5
S3150800A050054650B10023A37563754FF0FF33A3601F
S3150800A0600025284609B0BDE8F08F05A80AF0C4FE09
S3150800A0700123A375237E04EBC303DF611D84636894
S3150800A080BB420ED1206005A80AF0D7FE4FF0FF3379
S3150800A0902075A360237D043B022B26D80023A375D5
S3150800A0A0DEE723681A1A53425341A37505A80AF036
S3150800A0B0C4FE237D834218BFA57505A80AF0A0FE35
S3150800A0C0804604A80AF09CFE804518BF002305A810
S3150800A0D018BFA3750AF09BFE804604A80AF097FEEF
S3150800A0E080451CBF0023A375D4E705A80AF088FE9F
S3150800A0F080B1F36B022238465B6906A9984706A821
S3150800A1000AF08CFE0346207D032839D8DFE800F0E4
S3150800A1103838040905A8F3E7CC22237E04EBC303E9
S3150800A1201A8401F095FA129B187005A894F81880FD
S3150800A1300AF05AFE04EBC80888F82200237E05A810
S3150800A14004EBC303B3F820A093F822800AF058FE64
S3150800A150814605A80AF05BFE8346B9F1000F14D0C4
S3150800A160F36B022238465B6906A9984706A80AF0E7
S3150800A1701BFE607568B90023A3754FF000093CE023
S3150800A180227E04EBC2021384CBE705A80AF0F7FD8A
S3150800A190EFE794F81690B9F1000FEED0BAF1000F78
S3150800A1A00DD1B8F1000F1DD00123E375637E002B96
S3150800A1B03FD1B8F1010F30D184F8198014E0736CDF
S3150800A1C007EB0B015A4287EA010010421CBF002226
S3150800A1D0A2755A1E0A409B1A9A45CCD8A37D002B15
S3150800A1E0DFD1CAE7E37D43B94FF0000953465A4623
S3150800A1F0394630460AF03EFBA060A37D13B12269BA
S3150800A200524422611F49227E097891421AD90132A5
S3150800A2102276039ACAB91D4623E796F834307BB9E5
S3150800A220F36A0133E2D1B8F1030FDFD10123A37634
S3150800A230DAE7B8F1010FE0D0B8F1030FD4D1F5E7AA
S3150800A2409946D3E70023A3750BE7002B3FF409AF24
S3150800A250E57D002DDFD0B9F1000F11D1B8F1030F5C
S3150800A2603FF4FFAEA1684B1C3FF4FBAE129B22469F
S3150800A270009330460123FFF7D5FE0546A075F0E6A4
S3150800A2804D46EEE6D0B201082DE9F04F0E46984647
S3150800A29000238BB004464FF0FF31104617468DF861
S3150800A2A0133001F0BFF9B6F5801F20D2314605AA52
S3150800A2B004F108000AF0E5FC451C014603D1237C9D
S3150800A2C0BBB92D2010E0384601F0ACF90122394619
S3150800A2D020460DF113030AF01FFB0028EFD09DF866
S3150800A2E0133088F8003000200BB0BDE8F08FB01CA2
S3150800A2F0E5D1E56A691C36D12046616A0AF000FA9A
S3150800A3000546B31C18BF0123DFF8CC900193636A96
S3150800A310626C0293236805A902FB053AE36B0522E2
S3150800A3205B695046984705A80AF0F3FD0AF016FE41
S3150800A33050460AF01EFE4FF0000B824601464B1CA3
S3150800A34005D0636C81EA0A025B42134211D02946A2
S3150800A35020460AF0D5F9029BAB422CD0BBF1000F80
S3150800A3602CD10546D3E72368ED1A636CB5FBF3F5E4
S3150800A370C7E7484601F056F90DF11303494620464A
S3150800A380019A0AF0C9FA034690B1B21C03D0D9F86B
S3150800A3900020B2420CD19DF8132003930D4B88F888
S3150800A3A0002049461A6838460CF07CFD039B9B46FC
S3150800A3B0D9F80810C3E7BBF1000F82D0B6F5801FA5
S3150800A3C091D2314698F800307A6804F1080001F015
S3150800A3D06FF888E7CCB20108BC1200202DE9F341DA
S3150800A3E00446174698460E46184D816AE36A8B421C
S3150800A3F001D04B1C02D102B0BDE8F081284601F01D
S3150800A40011F90122294620460DF107030AF084FABC
S3150800A41038B14346294620469DF80720B847002804
S3150800A420E9D0A9684A1C04D1696820460AF0F5F9FA
S3150800A4300146012EDAD16B6881EA0302636C5B423E
S3150800A4401A4218BF4FF0FF31D0E700BF9012002024
S3150800A4502DE9F0474FF0FF334FF6FF72002504460B
S3150800A46000F108078AB0C0E90923C36205620563DB
S3150800A470384688460AF0D6FB20460AF0C1F860BB83
S3150800A480204641460AF08CF920460AF0B9F860BB26
S3150800A4905E200AB0BDE8F0872368E26B606C5669F7
S3150800A4A000FB0530052205A9B04705A80AF031FDCD
S3150800A4B0012806460CD1294620460AF042F9012E03
S3150800A4C0024600D10132294620460AF0B8F803E0D0
S3150800A4D00AF049FD0028EED10135E3699D42DBD338
S3150800A4E020460AF08DF80028CAD020460AF0B8F8A7
S3150800A4F04FF6FF72636A934200F0A680E26B666CC1
S3150800A5002068694606FB030055690522A847684680
S3150800A5100AF0D6FC626A2368606C4C4D00FB023078
S3150800A5200AF027FD4FF0FF33A062E3622A466FF078
S3150800A5300101204605ABFFF7A7FE002846D1AD6806
S3150800A54029462046E5620AF037F8206320B92046F6
S3150800A550E16A0AF062F9E062294620460AF05DF9E6
S3150800A5600546A36A9D4233D1204609F0E3FF00263B
S3150800A5708046B146E36999453CD3B04559D920464A
S3150800A580616A0AF0BDF80027054604F1400AB74299
S3150800A59012D3626C2368694602FB0539E36B052210
S3150800A5A05B694846984768460AF08AFC534602465D
S3150800A5B04946E06B0AF0DFFC294620460AF0A0F877
S3150800A5C00137B8450546E2D1642062E7A56AB7E7D0
S3150800A5D02946204609F0F0FF236B29460344064620
S3150800A5E0236320460AF019F90546002EB9D1C4E9B5
S3150800A5F00B06B6E7636C2568052203FB0955E36B72
S3150800A60005A95B692846984705A80AF082FC0AF05E
S3150800A610A5FC58B128460AF0ACFC0146204609F0CC
S3150800A620CBFF636C143B984208BF013609F1010958
S3150800A630A0E738460AF0F6FA002320461946044AE7
S3150800A640FFF7CCFE002024E7672022E7E812002067
S3150800A650074901082DE9F041036B9046826B90B0DB
S3150800A6609A4288BF8363426C436A07680E4602FBB8
S3150800A6700377C36B01A905225B69044638469847E8
S3150800A68001A80AF046FC01280146307057D0656CCF
S3150800A690E26B2368606AD2F814C005FB0030052215
S3150800A6A006A9E04706A80AF034FC01284FF0000581
S3150800A6B023D0D4E90A3201219342CDE90B458DF81E
S3150800A6C034800E958DF83C102AD1194620460AF09A
S3150800A6D0A4F8236B626C14339B1AE06223630C9B09
S3150800A6E053B99DF83C303BB1626A616C2368E06BF4
S3150800A6F001FB02310AF0C5FB0C9DE36B05225B6981
S3150800A70001A93846984701A80AF003FC3070284684
S3150800A710236BA26B9A4288BFA36310B0BDE8F08191
S3150800A720237C33B91C490BAA04F1080000F00EFF7C
S3150800A730D5E72046194A0BABFFF750FECFE7237C37
S3150800A74023BB2246164904F1080000F0FFFE616AA1
S3150800A750204609F0F6FF616A421C204609F06FFFA1
S3150800A760054620B9236B626C1344143B23632046C9
S3150800A770A16A0AF052F82368A062C01A636CB0FB9B
S3150800A780F3F0606220460AF08BF8B6E7002320460D
S3150800A790044AFFF723FEDAE7C9AE000845AE00080B
S3150800A7A0A14901083D49010873B50D46D11E4A4223
S3150800A7B01C461B7E4A419A4226D12968236899423B
S3150800A7C022D3636899421FD8114E0DF1070332460A
S3150800A7D0FFF75AFDC0B972686B689A4214D19DF8A2
S3150800A7E00730DA1E53425341227E93420CD16369E5
S3150800A7F001336361D4E90323934205D22968A26829
S3150800A80042F8231001332361012002B070BD00BF56
S3150800A810E81200202DE9F04F9A468BB09DF850308B
S3150800A820DFF850B10293DBF81030804653450D46E9
S3150800A8301646C0F09880D146DBF804300193B9F18A
S3150800A840000F00F08C80D8F83C3001225B6907A91C
S3150800A8500198984707A80AF0CFFADBF80030984223
S3150800A86040F0848007A80AF0D2FA0428074614D1D3
S3150800A87007A80AF0D3FA019B029A04463B44002A29
S3150800A8803ED1864212D91446361A4046019909F035
S3150800A890C4FFA9EB04090190D1E7D8F83C3002229D
S3150800A8A05B69019808A9984708A8E2E7841B5445FC
S3150800A8B028BF5446032C03EB0607AAEB040A1DD946
S3150800A8C0D8F83C30294638465B69A208984724F0F0
S3150800A8D0030304F003061F441D44002ED5D0D8F800
S3150800A8E03C3001225B6908A9384698473246284613
S3150800A8F008A935440CF0D6FA0026C6E72646ECE742
S3150800A900074600F00302039203442A1804920593AB
S3150800A910049BDD1B059BD81B039B9F420FD1002F71
S3150800A920B3D0D8F83C30012208A95B6998473A4663
S3150800A930284608A90CF026FA78B93D44A5E7D8F8C0
S3150800A9403C30012208A95B6998470422284608A9D1
S3150800A9500CF018FA08B9043FDAE74FF0360948460A
S3150800A9600BB0BDE8F08F4FF06309F8E74FF06F09B9
S3150800A970F5E700BF141300202DE9F0410F461646EF
S3150800A9809846044688B060B390F83450FDB101216A
S3150800A99009F02BFE00210E9BCDE90511CDE9023702
S3150800A9A09DF83C30CDF804808DF81C30237C049645
S3150800A9B08BB90D4901AA04F1080000F0C7FDDDE9CD
S3150800A9C00553E06B002E08BF1D4609F0F7FF284621
S3150800A9D008B0BDE8F0812046044A01ABFFF7FEFC4B
S3150800A9E0EDE70546F3E700BF6B490108A9A700088C
S3150800A9F02DE9F04F99B0CDE90B230E460A69416C53
S3150800AA00D31D1439B3FBF1F3013302EBC302036B15
S3150800AA1004469342C0F00F820023DFF8209409937E
S3150800AA20E36A48461946079300F0FCFDD6E9033762
S3150800AA3005930C9B022B1CD1CC2F40F074810B9BE9
S3150800AA408BB1314620460AF017F8656C14900B9BBB
S3150800AA5063B1E36B01225B69706816A9984716A86B
S3150800AA600AF0CEF90CE0059B1B68149308230E9395
S3150800AA700DE0782F656CEAD80B9B002BE9D1F07DA9
S3150800AA8000280CBF04230823782F0E9328D9012306
S3150800AA900025089308230393336808990C98C9F886
S3150800AAA00030C9F810700AF0CCF900230F930D9303
S3150800AAB006930A93039BDDF81CA09B0889F81400EB
S3150800AAC01193616C03984A1E0AEA02028B1AEFB1C7
S3150800AAD00544AB421CD8236B5B1A1344236386E0F8
S3150800AAE0079A6B1E1340EB1A3A1D934207D257B1C9
S3150800AAF0082BCCD80023042508930395CCE700251A
S3150800AB0004230895C7E704250897F6E78342E2D3A6
S3150800AB10039AB8469B1A9F4228BF984652449F42BA
S3150800AB20049278D90123D9F8102089F8173097426A
S3150800AB3076D1C9F804A0069399F81730002B71D07E
S3150800AB4099F818200699D31C09EBC3030132C3F8F8
S3150800AB5004A0A3F80880997289F81820B8F1000FA4
S3150800AB6014D00C9B022B60D10F9B7BB90D9B4344E1
S3150800AB70032B0BD9E36B01229B69049814A9984708
S3150800AB800546002840F0D58001230F93069B16A89A
S3150800AB900193089B009399F814204346316800F006
S3150800ABA0F7FCE36B50469B69119A16A99847051E50
S3150800ABB0099B18BF5346039A0993514643462046B4
S3150800ABC009F058FE236B039AC9F808009B1A08F186
S3150800ABD0030222F003029B1A2363002D40F0A9808A
S3150800ABE00D9BDDF810A04344A7EB08070D935146CB
S3150800ABF0204609F012FE00258246002F7FF461AF39
S3150800AC008E4A3168936804F10800E36252680C9B27
S3150800AC1000F04EFC89E0069B002B18BF03238AE749
S3150800AC20022388E7C9F804A098E70B9B002B30D1CC
S3150800AC30059BB8F1030F03EB080B27D9DDE90401DF
S3150800AC40E36B4FEA98029B6998470546002864D14A
S3150800AC5018F003025ED0059B28F003052B440593E4
S3150800AC60049B1D444FF0FF33059915A815930CF066
S3150800AC7019F9E36B284601229B6915A998470546E9
S3150800AC80CDF814B0002D81D0049B94E74246049D6C
S3150800AC90E8E706F12003DDF810B01093F37D70683D
S3150800ACA09BB10023357E0A9AD9B2A94211D21099CE
S3150800ACB003F1010C31F83310914225D90E9906EBB0
S3150800ACC0C303D8690A44104403E00E9B0A9A134446
S3150800ACD01844E36B01225B6915A99847159B012265
S3150800ACE013930A9B584604330A93E36B13A99B698B
S3150800ACF09847049B05464344A3EB0B03042B06D94C
S3150800AD0070B90BF1040BC9E76346521ACCE7CDF8C4
S3150800AD1010B0B7E7CDF814B038E7CDF814B0B3E7FC
S3150800AD20CDF810B0B0E770252F46384619B0BDE803
S3150800AD30F08F3D2DF8D104F1080303932368079A91
S3150800AD40606CD71AB7FBF0F700FB07300AF011F969
S3150800AD50E16A8246204609F060FDA16AD4F830E02F
S3150800AD608142626C59D0D9F8083002F1FF3CAEEB4B
S3150800AD70020103EA0C030B44236309992368E06282
S3150800AD80CB1AB3FBF2F847453BD1079BB3EB0A074F
S3150800AD9011D0E36BBA0851469B6998478346E36A24
S3150800ADA0079A3B44E362236B03989B1A5344236335
S3150800ADB009F038FF5F462368616CE06B01FB0831D8
S3150800ADC00AF04CF8204609F01BFC204609F048FC1E
S3150800ADD0626A2368606C00FB02300AF0CAF8A06257
S3150800ADE0204609F05DFD20636FB13269616CD31DA1
S3150800ADF01439B3FBF1F3013302EBC30290429DD23F
S3150800AE0092E70027D7E704F1080009F00BFF3B4655
S3150800AE10394620460A4AFFF7E1FA3269616CD31DC2
S3150800AE201439B3FBF1F3013302EBC302236B9342EC
S3150800AE30BFF4F6AD78E71C2777E700BFBC12002001
S3150800AE4007490108032A2DE9F34106460D46174628
S3150800AE501C4606D1237A012B23D0012002B0BDE877
S3150800AE60F081DFF86080096842460DF10703FFF7B5
S3150800AE700BFA60600028EDD19DF80730032BE9D066
S3150800AE80D8F804206B689A42E4D1237A2969012B01
S3150800AE90D4F80CC007D172690CEB0103934202D9AE
S3150800AEA02074207CDAE708316144E1603B460122E0
S3150800AEB029463046FFF79CFD60600028CAD000206E
S3150800AEC0CCE700BFE81200202DE9F341032A174614
S3150800AED0089C06D1237A012B25D0012002B0BDE8B3
S3150800AEE0F0812668DFF89080304642460DF1070368
S3150800AEF0FFF7CAF960600028ECD12568D8F8040085
S3150800AF00A96A6A6C4840534210EA030CE2D1237AD4
S3150800AF10012B0AD1E068D8F81030034470698342DF
S3150800AF2003D984F810C0207CD8E72868EB6A1B1A76
S3150800AF30081AB3FBF2F3B0FBF2F083420BD1706C44
S3150800AF40F36A421E1340326B121A134428463363BF
S3150800AF5009F063FCE862D8F81020E3680832134465
S3150800AF60E36001223B4604492068FFF741FD606023
S3150800AF700028AFD00020B1E7E81200202DE9F04103
S3150800AF800025604B0E46D3F8008004461D6018B9AC
S3150800AF9021252846BDE8F08190F8347007B30A6881
S3150800AFA003689A4240F0A4804A6843689A4240F08F
S3150800AFB09F808A6883689A4240F09A80CA68C36804
S3150800AFC09A4240F095800A6943699A4240F0908017
S3150800AFD08A69C36B9A4240F08B804B698361D8E7D4
S3150800AFE068223946856B0BF0F6FED6E902123368FD
S3150800AFF004F1080023607368A563636033696361BD
S3150800B0007369A36109F020FEB36904F14000E363A4
S3150800B0109B68984720B9676C17B16368B3FBF7F765
S3150800B02094F84330E761002BB2D00023656C2366A1
S3150800B030002D65D0002F63D02368B3FBF5F205FB1E
S3150800B0401233002B56D16668B6FBF5F305FB13637E
S3150800B050002B4FD1204609F09FFAA3690433034415
S3150800B0609E4249D340F634726369CC3B934245D835
S3150800B070B5F5805F44D30321204609F0B6FAD4E932
S3150800B0800001E36B1B6898470546E36B0220DB6803
S3150800B0909847D5B941462046FFF7DAF964280546A8
S3150800B0A004D141462046FFF7D3F905466DB9636CCE
S3150800B0B0226A143B204602FB03F609F06DFAA369DF
S3150800B0C0043303449E4238BF5A25002D0CBF012382
S3150800B0D0002384F8343007D1D4E900010A4A1368FA
S3150800B0E00133136009F04AFEE06B09F067FC50E78C
S3150800B0F05D254EE759254CE75A254AE75F2548E777
S3150800B1005B2546E78C120020881200202DE9FF41B6
S3150800B1100C4616461F46054688B390F8343083B366
S3150800B120B1F5801F2FD2DFF86480012109F05DFA9E
S3150800B1304246214628460DF10F03FFF7A5F80246B9
S3150800B140C8B99DF80F30012B10D1D8F81030BB4282
S3150800B15013D1009031462846FFF75CFB0446E86B9E
S3150800B16009F02CFC204604B0BDE8F081022B0CBF88
S3150800B17060242D24F3E72D24F1E76324EFE7212447
S3150800B180F0E71124EEE72924ECE700BF14130020AA
S3150800B1902DE9F04385B00E4617461C460546DDF8F0
S3150800B1A03080A0B390F834309BB3B1F5801F32D20B
S3150800B1B0DFF86890012109F018FA4A463146284610
S3150800B1C00DF10F03FFF760F8E8B99DF80F30012B72
S3150800B1D014D1D9F8102004EB08039A4215D3224655
S3150800B1E00090434639462846FFF714FB0446E86BA9
S3150800B1F009F0E4FB204605B0BDE8F083022B0CBF3E
S3150800B20060242D24F3E72D24F1E76324EFE72124B6
S3150800B210F0E71124EEE72924ECE700BF1413002019
S3150800B2202DE9F3411E4600230C46174605463360B2
S3150800B23050B390F834304BB3B1F5801F28D2DFF8FD
S3150800B2405480012109F0D1F92146424628460DF1DC
S3150800B2500703FFF719F80446A0B99DF80730032B32
S3150800B26010D0022B03BF01233B600423D8F810300B
S3150800B27018BF38603360E86B09F0A0FB204602B0BF
S3150800B280BDE8F0812D24F6E72124F7E71124F5E738
S3150800B2902924F3E71413002073B50446416909F01D
S3150800B2A060F9626E236B024493422CBF002201228E
S3150800B2B0834294BF00231B1A207C84F850206365C0
S3150800B2C084F85800A8B100230B4E1A4619462046A2
S3150800B2D0009609F095FC002305461A4619462046AD
S3150800B2E0009609F096FCE3682844984294BF00202B
S3150800B2F0C01AE06502B070BDFFFF0F002DE9F347E5
S3150800B3001E4643690446B342884617469DF8289068
S3150800B3104FD300258DF807502046616909F021F9B9
S3150800B320D4F830A082450AD2236AB5EB430F06D279
S3150800B330002220460DF10701FFF78CF9B8B39DF8F6
S3150800B3400730012B05D1002220460DF10701FFF732
S3150800B35081F9B9F1030F06D03146204609F001F903
S3150800B360256B854227D3154D4FF0FF31284600F04F
S3150800B37059F94B46294600222046C5E90376C5F801
S3150800B3800080FFF735FB236E054663B12046FFF7BD
S3150800B39083FF94F8503013B994F858301BB1236ED4
S3150800B3A004F150009847284602B0BDE8F0870135F9
S3150800B3B0B2E76225F7E71C25F5E700BFE81200208B
S3150800B3C02DE9FF410F4690461E46054698B390F86C
S3150800B3D0343093B3B1F5801F31D21A4C022109F0EB
S3150800B3E004F92246394628460DF10F03FEF74CFFAD
S3150800B3F0024678B101234246009339463346284629
S3150800B400FFF77CFF0446E86B09F0D8FA204604B03B
S3150800B410BDE8F0819DF80F30012BEBD12169B142CF
S3150800B420E8D10093414633462846FFF7F3F9044628
S3150800B4300028DFD1E7E72124E8E71124E6E72924F5
S3150800B440E4E700BF1413002030B50C46054685B066
S3150800B45028B390F8343023B3B1F5801F23D20221E4
S3150800B46009F0C3F80DF10F03214628460F4AFEF7E7
S3150800B4700BFF034688B99DF80F20032A0DD0032237
S3150800B4802146009202462846FFF738FF0446E86B35
S3150800B49009F094FA204605B030BD2D24F7E721249B
S3150800B4A0F8E71124F6E72924F4E700BF141300206F
S3150800B4B02DE9F043466886B3056898464FF0000CB8
S3150800B4C0A946AE4655F83C400CF1010CC4F31307E7
S3150800B4D0013401D0B94217D0B4450EF1080EF1D1A6
S3150800B4E02F46002403E0B44207F1080712D055F8A6
S3150800B4F0343001340133F6D1C1F3130141EA08515E
