S01C00006275696C642F64656275672F67656E657261746F722E7333379C
S3150800000000040020F1DE0008F5DE0008F5DE000831
S31508000010F5DE0008F5DE0008F5DE0008F5DE000866
S31508000020F5DE0008F5DE0008F5DE000831190108DE
S31508000030F5DE0008483B0108D518010857290108CC
S31508000040F5DE0008F5DE0008F5DE0008F5DE000836
S31508000050F5DE0008F5DE0008F5DE0008F5DE000826
S31508000060F5DE0008F5DE0008F5DE0008F5DE000816
S31508000070F5DE0008F5DE0008F5DE0008F5DE000806
S31508000080F5DE0008F5DE0008F5DE0008F5DE0008F6
S31508000090F5DE0008F5DE0008F5DE0008F5DE0008E6
S315080000A0F5DE0008F5DE0008F5DE0008F5DE0008D6
S315080000B0F5DE0008F5DE0008F5DE0008F5DE0008C6
S315080000C0F5DE0008F5DE0008F5DE0008F5DE0008B6
S315080000D0F5DE0008F5DE0008F5DE0008F5DE0008A6
S315080000E0F5DE0008F5DE0008F5DE0008F5DE000896
S315080000F0F5DE0008F5DE0008F5DE0008F5DE000886
S31508000100F5DE0008F5DE0008F5DE0008F5DE000875
S31508000110F5DE0008F5DE0008F5DE0008F5DE000865
S31508000120F5DE0008F5DE0008F5DE0008F5DE000855
S31508000130F5DE0008F5DE0008F5DE0008F5DE000845
S31508000140F5DE000809620008F5DE0008F5DE00089D
S31508000150F5DE0008F5DE0008F5DE0008F5DE000825
S31508000160F5DE0008F5DE0008F5DE0008F5DE000815
S31508000170F0B5114A114C124E00F00105E3695F070C
S3150800018013D40DB9334213D103EA00078F4207D1BE
S315080001900B4A1A40002A0CBF00206FF00100F0BD80
S315080001A0013AEBD16FF00200F9E74FF0FF30F6E7BE
S315080001B06FF00100F3E700BF809698000000035037
S315080001C0020001000B4B70B5D96911F480310DD1CD
S315080001D001244FF48072084E084DF46020462C64C2
S315080001E01A61FFF7C5FF3464EC6070BD6FF001005B
S315080001F0FBE700BF00000350001003500020035027
S315080002004FF4803238B50E4B0E4C9A66E56941F6C6
S31508000210713315400122E3630B4B0021DA60022398
S31508000220606121202361FFF7A3FF10B92120FFF7A2
S315080002309FFF0122054BDA600DB10023E36338BD49
S315080002400090005000000350001003500020035097
S3150800025070B5134C6061E3695B071ED40E4656F809
S31508000260043B8D18A361AE420BD104230021212043
S315080002702361FFF77DFF58B9BDE870402120FFF7DD
S3150800028077BF08210846FFF773FF10B104232361DF
S3150800029070BD56F8043BA361E5E74FF0FF30F7E77A
S315080002A0000003502DE9F84315464FF48032184BE9
S315080002B089469A6603F51C33DF690646174041F6F8
S315080002C07132DA63012203F58053DFF84C80DA6075
S315080002D055B9284601220F4BDA601FB10022A3F553
S315080002E00053DA63BDE8F88306F5005404EA080407
S315080002F0A41BAC4228BF2C46494622463046FFF787
S31508000300A7FF0028E6D12644A1442D1BE0E700BF3D
S31108000310009000500020035000E0FFFFA2
S3150800032001292DE9F04F4AD889B30FF2D40BDBE93E
S3150800033000AB0FF2D409D9E9008935A7D7E90067D8
S3150800034035A5D5E9004536A3D3E900239FED1E5B05
S315080003509FED1F6B9FED207B9FED214B80ED045B8E
S3150800036080ED004B80ED024B80ED066B80ED087B3F
S31508000370C0E90AABC0E90C89C0E90E67C0E91045B7
S31508000380C0E91223C0F8D0100020BDE8F08F9FED19
S31508000390165B0FF2940BDBE900AB0FF29409D9E96F
S315080003A0008925A7D7E9006725A5D5E9004526A32D
S315080003B0D3E900239FED0E6B9FED0F7BCCE76FF023
S315080003C07400E2E7AFF30080D89E05C15D9DBBCB04
S315080003D007D57C362A299A6217DD70305A01599159
S315080003E0000000000000000008C9BCF367E6096ABF
S315080003F03BA7CA8485AE67BB2BF894FE72F36E3CA6
S3150800040039590EF7D8EC2F15310BC0FF672633671D
S3150800041011155868874AB48EA78FF9640D2E0CDB20
S31508000420A44FFABE1D48B547F1361D5F3AF54FA5EC
S31508000430D182E6AD7F520E511F6C3E2B8C68059B10
S315080004406BBD41FBABD9831F79217E1319CDE05BC8
S315080004500348044B834202D0034B03B11847704745
S31508000460E02C0020E02C002000000000064B074985
S31508000470C91A891048BF0131491003D0044B0BB182
S3150800048001481847704700BFE02C0020E02C0020E8
S315080004900000000010B5064C237843B9FFF7D8FFD3
S315080004A0044B13B10448AFF300800123237010BD39
S315080004B0F41D0020000000006854010808B5054B2B
S315080004C01BB105490548AFF30080BDE80840FFF7B2
S315080004D0CDBF00BF00000000680400206854010872
S315080004E0A3F5803A704700BF174B002B08BF134B84
S315080004F09D46FFF7F5FF00218B460F461348144A21
S31508000500121A10F0C0FF0E4B002B00D098470D4B67
S31508000510002B00D098470020002104000D000D484C
S31508000520002802D00C48AFF3008009F0ABFC20008D
S3150800053029000FF061FC09F00FFC00BF000008005D
S315080005400000000000000000000400200004002055
S31508000550C01F00200000000000000000002307B5AF
S315080005600193054B1B6812F073FC019B002BFCD012
S3150800057003B05DF804FB00BF70210020EFF305838C
S315080005800F2B84BF034A9B5C4FF0E023D3F80C3D46
S31508000590704700BFF0E300E030B5074C25682468D3
S315080005A06A40D2B2891A101A090A41EA1021634030
S315080005B023EA0100C0B230BD24100020044B1B689A
S315080005C0584043085B4240421843C017704700BF73
S315080005D024100020054B01311B680132434022EAF2
S315080005E0030208400243501E00B270472410002040
S315080005F02DE9F04F834699B00F4618460021164656
S3150800060004930AF0F7FD002800F0878100240125ED
S31508000610774B30461493049915ABCDE90B45CDE9D4
S315080006200D45CDE90F45CDE9114513930AF06BFD4C
S31508000630A04228DABBF1000F05D1E7B9002420460D
S3150800064019B0BDE8F08F214658460AF0D1FC044699
S315080006500028F2D00BA80AF020FC0DA80AF01DFC11
S315080006600FA80AF01AFC11A80AF017FC0C2115A805
S3150800067001F0A4FAE3E7314638460AF084FC04465A
S315080006800028E7D1DAE731460BA80AF07CFC0446D5
S315080006900028DFD104990DA80AF075FC0446002845
S315080006A0D8D1F1880FA80231ADF83850ADF83050DE
S315080006B00AF001FC04460028CCD101460FA80AF02E
S315080006C097FC04460028C5D1F18811A802310AF022
S315080006D0F2FB04460028BDD10DA80AF0C8FC00F0BC
S315080006E01F001F2873D0C0F11F0319460BA80193DA
S315080006F00AF0E3FC04460028ACD101990DA80AF0DB
S31508000700DCFC04460028A5D1BDF83250BDF83A8075
S315080007100DA8A5EB080A4FEA4A1949460AF0CDFC86
S315080007200446002896D14FEA8A0A0DA90BA80AF0B2
S3150800073019FD00284DDA49460DA80AF0DBFC0446E7
S31508000740002887D108F1FF3302939B0005F1FF3A91
S31508000750069305F1804508F18043023B013D9B0065
S31508000760A5EB08050993AB000393029B9A4541D86C
S31508000770BBF1000F0DD058460FA90AF004FC00285B
S3150800078040F0C780049AB388928813FB02F3ABF84B
S315080007900430002F3FF45EAF01990BA80AF0AAFCBB
S315080007A0002840F0B680B3880BA93846ADF830303B
S315080007B00AF0E9FB0146002840F0AD8038460AF009
S315080007C019FD00287FF446AF0123BB8042E7019458
S315080007D09AE70F9A0BA952F80A300846013342F8ED
S315080007E00A300DAA0AF0EBFD044600289DD031E731
S315080007F0010003000D9B069A05931344DDF82C901F
S315080008000893059B4FEA8A089A5859F82A10A8F1BE
S3150800081004030F9D0793039B91421D4474D20798C6
S31508000820002359F8000009F007F9002914BF4FF012
S31508000830FF330346BAF1010F2B600EBF002309EB05
S31508000840080353F8083C099A1593079B59F803308F
S31508000850169359F8083017932B6801332B60059BBC
S31508000860134498462B680021013B2B6011A80AF017
S31508000870BFFB00284DD1029B002B48D0D8F800209A
S31508000880119B11A91A60089A084612685A602A68C4
S315080008900AF01DFE00283CD113A911A80AF062FC33
S315080008A00028DFDC2A680DA911A80AF010FE80BB13
S315080008B0039B11A84FEAC30841460AF0FEFB40BB5A
S315080008C00BA9084611AA0AF07AFD014618BB0BA81F
S315080008D00AF090FC002812DA0DA911A80AF053FBB9
S315080008E0B8B9414611A80AF0E8FB90B90BA9084621
S315080008F011AA0AF061FD60B92B68013B2B60039BC6
S315080009000AF1FF3A043B2FE74FF0FF3392E7029ACA
S31508000910B6E704469EE60C469CE66FF00B048EE6A8
S31508000920044B1B68584043085B4240421843C017B3
S31508000930704700BF2410002010B50B4C22682368AE
S315080009404240594081EA0200C00FFFF7E9FF2368D9
S31508000950521A434022EA030208401043C00FBDE87A
S315080009601040FFF7DDBF00BF24100020F8B50D4684
S31508000970014628681746FFF7DFFF0124C143074BE6
S315080009801E68BC4202D346EA0100F8BD55F82400A9
S31508000990FFF7C6FF01340643F3E700BF2410002023
S315080009A02DE9F04707460F4B88461E6819681D68EB
S315080009B0541E631C02D13046BDE8F08758F824A0BF
S315080009C057F8249050464946FFF7B6FF5146054367
S315080009D04846FFF7B1FF20EA05031E430543013CDD
S315080009E0E7E700BF241000208842F0B504D00025B0
S315080009F0084F0438AA4200D1F0BD3E6850F8044FAB
S31508000A005E4024EA060451F8256001351E40344349
S31508000A100460EFE7241000202DE9F04F1C4685B04E
S31508000A20DFF884900391064621461046D9F800302F
S31508000A30D9F800300AF09BFFC51D272D90468CBFBC
S31508000A404FF01E0A4FF0FA0AEB0825F00705029345
S31508000A502D1A0F9B2146009330460E9B029A0BF0E7
S31508000A6083F90746C0B92A46214630460AF0F8FFF8
S31508000A70BAF1010A14D0224631460398FFF776FFE9
S31508000A802246834641463046FFF78AFFD9F80020BA
S31508000A900BEA00039A42DCD0384605B0BDE8F08F71
S31508000AA06FF00D07F8E700BF2410002070B50C465C
S31508000AB00646114620461A460AF09DFC0546A0B988
S31508000AC0B36C33B921462046321DBDE870400AF0A2
S31508000AD02FBDB4F90430002B09DB20460AF0C7FA0B
S31508000AE0F36BB0EB430F09D9184D284670BD014684
S31508000AF020460AF07FFB0028EFD0F5E72046B36CC6
S31508000B00984705460028F0D10436B4F90430002B7E
S31508000B1004DA002120460AF06DFB68B93146204602
S31508000B200AF020FB0028E0DB3246214620460AF080
S31508000B30C1FB0028F2D006E03246214620460AF0DC
S31508000B403BFC0028E1D00546CFE700BF80B0FFFF99
S31508000B50F0B514461F46054685B002A80E460AF0AB
S31508000B6097F92346022100972A1D02A80AF08EFD4E
S31508000B70044648BB06F110021146284602ABFFF7A9
S31508000B8095FF044600BB06F108073A46394628464B
S31508000B9002ABFFF78BFF0446B0B902AB1A461946FB
S31508000BA02846FFF783FF044670B932463146284681
S31508000BB002ABFFF77BFF044630B93A46394628466A
S31508000BC002ABFFF773FF044602A80AF066F903486A
S31508000BD014F10E0F18BF204605B0F0BD00B3FFFF95
S31508000BE02DE9F14F9A461B6904460E4691460A9D21
S31508000BF01BB9724801B0BDE8F08F02F11007002159
S31508000C0038460AF0F7FA30B95146304601B0BDE821
S31508000C10F04F0BF08DBB0AF11008002140460AF090
S31508000C20E9FA08B94946F0E7012140460AF0E2FA2E
S31508000C300028DED13B463A4629462046FFF736FFCE
S31508000C400028D7D105F108083B462A4641462046E2
S31508000C50FFF72CFF0028CDD153462A4629462046C1
S31508000C60FFF724FF0028C5D14246414620460AF12F
S31508000C700803FFF71BFF0028BCD14B462A46294626
S31508000C8020460BF048F90028B4D109F1080B5B4659
S31508000C904246414620460BF03EF90028AAD10021DB
S31508000CA028460AF0A7FA014690B940460AF0A2FA81
S31508000CB040B92B464A463146204601B0BDE8F04FBA
S31508000CC00BF0A6B9304601B0BDE8F04F0BF046BBB5
S31508000CD02B463A46204606F11001FFF7E7FE0028A4
S31508000CE088D105F110072B462A4639462046FFF7D4
S31508000CF0DDFE00287FF47EAF05F1180A2B463A463A
S31508000D0051462046FFF7D2FE00287FF473AF4B46C4
S31508000D103A4639462046FFF7C9FE00287FF46AAFEF
S31508000D20394628460AF02FF900287FF463AF29468A
S31508000D3020460BF05EF900287FF45CAF4346424636
S31508000D4031462046FFF7B2FE00287FF453AF2B4604
S31508000D503246314620460BF0DEF800287FF44AAFCB
S31508000D6053463246314620460BF0D5F800287FF424
S31508000D7041AF33463A46394620460BF0CCF80028B0
S31508000D807FF438AF43463A4639462046FFF78EFE8B
S31508000D9000287FF42FAF5B46524651462046FFF7A0
S31508000DA085FE00287FF426AF53463A46204606F1CC
S31508000DB0080101B0BDE8F04F0BF0ADB880B0FFFFF9
S31508000DC02DE9F047012A8246DDE908490E46904694
S31508000DD01F4644D804300AF04EF9054650460BF033
S31508000DE01DFA012882463CD1002106F110000AF0BE
S31508000DF001FA48B9B9F1000F02D11B48BDE8F087DE
S31508000E002070C7F800A0F9E7B8F1000F17D16B00FA
S31508000E1001334B453B60F0D8214604232A46304629
S31508000E2001F8013B0AF043F90028E7D12A46691C74
S31508000E30214406F10800BDE8F0470AF038B96B1CF2
S31508000E404B453B60D9D8002106F108000AF0ECF8BA
S31508000E502146023001F8010B2A463046EBE70348E3
S31508000E60CCE70348CAE700BF00B1FFFF80B0FFFF29
S31508000E7080B1FFFF2DE9F84380460C4615461F460C
S31508000E8013B91D48BDE8F88304300AF0F4F806469D
S31508000E9040460BF0C3F9012881462AD12B7833B98D
S31508000EA0012FEED12046BDE8F8430BF057BA06F1FC
S31508000EB00108B845E5D832462046691C0AF0E1F82B
S31508000EC00028DFD1494604F110000AF091F80028FD
S31508000ED0D8D12B78042BD4D173000133BB42D0D19F
S31508000EE0324605EB080104F10800BDE8F8430AF0AC
S31508000EF0C8B80248C6E700BF80B0FFFF80B1FFFF51
S31508000F002DE9FF410E460546012106F110000AF0BB
S31508000F1071F9044650B928460BF080F901287AD1B0
S31508000F20214630460AF066F9002801DA3B4C6EE0A5
S31508000F3006F10808214640460AF05CF90028F5DB68
S31508000F402F1D394630460AF00DF90028EEDA3946E3
S31508000F5040460AF007F90028E8DA684609F098FFDB
S31508000F6002A809F095FF4346424669462846FFF718
S31508000F709DFD0446002844D133463246284602A938
S31508000F80FFF794FD044600283BD1EB687BBB02A91A
S31508000F90032208460AF017FA044690BBBDF90C303E
S31508000FA0002B04DA002102A80AF024F9C8B902AA1B
S31508000FB0334611462846FFF779FD044608BB02AAC0
S31508000FC01146284605F114030AF089FF0446C0B9FC
S31508000FD0684602A90AF0C6F8104B041E18BF1C463C
S31508000FE00FE002A93A4608460AF0E6F9D4E702AA4B
S31508000FF01146284605F10C030AF071FF044600283D
S31508001000D5D0684609F049FF02A809F046FF2046F0
S3150800101004B0BDE8F081024CF9E700BF80B3FFFFDA
S3150800102080B0FFFF38B505460BF0F8F801280C46E6
S3150800103001460DD120460AF0DDF8002806DB2046D9
S3150800104005F134010AF08EF8002803DB024838BDA2
S315080010500248FCE70020FAE780B3FFFF80B0FFFFF5
S315080010602DE9F04F0F46B5B0114606469A4602924C
S31508001070FFF7D8FF0446002840F09F8151463046C6
S31508001080FFF73EFF0446002840F0978130460BF0F4
S31508001090C5F8012840F09A81336C182101330220E3
S315080010A04FEA53090EF066FC0546002800F08C81CD
S315080010B005F118080BF0BBF840460BF0B8F80DF12F
S315080010C04C0B0BEB0400083409F0E2FE202CF8D197
S315080010D0514628460BF02CF9044698BB8246D14562
S315080010E01ED1414630460AF07FFE044650BB4346B1
S315080010F02A4641463046CDF800B0FFF771FD044652
S3150800110000BB414630460AF06FFE0446D0B905F1E9
S31508001110100009F0C2FE05F1280009F0BEFE11E034
S31508001120BAFBF9F1012318228B4009FB11A1DBB2A6
S3150800113002FB0352F9B11146304613AB0AF068FFB9
S31508001140044638B34FF0000A0BEB0A000AF1080A06
S3150800115009F0A3FEBAF1200FF6D1F4B1B36D9D42A2
S315080011602DD028460BF0A0F840460BF09DF82846EF
S3150800117012F0C9FC23E003F0FE0101EB530110460F
S3150800118005EBC10103920BF0D3F8039A0446002835
S31508001190D1D0D7E70AF1010AA1E705A809F078FE38
S315080011A006F1340B0BA809F073FE2146584609F0E0
S315080011B03BFF012811D0B36D9D4204D1844C3846BB
S315080011C00BF072F8F9E028460BF06EF840460BF083
S315080011D06BF8284612F097FCF0E72146029809F0CA
S315080011E023FF0299824605A809F0CDFE044630B1D0
S315080011F00BA809F052FE05A809F04FFEAEE75946BE
S31508001200029A0BA80AF0DBF804460028F0D1BAFACD
S315080012108AFA4FEA5A1A52460BA905A809F06FFE30
S3150800122004460028E4D1014609F1010213A810F08A
S315080012302AF913AB1A46A346D94502925DD05946F8
S3150800124005A8039309F0F0FE029A09EB0B0114783E
S315080012500BF1010B044305A809F0E6FEE4B2029A75
S3150800126044EA4004039B02F8014BE5E75C781A78E8
S3150800127084EA010E6FEA0E0000F0010012FB00F28C
S315080012800C4002EA0E0182EA0E0203F8012F13F857
S31508001290012C214342EAC01203F8012C0CF1010C7F
S315080012A0E345E3D20BA809F0F8FD05A809F0F5FD1A
S315080012B005A80AF0BCFF00240BAB1819083409F07E
S315080012C0E7FD202CF8D10BF1D0036B442A463946AA
S315080012D0304613F8843C0AF04BFE0446002831D108
S315080012E03E9B002B6DD0DDE93E2339463046FFF79D
S315080012F02FFC002865D0044624E000214FF0010C9D
S31508001300CEE74B463A46394630460BF1FF3B0AF0E4
S315080013107FFE0028EFD113AB2A46304613F80B3070
S3150800132005A90AF025FE0028E5D13A463946304691
S31508001330CDF8009005ABFFF753FC0028DBD1BBF1D5
S31508001340000FDED105A80AF005FE4FF000090BAB29
S3150800135003EB090009F1080909F09FFDB9F1200F0F
S31508001360F5D1002C7FF4FAAE5246394630460AF0DB
S315080013707FFD044600287FF4F1AE3E9B4BB1DDE9C4
S315080013803E2339463046FFF7E3FB044600287FF440
S31508001390E5AE394630460AF027FDB36D04469D4250
S315080013A008D028460AF080FF40460AF07DFF284606
S315080013B012F0A9FB002C7FF402AF204635B0BDE839
S315080013C0F08F0DF12C09BAE7024CF8E6004CF4E769
S315080013D080B0FFFF80B2FFFF30B4DDE9024524B1DB
S315080013E0CDE9024530BCFFF73BBE014830BC70472B
S315080013F080B0FFFF73B505461E460AF00FFF0128A9
S315080014000C4601460ED113462046009605F13402D5
S315080014100AF03CF9044B10F10E0F18BF03461846A4
S3150800142002B070BD014BFAE700B3FFFF80B0FFFFC3
S315080014302DE9F0410D46014628461746984600F024
S3150800144047F80446B0B928460AF0E8FE012805F12F
S31508001450600612D142463946304609F012FE044665
S3150800146028B931462846FFF7DDFD044610B1304657
S3150800147009F013FD2046BDE8F081014CF7E700BFEF
S3150800148080B1FFFF70B5066C0D460736B3EBD60F75
S31508001490114604464FEAD60203D200230A482B60B7
S315080014A070BDB0F866302A604BB10AF0B7FE012865
S315080014B007D104F16000BDE8704009F0F8BD0348A3
S315080014C0EEE76FF06D00EBE700B1FFFF80B0FFFFBE
S315080014D038B504460D460AF0EBFE20460AF0B5FE7E
S315080014E0032D257023D1144B144AA360A361A3636B
S315080014F02362A362124B626063624FF00113114AC2
S3150800150023636261104A114B6263114AE362E26126
S31508001510201D09F0ACFDE06304F1340009F0A7FDD5
S31508001520206400200123C4E91600636438BD002343
S3150800153008482370FAE700BF010008002C3C0108A0
S31508001540CC3B01080C3C0108AC3B01084C3C0108AB
S31508001550EC3B010880B1FFFF0538C0B206289ABFE8
S31508001560024B53F820000020704700BF503C01088A
S315080015700023F0B5044603600A276FF067000C4E97
S315080015800B68934203D21D78303D092D00D9F0BD72
S315080015902568B54209D87D43256013F8010B284410
S315080015A03038206000200B60EAE76FF06700EEE74E
S315080015B09999991970B5094C256815B96FF02D00D8
S315080015C009E0667C864207D1267C8E4204D100203B
S315080015D0156062681A6070BD1434EDE79445010819
S315080015E030B5084B1C6814B96FF02D0006E01D7C59
S315080015F0854204D100205B680C60136030BD14334B
S31508001600F0E700BF4445010830B5084B1C6814B91B
S315080016106FF02D0006E01D7C854204D100205B6832
S315080016200C60136030BD1433F0E700BF1C45010899
S315080016302DE9F04F0F460021054687B0084600936E
S3150800164090469B46134605AA109E09F09AFB284623
S315080016500FF086FE044638460FF082FE05990229E9
S315080016600A4638BF02224B1C023A03EB9213234464
S315080016701844119B984207D96FF02908129B1860E5
S31508001680404607B0BDE8F08F39B101200EF072F977
S31508001690044618B9DFF8A080F2E70C464346204610
S315080016A00599CDF800B005AA09F06BFB804618B17C
S315080016B0204612F028FAE3E728460FF051FE29469D
S315080016C0024630460FF0C3FD28460FF049FEA146F4
S315080016D04FF00A0A3518DDF814B0BBF1000F18D11F
S315080016E038460FF03DFE3946024628460FF0AFFD54
S315080016F038460FF035FE02462B18581C129B05F883
S3150800170002B0821B1A60119B59469A1A0FF0BBFE4B
S31508001710CEE75A46402A28BF402249462846039221
S315080017200FF095FD039AABEB020015440590914422
S3150800173005F801ABCFE700BF80EEFFFFF0B5054621
S3150800174087B00E461822002168460FF09CFE1DB988
S31508001750114C204607B0F0BD2B68002BF8D169461E
S3150800176030460BF03BFA04460028F1D1BDF800706C
S3150800177068460BF0DEFC27F0FF03B3F5E24F07D00F
S3150800178047F201039F4205D1044B2B60AE60E0E7A8
S31508001790034BFAE7034CDCE780C1FFFF2446010848
S315080017A05446010880C6FFFF2DE9F74F1646DDE9C6
S315080017B00C89DDE90EAB04460D46109AE1B92BB942
S315080017C0036803BB164803B0BDE8F08F002EF9D0B6
S315080017D001680029F6D021684F69FFB1CDE90FB23B
S315080017E0294632462046BC46CDE90D9ACDF83080CA
S315080017F003B0BDE8F04F6047002EE3D0016800292A
S31508001800E0D0002BE7D128460192FFF7A5FE0AF0A3
S31508001810CDFD019A03460028DDD1D3E70148D2E77A
S3150800182080C1FFFF00C1FFFF0048704780C6FFFF69
S315080018302DE9F04F04468BB00E46DDE9149A0021D7
S31508001840174604A818229846169D0FF01CFE204637
S3150800185004A90BF0C3F938B10722194B19490CF042
S3150800186020F80BB0BDE8F08F04A8BDF812B00BF055
S3150800187060FC46F0C06143463A462046CDE901A5DC
S31508001880CDF8009041F4E0610BF0F1FA034670B12F
S315080018908533E1D143463A462046CDE901A5CDF840
S315080018A0009046F006210BF0E2FA0028D4D1CDE9E3
S315080018B000A54B46494658462A680CF018F8D0E762
S315080018C0152D0008904601082DE9F0431E469BB0E9
S315080018D00746884614460021182204A80FF0D3FDAF
S315080018E00023F51DED0802936D0024B92A4C204605
S315080018F01BB0BDE8F0834FF006294FF4005144F4BD
S31508001900824404A8ADF810400AF03DFE4246394626
S3150800191002ABCDF81C9000F005FD48B101F0FAF9CC
S315080019200546029800F00AFC04463DB32C46DEE75D
S31508001930402D03D9029800F001FCD7E703AB0193C9
S315080019404023DDE924120AAF009330463B460CF0EB
S3150800195022F80446029814B100F0F0FBC7E7039B8F
S31508001960AB42E8D1CDE90073DDE9222349460BF005
S31508001970B7FA50B9029800F0E1FB0446002CB6D03D
S31508001980204601F0C7F90446B1E70722034B04498C
S315080019900BF087FFC4E700BF80C1FFFF152D0008C5
S315080019A0904601082DE9F04105469CB000211646EF
S315080019B005A818221F460FF066FDA86805A90BF0B2
S315080019C00DF938B10722144B14490BF06AFF1CB005
S315080019D0BDE8F081BDF8144005A804F44F43B3F5FB
S315080019E0824F18BF0024BDF816800BF0A2FB4122D7
S315080019F0A86804AB0BA90BF04AF90028E2D1239B8F
S31508001A0004990393229B0096CDE90173E2B24346FB
S31508001A100BA8FFF759FFDAE7152D000890460108CD
S31508001A2070B5002306460846BEB0CDE90333412209
S31508001A30806803AB05A90BF02AF9044618B101F032
S31508001A4069F93EB070BD16ADA022314628460FF0A2
S31508001A50FEFB28460AF092FD0238314602284FF06E
S31508001A60A002284698BF179C0FF0F1FB28460AF0FB
S31508001A7085FD0238022888BF00214FF0410398BF30
S31508001A801799CDE900530022204604AB6831FFF7C9
S31508001A9097F90028D5D1DDE903239A4208D12946CA
S31508001AA005A80FF0C6FC034B002818BF1846C8E760
S31508001AB00048C6E780C1FFFF2DE9F04190460027A0
S31508001AC0ACB004ADA02206460C462846414603970C
S31508001AD00FF0BDFB28460AF051FD023802284046A1
S31508001AE098BF059F0AF04AFD072811D141222946C9
S31508001AF0D8F8080003AB0BF0CAF800BB3068039AA5
S31508001B00041B944214D26FF06B002CB0BDE8F08130
S31508001B1041230022CDE90053384603AB07F168019B
S31508001B20FFF74EF90028F0D13068A042E7D2EAE77D
S31508001B30801A294630600FF08AFB0398E5E70148CA
S31508001B40E3E700BF80C1FFFF73B5054610460C46A4
S31508001B5016460AF013FD022809D1324621462846C0
S31508001B60FFF7AAFF00280DDB034618460AE03046B1
S31508001B700AF004FD07281BD100232A680193944222
S31508001B8002D90C4802B070BD2146B06801AB121BE1
S31508001B900BF07DF80028F4D12868019A2146801AAE
S31508001BA028600FF056FC019B002B1846DDDAE9E7A2
S31508001BB00148E7E780C1FFFF80C6FFFF10B50A4668
S31508001BC0044619B1024B00211B68984710BD00BF97
S31508001BD078210020F8B50D4E0D4C0E4D33680E4891
S31508001BE0984767782B680C48984733680B48984796
S31508001BF0022F08D12478E31F5C425C412B68074812
S31508001C0098472046F8BD0024F8E700BF8021002049
S31508001C10281000207C210020281100208C1100208B
S31508001C200E4B0340B3F1607F06D1B1F5885F14BF50
S31508001C306FF0860000207047B3F1707F0BD101F476
S31508001C40E043B3F5005F06D111F4E06F0CBF6FF007
S31508001C508600002070476FF0860070470000C07F3E
S31508001C608A42F8B507460C4600F019818F4922F4D6
S31508001C70FF7323F001038B420ED08D4B22F0FF0138
S31508001C80994209D08B4822F47F7323F003038342D9
S31508001C9002D0894B994228D1884B24F0FF019942FA
S31508001CA00FD114F0FF000BD0854B40F0007098421E
S31508001CB040F0F78082EA0400FF288CBF002001204C
S31508001CC0F8BD7B4B9942ECD0A3F588539942E8D0EE
S31508001CD024F4FF7323F00103B3F1062FE1D076480D
S31508001CE08142DED073498B42DBD004F0FE43B3F168
S31508001CF0A06F14D102F0FE43B3F1A06F40F0D1807B
S31508001D0082EA040333F47E1340F0CB8014F40040D7
S31508001D10D6D0C4F30540C2F305429042CDE7B3F1ED
S31508001D20407F40F0A88002F0FE43B3F1407F40F0C8
S31508001D30B88082EA040535F47E1540F0B28039464B
S31508001D402046FFF76DFF002840F0AB805D4B12F48C
S31508001D507C1603EA020319D0B3F1607FC2F3054685
S31508001D6079D15949D3B243F000738B4277D003F146
S31508001D707E43043B0F2B5CD8DFE803F05A5A5B71AD
S31508001D806567696B65675B5B6567696BB3F1607F00
S31508001D9034D14D49D3B243F000738B4244D003F19A
S31508001DA07E43043B0F2BDCD801A151F823F000BF7A
S31508001DB02D1E00082D1E0008631D0008291E000898
S31508001DC0A71E0008F11D0008F51D0008F91D0008EA
S31508001DD0A71E0008F11D0008631D0008631D000802
S31508001DE0A71E0008F11D0008F51D0008F91D0008CA
S31508001DF02026B6E73026B4E74026B2E7B3F1707F6F
S31508001E0017D107F4E043B3F5005F03D10126C7F302
S31508001E1002239E4007F4E043B3F5005F09D101258C
S31508001E20C7F302218D4004E010269AE7142698E7A6
S31508001E30142514F47C1FC4F3054312D1B54214BF0C
S31508001E40002001203CE71C25F3E72025F1E7302593
S31508001E50EFE74025EDE7B3F1707FEAD1DAE7102521
S31508001E60E7E712F47C1F01D1AB4218D022047FF5B4
S31508001E7027AFB34221E7B3F1106F12D124F01F60E8
S31508001E8020F4702068B902F0FE43B3F1106F7FF4B6
S31508001E9017AF0E48104040F01060A042CFE701206F
S31508001EA00EE700200CE71C265BE700BF00020006D1
S31508001EB000130006000400060009000600030006D9
S31508001EC0FF0000020000C07F030000020000FFF6CA
S31508001ED010B5344B21F0FF02E8B19A4236D003F52B
S31508001EE080539A4232D0A3F588539A422ED021F4D1
S31508001EF0FF7323F00103B3F1062F40D02A4882422C
S31508001F003DD02A4A934221D0294B99420CBF002042
S31508001F106FF0860010BD9A4203D111F0FF0318D165
S31508001F20F8E7244B9A42F8D0A3F588539A42F4D09E
S31508001F3021F4FF7323F00103B3F1062FEDD01A4CF9
S31508001F40A242EAD0194A9342E4D1E6E711F0FF0328
S31508001F5004D0194A43F00073934202D16FF0860009
S31508001F60D8E7164A934208D003F17E43083B032B71
S31508001F708CBF6FF085000020CCE70020CAE711F07F
S31508001F80FF03E6D1094B21F47F7121F00301994241
S31508001F90E4D003F5A0639A4214BF00206FF08600D0
S31508001FA0B8E700BF000300060009000600040006A3
S31508001FB00008000600130006FF00000205000002E4
S31508001FC037B505460C46FFF705FE78B100232246CD
S31508001FD001932946074801AB0CF0C0FF20B9019BC5
S31508001FE0A34218BF6FF0930003B030BD6FF08800AE
S31508001FF0FAE700BF2C1000202DE9F04F456885B0A0
S315080020002D0A0446DDE90E67894692469B46DDF8A9
S31508002010408007D0114CA54218D06FF0860005B055
S31508002020BDE8F08FCDE90178009605F033F910F197
S31508002030860FF4D15B46524649462046CDE90F78CD
S315080020400E9605B0BDE8F04F0AF057BDCDE90F78FA
S315080020500E9605B0BDE8F04F05F01CB902008000E9
S315080020602DE9F843884617461C4600F021FD05462B
S3150800207088BBD8F80060B6F8009009F4E043B3F5D9
S31508002080804FB36808BF27F0010737EA03031AD160
S315080020900CB3254B24F0FF029A421FD114F0FF031C
S315080020A004D0224A43F00073934232D0224648466F
S315080020B0F168FFF7D5FD074668B9224648463169F3
S315080020C0FFF7CEFD70BB6FF0840500233046C8F8D5
S315080020D0003000F069FD2846BDE8F883144B9A42A3
S315080020E0DCD0A3F588539A42D8D024F4FF7323F0A2
S315080020F00103B3F1062FD1D00E498A42CED00E4A3B
S315080021009342CBD004F0FE43B3F1407F04D12304BD
S31508002110CCD56FF08605D8E7B3F1A06FF7D0034B9F
S315080021209C42C2E73D46D6E700030006FF000002D0
S3150800213000130006000900060004000637B5044629
S31508002140C0B101A900F0B4FC044698B91C4B1D485F
S315080021501B6898471C4D08BB0198037E032B11D1B9
S315080021600BF013FA2B6804461648984728B10CB9A1
S315080021706FF08F04204603B030BD002C08BF6FF007
S315080021808704F7E7022B15D1032303760379FF2B80
S3150800219013D01BB140690BF039FA044601980BF0CD
S315080021A0F4F92B68002818BF044606489847002803
S315080021B0E0D0DCE76FF09604F0E76FF08404EDE713
S315080021C080210020F01100207C2100202DE9F34118
S315080021D00D46194600236F680B6038461646D5F833
S315080021E014800BF0E7F9044688B938460BF0E4F991
S315080021F0044660B9FFB277B9B8F1000F05D1AB68EC
S3150800220023F47F4323F0030363B16FF0860420466B
S3150800221002B0BDE8F081014668690BF0A5F900280F
S31508002220EDD1F2E74FF6F8736A889A4227D8154B2C
S3150800223015481B682F79984710B16FF08F04E6E7A9
S3150800224007B901A8314600F0F3FB104B04461B689A
S315080022500D48984710B1002CD9D1EEE7002CD6D1FD
S315080022600FCDD6F800C066460FC695E8030086E887
S315080022700300002FCBD1019BCCF81430C7E76FF0D1
S315080022808504C4E780210020F01100207C2100206D
S31508002290154B70B51B68054614481646984718B17D
S315080022A06FF08F04204670BD2B794BB96B690024FB
S315080022B033602B7E012B14D034606FF0960407E050
S315080022C02846D5E908120BF0BCF904460028EDD0DB
S315080022D0074B06481B6898470028E3D0002CE1D135
S315080022E0DEE702232B76F3E780210020F011002099
S315080022F07C21002010B5044660B1074B07481B68CF
S31508002300984720460AF04DFCBDE81040044B0348A8
S315080023101B68184710BD00BF80210020F01100205F
S315080023207C2100202DE9F0410546002088B088462A
S315080023301F461646CDE905001860002A56D0B2F1A8
S31508002340005F56D2294606AB05AAFFF73FFF0446AB
S3150800235098B90598436AABB1059832464388414611
S31508002360079307AB029300F124030193436A009392
S31508002370036AFFF741FE0446A0B1DDE90501FFF750
S31508002380B9FF29E06B681B0A05D01B4A934202D0A5
S315080023906FF08604F1E731460AF08CFB0446002804
S315080023A0DAD0EAE70598079B4288CAB943804FF610
S315080023B0F872934217D82B8813B102889A42E7D14C
S315080023C06B8813B142889A42E2D13A460699FFF7DA
S315080023D05FFF04460028D0D1204608B0BDE8F0814A
S315080023E09A42D5D1E3E76FF08504C6E76FF0860415
S315080023F0F2E76FF08504EFE70200800047F201017B
S3150800240002888A4210D1104923F4FF7222F0010291
S315080024108A4215D00D4A23F0FF03934214BF6FF08A
S3150800242086006FF08500704702F44F42B2F5824F7E
S3150800243006D123F4FF7323F00103B3F1062FEDE76A
S315080024406FF08500704700BF000200060013000603
S315080024502DE9F04117461C461F4A23F4FF7323F063
S315080024600103934205460E4698B00ED01B4B24F046
S31508002470FF029A4209D01A4924F47F7323F0030312
S315080024808B4202D0174B9A4222D1DDE91E1207ABC6
S315080024900193402314F0FF000DF1200818BF40F007
S315080024A00070009343460AF0B2F970B9229B3A4687
S315080024B00493219B31460393209B28460293079B4E
S315080024C0CDE9008323460AF020FC18B0BDE8F08168
S315080024D06FF08500F9E700BF00020006001300064A
S315080024E0000400060009000644F20101028822F4ED
S315080024F04050884210D1104923F4FF7222F001029D
S315080025008A4215D00D4A23F0FF03934214BF6FF099
S3150800251086006FF08500704702F44F42B2F5824F8D
S3150800252006D123F4FF7323F00103B3F1062FEDE779
S315080025306FF08500704700BF000200060013000612
S31508002540002307B51A46009102490AF017FD03B0A1
S315080025505DF804FB8446010870B51C4E1C4C3368B4
S315080025601C4898472378580744BF23F00403237070
S315080025702378990705D500F041FA237823F002035A
S315080025802370154D13482B689847336813489847A6
S3150800259063781BB10023124A636053600023082145
S315080025A00F486370FFF70AFB2B680C489847336897
S315080025B00848984723780748DA0744BF23F00103F9
S315080025C023702B68BDE87040184700BF80210020A3
S315080025D0281000208C1100207C21002028110020C2
S315080025E02C1000202DE9F041FFF7F4FA18B1002469
S315080025F02046BDE8F081344F34483B689847044686
S3150800260020B16FF08F04FFF7A7FFF1E7304D2B7865
S31508002610D80706D40CF099FC04462B7843F001033E
S315080026202B702C4E29483368984710B1002CE8D0F7
S31508002630E9E7002CE7D13B68244898470446002878
S31508002640DFD12B78990706D400F0D0F904462B7809
S3150800265043F002032B7033681C4898470028E5D1DD
S31508002660002CD0D13B68194898470028C9D133684F
S31508002670164895F8008098470028C2D13B68164846
S3150800268098470028BDD16B783BB918F0010F04D0E4
S31508002690124B6C605C6002236B7033680E48984777
S315080026A00028AED13B68094898470028A9D12B785D
S315080026B006485A075CBF43F004032B7033689847F3
S315080026C0002894D09DE700BF802100208C110020AF
S315080026D0281000207C210020281100202C10002022
S315080026E02DE9F74300F4E040B0F5804F0D46164655
S315080026F01F46DDF828902CD101F16808404609F0FC
S3150800270041FE88B94B46002241462846CDE9006776
S31508002710FEF756FB0AF098F80446B0B13A4600218F
S3150800272030460EF0B0FE10E0002301930D4B4146F3
S31508002730009305F1600205F11C03284609F02BFEFB
S315080027400AF082F804460028DCD0204603B0BDE82B
S31508002750F08349462846FEF795FE03B0BDE8F043E8
S315080027600AF072B8DBD80008F0B51D46038817468C
S3150800277003F44F42B2F5824F18BF00230E46A1B0AC
S315080027804188D8B20BF09FF80446F8B1684609F0BC
S315080027907DFD21466846FEF79BFE044670B9034652
S315080027A00C4A684618A9FEF725FE044630B93B468A
S315080027B0324629466846FEF765FE0446684609F02D
S315080027C0A7FD20460AF040F821B0F0BD6FF085005D
S315080027D0FAE700BFDBD800080368114A10B5934230
S315080027E0044609D8023A934215D88BB1023A934265
S315080027F00BD06FF088000DE003F17E430A3B012BF6
S31508002800F7D808300BF021F902E008300CF039FB54
S315080028100020206010BD08300CF02FFBF8E700BF41
S315080028200900000210B503680F4CA34208D8023C01
S31508002830A34215D8023CA3420BD06FF0880010BD06
S3150800284003F17E430A3B012BF7D808300BF002F957
S3150800285002E0083004F09CF9BDE8104009F0F4BF26
S31508002860083004F06FF9F7E7090000022DE9F04196
S3150800287014461D460378344A43F0007393420746CC
S3150800288088462C6037D003F17E43043B0F2B09D8CA
S31508002890DFE803F01C1C08312125292D212508080D
S315080028A02125292D24B12246212140460EF0EBFD93
S315080028B000263B68254A93422AD8023A93423DD8D5
S315080028C0023A93422FD06FF0880002E0F4B96FF015
S315080028D08900BDE8F081002CF9D01C260EE0002CFA
S315080028E0F5D020260AE0002CF1D0302606E0002C90
S315080028F0EDD0402602E0002CE9D010262246212100
S3150800290040460EF0C0FDB442D3D2E0E71426F5E700
S3150800291003F17E430A3B012BD5D8414607F108004F
S315080029200BF0E9F804E0414607F1080004F03AF92B
S3150800293009F08AFF0028CCD12E60CAE7414607F184
S31508002940080004F009F9F3E7030000020900000291
S3150800295038B5074C074B20461B689847064B204658
S3150800296093F8F050054B1B689847284638BD00BFBA
S315080029708C11002080210020341000207C210020AA
S3150800298000F14043052B70B505460E460CD82822A3
S31508002990154C02FB0344237E022B02D16369834252
S315080029A018D06FF08B001AE001210AF0DDFDB8B1EE
S315080029B00D4B00221C46197E022902D15969A942EB
S315080029C005D00132062A03F12803F4D1E9E72823C2
S315080029D003FB024420460AF0BAFD00B9346070BD14
S315080029E06FF08700FBE700BF341000200122024B7E
S315080029F0002083F8F0207047341000202DE9F041BC
S31508002A000A4C002526464FF0010803272046C4F83D
S31508002A101C80277601350AF0C4F8062D04F128042F
S31508002A20F4D1002386F8F030BDE8F0813410002098
S31508002A30F8B506460F46FFF78BFF88B300241B4BF5
S31508002A4022461D46197ED1B13CB9022905D1D9695C
S31508002A5019B91979002918BF1C460132062A03F14B
S31508002A602803EFD114B96FF08C0006E020460AF06F
S31508002A706EFD20460AF095F810B100240EE01C46BB
S31508002A80237E83B9012323763EB1651BED1003F13E
S31508002A90CC335D4305F18045356000203C60F8BDC8
S31508002AA06FF08800E9E76FF09600E6E7341000203B
S31508002AB000232DE9F3410B6080460D46FFF748FFDA
S31508002AC0002867D0354B36481B689847074628B113
S31508002AD06FF08F04204602B0BDE8F08129464046D3
S31508002AE0FFF74EFF10F18C0F04462E4E07D03368C1
S31508002AF02B4898470028EDD0002CEBD1E8E729466B
S31508002B003846FFF795FF044618B1336824489847B6
S31508002B10E0E701232F68CDE9000069463846C7F883
S31508002B2014807B6001AA0AF0DEFD044670B1DDE977
S31508002B3000010AF0D6FD28680AF033F814F18C0F64
S31508002B4008BF6FF0870400232B60D0E7DDE9001289
S31508002B50384609F0C2FF0446DDE900010AF0C1FD66
S31508002B60002CE8D128688368D90444BF43F48063FD
S31508002B70836083689A0444BF43F400638360037EDA
S31508002B80012B04BF022303760AF0E1FC0446002861
S31508002B90ADD0D8E76FF088049CE700BF80210020FD
S31508002BA0F01100207C2100200B4B10B51B68044651
S31508002BB00A48984718B16FF08F04204610BD204682
S31508002BC00AF0E3FC064B04461B68044898470028AD
S31508002BD0F3D0002CF1D1EEE780210020F01100207F
S31508002BE07C21002037B5044630B1164B16481B68C1
S31508002BF0984720B16FF08F04204603B030BD2046B9
S31508002C0001A9FFF7BDFE114D044640B110F18C0F26
S31508002C102B680D4808BF6FF087049847ECE70198C2
S31508002C20C369012B0AD109F0BCFF04462B68064884
S31508002C3098470028E0D0002CDED1DBE70AF0A5FC97
S31508002C40F3E700BF80210020F01100207C2100203E
S31508002C5030B40D4D2C681C606C685C6000249C6068
S31508002C605468DC6014881C8254885C8294685C61B1
S31508002C70D4689C61126930BCDA6119620A46014659
S31508002C8003F124000EF0E3BA884601082DE9F8435B
S31508002C90232904460F4691469846089E04D86FF0A5
S31508002CA098052846BDE8F883082219490EF0C1FBA5
S31508002CB005460028F3D1A368002BF0D1216A243FEA
S31508002CC08F42C8F80010EAD3B1F5005FE7D271B9B0
S31508002CD0C9F80000E3687360238A3380638A7380C7
S31508002CE06369B360A369F360E3693361D9E70120D7
S31508002CF00CF040FEC9F8000030B1D8F8002004F105
S31508002D0024010EF0A4FAE5E76FF08C05C9E700BFC9
S31508002D108846010800F19903142B1AD8DFE803F056
S31508002D201717191919191917191919191319191B0F
S31508002D30150B0F0D110009487047094870470948D7
S31508002D407047094870470948704709487047094855
S31508002D5070470AF089BD0848704700BF00C3FFFFE7
S31508002D6080C6FFFF80C5FFFF00C1FFFF80C0FFFFD1
S31508002D7080C1FFFF00C2FFFF80C7FFFF02460B4668
S31508002D802DE9F04FADF5437D0D901032B2AD00F14F
S31508002D9050062C4610685168083203C4B2422546CC
S31508002DA0F7D1194610AB01F1800448680A6800BAE1
S31508002DB0083112BA43F8080F8C425A60F5D110252B
S31508002DC012A88446D0E91C47D0E90216E30CFA0C8F
S31508002DD04FEAC70E4FEAC4084EEA547E43EA473321
S31508002DE042EA443248EA5778A40982EA0E0244EADB
S31508002DF0876483EA0803634082EA9712DCE912478C
S31508002E00DCE900EC14EB0E0447EB0C071B1942EB4C
S31508002E1007024C084FEA112E77084FEA162C47EAA4
S31508002E20C1774CEA016C44EAC6744EEA066EC909D3
S31508002E3084EA0E0441EA4661614087EA0C075B189A
S31508002E4087EAD61405F1010542EB04020830502D35
S31508002E50C0E91E32B5D1BA9BBB980693BE9BDDF876
S31508002E60E4C20793BF9BDFF880E80893BC9BDDE9C3
S31508002E70C0AB0993BD9BDDE9B6890A93B29B019362
S31508002E80B39B0293B49B0393B59B0493B89B05939A
S31508002E900EAB069A940B950C44EA804745EA8035B2
S31508002EA0840B44EA82466F40840CD50544EA823492
S31508002EB045EA50256F406640DEF80050C40544EAEE
S31508002EC052246640D3E90424AD18DEF8042042EB08
S31508002ED004047D19079A46EB0404099E0A9F564086
S31508002EE0089A5740069A07401640079A5640089A85
S31508002EF0AD1987EA0207059A44EB070415EB0A059C
S31508002F004BEB0404AA18059244EB0C020B92019AA7
S31508002F10170F029A47EA0217160F019A46EA02168F
S31508002F20029A9107019A41EA92014FEA827C029A33
S31508002F304E404CEA920C87EA0C074FEA426C019A1B
S31508002F404CEAD21C5106029A86EA0C0641EAD211CC
S31508002F507940491944EB0606019A039C049D1443DB
S31508002F60029A039F1543019A04EA080402EA070C29
S31508002F70029A049F44EA0C04174005EA090511EB76
S31508002F80040A45EA070546EB050BDEE90216079A29
S31508002F90D3E90654491946EB04048918089A069D8C
S31508002FA042EB0404099A85EA02060A9A80EA0205AF
S31508002FB0059A16400B9A1540099A56400A9A891995
S31508002FC085EA0205059A44EB0504950B0B9A45EA32
S31508002FD08245970B059A47EA82474FEA924C0B9A25
S31508002FE04CEA823C960C059A85EA0C0546EA823636
S31508002FF00B9A7740D605059A46EA52264FEAC25CEE
S315080030000B9A7E404CEA522C85EA0C054D1944EB86
S3150800301006064FEA8B714FEA1B7415EB080241EA64
S315080030209A014FEA1A7744EA0A144FEA8A7C4CEA6C
S315080030309B0C079247EA0B1746EB09024C404FEAEE
S315080030404A6187EA0C07089241EADB11019A79403E
S315080030504FEA4B6C4D194CEADA1C4AEA0201029A0D
S3150800306084EA0C0446EB04044BEA0206039A114070
S31508003070049A1640019A0AEA020C029A41EA0C01DD
S315080030800BEA020715EB010846EA070644EB0609B0
S31508003090D3E90856DEE90414099A491944EB0604EB
S315080030A089180A9A42EB0404DDE9052585EA020631
S315080030B00B9A80EA0205079A1640089A1540069A5E
S315080030C045405640079A891944EB0504950B089A1A
S315080030D045EA8245970B079A47EA82474FEA924C98
S315080030E0089A4CEA823C960C079A85EA0C0546EA49
S315080030F08236089A7740D605079A46EA52264FEA54
S31508003100C25C089A7E404CEA522C85EA0C05039A62
S315080031104D1944EB06064FEA897152194FEA19749C
S3150800312041EA980109924FEA1877049A44EA081482
S315080031304FEA887C4CEA990C47EA091784EA0104A5
S315080031404FEA486142EB060287EA0C0741EAD911C1
S3150800315079400A924FEA496C019A4D194CEAD81CF3
S315080031604AEA080184EA0C0401EA0201029A46EBDB
S3150800317004040AEA080C4BEA09060BEA090741EABD
S315080031800C0116403E436A18039244EB0602049269
S31508003190069ADEE90616D3E90A54491946EB0404E9
S315080031A0891840EB0404059A079850400B9A089D25
S315080031B0099F6A40099D28400A9D2A40059D684046
S315080031C00B9D091882EA050244EB0204099A0A983B
S315080031D0920B42EA8042850B099845EA8045860C9F
S315080031E00A9846EA8036800C40EA873045400A98B5
S315080031F07240C00540EA5720FE050A9F684046EA25
S31508003200572672408A18019944EB000089180691DE
S315080032100299039E41EB00010C910399049F0D0F3F
S31508003220049945EA01150C0F039944EA0114049917
S31508003230890741EA9601B60746EA97064C4003997C
S3150800324075407E0646EAD116490641EAD711694015
S315080032508A180399039D84EA060448EA010140EBAB
S31508003260040408EA050649EA070001EA0A0109EA28
S315080032700705314300EA0B00521840EA050001929F
S3150800328044EB00020292D3E90C01DEE90824121885
S31508003290059844EB010112180B98099C40EB0101B3
S315080032A007980A9D44400898069F6840069D2C404A
S315080032B00C9D2840079D6C40089D121980EA050060
S315080032C041EB00010698850B0C9845EA8045840B6E
S315080032D0069844EA8044860C0C9846EA8036800CA8
S315080032E040EA873044400C987540C60546EA57269A
S315080032F0F8050C9F744040EA572068401018019A58
S3150800330041EB04040299120F42EA01124FEA117CBA
S315080033100199019D4CEA011C0299029E890741EA1E
S315080033209501AD0745EA96058CEA010C01996A40B4
S31508003330750645EAD115490641EAD6111AEB000A7F
S3150800334081EA02014BEB040B039A091801988CEAEF
S31508003350050C44EB0C0C019D42EA00040398049A00
S315080033602840049D04EA08043243354002EA09026B
S315080033702043091842EA05024CEB020C0591DEE9E6
S315080033800A25D3E90E401219079C45EB00001219CD
S31508003390089C069D44EB0000099C099E65400A9C12
S315080033A005EA0A0575407C400A9E04EA0B04744047
S315080033B0521940EB04004FEA9B454FEA9B3445EA15
S315080033C08A354FEA9A3644EA8A444FEA9A4747EAE0
S315080033D08B376C4046EA8B464FEACA557E4045EA2B
S315080033E05B254FEACB57754047EA5A27521984EAB4
S315080033F0070440EB040018EB0204079449EB0004A9
S3150800340008944FEA1C754FEA8C7444EA91040E0F2F
S3150800341045EA01158F0747EA9C07654046EA0C16F8
S315080034204C067E4044EADC144FEA4C6747EAD1175B
S315080034307440A21885EA070540EB05050198039C28
S3150800344040EA010602982640049C40EA0C00204007
S31508003450019C029F0C40344307EA0C0712EB040850
S3150800346040EA070045EB0009D3E91045DEE90C20E0
S315080034701219099C40EB050012190A9C079E44EB99
S315080034800000069C84EA0A050C9C3540089E84EADE
S315080034900B043440069E75400C9E521984EA0604B5
S315080034A040EB0400079C089DA40B44EA8544AE0B38
S315080034B0079D46EA8546AF0C089D079947EA853772
S315080034C0AD0C45EA813508996E40CD0507997C40D3
S315080034D045EA5125CF050899754047EA51277C40AA
S315080034E01419039A40EB050512190992049A4FEA32
S315080034F0197042EB05020A924FEA897242EA98026B
S315080035004FEA187640EA08104FEA887747EA99079B
S31508003510504046EA09164FEA48627E4042EAD91206
S3150800352072401419059A019942EA080606EA010644
S3150800353002994FEA49674CEA090247EAD81702EAAC
S315080035400102059980EA070045EB000001EA080533
S3150800355035430CEA0907611942EA070240EB020201
S31508003560D3E912450492DEE90E201419069A40EBB7
S315080035700505A4180C9A039142EB0505079A0999C3
S315080035808AEA0200089A08400A998BEA02020A4067
S3150800359080EA0A00241882EA0B0245EB0205099A1A
S315080035A04033960B46EA81468A0B09990EF1400E7E
S315080035B042EA81428F0C0A9947EA8137880C0999B1
S315080035C07E4040EA81300A994240CF05099947EA88
S315080035D05127C8050A997A4040EA512070402418B4
S315080035E045EB0205039A0499120F42EA0112080FE5
S315080035F0039940EA011004998E07039946EA910651
S315080036008F070499704047EA91074E0603997A4056
S3150800361046EAD1164F060499704047EAD11703992E
S315080036207A4048EA0107049949EA0106059906EA33
S315080036300C0639400691039908EA0107049909EA34
S3150800364001010B9106990F430B99D719019A46EA7E
S31508003650010640EB060612190692029A42EB05008D
S31508003660E219019245EB06020292AEAA9A427FF44B
S3150800367010AC059BCDE9C0ABCDE9B83C079BCDE9BD
S31508003680B689BE93089BCDE91076BF93099BCDE911
S315080036900E45BC930A9BB0ACBD93039BB493049BA5
S315080036A0B593069BCDE9BA30019BB293029BB393BF
S315080036B00D9B03F10802483352F8081F54F8085FB7
S315080036C050686668491940EB06009A42C2E900103C
S315080036D0F2D10EA84FF43471FEF770FA00200DF5FA
S315080036E0437DBDE8F08F00BFB046010870B5094DAF
S315080036F00446286008480160084909480A60094ADA
S315080037001360A0472B68084898472B680748BDE808
S31508003710704018478821002084210020802100203D
S31508003720F01100207C2100208C1100202811002097
S315080037302DE9F04FCBB0029008460C4605250DF052
S315080037400FFE0023CDE9075309930593029B27181B
S315080037501E68002E40F0F2802546B2464FF0010B57
S31508003760DFF83C92BD4206D90998002837D1484669
S315080037704BB0BDE8F08F2B78BBF1000F00F0F98055
S315080037803D2B40F0D980DFF81CA22A1BDAF800602E
S315080037903EB9214607A808F031FE002800F0E78068
S315080037A0F6E0DAF804309A4208D121463046039208
S315080037B00DF061FD039A002800F0C6800AF1100A90
S315080037C0E4E72378232B7AD100232A1B02F1FF3B57
S315080037D01BF00108069305D0DFF8C491099810F08C
S315080037E092F9C4E7033AB2F5027F4FEA5B0BF3D2CC
S315080037F0594601200CF0BEF8814600285CD0BBF182
S31508003800000F0ED14B4613F8014B05AA09EB0B0125
S3150800381006A8069307F095F890B1484610F073F994
S31508003820DAE7013420460AF0FFF90028F5DB09F843
S31508003830080008F10108C34504F10204F2D1E1E7E2
S31508003840059AB2F5807FE8D81F2C069907D8524BFF
S31508003850E340D80703D50B465018984226D10AA844
S315080038600DF0F5FC484610F04EF9DDE90821059BF8
S31508003870029800930AAB07F0FDF98146099810F003
S3150800388042F900230993B9F1000F5AD02B46C9F81B
S315080038900C401D460133AF421C4602D06A78202AE6
S315080038A0F7D04FF0010B4FF0000945E013F801CBB4
S315080038B0BCF1000FD1D1B0E7DFF8EC908EE7BAF192
S315080038C0000F62D10DF12808C346A54204D8A8EB1B
S315080038D00B03F4680593C8E721785C2926D1A21C56
S315080038E0954204F10109039213D948460AF09CF956
S315080038F0431C0ED0002848D0039A08F1010CC1B227
S31508003900ACEB0B0CBCF5807F08F8011B3DD0541CB2
S31508003910DBE74D4539D96178204803910DF05FFB07
S3150800392098B34A46039908F1010CE9E7224608F1DB
S31508003930010CE5E74FF0000B013513E7DFF86C9053
S3150800394015E7DFF8649012E70390DAF808000DF03F
S3150800395007FD0146089001200CF00CF8089ADAF8E1
S31508003960081009900DF073FC039B56469B46DA46F1
S315080039706C1C2B782C2B03D115F8013C5C2B01D140
S31508003980BD42D7D1A5427FF41CAF099810F0BBF809
S31508003990DFF80C90EBE600BF0010585030490108DC
S315080039A080DCFFFF5449010880D7FFFF00D8FFFFDE
S315080039B02DE9F04F0746A1B00D4601204B211446CC
S315080039C009930BF0D7FF8046002800F01F810023DB
S315080039D00B933B7A29460893FA682B190CA8079388
S315080039E00C930AF0E3F9041EC0F2F58000F0FA80A1
S315080039F0224629460CA807F055F8A146041EC0F22F
S31508003A00EA80302229460DEB020007F06FF8061E01
S31508003A10C0F2F380A1444E44324629460CA807F06A
S31508003A2041F8041EC0F2D780312229460CA807F0B7
S31508003A305DF8B0F10009C0F2DC8009232946744A12
S31508003A400CA807F0BAF80028C0F2D58026444E44E0
S31508003A5000EB06094A4629460CA807F023F8041E77
S31508003A60C0F2B980302229460DEB020007F03EF875
S31508003A70061EC0F2C280A1444E44324629460CA80E
S31508003A8007F010F8B0F1000AC0F2B180A02229466A
S31508003A900CA807F02BF8B0F10009C0F2AA800C9A1E
S31508003AA029463868521B08F013FE041EC0F293809C
S31508003AB00C9B29461B1B7A680CA80C930AF0C6F8BF
S31508003AC0A346041EC0F28780002229460CA807F0E8
S31508003AD0BCF80028C0F28F8056444E445E44264403
S31508003AE000EB06094A4629460CA806F0DBFF041E29
S31508003AF071DB302229460DEB020006F0F7FF061EA1
S31508003B007BDB0FAB019340230898A1444E440093F6
S31508003B1032466B440C9940F0007009F0E3F803460E
S31508003B2000286CD12A9A0492099A03920EAA029244
S31508003B304B22CDE9008210AA397A386808F00CFDC4
S31508003B400446002847D10121386808F0FCFC002803
S31508003B504AD10421386808F0F6FC002852D04FF004
S31508003B6004094846397A0BAB0AAAFDF723FD044631
S31508003B7088BB32460C9928460DF06BFC079BCDF89E
S31508003B8008900D930E9BA919CDE90083DDE90A2358
S31508003B900DA80AF0C1F8041E1DDB0D983246801BDD
S31508003BA0294626440D900DF054FC324629460DA8A8
S31508003BB006F078FF041E0EDB302229460DA806F013
S31508003BC095FF071E20DB0D9A00212846521B0DF093
S31508003BD05AFC34443C4440460FF095FF204621B039
S31508003BE0BDE8F08F264648E74FF00109B9E7544685
S31508003BF0F1E74C46EFE70446EDE73446EBE76FF0AE
S31508003C006F04E8E7034CE6E73C46E4E7024CE5E7E1
S31508003C10244B010800DDFFFF80D7FFFF70B50026A3
S31508003C2086B005960A9E0C4600961546FFF7C0FE16
S31508003C3000280ADB2A1A05ABCDE9015304490346D5
S31508003C40009404482244FDF7F3FC06B070BD00BF9B
S31508003C502E4B0108514B0108BFF34F8F0549064B00
S31508003C60CA6802F4E0621343CB60BFF34F8F00BF0C
S31508003C70FDE700BF00ED00E00400FA050348044A2A
S31508003C800449121A92100AF036B900BF70010008EA
S31508003C901C030008C01F002008B5154B83F30A88CB
S31508003CA000F030F8FFF7EAFF124B13498B4212D3A4
S31508003CB00020124B12498B4218D3FCF715FC1868E2
S31508003CC050F82240586840F82240013298688242EB
S31508003CD0F5D30C33EAE70022F8E71C6844F822001B
S31508003CE001325C68A242F8D30833E4E70022F8E719
S31508003CF000000020705401087C5401087C54010817
S31508003D007C5401084FF48041124B134A70B59A60EF
S31508003D10D3F88820114D42F47002C3F88820104A5F
S31508003D2005F5005491664FF0FF3222660D4A626629
S31508003D300222C3F8D020BFF34F8FBFF36F8F4FF423
S31508003D404036002003F0D8FC0020E66003F0C6FCED
S31508003D502E6170BD00ED00E0000000080080004400
S31508003D6000900050F7FF37002DE9F04F144605463E
S31508003D700E469B46C36B87B001225B6902A9606841
S31508003D809847EB6B01225B6903A93046984702A85E
S31508003D900AF01CFD074648B10023A37563754FF06A
S31508003DA0FF33A360002007B0BDE8F08F03A80AF030
S31508003DB01AFD0123A375237E04EBC303DE611F846A
S31508003DC06368B3420ED1206003A80AF02EFD4FF0B7
S31508003DD0FF332075A360237D043B022B26D80023DE
S31508003DE0A375DFE723681A1A53425341A37503A83C
S31508003DF00AF01BFD237D834218BFA77503A80AF0A6
S31508003E00F6FC074602A80AF0F2FC874218BF002310
S31508003E1003A818BFA3750AF0F2FC074602A80AF021
S31508003E20EEFC87421CBF0023A375D4E703A80AF05B
S31508003E30DEFC80B1EB6B022230465B6904A9984729
S31508003E4004A80AF0E3FC0346207D032839D8DFE8F6
S31508003E5000F03838040903A8F3E7CC22237E04EBE4
S31508003E60C3031A8401F0A0FA109B187003A8277ED2
S31508003E700AF0B1FC04EBC70787F82200237E03A8E3
S31508003E8004EBC303B3F8209093F822700AF0AFFC52
S31508003E90804603A80AF0B3FC8246B8F1000F15D095
S31508003EA0EB6B022230465B6904A9984704A80AF01E
S31508003EB072FC6075637D6BB90023A3754FF000082B
S31508003EC038E0227E04EBC2021384CBE703A80AF08B
S31508003ED04DFCEEE794F81680B8F1000FEED0B9F174
S31508003EE0000F09D1DFB10123E375637E002B4FD1A3
S31508003EF0012F42D1677614E06B6C06EB0A02594231
S31508003F0086EA020008421CBF0021A175591E0A4014
S31508003F109B1A9945D0D8A37D002BE3D1CEE7E37D44
S31508003F2043B94FF000084B465246314628460AF038
S31508003F308FF9A060A27D12B123694B4423611A4907
S31508003F40237E097899422AD901332376BBF1000FDB
S31508003F5027D032B3E37D23B3B8F1000F21D1032F65
S31508003F601FD0A1684B1C1CD0109B224600932846E4
S31508003F700123FFF7F9FEA07513E095F8343063B90D
S31508003F80EB6A0133CFD1032FCDD10123A376C8E73E
S31508003F90012FCFD0032FC4D1F7E79846C3E70023F4
S31508003FA0A375A07DFFE600BF984B01082DE9F04FE9
S31508003FB00E46984600238BB004464FF0FF31104654
S31508003FC017468DF8133001F0D9F9B6F5801F3BD3A3
S31508003FD0B21C53D1E56A6B1C57D12046616A0AF0B8
S31508003FE07DF80546B31C18BF0123DFF8109101932D
S31508003FF0636A626C0293236805A902FB053AE36BC0
S3150800400005225B695046984705A80AF07AFC0AF02B
S315080040109DFC50460AF0A5FC4FF0000B824601466F
S315080040204B1C05D0636C81EA0A025B42134232D00C
S31508004030294620460AF052F8029BAB424DD0BBF106
S31508004040000F4DD10546D3E7314605AA04F108000D
S315080040500AF00EFB0146481C10D0384601F08EF9CE
S315080040600122394620460DF113030AF043F928B117
S315080040709DF8133088F80030002003E0237C002BDD
S31508004080A8D12D200BB0BDE8F08F2368ED1A636C1C
S31508004090B5FBF3F5A6E7484601F070F90DF11303F1
S315080040A049462046019A0AF025F9034690B1B21C02
S315080040B003D0D9F80020B2420CD19DF813200393FF
S315080040C00D4B88F8002049461A6838460DF0BFF8A7
S315080040D0039B9B46D9F80810A2E7BBF1000FD0D086
S315080040E0B6F5801FC8D2314698F800307A6804F1D0
S315080040F0080001F089F8BFE7944B010888120020F0
S315080041002DE9F3410446174698460E46194D816A2D
S31508004110E36A8B422AD04B1C18E0284601F02EF998
S315080041200122294620460DF107030AF0E3F830B1CB
S315080041304346294620469DF80720B847B0B1A968E6
S315080041404A1C05D0012E0AD0E36A9942E5D10DE052
S31508004150696820460AF04FF8012E0146D8D16B68E7
S3150800416081EA0302636C5B421A42D1D002B0BDE811
S31508004170F08100BF5C1200202DE9F0474FF0FF33B5
S315080041804FF6FF720025044600F10806C0E9092328
S315080041908AB0C3620562056330460F460AF039FAEB
S315080041A0204609F01BFF28BB2046394609F0E6FFE2
S315080041B0204609F013FF28BB5E200AB0BDE8F08749
S315080041C0E26B2368606CD2F814C000FB0530052248
S315080041D005A9E04705A80AF094FB012840F083806A
S315080041E02946204609F09BFF421C2946204609F02D
S315080041F014FF0135E3699D42E2D3204609F0EEFE3D
S315080042000028D1D0204609F019FF4FF6FF72636ADD
S31508004210934200F0B080E26B676C2068694607FB42
S31508004220030055690522A84768460AF041FB626AF9
S315080042302368606C514D00FB02300AF092FB4FF088
S31508004240FF33A062E3622A466FF00101204605AB00
S31508004250FFF7ACFE002850D1AD6829462046E56236
S3150800426009F098FE206320B92046E16A09F0C3FFE9
S31508004270E0622946204609F0BEFF0546A36A9D422C
S315080042803DD1204609F044FE00278046B946E36939
S31508004290994546D3B84563D92046616A09F01EFF99
S315080042A00026054604F1400ABE4212D3626C236812
S315080042B0694602FB0539E36B05225B694846984760
S315080042C068460AF0F5FA534602464946E06B0AF094
S315080042D04AFB2946204609F001FF0136B045054646
S315080042E0E2D1642069E70AF036FB002881D0294626
S315080042F0204609F014FF024677E7A56AADE7294686
S31508004300204609F047FE236B2946034407462363E4
S31508004310204609F070FF0546002FAFD1C4E90B0708
S31508004320ACE7636C2568052203FB0955E36B05A911
S315080043305B692846984705A80AF0E3FA0AF006FBDF
S3150800434058B128460AF00DFB0146204609F022FE20
S31508004350636C143B984208BF013709F1010996E7D7
S3150800436030460AF056F9002320461946044AFFF754
S31508004370C7FE002021E767201FE700BFB412002010
S31508004380E3E200082DE9F041036B9046826B07686B
S315080043909A4288BF8363426C436A90B002FB0377F4
S315080043A0C36B0E46052201A95B6904463846984741
S315080043B001A80AF0A6FA01280146307057D0656CA4
S315080043C0E26B2368606AD2F814C005FB0030052248
S315080043D006A9E04706A80AF094FA01284FF0000556
S315080043E023D0D4E90A3201219342CDE90B458DF851
S315080043F034800E958DF83C102AD11946204609F0CE
S31508004400FAFE236B626C14339B1AE06223630C9BDF
S3150800441053B99DF83C303BB1626A616C2368E06B26
S3150800442001FB02310AF025FA0C9DE36B05225B6954
S3150800443001A93846984701A80AF063FA3070284659
S31508004440236BA26B9A4288BFA36310B0BDE8F081C4
S31508004450237C33B91C490BAA04F1080000F022FF9B
S31508004460D5E72046194A0BABFFF74AFECFE7237C70
S3150800447023BB2246164904F1080000F013FF616ABF
S31508004480204609F04CFE616A421C204609F0C5FD2B
S31508004490054620B9236B626C1344143B23632046FC
S315080044A0A16A09F0A8FE2368A062C01A636CB0FB73
S315080044B0F3F06062204609F0E1FEB6E700232046E5
S315080044C0044AFFF71DFEDAE71D4C0008994B000861
S315080044D07DE3000819E3000873B50D46D11E4A426C
S315080044E01C461B7E4A419A4226D12968236899426E
S315080044F022D3636899421FD8114E0DF1070332463D
S31508004500FFF754FDC0B972686B689A4214D19DF8DA
S315080045100730DA1E53425341227E93420CD1636917
S3150800452001336361D4E90323934205D22968A2685B
S3150800453042F8231001332361012002B070BD00BF89
S31508004540B41200202DE9F04F9A468BB09DF85030F2
S31508004550DFF850B10293DBF81030804653450D461C
S315080045601646C0F09980D146DBF804300193B9F1BC
S31508004570000F00F08D80D8F83C3001225B6907A94E
S315080045800198984707A80AF02EF9DBF800309842F8
S3150800459040F0858007A80AF032F90428074614D1A6
S315080045A007A80AF033F9019B029A04463B44002AFD
S315080045B03FD1864212D91446361A4046019909F067
S315080045C01AFEA9EB04090190D1E7D8F83C3002227B
S315080045D05B69019808A9984708A8E2E7841B54452F
S315080045E028BF5446032C03EB0607AAEB040A4FEA36
S315080045F094021CD9D8F83C30294638465B69984756
S3150800460024F0030304F003061F441D44002ED4D0EF
S31508004610D8F83C3001225B6908A9384698473246E3
S31508004620284608A935440CF012FE0026C5E726469A
S31508004630ECE7074600F00302039203442A180492A3
S315080046400593049BDD1B059BD81B039B9F420FD13B
S31508004650002FB2D0D8F83C30012208A95B699847E8
S315080046603A46284608A90CF0E4FE78B93D44A4E782
S31508004670D8F83C30012208A95B69984704222846E5
S3150800468008A90CF0D6FE08B9043FDAE74FF0360958
S3150800469048460BB0BDE8F08F4FF06309F8E74FF0D6
S315080046A06F09F5E7E01200202DE9F0410F4616469E
S315080046B09846044688B060B390F83450FDB101219D
S315080046C009F081FC00210E9BCDE90511CDE90237E1
S315080046D09DF83C30CDF804808DF81C30237C049678
S315080046E08BB90D4901AA04F1080000F0DBFDDDE9EC
S315080046F00553E06B002E08BF1D4609F04DFE2846FF
S3150800470008B0BDE8F0812046044A01ABFFF7F8FC83
S31508004710EDE70546F3E700BF47E30008D94400087C
S315080047202DE9F04F99B00F4609920A69416C0E932C
S315080047301439D31DB3FBF1F3013302EBC302036B48
S3150800474004469342C0F0BC810023DFF844940D93DD
S31508004750E36A48461946079300F010FED7E9033680
S3150800476004930E9B022B4ED1CC2E40F08A81099BD6
S31508004770002B42D03946204609F06CFE656C079A34
S315080047806B1E13401490ED1AE36B01225B6916A9A0
S315080047907868984716A80AF02AF800280CBF042358
S315080047A00823782E06933DD9012300254FF0080AE1
S315080047B005933B6805990E98C9F80030C9F810604A
S315080047C00AF037F84FEA9A0310930023DDF81CB075
S315080047D089F814000B930F9308930C93616C4A1E87
S315080047E00BEA02028B1A002E38D05544AB4240D849
S315080047F0236B5B1A13442363ABE0049B1B68149377
S3150800480008230693D0E7656C079A6B1E1340782E2B
S31508004810A5EB030516D8FB7D7BB9099B002BB3D105
S3150800482004230693331DAB4210D9A6B1082DBBD875
S3150800483004250023AA460593BBE7099B002BA3D1B1
S315080048400823EEE7099B002B9ED1D9E7002505959D
S315080048504FF0040AADE704250596F9E75345C7D393
S31508004860B0460BEB0A030393089B002B18BF0323E0
S3150800487013E0A3EB0A039E42B0460BEB0A0228BFDD
S3150800488098469E420392EFD90123D9F8102089F859
S315080048901730964271D1C9F804B0089399F81730C1
S315080048A0002B6CD099F818200899D31C09EBC30380
S315080048B00132C3F804B0A3F80880997289F8182061
S315080048C0B8F1000F14D00E9B022B5BD10B9B7BB962
S315080048D00F9B4344032B0BD9E36B01229B69039877
S315080048E014A998470546002840F0EC8001230B934D
S315080048F0089B16A80193059B009399F81420434634
S31508004900396800F0F1FCE36B58469B69109A16A9C2
S315080049109847051E0D9B18BF5B4652460D93594690
S315080049204346204609F094FC236B08F10302A3EBE7
S315080049300A0322F003029B1AC9F808002363002D14
S3150800494040F0C0800F9BDDF80CB04344A6EB080688
S315080049500F935946204609F04EFC00258346002E43
S315080049607FF43CAF8A4A3968936804F10800E36229
S3150800497052680E9B00F048FC84E002238DE7C9F8D4
S3150800498004B09DE7099B002B30D1049BB8F1030FB7
S3150800499043440A9327D9DDE90301E36B4FEA9802FA
S315080049A09B6998470546002865D118F003025FD031
S315080049B0049B28F003052B440493039B1D444FF0E6
S315080049C0FF33049915A815930CF041FCE36B2846B0
S315080049D09B69012215A9984705460A9B0493002D51
S315080049E086D0039B99E74246039DE8E7039B0A9313
S315080049F007F120031193FB7D78689BB100233D7E68
S31508004A000C9AD9B28D4211D9119903F1010C31F8DA
S31508004A103310914226D9069907EBC303D8690A448D
S31508004A20104403E00C9B069A13441844E36B0122D6
S31508004A305B6915A99847159B012213930C9B0A9845
S31508004A4004330C93E36B13A99B699847039B0A9A53
S31508004A5043449B1A042B054607D978B913460433F1
S31508004A600A93C8E76346521ACBE70A9B0393B6E74D
S31508004A700A9B04933CE70A9B0493B2E70A9B0393B9
S31508004A80AFE77026304619B0BDE8F08F002657E02C
S31508004A9004F1080009F0BDFD3346314620463D4A7B
S31508004AA0FFF72EFB3A69616CD31D1439B3FBF1F39A
S31508004AB0013302EBC302236B9342BFF449AE65E0B0
S31508004AC01C26DFE73D2D61D104F108030393236813
S31508004AD0079A606CD61AB6FBF0F600FB063009F0AA
S31508004AE040FFE16A8246204609F085FBA26A8242B7
S31508004AF0D8D0626CD9F80830511E0B40216BE062A1
S31508004B00891A0B4423630D992368CB1AB3FBF2F871
S31508004B104645BBD1079BB3EB0A0611D0E36BB20837
S31508004B2051469B6998478346E36A079A3344E3628A
S31508004B30236B03989B1A5344236309F06AFD5E4668
S31508004B402368616CE06B01FB083109F07FFE2046A3
S31508004B5009F044FA204609F071FA626A2368606C23
S31508004B6000FB023009F0FDFEA062204609F086FB34
S31508004B702063002E8CD03A69616CD31D1439B3FBBF
S31508004B80F1F3013302EBC3029042A0D22E4679E735
S31508004B9088120020E3E20008032A2DE9F3410646BD
S31508004BA00D4617461C4606D1237A012B23D0012031
S31508004BB002B0BDE8F081DFF86080096842460DF171
S31508004BC00703FFF7F3F960600028EDD19DF8072089
S31508004BD0237A032AE8D0D8F804106A689142E3D108
S31508004BE0012B2969D4F80CC007D172690CEB0103B3
S31508004BF0934202D92074207CDAE708316144E160E7
S31508004C003B46012229463046FFF78AFD60600028A8
S31508004C10CAD00020CCE700BFB41200202DE9F3412A
S31508004C20089C032A1746266806D1237A012B24D026
S31508004C30012002B0BDE8F081DFF890803046424698
S31508004C400DF10703FFF7B2F960600028EDD125687A
S31508004C50D8F80400A96AD5F844C04840CCF1000346
S31508004C601840227AE1D1012A09D1E268D8F8103031
S31508004C7013447269934202D92074207CD9E72868C4
S31508004C80EB6A1B1A081AB3FBFCF3B0FBFCF0834271
S31508004C900BD1706CF36A421E1340326B121A13441E
S31508004CA02846336309F0A7FAE862D8F81020E368C3
S31508004CB008321344E36001223B4604492068FFF7A3
S31508004CC02FFD60600028B0D00020B2E7B4120020A3
S31508004CD02DE9F0410025634B0E46D3F800800446C3
S31508004CE01D6018B921252846BDE8F08190F8347072
S31508004CF007B30A6803689A4240F0AA804A6843687C
S31508004D009A4240F0A5808A6883689A4240F0A0805B
S31508004D10CA68C3689A4240F09B800A6943699A4206
S31508004D2040F096808A69C36B9A4240F091804B693D
S31508004D308361D8E768223946856B0CF0A4FBD6E96F
S31508004D400212336804F1080023607368A563636080
S31508004D50336963617369A36109F06DFCB36904F192
S31508004D604000E3639B68984720B9676C17B163688E
S31508004D70B3FBF7F794F84330E761002BB2D0002372
S31508004D80656C2366002D6BD0002F69D02368B3FBB2
S31508004D90F5F205FB1233002B5CD16768B7FBF5F615
S31508004DA005FB1676002E55D1204609F0E3F8A369CF
S31508004DB0043303449F424FD340F634726369CC3BB5
S31508004DC093424BD8B5F5805F4AD30321204609F0B4
S31508004DD0FAF8D4E90001E36B1B6898470546E36BCC
S31508004DE00220DB6898472DB184F83460E06B09F03F
S31508004DF0D3FA78E741462046FFF7BEF96428054608
S31508004E0004D141462046FFF7B7F90546636C143BC3
S31508004E10D5B9226A204602FB03F609F0ABF8A36966
S31508004E20043303449E4203D284F834505A25DDE7FE
S31508004E300123D4E900010C4A84F83430136801339D
S31508004E40136009F092FCD1E7002384F83430CDE7EB
S31508004E505D2548E7592546E75A2544E75F2542E791
S31508004E605B2540E758120020541200202DE9FF4127
S31508004E700C4616461F46054680B390F834307BB379
S31508004E80B1F5801F2ED2DFF86080012109F09BF86A
S31508004E902146424628460DF10F03FFF787F80446D8
S31508004EA070B99DF80F30012B11D1D8F81030BB42DC
S31508004EB012D10246009031462846FFF743FB0446C6
S31508004EC0E86B09F069FA204604B0BDE8F081022BC8
S31508004ED014BF2D246024F3E76324F1E72124F2E7C5
S31508004EE01124F0E72924EEE7E01200202DE9F0432B
S31508004EF085B00C4617461E460546DDF8308098B341
S31508004F0090F8343093B3B1F5801F31D2DFF864904E
S31508004F10012109F058F821464A4628460DF10F03A3
S31508004F20FFF744F8044688B99DF80F30012B14D1D1
S31508004F30D9F8102006EB08039A4213D3009043468B
S31508004F40324639462846FFF7FDFA0446E86B09F06B
S31508004F5023FA204605B0BDE8F083022B14BF2D24A2
S31508004F606024F3E76324F1E72124F2E71124F0E74C
S31508004F702924EEE7E01200202DE9F3411F4600231D
S31508004F800C46164605463B6050B390F834304BB392
S31508004F90B1F5801F28D2DFF85480012109F013F8F3
S31508004FA02146424628460DF10703FEF7FFFF044651
S31508004FB0A0B99DF80730032B10D0022B0AD1012384
S31508004FC0336004233B60E86B09F0E6F9204602B03B
S31508004FD0BDE8F081D8F810303060F3E72D24F2E709
S31508004FE02124F3E71124F1E72924EFE7E012002052
S31508004FF073B50446416908F0A2FF626E236B02444A
S3150800500093422CBF00220122834294BF00231B1A1D
S31508005010207C84F85020636584F85800A8B10023E2
S315080050200B4E1A4619462046009609F0E0FA002368
S3150800503005461A4619462046009609F0E1FAE3683D
S315080050402844984294BF0020C01AE06502B070BD9B
S31508005050FFFF0F002DE9F3471E4643690446B34296
S31508005060884617469DF828904FD300258DF8075097
S315080050702046616908F063FFD4F830A082450AD259
S31508005080236AB5EB430F06D2002220460DF107012D
S31508005090FFF778F9B8B39DF80730012B05D1002240
S315080050A020460DF10701FFF76DF9B9F1030F06D098
S315080050B03146204608F043FF256B854227D3154D18
S315080050C04FF0FF31284600F059F94B462946002291
S315080050D02046C5E90376C5F80080FFF721FB236E55
S315080050E0054663B12046FFF783FF94F8503013B99D
S315080050F094F858301BB1236E04F15000984728469F
S3150800510002B0BDE8F0870135B2E76225F7E71C254E
S31508005110F5E700BFB41200202DE9FF410F4690467F
S315080051201E46054698B390F8343093B3B1F5801F00
S3150800513031D21A4C022108F046FF22463946284643
S315080051400DF10F03FEF732FF024678B101234246FE
S315080051500093394633462846FFF77CFF0446E86B3A
S3150800516009F01AF9204604B0BDE8F0819DF80F3021
S31508005170012BEBD12169B142E8D100934146334670
S315080051802846FFF7DFF904460028DFD1E7E72124A0
S31508005190E8E71124E6E72924E4E700BFE012002047
S315080051A030B50C46054685B028B390F8343023B39D
S315080051B0B1F5801F23D2022108F005FF0DF10F0378
S315080051C0214628460F4AFEF7F1FE034688B99DF8A0
S315080051D00F20032A0DD003222146009202462846B4
S315080051E0FFF738FF0446E86B09F0D6F8204605B005
S315080051F030BD2D24F7E72124F8E71124F6E7292402
S31508005200F4E700BFE01200202DE9F043466886B3B4
S31508005210056898464FF0000CA946AE4655F83C403E
S315080052200CF1010CC4F31307013401D0B94217D0AD
S3150800523066450EF1080EF1D12F46002403E0A6427A
S3150800524007F1080712D055F8343001340133F6D186
S31508005250C1F3130141EA0851C7E90012BDE8F0831A
S3150800526041EA0851CEE90012BDE8F083B8F1030F10
S3150800527003D101230372BDE8F083002303E09E42B5
S3150800528009F10809F5D055F833400133C4F307543A
S31508005290032CF4D1C1F3130343EA0853C9E90032D6
S315080052A0BDE8F0832DE9F0410646406882B0C0B1FA
S315080052B00F4690460024336853F8345003EBC40372
S315080052C0C5F30752C5F31301013504F1010406D0ED
S315080052D05B683046CDF80080B84710B170688442E4
S315080052E0E9D302B0BDE8F08173B504462248012A25
S315080052F000EAC1119DF8185023F07C4007D9961E84
S31508005300012E28D9073303F07F03194308E09DF8D7
S315080053101C300A43DB0603F0C053134343F06041D5
S315080053200023C4E900108DF80730B5B120222146C4
S315080053300DF1070009F031FB1A220DF10700211DB6
S3150800534009F02BFB082063689DF8072043EA82636F
S31508005350636002B070BD1143E2E71B220DF107003E
S31508005360214609F01AFB23689DF80720042043EA22
S31508005370C2632360EDE700BF80FFFF0738B5094B1E
S315080053800D461A68002104460CF07DF800234FF0FC
S31508005390FF322383C4E900252361A260E382A37652
S315080053A038BD00BF944B01080138C0B205289ABF22
S315080053B0014B185C01207047994B01082DE9F04113
S315080053C00746154600240E46596888B0490A012939
S315080053D022464FEA510104F10104F8D8DC7899789D
S315080053E024031B88C90201F4006104F480540C43A9
S315080053F0C3F30A035203234492B24FF000089C18E1
S31508005400274B6FEA0444039325F07843ED4302A93A
S315080054100DF107001B2202938DF8078009F0BDFAEB
S315080054209DF80720029B02A943EAC2630DF1070013
S315080054301B2225F07845049302958DF8078009F01C
S31508005440ACFA9DF80720029B6FEA144443EAC2634C
S3150800545005934FF0FF330794069307A9BB6901220A
S3150800546006F110009847BB6905A90446012206F112
S3150800547008009847BB69404518BF044604A901229D
S31508005480301D98470122404518BF0446BB6930467F
S3150800549003A99847404508BF204608B0BDE8F081F3
S315080054A001009AB2044BD3F88420D206FBD4D3F871
S315080054B08400C0F3811070470040005038B5174B80
S315080054C00546D3F828310C4603F00703013B052BA4
S315080054D020D8DFE803F003131B0F0B170DF014F9A0
S315080054E0052305B1286004B1236038BD0DF00CF919
S315080054F00623F6E70DF048F90723F2E70DF03EF923
