S01C00006275696C642F64656275672F67656E657261746F722E7333379C
S315080000000004002071D8000875D8000875D80008C3
S3150800001075D8000875D8000875D8000875D800087E
S3150800002075D8000875D8000875D800086D18010835
S3150800003075D80008883A010811180108932801089C
S3150800004075D8000875D8000875D8000875D800084E
S3150800005075D8000875D8000875D8000875D800083E
S3150800006075D8000875D8000875D8000875D800082E
S3150800007075D8000875D8000875D8000875D800081E
S3150800008075D8000875D8000875D8000875D800080E
S3150800009075D8000875D8000875D8000875D80008FE
S315080000A075D8000875D8000875D8000875D80008EE
S315080000B075D8000875D8000875D8000875D80008DE
S315080000C075D8000875D8000875D8000875D80008CE
S315080000D075D8000875D8000875D8000875D80008BE
S315080000E075D8000875D8000875D8000875D80008AE
S315080000F075D8000875D8000875D8000875D800089E
S3150800010075D8000875D8000875D8000875D800088D
S3150800011075D8000875D8000875D8000875D800087D
S3150800012075D8000875D8000875D8000875D800086D
S3150800013075D8000875D8000875D8000875D800085D
S3150800014075D8000875D8000875D8000875D800084D
S3150800015075D8000875D8000875D8000875D800083D
S3150800016075D8000875D8000875D8000875D800082D
S3150800017075D8000875D8000875D8000875D800081D
S3150800018075D800089157000875D8000875D8000872
S3150800019075D8000875D8000875D8000875D80008FD
S315080001A075D8000875D8000875D8000875D80008ED
S309080001B075D80008E8
S315080001B4F0B5114A114C124E00F00105E3695F07C8
S315080001C413D40DB9334213D103EA00078F4207D17A
S315080001D40B4A1A40002A0CBF00206FF00100F0BD3C
S315080001E4013AEBD16FF00200F9E74FF0FF30F6E77A
S315080001F46FF00100F3E700BF8096980000000350F3
S31508000204020001000B4B70B5D96911F480310DD188
S3150800021401244FF48072084E084DF46020462C647D
S315080002241A61FFF7C5FF3464EC6070BD6FF0010016
S31508000234FBE700BF000003500010035000200350E2
S315080002444FF4803238B50E4B0E4C9A66E56941F682
S31508000254713315400122E3630B4B0021DA60022354
S31508000264606121202361FFF7A3FF10B92120FFF75E
S315080002749FFF0122054BDA600DB10023E36338BD05
S315080002840090005000000350001003500020035053
S3150800029470B5134C6061E3695B071ED40E4656F8C5
S315080002A4043B8D18A361AE420BD1042300212120FF
S315080002B42361FFF77DFF58B9BDE870402120FFF799
S315080002C477BF08210846FFF773FF10B1042323619B
S315080002D470BD56F8043BA361E5E74FF0FF30F7E736
S315080002E4000003502DE9F84315464FF48032184BA5
S315080002F489469A6603F51C33DF690646174041F6B4
S315080003047132DA63012203F58053DFF84C80DA6030
S3150800031455B9284601220F4BDA601FB10022A3F50E
S315080003240053DA63BDE8F88306F5005404EA0804C2
S31508000334A41BAC4228BF2C46494622463046FFF742
S31508000344A7FF0028E6D12644A1442D1BE0E700BFF9
S31108000354009000500020035000E0FFFF5E
S315080003600348044B834202D0034B03B11847704736
S31508000370142D0020142D002000000000064B07490C
S31508000380C91A891048BF0131491003D0044B0BB173
S3150800039001481847704700BF142D0020142D00206F
S315080003A00000000010B5064C237843B9FFF7D8FFC4
S315080003B0044B13B10448AFF300800123237010BD2A
S315080003C0841E0020000000006052010808B5054B95
S315080003D01BB105490548AFF30080BDE80840FFF7A3
S315080003E0CDBF00BF0000000068040020605201086D
S315080003F0A3F5803A704700BF174B002B08BF134B75
S315080004009D46FFF7F5FF00218B460F461348144A11
S31508000410121A10F00DFB0E4B002B00D098470D4B0F
S31508000420002B00D098470020002104000D000D483D
S31508000430002802D00C48AFF3008008F087FB2000A4
S3150800044029000FF04EFC08F0EBFA00BF0000080088
S315080004500000000000000000000400200004002046
S31508000460502000200000000000000000002307B50F
S315080004700193054B1B6812F089FC019B002BFCD0ED
S3150800048003B05DF804FB00BF00220020EFF30583EC
S315080004900F2B84BF034A9B5C4FF0E023D3F80C3D37
S315080004A0704700BFF0E300E030B5074C25682468C4
S315080004B06A40D2B2891A101A090A41EA1021634021
S315080004C023EA0100C0B230BD24100020044B1B688B
S315080004D0584043085B4240421843C017704700BF64
S315080004E024100020054B01311B680132434022EAE3
S315080004F0030208400243501E00B270472410002031
S315080005002DE9F04F834699B00F4618460021164646
S3150800051004930AF059FB002800F08781002401257E
S31508000520774B30461493049915ABCDE90B45CDE9C5
S315080005300D45CDE90F45CDE9114513930AF0CDFADE
S31508000540A04228DABBF1000F05D1E7B900242046FE
S3150800055019B0BDE8F08F214658460AF033FA04462A
S315080005600028F2D00BA80AF082F90DA80AF07FF944
S315080005700FA80AF07CF911A80AF079F90C2115A838
S3150800058001F0A4FAE3E7314638460AF0E6F90446EC
S315080005900028E7D1DAE731460BA80AF0DEF9044667
S315080005A00028DFD104990DA80AF0D7F904460028D7
S315080005B0D8D1F1880FA80231ADF83850ADF83050CF
S315080005C00AF063F904460028CCD101460FA80AF0C0
S315080005D0F9F904460028C5D1F18811A802310AF0B4
S315080005E054F904460028BDD10DA80AF02AFA00F0ED
S315080005F01F001F2873D0C0F11F0319460BA80193CB
S315080006000AF045FA04460028ACD101990DA80AF06B
S315080006103EFA04460028A5D1BDF83250BDF83A8006
S315080006200DA8A5EB080A4FEA4A1949460AF02FFA17
S315080006300446002896D14FEA8A0A0DA90BA80AF0A3
S315080006407BFA00284DDA49460DA80AF03DFA044619
S31508000650002887D108F1FF3302939B0005F1FF3A82
S31508000660069305F1804508F18043023B013D9B0056
S31508000670A5EB08050993AB000393029B9A4541D85D
S31508000680BBF1000F0DD058460FA90AF066F90028ED
S3150800069040F0C780049AB388928813FB02F3ABF83C
S315080006A00430002F3FF45EAF01990BA80AF00CFA4C
S315080006B0002840F0B680B3880BA93846ADF830302C
S315080006C00AF04BF90146002840F0AD8038460AF09A
S315080006D07BFA00287FF446AF0123BB8042E70194EA
S315080006E09AE70F9A0BA952F80A300846013342F8DE
S315080006F00A300DAA0AF04DFB044600289DD031E7C2
S31508000700010003000D9B069A05931344DDF82C900F
S315080007100893059B4FEA8A089A5859F82A10A8F1AF
S3150800072004030F9D0793039B91421D4474D20798B7
S31508000730002359F8000007F0E3FF002914BF4FF023
S31508000740FF330346BAF1010F2B600EBF002309EBF6
S31508000750080353F8083C099A1593079B59F8033080
S31508000760169359F8083017932B6801332B60059BAD
S31508000770134498462B680021013B2B6011A80AF008
S3150800078021F900284DD1029B002B48D0D8F800202B
S31508000790119B11A91A60089A084612685A602A68B5
S315080007A00AF07FFB00283CD113A911A80AF0C4F966
S315080007B00028DFDC2A680DA911A80AF072FB80BBA5
S315080007C0039B11A84FEAC30841460AF060F940BBEB
S315080007D00BA9084611AA0AF0DCFA014618BB0BA8B1
S315080007E00AF0F2F9002812DA0DA911A80AF0B5F8EC
S315080007F0B8B9414611A80AF04AF990B90BA90846B2
S3150800080011AA0AF0C3FA60B92B68013B2B60039B57
S315080008100AF1FF3A043B2FE74FF0FF3392E7029ABB
S31508000820B6E704469EE60C469CE66FF00B048EE699
S31508000830044B1B68584043085B4240421843C017A4
S31508000840704700BF2410002010B50B4C226823689F
S315080008504240594081EA0200C00FFFF7E9FF2368CA
S31508000860521A434022EA030208401043C00FBDE86B
S315080008701040FFF7DDBF00BF24100020F8B50D4675
S31508000880014628681746FFF7DFFF0124C143074BD7
S315080008901E68BC4202D346EA0100F8BD55F824009A
S315080008A0FFF7C6FF01340643F3E700BF2410002014
S315080008B02DE9F04707460F4B88461E6819681D68DC
S315080008C0541E631C02D13046BDE8F08758F824A0B0
S315080008D057F8249050464946FFF7B6FF5146054358
S315080008E04846FFF7B1FF20EA05031E430543013CCE
S315080008F0E7E700BF241000208842F0B504D00025A1
S31508000900084F0438AA4200D1F0BD3E6850F8044F9B
S315080009105E4024EA060451F8256001351E4034433A
S315080009200460EFE7241000202DE9F04F1C4685B03F
S31508000930DFF884900391064621461046D9F8003020
S31508000940D9F800300AF0FDFCC51D272D90468CBF4E
S315080009504FF01E0A4FF0FA0AEB0825F00705029336
S315080009602D1A0F9B2146009330460E9B029A0AF0D9
S31508000970E5FE0746C0B92A46214630460AF05AFD22
S31508000980BAF1010A14D0224631460398FFF776FFDA
S315080009902246834641463046FFF78AFFD9F80020AB
S315080009A00BEA00039A42DCD0384605B0BDE8F08F62
S315080009B06FF00D07F8E700BF2410002070B50C464D
S315080009C00646114620461A460AF0FFF90546A0B91A
S315080009D0B36C33B921462046321DBDE870400AF093
S315080009E091BAB4F90430002B09DB20460AF029F83D
S315080009F0F36BB0EB430F09D9184D284670BD014675
S31508000A0020460AF0E1F80028EFD0F5E72046B36C57
S31508000A10984705460028F0D10436B4F90430002B6F
S31508000A2004DA002120460AF0CFF868B93146204694
S31508000A300AF082F80028E0DB3246214620460AF012
S31508000A4023F90028F2D006E03246214620460AF06D
S31508000A509DF90028E1D00546CFE700BF80B0FFFF2B
S31508000A60F0B514461F46054685B002A80E4609F09D
S31508000A70F9FE2346022100972A1D02A80AF0F0FA79
S31508000A80044648BB06F110021146284602ABFFF79A
S31508000A9095FF044600BB06F108073A46394628463C
S31508000AA002ABFFF78BFF0446B0B902AB1A461946EC
S31508000AB02846FFF783FF044670B932463146284672
S31508000AC002ABFFF77BFF044630B93A46394628465B
S31508000AD002ABFFF773FF044602A809F0C8FE0348F5
S31508000AE014F10E0F18BF204605B0F0BD00B3FFFF86
S31508000AF02DE9F14F9A461B6904460E4691460A9D12
S31508000B001BB9724801B0BDE8F08F02F11007002149
S31508000B1038460AF059F830B95146304601B0BDE8B2
S31508000B20F04F0BF0EFB80AF11008002140460AF022
S31508000B304BF808B94946F0E7012140460AF044F85F
S31508000B400028DED13B463A4629462046FFF736FFBF
S31508000B500028D7D105F108083B462A4641462046D3
S31508000B60FFF72CFF0028CDD153462A4629462046B2
S31508000B70FFF724FF0028C5D14246414620460AF120
S31508000B800803FFF71BFF0028BCD14B462A46294617
S31508000B9020460AF0AAFE0028B4D109F1080B5B46E4
S31508000BA04246414620460AF0A0FE0028AAD1002166
S31508000BB028460AF009F8014690B940460AF004F8B2
S31508000BC040B92B464A463146204601B0BDE8F04FAB
S31508000BD00AF008BF304601B0BDE8F04F0BF0A8B8E0
S31508000BE02B463A46204606F11001FFF7E7FE002895
S31508000BF088D105F110072B462A4639462046FFF7C5
S31508000C00DDFE00287FF47EAF05F1180A2B463A462A
S31508000C1051462046FFF7D2FE00287FF473AF4B46B5
S31508000C203A4639462046FFF7C9FE00287FF46AAFE0
S31508000C303946284609F091FE00287FF463AF294615
S31508000C4020460AF0C0FE00287FF45CAF43464246C1
S31508000C5031462046FFF7B2FE00287FF453AF2B46F5
S31508000C603246314620460AF040FE00287FF44AAF55
S31508000C7053463246314620460AF037FE00287FF4AE
S31508000C8041AF33463A46394620460AF02EFE00283A
S31508000C907FF438AF43463A4639462046FFF78EFE7C
S31508000CA000287FF42FAF5B46524651462046FFF791
S31508000CB085FE00287FF426AF53463A46204606F1BD
S31508000CC0080101B0BDE8F04F0AF00FBE80B0FFFF83
S31508000CD02DE9F047012A8246DDE908490E46904685
S31508000CE01F4644D8043009F0B0FE054650460AF0BF
S31508000CF07FFF012882463CD1002106F1100009F049
S31508000D0063FF48B9B9F1000F02D11B48BDE8F08767
S31508000D102070C7F800A0F9E7B8F1000F17D16B00EB
S31508000D2001334B453B60F0D8214604232A4630461A
S31508000D3001F8013B09F0A5FE0028E7D12A46691CFF
S31508000D40214406F10800BDE8F04709F09ABE6B1C7D
S31508000D504B453B60D9D8002106F1080009F04EFE44
S31508000D602146023001F8010B2A463046EBE70348D4
S31508000D70CCE70348CAE700BF00B1FFFF80B0FFFF1A
S31508000D8080B1FFFF2DE9F84380460C4615461F46FD
S31508000D9013B91D48BDE8F883043009F056FE064627
S31508000DA040460AF025FF012881462AD12B7833B917
S31508000DB0012FEED12046BDE8F8430AF0B9BF06F187
S31508000DC00108B845E5D832462046691C09F043FEB5
S31508000DD00028DFD1494604F1100009F0F3FD002888
S31508000DE0D8D12B78042BD4D173000133BB42D0D190
S31508000DF0324605EB080104F10800BDE8F84309F09E
S31508000E002ABE0248C6E700BF80B0FFFF80B1FFFFD9
S31508000E102DE9FF410E460546012106F1100009F0AD
S31508000E20D3FE044650B928460AF0E2FE01287AD1D4
S31508000E302146304609F0C8FE002801DA3B4C6EE030
S31508000E4006F108082146404609F0BEFE0028F5DBF3
S31508000E502F1D3946304609F06FFE0028EEDA39466E
S31508000E60404609F069FE0028E8DA684609F0FAFC07
S31508000E7002A809F0F7FC4346424669462846FFF7AA
S31508000E809DFD0446002844D133463246284602A929
S31508000E90FFF794FD044600283BD1EB687BBB02A90B
S31508000EA00322084609F079FF044690BBBDF90C30C9
S31508000EB0002B04DA002102A809F086FEC8B902AAA6
S31508000EC0334611462846FFF779FD044608BB02AAB1
S31508000ED01146284605F114030AF0EBFC0446C0B98E
S31508000EE0684602A909F028FE104B041E18BF1C46C6
S31508000EF00FE002A93A46084609F048FFD4E702AAD5
S31508000F001146284605F10C030AF0D3FC04460028CE
S31508000F10D5D0684609F0ABFC02A809F0A8FC204623
S31508000F2004B0BDE8F081024CF9E700BF80B3FFFFCB
S31508000F3080B0FFFF38B505460AF05AFE01280C4670
S31508000F4001460DD1204609F03FFE002806DB204663
S31508000F5005F1340109F0F0FD002803DB024838BD2D
S31508000F600248FCE70020FAE780B3FFFF80B0FFFFE6
S31508000F702DE9F04F0F46B5B0114606469A4602923D
S31508000F80FFF7D8FF0446002840F09F8151463046B7
S31508000F90FFF73EFF0446002840F0978130460AF0E6
S31508000FA027FE012840F09A81336C1821013302206C
S31508000FB04FEA53090EF053FC0546002800F08C81D1
S31508000FC005F118080AF01DFE40460AF01AFE0DF152
S31508000FD04C0B0BEB0400083409F044FC202CF8D128
S31508000FE0514628460AF08EFE044698BB8246D145ED
S31508000FF01ED1414630460AF0E1FB044650BB434643
S315080010002A4641463046CDF800B0FFF771FD044642
S3150800101000BB414630460AF0D1FB0446D0B905F17B
S31508001020100009F024FC05F1280009F020FC11E065
S31508001030BAFBF9F1012318228B4009FB11A1DBB297
S3150800104002FB0352F9B11146304613AB0AF0CAFC4B
S31508001050044638B34FF0000A0BEB0A000AF1080AF7
S3150800106009F005FCBAF1200FF6D1F4B1B36D9D4233
S315080010702DD028460AF002FE40460AF0FFFD284613
S3150800108012F0DFFC23E003F0FE0101EB53011046EA
S3150800109005EBC10103920AF035FE039A04460028BF
S315080010A0D1D0D7E70AF1010AA1E705A809F0DAFBCA
S315080010B006F1340B0BA809F0D5FB2146584609F072
S315080010C09DFC012811D0B36D9D4204D1844C38464D
S315080010D00AF0D4FDF9E028460AF0D0FD40460AF0A9
S315080010E0CDFD284612F0ADFCF0E72146029809F03E
S315080010F085FC0299824605A809F02FFC044630B102
S315080011000BA809F0B4FB05A809F0B1FBAEE75946F0
S31508001110029A0BA809F03DFE04460028F0D1BAFA57
S315080011208AFA4FEA5A1A52460BA905A809F0D1FBC2
S3150800113004460028E4D1014609F1010213A80FF07C
S3150800114077FC13AB1A46A346D94502925DD0594699
S3150800115005A8039309F052FC029A09EB0B011478CF
S315080011600BF1010B044305A809F048FCE4B2029A06
S3150800117044EA4004039B02F8014BE5E75C781A78D9
S3150800118084EA010E6FEA0E0000F0010012FB00F27D
S315080011900C4002EA0E0182EA0E0203F8012F13F848
S315080011A0012C214342EAC01203F8012C0CF1010C70
S315080011B0E345E3D20BA809F05AFB05A809F057FB4B
S315080011C005A80AF01EFD00240BAB1819083409F00F
S315080011D049FB202CF8D10BF1D0036B442A4639463B
S315080011E0304613F8843C0AF0ADFB0446002831D19A
S315080011F03E9B002B6DD0DDE93E2339463046FFF78E
S315080012002FFC002865D0044624E000214FF0010C8D
S31508001210CEE74B463A46394630460BF1FF3B0AF0D5
S31508001220E1FB0028EFD113AB2A46304613F80B3002
S3150800123005A90AF087FB0028E5D13A463946304623
S31508001240CDF8009005ABFFF753FC0028DBD1BBF1C6
S31508001250000FDED105A80AF067FB4FF000090BABBB
S3150800126003EB090009F1080909F001FBB9F1200FA0
S31508001270F5D1002C7FF4FAAE5246394630460AF0CC
S31508001280E1FA044600287FF4F1AE3E9B4BB1DDE956
S315080012903E2339463046FFF7E3FB044600287FF431
S315080012A0E5AE394630460AF089FAB36D04469D42E2
S315080012B008D028460AF0E2FC40460AF0DFFC284639
S315080012C012F0BFFB002C7FF402AF204635B0BDE814
S315080012D0F08F0DF12C09BAE7024CF8E6004CF4E75A
S315080012E080B0FFFF80B2FFFF30B4DDE9024524B1CC
S315080012F0CDE9024530BCFFF73BBE014830BC70471C
S3150800130080B0FFFF73B505461E460AF071FC01283A
S315080013100C4601460ED113462046009605F13402C6
S3150800132009F09EFE044B10F10E0F18BF034618462F
S3150800133002B070BD014BFAE700B3FFFF80B0FFFFB4
S315080013402DE9F0410D46014628461746984600F015
S3150800135047F80446B0B928460AF04AFC012805F1C0
S31508001360600612D142463946304609F074FB0446F7
S3150800137028B931462846FFF7DDFD044610B1304648
S3150800138009F075FA2046BDE8F081014CF7E700BF81
S3150800139080B1FFFF70B5066C0D460736B3EBD60F66
S315080013A0114604464FEAD60203D200230A482B60A8
S315080013B070BDB0F866302A604BB10AF019FC0128F6
S315080013C007D104F16000BDE8704009F05ABB034834
S315080013D0EEE76FF06D00EBE700B1FFFF80B0FFFFAF
S315080013E038B504460D460AF04DFC20460AF017FCAF
S315080013F0032D257023D1144B144AA360A361A3635C
S315080014002362A362124B626063624FF00113114AB2
S3150800141023636261104A114B6263114AE362E26117
S31508001420201D09F00EFBE06304F1340009F009FB06
S31508001430206400200123C4E91600636438BD002334
S3150800144008482370FAE700BF010008006C3B010852
S315080014500C3B01084C3B0108EC3A01088C3B01089F
S315080014602C3B010880B1FFFF0538C0B206289ABF99
S31508001470024B53F820000020704700BF903B01083C
S315080014800023F0B5044603600A276FF067000C4E88
S315080014900B68934203D21D78303D092D00D9F0BD63
S315080014A02568B54209D87D43256013F8010B284401
S315080014B03038206000200B60EAE76FF06700EEE73F
S315080014C09999991970B5094C256815B96FF02D00C9
S315080014D009E0667C864207D1267C8E4204D100202C
S315080014E0156062681A6070BD1434EDE7D4440108CB
S315080014F030B5084B1C6814B96FF02D0006E01D7C4A
S31508001500854204D100205B680C60136030BD14333B
S31508001510F0E700BF8444010830B5084B1C6814B9CD
S315080015206FF02D0006E01D7C854204D100205B6823
S315080015300C60136030BD1433F0E700BF5C4401084B
S315080015402DE9F04F0F460021054687B0084600935F
S3150800155090469B46134605AA109E09F0FCF82846B5
S315080015600FF0D3F9044638460FF0CFF9059902294A
S315080015700A4638BF02224B1C023A03EB9213234455
S315080015801844119B984207D96FF02908129B1860D6
S31508001590404607B0BDE8F08F39B101200EF05FF97B
S315080015A0044618B9DFF8A080F2E70C464346204601
S315080015B00599CDF800B005AA09F0CDF8804618B10E
S315080015C0204612F03EFAE3E728460FF09EF9294630
S315080015D0024630460FF010F928460FF096F9A14654
S315080015E04FF00A0A3518DDF814B0BBF1000F18D110
S315080015F038460FF08AF93946024628460FF0FCF8B5
S3150800160038460FF082F902462B18581C129B05F82B
S3150800161002B0821B1A60119B59469A1A0FF008FAF3
S31508001620CEE75A46402A28BF402249462846039212
S315080016300FF0E2F8039AABEB0200154405909144CB
S3150800164005F801ABCFE700BF80EEFFFFF0B5054612
S3150800165087B00E461822002168460FF0E9F91DB931
S31508001660114C204607B0F0BD2B68002BF8D169460F
S3150800167030460AF0ADFF04460028F1D1BDF80070E7
S3150800168068460BF07EFA27F0FF03B3F5E24F07D062
S3150800169047F201039F4205D1044B2B60AE60E0E799
S315080016A0034BFAE7034CDCE780C1FFFF64450108FA
S315080016B09445010880C6FFFF2DE9F74F1646DDE978
S315080016C00C89DDE90EAB04460D46109AE1B92BB933
S315080016D0036803BB164803B0BDE8F08F002EF9D0A7
S315080016E001680029F6D021684F69FFB1CDE90FB22C
S315080016F0294632462046BC46CDE90D9ACDF83080BB
S3150800170003B0BDE8F04F6047002EE3D0016800291A
S31508001710E0D0002BE7D128460192FFF7A5FE0AF094
S315080017202FFB019A03460028DDD1D3E70148D2E70B
S3150800173080C1FFFF00C1FFFF0048704780C6FFFF5A
S315080017402DE9F04F04468BB00E46DDE9149A0021C8
S31508001750174604A818229846169D0FF069F92046E0
S3150800176004A90AF035FF38B10722194B19490BF0BD
S3150800177031FE0BB0BDE8F08F04A8BDF812B00BF02F
S3150800178000FA46F0C06143463A462046CDE901A52F
S31508001790CDF8009041F4E0610BF07DF8034670B196
S315080017A08533E1D143463A462046CDE901A5CDF831
S315080017B0009046F006210BF06EF80028D4D1CDE94A
S315080017C000A54B46494658462A680BF029FED0E73D
S315080017D05D2C0008D04501082DE9F0431E469BB054
S315080017E00746884614460021182204A80FF020F957
S315080017F00023F51DED0802936D0024B92A4C2046F6
S315080018001BB0BDE8F0834FF006294FF4005144F4AD
S31508001810824404A8ADF810400AF0AFFB42463946A8
S3150800182002ABCDF81C9000F00FFD48B101F016FA96
S315080018300546029800F014FC04463DB32C46DEE744
S31508001840402D03D9029800F00BFCD7E703AB0193B0
S315080018504023DDE924120AAF009330463B460BF0DD
S3150800186033FE0446029814B100F0FAFBC7E7039B5F
S31508001870AB42E8D1CDE90073DDE9222349460BF0F6
S315080018804DF850B9029800F0EBFB0446002CB6D090
S31508001890204601F0E3F90446B1E70722034B044961
S315080018A00BF098FDC4E700BF80C1FFFF5D2C000860
S315080018B0D04501082DE9F04105469CB000211646A1
S315080018C005A818221F460FF0B3F8A86805A90AF05C
S315080018D07FFE38B10722144B14490BF07BFD1CB070
S315080018E0BDE8F081BDF8144005A804F44F43B3F5EC
S315080018F0824F18BF0024BDF816800BF042F941222A
S31508001900A86804AB0BA90AF0BCFE0028E2D1239B09
S3150800191004990393229B0096CDE90173E2B24346EC
S315080019200BA8FFF759FFDAE75D2C0008D045010838
S3150800193070B5002306460846BEB0CDE903334122FA
S31508001940806803AB05A90AF09CFE044618B101F0AD
S3150800195085F93EB070BD16ADA022314628460EF078
S315080019604BFF28460AF004FB0238314602284FF09E
S31508001970A002284698BF179C0EF03EFF28460AF09C
S31508001980F7FA0238022888BF00214FF0410398BFB2
S315080019901799CDE900530022204604AB6831FFF7BA
S315080019A097F90028D5D1DDE903239A4208D12946BB
S315080019B005A80FF013F8034B002818BF1846C8E708
S315080019C00048C6E780C1FFFF2DE9F0419046002791
S315080019D0ACB004ADA02206460C46284641460397FD
S315080019E00EF00AFF28460AF0C3FA023802284046D3
S315080019F098BF059F0AF0BCFA072811D1412229464B
S31508001A00D8F8080003AB0AF03CFE00BB3068039A1E
S31508001A10041B944214D26FF06B002CB0BDE8F08121
S31508001A2041230022CDE90053384603AB07F168018C
S31508001A30FFF74EF90028F0D13068A042E7D2EAE76E
S31508001A40801A294630600EF0D7FE0398E5E701486C
S31508001A50E3E700BF80C1FFFF73B5054610460C4695
S31508001A6016460AF085FA022809D132462146284642
S31508001A70FFF7AAFF00280DDB034618460AE03046A2
S31508001A800AF076FA07281BD100232A6801939442A4
S31508001A9002D90C4802B070BD2146B06801AB121BD2
S31508001AA00AF0EFFD0028F4D12868019A2146801A29
S31508001AB028600EF0A3FF019B002B1846DDDAE9E744
S31508001AC00148E7E780C1FFFF80C6FFFF10B50A4659
S31508001AD0044619B1024B00211B68984710BD00BF88
S31508001AE008220020F8B50D4E0D4C0E4D33680E48F1
S31508001AF0984767782B680C48984733680B48984787
S31508001B00022F08D12478E31F5C425C412B68074802
S31508001B1098472046F8BD0024F8E700BF10220020A9
S31508001B20281000200C220020281100208C110020EB
S31508001B300E4B0340B3F1607F06D1B1F5885F14BF41
S31508001B406FF0860000207047B3F1707F0BD101F467
S31508001B50E043B3F5005F06D111F4E06F0CBF6FF0F8
S31508001B608600002070476FF0860070470000C07F2F
S31508001B708A42F8B507460C4600F019818F4922F4C7
S31508001B80FF7323F001038B420ED08D4B22F0FF0129
S31508001B90994209D08B4822F47F7323F003038342CA
S31508001BA002D0894B994228D1884B24F0FF019942EB
S31508001BB00FD114F0FF000BD0854B40F0007098420F
S31508001BC040F0F78082EA0400FF288CBF002001203D
S31508001BD0F8BD7B4B9942ECD0A3F588539942E8D0DF
S31508001BE024F4FF7323F00103B3F1062FE1D07648FE
S31508001BF08142DED073498B42DBD004F0FE43B3F159
S31508001C00A06F14D102F0FE43B3F1A06F40F0D1806B
S31508001C1082EA040333F47E1340F0CB8014F40040C8
S31508001C20D6D0C4F30540C2F305429042CDE7B3F1DE
S31508001C30407F40F0A88002F0FE43B3F1407F40F0B9
S31508001C40B88082EA040535F47E1540F0B28039463C
S31508001C502046FFF76DFF002840F0AB805D4B12F47D
S31508001C607C1603EA020319D0B3F1607FC2F3054676
S31508001C7079D15949D3B243F000738B4277D003F137
S31508001C807E43043B0F2B5CD8DFE803F05A5A5B719E
S31508001C906567696B65675B5B6567696BB3F1607FF1
S31508001CA034D14D49D3B243F000738B4244D003F18B
S31508001CB07E43043B0F2BDCD801A151F823F000BF6B
S31508001CC03D1D00083D1D0008731C0008391D00084D
S31508001CD0B71D0008011D0008051D0008091D00089C
S31508001CE0B71D0008011D0008731C0008731C0008B6
S31508001CF0B71D0008011D0008051D0008091D00087C
S31508001D002026B6E73026B4E74026B2E7B3F1707F5F
S31508001D1017D107F4E043B3F5005F03D10126C7F3F3
S31508001D2002239E4007F4E043B3F5005F09D101257D
S31508001D30C7F302218D4004E010269AE7142698E797
S31508001D40142514F47C1FC4F3054312D1B54214BFFD
S31508001D50002001203CE71C25F3E72025F1E7302584
S31508001D60EFE74025EDE7B3F1707FEAD1DAE7102512
S31508001D70E7E712F47C1F01D1AB4218D022047FF5A5
S31508001D8027AFB34221E7B3F1106F12D124F01F60D9
S31508001D9020F4702068B902F0FE43B3F1106F7FF4A7
S31508001DA017AF0E48104040F01060A042CFE7012060
S31508001DB00EE700200CE71C265BE700BF00020006C2
S31508001DC000130006000400060009000600030006CA
S31508001DD0FF0000020000C07F030000020000FFF6BB
S31508001DE010B5344B21F0FF02E8B19A4236D003F51C
S31508001DF080539A4232D0A3F588539A422ED021F4C2
S31508001E00FF7323F00103B3F1062F40D02A4882421C
S31508001E103DD02A4A934221D0294B99420CBF002033
S31508001E206FF0860010BD9A4203D111F0FF0318D156
S31508001E30F8E7244B9A42F8D0A3F588539A42F4D08F
S31508001E4021F4FF7323F00103B3F1062FEDD01A4CEA
S31508001E50A242EAD0194A9342E4D1E6E711F0FF0319
S31508001E6004D0194A43F00073934202D16FF08600FA
S31508001E70D8E7164A934208D003F17E43083B032B62
S31508001E808CBF6FF085000020CCE70020CAE711F070
S31508001E90FF03E6D1094B21F47F7121F00301994232
S31508001EA0E4D003F5A0639A4214BF00206FF08600C1
S31508001EB0B8E700BF00030006000900060004000694
S31508001EC00008000600130006FF00000205000002D5
S31508001ED037B505460C46FFF705FE78B100232246BE
S31508001EE001932946074801AB0CF01BFE20B9019B5C
S31508001EF0A34218BF6FF0930003B030BD6FF088009F
S31508001F00FAE700BF2C1000202DE9F04F446885B091
S31508001F10240A012C8046DDE90E56894692469B46E0
S31508001F20109F20D0DFF858C0644514D01CBBCDE9FB
S31508001F30016700950DF057F810F1860F1DD15B4625
S31508001F40524649464046CDE90F670E9505B0BDE8AD
S31508001F50F04F0AF0CCBACDE90F670E9505B0BDE88B
S31508001F60F04F0DF040B8CDE90F670E9505B0BDE806
S31508001F70F04F0CF064BF6FF0860005B0BDE8F08F37
S31508001F80020080002DE9F843884617461C4600F0F3
S31508001F9033FD054688BBD8F80060B6F8009009F40A
S31508001FA0E043B3F5804FB36808BF27F0010737EA67
S31508001FB003031AD10CB3254B24F0FF029A421FD112
S31508001FC014F0FF0304D0224A43F00073934232D040
S31508001FD022464846F168FFF7CBFD074668B9224610
S31508001FE048463169FFF7C4FD70BB6FF084050023CE
S31508001FF03046C8F8003000F07BFD2846BDE8F88377
S31508002000144B9A42DCD0A3F588539A42D8D024F4CC
S31508002010FF7323F00103B3F1062FD1D00E498A428C
S31508002020CED00E4A9342CBD004F0FE43B3F1407FA4
S3150800203004D12304CCD56FF08605D8E7B3F1A06F99
S31508002040F7D0034B9C42C2E73D46D6E7000300069D
S31508002050FF0000020013000600090006000400063F
S3150800206037B50446C0B101A900F0C6FC044698B9C4
S315080020701C4B1D481B6898471C4D08BB0198037EDE
S31508002080032B11D10BF01AF82B680446164898470B
S3150800209028B10CB96FF08F04204603B030BD002C70
S315080020A008BF6FF08704F7E7022B15D103230376E1
S315080020B00379FF2B13D01BB140690BF040F8044697
S315080020C001980AF0FBFF2B68002818BF044606484B
S315080020D098470028E0D0DCE76FF09604F0E76FF049
S315080020E08404EDE710220020F01100200C220020C5
S315080020F02DE9F3410D46194600236F680B603846F3
S315080021001646D5F814800AF0EEFF044688B9384614
S315080021100AF0EBFF044660B9FFB277B9B8F1000FD1
S3150800212005D1AB6823F47F4323F0030363B16FF053
S315080021308604204602B0BDE8F081014668690AF0C7
S31508002140ACFF0028EDD1F2E74FF6F8736A889A4299
S3150800215027D8154B15481B682F79984710B16FF08B
S315080021608F04E6E707B901A8314600F005FC104BD5
S3150800217004461B680D48984710B1002CD9D1EEE7E4
S31508002180002CD6D10FCDD6F800C066460FC695E806
S31508002190030086E80300002FCBD1019BCCF814304E
S315080021A0C7E76FF08504C4E710220020F01100206D
S315080021B00C220020154B70B51B68054614481646B8
S315080021C0984718B16FF08F04204670BD2B794BB92C
S315080021D06B69002433602B7E012B14D034606FF0BA
S315080021E0960407E02846D5E908120AF0C3FF044614
S315080021F00028EDD0074B06481B6898470028E3D00F
S31508002200002CE1D1DEE702232B76F3E7102200202B
S31508002210F01100200C22002010B5044660B1074BCF
S3150800222007481B68984720460AF0B5F9BDE81040EC
S31508002230044B03481B68184710BD00BF1022002036
S31508002240F01100200C2200202DE9F041064600205E
S3150800225088B0884615461F46CDE9040007921860DF
S31508002260002A64D0B2F1005F64D2314605AB04AAF5
S31508002270FFF73EFF044698B9049B5A6AAAB1049828
S315080022802A4643884146069306AB029300F1240387
S315080022900193436A0093036AFFF736FE044610B3B8
S315080022A0DDE90401FFF7B8FF37E073681B0A10D0B1
S315080022B0012B06D021498B4213D007926FF0860472
S315080022C0EEE7304607A907950AF05FFC04460028A2
S315080022D0E6D1079904980AF0E7F804460028CED014
S315080022E0DEE70795F5E70498069B4288CAB9438056
S315080022F04FF6F872934217D8338813B102889A4278
S31508002300DCD1738813B142889A42D7D13A460599E7
S31508002310FFF750FF04460028C2D1204608B0BDE8A2
S31508002320F0819A42CAD1E3E76FF08504B8E76FF007
S315080023308604F2E76FF08504EFE700BF020080002D
S3150800234047F2010102888A4210D1104923F4FF722C
S3150800235022F001028A4215D00D4A23F0FF03934268
S3150800236014BF6FF086006FF08500704702F44F4285
S31508002370B2F5824F06D123F4FF7323F00103B3F1BC
S31508002380062FEDE76FF08500704700BF00020006D4
S31508002390001300062DE9F04117461C461F4A23F490
S315080023A0FF7323F00103934205460E4698B00ED0FC
S315080023B01B4B24F0FF029A4209D01A4924F47F7372
S315080023C023F003038B4202D0174B9A4222D1DDE950
S315080023D01E1207AB0193402314F0FF000DF12008ED
S315080023E018BF40F000700093434609F00AFF70B921
S315080023F0229B3A460493219B31460393209B284609
S315080024000293079BCDE9008323460AF078F918B0B2
S31508002410BDE8F0816FF08500F9E700BF000200060D
S3150800242000130006000400060009000644F2010134
S31508002430028822F44050884210D1104923F4FF72D2
S3150800244022F001028A4215D00D4A23F0FF03934277
S3150800245014BF6FF086006FF08500704702F44F4294
S31508002460B2F5824F06D123F4FF7323F00103B3F1CB
S31508002470062FEDE76FF08500704700BF00020006E3
S3150800248000130006002307B51A46009102490AF010
S3150800249093FA03B05DF804FBC445010870B51C4EF9
S315080024A01C4C33681C4898472378580744BF23F0C8
S315080024B0040323702378990705D500F043FA237897
S315080024C023F002032370154D13482B689847336889
S315080024D01348984763781BB10023124A6360536018
S315080024E0002308210F486370FFF7F0FA2B680C48A1
S315080024F0984733680848984723780748DA0744BF57
S3150800250023F0010323702B68BDE87040184700BF0D
S3150800251010220020281000208C1100200C220020F8
S31508002520281100202C1000202DE9F041FFF7DAFAD7
S3150800253018B100242046BDE8F081364F36483B687E
S315080025409847044620B16FF08F04FFF7A7FFF1E71D
S31508002550324D2B78D8070AD40CF0D8FA044610B9AD
S315080025600CF0DDFA04462B7843F001032B702C4E51
S3150800257029483368984710B1002CE4D0E5E7002CC9
S31508002580E3D13B682448984704460028DBD12B78DA
S31508002590990706D400F0CEF904462B7843F00203D7
S315080025A02B7033681C4898470028E5D1002CCCD1FD
S315080025B03B68194898470028C5D13368164895F8E6
S315080025C0008098470028BED13B68164898470028DF
S315080025D0B9D16B783BB918F0010F04D0124B6C6077
S315080025E05C6002236B7033680E4898470028AAD1AE
S315080025F03B68094898470028A5D12B7806485A070A
S315080026005CBF43F004032B7033689847002890D0CA
S3150800261099E700BF102200208C1100202810002006
S315080026200C220020281100202C1000202DE9F74349
S3150800263000F4E040B0F5804F0D4616461F46DDF81B
S3150800264028902CD101F16808404609F085FB88B925
S315080026504B46002241462846CDE90067FEF738FB7F
S3150800266009F0ECFD0446B0B13A46002130460EF0BA
S31508002670DFF910E0002301930D4B4146009305F165
S31508002680600205F11C03284609F06FFB09F0D6FD28
S3150800269004460028DCD0204603B0BDE8F08349464E
S315080026A02846FEF777FE03B0BDE8F04309F0C6BD3D
S315080026B00DD40008F0B51D460388174603F44F42AB
S315080026C0B2F5824F18BF00230E46A1B04188D8B292
S315080026D00AF092FE0446F8B1684609F0C1FA2146A6
S315080026E06846FEF77DFE044670B903460C4A6846FE
S315080026F018A9FEF707FE044630B93B463246294676
S315080027006846FEF747FE0446684609F0EBFA204697
S3150800271009F094FD21B0F0BD6FF08500FAE700BF1F
S315080027200DD400080368114A10B59342044609D827
S31508002730023A934215D88BB1023A93420BD06FF006
S3150800274088000DE003F17E430A3B012BF7D80430DD
S315080027500CF070F902E004300CF074F900202060E7
S3150800276010BD04300CF06AF9F8E700BF0900000252
S3150800277010B503680F4CA34208D8023CA34215D8EB
S31508002780023CA3420BD06FF0880010BD03F17E43D4
S315080027900A3B012BF7D8043003F028FD02E0043089
S315080027A003F07CFDBDE8104009F048BD043003F095
S315080027B04FFDF7E7090000022DE9F04114461D46D2
S315080027C00378334A43F000739342074688462C60E1
S315080027D037D003F17E43043B0F2B09D8DFE803F01B
S315080027E01C1C08312125292D212508082125292DDC
S315080027F024B12246212140460EF01AF900263B68EC
S31508002800244A93422AD8023A93423BD8023A934240
S315080028102ED06FF0880002E0F4B96FF08900BDE8A9
S31508002820F081002CF9D01C260EE0002CF5D02026CD
S315080028300AE0002CF1D0302606E0002CEDD0402628
S3150800284002E0002CE9D010262246212140460EF04F
S31508002850EFF8B442D3D2E0E71426F5E703F17E4356
S315080028600A3B012BD5D84146381D03F0C9FC03E0C5
S315080028704146381D03F01CFD09F0E0FC0028CED1C6
S315080028802E60CCE74146381D03F0ECFCF4E700BFA8
S31508002890030000020900000238B5074C074B204622
S315080028A01B689847064B204693F8F050054B1B6863
S315080028B09847284638BD00BF8C11002010220020FA
S315080028C0341000200C22002000F14043052B70B57F
S315080028D005460E460CD82822154C02FB0344237ED7
S315080028E0022B02D16369834218D06FF08B001AE07D
S315080028F001210AF0D2FBB8B10D4B00221C46197E05
S31508002900022902D15969A94205D00132062A03F1E2
S315080029102803F4D1E9E7282303FB024420460AF0FA
S31508002920AFFB00B9346070BD6FF08700FBE700BFEE
S31508002930341000200122024B002083F8F020704753
S31508002940341000202DE9F0410A4C002526464FF0A8
S31508002950010803272046C4F81C802776013509F0AC
S315080029601AFE062D04F12804F4D1002386F8F03067
S31508002970BDE8F08134100020F8B506460F46FFF78B
S315080029808BFF88B300241B4B22461D46197ED1B106
S315080029903CB9022905D1D96919B91979002918BF8D
S315080029A01C460132062A03F12803EFD114B96FF049
S315080029B08C0006E020460AF063FB204609F0EBFD92
S315080029C010B100240EE01C46237E83B9012323762A
S315080029D03EB1651BED1003F1CC335D4305F180452F
S315080029E0356000203C60F8BD6FF08800E9E76FF0BD
S315080029F09600E6E73410002000232DE9F3410B602A
S31508002A0080460D46FFF748FF002867D0354B364805
S31508002A101B689847074628B16FF08F04204602B016
S31508002A20BDE8F08129464046FFF74EFF10F18C0FAE
S31508002A3004462E4E07D033682B4898470028EDD019
S31508002A40002CEBD1E8E729463846FFF795FF044600
S31508002A5018B1336824489847E0E701232F68CDE981
S31508002A60000069463846C7F814807B6001AA0AF058
S31508002A70D3FB044670B1DDE900010AF0CBFB2868F8
S31508002A8009F089FD14F18C0F08BF6FF08704002345
S31508002A902B60D0E7DDE90012384609F018FD044638
S31508002AA0DDE900010AF0B6FB002CE8D12868836846
S31508002AB0D90444BF43F48063836083689A0444BF9F
S31508002AC043F400638360037E012B04BF022303766D
S31508002AD00AF0D6FA04460028ADD0D8E76FF0880485
S31508002AE09CE700BF10220020F01100200C220020D5
S31508002AF00B4B10B51B6804460A48984718B16FF087
S31508002B008F04204610BD20460AF0D8FA064B044624
S31508002B101B68044898470028F3D0002CF1D1EEE74B
S31508002B2010220020F01100200C22002037B50446A0
S31508002B3030B1164B16481B68984720B16FF08F04C2
S31508002B40204603B030BD204601A9FFF7BDFE114D52
S31508002B50044640B110F18C0F2B680D4808BF6FF082
S31508002B6087049847ECE70198C369012B0AD109F055
S31508002B7012FD04462B68064898470028E0D0002C2A
S31508002B80DED1DBE70AF09AFAF3E700BF102200204D
S31508002B90F01100200C22002030B40D4D2C681C606A
S31508002BA06C685C6000249C605468DC6014881C8235
S31508002BB054885C8294685C61D4689C61126930BCF4
S31508002BC0DA6119620A46014603F124000DF014BEC3
S31508002BD0C84501082DE9F843232904460F469146BE
S31508002BE09846089E04D86FF098052846BDE8F883ED
S31508002BF0082219490DF0F2FE05460028F3D1A3680C
S31508002C00002BF0D1216A243F8F42C8F80010EAD37E
S31508002C10B1F5005FE7D271B9C9F80000E3687360DF
S31508002C20238A3380638A73806369B360A369F36018
S31508002C30E3693361D9E701200CF011FEC9F80000F9
S31508002C4030B1D8F8002004F124010DF0D5FDE5E7F0
S31508002C506FF08C05C9E700BFC845010800F1990364
S31508002C60142B1AD8DFE803F01717191919191917A9
S31508002C70191919191319191B150B0F0D11000948E4
S31508002C807047094870470948704709487047094816
S31508002C90704709487047094870470AF07EBB0848DC
S31508002CA0704700BF00C3FFFF80C6FFFF80C5FFFF58
S31508002CB000C1FFFF80C0FFFF80C1FFFF00C2FFFF0A
S31508002CC080C7FFFF70B5094D0446286008480160B3
S31508002CD0084909480A60094A1360A0472B6808484A
S31508002CE098472B680748BDE8704018471822002007
S31508002CF01422002010220020F01100200C220020AF
S31508002D008C110020281100202DE9F04FCBB002903D
S31508002D1008460C4605250DF0F8FD0023CDE90753B6
S31508002D2009930593029B27181E68002E40F0F2802F
S31508002D302546B2464FF0010BDFF83C92BD4206D954
S31508002D400998002837D148464BB0BDE8F08F2B7854
S31508002D50BBF1000F00F0F9803D2B40F0D980DFF879
S31508002D601CA22A1BDAF800603EB9214607A809F01A
S31508002D702FF8002800F0E780F6E0DAF804309A42E7
S31508002D8008D12146304603920DF04AFD039A0028E1
S31508002D9000F0C6800AF1100AE4E72378232B7AD1DB
S31508002DA000232A1B02F1FF3B1BF00108069305D0FE
S31508002DB0DFF8C491099810F044FEC4E7033AB2F567
S31508002DC0027F4FEA5B0BF3D2594601200CF047FD10
S31508002DD0814600285CD0BBF1000F0ED14B4613F894
S31508002DE0014B05AA09EB0B0106A8069307F093FA0F
S31508002DF090B1484610F025FEDAE7013420460AF07D
S31508002E00D3FB0028F5DB09F8080008F10108C345DB
S31508002E1004F10204F2D1E1E7059AB2F5807FE8D819
S31508002E201F2C069907D8524BE340D80703D50B4603
S31508002E305018984226D10AA80DF0DEFC484610F034
S31508002E4000FEDDE90821059B029800930AAB07F00E
S31508002E50FBFB8146099810F0F4FD00230993B9F1AC
S31508002E60000F5AD02B46C9F80C401D460133AF4215
S31508002E701C4602D06A78202AF7D04FF0010B4FF093
S31508002E80000945E013F801CBBCF1000FD1D1B0E73A
S31508002E90DFF8EC908EE7BAF1000F62D10DF1280841
S31508002EA0C346A54204D8A8EB0B03F4680593C8E704
S31508002EB021785C2926D1A21C954204F101090392C6
S31508002EC013D948460AF070FB431C0ED0002848D098
S31508002ED0039A08F1010CC1B2ACEB0B0CBCF5807F70
S31508002EE008F8011B3DD0541CDBE74D4539D96178FC
S31508002EF0204803910DF048FB98B34A46039908F118
S31508002F00010CE9E7224608F1010CE5E74FF0000B52
S31508002F10013513E7DFF86C9015E7DFF8649012E7E0
S31508002F200390DAF808000DF0F0FC0146089001203D
S31508002F300CF095FC089ADAF8081009900DF05CFC7C
S31508002F40039B56469B46DA466C1C2B782C2B03D1E2
S31508002F5015F8013C5C2B01D1BD42D7D1A5427FF4BF
S31508002F601CAF099810F06DFDDFF80C90EBE600BF7A
S31508002F7000105850EC45010880DCFFFF1046010898
S31508002F8080D7FFFF00D8FFFF2DE9F04F0746A1B015
S31508002F900D4601204B21144609930CF060FC80462F
S31508002FA0002800F01F8100230B933B7A29460893DB
S31508002FB0FA682B190CA807930C930AF0B7FB041EA2
S31508002FC0C0F2F58000F0FA80224629460CA807F0E0
S31508002FD053FAA146041EC0F2EA80302229460DEBB8
S31508002FE0020007F06DFA061EC0F2F380A1444E44B3
S31508002FF0324629460CA807F03FFA041EC0F2D780CD
S31508003000312229460CA807F05BFAB0F10009C0F294
S31508003010DC8009232946744A0CA807F0B8FA002868
S31508003020C0F2D58026444E4400EB06094A46294696
S315080030300CA807F021FA041EC0F2B98030222946EE
S315080030400DEB020007F03CFA061EC0F2C280A1444E
S315080030504E44324629460CA807F00EFAB0F1000A8B
S31508003060C0F2B180A02229460CA807F029FAB0F1CF
S315080030700009C0F2AA800C9A29463868521B09F042
S3150800308021F8041EC0F293800C9B29461B1B7A6804
S315080030900CA80C930AF09AFAA346041EC0F287807D
S315080030A0002229460CA807F0BAFA0028C0F28F8039
S315080030B056444E445E44264400EB06094A462946D1
S315080030C00CA807F0D9F9041E71DB302229460DEB4E
S315080030D0020007F0F5F9061E7BDB0FAB01934023D0
S315080030E00898A1444E44009332466B440C9940F02C
S315080030F0007009F0F1FA034600286CD12A9A049266
S31508003100099A03920EAA02924B22CDE9008210AACE
S31508003110397A386808F01AFF0446002847D1012191
S31508003120386808F00AFF00284AD10421386808F0F0
S3150800313004FF002852D04FF004094846397A0BABF1
S315080031400AAAFEF7BFF9044688BB32460C992846F8
S315080031500DF054FC079BCDF808900D930E9BA9190A
S31508003160CDE90083DDE90A230DA80AF095FA041EC5
S315080031701DDB0D983246801B294626440D900DF01E
S315080031803DFC324629460DA807F076F9041E0EDBEB
S31508003190302229460DA807F093F9071E20DB0D9A61
S315080031A000212846521B0DF043FC34443C4440465B
S315080031B010F047FC204621B0BDE8F08F264648E7C8
S315080031C04FF00109B9E75446F1E74C46EFE70446E4
S315080031D0EDE73446EBE76FF06F04E8E7034CE6E704
S315080031E03C46E4E7024CE5E7E047010800DDFFFF5F
S315080031F080D7FFFF70B5002686B005960A9E0C4656
S3150800320000961546FFF7C0FE00280ADB2A1A05AB0A
S31508003210CDE9015304490346009404482244FEF7C5
S315080032208FF906B070BD00BFEA4701080D480108CE
S31508003230BFF34F8F0549064BCA6802F4E062134391
S31508003240CB60BFF34F8F00BFFDE700BF00ED00E086
S315080032500400FA050348044A0449121A92100AF0AF
S315080032600ABB00BFB4010008600300085020002014
S3150800327008B5154B83F30A8800F030F8FFF7EAFF24
S31508003280124B13498B4212D30020124B12498B4220
S3150800329018D3FDF7B1F8186850F82240586840F876
S315080032A02240013298688242F5D30C33EAE70022BD
S315080032B0F8E71C6844F8220001325C68A242F8D399
S315080032C00833E4E70022F8E7000000206852010806
S315080032D07452010874520108745201084FF480416F
S315080032E0144B154A70B59A60D3F88820134D42F4EA
S315080032F07002C3F88820124A05F5005491664FF00B
S31508003300FF3222666FF4003262660D22A26602223E
S31508003310C3F8D020BFF34F8FBFF36F8F4FF44036FB
S31508003320002003F0FBFD0020E66003F0E9FD2E61B6
S3150800333070BD00BF00ED00E00000000800800044FA
S31508003340009000502DE9F04F144605460E469B4660
S31508003350C36B87B001225B6902A960689847EB6B6B
S3150800336001225B6903A93046984702A80AF0EEFED7
S31508003370074648B10023A37563754FF0FF33A36072
S31508003380002007B0BDE8F08F03A80AF0ECFE012381
S31508003390A375237E04EBC303DE611F846368B3420F
S315080033A00ED1206003A80AF000FF4FF0FF33207506
S315080033B0A360237D043B022B26D80023A375DFE7F1
S315080033C023681A1A53425341A37503A80AF0EDFE5F
S315080033D0237D834218BFA77503A80AF0C8FE0746CF
S315080033E002A80AF0C4FE874218BF002303A818BF24
S315080033F0A3750AF0C4FE074602A80AF0C0FE874273
S315080034001CBF0023A375D4E703A80AF0B0FE80B159
S31508003410EB6B022230465B6904A9984704A80AF0B8
S31508003420B5FE0346207D032839D8DFE800F0383892
S31508003430040903A8F3E7CC22237E04EBC3031A840A
S3150800344001F0A0FA109B187003A8277E0AF083FEE5
S3150800345004EBC70787F82200237E03A804EBC303FF
S31508003460B3F8209093F822700AF081FE804603A8EC
S315080034700AF085FE8246B8F1000F15D0EB6B0222E2
S3150800348030465B6904A9984704A80AF044FE6075AB
S31508003490637D6BB90023A3754FF0000838E0227EE0
S315080034A004EBC2021384CBE703A80AF01FFEEEE77B
S315080034B094F81680B8F1000FEED0B9F1000F09D1D3
S315080034C0DFB10123E375637E002B4FD1012F42D173
S315080034D0677614E06B6C06EB0A02594286EA02002C
S315080034E008421CBF0021A175591E0A409B1A99451E
S315080034F0D0D8A37D002BE3D1CEE7E37D43B94FF0C7
S3150800350000084B465246314628460AF061FBA06041
S31508003510A27D12B123694B4423611A49237E097897
S3150800352099422AD901332376BBF1000F27D032B34B
S31508003530E37D23B3B8F1000F21D1032F1FD0A16873
S315080035404B1C1CD0109B2246009328460123FFF7EC
S31508003550F9FEA07513E095F8343063B9EB6A0133C8
S31508003560CFD1032FCDD10123A376C8E7012FCFD022
S31508003570032FC4D1F7E79846C3E70023A375A07DB8
S31508003580FFE600BF544801082DE9F04F0E4698465D
S3150800359000238BB004464FF0FF31104617468DF8CE
S315080035A0133001F0D9F9B6F5801F3BD3B21C53D1BD
S315080035B0E56A6B1C57D12046616A0AF04FFA054640
S315080035C0B31C18BF0123DFF810910193636A626C7C
S315080035D00293236805A902FB053AE36B05225B699A
S315080035E05046984705A80AF04CFE0AF06FFE50466A
S315080035F00AF077FE4FF0000B824601464B1C05D0B9
S31508003600636C81EA0A025B42134232D0294620469D
S315080036100AF024FA029BAB424DD0BBF1000F4DD104
S315080036200546D3E7314605AA04F108000AF0E0FC8E
S315080036300146481C10D0384601F08EF90122394659
S3150800364020460DF113030AF015FB28B19DF8133037
S3150800365088F80030002003E0237C002BA8D12D2019
S315080036600BB0BDE8F08F2368ED1A636CB5FBF3F574
S31508003670A6E7484601F070F90DF1130349462046BE
S31508003680019A0AF0F7FA034690B1B21C03D0D9F8AA
S315080036900020B2420CD19DF8132003930D4B88F8F5
S315080036A0002049461A6838460DF0A6F8039B9B4643
S315080036B0D9F80810A2E7BBF1000FD0D0B6F5801FE5
S315080036C0C8D2314698F800307A6804F1080001F04B
S315080036D089F8BFE750480108881200202DE9F34110
S315080036E00446174698460E46194D816AE36A8B4288
S315080036F02AD04B1C18E0284601F02EF9012229464B
S3150800370020460DF107030AF0B5FA30B143462946BB
S3150800371020469DF80720B847B0B1A9684A1C05D0CD
S31508003720012E0AD0E36A9942E5D10DE06968204680
S315080037300AF021FA012E0146D8D16B6881EA030204
S31508003740636C5B421A42D1D002B0BDE8F08100BF7B
S315080037505C1200202DE9F0474FF0FF334FF6FF7259
S315080037600025044600F10806C0E909238AB0C362A9
S315080037700562056330460F460AF00BFC20460AF040
S31508003780EDF828BB204639460AF0B8F920460AF073
S31508003790E5F828BB5E200AB0BDE8F087E26B23682F
S315080037A0606CD2F814C000FB0530052205A9E04775
S315080037B005A80AF066FD012840F0838029462046C0
S315080037C00AF06DF9421C294620460AF0E6F801354A
S315080037D0E3699D42E2D320460AF0C0F80028D1D01A
S315080037E020460AF0EBF84FF6FF72636A934200F040
S315080037F0B080E26B676C2068694607FB0300556971
S315080038000522A84768460AF013FD626A2368606CB9
S31508003810514D00FB02300AF064FD4FF0FF33A06201
S31508003820E3622A466FF00101204605ABFFF7ACFEBE
S31508003830002850D1AD6829462046E5620AF06AF8A4
S31508003840206320B92046E16A0AF095F9E062294624
S3150800385020460AF090F90546A36A9D423DD12046C6
S315080038600AF016F800278046B946E369994546D313
S31508003870B84563D92046616A0AF0F0F8002605467D
S3150800388004F1400ABE4212D3626C2368694602FB01
S315080038900539E36B05225B694846984768460AF08E
S315080038A0C7FC534602464946E06B0AF01CFD29460A
S315080038B020460AF0D3F80136B0450546E2D1642021
S315080038C069E70AF008FD002881D0294620460AF053
S315080038D0E6F8024677E7A56AADE7294620460AF0E4
S315080038E019F8236B294603440746236320460AF042
S315080038F042F90546002FAFD1C4E90B07ACE7636C64
S315080039002568052203FB0955E36B05A95B6928466B
S31508003910984705A80AF0B5FC0AF0D8FC58B128461D
S315080039200AF0DFFC0146204609F0F4FF636C143BFD
S31508003930984208BF013709F1010996E730460AF0AF
S3150800394028FB002320461946044AFFF7C7FE002035
S3150800395021E767201FE700BFB412002063DC0008D8
S315080039602DE9F041036B9046826B07689A4288BF3F
S315080039708363426C436A90B002FB0377C36B0E46BF
S31508003980052201A95B6904463846984701A80AF04A
S3150800399078FC01280146307057D0656CE26B2368C5
S315080039A0606AD2F814C005FB0030052206A9E04774
S315080039B006A80AF066FC01284FF0000523D0D4E9D2
S315080039C00A3201219342CDE90B458DF834800E95D4
S315080039D08DF83C102AD1194620460AF0CCF8236BFC
S315080039E0626C14339B1AE06223630C9B53B99DF8EF
S315080039F03C303BB1626A616C2368E06B01FB0231C3
S31508003A000AF0F7FB0C9DE36B05225B6901A93846B2
S31508003A10984701A80AF035FC30702846236BA26B3C
S31508003A209A4288BFA36310B0BDE8F081237C33B9FE
S31508003A301C490BAA04F1080000F022FFD5E720462E
S31508003A40194A0BABFFF74AFECFE7237C23BB224676
S31508003A50164904F1080000F013FF616A20460AF0CF
S31508003A601EF8616A421C204609F097FF054620B9F0
S31508003A70236B626C1344143B23632046A16A0AF045
S31508003A807AF82368A062C01A636CB0FBF3F0606230
S31508003A9020460AF0B3F8B6E700232046044AFFF7A3
S31508003AA01DFEDAE7F941000875410008FDDC00084B
S31508003AB099DC000873B50D46D11E4A421C461B7E8A
S31508003AC04A419A4226D129682368994222D36368D3
S31508003AD099421FD8114E0DF107033246FFF754FDE0
S31508003AE0C0B972686B689A4214D19DF80730DA1E1D
S31508003AF053425341227E93420CD163690133636179
S31508003B00D4E90323934205D22968A26842F8231010
S31508003B1001332361012002B070BD00BFB41200203A
S31508003B202DE9F04F9A468BB09DF85030DFF850B12A
S31508003B300293DBF81030804653450D461646C0F012
S31508003B409980D146DBF804300193B9F1000F00F0F3
S31508003B508D80D8F83C3001225B6907A901989847FF
S31508003B6007A80AF000FBDBF80030984240F0858091
S31508003B7007A80AF004FB0428074614D107A80AF088
S31508003B8005FB019B029A04463B44002A3FD1864224
S31508003B9012D91446361A4046019909F0ECFFA9EBEA
S31508003BA004090190D1E7D8F83C3002225B690198F4
S31508003BB008A9984708A8E2E7841B544528BF544635
S31508003BC0032C03EB0607AAEB040A4FEA94021CD956
S31508003BD0D8F83C30294638465B69984724F00303F1
S31508003BE004F003061F441D44002ED4D0D8F83C30F8
S31508003BF001225B6908A9384698473246284608A92B
S31508003C0035440CF0F9FD0026C5E72646ECE70746DD
S31508003C1000F00302039203442A1804920593049BB6
S31508003C20DD1B059BD81B039B9F420FD1002FB2D0EB
S31508003C30D8F83C30012208A95B6998473A462846D5
S31508003C4008A90CF0CBFE78B93D44A4E7D8F83C3077
S31508003C50012208A95B6998470422284608A90CF09E
S31508003C60BDFE08B9043FDAE74FF0360948460BB0FF
S31508003C70BDE8F08F4FF06309F8E74FF06F09F5E7F5
S31508003C80E01200202DE9F0410F46164698460446F4
S31508003C9088B060B390F83450FDB1012109F053FEA5
S31508003CA000210E9BCDE90511CDE902379DF83C3080
S31508003CB0CDF804808DF81C30237C04968BB90D4909
S31508003CC001AA04F1080000F0DBFDDDE90553E06B0D
S31508003CD0002E08BF1D460AF01FF8284608B0BDE8A2
S31508003CE0F0812046044A01ABFFF7F8FCEDE70546EC
S31508003CF0F3E700BFC7DC0008B53A00082DE9F04F26
S31508003D0099B00F4609920A69416C0E931439D31D6E
S31508003D10B3FBF1F3013302EBC302036B0446934290
S31508003D20C0F0BC810023DFF844940D93E36A48464B
S31508003D301946079300F010FED7E9033604930E9B45
S31508003D40022B4ED1CC2E40F08A81099B002B42D003
S31508003D50394620460AF03EF8656C079A6B1E1340F2
S31508003D601490ED1AE36B01225B6916A978689847E7
S31508003D7016A80AF0FCF900280CBF04230823782E9D
S31508003D8006933DD9012300254FF0080A05933B68A1
S31508003D9005990E98C9F80030C9F810600AF009FAB2
S31508003DA04FEA9A0310930023DDF81CB089F8140033
S31508003DB00B930F9308930C93616C4A1E0BEA02024D
S31508003DC08B1A002E38D05544AB4240D8236B5B1A69
S31508003DD013442363ABE0049B1B68149308230693E0
S31508003DE0D0E7656C079A6B1E1340782EA5EB030582
S31508003DF016D8FB7D7BB9099B002BB3D10423069308
S31508003E00331DAB4210D9A6B1082DBBD80425002313
S31508003E10AA460593BBE7099B002BA3D10823EEE727
S31508003E20099B002B9ED1D9E7002505954FF0040A7A
S31508003E30ADE704250596F9E75345C7D3B0460BEB1E
S31508003E400A030393089B002B18BF032313E0A3EB75
S31508003E500A039E42B0460BEB0A0228BF98469E42CA
S31508003E600392EFD90123D9F8102089F81730964222
S31508003E7071D1C9F804B0089399F81730002B6CD0A3
S31508003E8099F818200899D31C09EBC3030132C3F823
S31508003E9004B0A3F80880997289F81820B8F1000FC1
S31508003EA014D00E9B022B5BD10B9B7BB90F9B434413
S31508003EB0032B0BD9E36B01229B69039814A9984736
S31508003EC00546002840F0EC8001230B93089B16A8B2
S31508003ED00193059B009399F814204346396800F02E
S31508003EE0F1FCE36B58469B69109A16A99847051E7C
S31508003EF00D9B18BF5B4652460D93594643462046CE
S31508003F0009F066FE236B08F10302A3EB0A0322F00D
S31508003F1003029B1AC9F808002363002D40F0C080ED
S31508003F200F9BDDF80CB04344A6EB08060F935946E1
S31508003F30204609F020FE00258346002E7FF43CAF7C
S31508003F408A4A3968936804F10800E36252680E9B4E
S31508003F5000F048FC84E002238DE7C9F804B09DE729
S31508003F60099B002B30D1049BB8F1030F43440A93F5
S31508003F7027D9DDE90301E36B4FEA98029B69984765
S31508003F800546002865D118F003025FD0049B28F087
S31508003F9003052B440493039B1D444FF0FF330499F8
S31508003FA015A815930CF028FCE36B28469B6901229B
S31508003FB015A9984705460A9B0493002D86D0039BAE
S31508003FC099E74246039DE8E7039B0A9307F1200316
S31508003FD01193FB7D78689BB100233D7E0C9AD9B27C
S31508003FE08D4211D9119903F1010C31F83310914220
S31508003FF026D9069907EBC303D8690A44104403E097
S315080040000C9B069A13441844E36B01225B6915A9B5
S315080040109847159B012213930C9B0A9804330C931B
S31508004020E36B13A99B699847039B0A9A43449B1A17
S31508004030042B054607D978B9134604330A93C8E70B
S315080040406346521ACBE70A9B0393B6E70A9B049387
S315080040503CE70A9B0493B2E70A9B0393AFE77026F3
S31508004060304619B0BDE8F08F002657E004F1080085
S3150800407009F08FFF3346314620463D4AFFF72EFBAF
S315080040803A69616CD31D1439B3FBF1F3013302EBC2
S31508004090C302236B9342BFF449AE65E01C26DFE7F3
S315080040A03D2D61D104F1080303932368079A606CD8
S315080040B0D61AB6FBF0F600FB06300AF012F9E16AEA
S315080040C08246204609F057FDA26A8242D8D0626C21
S315080040D0D9F80830511E0B40216BE062891A0B444F
S315080040E023630D992368CB1AB3FBF2F84645BBD177
S315080040F0079BB3EB0A0611D0E36BB20851469B69DE
S3150800410098478346E36A079A3344E362236B039826
S315080041109B1A5344236309F03CFF5E462368616C8F
S31508004120E06B01FB08310AF051F8204609F016FC4D
S31508004130204609F043FC626A2368606C00FB023083
S315080041400AF0CFF8A062204609F058FD2063002E39
S315080041508CD03A69616CD31D1439B3FBF1F3013382
S3150800416002EBC3029042A0D22E4679E788120020BD
S3150800417063DC0008032A2DE9F34106460D46174677
S315080041801C4606D1237A012B23D0012002B0BDE8B4
S31508004190F081DFF86080096842460DF10703FFF7F2
S315080041A0F3F960600028EDD19DF80720237A032AE9
S315080041B0E8D0D8F804106A689142E3D1012B29693E
S315080041C0D4F80CC007D172690CEB0103934202D9EB
S315080041D02074207CDAE708316144E1603B4601221D
S315080041E029463046FFF78AFD60600028CAD00020BD
S315080041F0CCE700BFB41200202DE9F341089C032A3E
S315080042001746266806D1237A012B24D0012002B04E
S31508004210BDE8F081DFF89080304642460DF107038D
S31508004220FFF7B2F960600028EDD12568D8F80400D8
S31508004230A96AD5F844C04840CCF100031840227A50
S31508004240E1D1012A09D1E268D8F81030134472691D
S31508004250934202D92074207CD9E72868EB6A1B1A96
S31508004260081AB3FBFCF3B0FBFCF083420BD1706C6D
S31508004270F36A421E1340326B121A134428463363FC
S3150800428009F079FCE862D8F81020E368083213448C
S31508004290E36001223B4604492068FFF72FFD606072
S315080042A00028B0D00020B2E7B41200202DE9F04172
S315080042B00025634B0E46D3F8008004461D6018B9E6
S315080042C021252846BDE8F08190F8347007B30A68BE
S315080042D003689A4240F0AA804A6843689A4240F0C6
S315080042E0A5808A6883689A4240F0A080CA68C36835
S315080042F09A4240F09B800A6943699A4240F0968048
S315080043008A69C36B9A4240F091804B698361D8E70A
S3150800431068223946856B0CF08BFBD6E902123368A6
S3150800432004F1080023607368A563636033696361F9
S315080043307369A36109F03FFEB36904F14000E363C2
S315080043409B68984720B9676C17B16368B3FBF7F7A2
S3150800435094F84330E761002BB2D00023656C2366DE
S31508004360002D6BD0002F69D02368B3FBF5F205FB4F
S315080043701233002B5CD16768B7FBF5F605FB16769A
S31508004380002E55D1204609F0B5FAA3690433034433
S315080043909F424FD340F634726369CC3B93424BD865
S315080043A0B5F5805F4AD30321204609F0CCFAD4E953
S315080043B00001E36B1B6898470546E36B0220DB6840
S315080043C098472DB184F83460E06B09F0A5FC78E7CE
S315080043D041462046FFF7BEF96428054604D1414602
S315080043E02046FFF7B7F90546636C143BD5B9226A30
S315080043F0204602FB03F609F07DFAA3690433034459
S315080044009E4203D284F834505A25DDE70123D4E9C5
S3150800441000010C4A84F8343013680133136009F03C
S3150800442064FED1E7002384F83430CDE75D2548E7FC
S31508004430592546E75A2544E75F2542E75B2540E7C5
S3150800444058120020541200202DE9FF410C4616464A
S315080044501F46054680B390F834307BB3B1F5801F0C
S315080044602ED2DFF86080012109F06DFA2146424616
S3150800447028460DF10F03FFF787F8044670B99DF833
S315080044800F30012B11D1D8F81030BB4212D1024699
S31508004490009031462846FFF743FB0446E86B09F0CF
S315080044A03BFC204604B0BDE8F081022B14BF2D2446
S315080044B06024F3E76324F1E72124F2E71124F0E707
S315080044C02924EEE7E01200202DE9F04385B00C46DA
S315080044D017461E460546DDF8308098B390F8343006
S315080044E093B3B1F5801F31D2DFF86490012109F04A
S315080044F02AFA21464A4628460DF10F03FFF744F8E3
S31508004500044688B99DF80F30012B14D1D9F810202C
S3150800451006EB08039A4213D30090434632463946BF
S315080045202846FFF7FDFA0446E86B09F0F5FB204636
S3150800453005B0BDE8F083022B14BF2D246024F3E7F1
S315080045406324F1E72124F2E71124F0E72924EEE7B2
S31508004550E01200202DE9F3411F4600230C461646BB
S3150800456005463B6050B390F834304BB3B1F5801F25
S3150800457028D2DFF85480012109F0E5F921464246A0
S3150800458028460DF10703FEF7FFFF0446A0B99DF87C
S315080045900730032B10D0022B0AD1012333600423E2
S315080045A03B60E86B09F0B8FB204602B0BDE8F08135
S315080045B0D8F810303060F3E72D24F2E72124F3E72A
S315080045C01124F1E72924EFE7E012002073B5044629
S315080045D0416909F074F9626E236B024493422CBF59
S315080045E000220122834294BF00231B1A207C84F8F0
S315080045F05020636584F85800A8B100230B4E1A466C
S3150800460019462046009609F0B2FC002305461A46CC
S3150800461019462046009609F0B3FCE36828449842F8
S3150800462094BF0020C01AE06502B070BDFFFF0F00FE
S315080046302DE9F3471E4643690446B34288461746A2
S315080046409DF828904FD300258DF8075020466169BC
S3150800465009F035F9D4F830A082450AD2236AB5EBB9
S31508004660430F06D2002220460DF10701FFF778F91D
S31508004670B8B39DF80730012B05D1002220460DF16D
S315080046800701FFF76DF9B9F1030F06D03146204649
S3150800469009F015F9256B854227D3154D4FF0FF31E3
S315080046A0284600F059F94B46294600222046C5E916
S315080046B00376C5F80080FFF721FB236E054663B134
S315080046C02046FFF783FF94F8503013B994F8583012
S315080046D01BB1236E04F150009847284602B0BDE886
S315080046E0F0870135B2E76225F7E71C25F5E700BF35
S315080046F0B41200202DE9FF410F4690461E46054696
S3150800470098B390F8343093B3B1F5801F31D21A4C70
S31508004710022109F018F92246394628460DF10F03F9
S31508004720FEF732FF024678B1012342460093394626
S3150800473033462846FFF77CFF0446E86B09F0ECFA97
S31508004740204604B0BDE8F0819DF80F30012BEBD16F
S315080047502169B142E8D10093414633462846FFF71E
S31508004760DFF904460028DFD1E7E72124E8E711242A
S31508004770E6E72924E4E700BFE012002030B50C463E
S31508004780054685B028B390F8343023B3B1F5801FB9
S3150800479023D2022109F0D7F80DF10F032146284646
S315080047A00F4AFEF7F1FE034688B99DF80F20032A43
S315080047B00DD003222146009202462846FFF738FF0D
S315080047C00446E86B09F0A8FA204605B030BD2D244A
S315080047D0F7E72124F8E71124F6E72924F4E700BFD0
S315080047E0E01200202DE9F043466886B3056898462E
S315080047F04FF0000CA946AE4655F83C400CF1010CAA
S31508004800C4F31307013401D0B94217D066450EF137
S31508004810080EF1D12F46002403E0A64207F1080747
S3150800482012D055F8343001340133F6D1C1F31301EF
S3150800483041EA0851C7E90012BDE8F08341EA085188
S31508004840CEE90012BDE8F083B8F1030F03D10123C6
S315080048500372BDE8F083002303E09E4209F10809CC
S31508004860F5D055F833400133C4F30754032CF4D17B
S31508004870C1F3130343EA0853C9E90032BDE8F083DC
S315080048802DE9F0410646406882B0C0B10F46904611
S315080048900024336853F8345003EBC403C5F30752B6
S315080048A0C5F31301013504F1010406D05B683046EF
S315080048B0CDF80080B84710B170688442E9D302B0D9
S315080048C0BDE8F08173B504462248012A00EAC11101
S315080048D09DF8185023F07C4007D9961E012E28D93A
S315080048E0073303F07F03194308E09DF81C300A4399
S315080048F0DB0603F0C053134343F060410023C4E9C9
S3150800490000108DF80730B5B1202221460DF10700B9
S3150800491009F003FD1A220DF10700211D09F0FDFC1F
S31508004920082063689DF8072043EA8263636002B043
S3150800493070BD1143E2E71B220DF10700214609F07D
S31508004940ECFC23689DF80720042043EAC263236031
S31508004950EDE700BF80FFFF0738B5094B0D461A681B
S31508004960002104460CF064F800234FF0FF3223833D
S31508004970C4E900252361A260E382A37638BD00BF9F
S31508004980504801080138C0B205289ABF014B185C87
S3150800499001207047554801082DE9F041074615469C
S315080049A000240E46596888B0490A012922464FEA6A
S315080049B0510104F10104F8D8DC78997824031B889E
S315080049C0C90201F4006104F480540C43C3F30A03DA
S315080049D05203234492B24FF000089C18274B6FEA03
S315080049E00444039325F07843ED4302A90DF107002B
S315080049F01B2202938DF8078009F08FFC9DF807208B
S31508004A00029B02A943EAC2630DF107001B2225F0A7
S31508004A107845049302958DF8078009F07EFC9DF889
S31508004A200720029B6FEA144443EAC26305934FF0DA
S31508004A30FF330794069307A9BB69012206F1100004
S31508004A409847BB6905A90446012206F1080098475C
S31508004A50BB69404518BF044604A90122301D984782
S31508004A600122404518BF0446BB69304603A998474A
S31508004A70404508BF204608B0BDE8F08101009AB25B
S31508004A80044BD3F88420D206FBD4D3F88400C0F3B1
S31508004A90811070470040005038B5174B0546D3F8CB
S31508004AA028310C4603F00703013B052B20D8DFE825
S31508004AB003F003131B0F0B170DF0C4FD052305B1F7
S31508004AC0286004B1236038BD0DF0BCFD0623F6E767
S31508004AD00DF0F8FD0723F2E70DF0EEFD0323EEE7F0
S31508004AE00DF0EAFD0423EAE70DF0E2FD0223E6E70E
S31508004AF000231846E3E700BF00800050002337B5BF
S31508004B000193164B0546D3F820320C4603F00703EB
S31508004B10042B21D8DFE803F0030B11161B00012331
S31508004B200DB1019A2A6004B1236003B030BD00219B
S31508004B3001A8FFF7B1FF1223F2E70DF0C3FD072323
S31508004B400190EDE70EF0BCFD0A230190E8E70DF0B1
S31508004B500DFE09230190E3E70023E1E700800050FA
S31508004B6038B5104B0546D3F850320C4603F003030C
S31508004B70022B12D0032B08D0012B0AD0002318468B
S31508004B8005B1286004B1236038BD0EF09CFD0C23E6
S31508004B90F6E70EF095FD0A23F2E70DF0E7FD092387
S31508004BA0EEE700BF0080005038B5104B0546D3F835
S31508004BB080300C4603F00303022B0BD0032B0DD0D9
S31508004BC0012B0FD10DF044FD0E2305B1286004B169
S31508004BD0236038BD0DF076FD0723F6E70DF032FDAC
S31508004BE00623F2E700231846EFE700BF00800050CF
S31508004BF038B5104B0546D3F800310C4603F00303CD
S31508004C00022B0BD0032B0DD0012B0FD10DF054FD29
S31508004C10032305B1286004B1236038BD0DF0A6FD55
S31508004C200923F6E70EF04AFD0823F2E701230020E0
S31508004C30EFE700BF0080005038B5184B0546D3F89B
S31508004C4020010C4600F00700062823D8DFE800F00C
S31508004C50040A0E16121A1E00012305B1286004B1B3
S31508004C60236038BD0DF0EEFC0523F6E70DF024FDB4
S31508004C700323F2E70DF026FD0723EEE70DF018FDF6
S31508004C800223EAE70DF0DEFC0623E6E70DF014FD45
S31508004C900423E2E700231846DFE700BF0080005040
S31508004CA038B5104B0546D3F840310C4603F00303DC
S31508004CB0022B0BD0032B0DD0012B0FD10EF000FDCC
S31508004CC00A2305B1286004B1236038BD0DF04EFDF6
S31508004CD00923F6E70EF0F7FC0C23F2E70123002080
S31508004CE0EFE700BF00800050002337B50193164B4D
S31508004CF00546D3F860320C4603F00703013B032B45
S31508004D001FD8DFE803F0020E1914002101A8FFF7E7
S31508004D1093FF10230DB1019A2A6004B1236003B0F2
S31508004D2030BD002101A8FFF7BBFF1123F2E70DF004
S31508004D30C9FC07230190EDE70DF0BAFC02230190A8
S31508004D40E8E70023E6E700BF00800050002337B5F8
S31508004D500193164B0546D3F894320C4603F0070325
S31508004D60013B032B1FD8DFE803F0020E19140021BC
S31508004D7001A8FFF761FF10230DB1019A2A6004B15B
S31508004D80236003B030BD002101A8FFF789FF112376
S31508004D90F2E70DF097FC07230190EDE70DF088FC8C
S31508004DA002230190E8E70023E6E700BF00800050F1
S31508004DB038B5104B0546D3F860310C4603F00303AB
S31508004DC0022B0BD0032B0DD0012B0FD10EF078FC44
S31508004DD00A2305B1286004B1236038BD0DF0C6FC6E
S31508004DE00923F6E70EF06FFC0C23F2E701230020F7
S31508004DF0EFE700BF0080005073B50D460021114B48
S31508004E000191D3F88041064604F00304022C13D01E
S31508004E10032C0CD0012C13D101A8FFF70DFF102489
S31508004E200EB1019B336005B12C6002B070BD0DF068
S31508004E3049FC07240190F3E70DF03AFC0190EFE7EF
S31508004E400C46EDE70080005038B5104B0546D3F800
S31508004E5040320C4603F00303022B0BD0032B0DD074
S31508004E60012B0FD10EF02CFC0A2305B1286004B1E2
S31508004E70236038BD0DF07AFC0923F6E70EF023FC13
S31508004E800C23F2E701230020EFE700BF0080005063
S31508004E9038B5144B0546D3F800020C4600F0070057
S31508004EA004281BD8DFE800F003090D1115000123BB
S31508004EB005B1286004B1236038BD0EF001FC0A2351
S31508004EC0F6E70DF053FC0923F2E70EF0FCFB0C2382
S31508004ED0EEE70DF0D7FB0F23800AE9E70023184613
S31508004EE0E6E700BF0080005038B5144B0546D3F8F6
S31508004EF008020C4600F0070004281BD8DFE800F07B
S31508004F0003090D111500012305B1286004B12360BA
S31508004F1038BD0EF0D5FB0A23F6E70DF027FC09236A
S31508004F20F2E70EF0D0FB0C23EEE70DF0ABFB0F23F8
S31508004F30800AE9E700231846E6E700BF008000502C
S31508004F40B0F5207F1FD009D8B0F5007F15D003D85B
S31508004F5068B1B0F5C07F0AD000200CE0B0F5607FDC
S31508004F60FAD10B4BD3F88000C0F3011003E0084BCD
S31508004F70186FC0F3033001307047054BD3F8900023
S31508004F80C0F30460F7E7024B186FC0F38020F2E71E
S31508004F900080005002464FF48030104B10B59866DA
S31508004FA00020FFF7CDFF504341F671320C4BDC6908
S31508004FB0DA635A6804F4803422F4401259B909496C
S31508004FC0884294BF00200120000502435A600CB1B4
S31508004FD00022DA6310BD0449F2E700BF00900050D2
S31508004FE000000350005A6202002D31014209531E87
S31508004FF0022B96BF074B002303EB820300F01F002A
S3150800500029B103F58053012282401A60704703F5DF
S315080050100053F8E7608000501FB50021B0F5807F87
S315080050200446CDE9001100F0CF803BD8002800F0F7
S31508005030A480A0F12004602C44D8602C42D8DFE874
S3150800504004F09CA49CA4B4B4B4B4B4A4BE4AD46A70
S315080050504AA4A4A44141414141414141A4A4A47C9C
S31508005060DEA4414141414141414141414141E3B40D
S315080050709C9C9CD94A4A88E85FB941414141419381
S315080050809C41B4B4B4B4B4B9B9A441A4A44141414F
S3150800509041414141414141414141414141414141F2
S315080050A041419800B0F5E06F00F0A98038D8B0F516
S315080050B0607F75D01AD8B0F5007F61D005D8B0F5F5
S315080050C0C07F5AD0009804B010BDB0F5207F5CD0E0
S315080050D0B0F5407FF6D10DF0D5FA02464FF42070B0
S315080050E0FFF72EFFB2FBF0F2520857E0B0F5B06FAB
S315080050F065D00AD8B0F5806F57D0B0F5A06FE1D16A
S3150800510000216846FFF7FAFCDCE7B0F5C06F6CD003
S31508005110B0F5D06FD6D100216846FFF7B9FED1E7C2
S31508005120B0F5186F70D00DD8B0F5086F7FD0B0F510
S31508005130106F5FD0B0F5F06FC4D100216846FFF755
S3150800514037FEBFE7B0F5286F63D007D8B0F5206FF4
S31508005150B8D100216846FFF7C7FDB3E7B0F5406F41
S3150800516028D0B0F5486FADD100216846FFF7EEFDAF
S31508005170A8E70DF06DFA0090A4E70DF083FAFAE7B8
S315080051800DF066FA0246204604E00DF07BFA024668
S315080051904FF42070FFF7D4FEB2FBF0F2009291E7CD
S315080051A001A8FFF701FD019AEDE700216846FFF720
S315080051B043FD87E700216846FFF76EFC82E700217A
S315080051C06846FFF719FE7DE74FF0E02302911B6959
S315080051D05B0705D50DF056FA0290029B009371E71E
S315080051E003A902A8FFF75CFDF7E700216846FFF769
S315080051F057FD67E700216846FFF776FE62E700215C
S315080052006846FFF721FE5DE700216846FFF7A8FC20
S3150800521058E70021084B0391D3F8703203F00303D3
S31508005220012B02D103A8FFF73BFD039BD6E768468F
S31508005230FFF7DEFC46E700BF0080005008B5802077
S31508005240FFF7EAFE034B98429EBF4FF48032024BAB
S315080052501A6708BD005A620200A00050B0F5207F08
S3150800526010B50C465DD008D8B0F5007F4ED003D8EF
S31508005270C0B1B0F5C07F15D010BDB0F5607FFBD1C9
S315080052802C4B4C1ED3F8FC202B4912F0807F4FEA9A
S31508005290041427D1D1F8803023F030032343C1F812
S315080052A08030E9E709F057F809F063F84FF48031E0
S315080052B0224B214A1967136F013C23F4704343EAD2
S315080052C0043313670DF0DEF90446FFF7D9FBC0F186
S315080052D00201204609F047F800F04AF8BDE81040F8
S315080052E0FFF7ACBFD3F8FC2022F08072C3F8FC208D
S315080052F0D1F8802022F030022243C1F88020D3F86A
S31508005300FC2042F08072C3F8FC20B5E70A4A4C1E1E
S31508005310D2F8903023F0F85343EA0463C2F8903089
S31508005320AAE7054A4C1E136F23F4806343EA8423D5
S315080053301367A1E700ED00E00080005000900050E0
S3150800534008B50121022000F057F84FF42070FFF746
S31508005350F7FD054B187008F0FEFF09F00AF84FF440
S315080053608032024B1A6708BD251F002000900050A6
S3150800537008B54FF4C070FFF74FFEBDE80840044972
S31508005380884294BF012102214FF42070FFF766BFBF
S3150800539080F0FA0238B504460DF074F90546FFF7B1
S315080053A06FFBC0F10201284608F0DDFF012100204D
S315080053B000F062F82CB1FFF7DBFFBDE83840FFF7D5
S315080053C03DBF034B4FF420701978FFF747FFF4E70A
S315080053D0251F0020024A536B0342FCD1704700BFC9
S315080053E000800950034A0179D36E23F030030B433A
S315080053F0D366704700400050F8B504461C4BD3F8F6
S315080054008420D106FBD4D3F88430C3F381139C429D
S315080054102CD00DF01DF9012C064602D1214608F0C4
S31508005420A2FF0EF02FF94FF00072124B07465A668C
S31508005430204608F0A3FF4FF480630D4D621E93408B
S315080054402B676B6E9A0103D4D5F884309B060AD570
S3150800545038460EF012F9022C08D13046BDE8F8405D
S31508005460002108F080BFD5F88430EAE7F8BD00BF10
S31508005470004000500060005010B50C4608B90DF009
S31508005480E7F8074B21461B783BB1064B984204D8F0
S315080054900120BDE81040FFF7AFBF0220F9E700BFC3
S315080054A0261F0020005A62024FF0004238B5244BEE
S315080054B0244C5A664AF6CD33656C014605F001055B
S315080054C0236428BB0120FFF785FF6368DB0715D532
S315080054D01D4B586008461D4B226BD2070CD49842C8
S315080054E008D1072415B1174B194A1A6408F047FF63
S315080054F0204638BD0130EFE79842F2D00024F1E7A4
