S01C00006275696C642F64656275672F67656E657261746F722E7333379C
S31508000000000400207922000895AF000895AF000883
S3150800001095AF000895AF000895AF000895AF0008A2
S3150800002095AF000895AF000895AF0008ED170108D1
S3150800003095AF0008683D01089117010807270108D0
S3150800004095AF000895AF000895AF000895AF000872
S3150800005095AF000895AF000895AF000895AF000862
S3150800006095AF000895AF000895AF000895AF000852
S3150800007095AF000895AF000895AF000895AF000842
S3150800008095AF000895AF000895AF000895AF000832
S3150800009095AF000895AF000895AF000895AF000822
S315080000A095AF000895AF000895AF000895AF000812
S315080000B095AF000895AF000895AF000895AF000802
S315080000C095AF000895AF000895AF000895AF0008F2
S315080000D095AF000895AF000895AF000895AF0008E2
S315080000E095AF000895AF000895AF000895AF0008D2
S315080000F095AF000895AF000895AF000895AF0008C2
S3150800010095AF000895AF000895AF000895AF0008B1
S3150800011095AF000895AF000895AF000895AF0008A1
S3150800012095AF000895AF000895AF000895AF000891
S3150800013095AF000895AF000895AF000895AF000881
S3150800014095AF000895AF000895AF000895AF000871
S3150800015095AF000895AF000895AF000895AF000861
S3150800016095AF000895AF000895AF000895AF000851
S3150800017095AF000895AF000895AF000895AF000841
S3150800018095AF0008A984000895AF000895AF000848
S3150800019095AF000895AF000895AF000895AF000821
S315080001A095AF000895AF000895AF000895AF000811
S309080001B095AF0008F1
S315080001B4F0B5114A114C124E00F00105E3695F07C8
S315080001C413D40DB9334213D103EA00078F4207D17A
S315080001D40B4A1A40002A0CBF00206FF00100F0BD3C
S315080001E4013AEBD16FF00200F9E74FF0FF30F6E77A
S315080001F46FF00100F3E700BF8096980000000350F3
S31508000204020001000B4B70B5D96911F480310DD188
S3150800021401244FF48072084E084DF46020462C647D
S315080002241A61FFF7C5FF3464EC6070BD6FF0010016
S31508000234FBE700BF000003500010035000200350E2
S315080002444FF4803238B50E4B0E4C9A66E56941F682
S31508000254713315400122E3630B4B0021DA60022354
S31508000264606121202361FFF7A3FF10B92120FFF75E
S315080002749FFF0122054BDA600DB10023E36338BD05
S315080002840090005000000350001003500020035053
S3150800029470B5134C6061E3695B071ED40E4656F8C5
S315080002A4043B8D18A361AE420BD1042300212120FF
S315080002B42361FFF77DFF58B9BDE870402120FFF799
S315080002C477BF08210846FFF773FF10B1042323619B
S315080002D470BD56F8043BA361E5E74FF0FF30F7E736
S315080002E4000003502DE9F84315464FF48032184BA5
S315080002F489469A6603F51C33DF690646174041F6B4
S315080003047132DA63012203F58053DFF84C80DA6030
S3150800031455B9284601220F4BDA601FB10022A3F50E
S315080003240053DA63BDE8F88306F5005404EA0804C2
S31508000334A41BAC4228BF2C46494622463046FFF742
S31508000344A7FF0028E6D12644A1442D1BE0E700BFF9
S31108000354009000500020035000E0FFFF5E
S315080003600348044B834202D0034B03B11847704736
S31508000370202D0020202D002000000000064B0749F4
S31508000380C91A891048BF0131491003D0044B0BB173
S3150800039001481847704700BF202D0020202D002057
S315080003A00000000010B5064C237843B9FFF7D8FFC4
S315080003B0044B13B10448AFF300800123237010BD2A
S315080003C0F01D002000000000E44D010808B5054BAB
S315080003D01BB105490548AFF30080BDE80840FFF7A3
S315080003E0CDBF00BF0000000068040020E44D0108EE
S315080003F0A3F5803A704700BF174B002B08BF134B75
S315080004009D46FFF7F5FF00218B460F461348144A11
S31508000410121A10F0FBFE0E4B002B00D098470D4B1E
S31508000420002B00D098470020002104000D000D483D
S31508000430002802D00C48AFF3008009F005F9200027
S3150800044029000CF01FF809F069F800BF0000080041
S315080004500000000000000000000400200004002046
S31508000460BC1F0020000000000000000030B589B065
S31508000470044609F054FE01230E4A0025CDE902235D
S315080004800D4B01A805934FF47053CDE9065401931B
S3150800049009F038FE019B04930CF06FF8000240F057
S315080004A001000390694602A8009507F0CFF809B045
S315080004B030BD00BF1271000109060006F0B589B00B
S315080004C00C461546064609F02AFE0123114A00275E
S315080004D0CDE90223104B01A805934FF47053CDE9DB
S315080004E00676019309F00EFE019B04930CF045F87D
S315080004F0000240F0010021466B462A46039002A8F6
S31508000500009706F089FF044602A80FF0B2F92046C4
S3150800051009B0F0BD127100010906000610B50A4BB4
S3150800052086B0144602930023059103901A46CDE936
S315080005300033214405A80CF0BEFD002814BFAC20EA
S31508000540002006B010BD00BF41A100082DE9F0410A
S31508000550CEB0549D1C462B6806460F469046002B87
S3150800056055D06B68B3F5007F51D302A80FF0C0FFD2
S315080005706368E3B12468274B2278002A08BF1C4623
S3150800058000217C2207A8069110F040FE8021234610
S31508000590CDE90078204A06A809F002FC06A902A8B7
S315080005A00FF0BFFF28B1AC204EB0BDE8F081194C62
S315080005B0E6E7092102A80FF0B0FF3068FFF756FFFB
S315080005C026A80EF030FB316826A806F027F904465F
S315080005D00028E8D126A902A80FF0A1FF0094234617
S315080005E0D5E9001202A807F0E9FE04460028DAD188
S315080005F0286810F078FD6B680130984201D910F030
S31508000600F6FC686002A80FF077FF2046CCE72F209B
S31508000610CAE700BFE8360108F6360108F0B50C4609
S31508000620002197B00646154607A83C22069110F009
S31508000630EDFD402305AACDE9013206AF00970593E3
S315080006400E49D4E9002330680EF091FF044698B9A4
S31508000650059E6B689E420DD832463946286810F0CA
S31508000660BBFD6B689E4201D910F0C1FC20466E6046
S3150800067017B0F0BD1920FBE7AC20F9E7090600061C
S31508000680044808B500680BF03CFA002814BFAE20F1
S31508000690002008BD5C22002008B5034B18680BF043
S315080006A01FFA002008BD00BF5C22002038B50446AA
S315080006B00D46204609F053FD6B7C002857D0052BC4
S315080006C059D0032B17D0042B38D0012B4DD1022239
S315080006D02146284609F001FE002833D12946284636
S315080006E009F03FFE70BB95F82430002B0CBF03239E
S315080006F005236B74DDE795F825209AB1214628462F
S315080007002A7F09F0EAFDE8B92946284609F06AFE73
S31508000710C0B995F8253073B90223AA691A442A6222
S315080007200423E6E72B7D013BDBB2022B9CBF134A71
S31508000730D25CAA61F0E72B7F0233EEE795F8243006
S315080007400BB1232038BDAA690AB91820FAE7214651
S31508000750284609F0C2FD0028F4D12946284609F0A2
S3150800076069FE0028EED10523C3E70320EAE7052B37
S3150800077001D00D20E6E70020E4E700BF10370108A6
S31508000780004870476C210020024A0349034810F0CC
S315080007907BBA00BF682100200FA500086C21002045
S315080007A00023F0B590F8C12087B00446019322B122
S315080007B0A0F8C03017480AF0BDFB0025164F04F113
S315080007C0B806304601ABC5F180027919FFF758FF24
S315080007D0C0B1DDB1114B04AA0493802302A92046B7
S315080007E0CDE90275059309F0A9FEDDE9041280F04A
S315080007F0010084F8C1003046FFF74EFF30B10020F3
S3150800080007B0F0BD019B01901D44DAE794F8C000DB
S31508000810F6E700BFF8050020711E0020F11D002034
S31508000820836810B504460BB92F2010BD1A491A6BF8
S31508000830D1E900138B4298BF002302F1040288BF56
S315080008405B1A9A4204D000231348194609F070FF30
S31508000850A36812491A6BD1E900138B4298BF00238B
S3150800086002F1080288BF5B1A9A4204D000230B489B
S31508000870194609F05DFFD4E90312A06801F078F97A
S315080008800028D2D1237E2BB16169A06801F0F8F85F
S315080008900028CAD10020C8E7B8050020880500202E
S315080008A02DE9F341054608460C4609F065FC06465F
S315080008B078B1254809F053FC58B186423246224998
S315080008C028BF0246204609F0ECFC10B102B0BDE88C
S315080008D0F0811E4F1C4E27E03368013AC6E9023301
S315080008E0D7F80031C7F8042157F82300013303F07D
S315080008F03F030190C7F800312846CB69124A01A97F
S3150800090098470028E2D1204609F036FC8046304652
S3150800091009F025FC80454246314628BF0246204656
S3150800092009F0BFFC0028D1D1204609F025FC29682A
S3150800093018B1D7F80421002ACED12846CB6802B0D0
S31508000940BDE8F041184700BF880500208004002054
S3150800095070B504460D460E4E284609F000FC28B927
S3150800096023682046BDE870409B68184731462846EC
S31508000970FFF79CFE0D28EFD048B9236820469B69EF
S315080009800349984718B9024809F0F5FEE4E770BD2F
S31508000990B805002091F8273070B506460C464D8AF2
S315080009A02BB10A7D1948294609F008FF30BBB5F571
S315080009B0827F0AD8B5F5807F0BD9A5F58175022DFA
S315080009C009D8DFE805F00C0A0F0040F23B139D42F8
S315080009D011D0A62012E0E36AF36000200EE0E36A75
S315080009E03361FAE794F8243083F00103337603B1D0
S315080009F0E36A7361F1E7B2680AB92F2070BDA38D67
S31508000A00002B08BF4FF400731363E6E78004002049
S31508000A1008B503480A7D498A09F0D0FE08BD00BF1B
S31508000A208004002070B586680C460EB92F2070BD6C
S31508000A3091F8263003B9B43694F82730257D33B1BA
S31508000A402A46618A174809F0B9FE0028EFD1032D16
S31508000A5026D8DFE805F016020E1133689B6894F86D
S31508000A602420618A5AB904F12C023046BDE8704048
S31508000A70184733681B69F2E733689B69EFE700227A
S31508000A80F3E73368618ADD6A94F8243033B9E26A99
S31508000A903046AC46A369BDE8704060470022F7E7D8
S31508000AA02620C4E7800400200A46498A10B5B1F515
S31508000AB0A27F15D008D840F2051399421AD0B1F58D
S31508000AC0A17F0DD0A6200AE040F2A1139942F9D1E0
S31508000AD0806838B10368DC6A9369D26AA04710BD9A
S31508000AE0806808B92F20FAE703682C321B69BDE82D
S31508000AF010401847127D024809F060FEEFE700BF74
S31508000B00800400202DE9F04100251746526894B06C
S31508000B10052A88461E468DF805508DF806508DF82C
S31508000B20075040F2A78001233968023A02A809F063
S31508000B3016FE0DF1050102A809F0EDFB0446002892
S31508000B4040F094800DF1060102A809F0E4FB044682
S31508000B50002840F08B800DF1070102A809F0DBFBA5
S31508000B600446002840F082807B683168802B7CD858
S31508000B7073687F2B7CD903467622083107A809F0CB
S31508000B80EEFD9DF80630013B042B6CD8DFE803F038
S31508000B9003325D64550001238DF83430514BCDF88E
S31508000BA038800C930023CDE90F3311938DF8483024
S31508000BB0B8F1000F1BD0D8F8305000232A1D19466B
S31508000BC0494809F0B5FD484809F0D5FD002305F167
S31508000BD008021946454809F0ABFD0022444BC3F804
S31508000BE0042107AA02A90CA809F00DFE09E04FF492
S31508000BF00075E2E73C4809F08DFD3C4809F08AFD9E
S31508000C000020099A079B9A4288BFD41AE5B204467F
S31508000C1000230822316807A809F0A1FD00211C223B
S31508000C200DA80C9110F0F2FA022107A809F0B1FA02
S31508000C3010B3002014B0BDE8F08101238DF83430DC
S31508000C402C4BCDF838800C93CBE70323CDF83880AE
S31508000C508DF83430284BF6E70423CDF838808DF824
S31508000C603430264BEFE72A20CBE7C2240025CFE70E
S31508000C701924FBE71924CBE79DF8061007A841F0CD
S31508000C80800109F086FA0028D3D19DF8071007A835
S31508000C9009F07FFA0028CCD1214607A809F09EFA68
S31508000CA00028C6D1294607A809F073FA0028C0D13A
S31508000CB0726805F10A03934201D910F098F90835CC
S31508000CC02946306873600CAA00F0FAFF0028B0D1F4
S31508000CD09DF80600BDF830203368023818BF012099
S31508000CE05A53A7E730370108B805002088050020C1
S31508000CF0800400205837010880370108A837010802
S31508000D00002208B51146064809F044FD00220548A8
S31508000D10114609F03FFD0022034BC3E9402208BDF6
S31508000D20B8050020880500208004002002490A68CA
S31508000D3002604A6842607047103A010810B440F2EF
S31508000D406314A142034612D0B1F5B27F07D2B1F5BA
S31508000D50827F20D0B1F5B17F18D0A62009E040F2F5
S31508000D6097108142F9D102B11268DA6211E01AB914
S31508000D702F205DF8044B704711680A4BA1F57A726B
S31508000D809A42F5D85DF8044B00F0D2BD02B112685C
S31508000D909A620020EDE7002AEAD011685DF8044B54
S31508000DA000F06EBEB88201002DE9F0470024054622
S31508000DB08EB08846174621460D2205A80DF128094A
S31508000DC01E46049410F022FA21460D22484609943C
S31508000DD010F01CFA1122284602AB04A9CDE90244F8
S31508000DE000F05CFD044600285DD1029B0A2B51D118
S31508000DF09DF814302D2B2FD00025049B0A2203A919
S31508000E0009A809938DF8285008F00CFC039BA8F84C
S31508000E1000004B4541D1BDF814300A2203A909A8A0
S31508000E20ADF824308DF8265008F0FCFB3870039F87
S31508000E300DF126039F4230D1BDF816300A2203A9C8
S31508000E4009A8ADF824308DF8265008F0EBFB039B73
S31508000E503070BB4221D125E09DF817302D2BCBD120
S31508000E600823029306AB01930DF1150311210F4ACE
S31508000E70009309A804AB08F093FFDDF808A009A9B8
S31508000E80524604A810F0A6F85246284604A900F0CF
S31508000E90FFFC40B9029B072BAED8054804A908F009
S31508000EA0F7FB2F2420460EB0BDE8F087C8370108A7
S31508000EB0D53701080023F0B587B001930C46D1E970
S31508000EC0001201AB00F0F6FC40F20123984225D14E
S31508000ED002AD2A46144B03F110072E4618685968C6
S31508000EE0083303C6BB423546F7D163680F2B02D8D1
S31508000EF0192007B0F0BD256806AE134603CBB342EA
S31508000F00286069601A4605F10805F6D11023019391
S31508000F10019B6268934204D910F069F80028E8D169
S31508000F20F6E700206360E4E7183A0108F0B5B1F582
S31508000F30AA7F99B0154606461A461E9C3CD8B1F5B6
S31508000F40A07F09D840F2051399426DD040F21113DB
S31508000F50994262D0A62065E06FF4A073194413295C
S31508000F60F8D801A353F821F063100008550F0008BC
S31508000F707D100008550F0008831000088910000826
S31508000F808F10000895100008550F0008550F000827
S31508000F90550F0008550F0008550F0008550F000893
S31508000FA0550F0008550F0008550F00089B1000083C
S31508000FB0A1100008AB100008B1F5C17F00F09280BF
S31508000FC010D840F26513994200F08280B1F5B37FDC
S31508000FD000F08380B1F5B27FBCD12346294600F0E4
S31508000FE0C3FC1EE040F29513994200F0898040F256
S31508000FF0B113994200F0938040F293139942A9D114
S31508001000CDE90B5205B9EAB933683046D3F88030D2
S315080010100BA9984730B90C9B21E02346294600F0D6
S3150800102041FD48B319B0F0BD00F1340738460392C4
S3150800103010F059F8039A0130CDE90605059708928C
S3150800104015B90AB10FF0D3FF07AB00933046728B80
S31508001050318B05AB00F0D0FC0028E3D1089B236058
S315080010600AE003681B6B2946304698470028D9D101
S31508001070284610F038F820600020D3E703689B6BF9
S31508001080F1E703681B6CEEE703685B6CEBE7036844
S315080010909B6CE8E70368DB6CE5E703685B6DE2E7F2
S315080010A02346294600F0FAFBBBE721230E93036883
S315080010B00FAF03921B6E0D970DA99847039A002848
S315080010C0B0D1134620212A46384609F0CEFED2E78B
S315080010D02346294600F054FCA3E72346294600F098
S315080010E0EDFC9EE7CDE909530DB9002BAAD133686B
S315080010F03046DB6F09A99847002893D10A9BAEE7CB
S31508001100CDE90D520DB9002A9CD133683046D3F883
S3150800111084300DA99847002884D10E9B9FE7CDE916
S315080011200F520DB9002A8DD133683046D3F88C306A
S315080011300FA9984700287FF475AF109B8FE700BF6B
S31508001140F0B54B680646602B0C461546A5B029D95E
S3150800115000278222394603A8029710F057F801ABF8
S315080011608622304602A9019700F00AFC40F20123C4
S31508001170984210D184220C4902A801920FF02AFF46
S315080011802268019902A800F0B1FD286063689842B8
S3150800119005D90FF02CFF0028F2D025B0F0BD60600D
S315080011A00020FAE71920F8E7F437010870B5002699
S315080011B0044696B02A220D460BA831460A9610F028
S315080011C025F801AB2E2220460AA9019600F0CCFB91
S315080011D040F20123984227D118230193174B0AACF2
S315080011E003F11806224618685968083303C2B34241
S315080011F01446F7D100241C22214603A8029410F0B5
S3150800120005F8019902AA0AA800F070FD6B6806465F
S31508001210984210D8024602A928680FF0DBFE6B68D0
S315080012209E4205D90FF0E3FE0028E3D016B070BD44
S3150800123020466E60FAE71920F8E700BF79380108FA
S3150800124070B5B1F5B27F054616461C4692B000F059
S315080012501D8121D840F21113994271D06FF4A07301
S3150800126019448BB2132B30D813292ED8DFE811F086
S315080012706F002D007C002D0089009600A300B000A9
S315080012802D002D002D002D002D002D002D002D00E8
S315080012902D00BD00D900EA0040F29513994200F0EE
S315080012A04481B1F5CB7F22D240F28113994200F0F6
S315080012B01F81B1F5C17F0AD240F26513994200F049
S315080012C0F080B1F5B37F00F0F380A620A0E000F02F
S315080012D0228140F293139942F7D13146224609A852
S315080012E009F02AFC284609A900F0D2FC90E0B1F5DD
S315080012F0D17F00F03B8111D8B1F5CB7F00F01F817B
S3150800130040F2A1139942E0D1002A40F022818022BE
S31508001310314634300FF07AFF002079E040F2B113FD
S315080013209942D2D1002AF7D0002CF5D03146224670
S3150800133009A809F001FC284609A900F0EFFB67E0B7
S315080013402246314612B0BDE8704000F0A5BB02B196
S315080013503CB900228D49284612B0BDE8704000F01D
S31508001360C1B922463146F6E702B13CB9002287499F
S31508001370284612B0BDE8704000F0DCB92246314676
S31508001380F6E702B13CB900228049284612B0BDE80A
S31508001390704000F0F7B922463146F6E702B13CB98B
S315080013A000227A49284612B0BDE8704000F0FCB920
S315080013B022463146F6E702B13CB90022734928466F
S315080013C012B0BDE8704000F001BA22463146F6E791
S315080013D002B13CB900226D49284612B0BDE87040FA
S315080013E000F006BA22463146F6E702B194B9002162
S315080013F01C220AA809910FF009FF2021644AAB8B29
S3150800140009A808F0CDFC09A90246284600F016FAF4
S3150800141012B070BD2246314612B0BDE8704000F0E9
S315080014200DBA02B13CB908225A49284612B0BDE89D
S31508001430704000F02DBA102C01D92F20E8E722467B
S315080014403146F2E702B1C4B9102105A809F0EBFB51
S315080014500028DDD1022310210093212309AA05A81B
S3150800146009F0C3FC0028D3D109A80FF03CFE09A94E
S315080014700246284600F018FACAE7102CDDD80223DF
S31508001480214600933046212309AAE9E7002AD4D049
S31508001490002BD2D01A46314612B0BDE8704000F093
S315080014A05DBA2246314612B0BDE8704000F062BA15
S315080014B002B1B4B90023CDE90933CDF82B30AB6AB4
S315080014C009A80293EB8B01936B6A00936A8B298BAD
S315080014D02B6A09F0ECFA0B22284609A900F0E8FA6B
S315080014E096E72246314612B0BDE8704000F0E0BAF1
S315080014F002B154B9002305AACDE909238DF81430A1
S31508001500284609A909F06AFB82E72246314609A856
S3150800151009F012FBF4E73146224609A809F00CFB4C
S31508001520284609A900F0C0FB72E73146224609A8F9
S3150800153009F002FB284609A900F09EFB68E7314638
S31508001540224609A809F0F8FA284609A900F042FA3D
S315080015505EE77F2C3FF671AF2246314634300FF0F6
S3150800156039FD00232C4484F83430D5E6002A3FF4AC
S3150800157064AF002C3FF461AF3146224609A809F052
S31508001580DBFA284609A900F0B1FA41E7CE4001087E
S315080015909238010895380108012903BF034B00203A
S315080015A01B78A62008BF1370704700BF111F0020C4
S315080015B0022938B514461D460FD1202200210848B5
S315080015C00FF024FE3CB1202D2A46214628BF2022B2
S315080015D003480FF0FFFC002038BDA620FCE700BF3B
S315080015E0F11E0020104608B56AB163B102290CD174
S315080015F0202B28BF20231A46029B05491A600FF0A4
S31508001600E9FC002008BD2F20FCE7A620FAE700BF6A
S31508001610F11E0020012905D102B11278024B0020E3
S315080016201A707047A6207047111F00202DE9F04355
S315080016301D46002389B0074608460E461446CDE9DE
S31508001640053300F061FC18B9D82009B0BDE8F0836D
S31508001650304605A900F0C2FC0028F6D1204600F065
S3150800166053FC0028F0D0204606A900F0B7FC002855
S31508001670EBD1DDE90596079007A9184800F0AEFCFE
S31508001680044600BB079919EB01081ED10EB10FF0ED
S31508001690AEFC022009F0FDFBA0B1079B02210093D6
S315080016A01F203B46CDE901960D4A09F0E5FB6B681C
S315080016B09E4210D83246414628680FF08DFD6B6869
S315080016C09E42E4D86E602046BFE7022009F0E1FB9F
S315080016D00028ECD0E1E71924F5E700BF21720800DD
S315080016E0603A0108014800F087BD00BF0072080093
S315080016F0002307B50348019301AB00F097FC03B03C
S315080017005DF804FB00720800014800F047BD00BF01
S315080017100C72080010B506480C4600F033FC40F27F
S315080017200123984202BF4FF6F1730020238010BDB3
S315080017300C720800014800F05FBD00BF0D7208007A
S31508001740002307B50348019301AB00F06FFC03B013
S315080017505DF804FB0D720800014800F01FBD00BFCC
S315080017600B72080010B506480C4600F00BFC40F258
S315080017700123984202BF48F201030020238010BDCE
S315080017800B720800014800F037BD00BF0E72080052
S31508001790002307B50348019301AB00F047FC03B0EB
S315080017A05DF804FB0E720800014800F025BD00BF75
S315080017B010720800002307B50348019301AB00F037
S315080017C035FC03B05DF804FB10720800014800F010
S315080017D013BD00BF11720800002307B50348019323
S315080017E001AB00F023FC03B05DF804FB117208009E
S315080017F0014800F001BD00BF12720800002307B5BA
S315080018000348019301AB00F011FC03B05DF804FB3B
S3150800181012720800014800F0C1BC00BF1872080027
S3150800182010B505480C4600F0ADFB40F2012398427E
S3150800183004BF0020208010BD18720800014800F07F
S31508001840DBBC00BF0F72080073B5002601AB0E485B
S315080018500C461546019600F0E9FB40F20123984232
S315080018600BD164B10C2D0CD920462A4607490FF036
S31508001870D7FB30462C4404F8016C02B070BD0B202F
S31508001880FBE71920F9E700BF0F7208007E3A010846
S31508001890014800F0B1BC00BF04720800014800F01E
S315080018A0C5BB00BF04720800014800F0BFBC00BFFA
S315080018B01F72080007B500200090034800F00CFCD2
S315080018C003B05DF804FB00BF1F720800014800F072
S315080018D065BC00BF0772080037B512480D4600F010
S315080018E051FB40F201239842044604D14FF4706339
S315080018F02B80002014E098B92B88B3F5805FF8D3C5
S31508001900012009F0C6FA50B140F28B132F220121AB
S31508001910CDE900322046044B044A09F0ADFA2F20DF
S3150800192003B030BD077208008B3A0108AB3A0108CC
S31508001930014800F04BBC00BF0872080010B5064805
S315080019400C4600F04BFB40F20123984202BF4FF4CD
S315080019507A730020236010BD08720800014800F061
S315080019604BBC00BF09720800014800F05FBB00BF0E
S3150800197009720800014800F03FBC00BF0A7208005F
S31508001980014800F053BB00BF0A7208000B46024A22
S3150800199002490348FFF74ABE277208002672080064
S315080019A0BC3A01080B46024A02490348FFF73EBE05
S315080019B02572080024720800D83A01080B46024A24
S315080019C002490348FFF732BE237208002272080054
S315080019D0FE3A0108022307B5D1E9001201A80193CE
S315080019E0FEF79CFD18B90199024800F0EFFB03B019
S315080019F05DF804FB207208001FB5022003900698C4
S31508001A00009003A8FEF7A2FD18B90399024800F052
S31508001A10DDFB05B05DF804FB20720800002370B5F5
S31508001A20154886B00D461646049300F06DFA08B3BD
S31508001A30114804A900F0D2FAD0B9049B3246002B0B
S31508001A4008BF0223294605A80593FEF7E7FD0446C5
S31508001A50022009F01EFA50B102947368022101931C
S31508001A606B681F200093054A049B09F005FA204677
S31508001A7006B070BDD824EBE720720800173B0108B2
S31508001A80014800F0A3BB00BF21720800014800F01E
S31508001A90A5BA00BF21720800014800F0ADBB00BF1F
S31508001AA029720800014800F0C1BA00BF297208006F
S31508001AB0014800F0BBBB00BF0572080007B500204F
S31508001AC00090034800F008FB03B05DF804FB00BF74
S31508001AD005720800014800F049BB00BF28720800DB
S31508001AE0014800F023BA00BF28720800032307B58F
S31508001AF0D1E9001201A8019300F086F918B90199F5
S31508001B00024800F063FB03B05DF804FB307208007E
S31508001B10014800F063BA00BF307208004A6808B589
S31508001B20102A01D02F2008BD0968024800F07EFB64
S31508001B30F9E700BF177208001FB500234A680C466C
S31508001B400F2A03930FD90093102203AB096807489D
S31508001B5000F0C2FA63680F2B01D80FF048FA102379
S31508001B60636004B010BD1920FBE700BF17720800B8
S31508001B7000200A4B10B5186032B9094C2146BDE859
S31508001B801040084800F022BBA1F500518C18064801
S31508001B9009F0D2F9204607F0C5FAEFE7E805002074
S31508001BA000E0310821720800F805002000232DE91D
S31508001BB0F04F85B080460F462C4803A91546039377
S31508001BC000F00CFA002838D1294E039933681BB95E
S31508001BD0284809F096F980BBD5E900143368039ABA
S31508001BE002EB030B14F003031BD10A46234659469E
S31508001BF0204809F08CF900BB4046316800F0E6FA47
S31508001C00D8B93846696800F0E1FAB0B932686B6845
S31508001C100020134413F03F021CBF40339B1A336065
S31508001C200BE004F1040AAAEB030A5046019100F0FE
S31508001C30CBF80199814618B9AC2005B0BDE8F08FFC
S31508001C4022460FF0C7F9AAEB0402FF2109EB0400AC
S31508001C500FF0DCFA53464A465946064809F057F942
S31508001C600446484600F0C0F82046C4E7217208003A
S31508001C70E8050020F805002008B50A460248034989
S31508001C80FFF794FF08BD00BF227208002372080000
S31508001C9008B50A4602480349FFF788FF08BD00BF92
S31508001CA0247208002572080008B50A460248034946
S31508001CB0FFF77CFF08BD00BF2672080027720800E0
S31508001CC01FB513460022039203AA0192202200920E
S31508001CD00A46014604480DF07AFB002814BFAC20DA
S31508001CE0002005B05DF804FB09000002014B09F06D
S31508001CF014B800BF3FAC000838B5094BD3E8EF2F3E
S31508001D00541CC3E8E54F002DF8D1002A04DC00F086
S31508001D103FF808B10FF06BF94FF0000038BD00BF6F
S31508001D20EC0500202D2828BF002010B4074C04EB32
S31508001D308000074CD4E8AF4F1CB1A4465DF8044BAD
S31508001D4060475DF8044B09F0AFB800BF623B010875
S31508001D50F0050020024BD3E88F0FC0B2704700BFD2
S31508001D600C230020024608B5064BD3E8AF3F3BB923
S31508001D70054B06491B68D86807F0F8FF0FF037F9D6
S31508001D8008BD00BFF4050020B0220020163C01085B
S31508001D9008B50A4BD3E8EF2F511CC3E8E01F00280B
S31508001DA0F8D1002A07DD064B06481B68D96807F0F4
S31508001DB0EFFF0FF01CF9002008BD00BFF405002056
S31508001DC0B02200205E3C010838B504460548FFF7F6
S31508001DD0C9FF204607F008FF0546214609F062F8C4
S31508001DE0284638BD913C010810B504460548FFF75A
S31508001DF0B9FF2046002109F056F82046BDE81040F4
S31508001E0007F0FABE9D3C010870B5044688B0006824
S31508001E100D46164609F049F823684FF400710793F2
S31508001E2001230B4A02A8CDE902230A4B3246CDE923
S31508001E30041300232946069301AB05F0EDFA014683
S31508001E4018B1054807F024FCAC2008B070BD00BFE7
S31508001E50002480000010C004A83C0108014B036060
S31508001E60704700BF1C3D010810B50446034B082106
S31508001E7003600AF036FA204610BD00BF1C3D010873
S31508001E800448054B054A03600023054943600EF0E4
S31508001E90FBBE00BFF80500201C3D01086821002094
S31508001EA05D1E000837B50E4D2C686CB90323224613
S31508001EB02146009301200B4B11F012FA23462246C5
S31508001EC02146286010F053FF286808B90FF08FF8EC
S31508001ED04FF0FF3103B0BDE8304011F09CB800BFA9
S31508001EE05006002000060020064B10B5186808B9F1
S31508001EF00FF07DF80023BDE810401A46194610F089
S31508001F0036BF00BF5006002007B5014606486A4698
S31508001F1001AB006801F052FB09F01AF8B0FA80F03C
S31508001F20400903B05DF804FB8C2200207FB500232E
S31508001F3004460D468DF8073009F016F8D0B1104E54
S31508001F402146306803AB02AA01F038FB09F000F815
S31508001F5070B9039B012B10D1214630680DF1070299
S31508001F6001F0A6FA08F0F4FF10B99DF807302B70B7
S31508001F7004B070BD40F20120FAE72F20F8E700BF51
S31508001F808C2200207FB5002304460D46ADF80630A6
S31508001F9008F0EAFFD0B1104E2146306803AB02AA1A
S31508001FA001F00CFB08F0D4FF70B9039B022B10D18B
S31508001FB0214630680DF1060201F07AFA08F0C8FFEA
S31508001FC010B9BDF806302B8004B070BD40F2012070
S31508001FD0FAE72F20F8E700BF8C2200207FB5002300
S31508001FE004460D46039308F0BFFFC0B10E4E2146C6
S31508001FF0306802AB01AA01F0E1FA08F0A9FF60B95E
S31508002000029B042B0ED12146306803AA01F050FA30
S3150800201008F09EFF08B9039B2B6004B070BD40F220
S315080020200120FAE72F20F8E78C2200202DE9F0435B
S315080020301D46002385B02B6007460E46914608F0DC
S3150800204093FF00283ED0DFF88C803946D8F8000088
S3150800205003AB02AA01F0B2FA08F07AFF0446B8B94F
S31508002060039B93B3C6B14B4531D232463946D8F8AD
S31508002070000001F01DFA08F06BFFD8B9039B012B8D
S3150800208003D13378003B18BF012300222B60F2549A
S31508002090204605B0BDE8F083012B01D02B60F7E799
S315080020A03946D8F800000DF1070201F001FA08F0E8
S315080020B04FFF08B10446EBE79DF8073003B10398D4
S315080020C02860E5E740F20124E2E71E24E0E7192448
S315080020D0DEE700BF8C2200202DE9F04F1D460023C5
S315080020E085B02B60074688461646DDF838A008F006
S315080020F03BFFA0B3DFF870B03946DBF8000003AB4E
S3150800210002AA01F05BFA08F023FF0446A8B9B8F161
S31508002110000F12D0039BDBF80000A3EB0A09B145B8
S315080021200FD8534642463946CDF8009001F000FADA
S3150800213008F00EFFB0B9C5F80090204605B0BDE816
S31508002140F08F534642463946009601F0F1F908F0F9
S31508002150FFFE04460028F0D119242E60EDE740F270
S315080021600124EAE70446E8E78C22002013B5044672
S315080021708DF8071008F0F8FE58B1074801232146E4
S3150800218000680DF1070201F0E9FA08F0E1FE02B075
S3150800219010BD2F20FBE700BF8C22002013B5044694
S315080021A0ADF8061008F0E0FE58B1074802232146AC
S315080021B000680DF1060201F0D1FA08F0C9FE02B076
S315080021C010BD2F20FBE700BF8C22002013B5044664
S315080021D0019108F0C9FE58B1042306482146006853
S315080021E00DEB030201F0BAFA08F0B2FE02B010BD18
S315080021F02F20FBE78C22002010B5044608F0B4FE19
S3150800220068B179B10848012A1346006838BF012326
S315080022100A46214601F0A2FA08F09AFE10BD40F2DD
S315080022200120FBE72F20F9E78C22002010B5044691
S3150800223008F09AFE58B101B962B907481346006812
S315080022400A46214601F08AFA08F082FE10BD40F2DD
S315080022500120FBE72F20F9E78C2200200348044AD7
S315080022600449121A921008F096BE00BFB40100087D
S3150800227060030008BC1F002008B5154B83F30A88C5
S3150800228000F030F8FFF7EAFF124B13498B4212D3DE
S315080022900020124B12498B4218D3FEF7ADF8186886
S315080022A050F82240586840F8224001329868824225
S315080022B0F5D30C33EAE70022F8E71C6844F8220055
S315080022C001325C68A242F8D30833E4E70022F8E753
S315080022D000000020EC4D0108F84D0108F84D0108F2
S315080022E0F84D01084FF48041144B154A70B59A60B1
S315080022F0D3F88820134D42F47002C3F88820124A96
S3150800230005F5005491664FF0FF3222666FF40032ED
S3150800231062660D22A2660222C3F8D020BFF34F8F51
S31508002320BFF36F8F4FF44036002002F073FA002097
S31508002330E66002F061FA2E6170BD00BF00ED00E0B4
S31508002340000000080080004400900050002307B5F4
S315080023500193054B1B6810F053FC019B002BFCD026
S3150800236003B05DF804FB00BF40220020EFF30583AD
S315080023700F2B84BF034A9B5C4FF0E023D3F80C3D38
S31508002380704700BFF0E300E0BFF34F8F0549064BE7
S31508002390CA6802F4E0621343CB60BFF34F8F00BFF5
S315080023A0FDE700BF00ED00E00400FA052DE9F04F57
S315080023B0144605460E469B46C36B87B001225B69E9
S315080023C002A960689847EB6B01225B6903A930464E
S315080023D0984702A809F05EFA074648B10023A37594
S315080023E063754FF0FF33A360002007B0BDE8F08F98
S315080023F003A809F05CFA0123A375237E04EBC30343
S31508002400DE611F846368B3420ED1206003A809F019
S3150800241070FA4FF0FF332075A360237D043B022B2F
S3150800242026D80023A375DFE723681A1A53425341B7
S31508002430A37503A809F05DFA237D834218BFA77523
S3150800244003A809F038FA074602A809F034FA8742C1
S3150800245018BF002303A818BFA37509F034FA074666
S3150800246002A809F030FA87421CBF0023A375D4E7F7
S3150800247003A809F020FA80B1EB6B022230465B69AB
S3150800248004A9984704A809F025FA0346207D0328DD
S3150800249039D8DFE800F03838040903A8F3E7CC2276
S315080024A0237E04EBC3031A8401F0A0FA109B18706C
S315080024B003A8277E09F0F3F904EBC70787F822007B
S315080024C0237E03A804EBC303B3F8209093F8227085
S315080024D009F0F1F9804603A809F0F5F98246B8F142
S315080024E0000F15D0EB6B022230465B6904A99847AA
S315080024F004A809F0B4F96075637D6BB90023A37568
S315080025004FF0000838E0227E04EBC2021384CBE7C2
S3150800251003A809F08FF9EEE794F81680B8F1000FD2
S31508002520EED0B9F1000F09D1DFB10123E375637E5F
S31508002530002B4FD1012F42D1677614E06B6C06EB66
S315080025400A02594286EA020008421CBF0021A17508
S31508002550591E0A409B1A9945D0D8A37D002BE3D172
S31508002560CEE7E37D43B94FF000084B465246314665
S31508002570284608F0D1FEA060A27D12B123694B441B
S3150800258023611A49237E097899422AD90133237689
S31508002590BBF1000F27D032B3E37D23B3B8F1000FA8
S315080025A021D1032F1FD0A1684B1C1CD0109B22469B
S315080025B0009328460123FFF7F9FEA07513E095F866
S315080025C0343063B9EB6A0133CFD1032FCDD1012360
S315080025D0A376C8E7012FCFD0032FC4D1F7E79846D3
S315080025E0C3E70023A375A07DFFE600BFEC3D010805
S315080025F02DE9F04F0E46984600238BB004464FF05F
S31508002600FF31104617468DF8133001F0D9F9B6F5A3
S31508002610801F3BD3B21C53D1E56A6B1C57D12046A9
S31508002620616A08F0BFFD0546B31C18BF0123DFF831
S3150800263010910193636A626C0293236805A902FBF1
S31508002640053AE36B05225B695046984705A809F0E9
S31508002650BCF909F0DFF9504609F0E7F94FF0000B2D
S31508002660824601464B1C05D0636C81EA0A025B422E
S31508002670134232D02946204608F094FD029BAB420D
S315080026804DD0BBF1000F4DD10546D3E7314605AA1B
S3150800269004F1080009F050F80146481C10D03846E5
S315080026A001F08EF90122394620460DF1130308F090
S315080026B085FE28B19DF8133088F80030002003E025
S315080026C0237C002BA8D12D200BB0BDE8F08F236802
S315080026D0ED1A636CB5FBF3F5A6E7484601F070F909
S315080026E00DF1130349462046019A08F067FE034692
S315080026F090B1B21C03D0D9F80020B2420CD19DF893
S31508002700132003930D4B88F8002049461A6838466B
S315080027100EF060FC039B9B46D9F80810A2E7BBF1B4
S31508002720000FD0D0B6F5801FC8D2314698F80030D1
S315080027307A6804F1080001F089F8BFE7E83D010866
S315080027402C1200202DE9F3410446174698460E46FA
S31508002750194D816AE36A8B422AD04B1C18E0284639
S3150800276001F02EF90122294620460DF1070308F04B
S3150800277025FE30B14346294620469DF80720B8472E
S31508002780B0B1A9684A1C05D0012E0AD0E36A99425D
S31508002790E5D10DE06968204608F091FD012E014655
S315080027A0D8D16B6881EA0302636C5B421A42D1D0C6
S315080027B002B0BDE8F08100BF001200202DE9F04705
S315080027C04FF0FF334FF6FF720025044600F1080666
S315080027D0C0E909238AB0C3620562056330460F461D
S315080027E008F07BFF204608F05DFC28BB20463946EA
S315080027F008F028FD204608F055FC28BB5E200AB0E4
S31508002800BDE8F087E26B2368606CD2F814C000FB61
S315080028100530052205A9E04705A809F0D6F80128DC
S3150800282040F083802946204608F0DDFC421C2946F4
S31508002830204608F056FC0135E3699D42E2D320465E
S3150800284008F030FC0028D1D0204608F05BFC4FF693
S31508002850FF72636A934200F0B080E26B676C20688F
S31508002860694607FB030055690522A847684609F02B
S3150800287083F8626A2368606C514D00FB023009F0E8
S31508002880D4F84FF0FF33A062E3622A466FF00101E5
S31508002890204605ABFFF7ACFE002850D1AD682946A7
S315080028A02046E56208F0DAFB206320B92046E16A93
S315080028B008F005FDE0622946204608F000FD0546B9
S315080028C0A36A9D423DD1204608F086FB0027804634
S315080028D0B946E369994546D3B84563D92046616A3E
S315080028E008F060FC0026054604F1400ABE4212D3F1
S315080028F0626C2368694602FB0539E36B05225B694E
S3150800290048469847684609F037F853460246494606
S31508002910E06B09F08CF82946204608F043FC01369E
S31508002920B0450546E2D1642069E709F078F8002841
S3150800293081D02946204608F056FC024677E7A56A64
S31508002940ADE72946204608F089FB236B2946034450
S3150800295007462363204608F0B2FC0546002FAFD190
S31508002960C4E90B07ACE7636C2568052203FB095528
S31508002970E36B05A95B692846984705A809F025F879
S3150800298009F048F858B1284609F04FF8014620469C
S3150800299008F064FB636C143B984208BF013709F1E1
S315080029A0010996E7304608F098FE002320461946A6
S315080029B0044AFFF7C7FE002021E767201FE700BF8C
S315080029C058120020ABB300082DE9F041036B90467E
S315080029D0826B07689A4288BF8363426C436A90B0E9
S315080029E002FB0377C36B0E46052201A95B69044601
S315080029F03846984701A808F0E8FF012801463070D4
S31508002A0057D0656CE26B2368606AD2F814C005FB80
S31508002A100030052206A9E04706A808F0D6FF0128D7
S31508002A204FF0000523D0D4E90A3201219342CDE9BB
S31508002A300B458DF834800E958DF83C102AD1194631
S31508002A40204608F03CFC236B626C14339B1AE06248
S31508002A5023630C9B53B99DF83C303BB1626A616CA9
S31508002A602368E06B01FB023108F067FF0C9DE36BFE
S31508002A7005225B6901A93846984701A808F0A5FF11
S31508002A8030702846236BA26B9A4288BFA36310B0A6
S31508002A90BDE8F081237C33B91C490BAA04F1080070
S31508002AA000F022FFD5E72046194A0BABFFF74AFE8E
S31508002AB0CFE7237C23BB2246164904F1080000F021
S31508002AC013FF616A204608F08EFB616A421C2046A5
S31508002AD008F007FB054620B9236B626C1344143BC8
S31508002AE023632046A16A08F0EAFB2368A062C01A9D
S31508002AF0636CB0FBF3F06062204608F023FCB6E78F
S31508002B0000232046044AFFF71DFEDAE76132000873
S31508002B10DD31000845B40008E1B3000873B50D4679
S31508002B20D11E4A421C461B7E4A419A4226D1296832
S31508002B302368994222D3636899421FD8114E0DF132
S31508002B4007033246FFF754FDC0B972686B689A42AC
S31508002B5014D19DF80730DA1E53425341227E934220
S31508002B600CD1636901336361D4E90323934205D227
S31508002B702968A26842F8231001332361012002B0B4
S31508002B8070BD00BF581200202DE9F04F9A468BB051
S31508002B909DF85030DFF850B10293DBF810308046CC
S31508002BA053450D461646C0F09980D146DBF80430E9
S31508002BB00193B9F1000F00F08D80D8F83C3001225E
S31508002BC05B6907A90198984707A808F070FEDBF823
S31508002BD00030984240F0858007A808F074FE042863
S31508002BE0074614D107A808F075FE019B029A044609
S31508002BF03B44002A3FD1864212D91446361A40462B
S31508002C00019908F05CFBA9EB04090190D1E7D8F813
S31508002C103C3002225B69019808A9984708A8E2E7B0
S31508002C20841B544528BF5446032C03EB0607AAEB1E
S31508002C30040A4FEA94021CD9D8F83C30294638468B
S31508002C405B69984724F0030304F003061F441D44F8
S31508002C50002ED4D0D8F83C3001225B6908A9384642
S31508002C6098473246284608A935440EF0B3F9002697
S31508002C70C5E72646ECE7074600F00302039203443D
S31508002C802A1804920593049BDD1B059BD81B039BFE
S31508002C909F420FD1002FB2D0D8F83C30012208A9A4
S31508002CA05B6998473A46284608A90EF085FA78B926
S31508002CB03D44A4E7D8F83C30012208A95B69984747
S31508002CC00422284608A90EF077FA08B9043FDAE77D
S31508002CD04FF0360948460BB0BDE8F08F4FF0630950
S31508002CE0F8E74FF06F09F5E7841200202DE9F04167
S31508002CF00F4616469846044688B060B390F8345096
S31508002D00FDB1012108F0C3F900210E9BCDE905119B
S31508002D10CDE902379DF83C30CDF804808DF81C309B
S31508002D20237C04968BB90D4901AA04F1080000F02A
S31508002D30DBFDDDE90553E06B002E08BF1D4608F0F4
S31508002D408FFB284608B0BDE8F0812046044A01AB4F
S31508002D50FFF7F8FCEDE70546F3E700BF0FB40008F8
S31508002D601D2B00082DE9F04F99B00F4609920A6904
S31508002D70416C0E931439D31DB3FBF1F3013302EB07
S31508002D80C302036B04469342C0F0BC810023DFF8FC
S31508002D9044940D93E36A48461946079300F010FEDB
S31508002DA0D7E9033604930E9B022B4ED1CC2E40F066
S31508002DB08A81099B002B42D03946204608F0AEFB93
S31508002DC0656C079A6B1E13401490ED1AE36B01228B
S31508002DD05B6916A97868984716A808F06CFD00285C
S31508002DE00CBF04230823782E06933DD9012300251A
S31508002DF04FF0080A05933B6805990E98C9F8003004
S31508002E00C9F8106008F079FD4FEA9A031093002379
S31508002E10DDF81CB089F814000B930F9308930C93F4
S31508002E20616C4A1E0BEA02028B1A002E38D05544F2
S31508002E30AB4240D8236B5B1A13442363ABE0049B75
S31508002E401B68149308230693D0E7656C079A6B1ED4
S31508002E501340782EA5EB030516D8FB7D7BB9099B95
S31508002E60002BB3D104230693331DAB4210D9A6B168
S31508002E70082DBBD804250023AA460593BBE7099B62
S31508002E80002BA3D10823EEE7099B002B9ED1D9E797
S31508002E90002505954FF0040AADE704250596F9E7E0
S31508002EA05345C7D3B0460BEB0A030393089B002B85
S31508002EB018BF032313E0A3EB0A039E42B0460BEBAD
S31508002EC00A0228BF98469E420392EFD90123D9F8F1
S31508002ED0102089F81730964271D1C9F804B00893C2
S31508002EE099F81730002B6CD099F818200899D31C3C
S31508002EF009EBC3030132C3F804B0A3F8088099723A
S31508002F0089F81820B8F1000F14D00E9B022B5BD15C
S31508002F100B9B7BB90F9B4344032B0BD9E36B012215
S31508002F209B69039814A998470546002840F0EC8049
S31508002F3001230B93089B16A80193059B009399F808
S31508002F4014204346396800F0F1FCE36B58469B6948
S31508002F50109A16A99847051E0D9B18BF5B46524640
S31508002F600D9359464346204608F0D6F9236B08F1D7
S31508002F700302A3EB0A0322F003029B1AC9F808000E
S31508002F802363002D40F0C0800F9BDDF80CB043444E
S31508002F90A6EB08060F935946204608F090F9002537
S31508002FA08346002E7FF43CAF8A4A3968936804F159
S31508002FB00800E36252680E9B00F048FC84E0022396
S31508002FC08DE7C9F804B09DE7099B002B30D1049B17
S31508002FD0B8F1030F43440A9327D9DDE90301E36BEC
S31508002FE04FEA98029B6998470546002865D118F06C
S31508002FF003025FD0049B28F003052B440493039B2C
S315080030001D444FF0FF33049915A815930DF0E2FF00
S31508003010E36B28469B69012215A9984705460A9B32
S315080030200493002D86D0039B99E74246039DE8E763
S31508003030039B0A9307F120031193FB7D78689BB1E4
S3150800304000233D7E0C9AD9B28D4211D9119903F10C
S31508003050010C31F83310914226D9069907EBC303C0
S31508003060D8690A44104403E00C9B069A1344184492
S31508003070E36B01225B6915A99847159B01221393F7
S315080030800C9B0A9804330C93E36B13A99B69984726
S31508003090039B0A9A43449B1A042B054607D978B919
S315080030A0134604330A93C8E76346521ACBE70A9BCA
S315080030B00393B6E70A9B04933CE70A9B0493B2E79B
S315080030C00A9B0393AFE77026304619B0BDE8F08F28
S315080030D0002657E004F1080008F0FFFA33463146A7
S315080030E020463D4AFFF72EFB3A69616CD31D143919
S315080030F0B3FBF1F3013302EBC302236B9342BFF434
S3150800310049AE65E01C26DFE73D2D61D104F10803D1
S3150800311003932368079A606CD61AB6FBF0F600FB91
S31508003120063008F082FCE16A8246204608F0C7F8B5
S31508003130A26A8242D8D0626CD9F80830511E0B4078
S31508003140216BE062891A0B4423630D992368CB1A15
S31508003150B3FBF2F84645BBD1079BB3EB0A0611D081
S31508003160E36BB20851469B6998478346E36A079A18
S315080031703344E362236B03989B1A5344236308F092
S31508003180ACFA5E462368616CE06B01FB083108F017
S31508003190C1FB204607F086FF204607F0B3FF626AA8
S315080031A02368606C00FB023008F03FFCA0622046F2
S315080031B008F0C8F82063002E8CD03A69616CD31DDC
S315080031C01439B3FBF1F3013302EBC3029042A0D2E8
S315080031D02E4679E72C120020ABB30008032A2DE906
S315080031E0F34106460D4617461C4606D1237A012B9F
S315080031F023D0012002B0BDE8F081DFF860800968BD
S3150800320042460DF10703FFF7F3F960600028EDD198
S315080032109DF80720237A032AE8D0D8F804106A68AC
S315080032209142E3D1012B2969D4F80CC007D1726900
S315080032300CEB0103934202D92074207CDAE70831AB
S315080032406144E1603B46012229463046FFF78AFD84
S3150800325060600028CAD00020CCE700BF58120020C2
S315080032602DE9F341089C032A1746266806D1237AD6
S31508003270012B24D0012002B0BDE8F081DFF8908050
S31508003280304642460DF10703FFF7B2F960600028A1
S31508003290EDD12568D8F80400A96AD5F844C0484095
S315080032A0CCF100031840227AE1D1012A09D1E2685B
S315080032B0D8F8103013447269934202D92074207CDE
S315080032C0D9E72868EB6A1B1A081AB3FBFCF3B0FBAC
S315080032D0FCF083420BD1706CF36A421E1340326BCA
S315080032E0121A13442846336307F0E9FFE862D8F850
S315080032F01020E36808321344E36001223B46044980
S315080033002068FFF72FFD60600028B0D00020B2E7E4
S31508003310581200202DE9F0410025634B0E46D3F8DC
S31508003320008004461D6018B921252846BDE8F081AD
S3150800333090F8347007B30A6803689A4240F0AA8086
S315080033404A6843689A4240F0A5808A6883689A4228
S3150800335040F0A080CA68C3689A4240F09B800A6918
S3150800336043699A4240F096808A69C36B9A4240F054
S3150800337091804B698361D8E768223946856B0DF0E1
S3150800338045FFD6E90212336804F108002360736822
S31508003390A5636360336963617369A36108F0AFF974
S315080033A0B36904F14000E3639B68984720B9676CEA
S315080033B017B16368B3FBF7F794F84330E761002B5E
S315080033C0B2D00023656C2366002D6BD0002F69D020
S315080033D02368B3FBF5F205FB1233002B5CD1676853
S315080033E0B7FBF5F605FB1676002E55D1204607F0F5
S315080033F025FEA369043303449F424FD340F6347233
S315080034006369CC3B93424BD8B5F5805F4AD3032119
S31508003410204607F03CFED4E90001E36B1B68984799
S315080034200546E36B0220DB6898472DB184F83460C3
S31508003430E06B08F015F878E741462046FFF7BEF935
S315080034406428054604D141462046FFF7B7F90546E4
S31508003450636C143BD5B9226A204602FB03F607F0D3
S31508003460EDFDA369043303449E4203D284F8345025
S315080034705A25DDE70123D4E900010C4A84F83430E3
S3150800348013680133136008F0D4F9D1E7002384F8F0
S315080034903430CDE75D2548E7592546E75A2544E700
S315080034A05F2542E75B2540E7FC110020F811002064
S315080034B02DE9FF410C4616461F46054680B390F88F
S315080034C034307BB3B1F5801F2ED2DFF8608001213E
S315080034D007F0DDFD2146424628460DF10F03FFF7AA
S315080034E087F8044670B99DF80F30012B11D1D8F82A
S315080034F01030BB4212D10246009031462846FFF7EB
S3150800350043FB0446E86B07F0ABFF204604B0BDE872
S31508003510F081022B14BF2D246024F3E76324F1E71E
S315080035202124F2E71124F0E72924EEE7841200208B
S315080035302DE9F04385B00C4617461E460546DDF8CC
S31508003540308098B390F8343093B3B1F5801F31D2F8
S31508003550DFF86490012107F09AFD21464A4628467D
S315080035600DF10F03FFF744F8044688B99DF80F30AC
S31508003570012B14D1D9F8102006EB08039A4213D36D
S3150800358000904346324639462846FFF7FDFA044678
S31508003590E86B07F065FF204605B0BDE8F083022B0F
S315080035A014BF2D246024F3E76324F1E72124F2E70E
S315080035B01124F0E72924EEE7841200202DE9F341CF
S315080035C01F4600230C46164605463B6050B390F846
S315080035D034304BB3B1F5801F28D2DFF8548001216F
S315080035E007F055FD2146424628460DF10703FEF72A
S315080035F0FFFF0446A0B99DF80730032B10D0022B15
S315080036000AD10123336004233B60E86B07F028FFE7
S31508003610204602B0BDE8F081D8F810303060F3E7F4
S315080036202D24F2E72124F3E71124F1E72924EFE713
S315080036308412002073B50446416907F0E4FC626E03
S31508003640236B024493422CBF00220122834294BF7B
S3150800365000231B1A207C84F85020636584F85800E0
S31508003660A8B100230B4E1A4619462046009608F0C4
S3150800367022F8002305461A4619462046009608F001
S3150800368023F8E3682844984294BF0020C01AE065EE
S3150800369002B070BDFFFF0F002DE9F3471E464369D0
S315080036A00446B342884617469DF828904FD300250E
S315080036B08DF807502046616907F0A5FCD4F830A0BC
S315080036C082450AD2236AB5EB430F06D2002220466A
S315080036D00DF10701FFF778F9B8B39DF80730012B0C
S315080036E005D1002220460DF10701FFF76DF9B9F162
S315080036F0030F06D03146204607F085FC256B854228
S3150800370027D3154D4FF0FF31284600F059F94B469F
S31508003710294600222046C5E90376C5F80080FFF74A
S3150800372021FB236E054663B12046FFF783FF94F815
S31508003730503013B994F858301BB1236E04F1500079
S315080037409847284602B0BDE8F0870135B2E76225FA
S31508003750F7E71C25F5E700BF581200202DE9FF41C1
S315080037600F4690461E46054698B390F8343093B3F4
S31508003770B1F5801F31D21A4C022107F088FC224687
S31508003780394628460DF10F03FEF732FF024678B197
S31508003790012342460093394633462846FFF77CFF05
S315080037A00446E86B07F05CFE204604B0BDE8F081ED
S315080037B09DF80F30012BEBD12169B142E8D1009376
S315080037C0414633462846FFF7DFF904460028DFD18D
S315080037D0E7E72124E8E71124E6E72924E4E700BF20
S315080037E08412002030B50C46054685B028B390F8FB
S315080037F0343023B3B1F5801F23D2022107F047FCEA
S315080038000DF10F03214628460F4AFEF7F1FE03463F
S3150800381088B99DF80F20032A0DD00322214600926D
S3150800382002462846FFF738FF0446E86B07F018FEFD
S31508003830204605B030BD2D24F7E72124F8E71124EA
S31508003840F6E72924F4E700BF841200202DE9F043A7
S31508003850466886B3056898464FF0000CA946AE46FA
S3150800386055F83C400CF1010CC4F31307013401D0A0
S31508003870B94217D066450EF1080EF1D12F4600243D
S3150800388003E0A64207F1080712D055F83430013490
S315080038900133F6D1C1F3130141EA0851C7E9001211
S315080038A0BDE8F08341EA0851CEE90012BDE8F0838D
S315080038B0B8F1030F03D101230372BDE8F083002397
S315080038C003E09E4209F10809F5D055F83340013363
S315080038D0C4F30754032CF4D1C1F3130343EA085382
S315080038E0C9E90032BDE8F0832DE9F0410646406893
S315080038F082B0C0B10F4690460024336853F834505E
S3150800390003EBC403C5F30752C5F31301013504F1EC
S31508003910010406D05B683046CDF80080B84710B180
S3150800392070688442E9D302B0BDE8F08173B50446F5
S315080039302248012A00EAC1119DF8185023F07C405C
S3150800394007D9961E012E28D9073303F07F0319439A
S3150800395008E09DF81C300A43DB0603F0C053134306
S3150800396043F060410023C4E900108DF80730B5B173
S31508003970202221460DF1070008F073F81A220DF1EE
S315080039800700211D08F06DF8082063689DF80720D8
S3150800399043EA8263636002B070BD1143E2E71B220B
S315080039A00DF10700214608F05CF823689DF807200A
S315080039B0042043EAC2632360EDE700BF80FFFF07E8
S315080039C038B5094B0D461A68002104460DF01EFC51
S315080039D000234FF0FF322383C4E900252361A26048
S315080039E0E382A37638BD00BFE83D01080138C0B2BE
S315080039F005289ABF014B185C01207047ED3D010868
S31508003A002DE9F0410746154600240E46596888B048
S31508003A10490A012922464FEA510104F10104F8D85E
S31508003A20DC78997824031B88C90201F4006104F440
S31508003A3080540C43C3F30A035203234492B24FF053
S31508003A4000089C18274B6FEA0444039325F0784333
S31508003A50ED4302A90DF107001B2202938DF807809A
S31508003A6007F0FFFF9DF80720029B02A943EAC263FD
S31508003A700DF107001B2225F07845049302958DF871
S31508003A80078007F0EEFF9DF80720029B6FEA1444B3
S31508003A9043EAC26305934FF0FF330794069307A9D9
S31508003AA0BB69012206F110009847BB6905A90446BF
S31508003AB0012206F108009847BB69404518BF04462D
S31508003AC004A90122301D98470122404518BF044623
S31508003AD0BB69304603A99847404508BF204608B049
S31508003AE0BDE8F08101009AB2044BD3F88420D206CF
S31508003AF0FBD4D3F88400C0F381107047004000500F
S31508003B0038B5174B0546D3F828310C4603F007039A
S31508003B10013B052B20D8DFE803F003131B0F0B1717
S31508003B200DF066FC052305B1286004B1236038BD95
S31508003B300DF05EFC0623F6E70DF09AFC0723F2E784
S31508003B400DF090FC0323EEE70DF08CFC0423EAE766
S31508003B500DF084FC0223E6E700231846E3E700BFDE
S31508003B6000800050002337B50193164B0546D3F85D
S31508003B7020320C4603F00703042B21D8DFE803F0B4
S31508003B80030B11161B0001230DB1019A2A6004B11B
S31508003B90236003B030BD002101A8FFF7B1FF12234F
S31508003BA0F2E70DF065FC07230190EDE70EF090FDB6
S31508003BB00A230190E8E70DF0AFFC09230190E3E73B
S31508003BC00023E1E70080005038B5104B0546D3F8CE
S31508003BD050320C4603F00303022B12D0032B08D0F5
S31508003BE0012B0AD00023184605B1286004B12360CA
S31508003BF038BD0EF070FD0C23F6E70EF069FD0A23BA
S31508003C00F2E70DF089FC0923EEE700BF00800050BB
S31508003C1038B5104B0546D3F880300C4603F003033D
S31508003C20022B0BD0032B0DD0012B0FD10DF0E6FB89
S31508003C300E2305B1286004B1236038BD0DF018FCC9
S31508003C400723F6E70DF0D4FB0623F2E70023184610
S31508003C50EFE700BF0080005038B5104B0546D3F893
S31508003C6000310C4603F00303022B0BD0032B0DD0B7
S31508003C70012B0FD10DF0F6FB032305B1286004B123
S31508003C80236038BD0DF048FC0923F6E70EF01EFD4B
S31508003C900823F2E701230020EFE700BF0080005069
S31508003CA038B5184B0546D3F820010C4600F0070036
S31508003CB0062823D8DFE800F0040A0E16121A1E009A
S31508003CC0012305B1286004B1236038BD0DF090FBCF
S31508003CD00523F6E70DF0C6FB0323F2E70DF0C8FB54
S31508003CE00723EEE70DF0BAFB0223EAE70DF080FBA7
S31508003CF00623E6E70DF0B6FB0423E2E700231846A1
S31508003D00DFE700BF0080005038B5104B0546D3F8F2
S31508003D1040310C4603F00303022B0BD0032B0DD0C6
S31508003D20012B0FD10EF0D4FC0A2305B1286004B18B
S31508003D30236038BD0DF0F0FB0923F6E70EF0CBFC47
S31508003D400C23F2E701230020EFE700BF00800050B4
S31508003D50002337B50193164B0546D3F860320C4657
S31508003D6003F00703013B032B1FD8DFE803F0020E1D
S31508003D701914002101A8FFF793FF10230DB1019A2A
S31508003D802A6004B1236003B030BD002101A8FFF703
S31508003D90BBFF1123F2E70DF06BFB07230190EDE75C
S31508003DA00DF05CFB02230190E8E70023E6E700BF7D
S31508003DB000800050002337B50193164B0546D3F80B
S31508003DC094320C4603F00703013B032B1FD8DFE8A8
S31508003DD003F0020E1914002101A8FFF761FF102352
S31508003DE00DB1019A2A6004B1236003B030BD0021E9
S31508003DF001A8FFF789FF1123F2E70DF039FB072326
S31508003E000190EDE70DF02AFB02230190E8E7002375
S31508003E10E6E700BF0080005038B5104B0546D3F8DA
S31508003E2060310C4603F00303022B0BD0032B0DD095
S31508003E30012B0FD10EF04CFC0A2305B1286004B102
S31508003E40236038BD0DF068FB0923F6E70EF043FC46
S31508003E500C23F2E701230020EFE700BF00800050A3
S31508003E6073B50D460021114B0191D3F880410646E2
S31508003E7004F00304022C13D0032C0CD0012C13D10C
S31508003E8001A8FFF70DFF10240EB1019B336005B1A1
S31508003E902C6002B070BD0DF0EBFA07240190F3E731
S31508003EA00DF0DCFA0190EFE70C46EDE700800050D4
S31508003EB038B5104B0546D3F840320C4603F00303D9
S31508003EC0022B0BD0032B0DD0012B0FD10EF000FCCB
S31508003ED00A2305B1286004B1236038BD0DF01CFB28
S31508003EE00923F6E70EF0F7FB0C23F2E7012300207F
S31508003EF0EFE700BF0080005038B5144B0546D3F8ED
S31508003F0000020C4600F0070004281BD8DFE800F082
S31508003F1003090D111500012305B1286004B12360BA
S31508003F2038BD0EF0D5FB0A23F6E70DF0F5FA09239E
S31508003F30F2E70EF0D0FB0C23EEE70DF079FA0F232B
S31508003F40800AE9E700231846E6E700BF008000502C
S31508003F5038B5144B0546D3F808020C4600F007009E
S31508003F6004281BD8DFE800F003090D11150001230A
S31508003F7005B1286004B1236038BD0EF0A9FB0A23F9
S31508003F80F6E70DF0C9FA0923F2E70EF0A4FB0C23B5
S31508003F90EEE70DF04DFA0F23800AE9E700231846ED
S31508003FA0E6E700BF00800050B0F5207F1FD009D893
S31508003FB0B0F5007F15D003D868B1B0F5C07F0AD038
S31508003FC000200CE0B0F5607FFAD10B4BD3F88000E7
S31508003FD0C0F3011003E0084B186FC0F3033001303B
S31508003FE07047054BD3F89000C0F30460F7E7024B1F
S31508003FF0186FC0F38020F2E70080005002464FF4A5
S315080040008030104B10B598660020FFF7CDFF50435F
S3150800401041F671320C4BDC69DA635A6804F4803471
S3150800402022F4401259B90949884294BF0020012058
S31508004030000502435A600CB10022DA6310BD044938
S31508004040F2E700BF0090005000000350005A6202D9
S31508004050002D31014209531E022B96BF074B002340
S3150800406003EB820300F01F0029B103F580530122F8
S3150800407082401A60704703F50053F8E760800050E5
S315080040801FB50021B0F5807F0446CDE9001100F088
S31508004090CF803BD8002800F0A480A0F12004602C33
S315080040A044D8602C42D8DFE804F09CA49CA4B4B49D
S315080040B0B4B4B4A4BE4AD46A4AA4A4A441414141B2
S315080040C041414141A4A4A47CDEA44141414141416E
S315080040D0414141414141E3B49C9C9CD94A4A88E804
S315080040E05FB94141414141939C41B4B4B4B4B4B9B8
S315080040F0B9A441A4A4414141414141414141414101
S31508004100414141414141414141419800B0F5E06F8B
S3150800411000F0A98038D8B0F5607F75D01AD8B0F508
S31508004120007F61D005D8B0F5C07F5AD0009804B09A
S3150800413010BDB0F5207F5CD0B0F5407FF6D10DF00C
S3150800414077F902464FF42070FFF72EFFB2FBF0F224
S31508004150520857E0B0F5B06F65D00AD8B0F5806F51
S3150800416057D0B0F5A06FE1D100216846FFF7FAFCF9
S31508004170DCE7B0F5C06F6CD0B0F5D06FD6D10021B2
S315080041806846FFF7B9FED1E7B0F5186F70D00DD8BD
S31508004190B0F5086F7FD0B0F5106F5FD0B0F5F06F4F
S315080041A0C4D100216846FFF737FEBFE7B0F5286F90
S315080041B063D007D8B0F5206FB8D100216846FFF75D
S315080041C0C7FDB3E7B0F5406F28D0B0F5486FADD15D
S315080041D000216846FFF7EEFDA8E70DF00FF90090FD
S315080041E0A4E70DF025F9FAE70DF008F9024620468E
S315080041F004E00DF01DF902464FF42070FFF7D4FED7
S31508004200B2FBF0F2009291E701A8FFF701FD019ACF
S31508004210EDE700216846FFF743FD87E7002168467A
S31508004220FFF76EFC82E700216846FFF719FE7DE777
S315080042304FF0E02302911B695B0705D50DF0F8F8EE
S315080042400290029B009371E703A902A8FFF75CFDA1
S31508004250F7E700216846FFF757FD67E7002168463C
S31508004260FFF776FE62E700216846FFF721FE5DE765
S3150800427000216846FFF7A8FC58E70021084B039180
S31508004280D3F8703203F00303012B02D103A8FFF71A
S315080042903BFD039BD6E76846FFF7DEFC46E700BF13
S315080042A00080005008B58020FFF7EAFE034B9842CD
S315080042B09EBF4FF48032024B1A6708BD005A62024D
S315080042C000A00050B0F5207F10B50C465DD008D888
S315080042D0B0F5007F4ED003D8C0B1B0F5C07F15D079
S315080042E010BDB0F5607FFBD12C4B4C1ED3F8FC20DB
S315080042F02B4912F0807F4FEA041427D1D1F8803079
S3150800430023F030032343C1F88030E9E707F0C7FB01
S3150800431007F0D3FB4FF48031224B214A1967136FFC
S31508004320013C23F4704343EA043313670DF080F825
S315080043300446FFF7D9FBC0F10201204607F0B7FB98
S3150800434000F04AF8BDE81040FFF7ACBFD3F8FC20F0
S3150800435022F08072C3F8FC20D1F8802022F03002C7
S315080043602243C1F88020D3F8FC2042F08072C3F8BB
S31508004370FC20B5E70A4A4C1ED2F8903023F0F853D1
S3150800438043EA0463C2F89030AAE7054A4C1E136F45
S3150800439023F4806343EA84231367A1E700ED00E072
S315080043A0008000500090005008B50121022000F05E
S315080043B057F84FF42070FFF7F7FD054B187007F014
S315080043C06EFB07F07AFB4FF48032024B1A6708BD82
S315080043D0B21F00200090005008B54FF4C070FFF7D8
S315080043E04FFEBDE808400449884294BF01210221D6
S315080043F04FF42070FFF766BF80F0FA0238B504461E
S315080044000DF016F80546FFF76FFBC0F102012846C6
S3150800441007F04DFB0121002000F062F82CB1FFF7F0
S31508004420DBFFBDE83840FFF73DBF034B4FF4207074
S315080044301978FFF747FFF4E7B21F0020024A536BCB
S315080044400342FCD1704700BF00800950034A017936
S31508004450D36E23F030030B43D366704700400050F9
S31508004460F8B504461C4BD3F88420D106FBD4D3F800
S315080044708430C3F381139C422CD00CF0BFFF012C6F
S31508004480064602D1214607F012FB0FF035F84FF029
S315080044900072124B07465A66204607F013FB4FF484
S315080044A080630D4D621E93402B676B6E9A0103D491
S315080044B0D5F884309B060AD538460FF018F8022C32
S315080044C008D13046BDE8F840002107F0F0BAD5F823
S315080044D08430EAE7F8BD00BF004000500060005095
S315080044E010B50C4608B90CF089FF074B21461B7816
S315080044F03BB1064B984204D80120BDE81040FFF7AF
S31508004500AFBF0220F9E700BFB31F0020005A6202BE
S315080045104FF0004238B5244B244C5A664AF6CD3340
S31508004520656C014605F00105236428BB0120FFF7E9
S3150800453085FF6368DB0715D51D4B586008461D4B7C
S31508004540226BD2070CD4984208D1072415B1174B11
S31508004550194A1A6407F0B7FA204638BD0130EFE762
S315080045609842F2D00024F1E70132236B13F00803D6
S3150800457005D08A42F8D1E8E700220E49F5E78A42D3
S31508004580E3D020210A4A91620121A2F580525160A6
S315080045900649084A886A800603D49342D5D001336F
S315080045A0F8E79342DDE700BF00900050008009500D
S315080045B000A0095040420F003254FFFF4FF000425E
S315080045C038B5164B01465A664AF6CD33144C154A89
S315080045D0656C236443780B205B0043F00103D363C7
S315080045E0FFF72CFF63688A7823F4F87343EA02130B
S315080045F06360CA784B7943EA0223A3600A798B7908
S3150800460043EA022323610878FFF782FFEB0744BFDA
S31508004610054B236407F057FA012038BD0090005077
S3150800462000800950004000503254FFFF4FF000420E
S31508004630124B70B55D6E03F580535A664AF6CD3354
S3150800464004460F4980204E6C0B64FFF7F7FE0B6A91
S3150800465023F00F030F2C94BF234343F00F030B6281
S31508004660F30744BF074B0B64002DA2BF4FF000426F
S31508004670054B5A6607F027FA70BD00BF0080005048
S31508004680008009503254FFFF00A000504FF48032DA
S31508004690054B9A6641F6713203F51C33DA6301223B
S315080046A003F50053DA607047009000500B4B012168
S315080046B09B6EDB035EBF4FF48032094B9A6641F668
S315080046C07132084BDA63084AD1600022DA634FF484
S315080046D08032A3F518339A66704700BF00800050F1
S315080046E0009000500000035000200350044B186847
S315080046F0421C02BF034AD2F894001860704700BFF4
S3150800470048220020004000504FF48032084B5A6679
S3150800471003F5EE239B69C3F3461203F00F010A4320
S315080047204280C3F30342C3F30333427003707047F6
S31508004730009000500120034B9B680A3303F01F03C7
S31508004740984070470080E00F07B5094B18689A88AB
S315080047509B7900906846ADF804208DF80630FFF77F
S315080047602DFF0C20FFF762FF002003B05DF804FB65
S31508004770F33D010813B50024064A6846536F43F013
S315080047800103536700948DF80440FFF75FFE204647
S3150800479002B010BD004000500028ACBF00F16040D8
S315080047A0064B4FEA0111C9B2ABBF00F5614000F0F4
S315080047B00F0080F800131954704700BF14ED00E08D
S315080047C008B50EF0A2FE0B4B1A7872B901221A70C0
S315080047D00EF096FE6FF0040210460132052152B221
S315080047E0FFF7DAFF5D2AF7D108BDBDE808400EF0ED
S315080047F087BE00BFB41F0020002807DB012341093C
S31508004800034A00F01F00834042F82130704700BF7A
S3150800481000E100E0002808DB01224309034900F013
S315080048201F008240603341F82320704700E100E012
S3150800483073B50EF06AFE0D4D0D4B2E781C680EF002
S315080048405FFE0DF0F8FF38B1FF2E05D0002029785D
S3150800485001AA06F098FB019C2CB90EF056FE054BF2
S315080048601C680EF04DFE204602B070BD0D230020D8
S31508004870B0120020B412002010B504460EF045FE12
S31508004880024B1C600EF03CFE002010BDB412002046
S3150800489013B5002301241A4619461846009404F055
S315080048A0B5FB002300941A461946184604F0E0FBA7
S315080048B00248FFF7E1FF002002B010BD6022002089
S315080048C013B5094C684600F03FF8237853B9DDE97B
S315080048D000010222054B07F0B7FD08B90123237032
S315080048E002B010BD1220FBE7B51F0020B812002049
S315080048F007B5009313460A460146034807F071F9BF
S3150800490003B05DF804FB00BFB812002013460A4640
S315080049100146014807F055BAB812002007B50093BA
S3150800492013460A460146034807F04EFB03B05DF8F6
S3150800493004FB00BFB812002013460A460146014888
S3150800494007F068BBB81200200249034A0160521AF0
S3150800495042607047202D00200000082008B50CF0A2
S3150800496087F9034B1868BDE808400DF066BF00BF1D
S31508004970E012002030B5094D8BB001AC0FCD0FC445
S315080049800FCD0FC42B68002101AA054823600DF03E
S31508004990FFFE044B18600BB030BD00BF003E010897
S315080049A05D490008E012002010F1860F14D010F1BE
S315080049B0850F07DA10F1930F11D0873007D04FF023
S315080049C0FF307047003818BF012040427047054B3A
S315080049D0194411F9050C70476FF0710070476FF0B4
S315080049E06F007047243E0106012910B50CDC084CFF
S315080049F0084B00290CBF2146194608F070FA2146D3
S31508004A00BDE81040FFF7D0BF6FF0740010BD00BFBF
S31508004A100B0000020A00000208B508F0A0FABDE87B
S31508004A2008400149FFF7C0BF0B000002002307B585
S31508004A304022019301AB08F0AEFA034903B05DF8D2
S31508004A4004EBFFF7B1BF00BF0B000002012910B548
S31508004A500CDC084C084B00290CBF2146194608F007
S31508004A603EFA2146BDE81040FFF79EBF6FF073007F
S31508004A7010BD00BF090000020800000208B508F0D2
S31508004A806EFABDE808400149FFF78EBF090000022B
S31508004A90002307B52022019301AB08F07CFA0349ED
S31508004AA003B05DF804EBFFF77FBF00BF0900000203
S31508004AB010B5044C214608F012FA2146BDE810400C
S31508004AC0FFF772BF0500000208B508F048FABDE80E
S31508004AD008400149FFF768BF05000002002307B533
S31508004AE01422019301AB08F056FA034903B05DF8A6
S31508004AF004EBFFF759BF00BF0500000238B5134D98
S31508004B0003F07AFC124B134A1349144803F0BEF912
S31508004B102B7803F0FF04BBB90CF01AFD012802D963
S31508004B200DF0FEFD04462B782BB90D4B0D481B687E
S31508004B30984701232B700CF00BFD012804D9204659
S31508004B40BDE838400DF002BE38BD00BFB61F0020D4
S31508004B5041C5000823C500085BC5000865C50008EF
S31508004B60802200203C15002000F01F02A0F5062038
S31508004B70A0F55060812810D80123094940099340BF
S31508004B8051F820201A4341F82020064951F82020E0
S31508004B9022EA030241F8202070474FF0FF307047A1
S31508004BA0F8120020E412002000F01F03A0F50620EA
S31508004BB0A0F55060812810B519D801210D4A400981
S31508004BC0994052F820300B430B4942F82030D1E97E
S31508004BD0004323448C682344CC68096923445B1842
S31508004BE004D1C2E90033C2E90233136110BD4FF0A4
S31508004BF0FF30FBE7E4120020F81200202DE9F04F01
S31508004C00A7B003921F4604460822CDE90401414095
S31508004C1021FA02F34B40980702F1080218BF9B00DD
S31508004C20202A1C44F4D18123B4FBF3F303EBC3130A
S31508004C30E41A7F4B04F506241B7804F55064002B10
S31508004C4039D104F065FA054600286FD1014640229D
S31508004C5006A80CF0DBFA2946402216A80CF0D6FA6C
S31508004C60744D754EA8461035AE4228BF2E46734879
S31508004C70013E009643461022006806A906F01BFD71
S31508004C804FF0000B81460DF1180AD94541D16B4802
S31508004C90009643461022006816A906F015FD4FF047
S31508004CA00008834616AEC34546D1654B9D42D8D10A
S31508004CB001225F4B1A704FF081080026DFF894B185
S31508004CC0A4F50625A5F550635B095BF8232004F0D7
S31508004CD01F01CA40D20746D45A4A52F82330CB405D
S31508004CE0DB0732D58123002E08BF2646A5F6FF44EA
S31508004CF0B4FBF3F303EBC313E41A04F50624B8F183
S31508004D00010804F55064DBD1039B03B3FEB13446B6
S31508004D1025E05AF8040BFFF727FF013009D10022D6
S31508004D20434B1A70424B1B78002BC4D16FF091008D
S31508004D300FE00BF1010BA8E756F8040BFFF734FF59
S31508004D400130EFD008F10108ADE7039B23B96FF0F6
S31508004D508B0027B0BDE8F08F002E18BF3446329B73
S31508004D6000201C60F5E7309B13B10023309A1360CE
S31508004D70319B13B10023319A13604FF0100ADFF804
S31508004D80BC90CDF800A000233A462146D9F8000089
S31508004D90FEF7CEFB002838D130993A682A4BE9B19C
S31508004DA09A42C1F800A01CD02146D9F80000FEF7A7
S31508004DB019FD0028CBD1D7E90223DDE90410834287
S31508004DC008BF8A422AD08123A5F6FF45B5FBF3F32F
S31508004DD003EBC313ED1A05F5062490E79A42EAD0C9
S31508004DE0E2E7319B002BE6D02146D9F8000016AA47
S31508004DF0FEF7E4FB48B9319B309A1B681268934268
S31508004E0094D39B1A319A1360D5E7104B9842CBD0AE
S31508004E106328C9D00E4B9842CDD087E7039B002B59
S31508004E209DD07B68012B9AD16FF0840091E700BF73
S31508004E30B71F0020006D0800816D08008C22002035
S31508004E40906D0800E4120020105D175EFFDF00F089
S31508004E50FEDF00F0F812002070B5124D2B7803F033
S31508004E60FF04CBB90CF074FB012802D90DF058FCED
S31508004E7004462B784BB90C48436D43F00103436550
S31508004E800A4B1B68984701232B700CF061FB01281D
S31508004E9002D920460DF05AFCBDE87040044B024882
S31508004EA01B681847B81F00200C130020802200201A
S31508004EB078220020034B1B781BB1034B03481B6861
S31508004EC018477047B81F0020742200200C130020D2
S31508004ED02DE9F04F87B08246894698461646DDF892
S31508004EE040B02AB1002B57D040F26C739A4256D87C
S31508004EF0BBF1010F56D8002406F1100739460120E8
S31508004F00059407F07DF8054600284ED021463A4616
S31508004F100CF07CF9FFF7A0FF05ABCDE9014300943F
S31508004F202B46012250464946FFF768FE044690B1D3
S31508004F3010F18C0F08BF6FF08D043A460021284601
S31508004F400CF064F9284607F03DF8FFF7B3FF204652
S31508004F5007B0BDE8F08F164BC5E902A92B60C5F866
S31508004F6004B02EB13246414605F110000CF032F875
S31508004F70059E10483B462A4631460068FEF7EEFB7A
S31508004F8038B93046FFF7F0FD013008BF6FF08604E8
S31508004F90D3E76FF09104D0E76FF08604D7E76FF098
S31508004FA09104D4E76FF08504D1E76FF08C04CEE75F
S31508004FB0105D175E8C2200202DE9F0478CB08146E3
S31508004FC0DDE914780C4616461D466BB1B8F1000F9C
S31508004FD049D0002F47D0B7F1005F44D3C3F100533F
S31508004FE003F500239F423ED84FF0000A1022002105
S31508004FF008A80CF00BF9CDE905AAFFF72DFF07ABBA
S31508005000029305AB019306AB2146009352464846E8
S3150800501008ABFFF7F3FD0446D0B9059B3DB1B34293
S315080050201CD853EA060504D06FF0860410E0B34294
S31508005030FAD3069B0D48C8F8005000953A460799DA
S3150800504000683344FEF774FA002818BF6FF091041D
S31508005050FFF730FF20460CB0BDE8F0879B1B9D424A
S3150800506028BF1D46E5E76FF08604F3E78C2200208B
S3150800507070B500260C4605468CB01022002108A8FB
S315080050800CF0C4F8CDE90566FFF7E6FE07AB029318
S3150800509005AB019306AB214600933246284608AB7A
S315080050A0FFF7ACFD044608BB099B012B23D0079DDF
S315080050B0144B29461868FEF795FBF8B9A5F506239B
S315080050C0A3F55063812B05F01F020DD801210E4868
S315080050D05B09914050F823204A4040F8232028468F
S315080050E0FFF762FD013001D16FF08604FFF7E2FE9B
S315080050F020460CB070BD6FF08404F7E76FF091049A
S31508005100F4E700BF8C220020F81200202DE9F041B8
S315080051100D4614461E46C4B010B96FF086000DE061
S315080051200029FAD0002AF8D0002BF6D0038803F419
S315080051304F42B2F5824F04D06FF0850044B0BDE807
S31508005140F081DAB2122AF7D123F0FF03B3F5E24F62
S3150800515027D143883360FBB9E3003360B3F5807F1A
S31508005160EAD10023184642492E19214411F8014D67
S3150800517016F8012D1043121B0CBF4FF0FF34002404
S31508005180B54203EA040343EA0203EFD10028C4D078
S31508005190002BC2DA0020D1E7DA1DB4EBD20FDDD03E
S315080051A0BBE7B3F5824F60D10B78042BB5D1282223
S315080051B0002118A80CF02AF818A80EF0E7F900281C
S315080051C050D100278422394623A822970CF01EF8CE
S315080051D001232022394668468DF888300CF016F8E7
S315080051E020224FF08808013C3946013505940DEB1D
S315080051F00200E400049564080CF008F822AD2022A9
S31508005200394610A80C95CDF834800BF0FFFFE02C3A
S31508005210CDE91458346003D0B4F5807F7FF47DAFB0
S31508005220144B0734009308934FF4005302934FF43A
S315080052308043E4086A460A93640010AB08A918A8D4
S31508005240119403F0C9FB33680733DB085A0033B1FE
S315080052500021531E013B297005F10105FAD20028E9
S3150800526098D05AE76FF0920068E76FF0960065E706
S315080052702B3E010820000080F8B5134642880C46EC
S315080052800732072A4FEAD20101D0A1426DD1D0E9EF
S31508005290016705882022184600210BF0B7FF360A59
S315080052A0034626B1012E11D06FF08B00F8BD002CF5
S315080052B05BD041F20102954205D0B5F5885F02D070
S315080052C0B5F5905F1BD15C600020EFE7C660002C47
S315080052D04BD041F2010295420BD15C60B90707F049
S315080052E001021FD4002AEFD19A6842F080729A60B0
S315080052F0EAE7B5F5885FF0D0B5F5905FEDD0B5F57E
S31508005300105F0AD1182C03D0202C01D0102C2CD1D8
S31508005310C3E90044002ED7D0E0E705F44F42B2F5C2
S31508005320824F02D06FF08500C0E7EAB2122AF9D19F
S31508005330202CF7D10E4A25F0FF05B5F5E24F1A6085
S315080053400CD0B5F5824F10D14FF4005217F4705FA8
S3150800535009D017F4864F04D09A60E3E74FF48042E9
S31508005360F4E742F480629A60D4E76FF086009DE71E
S31508005370200000802DE9F041174600221C464368AC
S315080053808CB01B0A80460D46009204D0012B56D0DD
S315080053906FF08B008EE0008820F0FF03B3F5824F94
S315080053A015D1B8F802200732D208009207F039F969
S315080053B0002800F0E1800B78042B05D1013FB7EBFC
S315080053C0420F05F1010503D06FF0860072E00097E1
S315080053D0009E224631464046FFF74EFF002869D117
S315080053E0FA1CC4E9030522F003026261002E00F0EC
S315080053F0A4802022002101A80BF008FF3146404670
S3150800540001AAFFF739FF002840F097802168019D1F
S31508005410039A8D42A36840F090806168029D8D4290
S3150800542040F08B809A4240F08880A369079A9A4296
S3150800543040F08380E369089A9A423BD07DE0032FC7
S31508005440C2D90B78012B40F09A80497800294BD0B5
S31508005450F73908299CD801A353F821F0C554000848
S315080054608154000891530008BB5400089153000862
S31508005470DF54000891530008CF540008D754000899
S315080054804FF41056F8253F4F1C22002102A80BF0B6
S31508005490BDFE03230197CDE90435039601AA09AD9C
S315080054A0134603CBAB42206061601A4604F1080438
S315080054B0F6D100200CB0BDE8F08110274FF08076B9
S315080054C0FA25E1E720274FF00076F725DCE7FE25E9
S315080054D02C4F2D4ED8E7FF252A4F2C4ED4E74FF4F4
S315080054E01056FC25274FCFE72B2F7FF66DAF2022CE
S315080054F020460BF08BFE05F110032361AB070DD098
