S01C00006275696C642F64656275672F67656E657261746F722E7333379C
S3150800000000040020A523000843B5000843B50008EE
S3150800001043B5000843B5000843B5000843B50008D2
S3150800002043B5000843B5000843B500082D1A010872
S3150800003043B50008DC3E0108D11901080F2A01085A
S3150800004043B5000843B5000843B5000843B50008A2
S3150800005043B5000843B5000843B5000843B5000892
S3150800006043B5000843B5000843B5000843B5000882
S3150800007043B5000843B5000843B5000843B5000872
S3150800008043B5000843B5000843B5000843B5000862
S3150800009043B5000843B5000843B5000843B5000852
S315080000A043B5000843B5000843B5000843B5000842
S315080000B043B5000843B5000843B5000843B5000832
S315080000C043B5000843B5000843B5000843B5000822
S315080000D043B5000843B5000843B5000843B5000812
S315080000E043B5000843B5000843B5000843B5000802
S315080000F043B5000843B5000843B5000843B50008F2
S3150800010043B5000843B5000843B5000843B50008E1
S3150800011043B5000843B5000843B5000843B50008D1
S3150800012043B5000843B5000843B5000843B50008C1
S3150800013043B5000843B5000843B5000843B50008B1
S3150800014043B500085D49000843B5000843B50008F3
S3150800015043B5000843B5000843B5000843B5000891
S3150800016043B5000843B5000843B5000843B5000881
S31508000170F0B5114A114C124E00F00105E3695F070C
S3150800018013D40DB9334213D103EA00078F4207D1BE
S315080001900B4A1A40002A0CBF00206FF00100F0BD80
S315080001A0013AEBD16FF00200F9E74FF0FF30F6E7BE
S315080001B06FF00100F3E700BF809698000000035037
S315080001C0020001000B4B70B5D96911F480310DD1CD
S315080001D001244FF48072084E084DF46020462C64C2
S315080001E01A61FFF7C5FF3464EC6070BD6FF001005B
S315080001F0FBE700BF00000350001003500020035027
S315080002004FF4803238B50E4B0E4C9A66E56941F6C6
S31508000210713315400122E3630B4B0021DA60022398
S31508000220606121202361FFF7A3FF10B92120FFF7A2
S315080002309FFF0122054BDA600DB10023E36338BD49
S315080002400090005000000350001003500020035097
S3150800025070B5134C6061E3695B071ED40E4656F809
S31508000260043B8D18A361AE420BD104230021212043
S315080002702361FFF77DFF58B9BDE870402120FFF7DD
S3150800028077BF08210846FFF773FF10B104232361DF
S3150800029070BD56F8043BA361E5E74FF0FF30F7E77A
S315080002A0000003502DE9F84315464FF48032184BE9
S315080002B089469A6603F51C33DF690646174041F6F8
S315080002C07132DA63012203F58053DFF84C80DA6075
S315080002D055B9284601220F4BDA601FB10022A3F553
S315080002E00053DA63BDE8F88306F5005404EA080407
S315080002F0A41BAC4228BF2C46494622463046FFF787
S31508000300A7FF0028E6D12644A1442D1BE0E700BF3D
S31108000310009000500020035000E0FFFFA2
S3150800032001292DE9F04F4AD889B30FF2D40BDBE93E
S3150800033000AB0FF2D409D9E9008935A7D7E90067D8
S3150800034035A5D5E9004536A3D3E900239FED1E5B05
S315080003509FED1F6B9FED207B9FED214B80ED045B8E
S3150800036080ED004B80ED024B80ED066B80ED087B3F
S31508000370C0E90AABC0E90C89C0E90E67C0E91045B7
S31508000380C0E91223C0F8D0100020BDE8F08F9FED19
S31508000390165B0FF2940BDBE900AB0FF29409D9E96F
S315080003A0008925A7D7E9006725A5D5E9004526A32D
S315080003B0D3E900239FED0E6B9FED0F7BCCE76FF023
S315080003C07400E2E7AFF30080D89E05C15D9DBBCB04
S315080003D007D57C362A299A6217DD70305A01599159
S315080003E0000000000000000008C9BCF367E6096ABF
S315080003F03BA7CA8485AE67BB2BF894FE72F36E3CA6
S3150800040039590EF7D8EC2F15310BC0FF672633671D
S3150800041011155868874AB48EA78FF9640D2E0CDB20
S31508000420A44FFABE1D48B547F1361D5F3AF54FA5EC
S31508000430D182E6AD7F520E511F6C3E2B8C68059B10
S315080004406BBD41FBABD9831F79217E1319CDE05BC8
S315080004500348044B834202D0034B03B11847704745
S31508000460F42C0020F42C002000000000064B07495D
S31508000470C91A891048BF0131491003D0044B0BB182
S3150800048001481847704700BFF42C0020F42C0020C0
S315080004900000000010B5064C237843B9FFF7D8FFD3
S315080004A0044B13B10448AFF300800123237010BD39
S315080004B0F41D0020000000005451010808B5054B42
S315080004C01BB105490548AFF30080BDE80840FFF7B2
S315080004D0CDBF00BF00000000680400205451010889
S315080004E0A3F5803A704700BF174B002B08BF134B84
S315080004F09D46FFF7F5FF00218B460F461348144A21
S31508000500121A10F04AFF0E4B002B00D098470D4BDD
S31508000510002B00D098470020002104000D000D484C
S31508000520002802D00C48AFF3008009F051FB2000E8
S3150800053029000DF033F809F0B5FA00BF00000800ED
S315080005400000000000000000000400200004002055
S31508000550C01F0020000000000000000030B589B070
S3150800056004460AF0A0F801230E4A0025CDE9022325
S315080005700D4B01A805934FF47053CDE9065401932A
S315080005800AF084F8019B04930BF04FFF000240F039
S3150800059001000390694602A8009507F0AFFB09B071
S315080005A030BD00BF1271000109060006F0B589B01A
S315080005B00C46154606460AF076F80123114A002726
S315080005C0CDE90223104B01A805934FF47053CDE9EA
S315080005D0067601930AF05AF8019B04930BF025FF5F
S315080005E0000240F0010021466B462A46039002A805
S315080005F000970FF044FA044602A80FF0C3FC204601
S3150800060009B0F0BD127100010906000610B50A4BC3
S3150800061086B0144602930023059103901A46CDE945
S315080006200033214405A80DF03DF8002814BFAC207E
S31508000630002006B010BD00BFC9A600082DE9F0418C
S31508000640CEB0549D1C462B6806460F469046002B96
S3150800065055D06B68B3F5007F51D302A810F032FB72
S315080006606368E3B12468274B2278002A08BF1C4632
S3150800067000217C2207A8069110F08FFE80212346D0
S31508000680CDE90078204A06A809F04EFE06A902A878
S3150800069010F031FB28B1AC204EB0BDE8F081194C02
S315080006A0E6E7092102A810F022FB3068FFF756FF9B
S315080006B026A80EF0E7FD316826A806F0F5FC0446E4
S315080006C00028E8D126A902A810F013FB00942346B7
S315080006D0D5E9001202A808F079FE04460028DAD106
S315080006E0286810F0C7FD6B680130984201D910F0F0
S315080006F045FD686002A810F0E9FA2046CCE72F20ED
S31508000700CAE700BF2838010836380108F0B50C4694
S31508000710002197B00646154607A83C22069110F018
S315080007203CFE402305AACDE9013206AF00970593A2
S315080007300E49D4E9002330680FF0BCFA044698B98C
S31508000740059E6B689E420DD832463946286810F0D9
S315080007500AFE6B689E4201D910F010FD20466E60B5
S3150800076017B0F0BD1920FBE7AC20F9E7090600062B
S31508000770044808B500680CF042FA002814BFAE20F9
S31508000780002008BD5C22002008B5034B18680CF051
S3150800079025FA002008BD00BF5C22002038B50446B3
S315080007A00D46204609F09FFF6B7C002857D0052B85
S315080007B059D0032B17D0042B38D0012B4DD1022248
S315080007C0214628460AF04DF8002833D129462846FE
S315080007D00AF08BF870BB95F82430002B0CBF032366
S315080007E005236B74DDE795F825209AB1214628463E
S315080007F02A7F0AF036F8E8B9294628460AF0B6F8F4
S31508000800C0B995F8253073B90223AA691A442A6231
S315080008100423E6E72B7D013BDBB2022B9CBF134A80
S31508000820D25CAA61F0E72B7F0233EEE795F8243015
S315080008300BB1232038BDAA690AB91820FAE7214660
S3150800084028460AF00EF80028F4D1294628460AF068
S31508000850B5F80028EED10523C3E70320EAE7052B00
S3150800086001D00D20E6E70020E4E700BF7438010850
S315080008700048704770210020024A0349034810F0D7
S31508000880CABA00BF6C21002097AA00087021002070
S315080008900023F0B590F8C12087B00446019322B131
S315080008A0A0F8C03017480AF009FE0025164F04F1D3
S315080008B0B806304601ABC5F180027919FFF758FF33
S315080008C0C0B1DDB1114B04AA0493802302A92046C6
S315080008D0CDE9027505930AF0F5F8DDE9041280F012
S315080008E0010084F8C1003046FFF74EFF30B1002002
S315080008F007B0F0BD019B01901D44DAE794F8C000EB
S31508000900F6E700BFFC050020751E0020F51D002037
S31508000910836810B504460BB92F2010BD1A491A6B07
S31508000920D1E900138B4298BF002302F1040288BF65
S315080009305B1A9A4204D00023134819460AF0BCF9F8
S31508000940A36812491A6BD1E900138B4298BF00239A
S3150800095002F1080288BF5B1A9A4204D000230B48AA
S3150800096019460AF0A9F9D4E90312A06801F078F942
S315080009700028D2D1237E2BB16169A06801F0F8F86E
S315080009800028CAD10020C8E7B8050020880500203D
S315080009902DE9F341054608460C4609F0B1FE064620
S315080009A078B1254809F09FFE58B186423246224959
S315080009B028BF0246204609F038FF10B102B0BDE84C
S315080009C0F0811E4F1C4E27E03368013AC6E9023310
S315080009D0D7F80031C7F8042157F82300013303F08C
S315080009E03F030190C7F800312846CB69124A01A98E
S315080009F098470028E2D1204609F082FE8046304614
S31508000A0009F071FE80454246314628BF0246204617
S31508000A1009F00BFF0028D1D1204609F071FE29689C
S31508000A2018B1D7F80421002ACED12846CB6802B0DF
S31508000A30BDE8F041184700BF880500208004002063
S31508000A4070B504460D460E4E284609F04CFE28B9E8
S31508000A5023682046BDE870409B68184731462846FB
S31508000A60FFF79CFE0D28EFD048B9236820469B69FE
S31508000A700349984718B902480AF041F9E4E770BDF6
S31508000A80B805002091F8273070B506460C464D8A01
S31508000A902BB10A7D194829460AF054F930BBB5F539
S31508000AA0827F0AD8B5F5807F0BD9A5F58175022D09
S31508000AB009D8DFE805F00C0A0F0040F23B139D4207
S31508000AC011D0A62012E0E36AF36000200EE0E36A84
S31508000AD03361FAE794F8243083F00103337603B1DF
S31508000AE0E36A7361F1E7B2680AB92F2070BDA38D76
S31508000AF0002B08BF4FF400731363E6E78004002059
S31508000B0008B503480A7D498A0AF01CF908BD00BFE2
S31508000B108004002070B586680C460EB92F2070BD7B
S31508000B2091F8263003B9B43694F82730257D33B1C9
S31508000B302A46618A17480AF005F90028EFD1032DDD
S31508000B4026D8DFE805F016020E1133689B6894F87C
S31508000B502420618A5AB904F12C023046BDE8704057
S31508000B60184733681B69F2E733689B69EFE7002289
S31508000B70F3E73368618ADD6A94F8243033B9E26AA8
S31508000B803046AC46A369BDE8704060470022F7E7E7
S31508000B902620C4E7800400200A46498A10B5B1F524
S31508000BA0A27F15D008D840F2051399421AD0B1F59C
S31508000BB0A17F0DD0A6200AE040F2A1139942F9D1EF
S31508000BC0806838B10368DC6A9369D26AA04710BDA9
S31508000BD0806808B92F20FAE703682C321B69BDE83C
S31508000BE010401847127D02480AF0ACF8EFE700BF3C
S31508000BF0800400202DE9F04100251746526894B07C
S31508000C00052A88461E468DF805508DF806508DF83B
S31508000C10075040F2A78001233968023A02A80AF071
S31508000C2062F80DF1050102A809F039FE044600280C
S31508000C3040F094800DF1060102A809F030FE044642
S31508000C40002840F08B800DF1070102A809F027FE65
S31508000C500446002840F082807B683168802B7CD867
S31508000C6073687F2B7CD903467622083107A80AF0D9
S31508000C703AF89DF80630013B042B6CD8DFE803F000
S31508000C8003325D64550001238DF83430514BCDF89D
S31508000C9038800C930023CDE90F3311938DF8483033
S31508000CA0B8F1000F1BD0D8F8305000232A1D19467A
S31508000CB049480AF001F848480AF021F8002305F1E6
S31508000CC008021946454809F0F7FF0022444BC3F8C5
S31508000CD0042107AA02A90CA80AF059F809E04FF45A
S31508000CE00075E2E73C4809F0D9FF3C4809F0D6FF11
S31508000CF00020099A079B9A4288BFD41AE5B204468F
S31508000D0000230822316807A809F0EDFF00211C22FC
S31508000D100DA80C9110F041FB022107A809F0FDFC73
S31508000D2010B3002014B0BDE8F08101238DF83430EB
S31508000D302C4BCDF838800C93CBE70323CDF83880BD
S31508000D408DF83430284BF6E70423CDF838808DF833
S31508000D503430264BEFE72A20CBE7C2240025CFE71D
S31508000D601924FBE71924CBE79DF8061007A841F0DC
S31508000D70800109F0D2FC0028D3D19DF8071007A8F6
S31508000D8009F0CBFC0028CCD1214607A809F0EAFCDB
S31508000D900028C6D1294607A809F0BFFC0028C0D1FB
S31508000DA0726805F10A03934201D910F0E7F908358C
S31508000DB02946306873600CAA00F0FAFF0028B0D103
S31508000DC09DF80600BDF830203368023818BF0120A8
S31508000DD05A53A7E794380108B8050020880500206B
S31508000DE080040020BC380108E43801080C390108E1
S31508000DF0002208B51146064809F090FF002205486A
S31508000E00114609F08BFF0022034BC3E9402208BDB7
S31508000E10B8050020880500208004002002490A68D9
S31508000E2002604A6842607047743B010810B440F299
S31508000E306314A142034612D0B1F5B27F07D2B1F5C9
S31508000E40827F20D0B1F5B17F18D0A62009E040F204
S31508000E5097108142F9D102B11268DA6211E01AB923
S31508000E602F205DF8044B704711680A4BA1F57A727A
S31508000E709A42F5D85DF8044B00F0D2BD02B112686B
S31508000E809A620020EDE7002AEAD011685DF8044B63
S31508000E9000F06EBEB88201002DE9F0470024054631
S31508000EA08EB08846174621460D2205A80DF1280959
S31508000EB01E46049410F071FA21460D2248460994FC
S31508000EC010F06BFA1122284602AB04A9CDE90244B8
S31508000ED000F05CFD044600285DD1029B0A2B51D127
S31508000EE09DF814302D2B2FD00025049B0A2203A928
S31508000EF009A809938DF8285008F058FE039BA8F80E
S31508000F0000004B4541D1BDF814300A2203A909A8AF
S31508000F10ADF824308DF8265008F048FE3870039F47
S31508000F200DF126039F4230D1BDF816300A2203A9D7
S31508000F3009A8ADF824308DF8265008F037FE039B33
S31508000F403070BB4221D125E09DF817302D2BCBD12F
S31508000F500823029306AB01930DF1150311210F4ADD
S31508000F60009309A804AB09F0DFF9DDF808A009A980
S31508000F70524604A810F0F5F85246284604A900F08F
S31508000F80FFFC40B9029B072BAED8054804A908F018
S31508000F9043FE2F2420460EB0BDE8F0872C39010801
S31508000FA0393901080023F0B587B001930C46D1E919
S31508000FB0001201AB00F0F6FC40F20123984225D15D
S31508000FC002AD2A46144B03F110072E4618685968D5
S31508000FD0083303C6BB423546F7D163680F2B02D8E0
S31508000FE0192007B0F0BD256806AE134603CBB342F9
S31508000FF0286069601A4605F10805F6D110230193A1
S31508001000019B6268934204D910F0B8F80028E8D129
S31508001010F6E700206360E4E77C3B0108F0B5B1F52C
S31508001020AA7F99B0154606461A461E9C3CD8B1F5C5
S31508001030A07F09D840F2051399426DD040F21113EA
S31508001040994262D0A62065E06FF4A073194413296B
S31508001050F8D801A353F821F05311000845100008E9
S315080010606D11000845100008731100087911000871
S315080010707F11000885110008451000084510000872
S3150800108045100008451000084510000845100008DE
S315080010904510000845100008451000088B11000887
S315080010A0911100089B110008B1F5C17F00F09280EC
S315080010B010D840F26513994200F08280B1F5B37FEB
S315080010C000F08380B1F5B27FBCD12346294600F0F3
S315080010D0C3FC1EE040F29513994200F0898040F265
S315080010E0B113994200F0938040F293139942A9D123
S315080010F0CDE90B5205B9EAB933683046D3F88030E2
S315080011000BA9984730B90C9B21E02346294600F0E5
S3150800111041FD48B319B0F0BD00F1340738460392D3
S3150800112010F0A8F8039A0130CDE90605059708924C
S3150800113015B90AB110F022F807AB00933046728B46
S31508001140318B05AB00F0D0FC0028E3D1089B236067
S315080011500AE003681B6B2946304698470028D9D110
S31508001160284610F087F820600020D3E703689B6BB9
S31508001170F1E703681B6CEEE703685B6CEBE7036853
S315080011809B6CE8E70368DB6CE5E703685B6DE2E701
S315080011902346294600F0FAFBBBE721230E93036892
S315080011A00FAF03921B6E0D970DA99847039A002857
S315080011B0B0D1134620212A4638460AF01AF9D2E752
S315080011C02346294600F054FCA3E72346294600F0A7
S315080011D0EDFC9EE7CDE909530DB9002BAAD133687A
S315080011E03046DB6F09A99847002893D10A9BAEE7DA
S315080011F0CDE90D520DB9002A9CD133683046D3F893
S3150800120084300DA99847002884D10E9B9FE7CDE925
S315080012100F520DB9002A8DD133683046D3F88C3079
S315080012200FA9984700287FF475AF109B8FE700BF7A
S31508001230F0B54B680646602B0C461546A5B029D96D
S3150800124000278222394603A8029710F0A6F801ABB8
S315080012508622304602A9019700F00AFC40F20123D3
S31508001260984210D184220C4902A801920FF079FF06
S315080012702268019902A800F0B1FD286063689842C7
S3150800128005D90FF07BFF0028F2D025B0F0BD6060CD
S315080012900020FAE71920F8E75839010870B5002642
S315080012A0044696B02A220D460BA831460A9610F037
S315080012B074F801AB2E2220460AA9019600F0CCFB51
S315080012C040F20123984227D118230193174B0AAC01
S315080012D003F11806224618685968083303C2B34250
S315080012E01446F7D100241C22214603A8029410F0C4
S315080012F054F8019902AA0AA800F070FD6B68064620
S31508001300984210D8024602A928680FF02AFF6B688F
S315080013109E4205D90FF032FF0028E3D016B070BD03
S3150800132020466E60FAE71920F8E700BFDD390108A4
S3150800133070B5B1F5B27F054616461C4692B000F068
S315080013401D8121D840F21113994271D06FF4A07310
S3150800135019448BB2132B30D813292ED8DFE811F095
S315080013606F002D007C002D0089009600A300B000B8
S315080013702D002D002D002D002D002D002D002D00F7
S315080013802D00BD00D900EA0040F29513994200F0FD
S315080013904481B1F5CB7F22D240F28113994200F005
S315080013A01F81B1F5C17F0AD240F26513994200F058
S315080013B0F080B1F5B37F00F0F380A620A0E000F03E
S315080013C0228140F293139942F7D13146224609A861
S315080013D009F076FE284609A900F0D2FC90E0B1F59E
S315080013E0D17F00F03B8111D8B1F5CB7F00F01F818A
S315080013F040F2A1139942E0D1002A40F022818022CE
S31508001400314634300FF0C9FF002079E040F2B113BD
S315080014109942D2D1002AF7D0002CF5D0314622467F
S3150800142009A809F04DFE284609A900F0EFFB67E078
S315080014302246314612B0BDE8704000F0A5BB02B1A5
S315080014403CB900228D49284612B0BDE8704000F02C
S31508001450C1B922463146F6E702B13CB900228749AE
S31508001460284612B0BDE8704000F0DCB92246314685
S31508001470F6E702B13CB900228049284612B0BDE819
S31508001480704000F0F7B922463146F6E702B13CB99A
S3150800149000227A49284612B0BDE8704000F0FCB92F
S315080014A022463146F6E702B13CB90022734928467E
S315080014B012B0BDE8704000F001BA22463146F6E7A0
S315080014C002B13CB900226D49284612B0BDE8704009
S315080014D000F006BA22463146F6E702B194B9002171
S315080014E01C220AA809910FF058FF2021644AAB8BE9
S315080014F009A808F019FF09A90246284600F016FAB5
S3150800150012B070BD2246314612B0BDE8704000F0F8
S315080015100DBA02B13CB908225A49284612B0BDE8AC
S31508001520704000F02DBA102C01D92F20E8E722468A
S315080015303146F2E702B1C4B9102105A809F037FE11
S315080015400028DDD1022310210093212309AA05A82A
S3150800155009F00FFF0028D3D109A80FF08BFE09A9BF
S315080015600246284600F018FACAE7102CDDD80223EE
S31508001570214600933046212309AAE9E7002AD4D058
S31508001580002BD2D01A46314612B0BDE8704000F0A2
S315080015905DBA2246314612B0BDE8704000F062BA24
S315080015A002B1B4B90023CDE90933CDF82B30AB6AC3
S315080015B009A80293EB8B01936B6A00936A8B298BBC
S315080015C02B6A09F038FD0B22284609A900F0E8FA2B
S315080015D096E72246314612B0BDE8704000F0E0BA00
S315080015E002B154B9002305AACDE909238DF81430B0
S315080015F0284609A909F0B6FD82E72246314609A818
S3150800160009F05EFDF4E73146224609A809F058FDBF
S31508001610284609A900F0C0FB72E73146224609A808
S3150800162009F04EFD284609A900F09EFB68E73146F9
S31508001630224609A809F044FD284609A900F042FAFD
S315080016405EE77F2C3FF671AF2246314634300FF005
S3150800165088FD00232C4484F83430D5E6002A3FF46C
S3150800166064AF002C3FF461AF3146224609A809F061
S3150800167027FD284609A900F0B1FA41E7B442010856
S31508001680F6390108F9390108012903BF034B00207F
S315080016901B78A62008BF1370704700BF151F0020CF
S315080016A0022938B514461D460FD1202200210848C4
S315080016B00FF073FE3CB1202D2A46214628BF202272
S315080016C003480FF04EFD002038BDA620FCE700BFFA
S315080016D0F51E0020104608B56AB163B102290CD17F
S315080016E0202B28BF20231A46029B05491A600FF0B3
S315080016F038FD002008BD2F20FCE7A620FAE700BF2A
S31508001700F51E0020012905D102B11278024B0020EE
S315080017101A707047A6207047151F00202DE9F04360
S315080017201D46002389B0074608460E461446CDE9ED
S31508001730053300F06DFC18B9D82009B0BDE8F08370
S31508001740304605A900F0CEFC0028F6D1204600F068
S315080017505FFC0028F0D0204606A900F0C3FC00284C
S31508001760EBD1DDE90596079007A9184800F0BAFC01
S31508001770044600BB079919EB01081ED10EB10FF0FC
S31508001780FDFC022009F049FEA0B1079B0221009347
S315080017901F203B46CDE901960D4A09F031FE6B68DC
S315080017A09E4210D83246414628680FF0DCFD6B6829
S315080017B09E42E4D86E602046BFE7022009F02DFE5F
S315080017C00028ECD0E1E71924F5E700BF21720800EC
S315080017D0C43B0108014800F093BD00BF0072080031
S315080017E0002307B50348019301AB00F0A3FC03B03F
S315080017F05DF804FB00720800014800F053BD00BF05
S315080018000C72080010B506480C4600F03FFC40F282
S315080018100123984202BF4FF6F1730020238010BDC2
S315080018200C720800014800F06BBD00BF0D7208007D
S31508001830002307B50348019301AB00F07BFC03B016
S315080018405DF804FB0D720800014800F02BBD00BFCF
S315080018500B72080010B506480C4600F017FC40F25B
S315080018600123984202BF48F201030020238010BDDD
S315080018700B720800014800F043BD00BF0E72080055
S31508001880002307B50348019301AB00F053FC03B0EE
S315080018905DF804FB0E720800014800F031BD00BF78
S315080018A010720800002307B50348019301AB00F046
S315080018B041FC03B05DF804FB10720800014800F013
S315080018C01FBD00BF11720800002307B50348019326
S315080018D001AB00F02FFC03B05DF804FB11720800A1
S315080018E0014800F00DBD00BF12720800002307B5BD
S315080018F00348019301AB00F01DFC03B05DF804FB3F
S3150800190012720800014800F0CDBC00BF187208002A
S3150800191010B505480C4600F0B9FB40F20123984281
S3150800192004BF0020208010BD18720800014800F08E
S31508001930E7BC00BF0F72080073B5002601AB0E485E
S315080019400C461546019600F0F5FB40F20123984235
S315080019500BD164B10C2D0CD920462A4607490FF045
S3150800196026FC30462C4404F8016C02B070BD0B20EE
S31508001970FBE71920F9E700BF0F720800E23B0108F0
S31508001980014800F0BDBC00BF04720800014800F021
S31508001990D1BB00BF04720800014800F0CBBC00BFF1
S315080019A01F72080007B500200090034800F018FCD5
S315080019B003B05DF804FB00BF1F720800014800F081
S315080019C071BC00BF0772080037B512480D4600F013
S315080019D05DFB40F201239842044604D14FF470633C
S315080019E02B80002014E098B92B88B3F5805FF8D3D4
S315080019F0012009F012FD50B14FF4C2732F220121C4
S31508001A00CDE900322046044B044A09F0F9FC2F20A0
S31508001A1003B030BD07720800EF3B01080F3C010810
S31508001A20014800F057BC00BF0872080010B5064808
S31508001A300C4600F057FB40F20123984202BF4FF4D0
S31508001A407A730020236010BD08720800014800F070
S31508001A5057BC00BF09720800014800F06BBB00BF05
S31508001A6009720800014800F04BBC00BF0A72080062
S31508001A70014800F05FBB00BF0A7208000B46024A25
S31508001A8002490348FFF74ABE277208002672080073
S31508001A90203C01080B46024A02490348FFF73EBEAE
S31508001AA025720800247208003C3C01080B46024ACD
S31508001AB002490348FFF732BE237208002272080063
S31508001AC0623C0108022307B5D1E9001201A8019377
S31508001AD0FEF79CFD18B90199024800F0FBFB03B01C
S31508001AE05DF804FB207208001FB5022003900698D3
S31508001AF0009003A8FEF7A2FD18B90399024800F062
S31508001B00E9FB05B05DF804FB20720800002370B5F8
S31508001B10154886B00D461646049300F079FA08B3C0
S31508001B20114804A900F0DEFAD0B9049B3246002B0E
S31508001B3008BF0223294605A80593FEF7E7FD0446D4
S31508001B40022009F06AFC50B10294736802210193DD
S31508001B506B681F200093054A049B09F051FC204638
S31508001B6006B070BDD824EBE7207208007B3C01085C
S31508001B70014800F0AFBB00BF21720800014800F021
S31508001B80B1BA00BF21720800014800F0B9BB00BF16
S31508001B9029720800014800F0CDBA00BF2972080072
S31508001BA0014800F0C7BB00BF0572080007B5002052
S31508001BB00090034800F014FB03B05DF804FB00BF77
S31508001BC005720800014800F055BB00BF28720800DE
S31508001BD0014800F02FBA00BF28720800032307B592
S31508001BE0D1E9001201A8019300F086F918B9019904
S31508001BF0024800F06FFB03B05DF804FB3072080082
S31508001C00014800F06FBA00BF307208004A6808B58C
S31508001C10102A01D02F2008BD0968024800F08AFB67
S31508001C20F9E700BF177208001FB500234A680C467B
S31508001C300F2A03930FD90093102203AB09680748AC
S31508001C4000F0CEFA63680F2B01D80FF097FA10232D
S31508001C50636004B010BD1920FBE700BF17720800C7
S31508001C6000200A4B10B5186032B9094C2146BDE868
S31508001C701040084800F02EBBA1F500518C18064804
S31508001C8009F01EFC204607F011FDEFE7E8050020E5
S31508001C9000E00F0821720800FC05002000232DE94A
S31508001CA0F04F85B080460F462C4803A91546039386
S31508001CB000F018FA002838D1294E039933681BB961
S31508001CC0284809F0E0FB80BBD5E900143368039A7D
S31508001CD002EB030B14F003031BD10A4623465946AD
S31508001CE0204809F0D6FB00BB4046316800F0F2FAFE
S31508001CF0D8B93846696800F0EDFAB0B932686B6849
S31508001D000020134413F03F021CBF40339B1A336074
S31508001D100BE004F1040AAAEB030A5046019100F00D
S31508001D20CBF80199814618B9AC2005B0BDE8F08F0B
S31508001D3022460FF016FAAAEB0402FF2109EB04006B
S31508001D400FF02BFB53464A465946064809F0A1FBB5
S31508001D500446484600F0C0F82046C4E72172080049
S31508001D60E8050020FC05002008B50A460248034994
S31508001D70FFF794FF08BD00BF22720800237208000F
S31508001D8008B50A4602480349FFF788FF08BD00BFA1
S31508001D90247208002572080008B50A460248034955
S31508001DA0FFF77CFF08BD00BF2672080027720800EF
S31508001DB01FB513460022039203AA0192202200921D
S31508001DC00A46014604480DF0BFFE002814BFAC20A1
S31508001DD0002005B05DF804FB09000002014B09F07C
S31508001DE060BA00BFC7B1000838B5094BD3E8EF2F72
S31508001DF0541CC3E8E54F002DF8D1002A04DC00F096
S31508001E003FF808B10FF0BAF94FF0000038BD00BF2F
S31508001E10EC0500202D2828BF002010B4074C04EB41
S31508001E208000074CD4E8AF4F1CB1A4465DF8044BBC
S31508001E3060475DF8044B09F0FBBA00BFC63C0108D1
S31508001E40F0050020024BD3E88F0FC0B2704700BFE1
S31508001E5010230020024608B5064BD3E8AF3F3BB92E
S31508001E60054B06491B68D86808F044FA0FF086F94E
S31508001E7008BD00BFF4050020B42200207A3D010801
S31508001E8008B50A4BD3E8EF2F511CC3E8E01F00281A
S31508001E90F8D1002A07DD064B06481B68D96808F002
S31508001EA03BFA0FF06BF9002008BD00BFF4050020CF
S31508001EB0B4220020C23D010838B504460548FFF79C
S31508001EC0C9FF204608F054F90546214609F0AEFA3E
S31508001ED0284638BDF53D010810B504460548FFF704
S31508001EE0B9FF2046002109F0A2FA2046BDE81040B5
S31508001EF008F046B9013E010870B5044688B0006886
S31508001F000D46164609F095FA23684FF400710793B3
S31508001F1001230B4A02A8CDE902230A4B3246CDE932
S31508001F20041300232946069301AB0DF0A8FD0146CC
S31508001F3018B1054807F070FEAC2008B070BD00BFA8
S31508001F40002480000010C0040C3E0108014B1960F3
S31508001F50704700BFF8050020014B1960704700BFA5
S31508001F60F8050020014B0360704700BF883E010852
S31508001F7010B50446034B082103600BF03EFA2046D1
S31508001F8010BD00BF883E01080448054B054A03609A
S31508001F900023054943600EF03EBF00BFFC05002044
S31508001FA0883E01086C210020651F000837B50E4DD4
S31508001FB02C686CB9032322462146009301200B4B5B
S31508001FC011F012FB234622462146286011F053F8E9
S31508001FD0286808B90FF0D2F84FF0FF3103B0BDE812
S31508001FE0304011F09CB900BF5406002004060020BA
S31508001FF0064B10B5186808B90FF0C0F80023BDE8FD
S3150800200010401A46194611F036B800BF540600208B
S3150800201007B5014606486A4601AB006801F066FB4B
S3150800202009F05AFAB0FA80F0400903B05DF804FBEB
S31508002030902200207FB5002304460D468DF8073010
S3150800204009F056FAD0B1104E2146306803AB02AA01
S3150800205001F04CFB09F040FA70B9039B012B10D133
S31508002060214630680DF1070201F0BAFA09F034FA90
S3150800207010B99DF807302B7004B070BD40F20120EE
S31508002080FAE72F20F8E700BF902200207FB500234B
S3150800209004460D46ADF8063009F02AFAD0B1104EBE
S315080020A02146306803AB02AA01F020FB09F014FAB6
S315080020B070B9039B022B10D1214630680DF1060238
S315080020C001F08EFA09F008FA10B9BDF806302B802F
S315080020D004B070BD40F20120FAE72F20F8E700BFF0
S315080020E0902200207FB5002304460D46039309F08D
S315080020F0FFF9C0B10E4E2146306802AB01AA01F0C5
S31508002100F5FA09F0E9F960B9029B042B0ED12146CC
S31508002110306803AA01F064FA09F0DEF908B9039BEE
S315080021202B6004B070BD40F20120FAE72F20F8E7D3
S31508002130902200202DE9F0431D46002385B02B6030
S3150800214007460E46914609F0D3F900283ED0DFF837
S315080021508C803946D8F8000003AB02AA01F0C6FA0B
S3150800216009F0BAF90446B8B9039B93B3C6B14B450F
S3150800217031D232463946D8F8000001F031FA09F072
S31508002180ABF9D8B9039B012B03D13378003B18BFB1
S31508002190012300222B60F254204605B0BDE8F083E7
S315080021A0012B01D02B60F7E73946D8F800000DF16E
S315080021B0070201F015FA09F08FF908B10446EBE7B2
S315080021C09DF8073003B103982860E5E740F201243B
S315080021D0E2E71E24E0E71924DEE700BF902200208C
S315080021E02DE9F04F1D46002385B02B60074688462B
S315080021F01646DDF838A009F07BF9A0B3DFF870B011
S315080022003946DBF8000003AB02AA01F06FFA09F0C1
S3150800221063F90446A8B9B8F1000F12D0039BDBF89E
S315080022200000A3EB0A09B1450FD853464246394682
S31508002230CDF8009001F014FA09F04EF9B0B9C5F8D6
S315080022400090204605B0BDE8F08F53464246394611
S31508002250009601F005FA09F03FF904460028F0D186
S3150800226019242E60EDE740F20124EAE70446E8E780
S315080022709022002013B504468DF8071009F038F9A6
S3150800228058B107480123214600680DF1070201F0FD
S31508002290FBFA09F021F902B010BD2F20FBE700BFB9
S315080022A09022002013B50446ADF8061009F020F96F
S315080022B058B107480223214600680DF1060201F0CD
S315080022C0E3FA09F009F902B010BD2F20FBE700BFB9
S315080022D09022002013B50446019109F009F958B176
S315080022E004230648214600680DEB030201F0CCFAE8
S315080022F009F0F2F802B010BD2F20FBE7902200206B
S3150800230010B5044609F0F4F868B179B10848012A0D
S315080023101346006838BF01230A46214601F0B4FA7D
S3150800232009F0DAF810BD40F20120FBE72F20F9E7A3
S315080023309022002010B5044609F0DAF858B101B920
S3150800234062B90748134600680A46214601F09CFA16
S3150800235009F0C2F810BD40F20120FBE72F20F9E78B
S3150800236090220020BFF34F8F0549064BCA6802F436
S31508002370E0621343CB60BFF34F8F00BFFDE700BF9A
S3150800238000ED00E00400FA050348044A0449121A5D
S31508002390921009F0D7B800BF700100081C030008A6
S315080023A0C01F002008B5154B83F30A8800F030F8E3
S315080023B0FFF7EAFF124B13498B4212D30020124B48
S315080023C012498B4218D3FEF78FF8186850F8224046
S315080023D0586840F82240013298688242F5D30C3397
S315080023E0EAE70022F8E71C6844F8220001325C6834
S315080023F0A242F8D30833E4E70022F8E700000020F9
S315080024005C510108685101086851010868510108C2
S315080024104FF48041124B134A70B59A60D3F888205E
S31508002420114D42F47002C3F88820104A05F500548D
S3150800243091664FF0FF3222660D4A62660222C3F8A1
S31508002440D020BFF34F8FBFF36F8F4FF44036002075
S3150800245003F070FC0020E66003F05EFC2E6170BDA0
S3150800246000ED00E0000000080080004400900050E5
S31508002470F7FF37002DE9F04F144605460E469B46F2
S31508002480C36B87B001225B6902A960689847EB6B4A
S3150800249001225B6903A93046984702A809F058FC4F
S315080024A0074648B10023A37563754FF0FF33A36051
S315080024B0002007B0BDE8F08F03A809F056FC0123F9
S315080024C0A375237E04EBC303DE611F846368B342EE
S315080024D00ED1206003A809F06AFC4FF0FF3320757F
S315080024E0A360237D043B022B26D80023A375DFE7D0
S315080024F023681A1A53425341A37503A809F057FCD7
S31508002500237D834218BFA77503A809F032FC074646
S3150800251002A809F02EFC874218BF002303A818BF9B
S31508002520A37509F02EFC074602A809F02AFC874283
S315080025301CBF0023A375D4E703A809F01AFC80B1D1
S31508002540EB6B022230465B6904A9984704A809F098
S315080025501FFC0346207D032839D8DFE800F0383809
S31508002560040903A8F3E7CC22237E04EBC3031A84E9
S3150800257001F0D2FA109B187003A8277E09F0EDFB2C
S3150800258004EBC70787F82200237E03A804EBC303DE
S31508002590B3F8209093F8227009F0EBFB804603A865
S315080025A009F0EFFB8246B8F1000F15D0EB6B02225B
S315080025B030465B6904A9984704A809F0AEFB607524
S315080025C0637D6BB90023A3754FF0000838E0227EBF
S315080025D004EBC2021384CBE703A809F089FBEEE7F4
S315080025E094F81680B8F1000FEED0B9F1000F09D1B2
S315080025F0DFB10123E375637E002B4FD1012F42D152
S31508002600677614E06B6C06EB0A02594286EA02000A
S3150800261008421CBF0021A175591E0A409B1A9945FC
S31508002620D0D8A37D002BE3D1CEE7E37D43B94FF0A5
S3150800263000084B4652463146284609F0CBF8A060BA
S31508002640A27D12B123694B4423611A49237E097876
S3150800265099422AD901332376BBF1000F27D032B32A
S31508002660E37D23B3B8F1000F21D1032F1FD0A16852
S315080026704B1C1CD0109B2246009328460123FFF7CB
S31508002680F9FEA07513E095F8343063B9EB6A0133A7
S31508002690CFD1032FCDD10123A376C8E7012FCFD001
S315080026A0032FC4D1F7E79846C3E70023A375A07D97
S315080026B0FFE600BF4C3F01082DE9F04F0E4698464D
S315080026C000238BB004464FF0FF31104617468DF8AD
S315080026D0133001F00BFAB6F5801F3BD3B21C53D169
S315080026E0E56A6B1C57D12046616A08F0B9FF0546B2
S315080026F0B31C18BF0123DFF810910193636A626C5B
S315080027000293236805A902FB053AE36B05225B6978
S315080027105046984705A809F0B6FB09F0D9FB50467C
S3150800272009F0E1FB4FF0000B824601464B1C05D031
S31508002730636C81EA0A025B42134232D0294620467C
S3150800274008F08EFF029BAB424DD0BBF1000F4DD176
S315080027500546D3E7314605AA04F1080009F04AFA06
S315080027600146481C10D0384601F0C0F90122394606
S3150800277020460DF1130309F07FF828B19DF81330B0
S3150800278088F80030002003E0237C002BA8D12D20F8
S315080027900BB0BDE8F08F2368ED1A636CB5FBF3F553
S315080027A0A6E7484601F0A2F90DF11303494620466B
S315080027B0019A09F061F8034690B1B21C03D0D9F822
S315080027C00020B2420CD19DF8132003930D4B88F8D4
S315080027D0002049461A6838460EF0C3FC039B9B4600
S315080027E0D9F80810A2E7BBF1000FD0D0B6F5801FC4
S315080027F0C8D2314698F800307A6804F1080001F02A
S31508002800BBF8BFE7483F01088C0600202DE9F341D5
S315080028100446174698460E46194D816AE36A8B4266
S315080028202AD04B1C18E0284601F060F901222946F7
S3150800283020460DF1070309F01FF830B14346294633
S3150800284020469DF80720B847B0B1A9684A1C05D0AC
S31508002850012E0AD0E36A9942E5D10DE0696820465F
S3150800286008F08BFF012E0146D8D16B6881EA030276
S31508002870636C5B421A42D1D002B0BDE8F08100BF5A
S31508002880600600202DE9F04F4FF0FF334FF6FF7238
S315080028900025044600F10806C0E909238BB0C36287
S315080028A00562056330460F4609F075F9204608F0BB
S315080028B0A7FE20BB2046394608F022FF204608F02E
S315080028C09FFE20BB5E200BB0BDE8F08FE26B23684D
S315080028D0606CD2F814C000FB0530052205A9E04754
S315080028E005A809F0D0FA012828D12946204608F07B
S315080028F0D8FE421C2946204608F0A1FE0135E369A8
S315080029009D42E3D3204608F07BFE0028D2D000255E
S315080029104FF0FF394FF6FF73CA46A846C4E9085375
S31508002920E369984514D3A5EB0905012D36D84FF66A
S31508002930FF72636A934246D16720C4E709F0CDFA6D
S315080029400028DBD02946204608F0ABFE0246D1E730
S315080029502368E26B606C576900FB0830052205A9FD
S31508002960B84705A809F08FFA834605A809F062FA60
S315080029700746584609F0ACFA68B1574538BFC4F857
S315080029802480B94528BFB946BD4238BF3D46BA4638
S31508002990236A0133236208F10108C1E74FF6FF7382
S315080029A000256362E3699D42C1D2676C2068E36BC8
S315080029B0052207FB05005B6905A9984705A809F0E4
S315080029C039FA0135EEE7E26B676C2068694607FB62
S315080029D0030055690522A847684609F02BFA626A7A
S315080029E02368606C4B4D00FB023009F07CFA4FF00F
S315080029F0FF33A062E3622A466FF00101204605AB69
S31508002A00FFF75AFE002846D1AD6829462046E562FA
S31508002A1008F0D2FD206320B92046E16A08F0ADFE31
S31508002A20E0622946204608F0A8FE0546A36A9D42AC
S31508002A3033D1204608F093FD00278046B946E3695E
S31508002A4099453CD3B84559D92046616A08F008FE2D
S31508002A500026054604F1400AB74212D8626C23687C
S31508002A60694602FB0539E36B05225B6948469847C8
S31508002A70684609F0DFF9534602464946E06B09F015
S31508002A8034FA2946204608F0EBFD0136B0450546DE
S31508002A90E2D1642017E7A56AB7E72946204608F079
S31508002AA08BFD236B2946034407462363204608F01B
S31508002AB064FE0546002FB9D1C4E90B07B6E7636C77
S31508002AC02568052203FB0955E36B05A95B692846BA
S31508002AD0984705A809F0D7F909F0FAF958B1284630
S31508002AE009F001FA0146204608F066FD636C143BBE
S31508002AF0984208BF013709F10109A0E7304609F0F5
S31508002B004AF8002320461946034AFFF77FFE0020AD
S31508002B10D9E600BFB806002067B800082DE9F041DD
S31508002B20036B9046826B07689A4288BF8363426C40
S31508002B30436A90B002FB0377C36B0E46052201A9D0
S31508002B405B6904463846984701A809F09CF90128AC
S31508002B500146307057D0656CE26B2368606AD2F81C
S31508002B6014C005FB0030052206A9E04706A809F0AF
S31508002B708AF901284FF0000523D0D4E90A32012149
S31508002B809342CDE90B458DF834800E958DF83C10AF
S31508002B902AD11946204608F0F0FD236B626C1433DF
S31508002BA09B1AE06223630C9B53B99DF83C303BB1FA
S31508002BB0626A616C2368E06B01FB023109F01BF95C
S31508002BC00C9DE36B05225B6901A93846984701A865
S31508002BD009F059F930702846236BA26B9A4288BFD0
S31508002BE0A36310B0BDE8F081237C33B91C490BAA56
S31508002BF004F1080000F00EFFD5E72046194A0BAB92
S31508002C00FFF704FECFE7237C23BB2246164904F1CF
S31508002C10080000F0FFFE616A204608F042FD616A7E
S31508002C20421C204608F00BFD054620B9236B626C52
S31508002C301344143B23632046A16A08F09EFD2368CB
S31508002C40A062C01A636CB0FBF3F06062204608F01D
S31508002C50D7FDB6E700232046044AFFF7D7FDDAE793
S31508002C60913300080D33000801B900089DB8000823
S31508002C7073B50D46D11E4A421C461B7E4A419A42EE
S31508002C8026D129682368994222D3636899421FD8B6
S31508002C90114E0DF107033246FFF70EFDC0B97268F3
S31508002CA06B689A4214D19DF80730DA1E5342534195
S31508002CB0227E93420CD1636901336361D4E903230D
S31508002CC0934205D22968A26842F82310013323618A
S31508002CD0012002B070BD00BFB80600202DE9F04FF4
S31508002CE09A468BB09DF85030DFF850B10293DBF866
S31508002CF01030804653450D461646C0F09980D14699
S31508002D00DBF804300193B9F1000F00F08D80D8F894
S31508002D103C3001225B6907A90198984707A809F082
S31508002D2024F8DBF80030984240F0858007A809F0BF
S31508002D3028F80428074614D107A809F029F8019BA2
S31508002D40029A04463B44002A3FD1864212D91446C9
S31508002D50361A4046019908F010FDA9EB04090190BE
S31508002D60D1E7D8F83C3002225B69019808A9984750
S31508002D7008A8E2E7841B544528BF5446032C03EBF6
S31508002D800607AAEB040A4FEA94021CD9D8F83C3085
S31508002D90294638465B69984724F0030304F003067E
S31508002DA01F441D44002ED4D0D8F83C3001225B695C
S31508002DB008A9384698473246284608A935440EF0E9
S31508002DC0D0F90026C5E72646ECE7074600F00302D9
S31508002DD0039203442A1804920593049BDD1B059B62
S31508002DE0D81B039B9F420FD1002FB2D0D8F83C3096
S31508002DF0012208A95B6998473A46284608A90EF0B1
S31508002E00A2FA78B93D44A4E7D8F83C30012208A9CB
S31508002E105B6998470422284608A90EF094FA08B96F
S31508002E20043FDAE74FF0360948460BB0BDE8F08FA5
S31508002E304FF06309F8E74FF06F09F5E7E40600205D
S31508002E402DE9F0410F4616469846044688B060B309
S31508002E5090F83450FDB1012108F0C7FB00210E9B04
S31508002E60CDE90511CDE902379DF83C30CDF804804F
S31508002E708DF81C30237C04968BB90D4901AA04F100
S31508002E80080000F0C7FDDDE90553E06B002E08BF1A
S31508002E901D4608F043FD284608B0BDE8F0812046E7
S31508002EA0044A01ABFFF7B2FCEDE70546F3E700BFBE
S31508002EB0CBB80008712C00082DE9F04F99B00F46E1
S31508002EC009920A69416C0E931439D31DB3FBF1F3C9
S31508002ED0013302EBC302036B04469342C0F0B3818D
S31508002EE00023DFF824940D93E36A484619460793AE
S31508002EF000F0FCFDD7E9033604930E9B022B4ED156
S31508002F00CC2E40F08A81099B002B42D039462046B8
S31508002F1008F062FD656C079A6B1E13401490ED1A53
S31508002F20E36B01225B6916A97868984716A808F02A
S31508002F3020FF00280CBF04230823782E06933DD9CA
S31508002F40012300254FF0080A05933B6805990E985A
S31508002F50C9F80030C9F8106008F02DFF4FEA9A0347
S31508002F6010930023DDF81CB089F814000B930F9317
S31508002F7008930C93616C4A1E0BEA02028B1A002E08
S31508002F8038D05544AB4240D8236B5B1A13442363AD
S31508002F90ABE0049B1B68149308230693D0E7656C83
S31508002FA0079A6B1E1340782EA5EB030516D8FB7DF2
S31508002FB07BB9099B002BB3D104230693331DAB427F
S31508002FC010D9A6B1082DBBD804250023AA46059317
S31508002FD0BBE7099B002BA3D10823EEE7099B002B2F
S31508002FE09ED1D9E7002505954FF0040AADE70425DB
S31508002FF00596F9E75345C7D3B0460BEB0A03039387
S31508003000089B002B18BF032313E0A3EB0A039E4279
S31508003010B0460BEB0A0228BF98469E420392EFD9A8
S315080030200123D9F8102089F81730964271D1C9F8CA
S3150800303004B0089399F81730002B6CD099F818202B
S315080030400899D31C09EBC3030132C3F804B0A3F8EB
S315080030500880997289F81820B8F1000F14D00E9BD1
S31508003060022B5BD10B9B7BB90F9B4344032B0BD9DC
S31508003070E36B01229B69039814A998470546002823
S3150800308040F0E38001230B93089B16A80193059B48
S31508003090009399F814204346396800F0DDFCE36B89
S315080030A058469B69109A16A99847051E0D9B18BF86
S315080030B05B4652460D9359464346204608F08AFB1E
S315080030C0236B08F10302A3EB0A0322F003029B1AFF
S315080030D0C9F808002363002D40F0B7800F9BDDF880
S315080030E00CB04344A6EB08060F935946204608F051
S315080030F044FB00258346002E7FF43CAF824A39689C
S31508003100936804F10800E36252680E9B00F034FCF1
S3150800311084E002238DE7C9F804B09DE7099B002BDC
S3150800312030D1049BB8F1030F43440A9327D9DDE94C
S315080031300301E36B4FEA98029B6998470546002806
S3150800314065D118F003025FD0049B28F003052B44D1
S315080031500493039B1D444FF0FF33049915A8159358
S315080031600DF0FFFFE36B28469B69012215A99847D6
S3150800317005460A9B0493002D86D0039B99E7424691
S31508003180039DE8E7039B0A9307F120031193FB7D50
S3150800319078689BB100233D7E0C9AD9B28D4211D92D
S315080031A0119903F1010C31F83310914226D9069989
S315080031B007EBC303D8690A44104403E00C9B069A3C
S315080031C013441844E36B01225B6915A99847159BBC
S315080031D0012213930C9B0A9804330C93E36B13A9EF
S315080031E09B699847039B0A9A43449B1A042B0546F6
S315080031F007D978B9134604330A93C8E76346521ABF
S31508003200CBE70A9B0393B6E70A9B04933CE70A9B22
S315080032100493B2E70A9B0393AFE77026304619B0CA
S31508003220BDE8F08F4FF0000A4FE03A69616CD31D94
S315080032301439B3FBF1F3013302EBC302236B934258
S31508003240BFF452AE5DE01C26E8E73D2D59D104F1E6
S31508003250080303932368079A606CA2EB030ABAFB78
S31508003260F0FA00FB0A3008F03EFEE16A8046204686
S3150800327008F083FAA26A8242D7D0626CD9F808307D
S31508003280511E0B40216B2668891A0B4423630D9B3C
S31508003290E0629E1BB6FBF2F6B245C3D1079BB3EBC1
S315080032A0080A12D0E36B4FEA9A0241469B6998478F
S315080032B08346E36A079A5344E362236B03989B1A8F
S315080032C04344236308F067FCDA462368616CE06BC5
S315080032D001FB063108F07CFD204608F091F92046EE
S315080032E008F08EFA2063BAF1000F9ED03A69616C35
S315080032F0D31D1439B3FBF1F3013302EBC302904239
S31508003300A8D22E468AE700BF8C060020032A2DE99C
S31508003310F34106460D4617461C4606D1237A012B6D
S3150800332023D0012002B0BDE8F081DFF8608009688B
S3150800333042460DF10703FFF7BFF960600028EDD19B
S315080033409DF80720237A032AE8D0D8F804106A687B
S315080033509142E3D1012B2969D4F80CC007D17269CF
S315080033600CEB0103934202D92074207CDAE708317A
S315080033706144E1603B46012229463046FFF79CFD41
S3150800338060600028CAD00020CCE700BFB80600203D
S315080033902DE9F341089C032A1746266806D1237AA5
S315080033A0012B24D0012002B0BDE8F081DFF890801F
S315080033B0304642460DF10703FFF77EF960600028A4
S315080033C0EDD12568D8F80400A96AD5F844C0484064
S315080033D0CCF100031840227AE1D1012A09D1E2682A
S315080033E0D8F8103013447269934202D92074207CAD
S315080033F0D9E72868EB6A1B1A081AB3FBFCF3B0FB7B
S31508003400FCF083420BD1706CF36A421E1340326B98
S31508003410121A13442846336308F0AFF9E862D8F85D
S315080034201020E36808321344E36001223B4604494E
S315080034302068FFF741FD60600028B0D00020B2E7A1
S31508003440B80600202DE9F0410025634B0E46D3F857
S31508003450008004461D6018B921252846BDE8F0817C
S3150800346090F8347007B30A6803689A4240F0AA8055
S315080034704A6843689A4240F0A5808A6883689A42F7
S3150800348040F0A080CA68C3689A4240F09B800A69E7
S3150800349043699A4240F096808A69C36B9A4240F023
S315080034A091804B698361D8E768223946856B0DF0B0
S315080034B074FFD6E90212336804F1080023607368C2
S315080034C0A5636360336963617369A36108F075FB7B
S315080034D0B36904F14000E3639B68984720B9676CB9
S315080034E017B16368B3FBF7F794F84330E761002B2D
S315080034F0B2D00023656C2366002D6BD0002F69D0EF
S315080035002368B3FBF5F205FB1233002B5CD1676821
S31508003510B7FBF5F605FB1676002E55D1204608F0C2
S315080035203BF8A369043303449F424FD340F63472F1
S315080035306369CC3B93424BD8B5F5805F4AD30321E8
S31508003540204608F052F8D4E90001E36B1B68984757
S315080035500546E36B0220DB6898472DB184F8346092
S31508003560E06B08F0DBF978E741462046FFF78AF971
S315080035706428054604D141462046FFF783F90546E7
S31508003580636C143BD5B9226A204602FB03F608F0A1
S3150800359003F8A369043303449E4203D284F83450E3
S315080035A05A25DDE70123D4E900010C4A84F83430B2
S315080035B013680133136008F09AFBD1E7002384F8F7
S315080035C03430CDE75D2548E7592546E75A2544E7CF
S315080035D05F2542E75B2540E75C0600205806002089
S315080035E02DE9FF410C4616461F46054680B390F85E
S315080035F034307BB3B1F5801F2ED2DFF8608001210D
S3150800360007F0F3FF2146424628460DF10F03FFF760
S3150800361053F8044670B99DF80F30012B11D1D8F82C
S315080036201030BB4212D10246009031462846FFF7B9
S3150800363055FB0446E86B08F071F9204604B0BDE86E
S31508003640F081022B14BF2D246024F3E76324F1E7ED
S315080036502124F2E71124F0E72924EEE7E406002006
S315080036602DE9F04385B00C4617461E460546DDF89B
S31508003670308098B390F8343093B3B1F5801F31D2C7
S31508003680DFF86490012107F0B0FF21464A46284634
S315080036900DF10F03FFF710F8044688B99DF80F30AF
S315080036A0012B14D1D9F8102006EB08039A4213D33C
S315080036B000904346324639462846FFF70FFB044634
S315080036C0E86B08F02BF9204605B0BDE8F083022B1D
S315080036D014BF2D246024F3E76324F1E72124F2E7DD
S315080036E01124F0E72924EEE7E40600202DE9F3414A
S315080036F01F4600230C46164605463B6050B390F815
S3150800370034304BB3B1F5801F28D2DFF8548001213D
S3150800371007F06BFF2146424628460DF10703FEF7E0
S31508003720CBFF0446A0B99DF80730032B10D0022B17
S315080037300AD10123336004233B60E86B08F0EEF8F6
S31508003740204602B0BDE8F081D8F810303060F3E7C3
S315080037502D24F2E72124F3E71124F1E72924EFE7E2
S31508003760E406002073B50446056B07F015FF636E83
S3150800377003449D422CBF00230123854294BF0025A4
S315080037802D1A207C84F85030656584F85800A8B155
S3150800379000230C4E1A4619462046009608F0E9F909
S315080037A0002305461A4619462046009608F0EAF907
S315080037B0E3682844984294BF0020C01AE06502B026
S315080037C070BD00BFFFFF0F002DE9F3471E46436992
S315080037D00446B342884617469DF828904ED30025DE
S315080037E08DF80750204607F0D7FED4F830A082455A
S315080037F00AD2236AB5EB430F06D2002220460DF102
S315080038000701FFF78BF9B8B39DF80730012B05D1EF
S31508003810002220460DF10701FFF780F9B9F1030FE1
S3150800382006D03146204607F0A7FE256B854227D3EA
S31508003830144D4FF0FF31284600F058F94B462946FB
S3150800384000222046C5E90376C5F80080FFF734FB59
S31508003850236E054663B12046FFF784FF94F850307F
S3150800386013B994F858301BB1236E04F150009847E9
S31508003870284602B0BDE8F0870135B3E76225F7E7C9
S315080038801C25F5E7B80600202DE9FF410F469046AE
S315080038901E46054698B390F8343093B3B1F5801FA9
S315080038A031D21A4C022107F0A0FE22463946284694
S315080038B00DF10F03FEF700FF024678B101234246D9
S315080038C00093394633462846FFF77EFF0446E86BE1
S315080038D008F024F8204604B0BDE8F0819DF80F30C2
S315080038E0012BEBD12169B142E8D100934146334619
S315080038F02846FFF7F3F904460028DFD1E7E7212435
S31508003900E8E71124E6E72924E4E700BFE4060020F7
S3150800391030B50C46054685B028B390F8343023B345
S31508003920B1F5801F23D2022107F05FFE0DF10F03C8
S31508003930214628460F4AFEF7BFFE034688B99DF87A
S315080039400F20032A0DD0032221460092024628465C
S31508003950FFF73AFF0446E86B07F0E0FF204605B09C
S3150800396030BD2D24F7E72124F8E71124F6E72924AA
S31508003970F4E700BFE40600202DE9F043466886B365
S31508003980056898464FF0000CA946AE4655F83C40E7
S315080039900CF1010CC4F31307013401D0B94217D056
S315080039A066450EF1080EF1D12F46002403E0A64223
S315080039B007F1080712D055F8343001340133F6D12F
S315080039C0C1F3130141EA0851C7E90012BDE8F083C3
S315080039D041EA0851CEE90012BDE8F083B8F1030FB9
S315080039E003D101230372BDE8F083002303E09E425E
S315080039F009F10809F5D055F833400133C4F30754E3
S31508003A00032CF4D1C1F3130343EA0853C9E900327E
S31508003A10BDE8F0832DE9F0410646406882B0C0B1A2
S31508003A200F4690460024336853F8345003EBC4031A
S31508003A30C5F30752C5F31301013504F1010406D095
S31508003A405B683046CDF80080B84710B1706884428C
S31508003A50E9D302B0BDE8F08173B504462248012ACD
S31508003A6000EAC1119DF8185023F07C4007D9961E2C
S31508003A70012E28D9073303F07F03194308E09DF880
S31508003A801C300A43DB0603F0C053134343F060417E
S31508003A900023C4E900108DF80730B5B1202221466D
S31508003AA00DF1070008F03BFA1A220DF10700211D57
S31508003AB008F035FA082063689DF8072043EA826310
S31508003AC0636002B070BD1143E2E71B220DF10700E7
S31508003AD0214608F024FA23689DF80720042043EAC3
S31508003AE0C2632360EDE700BF80FFFF0738B5094BC7
S31508003AF00D461A68002104460DF04FFC00234FF0CE
S31508003B00FF322383C4E900252361A260E382A376FA
S31508003B1038BD00BF483F01080138C0B205289ABF22
S31508003B20014B185C012070474D3F01082DE9F04113
S31508003B300746154600240E46596888B0490A0129E1
S31508003B4022464FEA510104F10104F8D8DC78997845
S31508003B5024031B88C90201F4006104F480540C4351
S31508003B60C3F30A035203234492B24FF000089C1889
S31508003B70274B6FEA0444039325F07843ED4302A9E3
S31508003B800DF107001B2202938DF8078008F0C7F98C
S31508003B909DF80720029B02A943EAC2630DF10700BC
S31508003BA01B2225F07845049302958DF8078008F0C6
S31508003BB0B6F99DF80720029B6FEA144443EAC263EC
S31508003BC005934FF0FF330794069307A9BB690122B3
S31508003BD006F110009847BB6905A90446012206F1BB
S31508003BE008009847BB69404518BF044604A9012246
S31508003BF0301D98470122404518BF0446BB69304628
S31508003C0003A99847404508BF204608B0BDE8F0819B
S31508003C1001009AB2044BD3F88420D206FBD4D3F819
S31508003C208400C0F3811070470040005038B5174B28
S31508003C300546D3F828310C4603F00703013B052B4C
S31508003C4020D8DFE803F003131B0F0B170DF096FCC3
S31508003C50052305B1286004B1236038BD0DF08EFC3C
S31508003C600623F6E70DF0CAFC0723F2E70DF0C0FCC1
S31508003C700323EEE70DF0BCFC0423EAE70DF0B4FCE1
S31508003C800223E6E700231846E3E700BF008000505A
S31508003C90002337B50193164B0546D3F820320C4658
S31508003CA003F00703042B21D8DFE803F0030B1116F2
S31508003CB01B0001230DB1019A2A6004B1236003B0E9
S31508003CC030BD002101A8FFF7B1FF1223F2E70DF07E
S31508003CD095FC07230190EDE70EF0C5FD0A23019038
S31508003CE0E8E70DF0D3FC09230190E3E70023E1E7B9
S31508003CF00080005038B5104B0546D3F880300C4686
S31508003D0003F00303022B0BD0032B0DD0012B0FD18D
S31508003D100DF03AFC0E2305B1286004B1236038BDC6
S31508003D200DF06CFC0723F6E70DF028FC0623F2E7F6
S31508003D3000231846EFE700BF0080005038B5104B47
S31508003D400546D3F800310C4603F00303022B0BD0CB
S31508003D50032B0DD0012B0FD10DF04AFC032305B11F
S31508003D60286004B1236038BD0DF090FC0923F6E7FE
S31508003D700EF077FD0823F2E701230020EFE700BFE6
S31508003D800080005038B5184B0546D3F820010C467C
S31508003D9000F00700062823D8DFE800F0040A0E160C
S31508003DA0121A1E00012305B1286004B1236038BD2C
S31508003DB00DF0E4FB0523F6E70DF01AFC0323F2E702
S31508003DC00DF01CFC0723EEE70DF00EFC0223EAE7D4
S31508003DD00DF0D4FB0623E6E70DF00AFC0423E2E720
S31508003DE000231846DFE700BF0080005038B5104BA7
S31508003DF00546D3F840310C4603F00303022B0BD0DB
S31508003E00032B0DD0012B0FD10EF02DFD0A2305B182
S31508003E10286004B1236038BD0DF038FC0923F6E7A5
S31508003E200EF024FD0C23F2E701230020EFE700BF84
S31508003E3000800050002337B50193164B0546D3F88A
S31508003E4060320C4603F00703013B032B1FD8DFE85B
S31508003E5003F0020E1914002101A8FFF793FF10239F
S31508003E600DB1019A2A6004B1236003B030BD002168
S31508003E7001A8FFF7BBFF1123F2E70DF0BFFB0723ED
S31508003E800190EDE70DF0B0FB02230190E8E700236F
S31508003E90E6E700BF00800050002337B50193164BB4
S31508003EA00546D3F894320C4603F00703013B032B6F
S31508003EB01FD8DFE803F0020E1914002101A8FFF746
S31508003EC061FF10230DB1019A2A6004B1236003B083
S31508003ED030BD002101A8FFF789FF1123F2E70DF095
S31508003EE08DFB07230190EDE70DF07EFB0223019081
S31508003EF0E8E70023E6E700BF0080005038B5104B1E
S31508003F000546D3F860310C4603F00303022B0BD0A9
S31508003F10032B0DD0012B0FD10EF0A5FC0A2305B1FA
S31508003F20286004B1236038BD0DF0B0FB0923F6E71D
S31508003F300EF09CFC0C23F2E701230020EFE700BFFC
S31508003F400080005073B50D460021114B0191D3F83E
S31508003F508041064604F00304022C13D0032C0CD02F
S31508003F60012C13D101A8FFF70DFF10240EB1019BF8
S31508003F70336005B12C6002B070BD0DF03FFB07241D
S31508003F800190F3E70DF030FB0190EFE70C46EDE703
S31508003F900080005038B5104B0546D3F840320C4621
S31508003FA003F00303022B0BD0032B0DD0012B0FD1EB
S31508003FB00EF059FC0A2305B1286004B1236038BD08
S31508003FC00DF064FB0923F6E70EF050FC0C23F2E72C
S31508003FD001230020EFE700BF0080005038B5144BDE
S31508003FE00546D3F800020C4600F0070004281BD843
S31508003FF0DFE800F003090D111500012305B128605B
S3150800400004B1236038BD0EF02EFC0A23F6E70DF046
S315080040103DFB0923F2E70EF029FC0C23EEE70DF031
S31508004020CDFA0F23800AE9E700231846E6E700BF22
S315080040300080005038B5144B0546D3F808020C46E4
S3150800404000F0070004281BD8DFE800F003090D116B
S315080040501500012305B1286004B1236038BD0EF0B0
S3150800406002FC0A23F6E70DF011FB0923F2E70EF02E
S31508004070FDFB0C23EEE70DF0A1FA0F23800AE9E712
S3150800408000231846E6E700BF00800050B0F5207F01
S315080040901FD009D8B0F5007F15D003D868B1B0F5A0
S315080040A0C07F0AD000200CE0B0F5607FFAD10B4B38
S315080040B0D3F88000C0F3011003E0084B186FC0F373
S315080040C0033001307047054BD3F89000C0F3046005
S315080040D0F7E7024B186FC0F38020F2E70080005024
S315080040E002464FF48030104B10B598660020FFF753
S315080040F0CDFF504341F671320C4BDC69DA635A68DE
S3150800410004F4803422F4401259B90949884294BF0C
S3150800411000200120000502435A600CB10022DA6330
S3150800412010BD0449F2E700BF00900050000003509C
S31508004130005A6202002D3101430905D0012B0CD02B
S31508004140022B084B18BF002300F01F0039B103F5F6
S315080041508053012282401A607047034BF4E703F547
S315080041600053F6E768800050648000501FB50021B0
S31508004170B0F5807F0446CDE9001100F02B8100F2EE
S3150800418094805D2800F28C801F2805D8002840F00E
S3150800419089800DF013FAF7E0A0F120043D2C00F217
S315080041A0818001A353F824F093410008974300083F
S315080041B09341000897430008B7430008B74300082F
S315080041C0B7430008B7430008B743000897430008F9
S315080041D0CB430008DB42000815430008F7430008F4
S315080041E0DB420008974300089743000897430008F6
S315080041F0A5420008A5420008A5420008A5420008F5
S31508004200A5420008A5420008A5420008A5420008E4
S315080042109743000897430008974300083B43000864
S315080042200B44000897430008A5420008A542000869
S31508004230A5420008A5420008A5420008A5420008B4
S31508004240A5420008A5420008A5420008A5420008A4
S31508004250A5420008A5420008A5420008B743000881
S31508004260934100089341000893410008014400085F
S31508004270DB420008DB4200081544000859430008E1
S3150800428005430008C1430008A5420008A5420008E6
S31508004290A5420008A5420008A54200087B4300087D
S315080042A080286FD0009804B010BDB0F5D06F00F02C
S315080042B0A28034D8B0F5607F78D019D8B0F5007FE1
S315080042C064D004D8B0F5C07F3FF463AFEAE7B0F531
S315080042D0207F60D0B0F5407FE4D10DF06FF902463B
S315080042E04FF42070FFF7D2FEB2FBF0F252085BE003
S315080042F0B0F5B06F69D00AD8B0F5806F5BD0B0F56D
S31508004300A06FCFD100216846FFF7C2FCCAE7B0F517
S31508004310C06FC7D100216846FFF768FDC2E7B0F550
S31508004320106F6DD00ED8B0F5086F78D0BAD8B0F542
S31508004330E06F6AD0B0F5F06FB4D100216846FFF798
S31508004340DDFDAFE7B0F5406F3AD013D8B0F5206F72
S3150800435060D0B0F5286FA5D10021334B0391D3F86F
S31508004360703203F00303012B02D103A8FFF73EFDC9
S31508004370039B39E0B0F5486F94D100216846FFF7F2
S315080043808BFD8FE70DF000F900908BE70DF0FCF838
S315080043900246204604E00DF011F902464FF420705B
S315080043A0FFF774FEB2FBF0F200927BE701A8FFF775
S315080043B0A1FC019AEDE700216846FFF7E3FC71E7E7
S315080043C000216846FFF732FC6CE700216846FFF7D4
S315080043D0B9FD67E74FF0E02302911B695B0705D536
S315080043E00DF0ECF80290029B00935BE703A902A884
S315080043F0FFF7FCFCF7E700216846FFF7EFFD51E7FA
S3150800440000216846FFF716FE4CE700216846FFF7CD
S31508004410C1FD47E700216846FFF70CFD42E76846FD
S31508004420FFF78CFC3EE700BF0080005008B58020EF
S31508004430FFF79CFE034B98429EBF4FF48032024B17
S315080044401A6708BD005A620200A00050B0F5207F26
S3150800445010B50C465DD008D8B0F5007F4ED003D80D
S31508004460C0B1B0F5C07F15D010BDB0F5607FFBD1E7
S315080044702C4B4C1ED3F8FC202B4912F0807F4FEAB8
S31508004480041427D1D1F8803023F030032343C1F830
S315080044908030E9E707F061FD07F06DFD4FF48031E4
S315080044A0224B214A1967136F013C23F4704343EAF0
S315080044B0043313670DF082F80446FFF7ABFBC0F12F
S315080044C00201204607F051FD00F04AF8BDE8104009
S315080044D0FFF7ACBFD3F8FC2022F08072C3F8FC20AB
S315080044E0D1F8802022F030022243C1F88020D3F888
S315080044F0FC2042F08072C3F8FC20B5E70A4A4C1E3D
S31508004500D2F8903023F0F85343EA0463C2F89030A7
S31508004510AAE7054A4C1E136F23F4806343EA8423F3
S315080045201367A1E700ED00E00080005000900050FE
S3150800453008B50121022000F057F84FF42070FFF764
S31508004540A5FD054B187007F008FD07F014FD4FF49C
S315080045508032024B1A6708BD161F002000900050D3
S3150800456008B54FF4C070FFF701FEBDE808400449DE
S31508004570884294BF012102214FF42070FFF766BFDD
S3150800458080F0FA0238B504460DF018F80546FFF72C
S3150800459041FBC0F10201284607F0E7FC0121002093
S315080045A000F062F82CB1FFF7DBFFBDE83840FFF7F3
S315080045B03DBF034B4FF420701978FFF747FFF4E728
S315080045C0161F0020024A536B0342FCD1704700BFF6
S315080045D000400950034A0179D36E23F030030B4398
S315080045E0D366704700400050F8B504461C4BD3F814
S315080045F08420D106FBD4D3F88430C3F381139C42BC
S315080046002CD00CF0C1FF012C064602D1214607F03A
S31508004610ACFC0EF00AF94FF00072124B07465A66C8
S31508004620204607F0ADFC4FF480630D4D621E9340A3
S315080046302B676B6E9A0103D4D5F884309B060AD58E
S3150800464038460EF0EDF8022C08D13046BDE8F840A1
S31508004650002107F08ABCD5F88430EAE7F8BD00BF28
S31508004660004000500060005010B50C4608B90CF028
S315080046708BFF074B21461B783BB1064B984204D863
S315080046800120BDE81040FFF7AFBF0220F9E700BFE1
S31508004690171F0020005A62024FF0004238B5244B1B
S315080046A0244C5A664AF6CD33656C014605F0010579
S315080046B0236428BB0120FFF785FF6368DB0715D550
S315080046C01D4B586008461D4B226BD2070CD49842E6
S315080046D008D1072415B1174B194A1A6407F051FC7B
S315080046E0204638BD0130EFE79842F2D00024F1E7C2
S315080046F00132236B13F0080305D08A42F8D1E8E7A4
S3150800470000220E49F5E78A42E3D020210A4A91623F
S315080047100121A2F5805251600649084A886A800636
S3150800472003D49342D5D00133F8E79342DDE700BFBF
S3150800473000900050004009500060095040420F00A8
S315080047403254FFFF4FF0004238B5164B01465A6601
S315080047504AF6CD33144C154A656C236443780B200E
S315080047605B0043F00103D363FFF72CFF63688A7885
S3150800477023F4F87343EA02136360CA784B7943EA71
S315080047800223A3600A798B7943EA02232361087816
S31508004790FFF782FFEB0744BF054B236407F0F1FBE5
S315080047A0012038BD009000500040095000400050DC
S315080047B03254FFFF4FF00042124B70B55D6E03F5A1
S315080047C080535A664AF6CD3304460F4980204E6C0C
S315080047D00B64FFF7F7FE0B6A23F00F030F2C94BF49
S315080047E0234343F00F030B62F30744BF074B0B64E5
S315080047F0002DA2BF4FF00042054B5A6607F0C1FBD9
S3150800480070BD00BF00800050004009503254FFFFC1
S3150800481000A000504FF48032054B9A6641F671327B
S3150800482003F51C33DA63012203F50053DA60704797
S315080048300090005041F671320121064BDA6303F508
S315080048400052D1600022DA634FF48032A3F51833A0
S315080048509A66704700000350044B1868421C02BF52
S31508004860034AD2F894001860704700BF442200201B
S31508004870004000504FF48032064B5A6603F5E62393
S315080048809B69C3F38512827003F03F021B0B4270CB
S3150800489003707047009000500120034B9B680A3351
S315080048A003F01F03984070470080E00F274B2DE95F
S315080048B0F0411B680CF06CFF0128074620D90EF062
S315080048C0B3F8051E03DA01242046BDE8F081204B23
S315080048D01B78002B38D14FF050081E4C04EB08000B
S315080048E0A465C4F85C800EF046F9206680B90124F8
S315080048F0012FE9D928460EF0ADF80028E4DAE2E7F8
S31508004900134B1B7803F0FF05002BE4D00024DBE7EC
S315080049100024114E214606F1100332460120346068
S315080049207460B360C6F80C800EF0D5F930660028BE
S31508004930DDD00321412008F04EF9412001F0ECF9C1
S315080049400122034B1A70D3E70024D3E7482200203C
S31508004950181F0020740700201007002008B54FF024
S3150800496098435B6CD90208D50CF012FF023801286F
S3150800497003D8094B186E0EF02DFA4FF098435A6C6F
S31508004980D202FCD55B6D054A03F4702313604120FF
S31508004990BDE8084001F0CEB91007002048220020E3
S315080049A02DE9FF474FF000080E4617460446CDF896
S315080049B00080002859D022B90025284604B0BDE851
S315080049C0F087002951D032F0030902F0030A1FD0FC
S315080049D04FF0E063C0E9003801230191C0F8088070
S315080049E00293C0F8208049F0005301A903930DF003
S315080049F09EFF494620460DF074FF20460CF06AFEDD
S31508004A00054628B14A46414630460CF0C6FCD4E76E
S31508004A10BAF1000FD0D04FF000084FF0E063C4E9B8
S31508004A2000380123CDF804D00293114B204601A982
S31508004A30C4F80880C4F8208003930DF078FF042199
S31508004A4020460DF04EFF20460CF044FE054608B100
S31508004A503A46D8E7009A4E44EB00013522FA03F3AA
S31508004A60AA4506F8013BF7D1A6E72125A5E700BF29
S31508004A70040000202DE9F041904602780C46022AEF
S31508004A808AB032D0032A35D0012A38D114271D4AD4
S31508004A9000F10C05226000229E01C4E9012222626F
S31508004AA0314620460DF01DFF0123204647F00057EA
S31508004AB004A946F00056CDF804800293039604959F
S31508004AC00593069707950893099707F070FC204603
S31508004AD001A907F06CFC204607A90DF028FF20461F
S31508004AE00CF0F8FD0AB0BDE8F0812027064A00F16F
S31508004AF00C05CFE72027054A00F10C05CAE7212057
S31508004B00F0E700BF000201030003010300040103EC
S31508004B1010B591B188B10023C0E90133084B00F103
S31508004B200C0203F1200153F8044B8B4242F8044B64
S31508004B30F9D101230370002010BD2120FCE700BF36
S31508004B40983F010810B591B188B10023C0E9013337
S31508004B50084B00F10C0203F1200153F8044B8B4279
S31508004B6042F8044BF9D102230370002010BD21201E
S31508004B70FCE700BF533F010810B591B188B1002387
S31508004B80C0E90133084B00F10C0203F1200153F888
S31508004B90044B8B4242F8044BF9D1032303700020DF
S31508004BA010BD2120FCE700BF743F01082DE9F04F36
S31508004BB00D46914604468BB000285ED000295CD08D
S31508004BC0002A5AD00278022A0CD0032A4DD0012A8C
S31508004BD053D114262B4900F10C0B00F104082C3490
S31508004BE0374607E020261C27274900F10C0B00F161
S31508004BF004082C349F4240D8D8F80420002A3ED115
S31508004C00D8F80030284603F03F0AC5E90012AA6022
S31508004C102A6251460DF065FE2846D8F800100DF0B8
S31508004C2060FE01224AF00053284601A946F00056C4
S31508004C3047F00057CDF804B0029203960494059203
S31508004C400693CDF81C900892099707F0B0FB284602
S31508004C5004A907F0ACFB284607A90DF068FE28460C
S31508004C600CF038FD0BB0BDE8F08F2026074900F19F
S31508004C700C0B00F104082C34B2E72120F2E70F20D0
S31508004C80F0E700BF00020303000303030004030365
S31508004C902DE9F04387B00D4691461E460446DDF8D9
S31508004CA03880002836D0B8F1000F33D002B98BBB54
S31508004CB06B1EDBB2022B2DD8174AD75C0F9B9F427F
S31508004CC028D80023280200F1407000F5807031468C
S31508004CD0C4E901332060236220460DF002FE012359
S31508004CE06946204646F0005647F00057CDF8009032
S31508004CF001930296CDF80C800493059707F057FBAD
S31508004D00204603A90DF013FE20460CF0E3FC07B07D
S31508004D10BDE8F0832120FAE7953F0108F0B50F4674
S31508004D2016461D46044693B010B9212013B0F0BDAF
S31508004D300029FAD0002AF8D0002BF6D000233146F5
S31508004D401A46384607F0D2F90028EFD1304602A9AC
S31508004D5007F079F90028E9D138683449029A884277
S31508004D606B695ED19342E0D32B68002BDDD14FF0FF
S31508004D7060623846C4E90023A360236201A907F0EC
S31508004D8010FA0028D2D10199204621F4F061019148
S31508004D900DF0A7FD6946284607F003FA0028C5D195
S31508004DA0204600990DF09DFD384609A907F0A0FA9E
S31508004DB00028BBD1204609A907F0F9FA38460CA9FC
S31508004DC007F0A1FA0028B1D120460CA907F0EFFA9E
S31508004DD0EB684BB1284606A907F08AFA0028A5D140
S31508004DE0204606A907F0E3FA304603A907F08BFA2E
S31508004DF000289BD1204603A907F0D9FA28460FA90F
S31508004E0007F081FA002891D120460FA90DF08FFDF1
S31508004E10032520460CF05EFC012887D1013DF8D118
S31508004E2084E7B3EB420F9FD27FE700BF200000B0B4
S31508004E3070B50E46154604468AB000285CD000298F
S31508004E405AD0002A58D0012329461A46304607F078
S31508004E504DF900284ED1B36813F4C04F4CD0AB6857
S31508004E6003F4C043B3F5005F46D1254BA060C4E9FF
S31508004E700030206207A9304607F093F9002839D197
S31508004E80204607990DF02DFD012302934FF000539C
S31508004E90204601A9039307F08AFA304604A907F0C9
S31508004EA032FA38BB204604A907F081FAEB681BBB27
S31508004EB0AB6803F4C043B3F5005F1DD169462846C5
S31508004EC007F0E4F8B0B9009B6A699A4216D32A69D2
S31508004ED043F0005307920122204607A908920325AA
S31508004EE009930DF024FD20460CF0F4FB012801D1AE
S31508004EF0013DF8D10AB070BD2120FBE71D20F9E776
S31508004F00000001022DE9F04391B00D46DDE918765F
S31508004F100446DDF8688000286ED000296CD0B8F108
S31508004F20000F69D00FB9002E66D1296801F07041CB
S31508004F30B1F1404F5BD0002B5BD1531E022B5BD8DF
S31508004F40120202F1C06202F5807200232846C4E903
S31508004F500133226023620DA907F023F9002843D103
S31508004F6020460D990DF0BDFC314620460DF0B9FCE2
S31508004F70284601A907F0BCF9002835D1204601A921
S31508004F8007F015FA284604A907F0BDF960BB4FF0EB
S31508004F900109204604A907F00AFA46F000562046F9
S31508004FA007A90797CDF82090099607F000FA2B680D
S31508004FB00A9703F07043B3F1404FCDF82C900C9646
S31508004FC003D120460AA907F0F2F90123CDF8348067
S31508004FD00E931B9B204643F000530DA90F930DF02B
S31508004FE0A6FC20460CF076FB11B0BDE8F083034A18
S31508004FF0ABE74FF0C062A8E72120F5E700000206FC
S315080050002DE9F0418CB00D46DDE912860446149F61
S31508005010002869D0002967D0B8F1000F01D1002E09
S3150800502062D1002F60D0A96889045DD5296801F08E
S315080050307041B1F1404F4DD0002B4DD1531E022B7C
S3150800504052D82A4B03EB022200232846C4E901332F
S315080050502260236209A907F0A4F8002837D1204660
S3150800506009990DF03EFC314620460DF03AFC69469A
S31508005070284607F03DF950BB6946204607F097F9E0
S31508005080284603A907F03FF908BB204603A907F0FD
S315080050908EF9012346F00056CDF818800793089636
S315080050A009970A93159B43F000530B932B6803F05B
S315080050B07043B3F1404F11D109A9204607F077F99B
S315080050C006A9204607F073F920460CF003FB0CB03E
S315080050D0BDE8F081064AB7E7064AB5E706A92046BD
S315080050E007F065F909A9ECE72120F0E700010106B8
S315080050F0000003060000010610F1860F1BD010F110
S31508005100850F08DA10F1930F18D010F1870F07D022
S315080051104FF0FF307047003818BF012040427047F3
S31508005120094B99420DD0043399420CBF6FF07300B6
S315080051306FF06D0070476FF0710070476FF06F0089
S3150800514070476FF07200704705000002012910B51C
S315080051500CDC084C084B00290CBF2146194600F008
S315080051604FFD2146BDE81040FFF7C6BF6FF073003C
S3150800517010BD00BF090000020800000208B507F0CC
S31508005180C7FCBDE808400149FFF7B6BF09000002A1
S31508005190002307B52022019301AB07F0D5FC03498C
S315080051A003B05DF804EBFFF7A7BF00BF09000002D4
S315080051B010B5044C214600F023FD2146BDE81040F9
S315080051C0FFF79ABF0500000208B507F0A1FCBDE885
S315080051D008400149FFF790BF05000002002307B504
S315080051E01422019301AB07F0AFFC034903B05DF845
S315080051F004EBFFF781BF00BF0500000238B5134D69
S31508005200FFF754FB124B134A1349144803F050FE98
S315080052102B7803F0FF04BBB90CF0BAFA012802D9BF
S315080052200DF002FC04462B782BB90D4B0D481B6874
S31508005230984701232B700CF0ABFA012804D92046B5
S31508005240BDE838400DF006BC38BD00BF191F002068
S31508005250F1C30008D3C300080BC4000815C400082E
S31508005260882200200816002000F01F02A0F506205C
S31508005270A0F55060812810D80123094940099340B8
S3150800528051F820201A4341F82020064951F82020D9
S3150800529022EA030241F8202070474FF0FF3070479A
S315080052A0EC070020D807002000F01F03A0F5062011
S315080052B0A0F55060812810B519D801210D4A40097A
S315080052C0994052F820300B430B4942F82030D1E977
S315080052D0004323448C682344CC68096923445B183B
S315080052E004D1C2E90033C2E90233136110BD4FF09D
S315080052F0FF30FBE7D8070020EC0700202DE9F04F28
S31508005300A7B003921F4604460822CDE9040141408E
S3150800531021FA02F34B40980702F1080218BF9B00D6
S31508005320202A1C44F4D18123B4FBF3F303EBC31303
S31508005330E41A7F4B04F506241B7804F55064002B09
S3150800534039D104F0A9F9054600286FD10146402253
S3150800535006A80CF022F82946402216A80CF01DF8DB
S31508005360744D754EA8461035AE4228BF2E46734872
S31508005370013E009643461022006806A906F0F9FB8E
S315080053804FF0000B81460DF1180AD94541D16B48FB
S31508005390009643461022006816A906F0F3FB4FF064
S315080053A00008834616AEC34546D1654B9D42D8D103
S315080053B001225F4B1A704FF081080026DFF894B17E
S315080053C0A4F50625A5F550635B095BF8232004F0D0
S315080053D01F01CA40D20746D45A4A52F82330CB4056
S315080053E0DB0732D58123002E08BF2646A5F6FF44E3
S315080053F0B4FBF3F303EBC313E41A04F50624B8F17C
S31508005400010804F55064DBD1039B03B3FEB13446AF
S3150800541025E05AF8040BFFF727FF013009D10022CF
S31508005420434B1A70424B1B78002BC4D16FF0910086
S315080054300FE00BF1010BA8E756F8040BFFF734FF52
S315080054400130EFD008F10108ADE7039B23B96FF0EF
S315080054508B0027B0BDE8F08F002E18BF3446329B6C
S3150800546000201C60F5E7309B13B10023309A1360C7
S31508005470319B13B10023319A13604FF0100ADFF8FD
S31508005480BC90CDF800A000233A462146D9F8000082
S31508005490FEF7E6F8002838D130993A682A4BE9B180
S315080054A09A42C1F800A01CD02146D9F80000FEF7A0
S315080054B02FFA0028CBD1D7E90223DDE9041083426D
S315080054C008BF8A422AD08123A5F6FF45B5FBF3F328
S315080054D003EBC313ED1A05F5062490E79A42EAD0C2
S315080054E0E2E7319B002BE6D02146D9F8000016AA40
S315080054F0FEF7FCF848B9319B309A1B68126893424C
