:020000040800F2
:1000000050A30020F15400081D790108DD540008B8
:10001000DD540008DD540008DD540008DD540008FC
:10002000000000000000000000000000595500081A
:10003000DD54000800000000C9570008DD54000826
:100040009D220008995800089958000899580008FE
:1000500099580008995800089958000899580008BC
:1000600099580008995800089958000899580008AC
:10007000995800089958000899580008995800089C
:10008000995800089958000899580008995800088C
:10009000995800089958000899580008995800087C
:1000A000995800089958000899580008995800086C
:1000B000995800089958000899580008995800085C
:1000C000995800089958000899580008995800084C
:1000D000995800089958000899580008995800083C
:1000E000995800089958000899580008995800082C
:1000F000995800089958000899580008995800081C
:10010000995800089958000899580008995800080B
:1001100099580008995800089958000899580008FB
:1001200099580008995800089958000899580008EB
:1001300099580008995800089958000899580008DB
:1001400099580008995800089958000899580008CB
:1001500099580008995800089958000899580008BB
:0C016000995800089958000899580008A8
:1001700053B94AB9002908BF00281CBF4FF0FF310E
:100180004FF0FF3000F00CB8ADF1080C6DE904CE73
:1001900000F01AF8DDF804E0DDE9022304B070474E
:1001A000704700BF10F8012B11F8013B012A28BF4E
:1001B0009A42F7D0D01A7047034613F8012B002A51
:1001C000FBD1181A013870472DE9F0478C468E464E
:1001D000089E154604461946002B40F0D080724513
:1001E00047D9B2FA82F74FB1C7F120030EFA07FCE4
:1001F000BD40BC4020FA03F343EA0C0C4FEA154E15
:10020000A8B2230CBCFBFEF80EFB18CC08FB00F9CF
:1002100043EA0C43994528D9EB1808F1FF3204D280
:10022000994502D9A8F102022B44A3EB0903A4B219
:10023000B3FBFEFC0EFB1C330CFB00F044EA034452
:10024000A04214D92C190CF1FF3304D2A04202D9D8
:10025000ACF102032C44241A43EA02401EB1FC40D4
:10026000002334607360BDE8F0874246DDE76346F3
:10027000F1E7002A79D0B2FA82F3002B3FD0194679
:10028000C1F1200302FA01F500FA01F42EFA03F29B
:100290000EFA01FE20FA03F3AFB243EA0E034FEA6F
:1002A000154EB2FBFEFC0EFB1C201A0C0CFB07F8D3
:1002B00042EA004290455AD9AA180CF1FF3004D204
:1002C000904502D9ACF102002A44A2EB08029BB28D
:1002D000B2FBFEFC0EFB1C220CFB07F743EA0243B9
:1002E0009F4246D9EB180CF1FF3204D29F4202D94B
:1002F000ACF102022B44DB1B42EA004202E0AEEB0F
:10030000020301224FEA154EAFB2200CB3FBFEFCF4
:100310000EFB1C330CFB07F840EA034398452AD92F
:10032000EB180CF1FF3004D2984502D9ACF1020071
:100330002B44A3EB0803A4B2B3FBFEFC0EFB1C335F
:100340000CFB07F744EA0344A74216D92C190CF119
:10035000FF3304D2A74202D9ACF102032C44E41BC0
:1003600043EA00400F46114678E71F2188E76046C0
:10037000ABE76246BFE76046DBE76346EFE77345FE
:1003800006D916B9002108466DE7C6E9000EF9E75F
:10039000B3FA83F787B9734501D3824207D8841A29
:1003A0006EEB030301209C461EB900215BE7384633
:1003B000FAE7C6E9004CF8E7C7F1200CBB4000FAA9
:1003C00007F422FA0CF520FA0CF1BA401D432EFA7C
:1003D0000CF30EFA07FE4FEA154941EA0E011FFA27
:1003E00085FEB3FBF9F809FB18300B0C08FB0EFA7D
:1003F00043EA00439A4540D9EB1808F1FF3004D294
:100400009A4502D9A8F102002B44A3EB0A0389B252
:10041000B3FBF9F809FB183308FB0EFE41EA034170
:100420008E452CD9691808F1FF3304D28E4502D9C4
:10043000A8F10203294443EA0040A1EB0E01A0FB0E
:1004400002984145CE46434602D306D14C4504D2DC
:100450000138B9EB020E68EB0503002EA5D0B4EB12
:100460000E0261EB030101FA0CFC22FA07F3F940DA
:100470004CEA0303C6E9003197E74046C5E7434627
:10048000D9E70000002138B5084612F003FD01212C
:100490001A4A1F201CF0AAFE00F0E2F8044601F000
:1004A00083FC00221146054601F052FC38B1144A83
:1004B0001F2001211CF09AFE4FF0FF3038BD01F0E3
:1004C00081FB2A460146204616F057FA01F02EF825
:1004D000E06001F0DDF90B4B2067012120466367E6
:1004E00015F0B6FF18B1084AE2E710F029FE2046E1
:1004F00000F076F80028F8D1E0E700BF3C4602089B
:1005000059460208976001088346020838B5044638
:100510000D46204615F0C3FD6B7C002857D0052BF7
:1005200059D0032B19D0042B3AD0012B01D0032032
:100530003AE002222146284615F06FFE002833D10A
:100540002946284615F0ADFE70BB95F82430002BE7
:100550000CBF032305236B74DBE795F825209AB1C4
:10056000214628462A7F15F058FEE8B92946284634
:1005700015F0D8FEC0B995F8253073B90223AA69E1
:100580001A442A620423E6E72B7D013BDBB2022BEF
:100590009CBF124AD25CAA61F0E72B7F0233EEE7E0
:1005A00095F824300BB1232038BDAA690AB9182068
:1005B000FAE72146284615F030FE0028F4D12946F6
:1005C000284615F0D7FE0028EED10523C3E7052BFA
:1005D00001D00D20E8E70020E6E700BFF76602083B
:1005E000F0B5036F044687B05BB3002390F87D201D
:1005F000019322B1A0F87C30436F03B198470025E6
:10060000154E206FC5F1800203687119DF6801ABD8
:10061000B847C8B1E5B1114B04AA0493802302A9DD
:1006200020460593CDE9026515F030FFDDE904129F
:1006300080F0010084F87D00206F03681B699847F3
:1006400030B1002007B0F0BD019B01901D44D8E7F8
:1006500094F87C00F6E700BF1433002094320020A9
:1006600000487047B81E002008B5094800F0BAFCE1
:100670000023074A0749C2E91C33074B0448936724
:100680000123A2F87C30BDE80840044A17F04DB9B8
:10069000B81E00204F640108B8350208B0200020C1
:1006A00010B5836804460BB92F2010BD1A499A6A09
:1006B000D1E900138B4298BF002302F1040288BFE6
:1006C0005B1A9A4204D000231348194615F0DDFF47
:1006D000A36812499A6AD1E900138B4298BF00239C
:1006E00002F1080288BF5B1A9A4204D000230B482B
:1006F000194615F0CAFFD4E90312A06816F040F9B4
:100700000028D2D1237E2BB16169A06816F047F989
:100710000028CAD10020C8E7702000204020002017
:100720002DE9F341054608460C4615F0C5FC074681
:1007300098B1254815F0B3FC234E48B187423A469C
:10074000314628BF0246204615F04BFD002837D120
:100750001E4F204615F0B0FC30B928462B68DB68E8
:1007600002B0BDE8F0411847D7F80421002AF4D0C0
:100770003368013AC6E90233D7F80031C7F80421DB
:1007800057F82310013303F03F03C7F800312B68FB
:1007900001912846DB690C4A01A9984780B9204697
:1007A00015F08AFC8046084815F079FC80454246E1
:1007B000054928BF0246204615F013FD0028C8D081
:1007C00002B0BDE8F08100BF40200020381F0020AB
:1007D00070B504460D46284615F061FC28B923681B
:1007E0002046BDE870409B68184728460849FFF737
:1007F0008DFE0D28EFD048B9236820469B69044937
:10080000984718B9024815F05DFFE4E770BD00BFD6
:100810007020002038B591F8273005460C462BB1E2
:100820000A7D1A48498A15F075FF38BB638AB3F50B
:10083000827F0AD8B3F5807F0BD9A3F58173022B91
:1008400009D8DFE803F00C0A0F0040F23B12934294
:1008500011D0A62012E0E36AEB6000200EE0E36A0C
:100860002B61FAE794F8243083F001032B7603B16F
:10087000E36A6B61F1E7AA680AB92F2038BDA38D3E
:10088000002B08BF4FF400739362E6E7381F002087
:1008900008B503480A7D498A15F03CFF08BD00BF32
:1008A000381F002070B585680C460DB92F2070BD2B
:1008B00091F8263003B96C3594F8273033B1227D96
:1008C000618A184815F026FF0028F0D1237D032BFC
:1008D00026D8DFE803F016020E112B689B6894F807
:1008E0002420618A5AB904F12C022846BDE87040E0
:1008F00018472B681B69F2E72B689B69EFE700221A
:10090000F3E72B68618ADE6A94F8243033B9E26A2F
:100910002846B446A369BDE8704060470022F7E767
:100920002620C4E7381F002010B50A46498AB1F5D1
:10093000A27F15D008D840F2051399421AD0B1F51C
:10094000A17F0DD0A6200AE040F2A1139942F9D16F
:10095000806838B10368DC6A9369D26AA04710BD29
:10096000806808B92F20FAE703682C321B69BDE8BC
:1009700010401847127D024815F0CCFEEFE700BF8B
:10098000381F00202DE9F04700251646526896B022
:10099000052A0F4698468DF805508DF806508DF8BB
:1009A00007500DF1380940F2C68001233168023A40
:1009B00004A8CDE90455CDE906558DF8205015F071
:1009C00064FE0DF1050104A815F045FC044600285D
:1009D00040F0AA800DF1060104A815F03CFC044685
:1009E000002840F0A1800DF1070104A815F033FCA8
:1009F0000446002840F098807368802B00F29380B2
:100A0000D8F804307F2B40F29480D8F800100346C9
:100A1000CDE90900CDE90B008DF8340076220831CC
:100A200009A815F032FE9DF80630013B042B78D85A
:100A3000DFE803F0032F6B71640001238DF83C3075
:100A40005F4B10970E930023CDE9113313938DF86C
:100A50005030DFB1BC6A0023221D1946594815F0F9
:100A600014FE584815F02EFE002304F10802194622
:100A7000554815F00AFE0022544BC3F8042148469D
:100A800009AA04A915F06BFE044608E04FF40074AF
:100A9000E1E74C4815F0EAFD4B4815F0E7FD0B9DEA
:100AA000099B09A89D4294BF0025ED1A15F0DEFDB3
:100AB00004A8EDB215F0DAFD00264FF0200A334607
:100AC0000822D8F8001009A8CDE90966CDE90B661F
:100AD0008DF8346015F0D9FD31465246484621F074
:100AE00027FA022109A815F0F4FA30B3002409A866
:100AF00015F0BCFD204616B0BDE8F08701238DF847
:100B00003C30334B10970E93B9E7032310978DF8C1
:100B10003C30304BF7E7042310978DF83C302E4BD8
:100B2000F1E72A24BBE7C22404A815F09FFD0025A5
:100B3000C2E71924F8E71924BEE79DF8061009A8B2
:100B400041F0800115F0C5FA0028CFD19DF80710BB
:100B500009A815F0BEFA0028C8D1214609A815F049
:100B6000DDFA0028C2D1294609A815F0B2FA0028FA
:100B7000BCD1D8F8042005F10A03934201D905F04D
:100B800037F9CDE9029AC8F80430002FAED0D8F872
:100B900000300835CDE90435002BF0D0384602AAE4
:100BA00004A915F02CFF0028A0D19DF80640BDF83F
:100BB0003820D8F80030023C18BF01245A5396E779
:100BC000CC3502087020002040200020381F002073
:100BD000F43502081C36020844360208002208B523
:100BE00011460B4815F07DFD0A4A0B49084816F0DE
:100BF0009CFE00220948114615F073FD054A06497E
:100C0000064816F092FE0022054BC3E9402208BDBB
:100C100070200020B0200020B9660108402000208C
:100C2000381F002010B40346806818B903205DF80F
:100C3000044B704740F26314A14212D0B1F5B27F69
:100C400007D2B1F5827F1FD0B1F5B17F17D0A620B2
:100C5000EDE740F297108142F9D102B112685A6271
:100C600010E00AB92F20E2E711680A4BA1F57A7269
:100C70009A42F7D80368DB6B5DF8044B184702B162
:100C800012681A620020D2E7002AEBD003681168CC
:100C90001B6FF1E7B88201004B000133212B70B5C7
:100CA00017D800230C4D0138561C994203D100205F
:100CB00002F8110070BD10F8014F24092C5D02F8F4
:100CC0001340047804F00F042C5D06F81340013340
:100CD000EBE71920EEE700BFFA6602082DE9F04FB6
:100CE0000546AC6810461E4693B00CB903209DE043
:100CF000B1F5B27F00F0D58017D840F211139942B8
:100D000061D06FF4A07319448BB2132B26D813292A
:100D100024D8DFE801F05D2369236C6F727523230B
:100D20002323232323232378919F40F29513994271
:100D300000F02181B1F5CB7F22D240F2811399429C
:100D400000F00081B1F5C17F0AD240F265139942EB
:100D500000F0AE80B1F5B37F00F0AD80A62065E075
:100D600000F0FD8040F293139942F7D123685B6D48
:100D7000CDE9032612B9002E40F0F78003A9F7E071
:100D8000B1F5D17F00F01D8112D8B1F5CB7F00F015
:100D9000FB8040F2A1139942E0D1002A40F0038188
:100DA0004022002105F12C0021F0C2F800203DE096
:100DB00040F2B1139942D1D1002A46D0002E44D03E
:100DC00023681B6E05E12368DB6D3246014606E0B1
:100DD00023689B6808B1002EF7D100227E49204687
:100DE00013B0BDE8F04F184723681B69F2E723688A
:100DF0009B69EFE72368DB69ECE723681B6AE9E797
:100E000023685B6AE6E702B19EB92022002109A8A7
:100E100021F08EF82021714AAB8A09A813F0D6FF81
:100E20000246A8680168CC6A09A9A04713B0BDE8CA
:100E3000F08F2368DB6AC8E702B126B9236808226D
:100E40001B6B6749CBE7102E01D92F20EEE72368F3
:100E50001B6BBAE702B1FEB9E86800283FF446AF61
:100E6000102605AC03940496036803A99B68984771
:100E70000028DBD13146204609AAFFF70DFF0028E4
:100E8000D4D109A8FFF798F90246AC6823685B6BD8
:100E9000204609A99847C9E7102ED6D8314609AA95
:100EA000EBE7002AD1D0002BCFD023681B6C8CE756
:100EB00023685B6C89E70AB1002E40D1D5E906981A
:100EC000002603233246314609A8B5F810B0B5F81C
:100ED00012A0EF8ACDE909662D6ACDF82B6015F0D6
:100EE00035FD102301465A4609A815F02FFD1023A1
:100EF0000146524609A815F029FD022301464A463B
:100F000009A815F023FD08230146424609A815F05B
:100F10001DFD0C2301463A4609A815F017FD1B23B9
:100F200001462A4609A815F011FD04230146324660
:100F300009A815F00BFD23680B229B6CA8E723681A
:100F40009B6C42E72368DB6C0AB1002E41D1002282
:100F500005A9CDE909128DF8142009A908E0236834
:100F6000CDE901261B6D12B90EB104F041FF01A9B4
:100F7000204698475AE723689B6DCDE905260AB9B4
:100F8000002EF2D105A9F3E7EB68002B3FF4AEAEDB
:100F90001A681269CDE9090608B9002EE5D118468C
:100FA00009A9904742E73F2E3FF64FAF0146324630
:100FB00005F12C0020F096FF0023354485F82C30F5
:100FC000F4E6002A3FF441AF002E3FF43EAF236821
:100FD0005B6ECDE90906C0E7D9660208174802082A
:100FE000AD4602080C4B10B5002103604FF40073AE
:100FF0000446C0E90111C0E90311C0E90511C0E9C7
:1010000007114162836240222C3020F091FF034B94
:101010002046E36610BD00BF6C360208C8360208E1
:101020002DE9F041B1F5AA7F96B0044616461F4659
:101030001C9D3DD8B1F5A07F09D840F20513994217
:101040006FD040F21113994262D0A620B8E06FF43D
:10105000A07319441329F8D801A353F821F000BF55
:101060005B1100084B100008771100084B100008B6
:101070007F110008871100088F11000897110008E0
:101080004B1000084B1000084B1000084B100008D4
:101090004B1000084B1000084B1000084B100008C4
:1010A0004B1000089F110008A7110008AF1100089D
:1010B000B1F5C17F00F0AB800FD840F265139942C3
:1010C00000F09D80B1F5B37F00F09D80B1F5B27F57
:1010D000BBD1406803681C6C1DE040F29513994237
:1010E00000F0A38040F2B113994200F0AC8040F2CE
:1010F00093139942A9D1CDE9092702B9F7B96068DC
:1011000009A903685B6D9847002859D10A9B22E022
:1011100040680368DC6D2B463A463146A04740B331
:101120004EE000F12C084046FFF746F80130CDE9CB
:101130000406CDF80C80069716B90FB104F058FEDE
:1011400005AB00932046628A218A03AB15F04AFC66
:10115000002835D1069B2B600BE0406803689B6834
:101160003A463146984700282AD13046FFF724F8FE
:101170002860002024E0406803681B69F0E74068AD
:1011800003689B69ECE740680368DB69E8E740684F
:1011900003681B6AE4E7406803685B6AE0E740684D
:1011A0000368DB6ADCE7406803681C6BB3E74068F0
:1011B000212203680DA95C6B2B46A047044610B1A1
:1011C00016B0BDE8F0810F2F17D906F1FF380DA931
:1011D0000F36087815F0A6FB0746487815F0A2FBF5
:1011E000FF2F0AD0FF2808D040EA071008F8010FA7
:1011F000B04501F10201ECD110242C60B9E7406840
:1012000003685C6C87E7406803689C6C83E7CDE902
:1012100007230AB9002B91D1606807A903681B6DE9
:1012200098470028CCD1089B95E7CDE90B270AB950
:10123000002F83D160680BA903689B6D9847002835
:10124000BED10C9B87E7CDE90D2712B9002F7FF4A3
:1012500075AF60680DA903681B6E98470028AFD171
:101260000E9B78E7002307B5074801A901931CF0FE
:10127000ACF830B90198002808BF022003B05DF82F
:1012800004FB0220FAE700BF0B67020870B5536841
:101290000E463F2B154686B02DD919481CF0B7F8DD
:1012A00058B30023164804A904931CF08EF8044692
:1012B000E0B905AB02936B68059001932B68114967
:1012C00000930498D6E900231FF0D8FF10F1880F8F
:1012D00013D010F18C0F10D058B9059B402B08D1BA
:1012E0006A683F2A01D804F083FD6B60204606B08F
:1012F00070BDAC24FAE71924F8E7D824F6E700BF5C
:101300000B6702080906000610B5044686B00B46B6
:101310000B4A052104A813F059FD9DF81330102144
:1013200002939DF81230204601939DF81130054A32
:1013300000939DF8103013F049FD002006B010BD59
:10134000B6460208BB46020810B543680446DAB246
:10135000416122B923F0FF0343F001034360074BCF
:10136000074923604FF47053C4E9023115F008FDBA
:10137000000240F00100606010BD00BF127100016A
:101380000906000670B54D6888B015B92F2008B061
:1013900070BD00240968CDE9064405910D44FFF7AE
:1013A00061FF0C4B06AECDE9014306902346224671
:1013B00029460396009405A81FF06BF910B99DF813
:1013C0001C300BB9AC20E2E7069903481CF013F877
:1013D000DDE700BF256A01080B6702082DE9F0412F
:1013E000D2F804800746B8F1400F0E4615461C4659
:1013F000E6B003D92F2066B0BDE8F081412200217C
:1014000016A820F095FDB8F1000F68D04246296873
:1014100016A820F067FD04AD39462846FFF774FF93
:101420000028E8D108AF31463846FFF76DFF014686
:101430000028E0D1A0223EA820F07AFDA021384A61
:1014400016ABCDE900573EA813F0C0FCFFF70AFF2A
:10145000054627A81EF05CFF0CA81CF02DF83EA93D
:101460000CA81CF042F8002858D10CA809211CF047
:1014700038F828461FF021FD20B110F1880F01D067
:101480008C304BD11822002110A820F051FD2946A4
:1014900010A8FFF759FF002303A910A8039313F026
:1014A000C5F9064610A820F02FF8002E36D129469F
:1014B00027A812F089FB88BB27A90CA81CF013F8F9
:1014C000D4E900120CA811F0ADFE38BB2068FEF77D
:1014D00073FE63680130984212D904F089FC114A06
:1014E00016AB02F1080C1D4610685168083203C59E
:1014F00062452B46F7D1106892882860AA808AE757
:101500006060294608481BF076FF04460CA81BF0D3
:10151000D7FF27A81EF00CFF20466CE7AC24F5E7A8
:10152000DF460208D14602080B67020810B5094CD5
:10153000D4E8AF3FDB070BD4204620F0AFFC38B136
:10154000054A0649064816F0F0F9204620F0B2FC9C
:10155000034810BDA0200020B02000200D6A010823
:10156000E00A0020014B00200B6070472542340147
:101570002DE9F041054600248EB08846174600212B
:10158000112209A81E4620F0D3FC1122284602ABE6
:1015900009A9CDE90644CDE902448DF8204000F0C8
:1015A00041FA00284BD1029B0A2B45D19DF82830E7
:1015B0002D2B47D19DF82B302D2B43D10BAB019315
:1015C0000DF129030093092109AB1F4A06A813F066
:1015D000FDFB082306AD029300242B680A2203A911
:1015E00004A804938DF8144013F01AFC039A05AB79
:1015F0009A42A8F8000021D1AB880A2203A904A8C6
:10160000ADF810308DF8124013F00AFC3870039FCB
:101610000DF112039F4211D1EB880A2203A904A8FD
:10162000ADF810308DF8124013F0FAFB039B3070C8
:10163000BB4203D1204602E0072B03D82F200EB077
:10164000BDE8F08109ADC7E7194702080023F0B5EE
:1016500087B001930C46D1E9001201AB00F0EAF922
:1016600040F20123984225D102AD2A46144B03F1E2
:1016700010072E4618685968083303C6BB42354622
:10168000F7D163680F2B02D8192007B0F0BD256889
:10169000134603CB696006A98B4228601A4605F100
:1016A0000805F5D110230193019B6268934204D988
:1016B00004F09EFB0028E8D1F6E700206360E4E731
:1016C000FC32020870B596B004462D220D460AA8D9
:1016D000002120F02DFC00232D22009320466B4694
:1016E0000AA900F0AFF940F20123984219D118235A
:1016F00000931B4B0AAC03F1180622461868596880
:10170000083303C2B3421446F7D10021212201A8B5
:1017100020F00EFC009901EB4103872B05D92F2007
:1017200001E00028F1D016B070BD01AA0AA811F09E
:10173000C7FBA0F11003102B0446F0D86B68984249
:101740000CD8024601A9286820F0CCFB6B689C42AB
:1017500001D904F04DFB00206C60E4E71920E2E7BA
:101760002647020870B54B680646602B0C461546A6
:10177000BCB03FD9852200211AA820F0D9FB002354
:101780008522009330466B461AA900F063F940F2B7
:101790000123984212D1842217491AA8009220F0FE
:1017A000A1FB0021632201A820F0C2FB009901EBFC
:1017B0004103B3F5C87F05D32F2001E00028F0D006
:1017C0003CB070BD01AA1AA811F07AFB612802464C
:1017D0002860F1D16368602B0CD9206801A920F042
:1017E00081FB2B686268934201D904F001FB002061
:1017F0006360E5E71920E3E73F470208012903BFDB
:10180000034B00201B78A62008BF1370704700BF51
:10181000B4330020022938B514461D460FD12022CA
:101820000021084820F084FB3CB1202D2A462146A7
:1018300028BF2022034820F055FB002038BDA620F9
:10184000FCE700BF94330020104608B56AB163B1CD
:1018500002290CD1202B28BF20231A46029B0549C0
:101860001A6020F03FFB002008BD2F20FCE7A620D7
:10187000FAE700BF94330020012905D102B11278A4
:10188000024B00201A707047A6207047B433002026
:1018900010B5094CD4E8AF3FDB070BD4204620F04D
:1018A000FDFA38B1054A0649064816F03EF82046CA
:1018B00020F000FB034810BDA4200020B020002031
:1018C000A56B0108E40A002002490A6802604A6820
:1018D00042607047F432020801481BF076BD00BF39
:1018E0006A690208002313B50C46054801A9019353
:1018F0001BF06BFD08B9019B238002B010BD00BF37
:10190000F1670208002313B50C46054801A90193AD
:101910001BF05BFD08B9019B238002B010BD00BF26
:10192000DC670208002313B50C46054801A90193A2
:101930001BF04BFD08B9019B238002B010BD00BF16
:10194000A669020807B519B92F2003B05DF804FB9A
:1019500000230348019301AB1BF039FDF5E700BFFD
:10196000E469020807B519B92F2003B05DF804FB3C
:1019700000230348019301AB1BF029FDF5E700BFED
:10198000C667020807B519B92F2003B05DF804FB3C
:1019900000230348019301AB1BF019FDF5E700BFDD
:1019A000AF67020807B519B92F2003B05DF804FB33
:1019B00000230348019301AB1BF009FDF5E700BFCD
:1019C0009767020807B519B92F2003B05DF804FB2B
:1019D00000230348019301AB1BF0F9FCF5E700BFBE
:1019E0008167020807B519B92F2003B05DF804FB21
:1019F00000230348019301AB1BF0E9FCF5E700BFAE
:101A00006B67020807B519B92F2003B05DF804FB16
:101A100000230348019301AB1BF0D9FCF5E700BF9D
:101A20005067020811B102481BF0D1BC2F2070474B
:101A30009669020811B102481BF0DBBC2F207047E9
:101A40002569020811B102481BF0C1BC2F20704764
:101A50005E69020811B102481BF0B9BC2F20704723
:101A60004E69020811B102481BF0B1BC2F2070472B
:101A70002067020811B102481BF0BBBC2F20704741
:101A800038670208002313B50C460A4801A90193E0
:101A90001BF09BFC58B9BDF80430B3F5805F238080
:101AA00005D305482F228E2111F0E6F92F2002B030
:101AB00010BD00BF81690208C4470208014815F043
:101AC00027B900BF36690208014815F021B900BFE7
:101AD000BA690208014815F01BB900BFD1690208B4
:101AE000002307B5074801A901931BF06EFC30B92C
:101AF0000198002808BF022003B05DF804FB022013
:101B0000FAE700BF0B6702082DE9F04196B088465E
:101B10001546FFF7E5FF05AE1822002107463046BF
:101B200020F006FAFFF7DCFF31461FF0EBF9044620
:101B300030461FF0E9FC54B13B4601211F201E4AEC
:101B40001BF054FBD824204616B0BDE8F0816B682A
:101B500015943F2B2ED904AB02934023CDE90063AB
:101B60003846D8E90023154904941FF087FB044642
:101B700060B1034601211F20114A1BF037FBAC2343
:101B8000402130461C461BF0DFFBDCE7049F402F62
:101B9000F5D16B6815973F2B0CD93A46314628682A
:101BA00020F0ADF96B683F2B01D804F021F92346F2
:101BB0006F60E5E71923E3E7E4470208090600063A
:101BC000FE47020810B5094CD4E8AF3FDB070BD441
:101BD000204620F063F938B1054A0649064815F059
:101BE000A4FE204620F066F9034810BDA82000207E
:101BF000B0200020696C0108E80A002001481BF0B1
:101C0000FABB00BFF167020801481BF0F4BB00BF3C
:101C1000DC67020801481BF0EEBB00BFA6690208A2
:101C200001481BF0E8BB00BF8169020801481BF0B6
:101C3000E2BB00BF6A6902080248D1E900121BF04A
:101C4000E4BB00BF366902080248D1E900121BF06C
:101C5000DCBB00BFBA6902080248D1E900121BF0E0
:101C6000D4BB00BFD1690208034B187810B10348F8
:101C70001BF0C1BB704700BFB533002005680208E8
:101C800011B1024811F04EB92F207047E4690208E3
:101C900011B1024811F046B92F207047C6670208FB
:101CA00011B1024811F03EB92F207047AF6702080A
:101CB00011B1024811F036B92F207047976702081A
:101CC00011B1024811F02EB92F2070478167020828
:101CD00011B1024811F026B92F2070476B67020836
:101CE00011B1024811F01EB92F2070475067020849
:101CF00011B1024811F016B92F20704796690208F9
:101D000011B102481BF081BB2F20704725690208E2
:101D100011B1024811F006B92F2070475E69020820
:101D200011B1024811F0FEB82F2070474E69020829
:101D300011B1024811F0F6B82F2070472067020851
:101D400011B102481BF061BB2F20704738670208B1
:101D5000084608B5114601F09BF830B91BF02DFB81
:101D600010B90122024B1A7008BD9F20FCE700BF8A
:101D7000B533002013B50A4B0C46187818B9012367
:101D8000237002B010BD0023064801A901931BF087
:101D90001CFB0028F5D1019B003B18BF0123EFE796
:101DA000B53300200568020810B5094CD4E8AF3FF0
:101DB000DB070BD4204620F071F838B1054A0649FC
:101DC000064815F0B2FD204620F074F8034810BD17
:101DD000AC200020B0200020576D0108FC0A002034
:101DE0002DE9F84300EBC103DF880446B94202F154
:101DF00004080BD1012303FA02F2C36823EA0203A9
:101E0000C360002340F82830BDE8F883B3F804909D
:101E1000FD004FEAC9060636835B04358B4202D1CA
:101E2000425B9A420BD04521084815F093FB0023F2
:101E300083F31188BFF36F8F0423184602DF44F841
:101E40002870A75324F80590DEE700BF1A4802085F
:101E50002DE9F84F044614F097FFB0FA80F0C0F176
:101E60001F0004EB8006D6F81090CD0005F1040A9F
:101E70000B4606358FB2B9F1000F0AD10121E26895
:101E800081400A43E260336124F80A706753BDE879
:101E9000F88F4FEAC906043634F806B04FEACB088B
:101EA00008F1060834F8083099450BD04521094857
:101EB00015F050FB002383F31188BFF36F8F0423C9
:101EC000184602DF24F80AB024F8059024F80870B8
:101ED000A753DCE71A48020810B500EBC1035B8882
:101EE0000446DB070A460ED414F053FF34F83030B2
:101EF000C01A814207D134F831102046511A14F02B
:101F000048FF82420BD04521054815F023FB0023F2
:101F100083F31188BFF36F8F0423184602DF10BDCF
:101F2000434802082DE9F8430F4600297AD0046897
:101F30000E1F361BF50826F0070604EB0608B8F856
:101F4000023013F001090BD10A463748452115F03C
:101F500001FB89F31188BFF36F8F0423184602DF5A
:101F60002946204614F015FF34F83030C01AA84234
:101F70000CD03A4645212D4815F0ECFA002383F3A6
:101F80001188BFF36F8F0423184602DFA15B204640
:101F9000691A14F0FEFEA8420CD03A4645212448A6
:101FA00015F0D8FA002383F31188BFF36F8F042351
:101FB000184602DFB8F80230294623F00103A8F8DA
:101FC0000230204614F0E5FE04EBC0035B880746B0
:101FD000DA070CD401462046FFF77EFF394620463B
:101FE00014F0DCFE3A462946204614F023FFA65B97
:101FF000AE1B04EBC6035B88DB070DD431462046DD
:10200000FFF76AFF3146204614F0C8FE2A463146E3
:10201000204614F00FFF354629462046BDE8F84318
:10202000FFF716BFBDE8F883F0480208964802089B
:10203000C44802082DE9F04714464A4202EA010961
:1020400031EA0202034616D04A46042A28BF042277
:102050004F46A1EB090909F1FF3A1AEA090F14D01A
:10206000334934484FF4FB7214F062FF4FF4FB71B4
:102070002F4814F054FF042904D82146BDE8F04746
:1020800014F009BF00270422E5E71CB90025284603
:10209000BDE8F0871E68A9EB020204F0070302F016
:1020A00007010B330B44E10801EBD20101EBD30133
:1020B000B3683046994228BF194614F07CFE80462A
:1020C0000028E3D03D1D05EBC00535445544B5FB64
:1020D000F9F509FB05F5ED1B2C442B1F07349B1B61
:1020E00024F00704A41BB0EBD30F4FEAD3074FEA49
:1020F000E40408D201463A46304614F0B1FE4146A7
:102100003046FFF7A5FE3946304614F042FEA042A5
:1021100007D93046224614F0A3FE21463046FFF789
:1021200097FE06EBC706738843F001037380AEE7A2
:102130001A4902083D490208B2F5802F2DE9F843FB
:102140000AD3364940F20A32354814F0F1FE40F223
:102150000A31324814F0E3FE042A08D82F4940F22D
:1021600011322F4814F0E4FE40F21131F1E7043A45
:10217000CD1D114425F0070521F00706A6EB050843
:10218000B8F1170F4FEAD80708D8244940F21D329A
:10219000234814F0CDFE40F21D31DAE7B7FA87F498
:1021A0004FF00009C4F12002C4F12404A400073454
:1021B000E408631CBB420560AF60C5F80C9008D909
:1021C000164940F23332164814F0B2FE40F2333171
:1021D000BFE74946920005F110001FF0A9FEA2B228
:1021E000530043F001036B803B1B9BB205EBC40122
:1021F0005800A5F80090488025F83420A6F80290F1
:1022000025F8083005EBC7035A88214642F0010241
:102210005A802846BDE8F843FFF71ABE1A4902085B
:102220003D49020808B5024814F06CFE002008BDC4
:102230005D490208014B1B68184700BF000B0020D6
:1022400030B585B004460D461022002168461FF0C7
:102250006FFE02238DF80230044B2A462146684661
:10226000019312F0D1FE05B030BD00BF3522000849
:1022700008B5EFF31183302383F31288BFF36F8F18
:10228000EFF3108372B603F055F9034814F03AFEE9
:1022900015F061FBFCE700BFAA49020810B5134C1A
:1022A0004521134815F056F9E3689A0309D54521ED
:1022B000104815F04FF94521D4F850220E4815F07A
:1022C00049F90A4CE368DB0309D545210B4815F0B1
:1022D00041F94521D4F84021094815F03BF9BDE802
:1022E0001040002108460DF093B800BF0080004464
:1022F000D3490208EE490208054A0208184A0208B2
:10230000354A020807B501A800F09CFE9DF805308B
:10231000012B14D19DF804308BB94FF480120C4B73
:102320000C49586E03F580535A664B6B23F0E0530B
:1023300043F040634B63C3025CBF074B5A6602F035
:1023400069F915F067FA03B05DF804EB00F02CBFF3
:10235000008000500040005A00A000504FF480421E
:1023600038B5114B114D9A664FF0FF33022205F537
:10237000005423660E4B63660E4BC3F8D020BFF3A8
:102380004F8FBFF36F8F002003F006F94FF44033F7
:102390000022E36010462B61114603F019F9BDE8F5
:1023A0003840002003F0EAB800900040008000446C
:1023B000F7FF370000ED00E070B5C66804680D0C4B
:1023C00006FB0544806A14FA81F150B90B490C48A8
:1023D0004FF4AC7214F0ACFD4FF4AC71074814F03C
:1023E0009EFD8468074DAC42F0D2074DAC42EDD360
:1023F0002468A446BDE87040604700BF4B4A02080D
:102400003D490208582702084027020870B550B914
:102410000B490C484FF4BA7214F08AFD4FF4BA71AC
:10242000074814F07CFD8468074DAC42F0D2074D9C
:10243000AC42EDD36468A446BDE87040604700BF7D
:102440004B4A02083D490208582702084027020863
:1024500037B504460821C06A14F071FE00234FF618
:10246000FF72104DADF804306368ADF800208DF8B0
:102470000620E26819182B401344181A6060684659
:10248000ADF8021014F0B3FD6946204614F076FE54
:102490002046211D14F05AFD63682B40A36003B051
:1024A00030BD00BF0000FFFF2DE9F7430F46814616
:1024B0000821C06A14F043FE80463C68124D241A7D
:1024C0003C6004EA0506B4421CD3A0B210B903B0C4
:1024D000BDE8F08308236A4621464846FFF76CFFB3
:1024E0000028F4D16946A0B214F015FE38B1BDF849
:1024F0000230BDF804202E4013441E443C60A4EB7F
:102500000804E0E70020E2E70000FFFF2DE9F047C4
:10251000044688B000F1140738461AF0C1FCA06ADE
:1025200050B99F494FF42A729E4814F001FD4FF4B0
:102530002A719B4814F0F3FC83689B4EB342F0D29F
:102540009A4DAB42EDD3DB689847E06248B945212C
:10255000974814F0FFFF6FF01505284608B0BDE856
:10256000F087A06A40B98E4940F295228D4814F058
:10257000DFFC40F29521DCE78368B342F3D2AB4243
:10258000F1D3DB6898470368013B1F2B02D9452133
:102590008848DEE7E268B2F5803F06D94FF4803321
:1025A0004521854814F0D6FFD5E7A06A216805AA21
:1025B00019F00CFB10B145218048CAE7E5682DB140
:1025C000069BB5FBF3F203FB125515B145217C4880
:1025D000BFE7238A012B02D845217A48B9E7E36A8D
:1025E000009593F805804FF0FF334FF0FF323846E7
:1025F0000DF06EFA0821E06A14F0A1FDA946064626
:10260000238A1FFA85FA534544D8238A4B4500F0A4
:10261000268153450BD10099082342462046891B49
:1026200014F0A1FC18B96946204614F08FFC6946E5
:102630002046FFF739FF0546002840F0CA80009980
:102640004FEA11494FEA09496160C4F80890A3684C
:1026500099420DD30823204601AAFFF7ADFEB8B971
:1026600001AB13F8012B904532D101300828F8D185
:10267000636869466FF30F032046009314F066FC0D
:1026800042462046E368009914F06DFC00283CDACD
:1026900005469EE0E1682B04891B13FA81F142464E
:1026A00008232046009114F05EFC78B1694620466C
:1026B00014F04CFC09F10109082342462046009918
:1026C0001FFA89F914F04FFC00289ED0013597E7D6
:1026D000A08801A914F01FFD626810B9911B616008
:1026E000B5E7BDF808A0BDF80610E06AC4F8089088
:1026F000514414F024FD48448242A060EED1BAF166
:10270000000FEBD06FF01C0563E000F084804FF603
:10271000FF79636806EB0308E3681FFA88F29B1BE6
:102720009A42CDF8008023D34921274814F012FFA4
:102730006168204614F042FC0146002848D16368D5
:10274000224AE06813400344A3EB4603636013404E
:102750002046A36014F0B3FD002899D1E368A28855
:10276000A3EB46039A4234D1204614F024FD8FE7B0
:1027700008234146204603AAFFF71EFE002887D102
:1027800003A91FFA88F014F0C6FC38B1BDF80C306C
:102790004B4503D1BDF81030002B63D0B044BBE7EC
:1027A0004B4A02083D490208582702084027020800
:1027B000964A0208BD4A0208DF4A02080D4B020889
:1027C0002A4B0208434B0208B44B02080000FFFFEB
:1027D0000D4638460DF084FA002D7FF4BEAE01237D
:1027E000228AA3744921E368274814F0B3FE626883
:1027F000492193B22548120C14F0ACFEA26849217D
:1028000093B22348120C14F0A5FEA6E6E26AA36870
:1028100012681344A360D4E901318B4208D94246BF
:1028200020465B1A14F09FFB0028FFF631AFEDD174
:102830006168E36801EB46029A428FD1154BA068AC
:1028400001EA0302904289D0204614F0B7FB002829
:102850007FF41EAF62680F4B1A40A2607EE76FF0F4
:102860002C05B6E749210C4814F074FE63686946EC
:1028700020466FF30F03009314F068FB2046009985
:1028800014F09CFB68E700BF6B4B0208874B020803
:102890009E4B02080000FFFFE04B02082DE9F04FBD
:1028A0001E46837C04468946904695B04BB9452127
:1028B000694814F04FFE6FF00C05284615B0BDE8CE
:1028C000F08FC26A0821104614F039FCB1B20190B1
:1028D000104614F034FCE368019A0746A3EB820328
:1028E000984200F2B6801EB1B8F1000F00F0B1803E
:1028F000D4F804A0CDF810A0204605AA04A914F02D
:1029000094FC05460028D8D1BDF814304B4507D0BB
:10291000DDF810A063685345EED1002E39D1CCE725
:1029200005A91FFA8AF014F0F6FB0028F0D0BDF8D4
:10293000183066B39E422CD1B3464FEA1A43BDF815
:1029400016A01B049A44E36ACDF800801B685B4222
:1029500003F020030293029B51465B4528BF5B4670
:1029600020460CAA0393FFF727FD00284DD1039BB7
:1029700000981A460CA91FF0F0FA50B9039B009A70
:10298000BBEB030B1A449A440092E4D195E7002B69
:1029900093D0002F3CD1BA4604F1140B4FF0FF3214
:1029A0004FF0FF3358460DF093F8238A9D424DD0E7
:1029B000D4E901320AEB02018B422ED39BB263B3FE
:1029C000FF230021ADF81E200CA818228DF822301C
:1029D000ADF81C90ADF820601FF0AAFA20460CA9B3
:1029E000CDE90E8614F0B5FB074648B907A814F0E8
:1029F000FEFA204607A914F0C1FB074600B9374686
:102A000058460DF06DF93D4657E7C2DC054654E7E0
:102A1000019B1F441FFA87FABEE72046FFF718FD07
:102A20003DB9ADF82490CDF82880ADF82C608DF834
:102A30002E50204609A914F042FC07460028DFD199
:102A40009DF82E300135002BAFD0D8E76FF01B0773
:102A5000D6E76FF0150530E77D4A02082DE9FF47FC
:102A60001E46837C04460F469046BDF8309043B91D
:102A70002748452114F06EFD6FF00C0004B0BDE84E
:102A8000F0870821C06A14F05AFBE368A3EB400307
:102A90009E423AD84FF0000A65680195204602AA86
:102AA00001A914F0C2FB0028E8D1BDF80830BB42F0
:102AB00006D102A9A8B214F02EFB50441FFA80FAE6
:102AC000019B62689A4219D0D14515D2BDF80C30ED
:102AD000C3B1D14516D8BDF80A10B3426FF30F0544
:102AE00028BF3346424620462944FFF765FC0028AC
:102AF000C4D1BDF80C00C1E71D46CFE7BDF80830D2
:102B0000BB42E3D06FF00100B8E76FF01500B5E706
:102B10007D4A0208014B036000207047FC38020820
:102B200070B5104B0D461C68B4B10F4B19680023EB
:102B30008B4202DB6FF0010070BD224612F8106B71
:102B4000864202D014460133F2E7E0681AF060F9D9
:102B500028B100202C60EFE76FF00C00ECE76FF07D
:102B60001200E9E7040B0020FC38020810B54368A6
:102B700088B0029383680C46CDE9033200230A68CB
:102B8000C068CDE90623054901AA059319F022F88A
:102B9000079808B9059B236008B010BD6F75010840
:102BA0002DE9F0410C4B05461C680E4617467CB1DA
:102BB00000F0EAF863682046D3F8108032463B46BE
:102BC0002946C047044600F0E9F82046BDE8F081F8
:102BD0006FF00104F9E700BFB42000200023036078
:102BE000044B5A6812B9C3E900007047106058607E
:102BF000704700BFB8200020014B1860704700BF2D
:102C0000B42000201FB5CDE90101039200F0BCF80B
:102C1000074B1C6824B900F0C1F8204604B010BD71
:102C2000636820461B6801A998472468F2E700BF43
:102C3000B82000200022024BC3E90022704700BFE9
:102C4000B82000200022024BC3E90022FFF7F2BFA8
:102C5000C02000202DE9F74307460C4609B10023A8
:102C60000B600026234DDFF89C904D4520D922496A
:102C700022489D2214F05CF99D211F4814F04FF961
:102C8000D5F800803846414601AA14F0AAFC50B19C
:102C900016B954B92E4606E000224046316814F0B9
:102CA000A0FC0028F5D11835DFE7019B2360F1E790
:102CB000E6D3134B1D68C5B155F8188C384641460C
:102CC00001AA183D14F08DFC50B116B954B92E4626
:102CD00006E000224046316814F083FC0028F5D15C
:102CE000AD69E8E7019B2360F1E7304603B0BDE83A
:102CF000F08300BF942802080E4C02083D490208E8
:102D0000C0200020942802082DE9F341DDF820803E
:102D100004460D4616461F460190B8F1000F07D035
:102D2000D8F80010C1B9D8F804E0BEF1000F1CD1EA
:102D3000204601A9FFF78EFF98B13B46D0F80C80E2
:102D4000324629460198C047034650B122464521E4
:102D50000C4814F0FFFB04E001AA14F042FC002828
:102D6000E1D1002002B0BDE8F081D8F80830324649
:102D7000089329463B46F446019802B0BDE8F0416D
:102D8000604700BF404C02084FF0FF324FF0FF3366
:102D900001480CF09DBE00BF2412002001480CF039
:102DA0009FBF00BF2412002038B5094DFFF7ECFF8C
:102DB0002B785BB9FFF746FF00F086F8044608B9A8
:102DC00001232B70FFF7EAFF204638BD0024F9E706
:102DD000B63300202DE9F04306460F46048F99B024
:102DE0000134A4B200F10808651EADB2B5F5004F7C
:102DF0004AD04A23294605AA404614F0A4FB04F50C
:102E00007F543F34A4B281462146012340460DF150
:102E10000B0214F098FBB9F1000F014610DC0028FA
:102E200010DC338FAB4209D132466B1E22F8383F9B
:102E30004FF4004102234046FFF730FD2C46D3E714
:102E4000002808DC2946404614F079FB214640461C
:102E500014F075FBE5E7B9F1490FEFD809F160030C
:102E60000DEB03090023094A09F84C3C05A800971B
:102E700003ABCDF80C80ADF81040FFF745FF0028FC
:102E8000DCD019B0BDE8F0830020FAE72F76010806
:102E9000002810DB79B10B4B1A783AB15A6882429C
:102EA0000CD19B688B4209D1002070470122C3E9F5
:102EB00001011A70F8E76FF0150070476FF07700A6
:102EC000704700BF0821002070B5012688B0694610
:102ED00030460196FFF724FE044600282DD1474DC9
:102EE0002B78002B69D0009BD86850B944494548DD
:102EF00040F2B51214F01CF840F2B511404814F03D
:102F00000EF88368404A9342F0D2404A9342EDD390
:102F10001B69002B4ED002A99847044668B9D5E931
:102F2000011302985B184FEAE17242F100029842E5
:102F3000039B934104D26FF01504204608B070BD86
:102F4000009BD86805AA18F041FE04460028F4D179
:102F50006A68059B9A42EED14FF6FE73069A511E9F
:102F60009942E8D8A968B1FBF2F302FB13110029DA
:102F7000E1D1B3F5803FDED29BB2012BDBD9244EE9
:102F800072612A783383009B002A31D06A68DB683B
:102F90001F48B260F36314F0E2FB04460028CCD172
:102FA0001C4D1B487560FFF719FE19487560FFF747
:102FB00023FEC2E76FF05704BFE7304605AA01A918
:102FC00014F0F7FA044610B110F10C0FB5D1069ABF
:102FD000B2F5803F0ED2009B986800231946114439
:102FE000884203D30133082BF9D1C8E79BB2C6E767
:102FF0005A68CCE76FF020049FE700BF082100204B
:103000004B4A02083D490208582702084027020897
:10301000C820002020390208014B1860704700BF0B
:103020000C0B0020054B1860054B1B6F03F00703CA
:10303000032B01D11FF054BC704700BF140B0020BC
:10304000008000504FF48032064B5A6603F5E623A9
:103050009B69C3F38512827003F03F021B0B427021
:103060000370704700900050014B986CD96C70470A
:103070000080E00F054B9A689107FCD45A689207CC
:10308000F9D4DA69002AF6D1704700BF00800A50EF
:1030900010B5034C63681FF0A1FC0223236110BD2F
:1030A00000800A5008B5FFF7E5FF0122024B03F547
:1030B00080514A601A6108BD00800A5010B5044B67
:1030C0005C68012C03D1FFF7E3FF024B5C6010BD8D
:1030D00000800A5000A00A5038B5074DFFF7CAFF1C
:1030E0006B680446012B03D1FFF7E8FFFFF7C2FF2F
:1030F0002378EB6038BD00BF00800A5010B51FF088
:1031000077FCB8B94A680B7812B1127843EAC20367
:103110004A7843EA42038A6812B1127843EA82137A
:10312000CA7843EA82030A6912B1127843EA422359
:10313000014A936410BD00BF00800A5010B50024FE
:1031400086B01422214601A88DF800401EF0F0FE42
:10315000012313488DF804301FF0BCFFBFF34F8FDD
:103160006846FFF7B9FF204601A98DF80440FFF734
:10317000C5FF20460F211FF04DFC0F2120461FF0F8
:103180004FFCFFF78FFF1FF029FC064B43209C618B
:1031900001F044FD432014F0B7FB06B010BD00BFA2
:1031A0004839020800800A5070B520F009F8144E22
:1031B00005463478FCB9134B1C60134B1C60134B51
:1031C0001C60FFF7BBFF01201FF00AFF1FF060FC2F
:1031D0000F4B0246186020B928461FF0ECFF232051
:1031E00070BD234640F2E7310A48FCF7C1FF0A4BA5
:1031F00018600123337028461FF0DDFF0020EFE741
:10320000B93300201C210020182100202421002097
:103210002021002018FCFFFF14210020044BD3F8CC
:103220008420D206FBD4D3F88400C0F38110704709
:103230000040005038B5174B0546D3F828310C46EE
:1032400003F00703013B052B20D8DFE803F003134D
:103250001B0F0B171FF01EFB052305B1286004B1DF
:10326000236038BD1FF016FB0623F6E71FF05CFB5A
:103270000723F2E71FF04EFB0323EEE71FF04AFBA4
:103280000423EAE71FF042FB0223E6E70023184687
:10329000E3E700BF00800050002337B50193164BD1
:1032A0000546D3F820320C4603F00703042B21D83F
:1032B000DFE803F0030B11161B0001230DB1019A87
:1032C0002A6004B1236003B030BD002101A8FFF7DC
:1032D000B1FF1223F2E71FF027FB07230190EDE770
:1032E0001FF074FE0A230190E8E71FF071FB092329
:1032F0000190E3E70023E1E70080005038B5104B70
:103300000546D3F880300C4603F00303022B0BD0A4
:10331000032B0DD0012B0FD11FF0C2FA0E2305B1E4
:10332000286004B1236038BD1FF0FEFA0723F6E7DA
:103330001FF0B0FA0623F2E700231846EFE700BFBC
:103340000080005038B5104B0546D3F800310C46CC
:1033500003F00303022B0BD0032B0DD0012B0FD155
:103360001FF0D8FA032305B1286004B1236038BDEB
:103370001FF02EFB0923F6E71FF0D2FA0823F2E72D
:1033800001230020EFE700BF0080005038B5184B44
:103390000546D3F820010C4600F00700062823D884
:1033A000DFE800F0040A0E16121A1E00012305B110
:1033B000286004B1236038BD1FF06CFA0523F6E7DE
:1033C0001FF0A8FA0323F2E71FF0AEFA0723EEE797
:1033D0001FF09CFA0223EAE71FF05CFA0623E6E7F7
:1033E0001FF098FA0423E2E700231846DFE700BF46
:1033F0000080005038B5104B0546D3F840310C46DC
:1034000003F00303022B0BD0032B0DD0012B0FD1A4
:103410001FF0DCFD0A2305B1286004B1236038BD2C
:103420001FF0D6FA0923F6E71FF0D3FD0C23F2E7CD
:1034300001230020EFE700BF00800050002337B5D4
:103440000193164B0546D3F860320C4603F0070390
:10345000013B032B1FD8DFE803F0020E19140021F3
:1034600001A8FFF793FF10230DB1019A2A6004B160
:10347000236003B030BD002101A8FFF7BBFF11237B
:10348000F2E71FF051FA07230190EDE71FF03EFA33
:1034900002230190E8E70023E6E700BF0080005028
:1034A000002337B50193164B0546D3F894320C46EA
:1034B00003F00703013B032B1FD8DFE803F0020EE4
:1034C0001914002101A8FFF761FF10230DB1019A23
:1034D0002A6004B1236003B030BD002101A8FFF7CA
:1034E00089FF1123F2E71FF01FFA07230190EDE790
:1034F0001FF00CFA02230190E8E70023E6E700BF83
:103500000080005038B5104B0546D3F860310C46AA
:1035100003F00303022B0BD0032B0DD0012B0FD193
:103520001FF054FD0A2305B1286004B1236038BDA3
:103530001FF04EFA0923F6E71FF04BFD0C23F2E7CC
:1035400001230020EFE700BF008000502E4B98427F
:103550004AD022D82D4B984240D014D82C4B9842B8
:1035600039D00AD82B4B984232D02B4B98422FD0CF
:103570002A4B98422CD000207047294B9842FAD110
:10358000284B186F7047284B98422AD0274B9842F7
:10359000F1D1244BD3F880007047254B98422BD0B3
:1035A00009D8244B984223D0234B9842E3D11D4B9A
:1035B000D3F88C007047214B984221D003F5740357
:1035C00003F510539842D6D1164BD3F898007047A4
:1035D000144B986D7047134B586E7047114B586FD2
:1035E0007047104B986F70470E4BD3F884007047AC
:1035F0000C4BD3F8880070470A4BD3F89000704703
:10360000084BD3F8940070470048E8010024F40008
:10361000C0CF6A0080841E0000093D0040420F00B8
:10362000405DC6000080E00FC0EA210180BA8C0135
:10363000007E560380D54302006CDC020090D0036C
:1036400073B50D460021114B0191D3F88041064618
:1036500004F00304022C13D0032C0CD0012C13D142
:1036600001A8FFF793FE10240EB1019B336005B152
:103670002C6002B070BD1FF057F907240190F3E7EA
:103680001FF044F90190EFE70C46EDE70080005091
:1036900038B5104B0546D3F840320C4603F003030F
:1036A000022B0BD0032B0DD0012B0FD11FF08EFC62
:1036B0000A2305B1286004B1236038BD1FF088F9E2
:1036C0000923F6E71FF085FC0C23F2E70123002015
:1036D000EFE700BF0080005038B5144B0546D3F823
:1036E00000020C4600F0070004281BD8DFE800F0B9
:1036F00003090D111500012305B1286004B12360F1
:1037000038BD1FF063FC0A23F6E71FF061F90923B7
:10371000F2E71FF05EFC0C23EEE71FF0E1F80F2349
:10372000800AE9E700231846E6E700BF0080005062
:1037300038B5144B0546D3F808020C4600F00700D4
:1037400004281BD8DFE800F003090D111500012340
:1037500005B1286004B1236038BD1FF037FC0A238F
:10376000F6E71FF035F90923F2E71FF032FC0C23CE
:10377000EEE71FF0B5F80F23800AE9E700231846AB
:10378000E6E700BF00800050B0F5207F1FD009D8C9
:10379000B0F5007F15D003D868B1B0F5C07F0AD06E
:1037A00000200CE0B0F5607FFAD10B4BD3F880001D
:1037B000C0F3011003E0084B186FC0F30330013071
:1037C0007047054BD3F89000C0F30460F7E7024B55
:1037D000186FC0F38020F2E70080005002464FF4DB
:1037E0008030104B10B598660020FFF7CDFF504396
:1037F00041F671320C4BDC69DA635A6804F48034A8
:1038000022F4401259B90949884294BF002001208E
:10381000000502435A600CB10022DA6310BD04496E
:10382000F2E700BF0090005000000350005A62020F
:10383000002D31011FB50021B0F5807F0446CDE990
:10384000001100F0D2803AD85E2833D85E2833D8F1
:10385000DFE800F045323232323232323232323246
:103860003232323232323232323232323232323238
:103870003232323245AC45ACBCBCBCBCBCACC64E32
:103880006BDC4EACACAC3232323232323232ACACB7
:10389000AC7EE6AC32323232323232323232323214
:1038A00032BC454545E14E4EEB8D63C1323232327A
:1038B000329E4500802870D0009804B010BDB0F54D
:1038C000D06F00F0A38035D8B0F5607F79D01AD8DA
:1038D000B0F5007F65D005D8B0F5C07FECD11EF003
:1038E000FFFF5CE0B0F5207F60D0B0F5407FE3D112
:1038F0001EF0F6FF02464FF42070FFF745FFB2FBC3
:10390000F0F252085BE0B0F5B06F69D00AD8B0F5BC
:10391000806F5BD0B0F5A06FCED100216846FFF775
:10392000BBFCC9E7B0F5C06FC6D100216846FFF700
:1039300061FDC1E7B0F5106F6DD00ED8B0F5086F1E
:1039400078D0B9D8B0F5E06F6AD0B0F5F06FB3D1E8
:1039500000216846FFF7D6FDAEE7B0F5406F3AD0DC
:1039600013D8B0F5206F60D0B0F5286FA4D1002136
:10397000324B0391D3F8703203F00303012B02D1D1
:1039800003A8FFF737FD039B39E0B0F5486F93D1EB
:1039900000216846FFF784FD8EE71EF081FF00904E
:1039A0008AE71EF07DFF0246204604E01EF098FFE5
:1039B00002464FF42070FFF7E7FEB2FBF0F20092F0
:1039C0007AE701A8FFF79AFC019AEDE70021684623
:1039D000FFF7DCFC70E700216846FFF72BFC6BE784
:1039E00000216846FFF72CFE66E74FF0E0230291C6
:1039F0001B695B0705D51EF073FF0290029B0093C5
:103A00005AE703A902A8FFF7F5FCF7E7002168468B
:103A1000FFF762FE50E700216846FFF789FE4BE79B
:103A200000216846FFF734FE46E700216846FFF7AD
:103A300005FD41E76846FFF785FC3DE70080005043
:103A400008B58020FFF7F6FE034B98429EBF4FF467
:103A50008032024B1A6708BD005A620200A0005073
:103A60001FB503460020B3F5807F019000F0C580AC
:103A700065D85D2B56D84C2B07D82D2B48D8232B37
:103A80002CD8019805B05DF804FB4D3B102BF8D8FD
:103A900001A252F823F000BFF13B0008833A00086E
:103AA000833A0008833A00089F3B0008833A0008E5
:103AB000833A00084B3C0008BD3B0008633B00080C
:103AC000413C0008833A0008833A0008833A000822
:103AD000833A0008833A0008553C0008243B092B30
:103AE000CFD801A252F823F0F13B0008F13B0008C7
:103AF000F13B0008F13B0008F13B0008833A000865
:103B0000E73B0008833A00087F3B0008273C000899
:103B10003D2B00F083803E2BB3D1002001A9FFF79D
:103B2000B7FDAEE7802BACD1504B1B6F03F0070302
:103B3000013B032BA5D8DFE803F0544D5052B3F5F9
:103B4000F06F6BD020D8B3F5B06F4CD00ED8B3F572
:103B5000607F71D095D3B3F5806F49D0B3F5A06F76
:103B60008FD1002001A9FFF797FB8AE7B3F5D06F4B
:103B700059D0B3F5E06FD0D0B3F5C06F81D100203C
:103B800001A9FFF737FC7CE7B3F5206F5DD00BD8B8
:103B9000B3F5086F4CD0B3F5106F7FF472AF00200F
:103BA00001A9FFF7C5FD6CE7B3F5406F48D0B3F549
:103BB000486F4FD0B3F5286F7FF463AF2B4BD3F82A
:103BC000703203F00303012B49D0022B0CBF1523E5
:103BD000002300E00523019353E70323FBE70823B9
:103BE000F9E70223F7E7002001A9FFF729FD48E7DD
:103BF000002001A9FFF7CAFB43E74FF0E023029042
:103C00001B695B0705D51EF06BFE0D230393039B19
:103C1000E1E703A902A8FFF7EDFBF8E7002001A9FF
:103C2000FFF770FC2DE7002001A9FFF755FD28E7FD
:103C300001A9FFF787FB24E701A9FFF75FFB20E756
:103C4000002001A9FFF7F6FA1BE7002001A9FFF702
:103C5000F5FB16E7002001A9FFF722FC11E7002180
:103C600003A8FFF7C7FB1123B5E700BF0080005092
:103C70004FF48032074B0849586E03F580535A665B
:103C80004B6A23F001034B62C3035CBF034B5A66CC
:103C9000704700BF0080005000C0075000A00050D7
:103CA00038B504468020FFF7DBFE032800F08A8049
:103CB0004FF48012544B4FF0A0615A6645F60E0344
:103CC000524AC2F88030524B99624FF4803103F56A
:103CD00080539962936DD903FCD4916D11F08041AA
:103CE000FBD1D4E900031B0543EA0063E07B0343F7
:103CF000207B43EA0043607B43EA0033A07B43EA36
:103D0000801313619069D4E904531B0643EA856369
:103D100000F000400343A07E0343207E43EA0043BB
:103D2000607E43EA00239361136AE06923F00F0386
:103D30000343003818BF0120E57E43EA850343EAC8
:103D4000C0031362E369334D002B3CD194F8243057
:103D5000916A94F82000DB00294043EA40130B43AA
:103D600094F8211043EA011343F4803393622A4903
:103D7000264A936D31EA0303FBD14FF0807124484A
:103D800081621369A56823F4700343EA0553136144
:103D90004FF00043836194F822300BB91F4B9962B6
:103DA00094F823303BB94FF480321C4B9A62174A87
:103DB000936D5B00FCD494F825301BB1134B184A6B
:103DC000C3F8802038BD022B08D1116115489161DC
:103DD0004FF408524FF47F4113F0F6FC0B4994F86E
:103DE00022308A6A94F820001B062A4043EA4013D6
:103DF000134394F8242043EAC20394F8232043EAAF
:103E000002438B62D7E700BF009000500040005A89
:103E10000050005AC7FFFEFE030001000060005A78
:103E2000F1A7FFFF3440005A014B93F9000070479F
:103E3000FD1000204FF400011B4A437810B5516675
:103E40004FF4D151022402F5B832516217494F2B79
:103E50004C604FF0010428BF4F2301F580514C60A6
:103E60001169C903FCD4017843EA01235361D0E905
:103E700001131B0143EA0123417B0B43017B43EA0E
:103E800041039360C37B817B1B0143EA4113417C67
:103E90000B43017C43EA41035360837C13B16FF40D
:103EA000D153536210BD00BF00900050001002506B
:103EB000014B1880704700BFFA100020014B18809A
:103EC000704700BFF81000204FF4800208B5184B6F
:103ED0005A660223174A5360936813F48033FBD168
:103EE000012822D11EF016FD134B984215D003F580
:103EF000122303F5F863984213D0104B00EB8002B5
:103F0000400AB3FBF0F3520A0A49CA620B63012369
:103F10004B620022074B5A6008BD45F67A13084AE7
:103F2000F2E745F61A03074AEEE75362F1E700BFEE
:103F3000009000500040025000F04902646666663E
:103F4000D8B80500BBCF0500B0F5207F10B50C46F2
:103F500057D008D8B0F5007F48D003D830B3B0F5BB
:103F6000C07F23D010BDB0F5607FFBD12949013C53
:103F7000D1F8FC2012F080721EBFD1F8FC3023F083
:103F80008073C1F8FC302449D1F8803023F030032D
:103F900043EA0414C1F88040002AE3D01D4AD2F855
:103FA000FC3043F08073C2F8FC30DBE713F01BFCFD
:103FB00013F027FC4FF48031184B174A1967136F21
:103FC000013C23F4704343EA043414671EF088FC78
:103FD0000446FFF723F9C0F10201204613F00BFC61
:103FE00000F036F8BDE81040FFF72ABD0A4A4C1E23
:103FF000D2F8903023F0F85343EA0464C2F89040BA
:10400000B0E7054A4C1E136F23F4806343EA842310
:104010001367A7E700ED00E000800050009000501B
:1040200008B50121022000F011FB4FF42070FFF7CA
:10403000ABFB054B187013F0D6FB13F0E2FB4FF40B
:104040008032024B1A6708BDBA330020009000503E
:1040500008B54FF4C070FFF7EDFBBDE80840044918
:10406000884294BF012102214FF42070FFF76CBFFA
:1040700080F0FA0238B504461EF032FC0546FFF720
:10408000CDF8C0F10201284613F0B5FB0121002054
:1040900000F01CFB2CB1FFF7DBFFBDE83840FFF759
:1040A000CFBC034B4FF420701978FFF74DFFF4E7B6
:1040B000BA3300204FF4C02201212DE9F04105461A
:1040C000664B5A66664A03F598335E6851605C68D1
:1040D00014F00204FBD1FFF7A1F801282F6803D1E7
:1040E000604B9F4200F2B7805F4A00231146106880
:1040F000B84202D85068B84205D20133192B02F1F8
:104100001002F4D1002301EB0313D3E9028028B19C
:10411000FFF71CFA00F07F0048EA00088020FFF754
:104120009FFC052857D113F05EFB13F06AFB4FF498
:1041300080324A4B4FF4C0701A67FFF725FB012805
:10414000044644D102214FF4C070FFF7FDFE012761
:10415000464BDA6812F0060FFBD19968C3F8088065
:104160009A6882EA080212F4F81F48D1AA88EB88FC
:1041700043EA02433E4AD360AB68032B2DD1A2F53C
:10418000A032D2F8003123F0030343F00103C2F858
:1041900000312B7D6A7D9B0043EA82132A69002649
:1041A00013432A7B43EA4203314A93602868FEF7AF
:1041B00033FF07222A4B1A610122A3F580535A606C
:1041C000A3F580531D6915F00705FBD01DE00228FB
:1041D00001D10421B7E70027BAE7092B07D1254A07
:1041E000D2F8003123F0030343F00203CFE7082B9A
:1041F000CFD1204AD2F8003143F00303C7E716F0CD
:10420000010599604FF00106D3D18020FFF728FC0B
:10421000052817D127B121464FF4C070FFF794FE4F
:104220001EF05EFB04461EF035FB1EF033FBFEF76E
:10423000F5FFC0F10201204613F0DDFAFFF708FF99
:10424000FFF7FEFB86F00100012D14BF002000F0F7
:104250000100BDE8F0812046FBE700BF0090005060
:1042600000E00150005A6202543902080000015077
:1042700000C0015000800050364B98424FD01CD8EF
:10428000354B984257D00ED8344B98424FD008D86F
:10429000334B98422CD0334B984229D0324B984222
:1042A00026D0002327E0314B984234D0304B98423F
:1042B000F7D1304BD3F8BC301DE02F4B984232D0B1
:1042C0000FD8A3F53703A3F5D853984237D003F599
:1042D000B70303F558639842E3D1264BD3F8C830AF
:1042E00009E0264B9842DCD1224BD3F8D03002E0D3
:1042F000204BD3F8A0304FF40021214A23F0407323
:104300005166194A90421ED0154A90421ED04FF075
:10431000B44293607047174BD3F8B830EBE7154BB6
:10432000D3F8C030E7E7134BD3F8CC30E3E7114BB9
:10433000D3F8A430DFE70F4BD3F8B030DBE70D4BF9
:10434000D3F8C430D7E743F00073E0E743F080735D
:10435000DDE700BFC0EA210180969800404B4C0089
:1043600080841E0000093D0040420F00405DC600F1
:104370000024F4000080E00F0048E801005A6202C7
:104380000090005030B58BB06C46944D94481EF0B0
:10439000A1FE0FCD0FC42B68924A2360FF238DF836
:1043A0000130D2F84C3113F4802340F00A81D2F866
:1043B00050218DF801309DF801306C46FF2B08BF6D
:1043C0003F236846884D8DF80130FFF733FD3220DA
:1043D000FFF76EFD0FCD0FC40FCD0FC495E803009E
:1043E00084E803007F4BD3F84C21100300F1E380F5
:1043F000D3F85041E4B28DF81940FFF715FD04449D
:1044000084F3080479488DF81840FEF70BFE6846DF
:10441000FFF746FC3220FFF751FD754A754B03212B
:10442000CDE900230023CDE9021301238020CDE94B
:104430000433FFF715FB0528044606D16E4A136FB7
:1044400023F0070343F0010313676C481EF042FE9C
:104450006846FFF72FFE052C06D1674A136F23F03D
:10446000070343F0020313676548FFF705FF624C3B
:1044700064481EF02FFE0020FFF726FDFFF7D0FD59
:10448000236F002023F0070343F002032367FFF7A5
:10449000F1FD236F5C4923F4744343F48063236785
:1044A000D1F8FC2012F080721EBFD1F8FC3023F04E
:1044B0008073C1F8FC300021D4F8803023F003036E
:1044C00043F00103C4F88030504BC3F8801032B180
:1044D0004D4AD2F8FC3043F08073C2F8FC30464CB1
:1044E000D4F8203123F0070343F00103C4F820314E
:1044F000D4F8283123F0070343F00103C4F828312E
:10450000D4F8803123F0030343F00103C4F8803171
:10451000D4F8403123F0030343F00203C4F84031E0
:10452000D4F8603123F0030343F00203C4F8603190
:10453000D4F8403223F0030343F00203C4F84032BE
:10454000D4F8003223F0070343F00203C4F800322A
:10455000D4F8083223F0070343F00203C4F808320A
:10456000D4F8703223F0030343F00103C4F870322F
:10457000D4F8203223F0070343F00103C4F82032BB
:10458000FFF776FB4FF0E0220020136943F00403AD
:104590001361D4F8603223F0070343F00103C4F839
:1045A0006032D4F8943223F0070343F00103C4F8D7
:1045B00094320BB030BD164B1C88FF2C88BF8C2466
:1045C00019E74FF07E6393F89C2093F99C30002B01
:1045D000FFF6F1AE8DF80120EDE600BFB83202081B
:1045E000483902080080E00FCC320208C01753029D
:1045F000802FA604FF0E7F0700800050503902086C
:10460000C0EA21014C39020800ED00E000900050A2
:104610000001E00F07B5084B186899889B79009056
:104620006846ADF804108DF8063000F0BDF80020A3
:1046300003B05DF804FB00BF0C330208024A536B61
:104640000342FCD1704700BF00400950F8B5044652
:104650001C4BD3F88420D106FBD4D3F88430C3F3A9
:1046600081139C422CD01EF01BF9012C064602D16E
:10467000214613F0C0F81EF09AFD4FF00072124B65
:1046800007465A66204613F0C7F84FF480630D4D75
:10469000621E93402B676B6E9A0103D4D5F8843069
:1046A0009B060AD538461EF07DFD022C08D1304607
:1046B000BDE8F840002113F09EB8D5F88430EAE751
:1046C000F8BD00BF004000500060005010B50C461F
:1046D00008B91EF0E5F8074B21461B783BB1064BA5
:1046E000984204D80120BDE81040FFF7AFBF022078
:1046F000F9E700BFBB330020005A62024FF00042CE
:1047000038B5244B244C5A664AF6CD33656C0146C5
:1047100005F00105236430BB0120FFF78FFF6368BC
:10472000DB0708D4002415B11B4B1C4A1A6413F094
:1047300074F8204638BD1A4B58600846194B226B56
:10474000D20705D4984201D10724ECE70130F6E7FF
:104750009842E7D1F8E70132236B13F0080305D044
:104760008A42F8D1F0E700220E49F5E78A42EBD001
:1047700020210B4A91620121A2F580525160064925
:10478000084A886A800603D49342DDD00133F8E7F3
:104790009342DEE700900050004009503254FFFF82
:1047A0000060095040420F004FF0004238B5164BF0
:1047B00001465A664AF6CD33144C154A656C23649B
:1047C00043780B205B0043F00103D363FFF736FF10
:1047D00063688A7823F4F87343EA02136360CA7843
:1047E0004B7943EA0223A3600A798B7943EA0223D7
:1047F00023610878FFF782FFEB0744BF054B236472
:1048000013F00BF8012038BD009000500040095013
:10481000004000503254FFFF0122437801789A4053
:1048200030235943014B5A50704700BF40E00350BA
:10483000034BD3F82424D3F820041040704700BF62
:1048400000C00350064BDA6E02F03002202A06D078
:10485000DA6E22F0300208B142F01002DA667047D8
:10486000004000502DE9F0411B4B0446D3F81033B3
:104870004B1E0E2B0E46174621D929B34FF00008C8
:104880002046F7B11EF026FB30220F2120786378F6
:104890005043072B88BF083B104D95BF9B009B00E2
:1048A00004300C3008FA03F29940284412F0B6FFA5
:1048B00086B9204657B1BDE8F0411EF00BBB8846D3
:1048C000DEE7FFF7A9FFDFE78846DDE7BDE8F04157
:1048D000FFF7A2BFBDE8F08100C0035030C0035015
:1048E0002DE9F0412B4B1746D3F810234A1C0646FE
:1048F0000C4605D1D3F82414407812F0AAFF0446E0
:10490000002C2FDB072C4FF0030532782DDC4FEA0B
:10491000840805FA08F529461F4802FA08F212F041
:104920007DFF294672781D4802F0030202FA08F260
:1049300012F074FF012317F0050F194A18BF194927
:1049400003FA04F30CBFC2F81034C1F8103417F0A6
:10495000060F18BF134AC2F814340123104AA340AB
:10496000C2F820342046BDE8F081A4F108084FEADF
:10497000880805FA08F529460B4802FA08F212F0F1
:104980004DFF7278294602F00302084802FA08F245
:10499000CEE700BF00C0035000C4035008C403505A
:1049A00000E0035000D0035004C403500CC4035073
:1049B00038B505460C4C0140D4F8303423EA0003E6
:1049C000C4F83034D4F830341943C4F83014D4F86F
:1049D0002C340343C4F82C34012004F50054FFF7B1
:1049E00031FFC4F8205438BD00C0035070B5124BDD
:1049F0000646D3F8103312F03FFF0446481C154614
:104A000016D0621C0FD08C420FD10321304685F0A6
:104A10000102FFF727FF012004F1100305FA03F15B
:104A20009840FFF7C5FF204670BD4FF0FF34FAE70E
:104A3000631CEAD1F7E700BF00C003504A680F4B80
:104A400030B59A4216D0102492B292FAA2F2120C09
:104A50000B78CD789B0243EA45334D7843EA4523F2
:104A60008D7843EA05232343836004B142618B6858
:104A7000036130BD00221446EAE700BFB71DC10440
:104A80004FF48032054B9A6641F6713203F51C33C0
:104A9000DA63012203F50053DA607047009000509A
:104AA000024B187880F00100704700BF2B74002083
:104AB00070B5194B1B68FFF7F3FFD0B9EFF3118402
:104AC000302383F31288BFF36F8F144D2B7803F0DC
:104AD000FF06FBB9124818F0E3F900280BDA0122AF
:104AE000FFF7DEFF18B984F31188BFF36F8F10460C
:104AF00070BD0024E9E7012231460A4818F0F1F9B7
:104B00000028ECDB5022084B83F8412302229A60F4
:104B100001232B700022E3E7180B0020BC33002098
:104B2000402100202821002000E100E000232DE9A1
:104B3000F0478EB00E46174604460193002869D010
:104B40000AB1002966D037F0030807F0030A28D01D
:104B50004FF0E0634FF0000923600123C4F8049094
:104B6000C4F808900896099348F000530A9308AADD
:104B700002AB07CAC4F8209083E807001946204614
:104B80001EF087FB414620461EF05AFB20461EF0D1
:104B9000D5F9054628B14246494630461DF0C8F9C8
:104BA00003E0BAF1000F04D1002528460EB0BDE89D
:104BB000F0874FF0E0634FF00009236001ABC4F8C9
:104BC0000490C4F808900B9301230C93124B0EAA87
:104BD0000D9305AB12E90700C4F8209083E80700A5
:104BE000194620461EF055FB042120461EF028FBE6
:104BF00020461EF0A3F9054608B13A46CCE7019AD3
:104C00004644EB00013522FA03F3AA4506F8013BBE
:104C1000F7D1C9E72125C8E70400002040B20028E9
:104C200008DB01224309044900F01F008240603381
:104C300041F82320704700BF00E100E080B5054641
:104C40000E46174698460DF0D7F8034600F036FE9C
:104C5000DFF84090044649F8003042463946304675
:104C6000A847094B1B7853B90849094840F25D32FF
:104C700012F05EF940F25D31044812F050F954F838
:104C8000090000F08BFD00BF2B740020794C020856
:104C90003D4902080800000008B50348034A002106
:104CA000121A12F033FE08BDB81200203074002032
:104CB000074808B5074A0849121A12F029FEBDE84C
:104CC00008400648064A0749121A12F021BE00BFE2
:104CD000800A0020B8120020E46B0208A808002017
:104CE000800A00200C6A0208F0B507460C4687B01F
:104CF000002949D012F001F9A36845210093D4E9B5
:104D000000232B4812F026FC12F0F7F863694521C6
:104D10000093D4E90323274812F01CFC12F0EDF8AD
:104D20004521E269244812F015FC12F0E6F845210D
:104D3000224812F00FFC2646002512F0DEF8F36A36
:104D40002A460593EB1C0493B36A45210393AB1CDD
:104D50000293736A1A4801936B1C0093336A0435FB
:104D600012F0F8FB102D06F11006E6D112F0C5F88E
:104D70004521226E134812F0EDFB12F0BEF84521DA
:104D8000A269114812F0E6FB012F09D1EFF3058566
:104D900012F0B3F845210D48A5F1100212F0DAFB2C
:104DA0002146384607B0BDE8F0400AF031BB00BFED
:104DB000A44C0208D84C02080C4D0208204D0208F1
:104DC0005F4D0208A74D0208BB4D0208EE4D0208D8
:104DD00030BFFFF7FDBF00BF2DE9F04105460B4E88
:104DE000DFF83080324606EB0807CC1B2046084926
:104DF0001DF078F8A01942460021083C1DF098F8F3
:104E0000C5F8844007F10800BDE8F081000000000B
:104E1000B43202080800000038B5044612F06DF8FC
:104E20004521434812F096FBBCB112F066F84521CB
:104E3000404812F08FFB12F060F845213E4812F016
:104E400089FB12F05AF845213C4812F083FB12F01E
:104E500054F845213A4812F07DFB3A4CD4F8E8501A
:104E6000D4F8E430590606D512F047F82A46452111
:104E7000354812F06FFBD4F8E430DA070ED512F0A3
:104E80003CF83248452112F065FB26202D4AD2F825
:104E9000E43043F0FF03C2F8E43038BDD4F8E43026
:104EA0009B0707D512F029F82948452112F052FB3B
:104EB0002720EBE7D4F8E4305D0707D512F01DF8A2
:104EC0002448452112F046FB2820DFE7D4F8E430DF
:104ED000180707D512F011F81F48452112F03AFBC8
:104EE0002920D3E7D4F8E430D90607D512F005F825
:104EF0001A48452112F02EFB2A20C7E7D4F8E430E7
:104F00009A0607D511F0F9FF1548452112F022FB4A
:104F10002B20BBE7D4F8E4301B0607D511F0EDFFDA
:104F20001048452112F016FB2C20AFE72520ADE7F5
:104F3000064E0208244E0208554E02088B4E020807
:104F4000BE4E020800ED00E0FB4E0208104F0208C2
:104F50002B4F02084E4F02086E4F0208904F020876
:104F6000AA4F0208C94F020810B52C4C11F0C5FF1A
:104F700045212B4812F0EEFAA36A99014CD511F0A5
:104F8000BCFF2848452112F0E5FA1E20A36ADA0189
:104F900006D511F0B2FF2448452112F0DBFA1F209C
:104FA0001E4CA36ADB0206D511F0A7FF1F4845215E
:104FB00012F0D0FA0220A36A1C0306D511F09DFF5F
:104FC0001B48452112F0C6FA2120144CA36A59034C
:104FD00006D511F092FF1748452112F0BBFA2220A6
:104FE000A36A9A0306D511F088FF1348452112F0F1
:104FF000B1FA2320094CA36ADB0306D511F07DFF2B
:105000000E48452112F0A6FA2420A36A6FEA034352
:105010006FEA1343A36210BD1D20B7E700ED00E067
:10502000E14F0208FE4F02081650020835500208F0
:105030006450020887500208B1500208D05002089C
:10504000F8B5304C06460D4611F057FF45212E4865
:1050500012F080FAA36ADA0447D511F04EFF2B480C
:10506000452112F077FA1720A36A1B0506D511F027
:1050700044FF2748452112F06DFA1820214CA36AFD
:105080009F0515D511F039FF2248452112F062FA2B
:10509000A76BA36A18040AD511F02FFF3A464521E1
:1050A0001D4812F057FA16B14FF40043A3621920BD
:1050B000144CA36A590506D511F01FFF1748452166
:1050C00012F048FA1A20A36ADA0510D511F015FF7C
:1050D0001348452112F03EFA1B200A4A936A43F412
:1050E0007F43936200232B70F8BD1620BCE7A36AB0
:1050F0009B04F2D511F001FF0A48452112F02AFA6B
:105100001C20EAE700ED00E0005102081B510208F4
:1051100031510208495102086751020881510208C1
:10512000A1510208BE510208F8B5384C06460D469A
:1051300011F0E3FE4521364812F00CFAA36ADF06AF
:1051400053D511F0DAFE3348452112F003FA11204D
:10515000A36A1C0706D511F0D0FE2F48452112F096
:10516000F9F91220294CA36A990714D511F0C5FE4C
:1051700045212A4812F0EEF9676BA36A1A0609D591
:1051800011F0BBFE3A464521254812F0E3F90EB175
:105190008023A36213201D4CA36ADB0706D511F000
:1051A000ACFE2048452112F0D5F91420A36A9F06D1
:1051B00006D511F0A2FE1C48452112F0CBF91520AE
:1051C000124B9A6AD60602D49A6A94070FD59B6A44
:1051D000D9060CD5154916484FF49B7211F0A8FE5C
:1051E0004FF49B71114811F09AFE1020B0E7074B65
:1051F0009A6A920642BF5A6A22F400525A629A6A26
:1052000042F0FF029A6200232B70F8BD00ED00E02F
:10521000F25102080D5202083151020845520208AB
:10522000625202087D520208BE510208A1520208D1
:105230003D4902082DE9F043904B0546D3F8048020
:1052400000269DB0C8F3080786F31188BFF36F8F5F
:1052500002F07F43B3F17F4F38D1D40736D512F037
:10526000400302F0080904D0B9F1000F1FD1012654
:105270001EE0500744BF0D461E462C68804B58BFA9
:1052800001262344012B98BF2C6C11F036FE2246D8
:1052900045217C4812F05EF9B9F1000F04D0EFF31C
:1052A0008985012405BB11E0EFF38885F9E70D46F8
:1052B00012F0200426D12A68714B1344012B12D915
:1052C00011F01BFE4521704812F044F911F015FE53
:1052D00045216E4812F03EF9002108461DB0BDE898
:1052E000F043FFF701BD283500238DF80730FB1E82
:1052F000092B00F2B080DFE803F007A1A58389AE97
:10530000AEAEAEA90024CDE711F0F7FD452160480F
:1053100012F020F90023594F8DF80730FB6A9A07E5
:1053200007D511F0EAFD45215A4812F013F900247F
:1053300033E0FB6A002B04DA11F0DFFD452156480B
:10534000F3E7FB6A5B0070D511F0D7FD45215348A8
:1053500012F000F97B69AA6943F480737B61BFF3A3
:105360004F8FBFF36F8F32F8023C7A6922F480725C
:105370007A61BFF34F8FBFF36F8F03F47F42B2F5B3
:105380005F4F24D1DBB2022B21D111F0B6FD4521B4
:105390002A68434812F0DEF82C689DF807309BB964
:1053A0006822294602A81CF09DFD099B002E61D0B1
:1053B000C3F3080222B96FEA53236FEA4323099328
:1053C000204602A9FFF790FC1DB0BDE8F0832B4BEF
:1053D0009A6AD2B232B101200DF10701FFF7A4FEA3
:1053E0000446DAE79A6A12F47F4F05D001200DF1E6
:1053F0000701FFF725FEF3E79A6AB2F5803F02D373
:10540000FFF7B2FDECE7D3F8E4301BB12046FFF71D
:1054100003FDE5E7234940F20332234811F088FDFC
:1054200040F203311F4811F07AFD1E4940F2063266
:105430001D4811F07DFD40F20631F3E700200DF12B
:105440000701CBE700200DF10701D2E711F055FD70
:105450004521164869E711F050FD154918F4F87F09
:10546000144A154818BF0A46A7F11003452112F047
:1054700071F85CE76FF30803A1E700BF00ED00E0FF
:10548000A6ED0501015302082553020862530208E4
:10549000A3530208BF530208E5530208F853020859
:1054A0001C540208A15202083D4902083D5402085A
:1054B000E8520208D352020866540208064B5A69A1
:1054C00042F010025A615A6942F480625A615A6984
:1054D00022F008025A61704700ED00E0EFF3088007
:1054E000EFF3098101B57246FFF7A4FE01BD00BFCD
:1054F0000E4880F30888302080F311880C484FF064
:10550000AA014FF4006212F001FA09484FF4006159
:10551000401880F30988EFF314800221084380F3D8
:105520001488BFF36F8F00F089F8000050A30020AB
:10553000107A0020BFF34F8F0549064BCA6802F46A
:10554000E0621343CB60BFF34F8F00BFFDE700BFA6
:1055500000ED00E00400FA051EF0040F0CBFEFF3AD
:105560000880EFF30980816911F8021C0229FFD03D
:1055700001B5724612F0CEF901BD00BF40B200285D
:1055800007DB01234109034A00F01F00834042F872
:105590002130704700E100E04A2808B508D90949E0
:1055A00009484A2211F0C4FC4A21064811F0B7FC10
:1055B00001224309054900F01F008240603341F891
:1055C000232008BD7E5402083D49020800E100E0A6
:1055D00008B5D30758BF03310F2908D90D490E4824
:1055E000822211F0A5FC82210A4811F098FC40B2F9
:1055F0000028ACBF00F16040084B4FEA0111C9B26E
:10560000ABBF00F5614000F00F0080F800131954A3
:1056100008BD00BF7E5402083D49020814ED00E0B9
:10562000044B054A23F07F039360BFF34F8FBFF312
:105630006F8F70470000000800ED00E008B5FCF730
:105640008DFEFFF7EDFF104BD3F8882022F4700297
:10565000C3F88820D3F8882042F4A002C3F8882039
:105660004FF04042C3F83422BFF34F8FBFF36F8F28
:105670000023E1EE103AFFF70FFBFFF719FB00F0F4
:10568000FFF80AF031F800BF00ED00E08189203A10
:1056900041F0020181814FF47D41C0F8E0101360B8
:1056A000009B08495360019B21F001019360029B1C
:1056B0009161D3604FF08073D36100230266C0F81C
:1056C000983070473D4C0008104B9B6883421AD1BC
:1056D000EFF30580B8B9EFF31181302282F312881D
:1056E000BFF36F8F9A8922F002029A81EFF314833D
:1056F00023F0040383F31488BFF36F8F81F31188C1
:10570000BFF36F8F70476FF015007047681C002063
:1057100008B504460E4615460023E1EE103AEFF3B5
:10572000148323F0040383F31488BFF36F8FBFF354
:105730006F8F0D4BD0F8842098600C4B1A600BF0E3
:105740001FFC636F83F30B882C4686F309880020C7
:10575000034B98472046002100220023014C20479C
:10576000497901083D4C0008681C002054210020A4
:105770001022014B1A61704700ED00E0054B1A6AD8
:105780009B689A421FBF044A536843F0805353609A
:10579000704700BF681C002000ED00E0084B9B68CC
:1057A00083420BD1EFF3058343B1064B5A6842F0B5
:1057B00080525A605A6A22F400425A620BF078BC56
:1057C000681C002000ED00E001B517F0FFFBBDE80C
:1057D000014028498A6882F8E1E04FF04000104417
:1057E000EFF3098C80E8F01F1EF0100F03D102F1D7
:1057F000A00080EC108A302080F31288BFF36F8FF6
:105800001D4F4FF000660A6A8A603E60D2F884003D
:105810001A4C206092F9E1E0D2F898000023C2F817
:10582000983080F311881EF0100F03D00023E1EEB2
:10583000103A03E002F1A00090EC108AEFF3148319
:1058400023F0040383F31488BFF36F8F02F1400049
:1058500090E8F01F8CF3098802F1000004B512F003
:105860006DF8BDE8044001B50BF08AFBBDE80140CE
:1058700070470000681C002004ED00E05421002067
:10588000002330210348C21801334B2B82F8001348
:10589000F9D1704700E100E008B5EFF30583064A4F
:1058A000103B02EBC30152F8330049688847BDE85A
:1058B0000840FFF763BF00BFCC240208014800681E
:1058C00070470000542100201FB50121094B0A4AEE
:1058D0000A4800F00BF90023064A0393084B012104
:1058E000019301A8D31A029300F01AF905B05DF8EC
:1058F00004FB00BF0000042000000020E43A02087E
:10590000B81200200A7A0B6810B562F304031C4633
:10591000CB68520923F01F0343EA4203044A43F0D1
:105920000103C2F89800C2F89C40C2F8A03010BD34
:1059300000ED00E010B50A4B0446D3F89030C3F3F5
:105940000723013B984208D902464521054811F03A
:1059500001FE6FF01504204610BDFFF7D3FFFAE7F4
:1059600000ED00E0B95402082DE9F04F89461446D5
:1059700006464FF000084F4D85B0C84527DAD6F8E7
:1059800004A0BAF1000F44D0BAF11F0F18D91AF0D1
:105990001F0F15D1D6F800B01BF01F0F10D15846BD
:1059A00011F0E6FF07460AEB0B00013811F0E0FFAB
:1059B000874210D06FF015073A4645213E4802E075
:1059C000424645213D4811F0C5FD6FF015042046C3
:1059D00005B0BDE8F08F17F1160FEDD0BC42EBDD3E
:1059E000C5F89870D5F89C10C5F89870D5F8A03017
:1059F00021F01F0143F01F0BD6E900321A449942EF
:105A000002F1FF3A1AD1D34507D13146F8B211F06D
:105A1000B8FF08F101080C36AFE73146C5F89870B9
:105A2000D5F89C30E0B263F30402C5F89C2011F075
:105A3000A8FF10F1160FC8D0441CEAE7C5F898700B
:105A4000D5F8A020013B23F01F0302F01F021343EF
:105A5000D3453146E0B2C5F8A030E8D011F091FF4F
:105A600010F1160FB1D0C5F89870D5F89C209DF8AC
:105A700008300BF1FF3B62F304038DF80830D5F8D2
:105A8000A0309DF808205B0863F347128DF80820CA
:105A9000D6E900321344009323F01F035B44A3EBC9
:105AA0000A03013023F01F036946C0B20393FFF7D6
:105AB00041FFBEE700ED00E00F550208E454020884
:105AC0000522044BC3F89420BFF34F8FBFF36F8FB1
:105AD000704700BF00ED00E0BFF35F8F0022024B74
