:020000040800F2
:1000000020A30020C552000891760108B1520008D3
:10001000B1520008B1520008B1520008B1520008B4
:100020000000000000000000000000002D53000848
:10003000B1520008000000009D550008B1520008B0
:10004000012000086D5600086D5600086D56000826
:100050006D5600086D5600086D5600086D56000874
:100060006D5600086D5600086D5600086D56000864
:100070006D5600086D5600086D5600086D56000854
:100080006D5600086D5600086D5600086D56000844
:100090006D5600086D5600086D5600086D56000834
:1000A0006D5600086D5600086D5600086D56000824
:1000B0006D5600086D5600086D5600086D56000814
:1000C0006D5600086D5600086D5600086D56000804
:1000D0006D5600086D5600086D5600086D560008F4
:1000E0006D5600086D5600086D5600086D560008E4
:1000F0006D5600086D5600086D5600086D560008D4
:100100006D5600086D5600086D5600086D560008C3
:100110006D5600086D5600086D5600086D560008B3
:100120006D5600086D5600086D5600086D560008A3
:100130006D5600086D5600086D5600086D56000893
:100140006D5600086D5600086D5600086D56000883
:100150006D5600086D5600086D5600086D56000873
:100160006D5600086D5600086D5600086D56000863
:100170006D5600086D5600086D5600086D56000853
:100180006D5600086D5600086D5600086D56000843
:100190006D5600086D5600086D5600086D56000833
:1001A0006D5600086D5600086D5600086D56000823
:0401B0006D56000880
:1001B80053B94AB9002908BF00281CBF4FF0FF31C6
:1001C8004FF0FF3000F00CB8ADF1080C6DE904CE2B
:1001D80000F01AF8DDF804E0DDE9022304B0704706
:1001E800704700BF10F8012B11F8013B012A28BF06
:1001F8009A42F7D0D01A7047034613F8012B002A09
:10020800FBD1181A013870472DE9F0478C468E4605
:10021800089E154604461946002B40F0D0807245CA
:1002280047D9B2FA82F74FB1C7F120030EFA07FC9B
:10023800BD40BC4020FA03F343EA0C0C4FEA154ECC
:10024800A8B2230CBCFBFEF80EFB18CC08FB00F987
:1002580043EA0C43994528D9EB1808F1FF3204D238
:10026800994502D9A8F102022B44A3EB0903A4B2D1
:10027800B3FBFEFC0EFB1C330CFB00F044EA03440A
:10028800A04214D92C190CF1FF3304D2A04202D990
:10029800ACF102032C44241A43EA02401EB1FC408C
:1002A800002334607360BDE8F0874246DDE76346AB
:1002B800F1E7002A79D0B2FA82F3002B3FD0194631
:1002C800C1F1200302FA01F500FA01F42EFA03F253
:1002D8000EFA01FE20FA03F3AFB243EA0E034FEA27
:1002E800154EB2FBFEFC0EFB1C201A0C0CFB07F88B
:1002F80042EA004290455AD9AA180CF1FF3004D2BC
:10030800904502D9ACF102002A44A2EB08029BB244
:10031800B2FBFEFC0EFB1C220CFB07F743EA024370
:100328009F4246D9EB180CF1FF3204D29F4202D902
:10033800ACF102022B44DB1B42EA004202E0AEEBC6
:10034800020301224FEA154EAFB2200CB3FBFEFCAC
:100358000EFB1C330CFB07F840EA034398452AD9E7
:10036800EB180CF1FF3004D2984502D9ACF1020029
:100378002B44A3EB0803A4B2B3FBFEFC0EFB1C3317
:100388000CFB07F744EA0344A74216D92C190CF1D1
:10039800FF3304D2A74202D9ACF102032C44E41B78
:1003A80043EA00400F46114678E71F2188E7604678
:1003B800ABE76246BFE76046DBE76346EFE77345B6
:1003C80006D916B9002108466DE7C6E9000EF9E717
:1003D800B3FA83F787B9734501D3824207D8841AE1
:1003E8006EEB030301209C461EB900215BE73846EB
:1003F800FAE7C6E9004CF8E7C7F1200CBB4000FA61
:1004080007F422FA0CF520FA0CF1BA401D432EFA33
:100418000CF30EFA07FE4FEA154941EA0E011FFADE
:1004280085FEB3FBF9F809FB18300B0C08FB0EFA34
:1004380043EA00439A4540D9EB1808F1FF3004D24B
:100448009A4502D9A8F102002B44A3EB0A0389B20A
:10045800B3FBF9F809FB183308FB0EFE41EA034128
:100468008E452CD9691808F1FF3304D28E4502D97C
:10047800A8F10203294443EA0040A1EB0E01A0FBC6
:1004880002984145CE46434602D306D14C4504D294
:100498000138B9EB020E68EB0503002EA5D0B4EBCA
:1004A8000E0261EB030101FA0CFC22FA07F3F94092
:1004B8004CEA0303C6E9003197E74046C5E74346DF
:1004C800D9E70000002110B5084612F067FB0121AA
:1004D8001F200C4A1CF040FD00F0BEF9044615F040
:1004E8007BFE48B11F200121074A1CF035FD4FF063
:1004F800FF3010BD10F0A8FC204600F06BF9002872
:10050800F8D1F6E794430208B143020810B504464F
:1005180086B00B460B4A052104A814F0E1FA9DF8B1
:100528001330102102939DF81230204601939DF854
:100538001130054A00939DF8103014F0D1FA0020CC
:1005480006B010BDDB430208E043020810B50446BC
:1005580088B015F02AFC01234FF470510794002449
:10056800094A0694CDE90223084BCDE9041316F095
:100578002DFA000240F00100039001A902A801949D
:1005880013F0CCFF08B010BD127100010906000677
:1005980070B5064688B00C46154615F006FC0123D2
:1005A8004FF47051079600260D4A0696CDE90223AE
:1005B8000C4BCDE9041316F009FA000240F00100D3
:1005C80021462A46039001AB02A8019620F002FCBE
:1005D800044602A820F081FE204608B070BD00BF86
:1005E800127100010906000610B50A4B86B01446C0
:1005F80002930023059103901A46CDE90033214464
:1006080005A81FF02FFF002814BFAC20002006B05B
:1006180010BD00BFB75D01082DE9F047CEB0569D6B
:100628001C462B68074689469046002B61D06B68AC
:10063800B3F5007F5DD303A81CF039FE6368B3B13E
:1006480026682D4B3278002A08BF1E460021A022BA
:1006580026A80DF11C0A21F045FB49465046FFF734
:1006680055FF30B1AC2420464EB0BDE8F087224E8D
:10067800ECE70DF12C0941464846FFF747FF0446D1
:100688000028EFD1A0213346CDE900A91B4A26A8AE
:1006980014F026FA26A903A81CF022FE0028E1D1AE
:1006A800092103A81CF018FE3868FFF74FFF0FA8B0
:1006B8001FF029FD39680FA813F0FEF80028D1D1E2
:1006C8000FA903A81CF00AFED5E9001203A812F02E
:1006D80021FC0028C6D12868FFF78EFD6B68013021
:1006E800984201D905F06AFA686003A81CF0E3FD96
:1006F800B9E72F24B7E700BFF6430208044402080D
:1007080038B504460D46204615F08DFB6B7C002855
:1007180057D0052B59D0032B19D0042B3AD0012BD5
:1007280001D003203AE002222146284615F039FC80
:10073800002833D12946284615F077FC70BB95F878
:100748002430002B0CBF032305236B74DBE795F8DB
:1007580025209AB1214628462A7F15F022FCE8B9BF
:100768002946284615F0A2FCC0B995F8253073B97A
:100778000223AA691A442A620423E6E72B7D013B77
:10078800DBB2022B9CBF124AD25CAA61F0E72B7F36
:100798000233EEE795F824300BB1232038BDAA695F
:1007A8000AB91820FAE72146284615F0FAFB00286E
:1007B800F4D12946284615F0A1FC0028EED10523DE
:1007C800C3E7052B01D00D20E8E70020E6E700BFCE
:1007D8004464020800232DE9F04190F8816086B056
:1007E800044601936EB3A0F88030012001F0EEFBBF
:1007F800019B01901D44384601ABC5F1800208EB0E
:10080800050115F0E3FA0028F2D0A5B1104B04AAAF
:100818000493802302A92046CDE90285059315F0AB
:10082800F1FCDDE9041280F0010084F8810038460B
:1008380015F0E6FA08B994F88060304606B0BDE8CD
:10084800F0813546DFF80C8000F17807D3E700BF68
:1008580064320020E432002000487047E00A00209B
:10086800024A0349034816F016BF00BF8020002043
:10087800DF610108E00A002010B5836804460BB95F
:100888002F2010BD1A491A6BD1E900138B4298BF6B
:10089800002302F1040288BF5B1A9A4204D00023A5
:1008A8001348194615F0A8FDA36812491A6BD1E937
:1008B80000138B4298BF002302F1080288BF5B1A1D
:1008C8009A4204D000230B48194615F095FDD4E947
:1008D8000312A06800F068FE0028D2D1237E2BB155
:1008E8006169A06816F055F80028CAD10020C8E749
:1008F80050200020202000202DE9F341054608461D
:100908000C4615F09DFA074698B1254815F08BFA64
:10091800234E48B187423A46314628BF0246204610
:1009280015F023FB002837D11E4F204615F088FA12
:1009380030B928462B68DB6802B0BDE8F04118479B
:10094800D7F80421002AF4D03368013AC6E9023303
:10095800D7F80031C7F8042157F82310013303F002
:100968003F03C7F800312B6801912846DB690C4A20
:1009780001A9984780B9204615F062FA80460848D0
:1009880015F051FA80454246054928BF02462046DF
:1009980015F0EBFA0028C8D002B0BDE8F08100BF1E
:1009A80020200020181F002070B504460D46284658
:1009B80015F039FA28B923682046BDE870409B68CD
:1009C800184728460849FFF79BFE0D28EFD048B97D
:1009D800236820469B690449984718B9024815F0CE
:1009E80022FDE4E770BD00BF5020002038B591F823
:1009F800273005460C462BB10A7D1A48498A15F05E
:100A08003AFD38BB638AB3F5827F0AD8B3F5807F95
:100A18000BD9A3F58173022B09D8DFE803F00C0A80
:100A28000F0040F23B12934211D0A62012E0E36A75
:100A3800EB6000200EE0E36A2B61FAE794F82430BB
:100A480083F001032B7603B1E36A6B61F1E7AA68CF
:100A58000AB92F2038BDA38D002B08BF4FF40073AF
:100A68001363E6E7181F002008B503480A7D498A82
:100A780015F001FD08BD00BF181F002070B585687E
:100A88000C460DB92F2070BD91F8263003B9743586
:100A980094F8273033B1227D618A184815F0EBFCB1
:100AA8000028F0D1237D032B26D8DFE803F01602B7
:100AB8000E112B689B6894F82420618A5AB904F1B6
:100AC8002C022846BDE8704018472B681B69F2E7DE
:100AD8002B689B69EFE70022F3E72B68618ADE6ADF
:100AE80094F8243033B9E26A2846B446A369BDE8CD
:100AF800704060470022F7E72620C4E7181F00204F
:100B080010B50A46498AB1F5A27F15D008D840F237
:100B1800051399421AD0B1F5A17F0DD0A6200AE09D
:100B280040F2A1139942F9D1806838B10368DC6AB0
:100B38009369D26AA04710BD806808B92F20FAE7E8
:100B480003682C321B69BDE810401847127D024823
:100B580015F091FCEFE700BF181F00200020F0B54A
:100B68001646526895B0052A0D461F468DF80500B1
:100B78008DF806008DF8070040F2B3800123CDE917
:100B88000200CDE9040031688DF81800023A02A885
:100B980015F032FC0DF1050102A815F020FA044603
:100BA800002840F09A800DF1060102A815F017FA06
:100BB8000446002840F091800DF1070102A815F0C5
:100BC8000EFA0446002840F088807368802B00F2F3
:100BD80083807B687F2B40F2828039680346CDE9A9
:100BE8000700CDE909008DF82C007622083107A806
:100BF80015F002FC9DF80630013B042B6AD8DFE8AB
:100C080003F0032F5D63560001238DF83430514BF8
:100C18000E950C930023CDE90F3311938DF84830CE
:100C2800DDB12C6B0023221D19464B4815F0E4FB5F
:100C3800494815F0F8FB002304F108021946474813
:100C480015F0DAFB0022464BC3F8042107AA02A9D3
:100C58000CA815F035FC044608E04FF40074E1E7F1
:100C68003D4815F0BBFB3D4815F0B8FB0998079BBC
:100C7800984294BF0020C01AC5B200260822334605
:100C8800396807A8CDE90766CDE909668DF82C60B3
:100C980015F0B2FB314620220CA821F023F80221DE
:100CA80007A815F0DAF8F8B1002015B0F0BD012357
:100CB8008DF834302B4B0E950C93C7E703230E9514
:100CC8008DF83430284BF7E704230E958DF834302F
:100CD800264BF1E72A24C9E7C2240025CDE71924C9
:100CE800FBE719240546C8E79DF8061007A841F058
:100CF800800115F0B2F80028D6D19DF8071007A892
:100D080015F0ABF80028CFD1214607A815F0CAF88E
:100D18000028C9D1294607A815F09FF80028C3D193
:100D28007A6805F10A03934201D904F047FF0835B0
:100D3800294638687B600CAA11F04CFF0028B3D113
:100D48009DF80600BDF830203B68023818BF012026
:100D58005A53AAE7243402085020002020200020FB
:100D6800181F00204C340208743402089C3402080E
:100D7800002208B51146064815F064FB0022054814
:100D8800114615F05FFB0022034BC3E9402208BD62
:100D98005020002020200020181F002002490A6847
:100DA80002604A68426070474C31020810B440F251
:100DB8006314A142034612D0B1F5B27F07D2B1F550
:100DC800827F20D0B1F5B17F18D0A62009E040F28B
:100DD80097108142F9D102B11268DA6211E01AB9AA
:100DE8002F205DF8044B704711680A4BA1F57A7201
:100DF8009A42F5D85DF8044B00F014BD02B11268B0
:100E08009A620020EDE7002AEAD011685DF8044BE9
:100E180015F0BFBDB8820100F0B5B1F5AA7F97B053
:100E2800154606461A461C9C3CD8B1F5A07F09D841
:100E380040F20513994266D040F2111399425BD0F3
:100E4800A6205EE06FF4A07319441329F8D801A313
:100E580053F821F0490F0008490E0008630F0008F5
:100E6800490E0008690F00086F0F0008750F000889
:100E78007B0F0008490E0008490E0008490E0008BB
:100E8800490E0008490E0008490E0008490E0008DE
:100E9800490E0008490E0008810F0008870F000856
:100EA800910F0008B1F5C17F00F08B800ED840F299
:100EB800651399427BD0B1F5B37F7DD0B1F5B27F90
:100EC800BED12346294600F0C1FC19E040F2931335
:100ED800994200F0848040F295139942B0D1CDE94F
:100EE8000D5205B9EAB933683046D3F884300DA9F4
:100EF800984730B90E9B21E02346294600F046FD6D
:100F080048B317B0F0BD00F1340738460392FFF735
:100F180073F9039A0130CDE906050597089215B9CA
:100F28000AB104F04BFE07AB00933046728B318B4D
:100F380005AB15F01FFD0028E3D1089B23600AE0EC
:100F480003681B6B2946304698470028D9D12846A4
:100F5800FFF752F920600020D3E703689B6BF1E7A5
:100F680003681B6CEEE703685B6CEBE703689B6C3C
:100F7800E8E70368DB6CE5E703685B6DE2E72346B7
:100F8800294600F015FCBBE721230DAF0C9303683D
:100F98000B9703921B6E0BA99847039A0028B0D1B0
:100FA800134620212A4638461CF0FDF8D2E723468E
:100FB800294600F05BFCA3E72346294600F0F6FC2F
:100FC8009EE7CDE909530DB9002BAAD13368304605
:100FD800DB6F09A99847002893D10A9BAEE7CDE9B2
:100FE8000B520DB9002A9CD133683046D3F88030B3
:100FF8000BA99847002884D10C9B9FE770B5B1F5E1
:10100800B27F054616461C4696B000F00E8117D8EA
:1010180040F21113994263D06FF4A07319448BB254
:10102800132B26D8132924D8DFE801F061236E2377
:101038007B8895A2232323232323232323AFCADBDF
:1010480040F29313994200F03881B1F5CA7F1DD25E
:1010580040F28113994200F01A81B1F5C17F0AD29A
:1010680040F26513994200F0EB80B1F5B37F00F0D0
:10107800EE80A6209BE0FCD1CDE90524002A40F0B3
:101088001781002C00F0148104F098FD40F2A113A0
:10109800994200F02881B1F5D17F11D240F2951321
:1010A800994200F01581B1F5CB7FE2D1CDE90D244D
:1010B8000AB9002CE8D128460DA915F050FC76E0B5
:1010C80040F2B1139942D4D1002A00F01281002CC9
:1010D80000F00F810DA9CDE90D2415F067FC66E03D
:1010E8002246314616B0BDE8704000F047BC02B158
:1010F8003CB900228649284616B0BDE8704000F089
:1011080065BA22463146F6E702B13CB90022804969
:10111800284616B0BDE8704000F086BA224631462F
:10112800F6E702B13CB900227949284616B0BDE875
:10113800704000F0A7BA22463146F6E702B13CB942
:1011480000227349284616B0BDE8704000F0B2BAD4
:1011580022463146F6E702B13CB900226C492846DE
:1011680016B0BDE8704000F0BDBA22463146F6E739
:1011780002B13CB900226649284616B0BDE8704065
:1011880000F0C8BA22463146F6E702B18CB92022EF
:1011980000210DA820F0A6FD20215E4AAB8B0DA8EA
:1011A80013F09EFC0DA90246284600F0E1FA16B09D
:1011B80070BD2246314616B0BDE8704000F0D8BA7E
:1011C80002B13CB908225449284616B0BDE870401F
:1011D80000F0E6BA102C01D92F20E8E72246314664
:1011E800F2E702B1C4B9102109A81BF0E3FF0028F7
:1011F800DDD102231021009321230DAA09A81BF099
:1012080091FF0028D3D10DA8FEF7F6FF0DA90246DD
:10121800284600F0D5FACAE7102CDDD8022321466B
:101228000093304621230DAAE9E7002AD4D0002BE9
:10123800D2D01A46314616B0BDE8704000F0FEBA6A
:101248002246314616B0BDE8704000F007BB02B137
:10125800B4B90023CDE90D33CDF83B30AB6A0DA806
:101268000293EB8B01936B6A00936A8B298B2B6A31
:1012780015F03CFA0B2228460DA900F08FFB96E7E3
:101288002246314616B0BDE8704000F087BB02B177
:1012980054B90023284609AACDE90D238DF8243036
:1012A8000DA915F047FB82E7CDE90D240DA9F8E754
:1012B800284605A900F0E2FA79E7CDE9072412B932
:1012C800002C7FF4E1AE284607A900F0E5FA6EE7A6
:1012D800CDE9092412B9002C7FF4D6AE284609A915
:1012E80000F0E8FA63E732B940223146343020F0A2
:1012F800F9FC00205BE73F2C3FF66EAF22463146F3
:10130800343020F0C9FC0023254485F83430F0E758
:1013180026640208644502083E4402082DE9F043A9
:101328008FB080460F4616460021112204A81D469C
:1013380020F0D8FC1122002109A820F0D3FC0023BA
:101348001122CDE90233404602AB04A900F030FA7D
:10135800044600285ED1029B0A2B52D19DF8143016
:101368002D2B30D04FF00008049B0A2203A909A8AE
:1013780009938DF8288013F0DDFB039A0AAB9A4293
:10138800388041D1BDF814300A2203A909A8ADF864
:1013980024308DF8268013F0CDFB3070039E0DF1BC
:1013A80026039E4230D1BDF816300A2203A909A8A7
:1013B800ADF824308DF8268013F0BCFB039B287011
:1013C800B34221D125E09DF817302D2BCAD108232F
:1013D800029306AB01930DF1150311210F4A0093F7
:1013E80009A804AB13F07CFBDDF8089009A94A466C
:1013F80004A820F051FC4A46404604A900F0D0F960
:1014080040B9029B072BADD8054804A913F036FB59
:101418002F2420460FB0BDE8F08300BF47440208E0
:10142800544402080023F0B587B001930C46D1E973
:10143800001201AB00F0CCF940F20123984225D10B
:1014480002AD2A46144B03F110072E461868596856
:10145800083303C6BB423546F7D163680F2B02D861
:10146800192007B0F0BD2568134603CB696006A9AB
:101478008B4228601A4605F10805F5D1102301931F
:10148800019B6268934204D904F098FB0028E8D1D4
:10149800F6E700206360E4E75431020870B596B0BF
:1014A80004462E220D460AA8002120F01BFC00232A
:1014B8002E220193204601AB0AA900F0C7F940F299
:1014C8000123984229D118230193194B0AAC03F13F
:1014D8001806224618685968083303C2B3421446EE
:1014E800F7D12022002102A820F0FCFB019902AAD2
:1014F8000AA811F069FBA0F11003102B044613D8B9
:101508006B68984212D8024602A9286820F0C4FBEA
:101518006B689C4205D904F051FB0028E1D016B055
:1015280070BD00206C60FAE72F20F8E71920F6E775
:101538007344020870B54B680646602B0C46154686
:10154800A4B02CD98622002102A820F0CBFB0023CE
:1015580086220193304601AB02A900F087F940F2D8
:101568000123984212D184220E4902A8019220F048
:1015780093FB2268019902A811F026FB61282860D4
:101588000BD16368602B05D804F018FB0028F0D055
:1015980024B070BD60600020FAE72F20F8E719201A
:1015A800F6E700BF8C440208084608B5114601F06A
:1015B800F3FA08B19F2008BD1BF041FE0028FAD1BC
:1015C8000122014B1A70F6E76433002011B102487A
:1015D80011F02CBB2F2070470B67020807B519B90B
:1015E8002F2003B05DF804FB00230348019301ABEF
:1015F8001BF02FFEF5E700BF0B67020801481BF040
:101608003CBE00BF30650208002313B50C460548F0
:1016180001A901931BF01BFE08B9019B238002B0AE
:1016280010BD00BF3065020811B1024811F0FEBAC2
:101638002F2070470565020807B519B92F2003B098
:101648005DF804FB00230348019301AB1BF001FE86
:10165800F5E700BF0565020801481BF00EBE00BF94
:101668001B650208002313B50C46054801A9019320
:101678001BF0EDFD08B9019B238002B010BD00BF2F
:101688001B65020811B1024811F0D0BA2F2070472B
:10169800EE64020807B519B92F2003B05DF804FB02
:1016A80000230348019301AB1BF0D3FDF5E700BF0E
:1016B800EE64020811B1024811F0B8BA2F20704741
:1016C800D664020807B519B92F2003B05DF804FBEA
:1016D80000230348019301AB1BF0BBFDF5E700BFF6
:1016E800D664020811B1024811F0A0BA2F20704741
:1016F800C064020807B519B92F2003B05DF804FBD0
:1017080000230348019301AB1BF0A3FDF5E700BFDD
:10171800C064020811B1024811F088BA2F2070473E
:10172800AA64020807B519B92F2003B05DF804FBB5
:1017380000230348019301AB1BF08BFDF5E700BFC5
:10174800AA64020801481BF098BD00BFCD660208D4
:10175800002313B50C46054801A901931BF077FD3A
:1017680008B9019B238002B010BD00BFCD660208F6
:1017780011B1024811F05ABA2F2070478F6402083D
:1017880007B519B92F2003B05DF804FB00230348FF
:10179800019301AB1BF05DFDF5E700BF8F64020804
:1017A80011B1024811F042BA2F207047BD660208F5
:1017B80011B102481BF04DBD2F207047BD660208CD
:1017C80011B102481BF063BD2F2070474C66020818
:1017D80011B102481BF04FBD2F2070474C6602081C
:1017E80001481BF04ABD00BFA8660208002313B5D4
:1017F8000C460A4801A901931BF029FD60B9BDF800
:101808000430B3F5805F238006D305482F2240F2C9
:101818001B1111F0B5F92F2002B010BDA8660208FF
:101828001145020801481BF028BD00BF9166020857
:1018380001481BF00CBD00BF9166020811B10248B7
:1018480011F0F4B92F2070478566020811B10248DB
:101858001BF0FFBC2F2070478566020811B10248B3
:1018680011F0E4B92F2070477566020811B10248DB
:101878001BF0EFBC2F207047756602080248D1E9BB
:1018880000121BF004BD00BF5D660208014815F098
:1018980000B800BF5D6602080248D1E900121BF0DB
:1018A800F6BC00BFE1660208014814F0F2BF00BFB1
:1018B800E16602080248D1E900121BF0E8BC00BF4B
:1018C800F8660208014814F0E4BF00BFF866020891
:1018D800F0B597B005AE0F461546002118223046E0
:1018E80020F000FA314602201FF0F5F90446304690
:1018F8001FF0F3FC4CB1022301211F201C4A1BF0EE
:101908002BFBD824204617B0F0BD6B6815943F2BED
:101918002CD904AB02934023CDE900630220D7E918
:101928000023144904941FF092FB044658B103465F
:1019380001211F20104A1BF00FFBAC244021304628
:101948001BF044FCDEE7049F402FF6D16B68159727
:101958003F2B0BD93A463146286820F0AAF96B6824
:101968003F2B01D804F02AF96F60E7E71924E5E76F
:1019780031450208090600064B45020811B1024824
:1019880011F054B92F2070474764020811B102487A
:101998001BF05FBC2F2070474764020811B1024852
:1019A8001BF075BC2F2070477764020811B10248FC
:1019B8001BF061BC2F20704777640208034B18782E
:1019C80010B103481BF059BC704700BF64330020B6
:1019D8005F64020813B50A4B0C46187818B901233E
:1019E800237002B010BD0023064801A901931BF023
:1019F8002EFC0028F5D1019B003B18BF0123EFE71F
:101A0800643300205F640208012903BF034B0020F0
:101A18001B78A62008BF1370704700BF85330020CD
:101A2800022938B514461D460FD120220021084846
:101A380020F058F93CB1202D2A46214628BF202203
:101A4800034820F029F9002038BDA620FCE700BF94
:101A580065330020104608B56AB163B102290CD17C
:101A6800202B28BF20231A46029B05491A6020F024
:101A780013F9002008BD2F20FCE7A620FAE700BFD5
:101A880065330020012905D102B11278024B0020EC
:101A98001A707047A6207047853300202DE9F04161
:101AA80004460D4614F0DBFF804600284AD129463B
:101AB800204614F0A5FF0146204614F0E8FF04EB89
:101AC80080010E6996B90122E36882401343E360FE
:101AD80002220D612B462946204614F086FF032278
:101AE80029462046BDE8F04114F07FBF0222314666
:101AF800204614F06FFF032201460746204614F0E3
:101B080069FF86420AD045210F4815F0D9FB88F3B2
:101B18001188BFF36F8F0423184602DF3B46022269
:101B28002946204614F061FF032233462946204601
:101B380014F05BFF39462B46204614F056FF02226C
:101B48003146CEE7BDE8F081674502082DE9F0414E
:101B5800174603220E46044614F03CFF864205460B
:101B680007F104080AD10122E368BA4023EA020314
:101B7800E360002344F82830BDE8F08102223146B2
:101B8800204614F027FF032201460746204614F09A
:101B980021FF864206D102222946204614F01AFF68
:101BA80086420BD045210D4815F08AFB002383F3AC
:101BB8001188BFF36F8F0423184602DF2B4639467E
:101BC8002046032244F8285014F00FFF3B462946CC
:101BD8002046BDE8F041022214F007BF674502081D
:101BE80038B5012205460C4614F0F4FEC30713D499
:101BF8002146284614F02DFF0146284614F022FFFE
:101C0800844209D12146284614F01CFF0146284683
:101C180014F01FFF84420BD04521064815F050FBF5
:101C2800002383F31188BFF36F8F0423184602DF64
:101C380038BD00BF90450208F8B50E46002900F0EF
:101C4800848004680122204614F017FF01460546E7
:101C5800204614F0BFFE10EA02070BD13246452198
:101C68003A4815F02DFB87F31188BFF36F8F0423D3
:101C7800184602DF2946204614F0EBFE01462046AE
:101C880014F0E0FEA8420CD032464521304815F049
:101C980017FB002383F31188BFF36F8F04231846C3
:101CA80002DF2946204614F0CDFE0146204614F0F6
:101CB800D0FEA8420CD032464521264815F000FB3C
:101CC800002383F31188BFF36F8F0423184602DFC4
:101CD80000222946204614F099FE294614F0B9FE40
:101CE800012201460646204614F074FEC2070CD4B1
:101CF80031462046FFF774FF3146204614F016FFA0
:101D080032462946204614F0CCFE2946204614F0D7
:101D180099FE012201460646204614F05BFEC307E1
:101D28000DD431462046FFF75BFF3146204614F0BC
:101D3800FDFE2A463146204614F0B3FE35462946B4
:101D48002046BDE8F840FFF7A9BEF8BD3D460208A9
:101D5800E3450208114602082DE9F0474B420668A0
:101D680003EA010931EA03031446B5681AD0B5F548
:101D7800004F2CBF082304234B4528BF4B464F4632
:101D8800A1EB090909F1FF3A1AEA090F18D03B49F2
:101D98003B484FF4FB7214F078FF4FF4FB7137485F
:101DA80014F06AFFB5F5004F34BF042308239942A5
:101DB80004D8BDE8F047114614F00CBF0027E1E74E
:101DC8001CB900252846BDE8F087B5F5004F34BF9B
:101DD80004200820A9EB0303E10804F0070201EB43
:101DE800D301073203F007031344034401EBD30183
:101DF800A94228BF2946304614F0AEFE8046002886
:101E0800DFD0B36807EBC005B3F5004F34BF042338
:101E180008231D4435445544B5FBF9F509FB05F580
:101E2800ED1B2946304614F028FE2C44073424F0D4
:101E38000704A41B804507464FEAE40408D202467B
:101E48004146304614F04BFE41463046FFF726FE29
:101E58003946304614F0FDFDA04208D939463046CF
:101E6800224614F03CFE21463046FFF717FE0122B9
:101E78003946304614F0CAFDA4E700BF6746020899
:101E88008A460208B2F5802FF8B50CD2042A20D869
:101E9800394940F21132394814F0F7FE40F2113155
:101EA800354814F0E9FE0823D21ACC1D114424F059
:101EB800070421F00701091B17294FEAD1060AD8A0
:101EC8002D4940F21D322D4814F0DFFE40F21D313D
:101ED800E6E70423E8E70023046031462046A660CD
:101EE800E36014F0D4FD820002F11B05B6F5004F43
:101EF8004FEAD5050BD26B1CB34208D91E4940F2F4
:101F080033321E4814F0C1FE40F23331C8E70021D5
:101F1800043204F110001FF0E5FE2A462046002195
:101F280014F08CFD002320461A46194614F05DFD76
:101F3800771B19462046012214F068FD3A462946C7
:101F480014F07CFD2B4600222946204614F04DFD56
:101F58003146204614F072FD3B46314620460022A9
:101F680014F043FD31462046012214F04FFD294666
:101F7800BDE8F840FFF792BD674602088A460208A6
:101F880008B5024814F06BFE002008BDAA460208F6
:101F9800014B1B68184700BF640B002030B585B0A3
:101FA80004460D461022002168461FF09BFE0223BE
:101FB8008DF80230044B2A4621466846019312F0F8
:101FC800ADFE05B030BD00BF991F000808B5EFF39E
:101FD8001183302383F31288BFF36F8FEFF31083DD
:101FE80072B603F08DF9034814F039FE15F069FB59
:101FF800FCE700BFF746020810B5134C452113480B
:1020080015F05EF9E3689A0309D54521104815F0E3
:1020180057F94521D4F850220E4815F051F90A4CC9
:10202800E368DB0309D545210B4815F049F945213B
:10203800D4F84021094815F043F9BDE810400021C3
:1020480008460DF069B800BF008000442047020828
:102058003B470208524702086547020882470208C0
:102068004FF4804238B5134B134D9A664FF0FF3347
:1020780005F5005423666FF4003363660D230222CE
:10208800A3660E4BC3F8D020BFF34F8FBFF36F8FFB
:10209800002003F067F94FF440330022E360104654
:1020A8002B61114603F07AF9BDE83840002003F0AF
:1020B8004BB900BF009000400080004400ED00E0F4
:1020C80070B5C66804680D0C06FB0544806A14FAEE
:1020D80081F150B90B490C484FF4AC7214F0D5FD9E
:1020E8004FF4AC71074814F0C7FD8468074DAC4243
:1020F800F0D2074DAC42EDD32468A446BDE8704049
:10210800604700BF984702088A460208A0250208CF
:102118008825020870B550B90B490C484FF4BA72BB
:1021280014F0B3FD4FF4BA71074814F0A5FD8468A4
:10213800074DAC42F0D2074DAC42EDD36468A446DB
:10214800BDE87040604700BF984702088A46020809
:10215800A02502088825020837B504460821C06A68
:1021680014F0A3FE00234FF6FF72104DADF80430B3
:102178006368ADF800208DF80620E26819182B4036
:102188001344181A60606846ADF8021014F0E5FDB3
:102198006946204614F0A8FE2046211D14F08CFD47
:1021A80063682B40A36003B030BD00BF0000FFFF91
:1021B8002DE9F7430F4681460821C06A14F075FEE1
:1021C80080463C68124D241A3C6004EA0506B44275
:1021D8001CD3A0B210B903B0BDE8F08308236A4647
:1021E80021464846FFF76CFF0028F4D16946A0B2A3
:1021F80014F047FE38B1BDF80230BDF804202E4077
:1022080013441E443C60A4EB0804E0E70020E2E726
:102218000000FFFF2DE9F047044688B000F11407DD
:1022280038461AF0F3FCA06A50B99F494FF42A7255
:102238009E4814F02AFD4FF42A719B4814F01CFDA7
:1022480083689B4EB342F0D29A4DAB42EDD3DB6824
:102258009847E06248B94521974815F031F86FF082
:102268001505284608B0BDE8F087A06A40B98E4930
:1022780040F295228D4814F008FD40F29521DCE7E4
:102288008368B342F3D2AB42F1D3DB689847036863
:10229800013B1F2B02D945218848DEE7E268B2F5E9
:1022A800803F06D94FF480334521854815F008F85A
:1022B800D5E7A06A216805AA19F03EFB10B14521AF
:1022C8008048CAE7E5682DB1069BB5FBF3F203FB2E
:1022D800125515B145217C48BFE7238A012B02D846
:1022E80045217A48B9E7E36A009593F805804FF0ED
:1022F800FF334FF0FF3238460DF06EFA0821E06ADE
:1023080014F0D3FDA9460646238A1FFA85FA5345D9
:1023180044D8238A4B4500F0268153450BD10099B8
:10232800082342462046891B14F0D3FC18B9694695
:10233800204614F0C1FC69462046FFF739FF0546E0
:10234800002840F0CA8000994FEA11494FEA09492C
:102358006160C4F80890A36899420DD30823204609
:1023680001AAFFF7ADFEB8B901AB13F8012B9045F0
:1023780032D101300828F8D1636869466FF30F033A
:102388002046009314F098FC42462046E3680099E2
:1023980014F09FFC00283CDA05469EE0E1682B0417
:1023A800891B13FA81F1424608232046009114F054
:1023B80090FC78B16946204614F07EFC09F10109C9
:1023C80008234246204600991FFA89F914F081FC37
:1023D80000289ED0013597E7A08801A914F051FD87
:1023E800626810B9911B6160B5E7BDF808A0BDF837
:1023F8000610E06AC4F80890514414F056FD4844A9
:102408008242A060EED1BAF1000FEBD06FF01C054C
:1024180063E000F084804FF6FF79636806EB0308F9
:10242800E3681FFA88F29B1B9A42CDF8008023D3F9
:102438004921274814F044FF6168204614F074FCD1
:102448000146002848D16368224AE06813400344E3
:10245800A3EB4603636013402046A36014F0E5FD38
:10246800002899D1E368A288A3EB46039A4234D1A5
:10247800204614F056FD8FE708234146204603AA5C
:10248800FFF71EFE002887D103A91FFA88F014F071
:10249800F8FC38B1BDF80C304B4503D1BDF810300D
:1024A800002B63D0B044BBE7984702088A4602086D
:1024B800A025020888250208E34702080A480208FE
:1024C8002C4802085A48020877480208904802082F
:1024D800014902080000FFFF0D4638460DF084FA56
:1024E800002D7FF4BEAE0123228AA3744921E3683C
:1024F800274814F0E5FE6268492193B22548120C7A
:1025080014F0DEFEA268492193B22348120C14F09D
:10251800D7FEA6E6E26AA36812681344A360D4E96A
:1025280001318B4208D9424620465B1A14F0D1FB90
:102538000028FFF631AFEDD16168E36801EB460290
:102548009A428FD1154BA06801EA0302904289D0C4
:10255800204614F0E9FB00287FF41EAF62680F4B99
:102568001A40A2607EE76FF02C05B6E749210C48B7
:1025780014F0A6FE6368694620466FF30F030093C4
:1025880014F09AFB2046009914F0CEFB68E700BFD0
:10259800B8480208D4480208EB4802080000FFFFC8
:1025A8002D4902082DE9F04F1E46837C04468946D2
:1025B800904695B04BB94521694814F081FE6FF0FB
:1025C8000C05284615B0BDE8F08FC26A08211046F0
:1025D80014F06BFCB1B20190104614F066FCE3688D
:1025E800019A0746A3EB8203984200F2B6801EB117
:1025F800B8F1000F00F0B180D4F804A0CDF810A015
:10260800204605AA04A914F0C6FC05460028D8D11E
:10261800BDF814304B4507D0DDF810A0636853456A
:10262800EED1002E39D1CCE705A91FFA8AF014F0B3
:1026380028FC0028F0D0BDF8183066B39E422CD193
:10264800B3464FEA1A43BDF816A01B049A44E36A3E
:10265800CDF800801B685B4203F020030293029BC5
:1026680051465B4528BF5B4620460CAA0393FFF7FB
:1026780027FD00284DD1039B00981A460CA91FF08E
:1026880046FB50B9039B009ABBEB030B1A449A44D0
:102698000092E4D195E7002B93D0002F3CD1BA46A5
:1026A80004F1140B4FF0FF324FF0FF3358460DF092
:1026B80093F8238A9D424DD0D4E901320AEB0201F6
:1026C8008B422ED39BB263B3FF230021ADF81E20AB
:1026D8000CA818228DF82230ADF81C90ADF82060B7
:1026E8001FF000FB20460CA9CDE90E8614F0E7FB8D
:1026F800074648B907A814F030FB204607A914F08C
:10270800F3FB074600B9374658460DF06DF93D46CC
:1027180057E7C2DC054654E7019B1F441FFA87FAB6
:10272800BEE72046FFF718FD3DB9ADF82490CDF877
:102738002880ADF82C608DF82E50204609A914F099
:1027480074FC07460028DFD19DF82E300135002B98
:10275800AFD0D8E76FF01B07D6E76FF0150530E765
:10276800CA4702082DE9FF471E46837C04460F46E8
:102778009046BDF8309043B92748452114F0A0FD94
:102788006FF00C0004B0BDE8F0870821C06A14F0AF
:102798008CFBE368A3EB40039E423AD84FF0000A53
:1027A80065680195204602AA01A914F0F4FB0028E7
:1027B800E8D1BDF80830BB4206D102A9A8B214F08E
:1027C80060FB50441FFA80FA019B62689A4219D054
:1027D800D14515D2BDF80C30C3B1D14516D8BDF8D6
:1027E8000A10B3426FF30F0528BF3346424620460E
:1027F8002944FFF765FC0028C4D1BDF80C00C1E7E7
:102808001D46CFE7BDF80830BB42E3D06FF00100AA
:10281800B8E76FF01500B5E7CA470208014B036037
:10282800002070478C36020870B5104B0D461C68A6
:10283800B4B10F4B196800238B4202DB6FF0010023
:1028480070BD224612F8106B864202D0144601333E
:10285800F2E7E0681AF092F928B100202C60EFE75F
:102868006FF00C00ECE76FF01200E9E7680B00204E
:102878008C36020810B5436888B0029383680C460A
:10288800CDE9033200230A68C068CDE9062305496B
:1028980001AA059319F054F8079808B9059B236015
:1028A80008B010BDE37201082DE9F0410C4B054654
:1028B8001C680E4617467CB100F0EAF863682046AB
:1028C800D3F8108032463B462946C047044600F0FC
:1028D800E9F82046BDE8F0816FF00104F9E700BF90
:1028E8008420002000230360044B5A6812B9C3E90E
:1028F8000000704710605860704700BF88200020B3
:10290800014B1860704700BF842000201FB5CDE937
:102918000101039200F0BCF8074B1C6824B900F0D1
:10292800C1F8204604B010BD636820461B6801A9A1
:1029380098472468F2E700BF882000200022024B55
:10294800C3E90022704700BF882000200022024B04
:10295800C3E90022FFF7F2BF902000202DE9F743DA
:1029680007460C4609B100230B600026234DDFF80B
:102978009C904D4520D9224922489D2214F085F982
:102988009D211F4814F078F9D5F800803846414653
:1029980001AA14F0DCFC50B116B954B92E4606E071
:1029A80000224046316814F0D2FC0028F5D11835D1
:1029B800DFE7019B2360F1E7E6D3134B1D68C5B140
:1029C80055F8188C3846414601AA183D14F0BFFC4A
:1029D80050B116B954B92E4606E000224046316877
:1029E80014F0B5FC0028F5D1AD69E8E7019B236038
:1029F800F1E7304603B0BDE8F08300BFD8260208EF
:102A08005B4902088A46020890200020D82602085E
:102A18002DE9F341DDF8208004460D4616461F4691
:102A28000190B8F1000F07D0D8F80010C1B9D8F854
:102A380004E0BEF1000F1CD1204601A9FFF78EFF6C
:102A480098B13B46D0F80C80324629460198C047D9
:102A5800034650B1224645210C4814F031FC04E0ED
:102A680001AA14F074FC0028E1D1002002B0BDE8EE
:102A7800F081D8F808303246089329463B46F44698
:102A8800019802B0BDE8F041604700BF8D490208D7
:102A98004FF0FF324FF0FF3301480CF09DBE00BFEE
:102AA8008412002001480CF09FBF00BF8412002050
:102AB80038B5094DFFF7ECFF2B785BB9FFF746FFF8
:102AC80000F086F8044608B901232B70FFF7EAFFE7
:102AD800204638BD0024F9E7863300202DE9F0436D
:102AE80006460F46048F99B00134A4B200F10808D5
:102AF800651EADB2B5F5004F4AD04A23294605AA4E
:102B0800404614F0D6FB04F57F543F34A4B2814606
:102B18002146012340460DF10B0214F0CAFBB9F11E
:102B2800000F014610DC002810DC338FAB4209D1BE
:102B380032466B1E22F8383F4FF4004102234046CC
:102B4800FFF730FD2C46D3E7002808DC294640462D
:102B580014F0ABFB2146404614F0A7FBE5E7B9F1BA
:102B6800490FEFD809F160030DEB03090023094A67
:102B780009F84C3C05A8009703ABCDF80C80ADF8DC
:102B88001040FFF745FF0028DCD019B0BDE8F083FE
:102B98000020FAE7A3730108002810DB79B10B4B7A
:102BA8001A783AB15A6882420CD19B688B4209D193
:102BB800002070470122C3E901011A70F8E76FF09D
:102BC800150070476FF07700704700BFD8200020CD
:102BD80070B5012688B0694630460196FFF724FE95
:102BE800044600282DD1474D2B78002B69D0009B37
:102BF800D86850B94449454840F2B51214F045F830
:102C080040F2B511404814F037F88368404A9342BF
:102C1800F0D2404A9342EDD31B69002B4ED002A953
:102C28009847044668B9D5E9011302985B184FEA3A
:102C3800E17242F100029842039B934104D26FF083
:102C48001504204608B070BD009BD86805AA18F086
:102C580073FE04460028F4D16A68059B9A42EED1B7
:102C68004FF6FE73069A511E9942E8D8A968B1FB3F
:102C7800F2F302FB13110029E1D1B3F5803FDED254
:102C88009BB2012BDBD9244E72612A783383009BD7
:102C9800002A31D06A68DB681F48B260F36314F019
:102CA80014FC04460028CCD11C4D1B487560FFF766
:102CB80019FE19487560FFF723FEC2E76FF0570445
:102CC800BFE7304605AA01A914F029FB044610B154
:102CD80010F10C0FB5D1069AB2F5803F0ED2009BC9
:102CE8009868002319461144884203D30133082BFE
:102CF800F9D1C8E79BB2C6E75A68CCE76FF0200461
:102D08009FE700BFD8200020984702088A4602089B
:102D1800A02502088825020898200020B03602085D
:102D2800014B1860704700BF700B0020054B1860FE
:102D3800054B1B6F03F00703032B01D11FF0EEBCFB
:102D4800704700BF780B002000800050014B986C42
:102D5800D96C70470080E00F054B9A689107FCD446
:102D68005A689207F9D4DA69002AF6D1704700BF89
:102D780000C00A5010B5034C63681FF04DFD0223D4
:102D8800236110BD00C00A5008B5FFF7E5FF012216
:102D9800024B03F580514A601A6108BD00C00A5011
:102DA80010B5044B5C68012C03D1FFF7E3FF024B1D
:102DB8005C6010BD00C00A5000E00A5038B5074DED
:102DC800FFF7CAFF6B680446012B03D1FFF7E8FF42
:102DD800FFF7C2FF2378EB6038BD00BF00C00A5080
:102DE80010B51FF023FDB8B94A680B7812B11278F4
:102DF80043EAC2034A7843EA42038A6812B1127866
:102E080043EA8213CA7843EA82030A6912B1127844
:102E180043EA4223014A936410BD00BF00C00A5030
:102E280010B5002486B01422214601A88DF8004070
:102E38001EF058FF012313488DF8043020F06EF877
:102E4800BFF34F8F6846FFF7B9FF204601A98DF8F9
:102E58000440FFF7C5FF20460F211FF0F9FC0F21A2
:102E680020461FF0FBFCFFF78FFF1FF0D5FC064B39
:102E780053209C6101F0B8FD532014F0FBFB06B011
:102E880010BD00BFD836020800C00A5070B520F047
:102E9800BEF8144E05463478FCB9134B1C60134B2E
:102EA8001C60134B1C60FFF7BBFF01201FF0BCFF29
:102EB8001FF00CFD0F4B0246186020B9284620F081
:102EC800A1F8232070BD234640F2E7310A48FDF7F8
:102ED8006FF90A4B186001233370284620F092F8E6
:102EE8000020EFE789330020EC200020E8200020B4
:102EF800F4200020F020002018FCFFFFE420002030
:102F0800044BD3F88420D206FBD4D3F88400C0F352
:102F1800811070470040005038B5174B0546D3F86C
:102F280028310C4603F00703013B052B20D8DFE8C6
:102F380003F003131B0F0B171FF0CAFB052305B182
:102F4800286004B1236038BD1FF0C2FB0623F6E7F2
:102F58001FF008FC0723F2E71FF0FAFB0323EEE754
:102F68001FF0F6FB0423EAE71FF0EEFB0223E6E777
:102F780000231846E3E700BF00800050002337B560
:102F88000193164B0546D3F820320C4603F007038D
:102F9800042B21D8DFE803F0030B11161B000123D3
:102FA8000DB1019A2A6004B1236003B030BD00213D
:102FB80001A8FFF7B1FF1223F2E71FF0D3FB0723A5
:102FC8000190EDE71FF026FF0A230190E8E71FF0C4
:102FD8001DFC09230190E3E70023E1E7008000508E
:102FE80038B5104B0546D3F850320C4603F00303AE
:102FF800022B12D0032B08D0012B0AD0002318462D
:1030080005B1286004B1236038BD1FF006FF0C230A
:10301800F6E71FF0FFFE0A23F2E71FF0F7FB09238C
:10302800EEE700BF0080005038B5104B0546D3F8D6
:1030380080300C4603F00303022B0BD0032B0DD07A
:10304800012B0FD11FF04AFB0E2305B1286004B1F4
:10305800236038BD1FF086FB0723F6E71FF038FB17
:103068000623F2E700231846EFE700BF0080005070
:1030780038B5104B0546D3F800310C4603F003036E
:10308800022B0BD0032B0DD0012B0FD11FF060FBAF
:10309800032305B1286004B1236038BD1FF0B6FBD7
:1030A8000923F6E71FF05AFB0823F2E70123002063
:1030B800EFE700BF0080005038B5184B0546D3F83D
:1030C80020010C4600F00700062823D8DFE800F0AE
:1030D800040A0E16121A1E00012305B1286004B155
:1030E800236038BD1FF0F4FA0523F6E71FF030FB24
:1030F8000323F2E71FF036FB0723EEE71FF024FB5C
:103108000223EAE71FF0E4FA0623E6E71FF020FBB4
:103118000423E2E700231846DFE700BF00800050E1
:1031280038B5104B0546D3F840310C4603F003037D
:10313800022B0BD0032B0DD0012B0FD11FF06AFEF1
:103148000A2305B1286004B1236038BD1FF05EFB77
:103158000923F6E71FF061FE0C23F2E701230020A4
:10316800EFE700BF00800050002337B50193164BEE
:103178000546D3F860320C4603F00703013B032BE6
:103188001FD8DFE803F0020E1914002101A8FFF789
:1031980093FF10230DB1019A2A6004B1236003B094
:1031A80030BD002101A8FFF7BBFF1123F2E71FF094
:1031B800D9FA07230190EDE71FF0C6FA0223019020
:1031C800E8E70023E6E700BF00800050002337B59A
:1031D8000193164B0546D3F894320C4603F00703C7
:1031E800013B032B1FD8DFE803F0020E191400215E
:1031F80001A8FFF761FF10230DB1019A2A6004B1FD
:10320800236003B030BD002101A8FFF789FF112317
:10321800F2E71FF0A7FA07230190EDE71FF094FAF1
:1032280002230190E8E70023E6E700BF0080005092
:1032380038B5104B0546D3F860310C4603F003034C
:10324800022B0BD0032B0DD0012B0FD11FF0E2FD69
:103258000A2305B1286004B1236038BD1FF0D6FAEF
:103268000923F6E71FF0D9FD0C23F2E7012300201C
:10327800EFE700BF008000502E4B98424AD022D87A
:103288002D4B984240D014D82C4B984239D00AD8AC
:103298002B4B984232D02B4B98422FD02A4B984236
:1032A8002CD000207047294B9842FAD1284B186F30
:1032B8007047284B98422AD0274B9842F1D1244B8B
:1032C800D3F880007047254B98422BD009D8244B5F
:1032D800984223D0234B9842E3D11D4BD3F88C005E
:1032E8007047214B984221D003F5740303F510531E
:1032F8009842D6D1164BD3F898007047144B986D66
:103308007047134B586E7047114B586F7047104BEE
:10331800986F70470E4BD3F8840070470C4BD3F866
:10332800880070470A4BD3F890007047084BD3F8D1
:10333800940070470048E8010024F400C0CF6A00F8
:1033480080841E0000093D0040420F00405DC60019
:103358000080E00FC0EA210180BA8C01007E56038C
:1033680080D54302006CDC020090D00373B50D4693
:103378000021114B0191D3F88041064604F0030463
:10338800022C13D0032C0CD0012C13D101A8FFF769
:1033980093FE10240EB1019B336005B12C6002B07E
:1033A80070BD1FF0DFF907240190F3E71FF0CCF997
:1033B8000190EFE70C46EDE70080005038B5104B60
:1033C8000546D3F840320C4603F00303022B0BD01A
:1033D800032B0DD0012B0FD11FF01CFD0A2305B1C3
:1033E800286004B1236038BD1FF010FA0923F6E7FE
:1033F8001FF013FD0C23F2E701230020EFE700BFC5
:103408000080005038B5144B0546D3F800020C462E
:1034180000F0070004281BD8DFE800F003090D11AD
:103428001500012305B1286004B1236038BD1FF0E1
:10343800F1FC0A23F6E71FF0E9F90923F2E71FF088
:10344800ECFC0C23EEE71FF069F90F23800AE9E78B
:1034580000231846E6E700BF0080005038B5144B3B
:103468000546D3F808020C4600F0070004281BD8CC
:10347800DFE800F003090D111500012305B12860EC
:1034880004B1236038BD1FF0C5FC0A23F6E71FF01E
:10349800BDF90923F2E71FF0C0FC0C23EEE71FF08B
:1034A8003DF90F23800AE9E700231846E6E700BF45
:1034B80000800050B0F5207F1FD009D8B0F5007FFC
:1034C80015D003D868B1B0F5C07F0AD000200CE051
:1034D800B0F5607FFAD10B4BD3F88000C0F3011030
:1034E80003E0084B186FC0F3033001307047054BF9
:1034F800D3F89000C0F30460F7E7024B186FC0F3ED
:103508008020F2E70080005002464FF48030104BD4
:1035180010B598660020FFF7CDFF504341F6713291
:103528000C4BDC69DA635A6804F4803422F44012E4
:1035380059B90949884294BF002001200005024377
:103548005A600CB10022DA6310BD0449F2E700BFEB
:103558000090005000000350005A6202002D310113
:103568001FB50021B0F5807F0446CDE9001100F0B9
:10357800CF803BD8002800F0A480A0F12004602C64
:1035880044D8602C42D8DFE804F09CA49CA4B4B4CE
:10359800B4B4B4A4BE4AD46A4AA4A4A441414141E3
:1035A80041414141A4A4A47CDEA44141414141419F
:1035B800414141414141E3B49C9C9CD94A4A88E835
:1035C8005FB94141414141939C41B4B4B4B4B4B9E9
:1035D800B9A441A4A4414141414141414141414132
:1035E800414141414141414141419800B0F5E06FBD
:1035F80000F0A98038D8B0F5607F75D01AD8B0F53A
:10360800007F61D005D8B0F5C07F5AD0009804B0CB
:1036180010BDB0F5207F5CD0B0F5407FF6D11FF02B
:103628007DF802464FF42070FFF744FFB2FBF0F23A
:10363800520857E0B0F5B06F65D00AD8B0F5806F82
:1036480057D0B0F5A06FE1D100216846FFF796FC8E
:10365800DCE7B0F5C06F6CD0B0F5D06FD6D10021E3
:103668006846FFF7CFFED1E7B0F5186F70D00DD8D8
:10367800B0F5086F7FD0B0F5106F5FD0B0F5F06F80
:10368800C4D100216846FFF7D3FDBFE7B0F5286F26
:1036980063D007D8B0F5206FB8D100216846FFF78E
:1036A80063FDB3E7B0F5406F28D0B0F5486FADD1F2
:1036B80000216846FFF78AFDA8E71FF00FF8009081
:1036C800A4E71FF02BF8FAE71FF008F80246204697
:1036D80004E01FF023F802464FF42070FFF7EAFEDB
:1036E800B2FBF0F2009291E701A8FFF79DFC019A66
:1036F800EDE700216846FFF7DFFC87E70021684611
:10370800FFF70AFC82E700216846FFF72FFE7DE7F6
:103718004FF0E02302911B695B0705D51EF0FEFF01
:103728000290029B009371E703A902A8FFF7F8FC37
:10373800F7E700216846FFF7F3FC67E700216846D2
:10374800FFF78CFE62E700216846FFF737FE5DE76A
:1037580000216846FFF744FC58E70021084B039115
:10376800D3F8703203F00303012B02D103A8FFF74B
:10377800D7FC039BD6E76846FFF77AFC46E700BF0D
:103788000080005008B58020FFF7EAFE034B9842FE
:103798009EBF4FF48032024B1A6708BD005A62027E
:1037A80000A000501FB503460020B3F5807F0190AC
:1037B80000F0F48000F28E80662B7DD83C2B06D872
:1037C800243B092B5ED9019805B05DF804FB3D3B0D
:1037D800292BF8D801A252F823F000BFC7390008F6
:1037E800F5390008CF370008CF370008CF37000871
:1037F800CF370008CF370008CF370008CF37000889
:10380800CF370008CF370008CF370008CF37000878
:10381800CF370008CF370008FF3900089B39000868
:10382800CF370008CF370008CF37000843390008E2
:10383800CF370008CF3700085D390008093A00087B
:1038480005390008EB390008CF370008CF370008E2
:10385800CF370008CF370008CF3700087539000880
:10386800CF370008CF3700089B3900089B3900087C
:103878009B3900089B3900089B390008EB39000880
:10388800EB390008092B9ED801A252F823F000BF9B
:103898009B3900089B3900089B3900089B390008B0
:1038A8009B390008CF37000891390008CF37000846
:1038B80023390008D1390008802B84D1594B1B6F5C
:1038C80003F00703013B032B3FF67DAFDFE803F06E
:1038D8005A535658B3F5F06F71D023D8B3F5B06F7B
:1038E80052D010D8B3F5607F77D0FFF46CAFB3F542
:1038F800806F4ED0B3F5A06F7FF465AF002001A9AB
:10390800FFF73CFB5FE7B3F5D06F5DD0B3F5E06F31
:103918006CD0B3F5C06F7FF456AF002001A9FFF754
:10392800FFFB50E7B3F5186F65D00BD8B3F5086FF8
:103938004FD0B3F5106F7FF446AF002001A9FFF711
:103948008DFD40E7B3F5286F5AD008D8B3F5206F3E
:103958007FF439AF002001A9FFF706FC33E7B3F580
:10396800406F3ED0B3F5486F7FF42DAF002001A91A
:10397800FFF72CFC27E70523019324E70323FBE744
:103988000823F9E70223F7E7002001A9FFF7EEFC77
:1039980019E7002001A9FFF78FFB14E74FF0E02398
:1039A80002901B695B0705D51EF0B8FE0D23039333
:1039B800039BE1E703A902A8FFF7B2FBF8E70020A1
:1039C80001A9FFF735FCFEE6002001A9FFF71AFD63
:1039D800F9E601A9FFF74CFBF5E601A9FFF724FB7F
:1039E800F1E6002001A9FFF797FAECE6002001A90B
:1039F800FFF7E4FCE7E6002001A9FFF7F1FAE2E6A9
:103A0800084BD3F8703203F00303012B04D0022BC8
:103A18000CBF15230023AFE7002103A8FFF780FBA5
:103A28001123A9E7008000504FF48032074B084962
:103A3800586E03F580535A664B6A23F001034B62B4
:103A4800C3035CBF034B5A66704700BF0080005039
:103A58000000085000A0005038B504468020FFF749
:103A6800A1FE032800F08A804FF48012544B4FF0D7
:103A7800A0615A6645F60E03524AC2F88030524B8E
:103A880099624FF4803103F580539962936DD9039D
:103A9800FCD4916D11F08041FBD1D4E900031B05E2
:103AA80043EA0063E07B0343207B43EA0043607BF7
:103AB80043EA0033A07B43EA801313619069D4E999
:103AC80004531B0643EA856300F000400343A07ECD
:103AD8000343207E43EA0043607E43EA0023936168
:103AE800136AE06923F00F030343003818BF01206D
:103AF800E57E43EA850343EAC0031362E369334D75
:103B0800002B3CD194F82430916A94F82000DB0013
:103B1800294043EA40130B4394F8211043EA011368
:103B280043F4803393622A49264A936D31EA0303AA
:103B3800FBD14FF08071244881621369A56823F492
:103B4800700343EA055313614FF00043836194F80F
:103B580022300BB91F4B996294F823303BB94FF4CC
:103B680080321C4B9A62174A936D5B00FCD494F820
:103B780025301BB1134B184AC3F8802038BD022BDF
:103B880008D11161154891614FF408524FF47F41F3
:103B980013F0D0FC0B4994F822308A6A94F820007C
:103BA8001B062A4043EA4013134394F8242043EAAF
:103BB800C20394F8232043EA02438B62D7E700BF8D
:103BC800009000500040005A0050005AC7FFFEFE07
:103BD800030001000060005AF1A7FFFF3440005ABB
:103BE800014B93F9000070475D1100204FF400016C
:103BF8001B4A437810B551664FF4D151022402F59F
:103C0800B832516217494F2B4C604FF0010428BF5E
:103C18004F2301F580514C601169C903FCD4017828
:103C280043EA01235361D0E901131B0143EA01234D
:103C3800417B0B43017B43EA41039360C37B817B58
:103C48001B0143EA4113417C0B43017C43EA4103D6
:103C58005360837C13B16FF4D153536210BD00BF1E
:103C68000090005000100250014B1880704700BFB0
:103C78005A110020014B1880704700BF58110020CE
:103C88004FF4800208B5184B5A660223174A53604E
:103C9800936813F48033FBD1012822D11EF058FD1C
:103CA800134B984215D003F5122303F5F863984295
:103CB80013D0104B00EB8002400AB3FBF0F3520A1A
:103CC8000A49CA620B6301234B620022074B5A6000
:103CD80008BD45F67A13084AF2E745F61A03074A7B
:103CE800EEE75362F1E700BF009000500040025039
:103CF80000F0490264666666D8B80500BBCF0500C7
:103D0800B0F5207F10B50C4657D008D8B0F5007F25
:103D180048D003D830B3B0F5C07F23D010BDB0F57C
:103D2800607FFBD12949013CD1F8FC2012F0807258
:103D38001EBFD1F8FC3023F08073C1F8FC30244951
:103D4800D1F8803023F0300343EA0414C1F88040EE
:103D5800002AE3D01D4AD2F8FC3043F08073C2F841
:103D6800FC30DBE713F0F5FB13F001FC4FF4803176
:103D7800184B174A1967136F013C23F4704343EA41
:103D8800043414671EF0CAFC0446FFF7B9F8C0F102
:103D98000201204613F0E5FB00F036F8BDE81040BC
:103DA800FFF7F0BC0A4A4C1ED2F8903023F0F853C3
:103DB80043EA0464C2F89040B0E7054A4C1E136F0A
:103DC80023F4806343EA84231367A7E700ED00E048
:103DD800008000500090005008B50121022000F03A
:103DE80019FB4FF42070FFF765FB054B187013F0B3
:103DF800B0FB13F0BCFB4FF48032024B1A6708BDCE
:103E08008A3300200090005008B54FF4C070FFF7C7
:103E1800A7FBBDE808400449884294BF012102215C
:103E28004FF42070FFF76CBF80F0FA0238B50446F3
:103E38001EF074FC0546FFF763F8C0F1020128463E
:103E480013F08FFB0121002000F024FB2CB1FFF7B9
:103E5800DBFFBDE83840FFF795BC034B4FF42070FB
:103E68001978FFF74DFFF4E78A3300204FF4C0229A
:103E780001212DE9F0410546664B5A66664A03F56D
:103E880098335E6851605C6814F00204FBD1FFF758
:103E980037F801282F6803D1604B9F4200F2B780A2
:103EA8005F4A002311461068B84202D85068B842E9
:103EB80005D20133192B02F11002F4D1002301EBD2
:103EC8000313D3E9028028B1FFF7D6F900F07F0089
:103ED80048EA00088020FFF765FC052857D113F051
:103EE80038FB13F044FB4FF480324A4B4FF4C07058
:103EF8001A67FFF7DFFA0128044644D102214FF47C
:103F0800C070FFF7FDFE0127464BDA6812F0060F76
:103F1800FBD19968C3F808809A6882EA080212F40B
:103F2800F81F48D1AA88EB8843EA02433E4AD36087
:103F3800AB68032B2DD1A2F5A032D2F8003123F0C3
:103F4800030343F00103C2F800312B7D6A7D9B0017
:103F580043EA82132A69002613432A7B43EA420371
:103F6800314A93602868FEF7DBFE07222A4B1A6164
:103F78000122A3F580535A60A3F580531D6915F0FB
:103F88000705FBD01DE0022801D10421B7E700276F
:103F9800BAE7092B07D1254AD2F8003123F00303E9
:103FA80043F00203CFE7082BCFD1204AD2F80031E3
:103FB80043F00303C7E716F0010599604FF00106C7
:103FC800D3D18020FFF7EEFB052817D127B1214672
:103FD8004FF4C070FFF794FE1EF0A0FB04461EF0DD
:103FE80077FB1EF075FBFEF78BFFC0F10201204640
:103FF80013F0B7FAFFF708FFFFF7C4FB86F00100DC
:10400800012D14BF002000F00100BDE8F08120461A
:10401800FBE700BF0090005000E00150005A620228
:10402800E43602080000015000C001500080005032
:10403800364B98424FD01CD8354B984257D00ED8A3
:10404800344B98424FD008D8334B98422CD0334B3E
:10405800984229D0324B984226D0002327E0314B92
:10406800984234D0304B9842F7D1304BD3F8BC301B
:104078001DE02F4B984232D00FD8A3F53703A3F594
:10408800D853984237D003F5B70303F558639842DD
:10409800E3D1264BD3F8C83009E0264B9842DCD14F
:1040A800224BD3F8D03002E0204BD3F8A0304FF4A5
:1040B8000021214A23F040735166194A90421ED0CC
:1040C800154A90421ED04FF0B44293607047174B88
:1040D800D3F8B830EBE7154BD3F8C030E7E7134B0C
:1040E800D3F8CC30E3E7114BD3F8A430DFE70F4B1C
:1040F800D3F8B030DBE70D4BD3F8C430D7E743F043
:104108000073E0E743F08073DDE700BFC0EA2101F8
:1041180080969800404B4C0080841E0000093D00AA
:1041280040420F00405DC6000024F4000080E00F0C
:104138000048E801005A62020090005030B58BB088
:104148006C46984D98481EF0E9FE0FCD0FC42B68B9
:10415800964A2360FF238DF80130D2F84C3113F4CE
:10416800802340F01281D2F850218DF801309DF85B
:1041780001306C46FF2B08BF3F2368468C4D8DF8F5
:104188000130FFF733FD3220FFF76EFD0FCD0FC46E
:104198000FCD0FC495E8030084E80300834BD3F8E0
:1041A8004C21100300F1EB80D3F85041E4B28DF8B4
:1041B8001940FFF715FD044484F308047D488DF881
:1041C8001840FEF7B3FD6846FFF746FC3220FFF7BC
:1041D80051FD794A794B0321CDE900230023CDE92C
:1041E800021301238020CDE90433FFF7DBFA052809
:1041F800044606D1724A136F23F0070343F0010304
:10420800136770481EF08AFE6846FFF72FFE052CDC
:1042180006D16B4A136F23F0070343F002031367B9
:104228006948FFF705FF664C68481EF077FE0020D6
:10423800FFF726FDFFF7D0FD236F002023F00703CB
:1042480043F002032367FFF7F1FD236F604923F46E
:10425800744343F480632367D1F8FC2012F0807222
:104268001EBFD1F8FC3023F08073C1F8FC30002168
:10427800D4F8803023F0030343F00103C4F88030FE
:10428800544BC3F8801032B1514AD2F8FC3043F095
:104298008073C2F8FC304A4CD4F8203123F007036D
:1042A80043F00103C4F82031D4F8283123F0070380
:1042B80043F00103C4F82831D4F8803123F0030314
:1042C80043F00103C4F88031D4F8403123F00303EC
:1042D80043F00203C4F84031D4F8603123F00303FB
:1042E80043F00203C4F86031D4F8403223F00303EA
:1042F80043F00203C4F84032D4F8003223F0070335
:1043080043F00203C4F80032D4F8083223F007035C
:1043180043F00203C4F80832D4F8503223F0030300
:1043280043F00203C4F85032D4F8703223F0030388
:1043380043F00103C4F87032D4F8203223F00703A5
:1043480043F00103C4F82032FFF76EFB4FF0E02280
:104358000020136943F004031361D4F8603223F09A
:10436800070343F00103C4F86032D4F8943223F011
:10437800070343F00103C4F894320BB030BD164B69
:104388001C88FF2C88BF8C2411E74FF07E6393F8BC
:104398009C2093F99C30002BFFF6E9AE8DF80120A4
:1043A800E5E600BF10310208D83602080080E00FA9
:1043B80024310208C0175302802FA604FF0E7F077E
:1043C80000800050E0360208C0EA2101DC3602080D
:1043D80000ED00E0009000500001E00F07B5084B29
:1043E800186899889B7900906846ADF804108DF894
:1043F800063000F0BDF8002003B05DF804FB00BFF4
:1044080064310208024A536B0342FCD1704700BF73
:1044180000800950F8B504461C4BD3F88420D10617
:10442800FBD4D3F88430C3F381139C422CD01EF004
:1044380055F9012C064602D1214613F092F81EF0D8
:10444800DDFD4FF00072124B07465A66204613F006
:1044580099F84FF480630D4D621E93402B676B6E85
:104468009A0103D4D5F884309B060AD538461EF045
:10447800C0FD022C08D13046BDE8F840002113F0F9
:1044880070B8D5F88430EAE7F8BD00BF00400050A6
:104498000060005010B50C4608B91EF01FF9074B14
:1044A80021461B783BB1064B984204D80120BDE851
:1044B8001040FFF7AFBF0220F9E700BF8B330020A1
:1044C800005A62024FF0004238B5244B244C5A6619
:1044D8004AF6CD33656C014605F00105236430BB0F
:1044E8000120FFF78FFF6368DB0708D4002415B1AC
:1044F8001B4B1C4A1A6413F046F8204638BD1A4B69
:1045080058600846194B226BD20705D4984201D14E
:104518000724ECE70130F6E79842E7D1F8E70132E3
:10452800236B13F0080305D08A42F8D1F0E7002284
:104538000E49F5E78A42EBD020210B4A916201210E
:10454800A2F5805251600649084A886A800603D459
:104558009342DDD00133F8E79342DEE70090005044
:10456800008009503254FFFF00A0095040420F005C
:104578004FF0004238B5164B01465A664AF6CD331D
:10458800144C154A656C236443780B205B0043F098
:104598000103D363FFF736FF63688A7823F4F8735F
:1045A80043EA02136360CA784B7943EA0223A360A3
:1045B8000A798B7943EA022323610878FFF782FF9F
:1045C800EB0744BF054B236412F0DDFF012038BD23
:1045D8000090005000800950004000503254FFFF06
:1045E8000122437801789A4030235943014B5A50AD
:1045F800704700BF40E00350034BD3F82424D3F89E
:1046080020041040704700BF00C00350064BDA6E0C
:1046180002F03002202A06D0DA6E22F0300208B109
:1046280042F01002DA667047004000502DE9F04170
:104638001B4B0446D3F810334B1E0E2B0E46174661
:1046480021D929B34FF000082046F7B11EF066FBC8
:1046580030220F21207863785043072B88BF083B0E
:10466800104D95BF9B009B0004300C3008FA03F2F4
:104678009940284412F088FF86B9204657B1BDE812
:10468800F0411EF04BBB8846DEE7FFF7A9FFDFE7E6
:104698008846DDE7BDE8F041FFF7A2BFBDE8F0813D
:1046A80000C0035030C003502DE9F0412B4B174692
:1046B800D3F810234A1C06460C4605D1D3F8241417
:1046C800407812F07CFF0446002C2FDB072C4FF0BB
:1046D800030532782DDC4FEA840805FA08F52946E7
:1046E8001F4802FA08F212F04FFF294672781D4857
:1046F80002F0030202FA08F212F046FF012317F053
:10470800050F194A18BF194903FA04F30CBFC2F878
:104718001034C1F8103417F0060F18BF134AC2F846
:1047280014340123104AA340C2F820342046BDE8BF
:10473800F081A4F108084FEA880805FA08F5294627
:104748000B4802FA08F212F01FFF7278294602F0AD
:104758000302084802FA08F2CEE700BF00C003507F
:1047680000C4035008C4035000E0035000D00350B5
:1047780004C403500CC4035038B505460C4C014022
:10478800D4F8303423EA0003C4F83034D4F8303491
:104798001943C4F83014D4F82C340343C4F82C3427
:1047A800012004F50054FFF731FFC4F8205438BD48
:1047B80000C0035070B5124B0646D3F8103312F000
:1047C80011FF0446481C154616D0621C0FD08C42B7
:1047D8000FD10321304685F00102FFF727FF0120A2
:1047E80004F1100305FA03F19840FFF7C5FF2046CE
:1047F80070BD4FF0FF34FAE7631CEAD1F7E700BF5A
:1048080000C003504A680F4B30B59A4216D01024A6
:1048180092B292FAA2F2120C0B78CD789B0243EA7C
:1048280045334D7843EA45238D7843EA05232343EE
:10483800836004B142618B68036130BD0022144675
:10484800EAE700BFB71DC1044FF48032054B9A66F2
:1048580041F6713203F51C33DA63012203F5005384
:10486800DA60704700900050024B187880F0010021
:10487800704700BFFB73002070B51A4B1B68FFF729
:10488800F3FFD0B9EFF31184302383F31288BFF319
:104898006F8F154D2B7803F0FF0603BB134818F0F4
:1048A800B5F900280BDA0122FFF7DEFF18B984F307
:1048B8001188BFF36F8F104670BD0024E9E701220D
:1048C80031460B4818F0C3F90028ECDB5022094B9D
:1048D80083F851234FF400329A6001232B70002291
:1048E800E2E700BF7C0B00208C3300201021002061
:1048F800F820002000E100E000232DE9F0478EB009
:104908000E46174604460193002869D00AB10029CB
:1049180066D037F0030807F0030A28D04FF0E063A9
:104928004FF0000923600123C4F80490C4F80890EC
:104938000896099348F000530A9308AA02AB07CADD
:10494800C4F8209083E80700194620461EF0C8FBEB
:10495800414620461EF09BFB20461EF013FA0546F2
:1049680028B14246494630461DF0BCF903E0BAF189
:10497800000F04D1002528460EB0BDE8F0874FF09F
:10498800E0634FF00009236001ABC4F80490C4F859
:1049980008900B9301230C93124B0EAA0D9305ABB1
:1049A80012E90700C4F8209083E80700194620465A
:1049B8001EF096FB042120461EF069FB20461EF0DF
:1049C800E1F9054608B13A46CCE7019A4644EB00BE
:1049D800013522FA03F3AA4506F8013BF7D1C9E7E6
:1049E8002125C8E70400002040B2002808DB012286
:1049F8004309044900F01F008240603341F8232036
:104A0800704700BF00E100E080B505460E46174636
:104A180098460DF075F8034600F036FEDFF8409032
:104A2800044649F80030424639463046A847094B03
:104A38001B7853B90849094840F25D3212F025F94C
:104A480040F25D31044812F017F954F8090000F0FB
:104A58008BFD00BFFB730020C64902088A46020886
:104A68000800000008B50348034A0021121A12F092
:104A780003FE08BD1813002000740020074808B57D
:104A8800074A0849121A12F0F9FDBDE8084006481D
:104A9800064A0749121A12F0F1BD00BF800A002029
:104AA800181300200C690208A8080020800A0020BA
:104AB80034670208F0B507460C4687B0002949D08C
:104AC80012F0C8F8A36845210093D4E900232B48C5
:104AD80012F0F6FB12F0BEF8636945210093D4E9A1
:104AE8000323274812F0ECFB12F0B4F84521E269E1
:104AF800244812F0E5FB12F0ADF84521224812F0E7
:104B0800DFFB2646002512F0A5F8F36A2A4605932E
:104B1800EB1C0493B36A45210393AB1C0293736A9D
:104B28001A4801936B1C0093336A043512F0C8FBD2
:104B3800102D06F11006E6D112F08CF84521226EF0
:104B4800134812F0BDFB12F085F84521A2691148FF
:104B580012F0B6FB012F09D1EFF3058512F07AF8B0
:104B680045210D48A5F1100212F0AAFB214638464E
:104B780007B0BDE8F0400AF0CFBA00BFF14902081B
:104B8800254A0208594A02086D4A0208AC4A020836
:104B9800F44A0208084B02083B4B020830BFFFF7F3
:104BA800FDBF00BF2DE9F04105460B4EDFF8308010
:104BB800324606EB0807CC1B204608491DF06CF866
:104BC800A01942460021083C1DF08CF8C5F8844025
:104BD80007F10800BDE8F081000000000A31020872
:104BE8000800000038B5044612F034F8452143485F
:104BF80012F066FBBCB112F02DF84521404812F0C6
:104C08005FFB12F027F845213E4812F059FB12F0DD
:104C180021F845213C4812F053FB12F01BF84521BE
:104C28003A4812F04DFB3A4CD4F8E850D4F8E43046
:104C3800590606D512F00EF82A464521354812F0D5
:104C48003FFBD4F8E430DA070ED512F003F8324807
:104C5800452112F035FB26202D4AD2F8E43043F0E6
:104C6800FF03C2F8E43038BDD4F8E4309B0707D519
:104C780011F0F0FF2948452112F022FB2720EBE72D
:104C8800D4F8E4305D0707D511F0E4FF2448452146
:104C980012F016FB2820DFE7D4F8E430180707D510
:104CA80011F0D8FF1F48452112F00AFB2920D3E74D
:104CB800D4F8E430D90607D511F0CCFF1A484521BD
:104CC80012F0FEFA2A20C7E7D4F8E4309A0607D58E
:104CD80011F0C0FF1548452112F0F2FA2B20BBE76E
:104CE800D4F8E4301B0607D511F0B4FF104845216D
:104CF80012F0E6FA2C20AFE72520ADE7534B020867
:104D0800714B0208A24B0208D84B02080B4C020850
:104D180000ED00E0484C02085D4C0208784C02089F
:104D28009B4C0208BB4C0208DD4C0208F74C0208F9
:104D3800164D020810B52C4C11F08CFF45212B485C
:104D480012F0BEFAA36A99014CD511F083FF2848E6
:104D5800452112F0B5FA1E20A36ADA0106D511F032
:104D680079FF2448452112F0ABFA1F201E4CA36A94
:104D7800DB0206D511F06EFF1F48452112F0A0FA9C
:104D88000220A36A1C0306D511F064FF1B484521C5
:104D980012F096FA2120144CA36A590306D511F093
:104DA80059FF1748452112F08BFA2220A36A9A036B
:104DB80006D511F04FFF1348452112F081FA232040
:104DC800094CA36ADB0306D511F044FF0E484521C0
:104DD80012F076FA2420A36A6FEA03436FEA1343BA
:104DE800A36210BD1D20B7E700ED00E02E4D0208BC
:104DF8004B4D0208634D0208824D0208B14D02086E
:104E0800D44D0208FE4D02081D4E0208F8B5304C7C
:104E180006460D4611F01EFF45212E4812F050FAA5
:104E2800A36ADA0447D511F015FF2B48452112F083
:104E380047FA1720A36A1B0506D511F00BFF274870
:104E4800452112F03DFA1820214CA36A9F0515D57B
:104E580011F000FF2248452112F032FAA76BA36A2D
:104E680018040AD511F0F6FE3A4645211D4812F0FD
:104E780027FA16B14FF40043A3621920144CA36A11
:104E8800590506D511F0E6FE1748452112F018FA23
:104E98001A20A36ADA0510D511F0DCFE1348452163
:104EA80012F00EFA1B200A4A936A43F47F43936276
:104EB80000232B70F8BD1620BCE7A36A9B04F2D52B
:104EC80011F0C8FE0A48452112F0FAF91C20EAE759
:104ED80000ED00E04D4E0208684E02087E4E0208C2
:104EE800964E0208B44E0208CE4E0208EE4E020854
:104EF8000B4F0208F8B5384C06460D4611F0AAFECD
:104F08004521364812F0DCF9A36ADF0653D511F0C3
:104F1800A1FE3348452112F0D3F91120A36A1C07DA
:104F280006D511F097FE2F48452112F0C9F9122035
:104F3800294CA36A990714D511F08CFE45212A48FB
:104F480012F0BEF9676BA36A1A0609D511F082FE42
:104F58003A464521254812F0B3F90EB18023A362E1
:104F680013201D4CA36ADB0706D511F073FE2048F9
:104F7800452112F0A5F91420A36A9F0606D511F061
:104F880069FE1C48452112F09BF91520124B9A6ABC
:104F9800D60602D49A6A94070FD59B6AD9060CD50F
:104FA800154916484FF49B7211F06FFE4FF49B7130
:104FB800114811F061FE1020B0E7074B9A6A92067B
:104FC80042BF5A6A22F400525A629A6A42F0FF02B9
:104FD8009A6200232B70F8BD00ED00E03F4F0208F5
:104FE8005A4F02087E4E0208924F0208AF4F02083D
:104FF800CA4F02080B4F0208EE4F02088A46020801
:105008002DE9F043904B0546D3F8048000269DB067
:10501800C8F3080786F31188BFF36F8F02F07F4348
:10502800B3F17F4F38D1D40736D512F0400302F0E0
:10503800080904D0B9F1000F1FD101261EE050075E
:1050480044BF0D461E462C68804B58BF012623449A
:10505800012B98BF2C6C11F0FDFD224645217C48A0
:1050680012F02EF9B9F1000F04D0EFF3898501246D
:1050780005BB11E0EFF38885F9E70D4612F020042F
:1050880026D12A68714B1344012B12D911F0E2FD85
:105098004521704812F014F911F0DCFD45216E48E5
:1050A80012F00EF9002108461DB0BDE8F043FFF7E5
:1050B80001BD283500238DF80730FB1E092B00F2AF
:1050C800B080DFE803F007A1A58389AEAEAEAEA934
:1050D8000024CDE711F0BEFD4521604812F0F0F83C
:1050E8000023594F8DF80730FB6A9A0707D511F04E
:1050F800B1FD45215A4812F0E3F8002433E0FB6A79
:10510800002B04DA11F0A6FD45215648F3E7FB6AA7
:105118005B0070D511F09EFD4521534812F0D0F880
:105128007B69AA6943F480737B61BFF34F8FBFF338
:105138006F8F32F8023C7A6922F480727A61BFF389
:105148004F8FBFF36F8F03F47F42B2F55F4F24D1C7
:10515800DBB2022B21D111F07DFD45212A6843489D
:1051680012F0AEF82C689DF807309BB968222946E2
:1051780002A81CF091FD099B002E61D0C3F3080220
:1051880022B96FEA53236FEA43230993204602A901
:10519800FFF790FC1DB0BDE8F0832B4B9A6AD2B2A2
:1051A80032B101200DF10701FFF7A4FE0446DAE74A
:1051B8009A6A12F47F4F05D001200DF10701FFF71D
:1051C80025FEF3E79A6AB2F5803F02D3FFF7B2FDF6
:1051D800ECE7D3F8E4301BB12046FFF703FDE5E721
:1051E800234940F20332234811F04FFD40F20331C6
:1051F8001F4811F041FD1E4940F206321D4811F0CA
:1052080044FD40F20631F3E700200DF10701CBE73A
:1052180000200DF10701D2E711F01CFD45211648C9
:1052280069E711F017FD154918F4F87F144A154875
:1052380018BF0A46A7F11003452112F041F85CE7B0
:105248006FF30803A1E700BF00ED00E0A6ED05013C
:105258004E50020872500208AF500208F05002087F
:105268000C510208325102084551020869510208DE
:10527800EE4F02088A4602088A5102083550020891
:1052880020500208B3510208064B5A6942F0100236
:105298005A615A6942F480625A615A6922F00802D6
:1052A8005A61704700ED00E0EFF30880EFF30981E1
:1052B80001B57246FFF7A4FE01BD00BF0E4880F39A
:1052C8000888302080F311880C484FF0AA014FF469
:1052D800006212F0D1F909484FF40061401880F3D8
:1052E8000988EFF314800221084380F31488BFF380
:1052F8006F8F00F089F8000020A30020E0790020DB
:10530800BFF34F8F0549064BCA6802F4E0621343A6
:10531800CB60BFF34F8F00BFFDE700BF00ED00E09B
:105328000400FA051EF0040F0CBFEFF30880EFF33A
:105338000980816911F8021C0229FFD001B5724663
:1053480012F09EF901BD00BF40B2002807DB01231F
:105358004109034A00F01F00834042F8213070479A
:1053680000E100E05C2808B508D9094909484A2243
:1053780011F08BFC4A21064811F07EFC01224309FA
:10538800054900F01F008240603341F8232008BD22
:10539800CB5102088A46020800E100E008B5D307AD
:1053A80058BF03310F2908D90D490E48822211F040
:1053B8006CFC82210A4811F05FFC40B20028ACBFA7
:1053C80000F16040084B4FEA0111C9B2ABBF00F5CC
:1053D800614000F00F0080F80013195408BD00BFA9
:1053E800CB5102088A46020814ED00E0044B054A36
:1053F80023F07F039360BFF34F8FBFF36F8F704726
:105408000000000800ED00E008B5FCF729FEFFF7F2
:10541800EDFF104BD3F8882022F47002C3F88820DF
:10542800D3F8882042F4A002C3F888204FF0404205
:10543800C3F83422BFF34F8FBFF36F8F0023E1EE21
:10544800103AFFF70FFBFFF719FB00F0FFF809F020
:10545800CFFF00BF00ED00E08189203A41F0020152
:1054680081814FF47D41C0F8E0101360009B08492A
:105478005360019B21F001019360029B9161D3600D
:105488004FF08073D36100230266C0F898307047EC
:10549800114A0008104B9B6883421AD1EFF305802C
:1054A800B8B9EFF31181302282F31288BFF36F8FFE
:1054B8009A8922F002029A81EFF3148323F00403FD
:1054C80083F31488BFF36F8F81F31188BFF36F8F55
:1054D80070476FF015007047C81C002008B50446D7
:1054E8000E4615460023E1EE103AEFF3148323F03D
:1054F800040383F31488BFF36F8FBFF36F8F0D4BD3
:10550800D0F8842098600C4B1A600BF0BDFB636FD9
:1055180083F30B882C4686F309880020034B9847B1
:105528002046002100220023014C2047BD760108B7
:10553800114A0008C81C0020242100201022014B19
:105548001A61704700ED00E0054B1A6A9B689A42A1
:105558001FBF044A536843F080535360704700BF2D
:10556800C81C002000ED00E0084B9B6883420BD16B
:10557800EFF3058343B1064B5A6842F080525A60F4
:105588005A6A22F400425A620BF016BCC81C00206A
:1055980000ED00E001B517F0CFFBBDE80140284958
:1055A8008A6882F8E1E04FF040001044EFF3098C7C
:1055B80080E8F01F1EF0100F03D102F1A00080EC6C
:1055C800108A302080F31288BFF36F8F1D4F4FF081
:1055D80000660A6A8A603E60D2F884001A4C20602D
:1055E80092F9E1E0D2F898000023C2F8983080F3ED
:1055F80011881EF0100F03D00023E1EE103A03E0EB
:1056080002F1A00090EC108AEFF3148323F0040356
:1056180083F31488BFF36F8F02F1400090E8F01F06
:105628008CF3098802F1000004B512F03DF8BDE8DA
:10563800044001B50BF028FBBDE8014070470000AD
:10564800C81C002004ED00E02421002000233021A4
:105658000348C21801335D2B82F80013F9D1704753
:1056680000E100E008B5EFF30583064A103B02EBC2
:10567800C30152F8330049688847BDE80840FFF77E
:1056880063BF00BF84220208014800687047000019
:10569800242100201FB50121094B0A4A0A4800F0BD
:1056A8000BF90023064A0393084B0121019301A833
:1056B800D31A029300F01AF905B05DF804FB00BF95
:1056C8000000082000000020743802081813002089
:1056D8000A7A0B6810B562F304031C46CB685209BA
:1056E80023F01F0343EA4203044A43F00103C2F8CC
:1056F8009800C2F89C40C2F8A03010BD00ED00E050
:1057080010B50A4B0446D3F89030C3F30723013B86
:10571800984208D902464521054811F0D1FD6FF09D
:105728001504204610BDFFF7D3FFFAE700ED00E0AF
:10573800065202082DE9F04F8946144606464FF0F6
:1057480000084F4D85B0C84527DAD6F804A0BAF14D
:10575800000F44D0BAF11F0F18D91AF01F0F15D136
:10576800D6F800B01BF01F0F10D1584611F0B6FF45
:1057780007460AEB0B00013811F0B0FF874210D042
:105788006FF015073A4645213E4802E0424645215A
:105798003D4811F095FD6FF01504204605B0BDE8B1
:1057A800F08F17F1160FEDD0BC42EBDDC5F89870FD
:1057B800D5F89C10C5F89870D5F8A03021F01F01D5
:1057C80043F01F0BD6E900321A44994202F1FF3A1E
:1057D8001AD1D34507D13146F8B211F088FF08F144
:1057E80001080C36AFE73146C5F89870D5F89C30FB
:1057F800E0B263F30402C5F89C2011F078FF10F1C1
:10580800160FC8D0441CEAE7C5F89870D5F8A02050
:10581800013B23F01F0302F01F021343D345314617
:10582800E0B2C5F8A030E8D011F061FF10F1160F12
:10583800B1D0C5F89870D5F89C209DF808300BF1C8
:10584800FF3B62F304038DF80830D5F8A0309DF8CB
:1058580008205B0863F347128DF80820D6E9003268
:105868001344009323F01F035B44A3EB0A030130A6
:1058780023F01F036946C0B20393FFF741FFBEE759
:1058880000ED00E05C520208315202080522044B88
:10589800C3F89420BFF34F8FBFF36F8F704700BFDB
:1058A80000ED00E0BFF35F8F0022024BC3F89420A5
:1058B800704700BF00ED00E010B5094C2278FFF7F3
:1058C80039FF207016300AD10649074840F25F12A6
:1058D80011F0DBF940F25F11024811F0CDF910BD6B
:1058E8008D330020845202088A4602082DE9F74FBA
:1058F8002E4D8A4606464FF00008AB462C4FD04541
:1059080002DB03B0BDE8F08FD6F80490B9F1000FC0
:1059180047D031680846019111F0E0FE019904462C
:1059280009EB0100013811F0D9FE84424FF014024E
:10593800204B10D002FB08F36FF015024BF8032040
:105948001D491E4840F26F1211F09FF940F26F1185
:10595800194811F091F914F1160F2C60F0D019784C
:10596800A142EDDD02FB08B0C7F89840C7F898409F
:10597800D7F89C4000F10801007B64F3040008712B
:10598800D7F8A0000C79400860F347140C71D7F8D9
:105998009C1021F01F016960D7F8A01021F01F01A9
:1059A800296108F1010814350C36A8E728210020E0
:1059B80000ED00E08D330020845202088A46020878
:1059C8002DE9F0416249634DD1F890302C68C3F35A
:1059D80007239C4286B00AD95F494FF4EC725F48AE
:1059E80011F053F94FF4EC715B4811F045F90020C0
:1059F800FFF758FF5A4BC1F8C03084421BD1594DAC
:105A080001A82C70FCF70AFF002607464FF0610832
:105A1800554CB74216D100202B784D49D1F890202B
:105A2800C2F307229342C0F28D800020FFF72EFFB9
:105A380006B0BDE8F081696801EB0011FFF748FE88
:105A48000130DAE7019A300102EB0613D3F80CC0F3
:105A58000CEA0401B1F1807F53D00AD8B1F5001FD8
:105A680029D0B1F5800F3FD0B1F5801F14D0013691
:105A7800CFE7B1F1006F44D0B1F1805FF7D1596839
:105A88009B681258013B21F01F000344CDE9021224
:105A980023F01F0301220BE0596812589B68CDE9D7
:105AA80002122122013B21F01F00034423F01F03AF
:105AB8008DF8102032E0596812589B68CDE902121F
:105AC8004122013B21F01F00034423F01F031CF077
