:020000040800F2
:1000000020A3002081510008717301086D51000880
:100010006D5100086D5100086D5100086D510008C8
:10002000000000000000000000000000E95100088E
:100030006D51000800000000595400086D5100087F
:100040002D1F0008295500082955000829550008CA
:100050002955000829550008295500082955000888
:100060002955000829550008295500082955000878
:100070002955000829550008295500082955000868
:100080002955000829550008295500082955000858
:100090002955000829550008295500082955000848
:1000A0002955000829550008295500082955000838
:1000B0002955000829550008295500082955000828
:1000C0002955000829550008295500082955000818
:1000D0002955000829550008295500082955000808
:1000E00029550008295500082955000829550008F8
:1000F00029550008295500082955000829550008E8
:1001000029550008295500082955000829550008D7
:1001100029550008295500082955000829550008C7
:1001200029550008295500082955000829550008B7
:1001300029550008295500082955000829550008A7
:100140002955000829550008295500082955000897
:100150002955000829550008295500082955000887
:0C01600029550008295500082955000801
:1001700053B94AB9002908BF00281CBF4FF0FF310E
:100180004FF0FF3000F00CB8ADF1080C6DE904CE73
:1001900000F01AF8DDF804E0DDE9022304B070474E
:1001A000704700BF10F8012B11F8013B012A28BF4E
:1001B0009A42F7D0D01A7047034613F8012B002A51
:1001C000FBD1181A013870472DE9F0478C468E464E
:1001D000089E154604461946002B40F0D080724513
:1001E00047D9B2FA82F74FB1C7F120030EFA07FCE4
:1001F000BD40BC4020FA03F343EA0C0C4FEA154E15
:10020000A8B2230CBCFBFEF80EFB18CC08FB00F9CF
:1002100043EA0C43994528D9EB1808F1FF3204D280
:10022000994502D9A8F102022B44A3EB0903A4B219
:10023000B3FBFEFC0EFB1C330CFB00F044EA034452
:10024000A04214D92C190CF1FF3304D2A04202D9D8
:10025000ACF102032C44241A43EA02401EB1FC40D4
:10026000002334607360BDE8F0874246DDE76346F3
:10027000F1E7002A79D0B2FA82F3002B3FD0194679
:10028000C1F1200302FA01F500FA01F42EFA03F29B
:100290000EFA01FE20FA03F3AFB243EA0E034FEA6F
:1002A000154EB2FBFEFC0EFB1C201A0C0CFB07F8D3
:1002B00042EA004290455AD9AA180CF1FF3004D204
:1002C000904502D9ACF102002A44A2EB08029BB28D
:1002D000B2FBFEFC0EFB1C220CFB07F743EA0243B9
:1002E0009F4246D9EB180CF1FF3204D29F4202D94B
:1002F000ACF102022B44DB1B42EA004202E0AEEB0F
:10030000020301224FEA154EAFB2200CB3FBFEFCF4
:100310000EFB1C330CFB07F840EA034398452AD92F
:10032000EB180CF1FF3004D2984502D9ACF1020071
:100330002B44A3EB0803A4B2B3FBFEFC0EFB1C335F
:100340000CFB07F744EA0344A74216D92C190CF119
:10035000FF3304D2A74202D9ACF102032C44E41BC0
:1003600043EA00400F46114678E71F2188E76046C0
:10037000ABE76246BFE76046DBE76346EFE77345FE
:1003800006D916B9002108466DE7C6E9000EF9E75F
:10039000B3FA83F787B9734501D3824207D8841A29
:1003A0006EEB030301209C461EB900215BE7384633
:1003B000FAE7C6E9004CF8E7C7F1200CBB4000FAA9
:1003C00007F422FA0CF520FA0CF1BA401D432EFA7C
:1003D0000CF30EFA07FE4FEA154941EA0E011FFA27
:1003E00085FEB3FBF9F809FB18300B0C08FB0EFA7D
:1003F00043EA00439A4540D9EB1808F1FF3004D294
:100400009A4502D9A8F102002B44A3EB0A0389B252
:10041000B3FBF9F809FB183308FB0EFE41EA034170
:100420008E452CD9691808F1FF3304D28E4502D9C4
:10043000A8F10203294443EA0040A1EB0E01A0FB0E
:1004400002984145CE46434602D306D14C4504D2DC
:100450000138B9EB020E68EB0503002EA5D0B4EB12
:100460000E0261EB030101FA0CFC22FA07F3F940DA
:100470004CEA0303C6E9003197E74046C5E7434627
:10048000D9E70000002110B5084612F0D9FA012181
:100490001F200C4A1CF0D4FB00F0BEF9044615F0F6
:1004A000EDFD48B11F200121074A1CF0C9FB4FF0A8
:1004B000FF3010BD10F028FC204600F06BF900283A
:1004C000F8D1F6E7A43F0208C13F020810B5044680
:1004D00086B00B460B4A052104A814F053FA9DF888
:1004E0001330102102939DF81230204601939DF89D
:1004F0001130054A00939DF8103014F043FA0020A3
:1005000006B010BDEB3F0208F03F020810B50446EC
:1005100088B015F09CFB01234FF470510794002420
:10052000094A0694CDE90223084BCDE9041316F0DD
:1005300051F9000240F00100039001A902A80194C2
:1005400013F03EFF08B010BD12710001090600064D
:1005500070B5064688B00C46154615F078FB0123A9
:100560004FF47051079600260D4A0696CDE90223F6
:100570000C4BCDE9041316F02DF9000240F00100F8
:1005800021462A46039001AB02A8019620F096FA74
:10059000044602A820F015FD204608B070BD00BF3B
:1005A000127100010906000610B50A4B86B0144608
:1005B00002930023059103901A46CDE900332144AC
:1005C00005A81FF0C3FD002814BFAC20002006B012
:1005D00010BD00BF535C01082DE9F047CEB0569D19
:1005E0001C462B68074689469046002B61D06B68F5
:1005F000B3F5007F5DD303A81CF0CDFC6368B3B1F5
:1006000026682D4B3278002A08BF1E460021A02202
:1006100026A80DF11C0A21F0D9F949465046FFF7EA
:1006200055FF30B1AC2420464EB0BDE8F087224ED5
:10063000ECE70DF12C0941464846FFF747FF044619
:100640000028EFD1A0213346CDE900A91B4A26A8F6
:1006500014F098F926A903A81CF0B6FC0028E1D1F3
:10066000092103A81CF0ACFC3868FFF74FFF0FA866
:100670001FF0BDFB39680FA813F070F80028D1D126
:100680000FA903A81CF09EFCD5E9001203A812F0E4
:1006900093FB0028C6D12868FFF78EFD6B680130F8
:1006A000984201D905F0ECF9686003A81CF077FCCA
:1006B000B9E72F24B7E700BF06400208144002083C
:1006C00038B504460D46204615F0FFFA6B7C00282D
:1006D00057D0052B59D0032B19D0042B3AD0012B1E
:1006E00001D003203AE002222146284615F0ABFB58
:1006F000002833D12946284615F0E9FB70BB95F850
:100700002430002B0CBF032305236B74DBE795F823
:1007100025209AB1214628462A7F15F094FBE8B996
:100720002946284615F014FCC0B995F8253073B950
:100730000223AA691A442A620423E6E72B7D013BBF
:10074000DBB2022B9CBF124AD25CAA61F0E72B7F7E
:100750000233EEE795F824300BB1232038BDAA69A7
:100760000AB91820FAE72146284615F06CFB002844
:10077000F4D12946284615F013FC0028EED10523B4
:10078000C3E7052B01D00D20E8E70020E6E700BF16
:100790005460020800232DE9F04190F8816086B092
:1007A000044601936EB3A0F88030012001F0A8FB4D
:1007B000019B01901D44384601ABC5F1800208EB56
:1007C000050115F055FA0028F2D0A5B1104B04AA86
:1007D0000493802302A92046CDE90285059315F0F4
:1007E00063FCDDE9041280F0010084F881003846E2
:1007F00015F058FA08B994F88060304606B0BDE8A4
:10080000F0813546DFF80C8000F17807D3E700BFB0
:1008100064320020E432002000487047E00A0020E3
:10082000024A0349034816F0AABD00BF80200020F9
:100830007B600108E00A002010B5836804460BB90C
:100840002F2010BD1A491A6BD1E900138B4298BFB3
:10085000002302F1040288BF5B1A9A4204D00023ED
:100860001348194615F01AFDA36812491A6BD1E90D
:1008700000138B4298BF002302F1080288BF5B1A65
:100880009A4204D000230B48194615F007FDD4E91D
:100890000312A06800F068FE0028D2D1237E2BB19D
:1008A0006169A06815F079FF0028CAD10020C8E767
:1008B00050200020202000202DE9F3410546084665
:1008C0000C4615F00FFA074698B1254815F0FDF9CA
:1008D000234E48B187423A46314628BF0246204659
:1008E00015F095FA002837D11E4F204615F0FAF979
:1008F00030B928462B68DB6802B0BDE8F0411847E4
:10090000D7F80421002AF4D03368013AC6E902334B
:10091000D7F80031C7F8042157F82310013303F04A
:100920003F03C7F800312B6801912846DB690C4A68
:1009300001A9984780B9204615F0D4F980460848A7
:1009400015F0C3F980454246054928BF02462046B6
:1009500015F05DFA0028C8D002B0BDE8F08100BFF4
:1009600020200020181F002070B504460D462846A0
:1009700015F0ABF928B923682046BDE870409B68A4
:10098000184728460849FFF79BFE0D28EFD048B9C5
:10099000236820469B690449984718B9024815F016
:1009A00094FCE4E770BD00BF5020002038B591F8FA
:1009B000273005460C462BB10A7D1A48498A15F0A6
:1009C000ACFC38BB638AB3F5827F0AD8B3F5807F6D
:1009D0000BD9A3F58173022B09D8DFE803F00C0AC9
:1009E0000F0040F23B12934211D0A62012E0E36ABE
:1009F000EB6000200EE0E36A2B61FAE794F8243004
:100A000083F001032B7603B1E36A6B61F1E7AA6817
:100A10000AB92F2038BDA38D002B08BF4FF40073F7
:100A20001363E6E7181F002008B503480A7D498ACA
:100A300015F073FC08BD00BF181F002070B5856855
:100A40000C460DB92F2070BD91F8263003B97435CE
:100A500094F8273033B1227D618A184815F05DFC87
:100A60000028F0D1237D032B26D8DFE803F01602FF
:100A70000E112B689B6894F82420618A5AB904F1FE
:100A80002C022846BDE8704018472B681B69F2E726
:100A90002B689B69EFE70022F3E72B68618ADE6A27
:100AA00094F8243033B9E26A2846B446A369BDE815
:100AB000704060470022F7E72620C4E7181F002097
:100AC00010B50A46498AB1F5A27F15D008D840F280
:100AD000051399421AD0B1F5A17F0DD0A6200AE0E6
:100AE00040F2A1139942F9D1806838B10368DC6AF9
:100AF0009369D26AA04710BD806808B92F20FAE731
:100B000003682C321B69BDE810401847127D02486B
:100B100015F003FCEFE700BF181F00200020F0B520
:100B20001646526895B0052A0D461F468DF80500F9
:100B30008DF806008DF8070040F2B3800123CDE95F
:100B40000200CDE9040031688DF81800023A02A8CD
:100B500015F0A4FB0DF1050102A815F092F9044669
:100B6000002840F09A800DF1060102A815F089F9DD
:100B70000446002840F091800DF1070102A815F00D
:100B800080F90446002840F088807368802B00F2CA
:100B900083807B687F2B40F2828039680346CDE9F1
:100BA0000700CDE909008DF82C007622083107A84E
:100BB00015F074FB9DF80630013B042B6AD8DFE882
:100BC00003F0032F5D63560001238DF83430514B41
:100BD0000E950C930023CDE90F3311938DF8483017
:100BE000DDB12C6B0023221D19464B4815F056FB36
:100BF000494815F06AFB002304F1080219464748EA
:100C000015F04CFB0022464BC3F8042107AA02A9A9
:100C10000CA815F0A7FB044608E04FF40074E1E7C8
:100C20003D4815F02DFB3D4815F02AFB0998079B20
:100C3000984294BF0020C01AC5B20026082233464D
:100C4000396807A8CDE90766CDE909668DF82C60FB
:100C500015F024FB314620220CA820F0B7FE02211B
:100C600007A815F04CF8F8B1002015B0F0BD01232D
:100C70008DF834302B4B0E950C93C7E703230E955C
:100C80008DF83430284BF7E704230E958DF8343077
:100C9000264BF1E72A24C9E7C2240025CDE7192411
:100CA000FBE719240546C8E79DF8061007A841F0A0
:100CB000800115F024F80028D6D19DF8071007A868
:100CC00015F01DF80028CFD1214607A815F03CF8F3
:100CD0000028C9D1294607A815F011F80028C3D16A
:100CE0007A6805F10A03934201D904F0C9FE083578
:100CF000294638687B600CAA11F0BEFE0028B3D1EB
:100D00009DF80600BDF830203B68023818BF01206E
:100D10005A53AAE75C30020850200020202000200F
:100D2000181F002084300208AC300208D4300208BA
:100D3000002208B51146064815F0D6FA00220548EB
:100D4000114615F0D1FA0022034BC3E9402208BD39
:100D50005020002020200020181F002002490A688F
:100D600002604A6842607047842D020810B440F265
:100D70006314A142034612D0B1F5B27F07D2B1F598
:100D8000827F20D0B1F5B17F18D0A62009E040F2D3
:100D900097108142F9D102B11268DA6211E01AB9F2
:100DA0002F205DF8044B704711680A4BA1F57A7249
:100DB0009A42F5D85DF8044B00F01EBD02B11268EE
:100DC0009A620020EDE7002AEAD011685DF8044B32
:100DD00015F0E3BCB8820100F0B5B1F5AA7F97B079
:100DE000154606461A461C9C3CD8B1F5A07F09D88A
:100DF00040F20513994266D040F2111399425BD03C
:100E0000A6205EE06FF4A07319441329F8D801A35B
:100E100053F821F0010F0008010E00081B0F000815
:100E2000010E0008210F0008270F00082D0F0008F1
:100E3000330F0008010E0008010E0008010E000823
:100E4000010E0008010E0008010E0008010E000846
:100E5000010E0008010E0008390F00083F0F0008BE
:100E6000490F0008B1F5C17F00F08B800ED840F229
:100E7000651399427BD0B1F5B37F7DD0B1F5B27FD8
:100E8000BED12346294600F0CBFC19E040F2931373
:100E9000994200F0848040F295139942B0D1CDE997
:100EA0000D5205B9EAB933683046D3F884300DA93C
:100EB000984730B90E9B21E02346294600F050FDAB
:100EC00048B317B0F0BD00F1340738460392FFF77E
:100ED00073F9039A0130CDE906050597089215B913
:100EE0000AB104F0CDFD07AB00933046728B318B15
:100EF00005AB15F043FC0028E3D1089B23600AE012
:100F000003681B6B2946304698470028D9D12846EC
:100F1000FFF752F920600020D3E703689B6BF1E7ED
:100F200003681B6CEEE703685B6CEBE703689B6C84
:100F3000E8E70368DB6CE5E703685B6DE2E72346FF
:100F4000294600F015FCBBE721230DAF0C93036885
:100F50000B9703921B6E0BA99847039A0028B0D1F8
:100F6000134620212A4638461BF091FFD2E723463C
:100F7000294600F065FCA3E72346294600F000FD62
:100F80009EE7CDE909530DB9002BAAD1336830464D
:100F9000DB6F09A99847002893D10A9BAEE7CDE9FA
:100FA0000B520DB9002A9CD133683046D3F88030FB
:100FB0000BA99847002884D10C9B9FE770B5B1F529
:100FC000B27F054616461C4696B000F00E8117D833
:100FD00040F21113994263D06FF4A07319448BB29D
:100FE000132B26D8132924D8DFE801F061236E23C0
:100FF0007B8895A2232323232323232323AFCADB28
:1010000040F29313994200F03881B1F5CA7F1DD2A6
:1010100040F28113994200F01A81B1F5C17F0AD2E2
:1010200040F26513994200F0EB80B1F5B37F00F018
:10103000EE80A6209BE0FCD1CDE90524002A40F0FB
:101040001781002C00F0148104F01AFD40F2A11366
:10105000994200F02881B1F5D17F11D240F2951369
:10106000994200F01581B1F5CB7FE2D1CDE90D2495
:101070000AB9002CE8D128460DA915F074FB76E0DA
:1010800040F2B1139942D4D1002A00F01281002C11
:1010900000F00F810DA9CDE90D2415F08BFB66E062
:1010A0002246314616B0BDE8704000F051BC02B196
:1010B0003CB900228649284616B0BDE8704000F0D1
:1010C00065BA22463146F6E702B13CB900228049B2
:1010D000284616B0BDE8704000F086BA2246314678
:1010E000F6E702B13CB900227949284616B0BDE8BE
:1010F000704000F0A7BA22463146F6E702B13CB98B
:1011000000227349284616B0BDE8704000F0B2BA1C
:1011100022463146F6E702B13CB900226C49284626
:1011200016B0BDE8704000F0BDBA22463146F6E781
:1011300002B13CB900226649284616B0BDE87040AD
:1011400000F0C8BA22463146F6E702B18CB9202237
:1011500000210DA820F03AFC20215E4AAB8B0DA89F
:1011600013F010FC0DA90246284600F0E1FA16B073
:1011700070BD2246314616B0BDE8704000F0D8BAC6
:1011800002B13CB908225449284616B0BDE8704067
:1011900000F0E6BA102C01D92F20E8E722463146AC
:1011A000F2E702B1C4B9102109A81BF077FE0028AC
:1011B000DDD102231021009321230DAA09A81BF0E1
:1011C00025FE0028D3D10DA8FEF7F6FF0DA9024693
:1011D000284600F0D5FACAE7102CDDD802232146B4
:1011E0000093304621230DAAE9E7002AD4D0002B32
:1011F000D2D01A46314616B0BDE8704000F008BBA8
:101200002246314616B0BDE8704000F011BB02B175
:10121000B4B90023CDE90D33CDF83B30AB6A0DA84E
:101220000293EB8B01936B6A00936A8B298B2B6A79
:1012300015F0AEF90B2228460DA900F099FB96E7B0
:101240002246314616B0BDE8704000F091BB02B1B5
:1012500054B90023284609AACDE90D238DF824307E
:101260000DA915F06BFA82E7CDE90D240DA9F8E779
:10127000284605A900F0ECFA79E7CDE9072412B970
:10128000002C7FF4E1AE284607A900F0EFFA6EE7E4
:10129000CDE9092412B9002C7FF4D6AE284609A95D
:1012A00000F0F2FA63E732B940223146343020F0E0
:1012B0008DFB00205BE73F2C3FF66EAF22463146A8
:1012C000343020F05DFB0023254485F83430F0E70E
:1012D00036600208844102084E4002082DE9F043BE
:1012E0008FB080460F4616460021112204A81D46E5
:1012F00020F06CFB1122002109A820F067FB0023DD
:101300001122CDE90233404602AB04A900F030FAC5
:10131000044600285ED1029B0A2B52D19DF814305E
:101320002D2B30D04FF00008049B0A2203A909A8F6
:1013300009938DF8288013F04FFB039A0AAB9A4269
:10134000388041D1BDF814300A2203A909A8ADF8AC
:1013500024308DF8268013F03FFB3070039E0DF192
:1013600026039E4230D1BDF816300A2203A909A8EF
:10137000ADF824308DF8268013F02EFB039B2870E7
:10138000B34221D125E09DF817302D2BCAD1082377
:10139000029306AB01930DF1150311210F4A00933F
:1013A00009A804AB13F0EEFADDF8089009A94A4643
:1013B00004A820F0E5FA4A46404604A900F0D0F916
:1013C00040B9029B072BADD8054804A913F0A8FA31
:1013D0002F2420460FB0BDE8F08300BF574002081D
:1013E000644002080023F0B587B001930C46D1E9B0
:1013F000001201AB00F0CCF940F20123984225D154
:1014000002AD2A46144B03F110072E46186859689E
:10141000083303C6BB423546F7D163680F2B02D8A9
:10142000192007B0F0BD2568134603CB696006A9F3
:101430008B4228601A4605F10805F5D11023019367
:10144000019B6268934204D904F01AFB0028E8D19A
:10145000F6E700206360E4E78C2D020870B596B0D3
:1014600004462E220D460AA8002120F0AFFA0023E0
:101470002E220193204601AB0AA900F0D1F940F2D7
:101480000123984229D118230193194B0AAC03F187
:101490001806224618685968083303C2B342144636
:1014A000F7D12022002102A820F090FA019902AA87
:1014B0000AA811F0DBFAA0F11003102B044613D890
:1014C0006B68984212D8024602A9286820F058FAA0
:1014D0006B689C4205D904F0D3FA0028E1D016B01D
:1014E00070BD00206C60FAE72F20F8E71920F6E7BE
:1014F0008340020870B54B680646602B0C461546C3
:10150000A4B02CD98622002102A820F05FFA002383
:1015100086220193304601AB02A900F091F940F216
:101520000123984212D184220E4902A8019220F090
:1015300027FA2268019902A811F098FA6128286018
:101540000BD16368602B05D804F09AFA0028F0D01C
:1015500024B070BD60600020FAE72F20F8E7192062
:10156000F6E700BF9C400208084608B5114601F0A6
:10157000D7FA08B19F2008BD1BF0D5FC0028FAD18E
:101580000122014B1A70F6E76433002011B10248C2
:1015900011F09EBA2F2070471B63020807B519B9D6
:1015A0002F2003B05DF804FB00230348019301AB37
:1015B0001BF0C3FCF5E700BF1B63020801481BF0EA
:1015C000D0BC00BF40610208002313B50C4605489B
:1015D00001A901931BF0AFFC08B9019B238002B065
:1015E00010BD00BF4061020811B1024811F070BA8D
:1015F0002F2070471561020807B519B92F2003B0D5
:101600005DF804FB00230348019301AB1BF095FC3C
:10161000F5E700BF1561020801481BF0A2BC00BF3E
:101620002B610208002313B50C46054801A901935C
:101630001BF081FC08B9019B238002B010BD00BFE4
:101640002B61020811B1024811F042BA2F207047F5
:10165000FE60020807B519B92F2003B05DF804FB3E
:1016600000230348019301AB1BF067FCF5E700BFC3
:10167000FE60020811B1024811F02ABA2F2070470B
:10168000E660020807B519B92F2003B05DF804FB26
:1016900000230348019301AB1BF04FFCF5E700BFAB
:1016A000E660020811B1024811F012BA2F2070470B
:1016B000D060020807B519B92F2003B05DF804FB0C
:1016C00000230348019301AB1BF037FCF5E700BF93
:1016D000D060020811B1024811F0FAB92F2070470A
:1016E000BA60020807B519B92F2003B05DF804FBF2
:1016F00000230348019301AB1BF01FFCF5E700BF7B
:10170000BA60020801481BF02CBC00BFDD62020871
:10171000002313B50C46054801A901931BF00BFCEF
:1017200008B9019B238002B010BD00BFDD62020832
:1017300011B1024811F0CCB92F2070479F60020808
:1017400007B519B92F2003B05DF804FB0023034847
:10175000019301AB1BF0F1FBF5E700BF9F600208AE
:1017600011B1024811F0B4B92F207047CD620208C0
:1017700011B102481BF0E1BB2F207047CD62020877
:1017800011B102481BF0F7BB2F2070475C620208C2
:1017900011B102481BF0E3BB2F2070475C620208C6
:1017A00001481BF0DEBB00BFB86202081FB5002372
:1017B0000C460E4803A903931BF0BDFB034608B17A
:1017C000184610E0BDF80C20B2F5805F2280F7D3F8
:1017D00040F21B132F240121CDE90034044A054BAC
:1017E0001BF02EFA204604B010BD00BFB8620208FC
:1017F000414102082141020801481BF0B2BB00BF71
:10180000A162020801481BF096BB00BFA16202085A
:1018100011B1024811F05CB92F207047956202089F
:1018200011B102481BF089BB2F2070479562020856
:1018300011B1024811F04CB92F207047856202089F
:1018400011B102481BF079BB2F2070478562020856
:101850000248D1E900121BF08EBB00BF6D62020886
:10186000014814F01ABF00BF6D6202080248D1E9B6
:1018700000121BF080BB00BFF1620208014814F0A7
:101880000CBF00BFF16202080248D1E900121BF050
:1018900072BB00BF08630208014814F0FEBE00BF1F
:1018A00008630208F0B597B005AE0F461546002153
:1018B0001822304620F08AF8314602201FF07FF8C7
:1018C000044630461FF07DFB4CB1022301211F204E
:1018D0001C4A1BF0B5F9D824204617B0F0BD6B6840
:1018E00015943F2B2CD904AB02934023CDE9006320
:1018F0000220D7E90023144904941FF01CFA04467F
:1019000058B1034601211F20104A1BF099F9AC245D
:10191000402130461BF0CEFADEE7049F402FF6D17F
:101920006B6815973F2B0BD93A463146286820F053
:1019300034F86B683F2B01D804F0A2F86F60E7E73A
:101940001924E5E751410208090600066B41020827
:1019500011B1024811F0BCB82F207047576002083F
:1019600011B102481BF0E9BA2F20704757600208F6
:1019700011B102481BF0FFBA2F20704787600208A0
:1019800011B102481BF0EBBA2F20704787600208A4
:10199000034B187810B103481BF0E3BA704700BF3F
:1019A000643300206F60020813B50A4B0C461878A8
:1019B00018B90123237002B010BD0023064801A905
:1019C00001931BF0B8FA0028F5D1019B003B18BF2A
:1019D0000123EFE7643300206F600208012903BF91
:1019E000034B00201B78A62008BF1370704700BF70
:1019F00085330020022938B514461D460FD1202218
:101A0000002108481FF0E2FF3CB1202D2A46214664
:101A100028BF202203481FF0B3FF002038BDA620B6
:101A2000FCE700BF65330020104608B56AB163B11A
:101A300002290CD1202B28BF20231A46029B0549DE
:101A40001A601FF09DFF002008BD2F20FCE7A62094
:101A5000FAE700BF65330020012905D102B11278F1
:101A6000024B00201A707047A62070478533002073
:101A70002DE9F84300EBC103DF880446B94202F1C7
:101A800004080BD1012303FA02F2C36823EA02031C
:101A9000C360002340F82830BDE8F883B3F8049011
:101AA000FD004FEAC9060636835B04358B4202D13E
:101AB000425B9A420BD04521084815F075FA002385
:101AC00083F31188BFF36F8F0423184602DF44F8B5
:101AD0002870A75324F80590DEE700BF874102086D
:101AE0002DE9F84F044614F079FEB0FA80F0C0F109
:101AF0001F0004EB8006D6F81090CD0005F1040A13
:101B00000B4606358FB2B9F1000F0AD10121E26808
:101B100081400A43E260336124F80A706753BDE8EC
:101B2000F88F4FEAC906043634F806B04FEACB08FE
:101B300008F1060834F8083099450BD045210948CA
:101B400015F032FA002383F31188BFF36F8F04235B
:101B5000184602DF24F80AB024F8059024F808702B
:101B6000A753DCE78741020810B500EBC1035B888F
:101B70000446DB070A460ED414F035FE34F8303044
:101B8000C01A814207D134F831102046511A14F09E
:101B90002AFE82420BD04521054815F005FA0023A4
:101BA00083F31188BFF36F8F0423184602DF10BD43
:101BB000B04102082DE9F8430F4600297AD00468A5
:101BC0000E1F361BF50826F0070604EB0608B8F8CA
:101BD000023013F001090BD10A463748452115F0B0
:101BE000E3F989F31188BFF36F8F0423184602DFEE
:101BF0002946204614F0F7FD34F83030C01AA842C8
:101C00000CD03A4645212D4815F0CEF9002383F338
:101C10001188BFF36F8F0423184602DFA15B2046B3
:101C2000691A14F0E0FDA8420CD03A464521244838
:101C300015F0BAF9002383F31188BFF36F8F0423E3
:101C4000184602DFB8F80230294623F00103A8F84D
:101C50000230204614F0C7FD04EBC0035B88074642
:101C6000DA070CD401462046FFF77EFF39462046AE
:101C700014F0BEFD3A462946204614F005FEA65B48
:101C8000AE1B04EBC6035B88DB070DD43146204650
:101C9000FFF76AFF3146204614F0AAFD2A46314676
:101CA000204614F0F1FD354629462046BDE8F843AC
:101CB000FFF716BFBDE8F8835D4202080342020841
:101CC000314202082DE9F04714464A4202EA01096E
:101CD00031EA0202034616D04A46042A28BF0422EB
:101CE0004F46A1EB090909F1FF3A1AEA090F14D08E
:101CF000334934484FF4FB7214F044FE4FF4FB7147
:101D00002F4814F036FE042904D82146BDE8F047D8
:101D100014F0EBBD00270422E5E71CB90025284696
:101D2000BDE8F0871E68A9EB020204F0070302F089
:101D300007010B330B44E10801EBD20101EBD301A6
:101D4000B3683046994228BF194614F05EFD8046BC
:101D50000028E3D03D1D05EBC00535445544B5FBD7
:101D6000F9F509FB05F5ED1B2C442B1F07349B1BD4
:101D700024F00704A41BB0EBD30F4FEAD3074FEABC
:101D8000E40408D201463A46304614F093FD414639
:101D90003046FFF7A5FE3946304614F024FDA04238
:101DA00007D93046224614F085FD21463046FFF71C
:101DB00097FE06EBC706738843F001037380AEE716
:101DC00087420208AA420208B2F5802F2DE9F843A3
:101DD0000AD3364940F20A32354814F0D3FD40F2B6
:101DE0000A31324814F0C5FD042A08D82F4940F2C0
:101DF00011322F4814F0C6FD40F21131F1E7043AD8
:101E0000CD1D114425F0070521F00706A6EB0508B6
:101E1000B8F1170F4FEAD80708D8244940F21D320D
:101E2000234814F0AFFD40F21D31DAE7B7FA87F42A
:101E30004FF00009C4F12002C4F12404A4000734C7
:101E4000E408631CBB420560AF60C5F80C9008D97C
:101E5000164940F23332164814F094FD40F2333103
:101E6000BFE74946920005F110001FF0AFFDA2B296
:101E7000530043F001036B803B1B9BB205EBC40195
:101E80005800A5F80090488025F83420A6F8029064
:101E900025F8083005EBC7035A88214642F00102B5
:101EA0005A802846BDE8F843FFF71ABE8742020869
:101EB000AA42020808B5024814F04EFD002008BDF1
:101EC000CA420208014B1B68184700BF640B002080
:101ED00030B585B004460D461022002168461FF03B
:101EE00075FD02238DF80230044B2A4621466846D0
:101EF000019312F065FE05B030BD00BFC51E00089D
:101F000008B5EFF31183302383F31288BFF36F8F8B
:101F1000EFF3108372B603F055F9034814F01CFD7B
:101F200015F043FAFCE700BF1743020810B5134C45
:101F30004521134815F038F8E3689A0309D545217F
:101F4000104815F031F84521D4F850220E4815F00C
:101F50002BF80A4CE368DB0309D545210B4815F043
:101F600023F84521D4F84021094815F01DF8BDE8B3
:101F70001040002108460DF02FB800BF008000443B
:101F8000404302085B43020872430208854302088B
:101F9000A243020807B501A800F09CFE9DF8053099
:101FA000012B14D19DF804308BB94FF480120C4BE7
:101FB0000C49586E03F580535A664B6B23F0E0537F
:101FC00043F040634B63C3025CBF074B5A6602F0A9
:101FD00069F915F049F903B05DF804EB00F02CBF86
:101FE000008000500040005A00A000504FF4804292
:101FF00038B5114B114D9A664FF0FF33022205F5AB
:10200000005423660E4B63660E4BC3F8D020BFF31B
:102010004F8FBFF36F8F002003F006F94FF440336A
:102020000022E36010462B61114603F019F9BDE868
:102030003840002003F0EAB80090004000800044DF
:10204000F7FF370000ED00E070B5C66804680D0CBE
:1020500006FB0544806A14FA81F150B90B490C481B
:102060004FF4AC7214F08EFC4FF4AC71074814F0CE
:1020700080FC8468074DAC42F0D2074DAC42EDD3F2
:102080002468A446BDE87040604700BFB84302081A
:10209000AA420208F0210208D821020870B550B9FE
:1020A0000B490C484FF4BA7214F06CFC4FF4BA713F
:1020B000074814F05EFC8468074DAC42F0D2074D2F
:1020C000AC42EDD36468A446BDE87040604700BFF1
:1020D000B8430208AA420208F0210208D8210208E7
:1020E00037B504460821C06A14F053FD00234FF6AB
:1020F000FF72104DADF804306368ADF800208DF824
:102100000620E26819182B401344181A60606846CC
:10211000ADF8021014F095FC6946204614F058FD05
:102120002046211D14F03CFC63682B40A36003B0E3
:1021300030BD00BF0000FFFF2DE9F7430F46814689
:102140000821C06A14F025FD80463C68124D241A0F
:102150003C6004EA0506B4421CD3A0B210B903B037
:10216000BDE8F08308236A4621464846FFF76CFF26
:102170000028F4D16946A0B214F0F7FC38B1BDF8DC
:102180000230BDF804202E4013441E443C60A4EBF2
:102190000804E0E70020E2E70000FFFF2DE9F04738
:1021A000044688B000F1140738461AF0A3FBA06A71
:1021B00050B99F494FF42A729E4814F0E3FB4FF444
:1021C0002A719B4814F0D5FB83689B4EB342F0D232
:1021D0009A4DAB42EDD3DB689847E06248B94521A0
:1021E000974814F0E1FE6FF01505284608B0BDE8E9
:1021F000F087A06A40B98E4940F295228D4814F0CC
:10220000C1FB40F29521DCE78368B342F3D2AB42D5
:10221000F1D3DB6898470368013B1F2B02D94521A6
:102220008848DEE7E268B2F5803F06D94FF4803394
:102230004521854814F0B8FED5E7A06A216805AAB3
:1022400019F0EEF910B145218048CAE7E5682DB1D3
:10225000069BB5FBF3F203FB125515B145217C48F3
:10226000BFE7238A012B02D845217A48B9E7E36A00
:10227000009593F805804FF0FF334FF0FF3238465A
:102280000DF00AFA0821E06A14F083FCA94606461C
:10229000238A1FFA85FA534544D8238A4B4500F018
:1022A000268153450BD10099082342462046891BBD
:1022B00014F083FB18B96946204614F071FB694697
:1022C0002046FFF739FF0546002840F0CA800099F4
:1022D0004FEA11494FEA09496160C4F80890A368C0
:1022E00099420DD30823204601AAFFF7ADFEB8B9E5
:1022F00001AB13F8012B904532D101300828F8D1F9
:10230000636869466FF30F032046009314F048FB9F
:1023100042462046E368009914F04FFB00283CDA5F
:1023200005469EE0E1682B04891B13FA81F14246C1
:1023300008232046009114F040FB78B169462046FE
:1023400014F02EFB09F101090823424620460099AA
:102350001FFA89F914F031FB00289ED0013597E768
:10236000A08801A914F001FC626810B9911B61609A
:10237000B5E7BDF808A0BDF80610E06AC4F80890FB
:10238000514414F006FC48448242A060EED1BAF1F8
:10239000000FEBD06FF01C0563E000F084804FF677
:1023A000FF79636806EB0308E3681FFA88F29B1B5A
:1023B0009A42CDF8008023D34921274814F0F4FD38
:1023C0006168204614F024FB0146002848D1636868
:1023D000224AE06813400344A3EB460363601340C2
:1023E0002046A36014F095FC002899D1E368A288E8
:1023F000A3EB46039A4234D1204614F006FC8FE743
:1024000008234146204603AAFFF71EFE002887D175
:1024100003A91FFA88F014F0A8FB38B1BDF80C30FE
:102420004B4503D1BDF81030002B63D0B044BBE75F
:10243000B8430208AA420208F0210208D821020883
:10244000034402082A4402084C4402087A44020861
:1024500097440208B0440208214502080000FFFF2B
:102460000D4638460DF020FA002D7FF4BEAE012354
:10247000228AA3744921E368274814F095FD626815
:10248000492193B22548120C14F08EFDA26849210F
:1024900093B22348120C14F087FDA6E6E26AA36803
:1024A00012681344A360D4E901318B4208D9424633
:1024B00020465B1A14F081FA0028FFF631AFEDD107
:1024C0006168E36801EB46029A428FD1154BA06820
:1024D00001EA0302904289D0204614F099FA0028BC
:1024E0007FF41EAF62680F4B1A40A2607EE76FF068
:1024F0002C05B6E749210C4814F056FD636869467F
:1025000020466FF30F03009314F04AFA2046009917
:1025100014F07EFA68E700BFD8440208F4440208C9
:102520000B4502080000FFFF4D4502082DE9F04F62
:102530001E46837C04468946904695B04BB945219A
:10254000694814F031FD6FF00C05284615B0BDE860
:10255000F08FC26A0821104614F01BFBB1B2019043
:10256000104614F016FBE368019A0746A3EB8203BA
:10257000984200F2B6801EB1B8F1000F00F0B180B1
:10258000D4F804A0CDF810A0204605AA04A914F0A0
:1025900076FB05460028D8D1BDF814304B4507D04E
:1025A000DDF810A063685345EED1002E39D1CCE799
:1025B00005A91FFA8AF014F0D8FA0028F0D0BDF867
:1025C000183066B39E422CD1B3464FEA1A43BDF889
:1025D00016A01B049A44E36ACDF800801B685B4296
:1025E00003F020030293029B51465B4528BF5B46E4
:1025F00020460CAA0393FFF727FD00284DD1039B2B
:1026000000981A460CA91FF0F6F950B9039B009ADE
:10261000BBEB030B1A449A440092E4D195E7002BDC
:1026200093D0002F3CD1BA4604F1140B4FF0FF3287
:102630004FF0FF3358460DF02FF8238A9D424DD0BE
:10264000D4E901320AEB02018B422ED39BB263B371
:10265000FF230021ADF81E200CA818228DF822308F
:10266000ADF81C90ADF820601FF0B0F920460CA921
:10267000CDE90E8614F097FA074648B907A814F07A
:10268000E0F9204607A914F0A3FA074600B9374637
:1026900058460DF009F93D4657E7C2DC054654E7B8
:1026A000019B1F441FFA87FABEE72046FFF718FD7B
:1026B0003DB9ADF82490CDF82880ADF82C608DF8A8
:1026C0002E50204609A914F024FB07460028DFD12C
:1026D0009DF82E300135002BAFD0D8E76FF01B07E7
:1026E000D6E76FF0150530E7EA4302082DE9FF470A
:1026F0001E46837C04460F469046BDF8309043B991
:102700002748452114F050FC6FF00C0004B0BDE8E0
:10271000F0870821C06A14F03CFAE368A3EB400399
:102720009E423AD84FF0000A65680195204602AAF9
:1027300001A914F0A4FA0028E8D1BDF80830BB4282
:1027400006D102A9A8B214F010FA50441FFA80FA78
:10275000019B62689A4219D0D14515D2BDF80C3060
:10276000C3B1D14516D8BDF80A10B3426FF30F05B7
:1027700028BF3346424620462944FFF765FC00281F
:10278000C4D1BDF80C00C1E71D46CFE7BDF8083045
:10279000BB42E3D06FF00100B8E76FF01500B5E77A
:1027A000EA430208014B0360002070479C32020894
:1027B00070B5104B0D461C68B4B10F4B196800235F
:1027C0008B4202DB6FF0010070BD224612F8106BE5
:1027D000864202D014460133F2E7E0681AF042F86C
:1027E00028B100202C60EFE76FF00C00ECE76FF0F1
:1027F0001200E9E7680B00209C32020810B543681C
:1028000088B0029383680C46CDE9033200230A683E
:10281000C068CDE90623054901AA059318F004FF15
:10282000079808B9059B236008B010BDC36F010865
:102830002DE9F0410C4B05461C680E4617467CB14D
:1028400000F0EAF863682046D3F8108032463B4631
:102850002946C047044600F0E9F82046BDE8F0816B
:102860006FF00104F9E700BF84200020002303601B
:10287000044B5A6812B9C3E90000704710605860F1
:10288000704700BF88200020014B1860704700BFD0
:10289000842000201FB5CDE90101039200F0BCF8AF
:1028A000074B1C6824B900F0C1F8204604B010BDE5
:1028B000636820461B6801A998472468F2E700BFB7
:1028C000882000200022024BC3E90022704700BF8D
:1028D000882000200022024BC3E90022FFF7F2BF4C
:1028E000902000202DE9F74307460C4609B100234C
:1028F0000B600026234DDFF89C904D4520D92249DE
:1029000022489D2214F03EF89D211F4814F031F812
:10291000D5F800803846414601AA14F08CFB50B12E
:1029200016B954B92E4606E000224046316814F02C
:1029300082FB0028F5D11835DFE7019B2360F1E722
:10294000E6D3134B1D68C5B155F8188C384641467F
:1029500001AA183D14F06FFB50B116B954B92E46B8
:1029600006E000224046316814F065FB0028F5D1EE
:10297000AD69E8E7019B2360F1E7304603B0BDE8AD
:10298000F08300BF282302087B450208AA42020800
:1029900090200020282302082DE9F341DDF8208053
:1029A00004460D4616461F460190B8F1000F07D0A9
:1029B000D8F80010C1B9D8F804E0BEF1000F1CD15E
:1029C000204601A9FFF78EFF98B13B46D0F80C8056
:1029D000324629460198C047034650B12246452158
:1029E0000C4814F0E1FA04E001AA14F024FB0028DA
:1029F000E1D1002002B0BDE8F081D8F808303246BD
:102A0000089329463B46F446019802B0BDE8F041E0
:102A1000604700BFAD4502084FF0FF324FF0FF3373
:102A200001480CF039BE00BF8412002001480CF0B0
:102A30003BBF00BF8412002038B5094DFFF7ECFF03
:102A40002B785BB9FFF746FF00F086F8044608B91B
:102A500001232B70FFF7EAFF204638BD0024F9E779
:102A6000863300202DE9F04306460F46048F99B0C7
:102A70000134A4B200F10808651EADB2B5F5004FEF
:102A80004AD04A23294605AA404614F086FA04F59E
:102A90007F543F34A4B281462146012340460DF1C4
:102AA0000B0214F07AFAB9F1000F014610DC00288D
:102AB00010DC338FAB4209D132466B1E22F8383F0F
:102AC0004FF4004102234046FFF730FD2C46D3E788
:102AD000002808DC2946404614F05BFA21464046AF
:102AE00014F057FAE5E7B9F1490FEFD809F160039F
:102AF0000DEB03090023094A09F84C3C05A800978F
:102B000003ABCDF80C80ADF81040FFF745FF00286F
:102B1000DCD019B0BDE8F0830020FAE7837001082B
:102B2000002810DB79B10B4B1A783AB15A6882420F
:102B30000CD19B688B4209D1002070470122C3E968
:102B400001011A70F8E76FF0150070476FF0770019
:102B5000704700BFD820002070B5012688B06946B4
:102B600030460196FFF724FE044600282DD1474D3C
:102B70002B78002B69D0009BD86850B94449454850
:102B800040F2B51213F0FEFE40F2B511404813F0CA
:102B9000F0FE8368404A9342F0D2404A9342EDD31C
:102BA0001B69002B4ED002A99847044668B9D5E9A5
:102BB000011302985B184FEAE17242F10002984259
:102BC000039B934104D26FF01504204608B070BDFA
:102BD000009BD86805AA18F023FD04460028F4D10C
:102BE0006A68059B9A42EED14FF6FE73069A511E13
:102BF0009942E8D8A968B1FBF2F302FB131100294E
:102C0000E1D1B3F5803FDED29BB2012BDBD9244E5C
:102C100072612A783383009B002A31D06A68DB68AE
:102C20001F48B260F36314F0C4FA04460028CCD104
:102C30001C4D1B487560FFF719FE19487560FFF7BA
:102C400023FEC2E76FF05704BFE7304605AA01A98B
:102C500014F0D9F9044610B110F10C0FB5D1069A51
:102C6000B2F5803F0ED2009B9868002319461144AC
:102C7000884203D30133082BF9D1C8E79BB2C6E7DA
:102C80005A68CCE76FF020049FE700BFD8200020EF
:102C9000B8430208AA420208F0210208D82102081B
:102CA00098200020C0320208014B1860704700BF16
:102CB000700B0020054B1860054B1B6F03F00703DA
:102CC000032B01D11FF056BB704700BF780B0020CB
:102CD000008000504FF48032064B5A6603F5E6231D
:102CE0009B69C3F38512827003F03F021B0B427095
:102CF0000370704700900050014B986CD96C70477E
:102D00000080E00F054B9A689107FCD45A6892073F
:102D1000F9D4DA69002AF6D1704700BF00800A5062
:102D200010B5034C63681FF0A3FB0223236110BDA1
:102D300000800A5008B5FFF7E5FF0122024B03F5BA
:102D400080514A601A6108BD00800A5010B5044BDA
:102D50005C68012C03D1FFF7E3FF024B5C6010BD00
:102D600000800A5000A00A5038B5074DFFF7CAFF8F
:102D70006B680446012B03D1FFF7E8FFFFF7C2FFA2
:102D80002378EB6038BD00BF00800A5010B51FF0FB
:102D900079FBB8B94A680B7812B1127843EAC203DA
:102DA0004A7843EA42038A6812B1127843EA8213EE
:102DB000CA7843EA82030A6912B1127843EA4223CD
:102DC000014A936410BD00BF00800A5010B5002472
:102DD00086B01422214601A88DF800401EF0F6FDB1
:102DE000012313488DF804301FF0BEFEBFF34F8F50
:102DF0006846FFF7B9FF204601A98DF80440FFF7A8
:102E0000C5FF20460F211FF04FFB0F2120461FF06A
:102E100051FBFFF78FFF1FF02BFB064B43209C61FC
:102E200001F044FD432014F099FA06B010BD00BF34
:102E3000E832020800800A5070B51FF00BFF144EF4
:102E400005463478FCB9134B1C60134B1C60134BC4
:102E50001C60FFF7BBFF01201FF00CFE1FF062FBA0
:102E60000F4B0246186020B928461FF0EEFE2320C3
:102E700070BD234640F2E7310A48FDF779F90A4B65
:102E800018600123337028461FF0DFFE0020EFE7B3
:102E900089330020EC200020E8200020F4200020CE
:102EA000F020002018FCFFFFE4200020044BD3F8A2
:102EB0008420D206FBD4D3F88400C0F3811070477D
:102EC0000040005038B5174B0546D3F828310C4662
:102ED00003F00703013B052B20D8DFE803F00313C1
:102EE0001B0F0B171FF020FA052305B1286004B152
:102EF000236038BD1FF018FA0623F6E71FF05EFACC
:102F00000723F2E71FF050FA0323EEE71FF04CFA15
:102F10000423EAE71FF044FA0223E6E700231846F9
:102F2000E3E700BF00800050002337B50193164B44
:102F30000546D3F820320C4603F00703042B21D8B2
:102F4000DFE803F0030B11161B0001230DB1019AFA
:102F50002A6004B1236003B030BD002101A8FFF74F
:102F6000B1FF1223F2E71FF029FA07230190EDE7E2
:102F70001FF076FD0A230190E8E71FF073FA09239A
:102F80000190E3E70023E1E70080005038B5104BE3
:102F90000546D3F880300C4603F00303022B0BD018
:102FA000032B0DD0012B0FD11FF0C4F90E2305B157
:102FB000286004B1236038BD1FF000FA0723F6E74C
:102FC0001FF0B2F90623F2E700231846EFE700BF2F
:102FD0000080005038B5104B0546D3F800310C4640
:102FE00003F00303022B0BD0032B0DD0012B0FD1C9
:102FF0001FF0DAF9032305B1286004B1236038BD5E
:103000001FF030FA0923F6E71FF0D4F90823F2E79E
:1030100001230020EFE700BF0080005038B5184BB7
:103020000546D3F820010C4600F00700062823D8F7
:10303000DFE800F0040A0E16121A1E00012305B183
:10304000286004B1236038BD1FF06EF90523F6E750
:103050001FF0AAF90323F2E71FF0B0F90723EEE708
:103060001FF09EF90223EAE71FF05EF90623E6E768
:103070001FF09AF90423E2E700231846DFE700BFB8
:103080000080005038B5104B0546D3F840310C464F
:1030900003F00303022B0BD0032B0DD0012B0FD118
:1030A0001FF0DEFC0A2305B1286004B1236038BD9F
:1030B0001FF0D8F90923F6E71FF0D5FC0C23F2E73F
:1030C00001230020EFE700BF00800050002337B548
:1030D0000193164B0546D3F860320C4603F0070304
:1030E000013B032B1FD8DFE803F0020E1914002167
:1030F00001A8FFF793FF10230DB1019A2A6004B1D4
:10310000236003B030BD002101A8FFF7BBFF1123EE
:10311000F2E71FF053F907230190EDE71FF040F9A4
:1031200002230190E8E70023E6E700BF008000509B
:10313000002337B50193164B0546D3F894320C465D
:1031400003F00703013B032B1FD8DFE803F0020E57
:103150001914002101A8FFF761FF10230DB1019A96
:103160002A6004B1236003B030BD002101A8FFF73D
:1031700089FF1123F2E71FF021F907230190EDE702
:103180001FF00EF902230190E8E70023E6E700BFF5
:103190000080005038B5104B0546D3F860310C461E
:1031A00003F00303022B0BD0032B0DD0012B0FD107
:1031B0001FF056FC0A2305B1286004B1236038BD16
:1031C0001FF050F90923F6E71FF04DFC0C23F2E73E
:1031D00001230020EFE700BF008000502E4B9842F3
:1031E0004AD022D82D4B984240D014D82C4B98422C
:1031F00039D00AD82B4B984232D02B4B98422FD043
:103200002A4B98422CD000207047294B9842FAD183
:10321000284B186F7047284B98422AD0274B98426A
:10322000F1D1244BD3F880007047254B98422BD026
:1032300009D8244B984223D0234B9842E3D11D4B0D
:10324000D3F88C007047214B984221D003F57403CA
:1032500003F510539842D6D1164BD3F89800704717
:10326000144B986D7047134B586E7047114B586F45
:103270007047104B986F70470E4BD3F8840070471F
:103280000C4BD3F8880070470A4BD3F89000704776
:10329000084BD3F8940070470048E8010024F4007C
:1032A000C0CF6A0080841E0000093D0040420F002C
:1032B000405DC6000080E00FC0EA210180BA8C01A9
:1032C000007E560380D54302006CDC020090D003E0
:1032D00073B50D460021114B0191D3F8804106468C
:1032E00004F00304022C13D0032C0CD0012C13D1B6
:1032F00001A8FFF793FE10240EB1019B336005B1C6
:103300002C6002B070BD1FF059F807240190F3E75C
:103310001FF046F80190EFE70C46EDE70080005003
:1033200038B5104B0546D3F840320C4603F0030382
:10333000022B0BD0032B0DD0012B0FD11FF090FBD4
:103340000A2305B1286004B1236038BD1FF08AF854
:103350000923F6E71FF087FB0C23F2E70123002087
:10336000EFE700BF0080005038B5144B0546D3F896
:1033700000020C4600F0070004281BD8DFE800F02C
:1033800003090D111500012305B1286004B1236064
:1033900038BD1FF065FB0A23F6E71FF063F8092329
:1033A000F2E71FF060FB0C23EEE71EF0E3FF0F23B4
:1033B000800AE9E700231846E6E700BF00800050D6
:1033C00038B5144B0546D3F808020C4600F0070048
:1033D00004281BD8DFE800F003090D1115000123B4
:1033E00005B1286004B1236038BD1FF039FB0A2302
:1033F000F6E71FF037F80923F2E71FF034FB0C2340
:10340000EEE71EF0B7FF0F23800AE9E70023184616
:10341000E6E700BF00800050B0F5207F1FD009D83C
:10342000B0F5007F15D003D868B1B0F5C07F0AD0E1
:1034300000200CE0B0F5607FFAD10B4BD3F8800090
:10344000C0F3011003E0084B186FC0F303300130E4
:103450007047054BD3F89000C0F30460F7E7024BC8
:10346000186FC0F38020F2E70080005002464FF44E
:103470008030104B10B598660020FFF7CDFF504309
:1034800041F671320C4BDC69DA635A6804F480341B
:1034900022F4401259B90949884294BF0020012002
:1034A000000502435A600CB10022DA6310BD0449E2
:1034B000F2E700BF0090005000000350005A620283
:1034C000002D31011FB50021B0F5807F0446CDE904
:1034D000001100F0D2803AD85E2833D85E2833D865
:1034E000DFE800F0453232323232323232323232BA
:1034F00032323232323232323232323232323232AC
:103500003232323245AC45ACBCBCBCBCBCACC64EA5
:103510006BDC4EACACAC3232323232323232ACAC2A
:10352000AC7EE6AC32323232323232323232323287
:1035300032BC454545E14E4EEB8D63C132323232ED
:10354000329E4500802870D0009804B010BDB0F5C0
:10355000D06F00F0A38035D8B0F5607F79D01AD84D
:10356000B0F5007F65D005D8B0F5C07FECD11EF076
:1035700001FF5CE0B0F5207F60D0B0F5407FE3D183
:103580001EF0F8FE02464FF42070FFF745FFB2FB35
:10359000F0F252085BE0B0F5B06F69D00AD8B0F530
:1035A000806F5BD0B0F5A06FCED100216846FFF7E9
:1035B000BBFCC9E7B0F5C06FC6D100216846FFF774
:1035C00061FDC1E7B0F5106F6DD00ED8B0F5086F92
:1035D00078D0B9D8B0F5E06F6AD0B0F5F06FB3D15C
:1035E00000216846FFF7D6FDAEE7B0F5406F3AD050
:1035F00013D8B0F5206F60D0B0F5286FA4D10021AA
:10360000324B0391D3F8703203F00303012B02D144
:1036100003A8FFF737FD039B39E0B0F5486F93D15E
:1036200000216846FFF784FD8EE71EF083FE0090C0
:103630008AE71EF07FFE0246204604E01EF09AFE56
:1036400002464FF42070FFF7E7FEB2FBF0F2009263
:103650007AE701A8FFF79AFC019AEDE70021684696
:10366000FFF7DCFC70E700216846FFF72BFC6BE7F7
:1036700000216846FFF72CFE66E74FF0E023029139
:103680001B695B0705D51EF075FE0290029B009337
:103690005AE703A902A8FFF7F5FCF7E700216846FF
:1036A000FFF762FE50E700216846FFF789FE4BE70F
:1036B00000216846FFF734FE46E700216846FFF721
:1036C00005FD41E76846FFF785FC3DE700800050B7
:1036D00008B58020FFF7F6FE034B98429EBF4FF4DB
:1036E0008032024B1A6708BD005A620200A00050E7
:1036F0001FB503460020B3F5807F019000F0C58020
:1037000065D85D2B56D84C2B07D82D2B48D8232BAA
:103710002CD8019805B05DF804FB4D3B102BF8D870
:1037200001A252F823F000BF8138000813370008C7
:1037300013370008133700082F3800081337000824
:1037400013370008DB3800084D380008F33700084D
:10375000D138000813370008133700081337000862
:103760001337000813370008E5380008243B092BFD
:10377000CFD801A252F823F0813800088138000820
:1037800081380008813800088138000813370008A4
:1037900077380008133700080F380008B7380008DA
:1037A0003D2B00F083803E2BB3D1002001A9FFF711
:1037B000B7FDAEE7802BACD1504B1B6F03F0070376
:1037C000013B032BA5D8DFE803F0544D5052B3F56D
:1037D000F06F6BD020D8B3F5B06F4CD00ED8B3F5E6
:1037E000607F71D095D3B3F5806F49D0B3F5A06FEA
:1037F0008FD1002001A9FFF797FB8AE7B3F5D06FBF
:1038000059D0B3F5E06FD0D0B3F5C06F81D10020AF
:1038100001A9FFF737FC7CE7B3F5206F5DD00BD82B
:10382000B3F5086F4CD0B3F5106F7FF472AF002082
:1038300001A9FFF7C5FD6CE7B3F5406F48D0B3F5BC
:10384000486F4FD0B3F5286F7FF463AF2B4BD3F89D
:10385000703203F00303012B49D0022B0CBF152358
:10386000002300E00523019353E70323FBE708232C
:10387000F9E70223F7E7002001A9FFF729FD48E750
:10388000002001A9FFF7CAFB43E74FF0E0230290B5
:103890001B695B0705D51EF06DFD0D230393039B8C
:1038A000E1E703A902A8FFF7EDFBF8E7002001A973
:1038B000FFF770FC2DE7002001A9FFF755FD28E771
:1038C00001A9FFF787FB24E701A9FFF75FFB20E7CA
:1038D000002001A9FFF7F6FA1BE7002001A9FFF776
:1038E000F5FB16E7002001A9FFF722FC11E70021F4
:1038F00003A8FFF7C7FB1123B5E700BF0080005006
:103900004FF48032074B0849586E03F580535A66CE
:103910004B6A23F001034B62C3035CBF034B5A663F
:10392000704700BF0080005000C0075000A000504A
:1039300038B504468020FFF7DBFE032800F08A80BC
:103940004FF48012544B4FF0A0615A6645F60E03B7
:10395000524AC2F88030524B99624FF4803103F5DD
:1039600080539962936DD903FCD4916D11F080411D
:10397000FBD1D4E900031B0543EA0063E07B03436A
:10398000207B43EA0043607B43EA0033A07B43EAA9
:10399000801313619069D4E904531B0643EA8563DD
:1039A00000F000400343A07E0343207E43EA00432F
:1039B000607E43EA00239361136AE06923F00F03FA
:1039C0000343003818BF0120E57E43EA850343EA3C
:1039D000C0031362E369334D002B3CD194F82430CB
:1039E000916A94F82000DB00294043EA40130B431E
:1039F00094F8211043EA011343F4803393622A4977
:103A0000264A936D31EA0303FBD14FF080712448BD
:103A100081621369A56823F4700343EA05531361B7
:103A20004FF00043836194F822300BB91F4B996229
:103A300094F823303BB94FF480321C4B9A62174AFA
:103A4000936D5B00FCD494F825301BB1134B184ADE
:103A5000C3F8802038BD022B08D11161154891614F
:103A60004FF408524FF47F4113F0D8FB0B4994F800
:103A700022308A6A94F820001B062A4043EA401349
:103A8000134394F8242043EAC20394F8232043EA22
:103A900002438B62D7E700BF009000500040005AFD
:103AA0000050005AC7FFFEFE030001000060005AEC
:103AB000F1A7FFFF3440005A014B93F90000704713
:103AC0005D1100204FF400011B4A437810B5516688
:103AD0004FF4D151022402F5B832516217494F2BED
:103AE0004C604FF0010428BF4F2301F580514C601A
:103AF0001169C903FCD4017843EA01235361D0E979
:103B000001131B0143EA0123417B0B43017B43EA81
:103B100041039360C37B817B1B0143EA4113417CDA
:103B20000B43017C43EA41035360837C13B16FF480
:103B3000D153536210BD00BF0090005000100250DE
:103B4000014B1880704700BF5A110020014B1880AC
:103B5000704700BF581100204FF4800208B5184B81
:103B60005A660223174A5360936813F48033FBD1DB
:103B7000012822D11EF018FC134B984215D003F5F2
:103B8000122303F5F863984213D0104B00EB800228
:103B9000400AB3FBF0F3520A0A49CA620B630123DD
:103BA0004B620022074B5A6008BD45F67A13084A5B
:103BB000F2E745F61A03074AEEE75362F1E700BF62
:103BC000009000500040025000F0490264666666B2
:103BD000D8B80500BBCF0500B0F5207F10B50C4666
:103BE00057D008D8B0F5007F48D003D830B3B0F52F
:103BF000C07F23D010BDB0F5607FFBD12949013CC7
:103C0000D1F8FC2012F080721EBFD1F8FC3023F0F6
:103C10008073C1F8FC302449D1F8803023F03003A0
:103C200043EA0414C1F88040002AE3D01D4AD2F8C8
:103C3000FC3043F08073C2F8FC30DBE713F0FDFA90
:103C400013F009FB4FF48031184B174A1967136FB3
:103C5000013C23F4704343EA043414671EF08AFBEA
:103C60000446FFF723F9C0F10201204613F0EDFAF4
:103C700000F036F8BDE81040FFF72ABD0A4A4C1E96
:103C8000D2F8903023F0F85343EA0464C2F890402D
:103C9000B0E7054A4C1E136F23F4806343EA842384
:103CA0001367A7E700ED00E000800050009000508F
:103CB00008B50121022000F011FB4FF42070FFF73E
:103CC000ABFB054B187013F0B8FA13F0C4FA4FF4BD
:103CD0008032024B1A6708BD8A33002000900050E2
:103CE00008B54FF4C070FFF7EDFBBDE8084004498C
:103CF000884294BF012102214FF42070FFF76CBF6E
:103D000080F0FA0238B504461EF034FB0546FFF792
:103D1000CDF8C0F10201284613F097FA01210020E6
:103D200000F01CFB2CB1FFF7DBFFBDE83840FFF7CC
:103D3000CFBC034B4FF420701978FFF74DFFF4E729
:103D40008A3300204FF4C02201212DE9F0410546BD
:103D5000664B5A66664A03F598335E6851605C6844
:103D600014F00204FBD1FFF7A1F801282F6803D15A
:103D7000604B9F4200F2B7805F4A002311461068F3
:103D8000B84202D85068B84205D20133192B02F16B
:103D90001002F4D1002301EB0313D3E9028028B110
:103DA000FFF71CFA00F07F0048EA00088020FFF7C8
:103DB0009FFC052857D113F040FA13F04CFA4FF44A
:103DC00080324A4B4FF4C0701A67FFF725FB012879
:103DD000044644D102214FF4C070FFF7FDFE0127D5
:103DE000464BDA6812F0060FFBD19968C3F80880D9
:103DF0009A6882EA080212F4F81F48D1AA88EB8870
:103E000043EA02433E4AD360AB68032B2DD1A2F5AF
:103E1000A032D2F8003123F0030343F00103C2F8CB
:103E200000312B7D6A7D9B0043EA82132A690026BC
:103E300013432A7B43EA4203314A93602868FEF722
:103E400033FF07222A4B1A610122A3F580535A60DF
:103E5000A3F580531D6915F00705FBD01DE002286E
:103E600001D10421B7E70027BAE7092B07D1254A7A
:103E7000D2F8003123F0030343F00203CFE7082B0D
:103E8000CFD1204AD2F8003143F00303C7E716F040
:103E9000010599604FF00106D3D18020FFF728FC7F
:103EA000052817D127B121464FF4C070FFF794FEC3
:103EB0001EF060FA04461EF037FA1EF035FAFEF7DF
:103EC000F5FFC0F10201204613F0BFF9FFF708FF2C
:103ED000FFF7FEFB86F00100012D14BF002000F06B
:103EE0000100BDE8F0812046FBE700BF00900050D4
:103EF00000E00150005A6202F43202080000015052
:103F000000C0015000800050364B98424FD01CD862
:103F1000354B984257D00ED8344B98424FD008D8E2
:103F2000334B98422CD0334B984229D0324B984295
:103F300026D0002327E0314B984234D0304B9842B2
:103F4000F7D1304BD3F8BC301DE02F4B984232D024
:103F50000FD8A3F53703A3F5D853984237D003F50C
:103F6000B70303F558639842E3D1264BD3F8C83022
:103F700009E0264B9842DCD1224BD3F8D03002E046
:103F8000204BD3F8A0304FF40021214A23F0407396
:103F90005166194A90421ED0154A90421ED04FF0E9
:103FA000B44293607047174BD3F8B830EBE7154B2A
:103FB000D3F8C030E7E7134BD3F8CC30E3E7114B2D
:103FC000D3F8A430DFE70F4BD3F8B030DBE70D4B6D
:103FD000D3F8C430D7E743F00073E0E743F08073D1
:103FE000DDE700BFC0EA210180969800404B4C00FD
:103FF00080841E0000093D0040420F00405DC60065
:104000000024F4000080E00F0048E801005A62023A
:104010000090005030B58BB06C46944D94481EF023
:10402000A3FD0FCD0FC42B68924A2360FF238DF8A8
:104030000130D2F84C3113F4802340F00A81D2F8D9
:1040400050218DF801309DF801306C46FF2B08BFE0
:104050003F236846884D8DF80130FFF733FD32204D
:10406000FFF76EFD0FCD0FC40FCD0FC495E8030011
:1040700084E803007F4BD3F84C21100300F1E38068
:10408000D3F85041E4B28DF81940FFF715FD044410
:1040900084F3080479488DF81840FEF70BFE684653
:1040A000FFF746FC3220FFF751FD754A754B03219F
:1040B000CDE900230023CDE9021301238020CDE9BF
:1040C0000433FFF715FB0528044606D16E4A136F2B
:1040D00023F0070343F0010313676C481EF044FD0F
:1040E0006846FFF72FFE052C06D1674A136F23F0B1
:1040F000070343F0020313676548FFF705FF624CAF
:1041000064481EF031FD0020FFF726FDFFF7D0FDCB
:10411000236F002023F0070343F002032367FFF718
:10412000F1FD236F5C4923F4744343F480632367F8
:10413000D1F8FC2012F080721EBFD1F8FC3023F0C1
:104140008073C1F8FC300021D4F8803023F00303E1
:1041500043F00103C4F88030504BC3F8801032B1F3
:104160004D4AD2F8FC3043F08073C2F8FC30464C24
:10417000D4F8203123F0070343F00103C4F82031C1
:10418000D4F8283123F0070343F00103C4F82831A1
:10419000D4F8803123F0030343F00103C4F88031E5
:1041A000D4F8403123F0030343F00203C4F8403154
:1041B000D4F8603123F0030343F00203C4F8603104
:1041C000D4F8403223F0030343F00203C4F8403232
:1041D000D4F8003223F0070343F00203C4F800329E
:1041E000D4F8083223F0070343F00203C4F808327E
:1041F000D4F8703223F0030343F00103C4F87032A3
:10420000D4F8203223F0070343F00103C4F820322E
:10421000FFF776FB4FF0E0220020136943F0040320
:104220001361D4F8603223F0070343F00103C4F8AC
:104230006032D4F8943223F0070343F00103C4F84A
:1042400094320BB030BD164B1C88FF2C88BF8C24D9
:1042500019E74FF07E6393F89C2093F99C30002B74
:10426000FFF6F1AE8DF80120EDE600BF482D020803
:10427000E83202080080E00F5C2D0208C0175302EC
:10428000802FA604FF0E7F0700800050F032020846
:10429000C0EA2101EC32020800ED00E0009000507D
:1042A0000001E00F07B5084B186899889B790090CA
:1042B0006846ADF804108DF8063000F0BDF8002017
:1042C00003B05DF804FB00BF9C2D0208024A536B4B
:1042D0000342FCD1704700BF00400950F8B50446C6
:1042E0001C4BD3F88420D106FBD4D3F88430C3F31D
:1042F00081139C422CD01EF01DF8012C064602D1E1
:10430000214612F0A2FF1EF09CFC4FF00072124BEF
:1043100007465A66204612F0A9FF4FF480630D4D00
:10432000621E93402B676B6E9A0103D4D5F88430DC
:104330009B060AD538461EF07FFC022C08D1304679
:10434000BDE8F840002112F080BFD5F88430EAE7DC
:10435000F8BD00BF004000500060005010B50C4692
:1043600008B91DF0E7FF074B21461B783BB1064B10
:10437000984204D80120BDE81040FFF7AFBF0220EB
:10438000F9E700BF8B330020005A62024FF0004271
:1043900038B5244B244C5A664AF6CD33656C014639
:1043A00005F00105236430BB0120FFF78FFF636830
:1043B000DB0708D4002415B11B4B1C4A1A6412F009
:1043C00056FF204638BD1A4B58600846194B226BE1
:1043D000D20705D4984201D10724ECE70130F6E773
:1043E0009842E7D1F8E70132236B13F0080305D0B8
:1043F0008A42F8D1F0E700220E49F5E78A42EBD075
:1044000020210B4A91620121A2F580525160064998
:10441000084A886A800603D49342DDD00133F8E766
:104420009342DEE700900050004009503254FFFFF5
:104430000060095040420F004FF0004238B5164B63
:1044400001465A664AF6CD33144C154A656C23640E
:1044500043780B205B0043F00103D363FFF736FF83
:1044600063688A7823F4F87343EA02136360CA78B6
:104470004B7943EA0223A3600A798B7943EA02234A
:1044800023610878FFF782FFEB0744BF054B2364E5
:1044900012F0EDFE012038BD0090005000400950A0
:1044A000004000503254FFFF0122437801789A40C7
:1044B00030235943014B5A50704700BF40E003502E
:1044C000034BD3F82424D3F820041040704700BFD6
:1044D00000C00350064BDA6E02F03002202A06D0EC
:1044E000DA6E22F0300208B142F01002DA6670474C
:1044F000004000502DE9F0411B4B0446D3F8103327
:104500004B1E0E2B0E46174621D929B34FF000083B
:104510002046F7B11EF028FA30220F212078637868
:104520005043072B88BF083B104D95BF9B009B0055
:1045300004300C3008FA03F29940284412F098FE37
:1045400086B9204657B1BDE8F0411EF00DBA884645
:10455000DEE7FFF7A9FFDFE78846DDE7BDE8F041CA
:10456000FFF7A2BFBDE8F08100C0035030C0035088
:104570002DE9F0412B4B1746D3F810234A1C064671
:104580000C4605D1D3F82414407812F08CFE044672
:10459000002C2FDB072C4FF0030532782DDC4FEA7F
:1045A000840805FA08F529461F4802FA08F212F0B5
:1045B0005FFE294672781D4802F0030202FA08F2F3
:1045C00012F056FE012317F0050F194A18BF1949BA
:1045D00003FA04F30CBFC2F81034C1F8103417F01A
:1045E000060F18BF134AC2F814340123104AA3401F
:1045F000C2F820342046BDE8F081A4F108084FEA53
:10460000880805FA08F529460B4802FA08F212F064
:104610002FFE7278294602F00302084802FA08F2D7
:10462000CEE700BF00C0035000C4035008C40350CD
:1046300000E0035000D0035004C403500CC40350E6
:1046400038B505460C4C0140D4F8303423EA000359
:10465000C4F83034D4F830341943C4F83014D4F8E2
:104660002C340343C4F82C34012004F50054FFF724
:1046700031FFC4F8205438BD00C0035070B5124B50
:104680000646D3F8103312F021FE0446481C1546A6
:1046900016D0621C0FD08C420FD10321304685F01A
:1046A0000102FFF727FF012004F1100305FA03F1CF
:1046B0009840FFF7C5FF204670BD4FF0FF34FAE782
:1046C000631CEAD1F7E700BF00C003504A680F4BF4
:1046D00030B59A4216D0102492B292FAA2F2120C7D
:1046E0000B78CD789B0243EA45334D7843EA452366
:1046F0008D7843EA05232343836004B142618B68CC
:10470000036130BD00221446EAE700BFB71DC104B3
:104710004FF48032054B9A6641F6713203F51C3333
:10472000DA63012203F50053DA607047009000500D
:10473000024B187880F00100704700BFFB73002027
:1047400070B5194B1B68FFF7F3FFD0B9EFF3118475
:10475000302383F31288BFF36F8F144D2B7803F04F
:10476000FF06FBB9124818F0C5F800280BDA012241
:10477000FFF7DEFF18B984F31188BFF36F8F10467F
:1047800070BD0024E9E7012231460A4818F0D3F849
:104790000028ECDB5022084B83F8412302229A6068
:1047A00001232B700022E3E77C0B00208C330020D8
:1047B00010210020F820002000E100E000232DE976
:1047C000F0478EB00E46174604460193002869D084
:1047D0000AB1002966D037F0030807F0030A28D091
:1047E0004FF0E0634FF0000923600123C4F8049008
:1047F000C4F808900896099348F000530A9308AA51
:1048000002AB07CAC4F8209083E807001946204687
:104810001EF089FA414620461EF05CFA20461EF042
:10482000D7F8054628B14246494630461DF0CEF835
:1048300003E0BAF1000F04D1002528460EB0BDE810
:10484000F0874FF0E0634FF00009236001ABC4F83C
:104850000490C4F808900B9301230C93124B0EAAFA
:104860000D9305AB12E90700C4F8209083E8070018
:10487000194620461EF057FA042120461EF02AFA57
:1048800020461EF0A5F8054608B13A46CCE7019A45
:104890004644EB00013522FA03F3AA4506F8013B32
:1048A000F7D1C9E72125C8E70400002040B200285D
:1048B00008DB01224309044900F01F0082406033F5
:1048C00041F82320704700BF00E100E080B50546B5
:1048D0000E46174698460DF073F8034600F036FE74
:1048E000DFF84090044649F80030424639463046E9
:1048F000A847094B1B7853B90849094840F25D3273
:1049000012F040F840F25D31044812F032F854F8E9
:10491000090000F08BFD00BFFB730020E645020894
:10492000AA4202080800000008B50348034A002113
:10493000121A12F015FD08BD181300200074002093
:10494000074808B5074A0849121A12F00BFDBDE8DE
:1049500008400648064A0749121A12F003BD00BF74
:10496000800A0020181300201C650208A8080020F7
:10497000800A002044630208F0B507460C4687B061
:10498000002949D011F0E3FFA36845210093D4E941
:1049900000232B4812F008FB11F0D9FF6369452171
:1049A0000093D4E90323274812F0FEFA11F0CFFF59
:1049B0004521E269244812F0F7FA11F0C8FF4521B9
:1049C000224812F0F1FA2646002511F0C0FFF36AE2
:1049D0002A460593EB1C0493B36A45210393AB1C51
:1049E0000293736A1A4801936B1C0093336A04356F
:1049F00012F0DAFA102D06F11006E6D111F0A7FF39
:104A00004521226E134812F0CFFA11F0A0FF452184
:104A1000A269114812F0C8FA012F09D1EFF30585F8
:104A200011F095FF45210D48A5F1100212F0BCFAD6
:104A30002146384607B0BDE8F0400AF0CDBA00BFC5
:104A40001146020845460208794602088D460208CA
:104A5000CC46020814470208284702085B470208B0
:104A600030BFFFF7FDBF00BF2DE9F04105460B4EFB
:104A7000DFF83080324606EB0807CC1B2046084999
:104A80001CF07EFFA01942460021083C1CF09EFF4E
:104A9000C5F8844007F10800BDE8F081000000007F
:104AA000482D02080800000038B5044611F04FFFF9
:104AB0004521434812F078FABCB111F048FF452176
:104AC000404812F071FA11F042FF45213E4812F0C1
:104AD0006BFA11F03CFF45213C4812F065FA11F0E9
:104AE00036FF45213A4812F05FFA3A4CD4F8E850C4
:104AF000D4F8E430590606D511F029FF2A4645219D
:104B0000354812F051FAD4F8E430DA070ED511F036
:104B10001EFF3248452112F047FA26202D4AD2F8CE
:104B2000E43043F0FF03C2F8E43038BDD4F8E43099
:104B30009B0707D511F00BFF2948452112F034FAE5
:104B40002720EBE7D4F8E4305D0707D511F0FFFE2E
:104B50002448452112F028FA2820DFE7D4F8E43071
:104B6000180707D511F0F3FE1F48452112F01CFA73
:104B70002920D3E7D4F8E430D90607D511F0E7FEB1
:104B80001A48452112F010FA2A20C7E7D4F8E43079
:104B90009A0607D511F0DBFE1548452112F004FAFC
:104BA0002B20BBE7D4F8E4301B0607D511F0CFFE6D
:104BB0001048452112F0F8F92C20AFE72520ADE789
:104BC0007347020891470208C2470208F8470208E3
:104BD0002B48020800ED00E0684802087D48020802
:104BE00098480208BB480208DB480208FD48020852
:104BF000174902083649020810B52C4C11F0A7FEDF
:104C000045212B4812F0D0F9A36A99014CD511F037
:104C10009EFE2848452112F0C7F91E20A36ADA013A
:104C200006D511F094FE2448452112F0BDF91F204D
:104C30001E4CA36ADB0206D511F089FE1F484521F0
:104C400012F0B2F90220A36A1C0306D511F07FFE10
:104C50001B48452112F0A8F92120144CA36A5903DE
:104C600006D511F074FE1748452112F09DF9222057
:104C7000A36A9A0306D511F06AFE1348452112F083
:104C800093F92320094CA36ADB0306D511F05FFEDC
:104C90000E48452112F088F92420A36A6FEA0343E5
:104CA0006FEA1343A36210BD1D20B7E700ED00E0DB
:104CB0004E4902086B49020883490208A2490208CA
:104CC000D1490208F44902081E4A02083D4A020876
:104CD000F8B5304C06460D4611F039FE45212E48F8
:104CE00012F062F9A36ADA0447D511F030FE2B48BE
:104CF000452112F059F91720A36A1B0506D511F0BA
:104D000026FE2748452112F04FF91820214CA36AAE
:104D10009F0515D511F01BFE2248452112F044F9DC
:104D2000A76BA36A18040AD511F011FE3A46452173
:104D30001D4812F039F916B14FF40043A36219204F
:104D4000144CA36A590506D511F001FE17484521F8
:104D500012F02AF91A20A36ADA0510D511F0F7FD2E
:104D60001348452112F020F91B200A4A936A43F4A4
:104D70007F43936200232B70F8BD1620BCE7A36A23
:104D80009B04F2D511F0E3FD0A48452112F00CF91D
:104D90001C20EAE700ED00E06D4A0208884A02089C
:104DA0009E4A0208B64A0208D44A0208EE4A02089D
:104DB0000E4B02082B4B0208F8B5384C06460D4640
:104DC00011F0C5FD4521364812F0EEF8A36ADF0662
:104DD00053D511F0BCFD3348452112F0E5F8112000
:104DE000A36A1C0706D511F0B2FD2F48452112F029
:104DF000DBF81220294CA36A990714D511F0A7FDFE
:104E000045212A4812F0D0F8676BA36A1A0609D523
:104E100011F09DFD3A464521254812F0C5F80EB126
:104E20008023A36213201D4CA36ADB0706D511F073
:104E30008EFD2048452112F0B7F81420A36A9F0682
:104E400006D511F084FD1C48452112F0ADF815205F
:104E5000124B9A6AD60602D49A6A94070FD59B6AB7
:104E6000D9060CD5154916484FF49B7211F08AFDEE
:104E70004FF49B71114811F07CFD1020B0E7074BF7
:104E80009A6A920642BF5A6A22F400525A629A6A99
:104E900042F0FF029A6200232B70F8BD00ED00E0A3
:104EA0005F4B02087A4B02089E4A0208B24B020886
:104EB000CF4B0208EA4B02082B4B02080E4C0208AB
:104EC000AA4202082DE9F043904B0546D3F804802E
:104ED00000269DB0C8F3080786F31188BFF36F8FD3
:104EE00002F07F43B3F17F4F38D1D40736D512F0AB
:104EF000400302F0080904D0B9F1000F1FD10126C8
:104F00001EE0500744BF0D461E462C68804B58BF1C
:104F100001262344012B98BF2C6C11F018FD22466A
:104F200045217C4812F040F8B9F1000F04D0EFF3AE
:104F30008985012405BB11E0EFF38885F9E70D466B
:104F400012F0200426D12A68714B1344012B12D988
:104F500011F0FDFC4521704812F026F811F0F7FC25
:104F600045216E4812F020F8002108461DB0BDE82A
:104F7000F043FFF701BD283500238DF80730FB1EF5
:104F8000092B00F2B080DFE803F007A1A58389AE0A
:104F9000AEAEAEA90024CDE711F0D9FC45216048A2
:104FA00012F002F80023594F8DF80730FB6A9A0778
:104FB00007D511F0CCFC45215A4811F0F5FF00242B
:104FC00033E0FB6A002B04DA11F0C1FC452156489E
:104FD000F3E7FB6A5B0070D511F0B9FC452153483B
:104FE00011F0E2FF7B69AA6943F480737B61BFF330
:104FF0004F8FBFF36F8F32F8023C7A6922F48072D0
:105000007A61BFF34F8FBFF36F8F03F47F42B2F526
:105010005F4F24D1DBB2022B21D111F098FC452146
:105020002A68434811F0C0FF2C689DF807309BB9EF
:105030006822294602A81CF0A3FC099B002E61D01F
:10504000C3F3080222B96FEA53236FEA432309939B
:10505000204602A9FFF790FC1DB0BDE8F0832B4B62
:105060009A6AD2B232B101200DF10701FFF7A4FE16
:105070000446DAE79A6A12F47F4F05D001200DF159
:105080000701FFF725FEF3E79A6AB2F5803F02D3E6
:10509000FFF7B2FDECE7D3F8E4301BB12046FFF791
:1050A00003FDE5E7234940F20332234811F06AFC8F
:1050B00040F203311F4811F05CFC1E4940F20632F9
:1050C0001D4811F05FFC40F20631F3E700200DF1BE
:1050D0000701CBE700200DF10701D2E711F037FC03
:1050E0004521164869E711F032FC154918F4F87F9C
:1050F000144A154818BF0A46A7F11003452111F0BC
:1051000053FF5CE76FF30803A1E700BF00ED00E089
:10511000A6ED05016E4C0208924C0208CF4C020825
:10512000104D02082C4D0208524D0208654D020830
:10513000894D02080E4C0208AA420208AA4D020834
:10514000554C0208404C0208D34D0208064B5A69E0
:1051500042F010025A615A6942F480625A615A69F7
:1051600022F008025A61704700ED00E0EFF308807A
:10517000EFF3098101B57246FFF7A4FE01BD00BF40
:105180000E4880F30888302080F311880C484FF0D7
:10519000AA014FF4006212F0E3F809484FF40061ED
:1051A000401880F30988EFF314800221084380F34C
:1051B0001488BFF36F8F00F089F8000020A300204F
:1051C000E0790020BFF34F8F0549064BCA6802F40F
:1051D000E0621343CB60BFF34F8F00BFFDE700BF1A
:1051E00000ED00E00400FA051EF0040F0CBFEFF321
:1051F0000880EFF30980816911F8021C0229FFD0B1
:1052000001B5724612F0B0F801BD00BF40B20028EF
:1052100007DB01234109034A00F01F00834042F8E5
:105220002130704700E100E04A2808B508D9094953
:1052300009484A2211F0A6FB4A21064811F099FBC1
:1052400001224309054900F01F008240603341F804
:10525000232008BDEB4D0208AA42020800E100E04D
:1052600008B5D30758BF03310F2908D90D490E4897
:10527000822211F087FB82210A4811F07AFB40B2AA
:105280000028ACBF00F16040084B4FEA0111C9B2E1
:10529000ABBF00F5614000F00F0080F80013195417
:1052A00008BD00BFEB4D0208AA42020814ED00E061
:1052B000044B054A23F07F039360BFF34F8FBFF386
:1052C0006F8F70470000000800ED00E008B5FCF7A4
:1052D0008DFEFFF7EDFF104BD3F8882022F470020B
:1052E000C3F88820D3F8882042F4A002C3F88820AD
:1052F0004FF04042C3F83422BFF34F8FBFF36F8F9C
:105300000023E1EE103AFFF70FFBFFF719FB00F067
:10531000FFF809F0CDFF00BF00ED00E08189203AE1
:1053200041F0020181814FF47D41C0F8E01013602B
:10533000009B08495360019B21F001019360029B8F
:105340009161D3604FF08073D36100230266C0F88F
:1053500098307047CD480008104B9B6883421AD1A3
:10536000EFF30580B8B9EFF31181302282F3128890
:10537000BFF36F8F9A8922F002029A81EFF31483B0
:1053800023F0040383F31488BFF36F8F81F3118834
:10539000BFF36F8F70476FF015007047C81C002077
:1053A00008B504460E4615460023E1EE103AEFF329
:1053B000148323F0040383F31488BFF36F8FBFF3C8
:1053C0006F8F0D4BD0F8842098600C4B1A600BF057
:1053D000BBFB636F83F30B882C4686F309880020A0
:1053E000034B98472046002100220023014C204710
:1053F0009D730108CD480008C81C0020242100200E
:105400001022014B1A61704700ED00E0054B1A6A4B
:105410009B689A421FBF044A536843F0805353600D
:10542000704700BFC81C002000ED00E0084B9B68DF
:1054300083420BD1EFF3058343B1064B5A6842F028
:1054400080525A605A6A22F400425A620BF014BC2D
:10545000C81C002000ED00E001B517F0E1FABDE83E
:10546000014028498A6882F8E1E04FF0400010448A
:10547000EFF3098C80E8F01F1EF0100F03D102F14A
:10548000A00080EC108A302080F31288BFF36F8F69
:105490001D4F4FF000660A6A8A603E60D2F88400B1
:1054A0001A4C206092F9E1E0D2F898000023C2F88B
:1054B000983080F311881EF0100F03D00023E1EE26
:1054C000103A03E002F1A00090EC108AEFF314838D
:1054D00023F0040383F31488BFF36F8F02F14000BD
:1054E00090E8F01F8CF3098802F1000004B511F078
:1054F0004FFFBDE8044001B50BF026FBBDE80140BD
:1055000070470000C81C002004ED00E024210020AA
:10551000002330210348C21801334B2B82F80013BB
:10552000F9D1704700E100E008B5EFF30583064AC2
:10553000103B02EBC30152F8330049688847BDE8CD
:105540000840FFF763BF00BF641F020801480068FE
:1055500070470000242100201FB50121094B0A4A91
:105560000A4800F00BF90023064A0393084B012177
:10557000019301A8D31A029300F01AF905B05DF85F
:1055800004FB00BF00000420000000208434020857
:10559000181300200A7A0B6810B562F304031C4646
:1055A000CB68520923F01F0343EA4203044A43F045
:1055B0000103C2F89800C2F89C40C2F8A03010BDA8
:1055C00000ED00E010B50A4B0446D3F89030C3F369
:1055D0000723013B984208D902464521054811F0AE
:1055E000E3FC6FF01504204610BDFFF7D3FFFAE788
:1055F00000ED00E0264E02082DE9F04F89461446E2
:1056000006464FF000084F4D85B0C84527DAD6F85A
:1056100004A0BAF1000F44D0BAF11F0F18D91AF044
:105620001F0F15D1D6F800B01BF01F0F10D1584630
:1056300011F0C8FE07460AEB0B00013811F0C2FE5C
:10564000874210D06FF015073A4645213E4802E0E8
:10565000424645213D4811F0A7FC6FF01504204655
:1056600005B0BDE8F08F17F1160FEDD0BC42EBDDB1
:10567000C5F89870D5F89C10C5F89870D5F8A0308A
:1056800021F01F0143F01F0BD6E900321A44994262
:1056900002F1FF3A1AD1D34507D13146F8B211F0E1
:1056A0009AFE08F101080C36AFE73146C5F898704C
:1056B000D5F89C30E0B263F30402C5F89C2011F0E9
:1056C0008AFE10F1160FC8D0441CEAE7C5F898709E
:1056D000D5F8A020013B23F01F0302F01F02134363
:1056E000D3453146E0B2C5F8A030E8D011F073FEE2
:1056F00010F1160FB1D0C5F89870D5F89C209DF820
:1057000008300BF1FF3B62F304038DF80830D5F845
:10571000A0309DF808205B0863F347128DF808203D
:10572000D6E900321344009323F01F035B44A3EB3C
:105730000A03013023F01F036946C0B20393FFF749
:1057400041FFBEE700ED00E07C4E0208514E02082A
:105750000522044BC3F89420BFF34F8FBFF36F8F24
:10576000704700BF00ED00E0BFF35F8F0022024BE7
:10577000C3F89420704700BF00ED00E010B5094C5D
:105780002278FFF739FF207016300AD10649074802
:1057900040F25F1211F0F6F840F25F11024811F08A
:1057A000E8F810BD8D330020A44E0208AA4202087A
:1057B0002DE9F74F2E4D8A4606464FF00008AB46BE
:1057C0002C4FD04502DB03B0BDE8F08FD6F8049033
:1057D000B9F1000F47D031680846019111F0F2FD90
:1057E0000199044609EB0100013811F0EBFD8442F8
:1057F0004FF01402204B10D002FB08F36FF015029B
:105800004BF803201D491E4840F26F1211F0BAF800
:1058100040F26F11194811F0ACF814F1160F2C601A
:10582000F0D01978A142EDDD02FB08B0C7F898402E
:10583000C7F89840D7F89C4000F10801007B64F35A
:1058400004000871D7F8A0000C79400860F34714F1
:105850000C71D7F89C1021F01F016960D7F8A010D7
:1058600021F01F01296108F1010814350C36A8E761
:105870002821002000ED00E08D330020A44E020816
:10588000AA4202082DE9F0416249634DD1F89030F7
:105890002C68C3F307239C4286B00AD95F494FF4B2
:1058A000EC725F4811F06EF84FF4EC715B4811F048
:1058B00060F80020FFF758FF5A4BC1F8C03084420F
:1058C0001BD1594D01A82C70FCF76CFF0026074630
:1058D0004FF06108554CB74216D100202B784D4946
:1058E000D1F89020C2F307229342C0F28D800020AD
:1058F000FFF72EFF06B0BDE8F081696801EB0011EB
:10590000FFF748FE0130DAE7019A300102EB061397
:10591000D3F80CC00CEA0401B1F1807F53D00AD84F
:10592000B1F5001F29D0B1F5800F3FD0B1F5801F30
:1059300014D00136CFE7B1F1006F44D0B1F1805FF0
:10594000F7D159689B681258013B21F01F000344AE
:10595000CDE9021223F01F0301220BE0596812580F
:105960009B68CDE902122122013B21F01F00034474
:1059700023F01F038DF8102032E0596812589B68FD
:10598000CDE902124122013B21F01F00034423F024
:105990001F031CF0010F8DF81020059321D01F4923
:1059A00083221F4810F0EEFF83217FE759689B6830
:1059B0001258013B21F01F000344CDE9021223F0ED
:1059C0001F030222D6E7596812589B6821F01F0076
:1059D000013BCDE90212034423F01F038DF8108030
:1059E0000593287802A9FFF7EDFD002808DA0B4996
:1059F00040F21B220A4810F0C5FF40F21B2155E778
:105A00002B7801332B7094E7C1F89830C1F8A000CF
:105A1000013365E700ED00E090340208A44E02086F
:105A2000AA420208AAFF44008D3300200000F0FFC4
:105A300008B502480EF086FFFEE700BFE24E0208FE
:105A400008B5024B1B689847002008BD3C21002088
:105A5000F8B50D46094F461EC0F10104A3199D4239
:105A600001DC2846F8BD73780A2B02D10D203B6873
:105A700098473B6816F8010F9847EFE73C21002054
:105A800008B5054810F068FF002383F31188BFF3C1
:105A90006F8F0423184602DFE74E020808B5064957
:105AA000064821F00701C1F1005202F58022FCF7FF
:105AB0008BF9002008BD00BF3723012040210020C2
:105AC00008B54FF0FF324FF0FF33074809F0E4FD0F
:105AD00040B106490648842210F054FF842103484F
